:100000000C946D000C94AA230C94D7230C949500A7
:100010000C9495000C9495000C9495000C944E2330
:100020000C9495000C9495000C9495000C949500FC
:100030000C9495000C9495000C9495000C949500EC
:100040000C9405240C9495000C941B200C945E20B9
:100050000C9495000C9495000C9495000C949500CC
:100060000C94C3070C9495000200000007000201E5
:10007000000003040600000000000000000102046C
:10008000081020408001020408102001020408101A
:100090002004040404040404040202020202020311
:1000A00003030303030000000023002600290000CF
:1000B000000000250028002B00000000002400277D
:1000C000002A00007E06C909DF15E718E519E81BBC
:1000D000861D711F1A21CC21D00611241FBECFEF1F
:1000E000D8E0DEBFCDBF13E0A0E0B1E0E4EAFCE47D
:1000F00002C005900D92A634B107D9F717E0A6E427
:10010000B3E001C01D92A630B107E1F710E0C8EDE1
:10011000D0E004C02297FE010E940626C43CD1070D
:10012000C9F70E94D7060C9445260C940000FC01E8
:10013000A485B585ED91FC9111970190F081E02D9A
:10014000CD010994DC011C968D919C911D97DC01D9
:10015000ED91FC910480F581E02D0994DC011C9661
:100160008D919C911D97DC01ED91FC910680F781AA
:10017000E02D0994DC011C968D919C911D97DC016A
:10018000ED91FC910084F185E02D0994DC011C9631
:100190008D919C911D97DC01ED91FC910284F3857A
:1001A000E02D09942091310530913205809133057D
:1001B000909134052817390779F4C901019668E050
:1001C00070E00E94BA2580933105909332058093A8
:1001D0003305909334050895019668E070E00E941D
:1001E000BA25909334058093330508952FEFDC01F1
:1001F0002C9311961C920296FC0188E0DF011D925F
:100200008A95E9F70895CF93DF93D82FC92F68E136
:1002100071E00E94422268E271E08D2F9C2F0E94C3
:10022000422260E471E08D2F9C2F0E9442226EE5F5
:1002300071E08D2F9C2F0E9442228D2F9C2F0E94B7
:100240002C2265E771E08D2F9C2FDF91CF910C94CC
:100250004222CF92DF92EF92FF920F931F93CF93A0
:10026000DF9300D000D0CDB7DEB700E010E088EE1D
:10027000C82E83E0D82EE12CF12C08C066E970E08E
:1002800080E090E00E948B240F5F1F4F0A30110521
:10029000B4F486EC93E00E948D0D882379F3C98233
:1002A000DA82EB82FC82AE014F5F5F4F6AE573E05A
:1002B00086EC93E00E94230E882301F30CC065E8CE
:1002C00071E082E496E00E9419226AE082E496E0FE
:1002D0000E941B22FFCF10915C0300915B03F09002
:1002E0005A0362EA71E082E496E00E9419226F2DBF
:1002F00082E496E00E941B2261EB71E082E496E0CA
:100300000E9419224AE050E0602F82E496E00E94A9
:10031000BF226EE282E496E00E941B224AE050E097
:10032000612F82E496E00E94BF226AE082E496E0B8
:100330000E941B2221E044E161E086EC93E00E94F0
:10034000B80D88EE93E0A0E0B0E089839A83AB8398
:10035000BC83AE014F5F5F4F6AE573E086EC93E0CC
:100360000E94230E80911B04883091F462EC71E0AE
:1003700082E496E00E9419226AE082E496E00E94FC
:100380001B2242E06CEF72E086EC93E00E944B117E
:100390000F900F900F900F90DF91CF911F910F91C1
:1003A000FF90EF90DF90CF9008950F931F93CF931E
:1003B000DF93CDB7DEB728970FB6F894DEBF0FBE38
:1003C000CDBF4EEF50E06AE573E086EC93E00E940B
:1003D000DB0F88E0E6E0F1E0DE01119601900D927E
:1003E0008A95E1F76BE87AE186EC93E00E949F1032
:1003F000019611F480E083C08E010F5F1F4F24E04F
:100400004BE85AE16AE573E086EC93E00E94C8107D
:10041000882381F364ED71E08CE493E00E9419225B
:1004200020E042E050E06AE573E08CE493E00E9453
:10043000370A6AED71E08CE493E00E94192220E013
:1004400048E050E06AE773E08CE493E00E94370AEA
:1004500068E072E08CE493E00E94192220E048E01A
:1004600050E06CE573E08CE493E00E94370A109151
:1004700069030091680362EE71E08CE493E00E94EE
:100480001922602F8CE493E00E941B2266EE71E03B
:100490008CE493E00E941922612F8CE493E00E9487
:1004A0001B226AE08CE493E00E941B226EEE71E056
:1004B0008CE493E00E94192220E048E050E062E8DA
:1004C00073E08CE493E00E94370A65EF71E08CE4FE
:1004D00093E00E94192220E048E050E06AE873E0CF
:1004E0008CE493E00E94370A6AE08CE493E00E9477
:1004F0001B226AE08CE493E00E941B2281E0289694
:100500000FB6F894DEBF0FBECDBFDF91CF911F9124
:100510000F910895CF92DF92EF92FF920F93CF93B6
:10052000DF9300D000D01F92CDB7DEB77C016CEF17
:1005300071E08CE493E00E941922670182E0C80E0A
:10054000D11CF701418100E120E250E0B6018CE4CA
:1005500093E00E94F9096AE08CE493E00E941B2278
:10056000F7012181A601608186EC93E00E94A60E2E
:100570004DEB52E064E070E086EC93E00E94B90E2F
:10058000811102C080E08FC088EE93E0A0E0B0E06F
:1005900089839A83AB83BC83AE014F5F5F4FBE01FB
:1005A0006B5F7F4F86EC93E00E94230E882351F30C
:1005B0008D81882309F459C0E5CF64ED71E08CE4A6
:1005C00093E00E94192220E042E050E06AE573E0E7
:1005D0008CE493E00E94370A67E072E08CE493E0D9
:1005E0000E94192220E048E050E06CE573E08CE4C2
:1005F00093E00E94370AF0908103E090640362EE7A
:1006000071E08CE493E00E9419226E2D8CE493E05B
:100610000E941B2266EE71E08CE493E00E94192296
:100620006F2D8CE493E00E941B226AE08CE493E03F
:100630000E941B226EEE71E08CE493E00E9419226E
:1006400020E047E050E062E873E08CE493E00E9431
:10065000370A6AE08CE493E00E941B226AE08CE493
:1006600093E00E941B2281E01EC04AE553E064E053
:1006700086EC93E00E94140F882309F483CF4AE6A6
:1006800053E065E086EC93E00E94140F882309F4A0
:1006900079CF4AE753E066E086EC93E00E94140FBE
:1006A00081118BCF6FCF0F900F900F900F900F9005
:1006B000DF91CF910F91FF90EF90DF90CF90089551
:1006C000CF92DF92EF92FF920F931F93CF93DF931E
:1006D000CDB7DEB762970FB6F894DEBF0FBECDBFC1
:1006E0000E944F240091C2031091C3032091C403C0
:1006F0003091C5030C591F4F2F4F3F4F0617170757
:100700002807390708F021C10E944F246093C203D3
:100710007093C3038093C4039093C50300910001B9
:1007200021E031E041E061E086EC93E00E94E60DDB
:1007300081110CC06DE072E08CE493E00E941922FC
:100740006AE08CE493E00E941B22FFC088EE93E0F5
:10075000A0E0B0E08E879F87A88BB98BAE01425F87
:100760005F4F6AE573E086EC93E00E94230E8823D6
:1007700009F380915A03882309F4E7C010915B03C1
:100780001093AA03812F8151823060F488E0809316
:10079000AB03E0E6F3E0ACEAB3E001900D928A959A
:1007A000E1F70DC0409161034093AB032CEA33E0C5
:1007B00082E693E050E0BC01C9010E941F268091AF
:1007C000B403181310C04091AB038091B5034813D4
:1007D0000AC050E066EB73E08CEA93E00E941226B8
:1007E000009709F49BC01093B4034091AB0340936E
:1007F000B50326EB33E08CEA93E050E0BC01C9017D
:100800000E941F2686E294E00E943C0B86E294E060
:100810000E94560B0E944F246093BE037093BF0347
:100820008093C0039093C1031091B4031031F1F091
:10083000113109F08AC066E272E08CE493E00E9414
:1008400019224091B50300E120E250E066EB73E02D
:100850008CE493E00E94F9096AE08CE493E00E9442
:100860001B2284EB93E00E94D5011AC062E372E080
:100870008CE493E00E9419224091B50300E120E24C
:1008800050E066EB73E08CE493E00E94F9096AE0C3
:100890008CE493E00E941B2284EB93E00E948A0286
:1008A000882309F452C00E94D200809133059091B0
:1008B0003405079628E030E0B9010E94BA2555E0DA
:1008C000880F991F5A95E1F78F5C9B4F4091270441
:1008D000509128046091290470912A04FC014483FA
:1008E000558366837783DC01539688E0ECE5F3E07B
:1008F00001900D928A95E1F780913305909134052E
:100900000796B9010E94BA2565E0880F991F6A957C
:10091000E1F78F5C9B4FFC01108717C00E944F24AA
:100920000091BE031091BF032091C0033091C10319
:1009300008571C4E2F4F3F4F061717072807390738
:1009400020F484EB93E00E94F60066E473E08E01ED
:100950000F5F1F4FC8010E94121DC8010E94201A7C
:10096000882309F4D0C06BE472E082E496E00E9430
:100970004222A0C0C8010E946B1A892B09F49EC0B4
:10098000C8010E94501A282FE0914206F0914306B8
:100990000190F081E02D682F82E496E02A8B099582
:1009A0002A892A3009F083C0FF2009F483C0C801D6
:1009B0000E94030166E572E0C8010E9442226DE5D3
:1009C00072E0C8010E94422286E294E00E943C0B41
:1009D00040912704509128046091290470912A04C1
:1009E00020E130E0C8010E94C62266E872E0C8013A
:1009F0000E94422200E010E048E0E42EF12C8091B9
:100A0000310590913205800F911FB7010E94BA25E0
:100A100035E0880F991F3A95E1F78F5C9B4FFC01F9
:100A200044815581668177814115510561057105C4
:100A300009F05AC080858F3F09F056C025C08091CB
:100A4000310590913205800F911FB7010E94BA25A0
:100A500025E0880F991F2A95E1F78F5C9B4F8C0D3D
:100A60009D1DFC016389CE0101960E941B22FFEFB0
:100A7000CF1ADF0A88E0C816D10409F766E872E0E9
:100A8000CE0101960E9442220F5F1F4F08301105D0
:100A900009F0B5CF66E872E0CE0101960E944222CD
:100AA0006DE872E0CE0101960E9442220CC02D300A
:100AB00021F404C0FF24F39401C0F12CC8010E946A
:100AC000141B811157CF61E070E080E090E00E943C
:100AD0008B24CE0101960E94381B65E972E082E406
:100AE00096E00E9442220FC020E130E0CE01019644
:100AF0000E94C62264EE71E0CE0101960E94192286
:100B0000C12CD12C9CCF62960FB6F894DEBF0FBEDD
:100B1000CDBFDF91CF911F910F91FF90EF90DF90AC
:100B2000CF900895EF92FF920F931F93CF93DF938F
:100B3000CDB7DEB7AA970FB6F894DEBF0FBECDBF14
:100B400086E0EEE0F1E0DE01959601900D928A9547
:100B5000E1F760E070E081E496E00E947C1F8E394E
:100B6000D9F461E070E081E496E00E947C1F882364
:100B700099F07E0185E2E80EF11C02E010E0B80178
:100B800081E496E00E947C1FF70181937F010F5F53
:100B90001F4F0830110599F701EB21E048EA60EC9E
:100BA000CE014F960E94B52101E021E048EA60ECB9
:100BB000CE0149960E94B52100E020E04FEF6FEF93
:100BC000CE0143960E94B52124E433E03A83298381
:100BD0008D899E89AF89B88D8B839C83AD83BE83BD
:100BE00038872F838B8D9C8DAD8DBE8D89879A879D
:100BF000AB87BC873E872D8789A19AA1ABA1BCA1F9
:100C00008F87988BA98BBA8B8E010F5F1F4F9E0128
:100C1000295F3F4FAE01435F5F4FBE016B5D7F4F6A
:100C200089E196E00E944C19AA960FB6F894DEBFAF
:100C30000FBECDBFDF91CF911F910F91FF90EF902D
:100C40000895CF93DF9300D000D000D0CDB7DEB7AA
:100C500040E05BE460E070E082E496E00E9499206E
:100C60000E948A0A0E94920586E493E00E94091C71
:100C700069E176E0CE0101960E94C31968EA72E04C
:100C80008CE493E00E941922BE016F5F7F4F8CE4D9
:100C900093E00E9422226AE08CE493E00E941B22EF
:100CA00089EA95E00E948F0986EC93E00E94990BF7
:100CB0000E94290186E294E00E94020B86E294E001
:100CC0000E943C0B86E294E00E94560B84EB93E07A
:100CD0000E94F60066EB72E082E496E00E94192220
:100CE0006AE082E496E00E941B2226960FB6F894F2
:100CF000DEBF0FBECDBFDF91CF9108950F9300E00F
:100D000020E040E060E085E395E00E94B52189E0C5
:100D1000809326041092270410922804109229042C
:100D200010922A0410922B0410922C0410922D047D
:100D300010922E041092300410922F0427E042E00B
:100D400064E286EC93E00E94700B84EB93E00E94D7
:100D5000F6008AEA93E00E94F60010924F03109288
:100D60004E0388EE93E0A0E0B0E0809350039093B0
:100D70005103A0935203B093530388EC92E09093F5
:100D80004D0380934C0382E496E090935903809343
:100D9000580360E570E086E493E00F910C944D1CDD
:100DA00088EC92E090934D0380934C0308950E9449
:100DB000BD240E942106C5E5D0E20E946003209771
:100DC000E1F30E945520F9CF1092440581E0809311
:100DD00042051092410561E082E10E945A2561E0DE
:100DE00083E10E945A25E9EBF0E080818E7F8083C9
:100DF00080818D7F808388E48093B80085E4809330
:100E0000BC000895413208F03FC090914405911113
:100E1000FCCF91E090934405209342052FEF20935F
:100E20003B0510924005242F215020933F059093BD
:100E3000430590914305880F892B8093430580914A
:100E40004105813041F41092410580914305809322
:100E5000BB0085EC01C085EE8093BC008091440509
:100E60008130E1F380914005841710F440914005F2
:100E700025E435E0FB01D90102C08D9181938A2FD1
:100E8000821B8417D0F301C040E0842F08950F9394
:100E9000413208F046C0909144059111FCCF92E098
:100EA00090934405009342059FEF90933B05109269
:100EB000400540933F05FB0165E475E0DB0102C09E
:100EC00091919D939A2F961B9417D0F310924305FE
:100ED00090914305880F892B8093430580914105AC
:100EE000813041F410924105809143058093BB000D
:100EF00085EC01C085EE8093BC00222321F0809117
:100F000044058230E1F380913B058F3F61F0809191
:100F10003B05803251F080913B05803341F483E002
:100F200007C081E005C080E003C082E001C084E02A
:100F30000F910895613298F420914405243089F48A
:100F400060933D05FC0185E695E0DC0102C021913E
:100F50002D932A2F281B2617D0F380E0089581E0D7
:100F6000089582E0089585ED8093BC008091BC00D7
:100F700084FDFCCF10924405089585EC8093BC005D
:100F80001092440508951F920F920FB60F921124EC
:100F90002F933F934F935F936F937F938F939F9381
:100FA000AF93BF93EF93FF938091B900887F803612
:100FB00009F49FC058F5883209F45BC090F4803181
:100FC00009F452C038F4882309F4F8C0883009F0D5
:100FD000F9C04AC0883109F44CC0803209F0F2C02F
:100FE0005CC0803409F46BC038F4803309F455C018
:100FF000883309F0E7C054C0803509F454C08835FF
:1010000009F462C0883409F0DDC0DAC0883909F417
:10101000CBC0A8F4883709F46CC038F4883609F4DA
:1010200068C0803709F0CEC064C0883809F4BCC0FD
:10103000803909F464C0803809F0C4C060C0803BC6
:1010400009F48AC038F4803A09F46BC0883A09F090
:10105000B9C082C0803C09F4ABC0883C09F4A8C088
:10106000883B09F0AFC08DC0809143058093BB00E1
:1010700012C09091400580913F05981788F58091A6
:101080004005E82FF0E0EB5BFA4F90819093BB00B6
:101090008F5F8093400585EC88C080933B0590C0AE
:1010A00080933B0556C0809140059091BB00E82F8E
:1010B000F0E0EB5BFA4F90838F5F80934005909157
:1010C000400580913F056DC0809140059091BB0027
:1010D000E82FF0E0EB5BFA4F90838F5F8093400541
:1010E0008091420581116CC081E08093410584EAC2
:1010F00060C083E08093440510923C05CCCF809182
:101100003C05803208F050C080913C059091BB00B6
:10111000E82FF0E0E757FA4F90838F5F80933C050C
:10112000BACF80913C05803230F4E0913C05F0E08C
:10113000E757FA4F10820E94B30760913C05E09197
:101140008505F091860570E089E895E00995109293
:101150003C050E94BD0736C084E080934405109290
:101160003E0510923D05E0918705F09188050995AF
:1011700080913D05811105C081E080933D0510926D
:10118000650580913E05E82FF0E0EB59FA4F90811C
:101190009093BB008F5F80933E0590913E058091B8
:1011A0003D05981708F477CF85E88093BC000AC006
:1011B00085EC8093BC001092440504C010923B055E
:1011C0000E94B307FF91EF91BF91AF919F918F91D3
:1011D0007F916F915F914F913F912F910F900FBE33
:1011E0000F901F9018952091D90530E08091DA0575
:1011F000281B3109C90108958091DA059091D9051C
:10120000891750F4E82FF0E0E552FA4F208130E0E2
:101210008F5F8093DA0502C02FEF3FEFC901089579
:10122000E091DA058091D905E81730F4F0E0E55255
:10123000FA4F208130E002C02FEF3FEFC90108953F
:101240000895CF92DF92EF92FF920F931F93CF9367
:10125000DF937C01CB018A012091B505222391F017
:10126000EB016B01C40ED51E09C06991D701ED9148
:10127000FC910190F081E02DC7010995CC15DD05A9
:10128000A1F703C0642F0E949A07C801DF91CF9194
:101290001F910F91FF90EF90DF90CF900895CF9323
:1012A000DF931F92CDB7DEB769832091B505222366
:1012B000D1F02091B605203240F021E030E0FC0171
:1012C0003383228320E030E015C08091B705E82FFA
:1012D000F0E0E854FA4F998190838F5F8093B705CF
:1012E0008093B60505C061E0CE0101960E949A0781
:1012F00021E030E0C9010F90DF91CF910895FC010A
:101300001382128248EE53E060E070E0448355831C
:101310006683778388ED92E09183808308951092AD
:10132000DA051092D9051092B7051092B6050C9403
:10133000E406862F413208F040E26BED75E00E9432
:1013400002071092DA058093D905089521E00C94E4
:10135000990981E08093B5056093D8051092B7058F
:101360001092B60508950F93062F21E04091B6051F
:1013700068EB75E08091D8050E9447071092B70589
:101380001092B6051092B5050F91089561E00C9486
:10139000B30989EA95E00C947F091F93CF93DF93FB
:1013A000EC01162FE881F9810190F081E02D862F64
:1013B000807F90E0803A910514F480E301C087E3D8
:1013C000612F62956F70680FCE010995E881F981F0
:1013D0000190F081E02D1F70812F90E00A9714F4A6
:1013E00060E301C067E3610FCE01DF91CF911F91F0
:1013F0000994AF92BF92CF92DF92EF92FF920F9338
:101400001F93CF93DF937C015A01122FEB01C12C64
:10141000D12C1FC0023039F0003141F46881C7017E
:101420000E94CD0909C042E050E002C04AE050E00D
:101430006881C7010E94BF228FEFC81AD80A112302
:1014400039F0CA14DB0424F4612FC7010E941B2267
:101450002196CA14DB04F4F2DF91CF911F910F9112
:10146000FF90EF90DF90CF90BF90AF9008958F9254
:101470009F92BF92CF92DF92EF92FF920F931F93B2
:10148000CF93DF931F92CDB7DEB7D82EC92E7A0146
:10149000B22E4B0100E010E02DC0F40161914F012C
:1014A000862F992787FD909569830E940C26698174
:1014B000892B29F08D2D9C2D0E941B220FC064EEDC
:1014C00072E08D2D9C2D0E941922F401319740E18C
:1014D00050E060818D2D9C2D0E94BF220F5F1F4F19
:1014E000BB2041F00E151F052CF46B2D8D2D9C2D6E
:1014F0000E941B220E151F0584F20F90DF91CF91E1
:101500001F910F91FF90EF90DF90CF90BF909F9031
:101510008F90089561E08AE00E945A2561E08AE098
:101520000E9422258CB580618CBD8CB580648CBDF9
:1015300061E08DE00E94222561E08BE00C94222581
:10154000811103C08CB5806202C08CB58F7D8CBDCB
:1015500008959CB5937F982B9CBD08952CB5982F2A
:1015600093702C7F922B9CBD9DB582FB882780F9C0
:101570009E7F982B9DBD0895CF92DF92FF920F938F
:101580001F93CF93DF9300D0CDB7DEB76C01F62E5B
:10159000142F052F85E029833A830E94AE0A84E048
:1015A0000E94A90A81E00E94A00A60E0F601808101
:1015B0000E945A25FEBC3A8129810DB407FEFDCF59
:1015C0008EB5B901E12FF02F09C080818EBD0DB419
:1015D00007FEFDCF8EB5819361507109161617066F
:1015E000A4F361E0F60180810E945A25812F902F9B
:1015F0000F900F90DF91CF911F910F91FF90DF908F
:10160000CF9008950F931F93CF93DF9300D01F9235
:10161000CDB7DEB78C0161E0FC0180810E942225FC
:1016200061E0F80180810E945A2584E28B8321E0E9
:1016300030E0AE014D5F5F4F6EE8C8010E94BC0A0A
:101640001A8221E030E0AE014E5F5F4F6FE8C801C3
:101650000E94BC0A21E030E0AE014F5F5F4F6EE0B8
:10166000C8010E94BC0A89810F900F900F90DF91F2
:10167000CF911F910F910895CF93DF93EC01AC01AF
:101680004F5F5F4F23E030E060E00E94BC0A498179
:101690005A816B817C814F775F776F73772749839E
:1016A0005A836B837C83DF91CF910895CF93DF932F
:1016B000EC01AC014B5F5F4F23E030E064E00E943F
:1016C000BC0A4D815E816F8178854F735F73772788
:1016D00070624D835E836F837887DF91CF91089529
:1016E000CF93DF93EC01842F488329836A834F3F94
:1016F00039F060E00E94222561E088810E945A252D
:1017000089818F3F39F061E00E94222561E0898163
:101710000E945A251B82FE01EB5AFF4F1082FE01E8
:10172000EC5AFF4F1082C95ADF4F1882DF91CF91D8
:101730000895CF93DF93EC0189818F3F99F060E0AA
:101740000E945A2562E370E080E090E00E948B24C2
:1017500061E089810E945A2566E970E080E090E0AE
:101760000E948B241B82FE01EB5AFF4F1082FE0168
:10177000EC5AFF4F1082C95ADF4F1882DF91CF9188
:1017800008951F93CF93DF93EC01162F89EA95E01C
:101790000E944F098B81810F8B83DF91CF911F9125
:1017A0000895CF93DF93EC0189EA95E00E94FC084D
:1017B0009B81980F9B83DF91CF910895CF92DF9209
:1017C000EF92FF920F931F93CF93DF93EC016B0186
:1017D0008C010C5F1F4F1B82AB014F5F5F4F6A8113
:1017E00070E089EA95E00E94A609CE010E94D10B23
:1017F000780106C0CE010E94D10BF70181937F01D1
:101800008E2D801B90E08C159D05A4F38B81882381
:1018100021F0CB5ADF4F8AEF15C043E050E064E17E
:1018200071E0C8010E941226009749F4FF802F2D15
:1018300030E08885B901680F711D662329F0CB5A05
:10184000DF4F8DEF88830FC0FE01E20FF31F82850B
:10185000811109C0BE01675F7F4F4F2D50E0C80165
:101860000E94282601C0F12C8F2DDF91CF911F916E
:101870000F91FF90EF90DF90CF900895FF920F931C
:101880001F93CF93DF93EC01F62E8C010C5F1F4F5B
:101890001B826A8189EA95E00E94A90960E0CE0175
:1018A0000E94C10B60E0CE010E94C10B6FEFCE0120
:1018B0000E94C10B6F2D6F5FCE010E94C10B6F2D77
:1018C0006095CE010E94C10B64EDCE010E94C10B58
:1018D00007C0F80161918F01CE010E94C10BFA94FB
:1018E000F110F7CF6B81609589EA95E00E944F096E
:1018F00060E089EA95E00E944F0989EA95E0DF916E
:10190000CF911F910F91FF900C94C609AF92BF9297
:10191000CF92DF92EF92FF920F931F93CF93DF93BB
:10192000EC011B826A8140E250E070E089EA95E0B8
:101930000E94A609CE010E94D10B00E010E0CE016A
:101940000E94D10BFE01E00FF11F84830F5F1F4F38
:1019500006301105A1F78E010C5F1F4F43E050E0E8
:1019600064E171E0C8010E941226009749F4BF802B
:10197000EB2CF12C88859701280F311D222369F06B
:10198000CB5ADF4F8DEF24C0CE010E94D10BFE0158
:10199000EC0DFD1D8483A39405C086E0A82E36E0DF
:1019A000E30EF11CCA2CD12CEC14FD046CF78B81D6
:1019B000882329F0FE01EB5AFF4F8AEF8083FE0156
:1019C000EE0DFF1D8481882331F0CB5ADF4F8EEF5F
:1019D0008883B12C08C0BE01675F7F4F4B2D50E05C
:1019E000C8010E9428268B2DDF91CF911F910F9166
:1019F000FF90EF90DF90CF90BF90AF9008958F92BF
:101A00009F92AF92BF92CF92DF92EF92FF92CF93CD
:101A1000DF93EC014A015B010E944F246B017C01C2
:101A2000C80CD91CEA1CFB1C88818F3F89F41BC0A1
:101A30000E944F24C616D706E806F90628F4CB5AAA
:101A4000DF4F8BEF88830FC084EF91E00E94B324B7
:101A500088810E949125019759F3CB5ADF4F82E08C
:101A6000888381E001C080E0DF91CF91FF90EF900B
:101A7000DF90CF90BF90AF909F908F9008950F937D
:101A80001F93CF93DF9300D01F92CDB7DEB78C01A9
:101A90000E94FF0C8823C1F119821A828FEF8B8379
:101AA00066E070E0C8010E94DE0B43E050E0BE013A
:101AB0006F5F7F4FC80104960E9412260097F9F4C9
:101AC000D80119968C911997811119C017968C918C
:101AD0001797F801EB5AFF4F811106C018968C91A9
:101AE0008F3F69F483E008C08F3F49F4D80118960E
:101AF0008C91811104C085E0808381E006C0F801EB
:101B0000EB5AFF4F8CEF808380E00F900F900F9087
:101B1000DF91CF911F910F9108950F931F93CF9352
:101B2000DF93EC0112E01C8361E00E943E0CFE0199
:101B3000EC5AFF4F10838E010B5A1F4F81E0F801C2
:101B4000808348EE53E060E070E0CE010E943F0DDC
:101B5000811105C084E0F801808380E004C083E047
:101B6000F801808381E0DF91CF911F910F9108955B
:101B70000F931F93CF93DF93EC0114E11C836D83CC
:101B80004E832F8364E00E943E0CFE01EC5AFF4F0F
:101B900010838E010B5A1F4F81E0F801808348EEBD
:101BA00053E060E070E0CE010E943F0D811105C05E
:101BB00084E0F801808380E004C083E0F801808342
:101BC00081E0DF91CF911F910F9108950F931F93A3
:101BD000CF93DF93EC01802F8F50813F20F00111D4
:101BE00003C001E001C00FE010E61C836D834E834B
:101BF000FE013796402F50E0B901CF010E941F2609
:101C0000FE01EC5AFF4F1083602F6D5FCE010E94E2
:101C10003E0C8E010B5A1F4F81E0F801808348EE85
:101C200053E060E070E0CE010E943F0D882329F070
:101C300083E0F801808381E001C080E0DF91CF91F3
:101C40001F910F910895EF92FF920F931F93CF93DF
:101C5000DF93EC017B01FA01408151816281738144
:101C60000E94FF0C882351F18E010B5A1F4F82E016
:101C7000F8018083CE010E94860C9C81953D61F421
:101C8000ED81F0E0DE01AC5ABF4F2C9130E02F5FC8
:101C90003F4FE217F30729F0CB5ADF4F87E08883E5
:101CA0000DC098E0F8019083182F12502696412F0E
:101CB00050E0BE01C7010E941F2601C010E0812F25
:101CC000DF91CF911F910F91FF90EF900895EF92C8
:101CD000FF920F931F93CF93DF93EC01862FB801F0
:101CE00050E4F52EFC828D834E832F839E01285F66
:101CF0003F4F4E2D50E0C9010E941F266E2D6C5F94
:101D0000CE010E943E0C8E010B5A1F4F81E0F8015C
:101D10008083FE01EC5AFF4FF08248EE53E060E012
:101D200070E0CE010E943F0D811105C084E0F801F2
:101D3000808380E004C083E0F801808381E0DF914C
:101D4000CF911F910F91FF90EF900895342F752F31
:101D5000FC01EA5AFF4F6083FC01E95AFF4F2083E0
:101D6000FC01E85AFF4F422F50E0632FCF010C9443
:101D70001F26CF92DF92EF920F931F93CF93DF93A3
:101D8000CDB7DEB761970FB6F894DEBF0FBECDBFFB
:101D90006C01262F8A01FA01319686E0DE01119648
:101DA00001900D928A95E1F7F601E95AFF4FE08024
:101DB00083E08E1518F4EE2DF0E002C0E4E0F0E0D0
:101DC000DE011796C601885A9F4FAF01BC01CD01B5
:101DD000298B0E941F26F80180812989813451F0C6
:101DE00028F4882339F08A3039F404C0813611F0A0
:101DF0008A3A11F440E601C041E6F6E0EF0E8E01AA
:101E00000F5F1F4F61E0C6010E94670E61960FB61B
:101E1000F894DEBF0FBECDBFDF91CF911F910F9120
:101E2000EF90DF90CF9008958F929F92AF92BF92E4
:101E3000CF92DF92EF920F931F93CF93DF9300D057
:101E400000D0CDB7DEB76C01262F4A015C0184E0DB
:101E5000A80EB11CE12C850140E361E0C6010E949F
:101E6000670E88EE93E0A0E0B0E089839A83AB83AD
:101E7000BC83AE014F5F5F4FB501C6010E94230EC8
:101E8000882369F0F6018481811109C0359680E1CB
:101E9000D40101900D928A95E1F780E101C080E0C4
:101EA0000F900F900F900F90DF91CF911F910F9196
:101EB000EF90DF90CF90BF90AF909F908F9008955C
:101EC000FF920F931F93CF93DF93EC01142FE2E463
:101ED000FE2EFC82842F8F5F8D839E012A5F3F4FF1
:101EE00050E0C9010E941F26612F6E5FCE010E9443
:101EF0003E0C8E010B5A1F4F81E0F8018083FE01DA
:101F0000EC5AFF4FF08248EE53E060E070E0CE0103
:101F10000E943F0D811105C084E0F801808380E0BC
:101F200004C083E0F801808381E0DF91CF911F91AD
:101F30000F91FF900895CF92DF92EF92FF920F934F
:101F40001F93CF93DF9300D000D0CDB7DEB77C01D5
:101F50006B0148EE53E060E070E049835A836B8385
:101F60007C83BC016C5F7F4FAE014F5F5F4F0E946F
:101F7000230E882391F0F701848181110EC0058121
:101F800010E001501109F6E0EF0EF11CA801B701B5
:101F9000C6010E941F26802F01C080E00F900F9085
:101FA0000F900F90DF91CF911F910F91FF90EF90C5
:101FB000DF90CF9008959F92AF92BF92CF92DF9221
:101FC000EF92FF920F931F93CF93DF938C01EB015E
:101FD000188249835A8381E08B831C8245E0C801C3
:101FE0000E94600FBE01C8010E949B0F982E7E01C7
:101FF000A82EB12C1DC06701F70161917F01629588
:102000006F7040E150E070E082E496E00E9411239E
:10201000F60160816F7040E150E070E082E496E08C
:102020000E94112364EE71E082E496E00E9419227E
:10203000C7018C1B9D0B8A159B05ECF28881F8016A
:10204000E95AFF4F813089F488E08083D801A85A8B
:10205000BF4FFE01319601900D928A95E1F7F8018C
:10206000EA5AFF4F81E1808307C0D801AA5ABF4FC7
:102070008FEF8C931082912C892DDF91CF911F913E
:102080000F91FF90EF90DF90CF90BF90AF909F9017
:102090000895CF92DF92FF920F931F93CF93DF9318
:1020A0008C01EB01DB0182E08D93F801E85AFF4FD0
:1020B00088E001900D928A95E1F729876A01DB019A
:1020C0001B9680E090E0422F50E010C09601BD01C9
:1020D00061507109F601F080FB01F082F2E0CF0E51
:1020E000D11CF90121812C93019612968417950732
:1020F0006CF34B5F5F4F440FBE01C8010E94600F3D
:10210000BE01C8010E949B0F9881933071F48A3000
:1021100060F01985412F50E0440F551FBE01665FE6
:102120007F4FCE010E94282601C010E0812FDF9151
:10213000CF911F910F91FF90DF90CF900895CF9393
:10214000DF93CDB7DEB760970FB6F894DEBF0FBE52
:10215000CDBF788B6F8721E0AE01415F5F4FBE013D
:102160006F5F7F4F0E944910882331F03C8520E04B
:102170008B85280F311D02C02FEF3FEFC9016096FC
:102180000FB6F894DEBF0FBECDBFDF91CF9108959B
:102190002F923F924F925F926F927F928F929F9277
:1021A000AF92BF92CF92DF92EF92FF920F931F9365
:1021B000CF93DF93CDB7DEB7A9970FB6F894DEBF04
:1021C0000FBECDBF5C01542E452E7B016801612CF2
:1021D000712C222E312C4C0138E5830E911C8E017E
:1021E000035F1F4F39C086E08983F401DE01129638
:1021F00088E001900D928A95E1F7E1E0EA875B863D
:102200004C86ED87F601819191916F01AC01506888
:102210005E878F874FE0BE016F5F7F4FC50129A7A3
:102220000E94600FBE016F5F7F4FC5010E949B0F30
:102230008A85811116C08C85F0E18F9FC001112421
:10224000AC01B801C7010E941F263FEF631A730A51
:1022500080E1E80EF11C29A56214730424F2822F98
:1022600001C080E0A9960FB6F894DEBF0FBECDBFC7
:10227000DF91CF911F910F91FF90EF90DF90CF9062
:10228000BF90AF909F908F907F906F905F904F9096
:102290003F902F900895FF920F931F93CF93DF935A
:1022A000EC01B8E0FB2EFC827D836E834F8364E0FB
:1022B0000E943E0C8E010B5A1F4F81E0F801808373
:1022C000FE01EC5AFF4FF08248EE53E060E070E010
:1022D000CE010E943F0D811105C084E0F80180838A
:1022E00080E004C083E0F801808381E0DF91CF913A
:1022F0001F910F91FF900895382F20E044E050E0A7
:10230000C901845F9B4F0C94EF13282F30E02C5FA2
:102310003F4F922F8827860F971F0C941E1462E060
:1023200070E00C948511FB01282F30E02C5F3F4FAB
:10233000922F8827642F8E0F9F1F0C948F13462F88
:1023400062E070E00C949311CF93DF93C82FD62FE7
:10235000472F60E170E00E9493114D2F61E170E022
:102360008C2FDF91CF910C949311CF93DF93C82FD3
:10237000D62F472F64E070E00E9493114D2F65E047
:1023800070E08C2FDF91CF910C949311CF93C82FD5
:1023900040E150E0682F8DEF95E00E94CF156FEF80
:1023A0008C2FCF910C949F11EF92FF921F93CF939C
:1023B000DF9300D0CDB7DEB7182F7A01862F81507A
:1023C000853048F5812F2A8369830E94C6112A81AE
:1023D0006981422F462B60E070E0812F0E949311AB
:1023E000E114F10411F0B7010AC06091FB0570918E
:1023F000FC056F5F7F4F7093FC056093FB05812F99
:102400000E94B51141E050E0612F8DEF95E00E94F0
:10241000CF1581E001C080E00F900F90DF91CF9148
:102420001F91FF90EF900895CF93C82F63E070E065
:102430000E948511833149F442E050E06C2F8DEF0A
:1024400095E00E94CF1581E001C080E0CF91089512
:102450001F93CF93DF93182FFB01EA0180818F3FF9
:1024600051F481818F3F91F482818F3F79F4838190
:102470008F3F61F41EC0811109C08181811106C0A6
:102480008281811103C08381882399F0209789F08C
:10249000BF01812F0E947C11BE01812F0E94A411D7
:1024A00044E050E0612F8DEF95E00E94CF1581E070
:1024B00001C080E0DF91CF911F91089548E050E086
:1024C000682F8DEF95E00C94CF15DF92EF92FF927D
:1024D0000F931F93CF93DF93D82E8B01EA014130E6
:1024E00088E0580710F0C0E0D8E06D2D8DEF95E042
:1024F0000E94FB147C0163E070E08D2D0E94851129
:10250000873111F08C3121F4EC16FD0670F302C016
:10251000C0E0D0E09E01A8016D2D8DEF95E00E94F6
:10252000AC1440E250E06D2D8DEF95E00E94CF1588
:102530000DC063E070E08D2D0E948511811106C0F1
:102540008D2D0E94C611C0E0D0E009C08D2D0E94E3
:102550008F1184FFEECF60E18D2D0E949F11CE017F
:10256000DF91CF911F910F91FF90EF90DF90089531
:10257000DF92EF92FF920F931F93CF93DF93D82EAA
:102580007B018A01682F8DEF95E00E94CB14EC014E
:10259000009771F463E070E08D2D0E948511843105
:1025A000E9F08823D9F08C31C9F0CFEFDFEF16C006
:1025B000081719070CF4E8011C161D067CF400E04E
:1025C0009E01A7016D2D8DEF95E00E947F1540E4DF
:1025D00050E06D2D8DEF95E00E94CF15CE01DF917B
:1025E000CF911F910F91FF90EF90DF9008950F937F
:1025F000AB0101E021E030E0682F8DEF95E00E9413
:102600007F1581E090E00F910895AF92BF92CF9235
:10261000DF92EF92FF920F931F93CF93DF93B82E29
:102620007B016A01E901682F8DEF95E00E94FB14A0
:102630008C179D0740F46B2D8DEF95E00E94FB14E5
:10264000A82EC92F02C0AC2ECD2F0A2D1C2F96010B
:10265000A7016B2D8DEF95E00E943E148A2D9C2FD3
:10266000DF91CF911F910F91FF90EF90DF90CF906E
:10267000BF90AF9008951F93CF93DF93182FFB0166
:10268000EA018081811109C08181811106C08281A6
:10269000811103C08381882369F0209759F0BF011D
:1026A000812F0E947C11BE01812F0E94A41121E084
:1026B00030E002C020E030E0C901DF91CF911F91EE
:1026C0000895CF93C82F40E250E0682F8DEF95E03A
:1026D0000E94CF150CC08C2F0E948F1183FF07C062
:1026E00068E18C2F0E949F1120E030E00BC08C2FFE
:1026F0000E948F1184FFEFCF60E18C2F0E949F1109
:1027000021E030E0C901CF9108958EBD0DB407FEE0
:10271000FDCF8EB508952A9808952A9A08951F939B
:10272000CF93DF9300D0CDB7DEB7182F6A8399839C
:102730000E948B1380EF0E9485139981892F0E943C
:102740008513812F0E9485136A81862F0E9485132D
:102750000E948D1381E00F900F90DF91CF911F9118
:102760000895CF93DF93EC016CE271E080E090E09C
:102770000E948B240E948A0A229A60E880E090E0FE
:102780000E948F1365E58BE190E00E948F1365E551
:102790008AE190E00E948F1380E090E4998388831F
:1027A00080E090E69987888780E098E49B838A831D
:1027B00080E098E69B878A8780E090E59D838C8304
:1027C00080E090E79D878C8780E098E59F838E83EB
:1027D00080E098E79F878E87DF91CF910895CF9211
:1027E000DF92EF92FF920F931F93CF93DF93EC0151
:1027F0007A018B016A01C80ED91E13C00E948B1387
:1028000080EF0E9485138D2F0E9485138C2F0E94CC
:1028100085132196F80181918F010E9485130E94F2
:102820008D13CC15DD0551F7C701DF91CF911F91B5
:102830000F91FF90EF90DF90CF9008951F93CF936B
:10284000DF931F92CDB7DEB7182F99830E948B13A9
:102850008FE00E9485139981892F0E948513812F13
:102860000E94851380E00E94851389830E948D1346
:1028700089810F90DF91CF911F9108956F927F9280
:102880009F92AF92BF92CF92DF92EF92FF920F93FF
:102890001F93CF93DF931F92CDB7DEB7F82E962EFE
:1028A0003A01590164E270E0892D99830E948511F3
:1028B000E82E65E270E0892D0E948511DE2CC12C86
:1028C000C82AC60CD71C960137706F2C9981792EB7
:1028D000690C711C690C711CD301ED91FC91E20F24
:1028E000F31FC901800F911F81309840A0F0E12CA7
:1028F00048E0F42EE21AF30AA701B501CF010E94C5
:10290000EF13A8014E195F09B5016E0D7F1DF3018C
:102910008081918103C0A801B501CF010E94EF130E
:102920000C0D1D1D412F64E270E0892D0E94931152
:10293000402F65E270E0892D0F90DF91CF911F91BC
:102940000F91FF90EF90DF90CF90BF90AF909F904E
:102950007F906F900C9493110F931F9389019A01AC
:1029600040E050E00E943E141F910F910895CF93D4
:10297000DF93C82F66E270E00E948511D82F67E2CE
:1029800070E08C2F0E9485113D2F20E0282BC9017B
:10299000DF91CF910895FF920F931F93CF93DF9311
:1029A000F62EC0E0D0E08F2D0E94B7148C01009766
:1029B00021F08F2D0E94B714EC01C017D10799F7B1
:1029C000CE01DF91CF911F910F91FF900895CF938A
:1029D000DF93C82F60E270E00E948511D82F61E27A
:1029E00070E08C2F0E9485113D2F20E0282BC9011B
:1029F000DF91CF910895FF920F931F93CF93DF93B1
:102A0000F62EC0E0D0E08F2D0E94E7148C010097D5
:102A100021F08F2D0E94E714EC01C017D10799F720
:102A2000CE01DF91CF911F910F91FF900895CF922A
:102A3000DF92EF92FF920F931F93CF93DF93EC01FE
:102A40007A018B016A01C80ED91E14C00E948B1333
:102A50008FE00E9485138D2F0E9485138C2F0E947A
:102A60008513219680E00E948513F80181938F01E0
:102A70000E948D13CC15DD0549F7C701DF91CF9179
:102A80001F910F91FF90EF90DF90CF900895CF921C
:102A9000DF92EF92FF920F931F93CF93DF93690121
:102AA0005770EC01C60FD11DC60FD11D2896888125
:102AB0009981840F951F9801240F351F21303840CC
:102AC00090F0E12C68E0F62EE41AF50AA701B601B1
:102AD0000E941715A8014E195F09B6016E0D7F1DE2
:102AE0008881998102C0A801B601DF91CF911F9121
:102AF0000F91FF90EF90DF90CF900C9417158F926D
:102B00009F92AF92BF92CF92DF92EF92FF920F937C
:102B10001F93CF93DF936C01962E5A01E901802E0B
:102B200068E270E0892D0E948511F82E69E270E05C
:102B3000892D0E948511FF2DE0E07F01E82A8E019A
:102B40009501A701692DC6010E94471581101AC081
:102B5000CE0DDF1D4D2F68E270E0892D0E9493118C
:102B60004C2F69E270E0892DDF91CF911F910F9179
:102B7000FF90EF90DF90CF90BF90AF909F908F909D
:102B80000C949311DF91CF911F910F91FF90EF90D3
:102B9000DF90CF90BF90AF909F908F900895CF938C
:102BA000C62F61E070E08C2F0E94931161E070E00D
:102BB0008C2F0E9485118111F9CFCF9108950F9329
:102BC00000E020E040E060E08DE096E00E94B5216A
:102BD0000F910895FB014281538164817581FC014D
:102BE0004283538364837583178216820895CF933B
:102BF000FB01DB018D918111FDCF80E090E020E0B1
:102C000030E0CAE01BC08F3F910509F064F5DA019E
:102C1000A20FB31F12968C932F5F3F4F80E090E07E
:102C20000DC0DC01CA9FC001CB9F900D11247727F6
:102C300067FD709560537109860F971F6191662338
:102C400021F02430310594F00EC08F3F910509F03A
:102C500054F4243031053CF4FA01E20FF31F82836F
:102C600021E030E006C020E030E003C06E32C9F65B
:102C7000CACFC901CF910895AF92BF92CF92DF9290
:102C8000EF92FF920F931F93CF93DF9300D01F9289
:102C9000CDB7DEB77C015B010E944F24F70177833B
:102CA00066838701085F1F4FB7016A5F7F4F42E06D
:102CB00050E0C8010E943B1E81E090E09A83898326
:102CC00042E050E0BE016F5F7F4FC8010E943B1E93
:102CD00080E091E09A83898342E050E0BE016F5F1B
:102CE0007F4FC8010E943B1E1A82198242E050E0C9
:102CF000BE016F5F7F4FC8010E943B1E42E050E063
:102D0000BE016F5F7F4FC8010E943B1E42E050E052
:102D1000BE016F5F7F4FC8010E943B1E75016501B8
:102D200021C0F6017F018191811107C05701AC18C4
:102D3000BD081A141B0424F011C08E3299F7F6CF87
:102D4000AB8241E050E0BE016D5F7F4FC8010E9441
:102D50003B1EA501B601C8010E943B1E6701FFEFA3
:102D6000CF1ADF0AF70180818111DBCF1B8241E09E
:102D700050E0BE016D5F7F4FC8010E943B1EE12CF9
:102D8000FF24F394FA82E98242E050E0BE016F5FD3
:102D90007F4FC8010E943B1EFA82E98242E050E068
:102DA000BE016F5F7F4FC8010E943B1E81E090E033
:102DB0000F900F900F90DF91CF911F910F91FF9087
:102DC000EF90DF90CF90BF90AF9008954F925F92B9
:102DD0006F927F928F929F92AF92BF92CF92DF922B
:102DE000EF92FF920F931F93CF93DF93CDB7DEB790
:102DF00063970FB6F894DEBF0FBECDBF7C015B01B9
:102E00006A010E944F242B013C018701085F1F4F7C
:102E10004501A12CB12C12C00E944F2464197509E0
:102E20008609970986169706A806B90608F40FC101
:102E300062E370E080E090E00E948B24C8010E9471
:102E4000721E1816190644F7F701428153816481F6
:102E50007581818D928DA38DB48D481759076A07AE
:102E60007B0709F0F7C0858D968DC59709F0F2C0F4
:102E7000F7C04CE050E0BE016F5F7F4FC8010E9479
:102E8000F21D8B819C819827892798279A8B898BA3
:102E9000F7014681578129813A814217530711F47E
:102EA00097FD06C0C8010E94C61D2CEF3FEFDEC093
:102EB0008F709270892B31F0C8010E94C61D2BEFD4
:102EC0003FEFD4C08F80988498248924982481145B
:102ED000910479F5C8010E94C61D2AEF3FEFC6C0D4
:102EE00041E050E0BE01635F7F4FC8010E94F21DC8
:102EF0008D85811107C08D858111F2CF0AC0C8016F
:102F00000E94111E8D85982F91509D878111F7CFBA
:102F1000F2CFC8010E94111EC8010E94111EC801F3
:102F20000E94111EC8010E94111EFFEFEF1AFF0A36
:102F300002C0E12CF12C8D819E819827892798274A
:102F4000E816F90668F2A12CB12C41E050E0BE0170
:102F50006D5E7F4FC8010E94F21D8B89982F907C77
:102F600069F4811104C00EC0C8010E94111E8B8932
:102F7000982F91509B8B8111F7CF04C0C8010E94FC
:102F8000111E1B8A8B898111E0CF42E050E0BE0107
:102F9000615F7F4FC8010E94F21D42E050E0BE0118
:102FA000635F7F4FC8010E94F21DC8010E94111E7D
:102FB000C8010E94111EC8010E94111EC8010E9472
:102FC000111E42E050E0BE016F5E7F4FC8010E94BB
:102FD000F21D8F8598898115914011F58D859E850B
:102FE00081159140E9F489899A898115944031F0DD
:102FF000C8010E94C61D27EF3FEF38C0B6016E5FC3
:103000007F4F44E050E0C8010E94F21D21E030E013
:103010002DC0C8010E94111E2FEFE21AF20A02C051
:10302000E12CF12C89899A89982789279827E81615
:10303000F90678F38FEFA81AB80AA814B90409F0B2
:1030400084CFC8010E94C61D26EF3FEF0FC02FEFAF
:103050003FEF0CC02EEF3FEF09C02DEF3FEF06C052
:10306000C8010E94AC1D0C97C4F303CFC90163963D
:103070000FB6F894DEBF0FBECDBFDF91CF911F9189
:103080000F91FF90EF90DF90CF90BF90AF909F9007
:103090008F907F906F905F904F9008958F929F9246
:1030A000AF92BF92CF92DF92EF92FF920F931F9356
:1030B000CF93DF9300D000D000D0CDB7DEB78C0126
:1030C0005B016A010E94F715892B09F051C0F801D4
:1030D0004281538164817581809115069091160615
:1030E000A0911706B0911806481759076A077B0781
:1030F00009F442C00E944F247801F8E0EF0EF11C61
:103100006F707727882799277C5FC7010E94C11EAF
:103110008130B9F584E493E09A838983F801828150
:103120009381A481B5818B839C83AD83BE8345E36A
:1031300050E0BE016F5F7F4FC7010E94551E892B73
:1031400019F4A12CB12C10C0B501C8010E943C1685
:10315000892BB9F3C7010E94511E892BA9F4F1CF25
:10316000FFEFAF16BF0699F0C7010E945D1E1BC09E
:10317000AA24A394B12C17C02EEFA22EBB24BA947C
:1031800012C0A12CB12C0FC093E0892E912CA60166
:1031900068E873E1C8010E94E6165C0121E0821A2A
:1031A000910811F3DDCFC50126960FB6F894DEBF66
:1031B0000FBECDBFDF91CF911F910F91FF90EF9088
:1031C000DF90CF90BF90AF909F908F9008950F9316
:1031D00000E020E040E060E083E196E00E94B5215D
:1031E0000F91089544E050E0BC0181E090E00C9420
:1031F000EF1344E050E0BC0185E090E00C94EF1345
:1032000044E050E0BC018FE090E00C94EF138F920B
:103210009F92AF92BF92CF92DF92EF92FF920F9365
:103220001F93CF93DF9300D0CDB7DEB74C016A0177
:1032300059018DEF95E069837A830E94B11346E0CE
:1032400050E069817A8189E090E00E94EF13C60125
:1032500002960E940019C80102960E94F218C70146
:1032600002960E94F918F5014281538164817581AB
:10327000F40142835383648375830F900F90DF9131
:10328000CF911F910F91FF90EF90DF90CF90BF9063
:10329000AF909F908F9008956F927F928F929F92A0
:1032A000AF92BF92CF92DF92EF92FF920F931F9354
:1032B000CF93DF93CDB7DEB76E970FB6F894DEBF2E
:1032C0000FBECDBF6C015B017A014901380100E0FE
:1032D0002FEF4FEF6FEFCE0149960E94B52144E4E6
:1032E00053E05A8349838B8D9C8DAD8DBE8D8B832E
:1032F0009C83AD83BE8358874F83F3018281938182
:10330000A481B58189879A87AB87BC875E874D8703
:10331000F40182819381A481B5818F87988BA98BD9
:10332000BA8B5C8B4B8BF701428153816481758131
:103330004D8B5E8B6F8B788FEE24E394F12CEC0E2B
:10334000FD1E8E01095F1F4F9E01235F3F4FAE019F
:103350004D5E5F4FB501C6010E9407196E960FB60C
:10336000F894DEBF0FBECDBFDF91CF911F910F91BB
:10337000FF90EF90DF90CF90BF90AF909F908F9095
:103380007F906F900895CF93DF93EC010E94AB2163
:10339000BE016E5F7F4F44E050E08FE090E00E94FE
:1033A0001715CE01DF91CF91089524E433E0FC019D
:1033B00031832083FB014281538164817581FC014B
:1033C000428353836483758308950F9300E020E064
:1033D00040E060E089E296E00E94B52189E196E054
:1033E0000F910C94AB21CF93DF931F92CDB7DEB733
:1033F0006983DC01ED91FC910280F381E02D41E0D5
:1034000050E0BE016F5F7F4F09950F90DF91CF9124
:103410000895CF93DF93EC0107C0E881F98106801E
:10342000F781E02DCE010995E881F9810480F581CD
:10343000E02DCE010995892B81F7DF91CF91089579
:1034400021E0FC018485843009F420E0822F089576
:103450000F931F93CF93DF931F92CDB7DEB78C01ED
:10346000DC01ED91FC910480F581E02D0995892B1B
:1034700051F0BE016F5F7F4FF80184850E94F71203
:10348000298130E002C02FEF3FEFC9010F90DF919B
:10349000CF911F910F910895FC0184850C94B8126F
:1034A000CF93DF931F92CDB7DEB741E050E0BE016E
:1034B0006F5F7F4FFC0184850E94B81218161906B1
:1034C0001CF4298130E002C02FEF3FEFC9010F90BB
:1034D000DF91CF910895FC016485643021F08DEF78
:1034E00095E00C94CB1480E090E008950F931F9327
:1034F000CF93DF938C01EA01FC018485843019F4B9
:1035000081E090E007C00E946512892B39F481E0C8
:1035100090E0F80193838283C0E0D0E0CE01DF9198
:10352000CF911F910F910895CF92DF92EF92FF926A
:103530000F931F93CF93DF93CDB7DEB7AF970FB63F
:10354000F894DEBF0FBECDBF7C018B016A01CE01B6
:1035500001960E94AB21CE0109960E94FB1ECE016E
:103560008A960E94AB2169E176E0CE0184960E94A2
:10357000D519BE016C5D7F4FCE0101960E94EA1500
:10358000AE01465D5F4FB801CE0101960E944E1814
:103590009C0181309105C9F4D701ED91FC9104841F
:1035A000F585E02D84E493E09DA38CA30CA51DA5D7
:1035B0002EA53FA50EA31FA328A739A7A601BE01CC
:1035C0006C5D7F4FC70109959C01C901AF960FB68D
:1035D000F894DEBF0FBECDBFDF91CF911F910F9149
:1035E000FF90EF90DF90CF900895FC01262F13827B
:1035F000128248EE53E060E070E0448355836683B6
:1036000077838AEE92E09183808324870895FC017A
:103610008485843039F0382F20E0C9018D5F9B4FBD
:103620000C941E1480E00895CF93DF93EC018C85F9
:103630008430D1F0CE010E94071B843181F08823B1
:1036400071F0883161F08C3161F4E881F981048096
:10365000F581E02DCE01099521E0892B19F420E0B8
:1036600001C021E0822F01C080E0DF91CF91089559
:10367000CF92DF92EF92FF92CF93DF93EC018C8594
:10368000843091F10E945E120E944F246B017C01F4
:10369000CE010E94071B8823D1F00E944F246C1991
:1036A0007D098E099F09683E734081059105A8F048
:1036B0000EC08C850E94C611EC85F0E0EE0FFF1F56
:1036C000EF5DF94F1182108284E08C870DC0CE012E
:1036D0000E94071B882381F3ECCF61E070E080E05B
:1036E00090E00E948B24D4CFDF91CF91FF90EF9098
:1036F000DF90CF900895AF92BF92CF92DF92EF927A
:10370000FF920F931F93CF93DF93EC015B016A014C
:103710008C85843009F04EC093E0E92E94E0F92EB8
:1037200000E010E0C7010E941E14811102C00C8746
:103730000AC08831E1F38C31D1F30F5F1F4FF3944E
:103740000430110579F78C858430A1F120910301B3
:10375000309104012F5F3F4F09F002C020E034E0B8
:10376000309304012093030140910301509104011F
:1037700020E061E00E94D411B5016E5F7F4FA60189
:103780008C850E94281209C061E070E080E090E022
:103790000E948B24CE010E94071B811103C084E08C
:1037A0008C8708C0CE010E94071B873169F721E092
:1037B00030E002C020E030E0C901DF91CF911F91DD
:1037C0000F91FF90EF90DF90CF90BF90AF90089552
:1037D0000F9300E020E040E060E08FE296E00E947E
:1037E000B5210F910895CF93DF931F92CDB7DEB728
:1037F0006983DC01ED91FC910280F381E02D41E0D1
:1038000050E0BE016F5F7F4F09950F90DF91CF9120
:103810000895EF92FF920F931F93CF93DF93CDB74D
:10382000DEB72D970FB6F894DEBF0FBECDBF7C017B
:1038300000E010E0602FCE0101960E94F51ACE0143
:1038400001960E94071B811116C0F7014481558122
:1038500020E061E0802F0E94D411802F0E9414127A
:10386000F70184819581F801EE0FFF1FEF5DF94F9D
:103870009183808305C00F5F1F4F04301105D1F67F
:103880002D960FB6F894DEBF0FBECDBFDF91CF915E
:103890001F910F91FF90EF900895FC011382128207
:1038A00086E093E091838083758364830895BF925B
:1038B000CF92DF92EF92FF920F931F93CF93DF93FC
:1038C000CDB7DEB72D970FB6F894DEBF0FBECDBFD4
:1038D0008C0141E2C42E46E0D42EB12CE12CF12C17
:1038E0006B2DCE0101960E94F51AD6012D913D91C6
:1038F0006D01F8018481958128173907B1F4CE0153
:1039000001960E94071B843169F0CE0101960E9446
:10391000071B8C3151F4CE0101960E946B1A892B42
:1039200099F003C0EE24E394F12CB394F4E0BF12B9
:10393000D7CFEF2871F4D801ED91FC910480F58187
:10394000E02DC801099505C0CE0101960E94381BE3
:10395000ECCF2D960FB6F894DEBF0FBECDBFDF9132
:10396000CF911F910F91FF90EF90DF90CF90BF907C
:1039700008957F928F929F92AF92BF92CF92DF92E3
:10398000EF92FF920F931F93CF93DF93CDB7DEB7E4
:103990002D970FB6F894DEBF0FBECDBF6C015B0153
:1039A0004A010E94571C51E2E52E56E0F52E712C7B
:1039B00000E010E0672DCE0101960E94F51AF70194
:1039C000219131917F01F601848195812817390772
:1039D00031F4CE0101960E94071B873129F07394C0
:1039E000F4E07F12E7CF09C0A401B501CE01019632
:1039F0000E94761A080F191FF2CFC8012D960FB634
:103A0000F894DEBF0FBECDBFDF91CF911F910F9114
:103A1000FF90EF90DF90CF90BF90AF909F908F90EE
:103A20007F900895BF92CF92DF92EF92FF920F9313
:103A30001F93CF93DF93CDB7DEB72D970FB6F894D2
:103A4000DEBF0FBECDBF8C016B01CB010E94571CA6
:103A500061E2E62E66E0F62EB12C6B2DCE010196CA
:103A60000E94F51AF701219131917F01F6018481BD
:103A700095812817390749F5CE0101960E94071B49
:103A8000873161F1CE0101960E94071B8C31E9F468
:103A900025C08B819C81F801938382838D819E81D7
:103AA000AF81B88584839583A683B78349855A857A
:103AB0006B857C8540875187628773878AEE92E0A9
:103AC000918380838D85848710C0B394F4E0BF1206
:103AD000C4CF64E0C8010E94F51A07C0CE01019668
:103AE0000E946B1A892B89F3D4CFC8012D960FB68B
:103AF000F894DEBF0FBECDBFDF91CF911F910F9124
:103B0000FF90EF90DF90CF90BF9008950F9300E06B
:103B100020E040E060E085E396E00E94B5210F914F
:103B20000895DC01ED91FC91008CF18DE02D09945C
:103B300024E433E0FC0131832083FB014189528975
:103B400063897489FC014283538364837583089578
:103B5000FC01858996890895FC01818D928D0895D7
:103B6000CF93DF931F92CDB7DEB76983DC01ED9170
:103B7000FC910280F381E02D41E050E0BE016F5FD7
:103B80007F4F09950F90DF91CF910895CF93DF93E9
:103B9000EC0107C0E881F9810680F781E02DCE01B4
:103BA0000995898D9A8D892BA9F7DF91CF91089579
:103BB000CF93DF931F92CDB7DEB7FC01218D328DFD
:103BC000232B49F0BE016F5F7F4F84850E94F7125F
:103BD000298130E002C02FEF3FEFC9010F90DF9144
:103BE000CF910895CF93DF93EC01898D9A8D009743
:103BF00019F42FEF3FEF11C04817590708F0AC0137
:103C00008C850E94B8129C011816190694F7898DAC
:103C10009A8D821B930B9A8F898FC901DF91CF9167
:103C200008950F931F93CF93DF931F92CDB7DEB705
:103C30008C01FC01818D928D892B59F041E050E07F
:103C4000BE016F5F7F4F84850E94B8121816190657
:103C50001CF02FEF3FEF08C0F801818D928D019786
:103C6000928F818F298130E0C9010F90DF91CF9130
:103C70001F910F910895CF93DF93EC019A018F89E3
:103C8000988DAB01BC018C850E9405139C018F8926
:103C9000988D820F931F988F8F8BC901DF91CF91E1
:103CA0000895FC0184850C946113FC01108E178A21
:103CB0006E5F7F4F84850C943B13CF93DF93EC01B1
:103CC0008C85843061F00E94C611EC85F0E0EE0F27
:103CD000FF1FEF5DF94F1182108284E08C87DF9126
:103CE000CF9108950F931F93CF93DF93CDB7DEB796
:103CF00028970FB6F894DEBF0FBECDBF8C01DC0154
:103D0000ED91FC910284F385E02D0995F80164851D
:103D10008DEF95E00E94CB14892B29F148E050E00B
:103D2000BE016F5F7F4FD8011C968C910E94B81224
:103D30009C0118161906CCF4BE016F5F7F4FC801B5
:103D40000F960E94C1219D8180E02E81820F911DDE
:103D5000F801968B858B3F8120E08885280F311DE7
:103D6000328F218F02C020E030E0C90128960FB6C3
:103D7000F894DEBF0FBECDBFDF91CF911F910F91A1
:103D80000895CF92DF92EF92FF920F931F93CF93FC
:103D9000DF93EC016B018C85843019F593E0E92EFB
:103DA00094E0F92E00E010E0C7010E941E1481117A
:103DB00002C00C8708C08831E1F30F5F1F4FF394F6
:103DC0000430110589F78C85843059F0DE86CD8664
:103DD0001A8E198E20E0A60162E00E94D41181E0C3
:103DE00001C080E0DF91CF911F910F91FF90EF9084
:103DF000DF90CF900895FC011382128248EE53E0C9
:103E000060E070E0448355836683778380E193E0CC
:103E10009183808384E08487CF010F960C94AB213B
:103E2000CF92DF92EF92FF920F931F93CF93DF9386
:103E3000CDB7DEB7AF970FB6F894DEBF0FBECDBFDC
:103E40007C018B016A01CE0101960E94AB21CE015B
:103E500009960E94FB1ECE018A960E94AB2169E161
:103E600076E0CE0184960E94D519BE016C5D7F4F2D
:103E7000CE0101960E94EA15AE01465D5F4FB80182
:103E8000CE0101960E944E189C0181309105C9F423
:103E9000D701ED91FC910088F189E02D84E493E055
:103EA0009DA38CA30CA51DA52EA53FA50EA31FA306
:103EB00028A739A7A601BE016C5D7F4FC7010995F0
:103EC0009C01C901AF960FB6F894DEBF0FBECDBFFF
:103ED000DF91CF911F910F91FF90EF90DF90CF90E6
:103EE00008950F9300E020E040E060E08BE396E06F
:103EF0000E94B5210F910895CB010C943A26FC0144
:103F000084859585FC01E05CFF4F20813181FC01B7
:103F1000EE5BFF4F80819181281B390B2F73332774
:103F2000C9010895FC0184859585FC01E05CFF4F83
:103F300040815181FC01EE5BFF4F208131814217AE
:103F4000530741F00190F081E02DE80FF91F208127
:103F500030E002C02FEF3FEFC9010895FC018485D6
:103F60009585FC01E05CFF4F40815181FC01EE5BD7
:103F7000FF4F208131814217530781F0A081B18129
:103F8000A80FB91F8C91208131812F5F3F4F2F7374
:103F9000332731832083282F30E002C02FEF3FEFFB
:103FA000C9010895FC0181A1882329F0A489B5895C
:103FB0008C9186FFFBCF11A20895CF93DF93FC0174
:103FC00026853785D901A05CBF4F8D919C911197B3
:103FD00001968F739927E901CE5BDF4F48815981A4
:103FE00084179507D9F30D90BC91A02DA20FB31F94
:103FF0006C93A685B785A05CBF4F11969C938E935A
:10400000A689B7892C9181E090E0078C02C0880FC7
:10401000991F0A94E2F7282B2C9381E081A304884E
:10402000F589E02D80818064808381E090E0DF91DC
:10403000CF91089508951F920F920FB60F921124F9
:104040002F933F934F938F939F93EF93FF93809181
:10405000C00082FD1CC04091C6008091E80690918E
:10406000E90601968F7399272091EA063091EB06B5
:104070008217930771F0E091E806F091E906E855A0
:10408000F94F40839093E9068093E80602C080913F
:10409000C600FF91EF919F918F914F913F912F918A
:1040A0000F900FBE0F901F90189582E496E00E942B
:1040B0007F1F892B11F00C941A2008951F920F92E4
:1040C0000FB60F9211242F933F938F939F93EF93EB
:1040D000FF932091A4063091A5068091A6069091A9
:1040E000A7062817390731F48091C1008F7D80938E
:1040F000C10014C0E091A606F091A706EC59F94F53
:1041000020818091A6069091A70601968F7399272A
:104110009093A7068093A6062093C600FF91EF9187
:104120009F918F913F912F910F900FBE0F901F90F5
:104130001895CF92DF92EF92FF92CF93DF93EC012D
:104140006A017B01411581EE580761057105F9F09F
:10415000EC89FD8981E090E008A002C0880F991FDA
:104160000A94E2F7808360E079E08DE390E0A701B4
:1041700096010E94CE2521503109410951095695D9
:10418000479537952795211580E1380798F0EC89F8
:10419000FD89108260E874E88EE190E0A701960145
:1041A0000E94CE2521503109410951095695479564
:1041B00037952795E889F9893083EA89FB89208337
:1041C00019A2EE89FF89408181E090E09C010C8C6E
:1041D00002C0220F331F0A94E2F7422B4083EE897C
:1041E000FF8940819C010D8C02C0220F331F0A946D
:1041F000E2F7422B4083EE89FF8940819C010E8CBF
:1042000002C0220F331F0A94E2F7422B4083EE894B
:10421000FF8920810F8C02C0880F991F0A94E2F752
:10422000809582238083DF91CF91FF90EF90DF9084
:10423000CF900895109245061092440688EE93E0C0
:10424000A0E0B0E08093460690934706A09348060E
:10425000B093490684E393E090934306809342062B
:1042600088EA96E090934F0680934E0684E696E0A7
:10427000909351068093500685EC90E090935306FE
:104280008093520684EC90E09093550680935406F8
:1042900080EC90E0909357068093560681EC90E076
:1042A000909359068093580682EC90E090935B06B9
:1042B00080935A0686EC90E090935D0680935C06AE
:1042C00084E080935E0683E080935F0687E08093BE
:1042D000600685E08093610681E080936206089520
:1042E000AF92BF92CF92DF92EF92FF920F931F9304
:1042F000CF93DF936C017B01C0E0D0E000E010E0E1
:10430000F601EC0FFD1F4AE050E06281C7010E94F8
:10431000BF225C016EE2C7010E941B228A0D9B1D19
:10432000080F191F2196C330D10551F74AE050E01C
:10433000F6016581C7010E94BF22080F191FC8013D
:10434000DF91CF911F910F91FF90EF90DF90CF9071
:10435000BF90AF90089524E433E0FC0131832083C3
:10436000128213821482158208950F93FC0184E453
:1043700093E09183808362834383248305830F9139
:104380000895FC01DB014D915D916D917C9142831B
:10439000538364837583089584E493E09093ED06DA
:1043A0008093EC061092EE061092EF061092F00643
:1043B0001092F1060895CF92DF92EF92FF920F9341
:1043C0001F93CF93DF936C01EB017A01E60EF71E8A
:1043D00000E010E00BC06991D601ED91FC910190D5
:1043E000F081E02DC6010995080F191FCE15DF05D4
:1043F00091F7C801DF91CF911F910F91FF90EF903E
:10440000DF90CF9008956115710581F0DB010D906B
:104410000020E9F7AD0141505109461B570BDC0163
:10442000ED91FC910280F381E02D099480E090E011
:1044300008950C940322DC01ED91FC910190F08130
:10444000E02D0994DB01ED91FC9111970190F08131
:10445000E02DBC01CD0109940F931F93CF93DF93FF
:10446000EC016DE00E941B228C016AE0CE010E94EB
:104470001B229C01200F311FC901DF91CF911F9199
:104480000F9108950F931F93CF93DF93EC010E9438
:1044900003228C01CE010E942C229801280F391F83
:1044A000C901DF91CF911F910F9108954F925F92B3
:1044B0006F927F929F92AF92BF92CF92DF92EF92D4
:1044C000FF920F931F93CF93DF93CDB7DEB7A197E2
:1044D0000FB6F894DEBF0FBECDBF5C016A017B0151
:1044E000922E19A281E0821710F08AE0982E8E0198
:1044F0000F5D1F4F492C512C612C712CC701B60147
:10450000A30192010E94CE258C2D929E8019112428
:10451000015011098A3014F4805D01C0895CF801F2
:10452000808369017A01C114D104E104F10431F7F7
:10453000B801C5010E940322A1960FB6F894DEBF10
:104540000FBECDBFDF91CF911F910F91FF90EF90E4
:10455000DF90CF90BF90AF909F907F906F905F90D3
:104560004F9008952115310541F4DC01ED91FC9146
:104570000190F081E02D642F09940C9456229A0149
:10458000462F50E060E070E00C94B222CF92DF92B0
:10459000EF92FF920F931F93CF93DF93EC016A0189
:1045A0007B012115310579F4E881F9810190F081D1
:1045B000E02D642FDF91CF911F910F91FF90EF902D
:1045C000DF90CF9009942A30310519F477FD0EC0A1
:1045D0002AE0B701A601CE01DF91CF911F910F9183
:1045E000FF90EF90DF90CF900C9456226DE20E94E6
:1045F0001B228C0144275527BA014C195D096E090D
:104600007F092AE0CE010E945622080F191FC80117
:10461000DF91CF911F910F91FF90EF90DF90CF909E
:1046200008959A01AB01662757FD6095762F0C948B
:10463000C622813039F018F08230D1F409C01092CE
:104640006E00089580916F008D7F80936F000895B4
:10465000809170008D7F8093700081E08093B00026
:104660008091B100887F84608093B1001092B30084
:104670000895CF93C82F809105018C1307C0E8E6F9
:10468000F0E084919FEF9093050101C08FEF0E94AD
:10469000192360E08C2FCF910C945A251F920F9212
:1046A0000FB60F9211242F933F934F935F936F9305
:1046B0007F938F939F93AF93BF93EF93FF938091DB
:1046C000F5069091F606A091F706B091F806892BB1
:1046D0008A2B8B2B51F19091F206E091F306F09129
:1046E000F4068081892780838091F5069091F606F3
:1046F000A091F706B091F806181619061A061B06BF
:10470000C4F48091F5069091F606A091F706B09159
:10471000F8060197A109B1098093F5069093F60672
:10472000A093F706B093F80604C0809105010E949B
:104730003923FF91EF91BF91AF919F918F917F911D
:104740006F915F914F913F912F910F900FBE0F90FE
:104750001F9018951F920F920FB60F9211242F934E
:104760003F934F935F936F937F938F939F93AF93F9
:10477000BF93EF93FF938091F9069091FA06892BEE
:1047800029F0E091F906F091FA060995FF91EF9171
:10479000BF91AF919F918F917F916F915F914F9159
:1047A0003F912F910F900FBE0F901F9018951F9261
:1047B0000F920FB60F9211242F933F934F935F9355
:1047C0006F937F938F939F93AF93BF93EF93FF93D9
:1047D0008091FB069091FC06892B29F0E091FB0665
:1047E000F091FC060995FF91EF91BF91AF919F91D8
:1047F0008F917F916F915F914F913F912F910F908A
:104800000FBE0F901F90189508951F920F920FB62C
:104810000F9211242F933F938F939F93AF93BF9346
:104820008091FD069091FE06A091FF06B0910007D1
:1048300030910507232F2D5F2D3720F40196A11D00
:10484000B11D05C0232F2A570296A11DB11D20932B
:1048500005078093FD069093FE06A093FF06B09394
:1048600000078091010790910207A0910307B09182
:1048700004070196A11DB11D8093010790930207C3
:10488000A0930307B0930407BF91AF919F918F91BD
:104890003F912F910F900FBE0F901F9018950F937F
:1048A0001F938FB7F8940091FD061091FE0620919A
:1048B000FF06309100078FBFB801C9011F910F910A
:1048C00008950F931F939FB7F894009101071091DB
:1048D0000207209103073091040786B5A89B06C004
:1048E0008F3F21F00F5F1F4F2F4F3F4F9FBF322F42
:1048F000212F102F0027080F111D211D311D42E00F
:10490000000F111F221F331F4A95D1F7B801C901AB
:104910001F910F910895CF92DF92EF92FF92CF9364
:10492000DF936B017C010E946124EB0110C00E94A7
:1049300004240E9461246C1B7D0B683E734038F098
:1049400081E0C81AD108E108F108C851DC4FC11450
:10495000D104E104F10459F7DF91CF91FF90EF907A
:10496000DF90CF900895019739F0880F991F880F35
:10497000991F02970197F1F70895789484B58260A2
:1049800084BD84B5816084BD85B5826085BD85B5F3
:10499000816085BDEEE6F0E0808181608083E1E8A2
:1049A000F0E01082808182608083808181608083DA
:1049B000E0E8F0E0808181608083E1EBF0E08081DD
:1049C00084608083E0EBF0E0808181608083EAE7AF
:1049D000F0E0808184608083808182608083808138
:1049E000816080838081806880831092C1000895F7
:1049F000833069F028F48130A1F0823011F514C0C1
:104A00008630B1F08730C1F08430D9F404C0809191
:104A100080008F7703C0809180008F7D809380001D
:104A2000089584B58F7702C084B58F7D84BD0895C5
:104A30008091B0008F7703C08091B0008F7D80930C
:104A4000B0000895CF93DF9390E0FC01E358FF4F4F
:104A50004491FC01EF56FF4F8491882341F190E08F
:104A6000880F991FFC01E754FF4F25913491D9011C
:104A700081559F4FFC0185919491C82FD92F9FB7E5
:104A8000F8948C91611106C0409584238C938881A1
:104A9000842308C0623041F4242F209582238C9314
:104AA0008881842B888302C0842B8C939FBFDF91E5
:104AB000CF9108950F931F93CF93DF931F92CDB79C
:104AC000DEB7282F30E0F901E759FF4F8491F90153
:104AD000E358FF4F1491F901EF56FF4F0491002363
:104AE000D1F0882321F069830E94F8246981E02FA6
:104AF000F0E0EE0FFF1FE155FF4F85919491DC012F
:104B00009FB7F8948C91611103C01095812301C067
:104B1000812B8C939FBF0F90DF91CF911F910F91AD
:104B20000895CF93DF93282F30E0F901E759FF4F25
:104B30008491F901E358FF4FD491F901EF56FF4FEB
:104B4000C491CC2389F081110E94F824EC2FF0E06D
:104B5000EE0FFF1FEB55FF4F85919491DC018C9177
:104B60008D2321E030E011F420E030E0C901DF9135
:104B7000CF91089597FB072E16F4009407D077FD88
:104B800009D00E94F02507FC05D03EF49095819550
:104B90009F4F0895709561957F4F0895A1E21A2E59
:104BA000AA1BBB1BFD010DC0AA1FBB1FEE1FFF1FD1
:104BB000A217B307E407F50720F0A21BB30BE40B21
:104BC000F50B661F771F881F991F1A9469F7609568
:104BD0007095809590959B01AC01BD01CF01089522
:104BE000AA1BBB1B51E107C0AA1FBB1FA617B70713
:104BF00010F0A61BB70B881F991F5A95A9F780952F
:104C00009095BC01CD010895EE0FFF1F0590F49122
:104C1000E02D0994803209F0911134C080528F55F3
:104C2000E0F70895FB01DC0104C08D91019080192B
:104C300021F441505040C8F7881B990B0895FB019F
:104C4000DC0102C001900D9241505040D8F7089508
:104C50006817790768F4FB01DC01E40FF51FA40F66
:104C6000B51F02C002900E9241505040D8F70895EF
:104C70000C941F26F999FECF92BD81BDF89A992711
:104C800080B5089599278827089510E0C8EDD0E0F1
:104C900004C0FE010E9406262296CA3DD107C9F72C
:044CA000F894FFCFB6
:104CA4000201000004FF0000010002000300DEAD69
:104CB400BEEFFEED0000FF00485454502F312E315A
:104CC40020323030204F4B00436F6E74656E742D6C
:104CD400547970653A20746578742F68746D6C002B
:104CE4004B6565702D416C6976653A2074696D6514
:104CF4006F75743D352C206D61783D313000436F04
:104D04006E6E656374696F6E3A204B6565702D41F4
:104D14006C697665003C21444F4354595045204802
:104D2400544D4C3E00436F756C646E277420666965
:104D34006E6420504E353378206F6E20576972654B
:104D44002E00504E353378204943207665722E204C
:104D5400002C204669726D77617265207665722E2B
:104D6400200053414D436F6E6669677572617469C3
:104D74006F6E2C004449562E200020205343484C8B
:104D84002000202D20002047454E442E200049536A
:104D94005355452000205448525520004D69666102
:104DA4007265204944200020204944200041757444
:104DB4006F506F6C6C204572726F72206F637572E6
:104DC4007265642E200046656C6943612049446D18
:104DD40020004D696661726520636C617373696359
:104DE400205549442F4E55494420006E6577206371
:104DF4006C69656E74003C68746D6C3E003C6D6556
:104E0400746120687474702D65717569763D2272C1
:104E14006566726573682220636F6E74656E743D97
:104E2400223130223E003C6272202F3E003C2F682B
:104E3400746D6C3E00636C69656E74206469736F95
:104E44006E6E65637465640073657276657220695D
:104E540073206174200053746172742E00BB634527
:104E64007455794B000000009700DB21A200AE00CE
:104E7400BA00C600000000004F092109F308FC082D
:104E840010092009240000000000F319761A6B1A97
:104E9400501A281A091A7B1B941A4C1A381B141B13
:104EA400201A00000000F31BB91C091C00000000BC
:104EB400B01D3B1EAC1D111ED81DC61DC11E5D1E9E
:104EC400551E101F511E721EF21D911D981DA81D06
:104ED40000000000DD1FDB217F1FAE1F921FD21FC9
:064EE40000000000702137
:00000001FF
