:020000040800F2
:1000000000000220C96400080D6500080D650008A5
:100010000D6500080D6500080D6500080000000072
:100020000000000000000000000000000D65000856
:100030000D650008000000000D650008F1020008D1
:100040000D6500080D6500080D6500080D650008C8
:100050000D6500080D6500080D6500080D650008B8
:100060000D6500080D6500080D6500080D650008A8
:100070000D6500080D6500080D6500080D65000898
:100080000D6500080D6500080D6500080D65000888
:100090000D6500080D6500080D6500080D65000878
:1000A0000D6500080D6500080D6500080D65000868
:1000B0000D6500080D6500080D6500080D65000858
:1000C0000D6500080D6500080D6500080D65000848
:1000D0000D6500080D6500080D6500080D65000838
:1000E0000D6500080D6500080D6500080D65000828
:1000F0000D6500080D6500080D6500080D65000818
:100100000D6500080D6500080D6500080D65000807
:100110000D6500080D6500080D6500080D650008F7
:100120000D6500080D6500080D6500080D650008E7
:100130000D6500080D6500080D6500080D650008D7
:100140000D6500080D6500080D6500080D650008C7
:100150000D6500080D6500080D6500080D650008B7
:100160000D6500080D6500080D6500080D650008A7
:100170000D6500080D6500080D6500080D65000897
:080180000D6500080D65000883
:10018800064B0246002053F8041F914204D0013068
:10019800C0B20A28F7D10020704700BFFCFFFF1F3C
:1001A8002DE9F3419DF824600D461F469046002A2C
:1001B80008BF01260446FFF7E3FF0B4B012153F864
:1001C800200003F069FC9DF8203000952046694620
:1001D8008DF804808DF805708DF807608DF806306D
:1001E80002F050FDBDE8FC81106500081F282DE9CC
:1001F800F74304460D46164699461CD9DFF8408059
:10020800470904F01F0408EB440458F827000121AB
:1002180003F042FC238D8DF80450009300238DF8E1
:100228000630064B8DF8079053F827008DF80560C7
:10023800694602F027FDBDE8FE8300BF00000020EC
:1002480010650008420910B5094B0A4C00F01F0060
:1002580004EB400453F8220021B1218DBDE8104081
:1002680002F081BD218DBDE8104002F07EBD00BFC7
:10027800000000201065000802F07EBD41090F4A09
:1002880008B5034652F821000D49026803F01F0320
:1002980001EB4303198D4B0032FA03F3DBB2012B58
:1002A80005D102F057FD003018BF012008BD02F04B
:1002B80048FD003018BF012008BD00BF0000002025
:1002C8001065000810B5074A002352F8044F84420D
:1002D80003D00133DBB2072BF7D101EB4313D8B2BC
:1002E80010BD00BFFCFFFF1F024B1A6801321A60E5
:1002F800704700BF4C000020034B1A681968891A20
:100308008142FBD3704700BF4C0000201FB5044654
:10031800684603F051FB019BB3FBF4F4B4F1807F12
:100328000AD2064B064A013CF0215C6082F8231091
:1003380000229A6007221A601FBD00BF10E000E08B
:1003480000ED00E04FF47A70E0E7014B1868704761
:100358004C000020F0B5012187B01F4E074602204F
:1003680003F09AFB022200241346012530464FF47D
:1003780040618DE83000FFF713FF29464FF48020D5
:1003880003F0AEFB8C202146FFF75CFF8F2021464F
:10039800FFF758FF30460A21072202F0F3FC3046E7
:1003A8000B21072202F0EEFCADF80C40ADF80E4030
:1003B800ADF81040ADF81440084C02970C232046C5
:1003C80002A9ADF8123005F0A9FA2046294605F031
:1003D80022FB07B0F0BD00BF000402400048004007
:1003E80008B5084B01461A885206FCD5054805F0A1
:1003F8003FFB0448402105F0E8FB0028F9D0012024
:1004080008BD00BF0048004038B50546002402E09A
:10041800FFF7E6FF0134285D0028F9D1204638BDF2
:100428002DE9F04100230A240C4F80461D4626463C
:10043800B8FBF7F2B2FBF6F006FB1020C0B200B929
:100448002BB13030C0B2FFF7CBFF01350123013C9F
:10045800B7FBF6F7ECD12846BDE8F08100CA9A3B15
:100468002DE9F0410F460021044605F0A3FF30B105
:100478002D20FFF7B5FF04F10044012500E0002519
:10048800204605F0BFFF804605F09EFD0146204648
:1004980005F0E8FC06464046FFF7C2FF0021441974
:1004A800304605F0A5FFD8B12E20FFF799FF0025AB
:1004B80012E00D49304605F0DFFD064605F0A2FFC3
:1004C8008046FFF7ADFF404605F07EFD0146304609
:1004D80005F0C8FC01350646BD42EADB0137E419E0
:1004E8002046BDE8F08100BF0000204140F0BF6019
:1004F800024B40F40030D860704700BF00ED00E0C8
:10050800C37810B50BB3174B4278DB688478DB43AC
:10051800C3F30223C3F10401C9B212FA01F10F2295
:100528001A410378C9B222400A4303F1604303F534
:1005380061431201D2B283F80023037801225909DA
:1005480003F01F0312FA03F307E0037801225909A5
:1005580003F01F0312FA03F32031034A42F8213053
:1005680010BD00BF00ED00E000E100E021F06041B7
:1005780021F07F01014B01439960704700ED00E0D5
:10058800044B1A6909B1104301E022EA000018611E
:10059800704700BF00ED00E0044B1A6804280CBF48
:1005A80042F0040222F004021A60704710E000E0F2
:1005B80008B501214FF4807003F0DAFA4FF4807027
:1005C8000021BDE8084003F0D3BA43680A6823F065
:1005D800407323F4807313430A7943EA0223436088
:1005E800CA680B6930B51A4384688D68084B2A437A
:1005F800234013434A7943EA420383600B7DC26A6E
:10060800013B22F47002DBB242EA0353C36230BDFD
:10061800FDF7FFC000230360037143718360C3606B
:100628000361012303757047074A084B516810B5E9
:100638000B4090E8120021438468C06821430143BD
:100648000B43536010BD00BF00230140E030FCFFA6
:100658000023036043608360C3607047836811B1FF
:1006680043F0010301E023F001038360704743680E
:1006780023F4400323F400730B4343607047416243
:1006880082627047436823F01F030B43436070473F
:10069800044B5A6810B142F4000201E022F400024F
:1006A8005A60704700230140044B5A6810B142F465
:1006B800800201E022F480025A6070470023014062
:1006C800092970B50CB20CD904EB44041E3CC66869
:1006D8000725A54026EA0505A34045EA0304C460AA
:1006E8000AE0066904EB44040725A54026EA050547
:1006F80013FA04F42C430461062A0CD80523013AA2
:100708005A43446B1F23934024EA0303914043EA6E
:100718000102426370BD0C2A12B20CD802EB8202AD
:10072800233A046B1F23934024EA0303914043EACE
:100738000102026370BD02EB8202413AC46A1F23C0
:10074800934024EA0303914043EA0102C26270BD68
:10075800836843F08043836070478068C0F38050AB
:100768007047836811B143F4806301E023F4806328
:1007780083607047836811B143F0020301E023F0FE
:100788000203836070474368013923F4604343EAF6
:10079800413343607047436811B143F4006301E09B
:1007A80023F4006343607047C06C80B27047014B0C
:1007B8001868704708230140836811B143F48073B7
:1007C80001E023F4807383607047836811B143F4B8
:1007D800007301E023F4007383607047044B5A6888
:1007E80010B142F4005201E022F400525A607047FE
:1007F80000230140092970B50CB20CD904EB44045C
:100808001E3CC6680725A54026EA0505A34045EA1B
:100818000304C4600AE0066904EB44040725A54004
:1008280026EA050513FA04F42C430461836BC3F329
:100838000154121B0232D2B202EB82021F249440EE
:1008480023EA040391400B43836370BD836B013932
:1008580023F4401343EA01538363704782B00023B3
:1008680001930190019BCB180193019B1A6002B080
:100878007047836823F470230B4383607047836851
:1008880023F440130B4383607047836843F4800369
:10089800836070478068C0F380507047436811B127
:1008A80043F4806301E023F4806343607047436846
:1008B80011B143F4805301E023F48053436070473F
:1008C80082B0002301930190019B28335B180193A8
:1008D800019B186880B202B070470123C9B213FAAD
:1008E80001F143680AB1194301E023EA01014160BB
:1008F8007047036819420CBF002001207047C943A4
:10090800016070474368006810EA112007D001228F
:10091800C9B212FA01F119420CBF00200120704738
:100928006FEA11210160704708B50B4B984207D157
:100938004FF00070012103F00FF94FF0007006E04E
:100948004FF08060012103F007F94FF0806000212B
:10095800BDE8084003F000B900640040036823F0D4
:1009680002030360036843F0010303604FF480331C
:100978004268D20701D4013BFAD1436813F001035E
:1009880056D08B79012B03680CBF43F0800323F00A
:1009980080030360CB79012B03680CBF43F040034D
:1009A80023F0400303600B7A012B03680CBF43F06C
:1009B800200323F0200303604B7A012B03680CBF4C
:1009C80043F0100323F0100303608B7A012B0368B4
:1009D8000CBF43F0080323F008030360CB7A012B14
:1009E80003680CBF43F0040323F0040303608B780F
:1009F800CA789B0743EA02630A7943EA02434A79C1
:100A080043EA02530A88013A1343C361036823F097
:100A1800010303604FF480334268D20701D5013BDC
:100A2800FAD1436813F0010F14BF0020012070476A
:100A380018467047837A01219940354BD3F8002234
:100A480042F0010270B5C3F80022D3F81C22CC434F
:100A58002240C3F81C22027BAAB9D3F80C22C6880C
:100A680045882240C3F80C22827A483245EA064576
:100A780043F8325003888288857A43EA0242254B3C
:100A8800ED00EB185A60037B012B16D1204B06882A
:100A9800D3F80C2245880A43C3F80C22827A4832DC
:100AA80045EA064543F83250C3888288857A43EA86
:100AB8000242184BED00EB185A60C37A144A1BB96E
:100AC800D2F80432234002E0D2F804320B430589FD
:100AD800C2F804320E4B2DB9D2F814522C40C2F889
:100AE800144206E0012D04D1D3F814220A43C3F8B6
:100AF8001422427B012A04D1D3F81C221143C3F8E3
:100B08001C12D3F8002222F00102C3F8002270BDA3
:100B1800006400404066004000238371C371037283
:100B280043728372C3728370C370032303710223F9
:100B380043710123038070470D4BD3F8002242F024
:100B48000102C3F80022D3F8002222F47C5222F0DA
:100B58000E02C3F80022D3F8002242EA0022C3F8AA
:100B68000022D3F8002222F00102C3F800227047C5
:100B780000640040036811B143F4803301E023F4BA
:100B8800803303607047036899B143F080030360C2
:100B9800D0F8843143F48073C0F88431D0F89431AC
:100BA80043F48073C0F89431D0F8A43143F48073CF
:100BB80012E023F080030360D0F8843123F48073BB
:100BC800C0F88431D0F8943123F48073C0F894319C
:100BD800D0F8A43123F48073C0F8A4317047826838
:100BE8000346500170B507D49A68120106D49A6872
:100BF800D0004AD5022002E0002000E0012000F1E8
:100C0800180212019C5804F001049C500C7A9D585B
:100C180024B90E684C7A44EA465404E04E6844EA23
:100C2800C6042C434D7A2C439C508A7A00F1180450
:100C3800240102F00F028A721A19556825F00F056F
:100C4800556055688E7A354355604E7B8A7B3604ED
:100C580046EA0266CA7A16430A7B46EA022603EB8C
:100C6800001202F5C475C2F888614A7C8E7C1204B1
:100C780042EA0662CE7B097C324342EA01226A607C
:100C88001A5942F001021A5170BD042070BD0129A1
:100C980006D002D302290AD105E082680E4B04E08F
:100CA80082680E4B01E082680D4B134000E0002380
:100CB800094A93420BD001D83BB10AE0074A934254
:100CC80005D0074A934204D101E002207047012071
:100CD80070470020704700BF0300000400030008AD
:100CE80000000310012907D002D302290DD108E022
:100CF800836843F0800302E0836843F40043836021
:100D08007047836843F400038360704730B501F18E
:100D18001B042301C55805F00405EDB21572C3582C
:100D280015B95B0D136001E0DB085360240103195A
:100D3800045904F0020454725C6804F00F049472BD
:100D48005B681B0AD37400EB011303F5DC74D3F85A
:100D5800B851D572D3F8B8512D0A1573D3F8B851D4
:100D68002D0C5573D3F8B8311B0E93736368D37386
:100D780063681B0A137463681B0C537463681B0E47
:100D8800937421B9C36843F02003C36030BD03697D
:100D980043F02003036130BD21B9C36843F0200349
:100DA800C3607047036943F020030361704709B9C2
:100DB800C06802E0012903D1006900F00300704710
:100DC8000020704799B9036823F0030343F0010337
:100DD80003604FF48033426802F00302012A01D015
:100DE800013BF8D1406800F00300012828E0012900
:100DF80011D1036823F0030303604FF48033426882
:100E0800920701D0013BFAD1436813F0030F14BFD6
:100E1800002001207047022916D1036823F003033C
:100E280043F0020303604FF48033426802F0030288
:100E3800022A01D0013BF8D1406800F003000228E3
:100E480014BF00200120704700207047036823F07A
:100E5800030343F002030360406800F00300A0F1BD
:100E68000201484240EB01007047036823F0020387
:100E780003604FF480334268920701D5013BFAD1F1
:100E8800436813F0020F14BF0020012070478069E7
:100E980000F0700070478069000E70478069C0F3E9
:100EA8000740704743690AB1194301E023EA010189
:100EB8004161704711F4700F01D083690AE0CB01DA
:100EC80001D5436806E00A0101D5836802E08B0179
:100ED80009D5C36823F07F4323F470030B420CBF8A
:100EE800002001207047036923F07F4323F4700337
:100EF8000B420CBF0020012070470B4B994202D1D6
:100F080000238361704721F07F438A0123F4700333
:100F180001D5C36070474A0101D5036170470A01D2
:100F28004CBF8360436070477000F03043690B40EA
:100F38005FD040293ED00ED804292FD004D80129EB
:100F480021D0022957D127E010292BD020292FD0D2
:100F5800082950D124E0B1F5006F3FD009D8B1F588
:100F6800007F35D0B1F5806F36D0B1F5807F42D1A2
:100F78002AE0B1F5803F1FD0B1F5003F20D0B1F590
:100F8800004F38D131E0806800F0013020F08070E7
:100F9800003018BF01207047C06804E0C0680CE04A
:100FA800C0680EE0006910F0030018BF0120704708
:100FB800006902E0006904E04068C0F3C0007047BF
:100FC8004068C0F300107047806900F00100704766
:100FD8008069C0F340007047806907E0836913F0B7
:100FE800700F0CBF0020012070474068C0F38000DC
:100FF80070471846704700207047B1F5807F35D09C
:101008000CD8082924D004D801291CD0042934D1AB
:101018001CE020291FD040292FD11EE0B1F5006F18
:1010280022D006D8B1F5007F20D0B1F5806F24D149
:101038001CE0B1F5803F13D0B1F5003F12D0B1F5F7
:10104800004F1AD115E00D4B83607047082300E06C
:101058001023C3607047082300E010230361704722
:10106800082304E0102302E0002383610423436083
:101078007047002383610423436070470101010026
:10108800014B01229A60704700300240014B186002
:10109800186870470030024010B50023054A03E085
:1010A80050F8044B013314608B42F9D1014B186896
:1010B80010BD00BF00300240014B1868704700BFE8
:1010C80000300240014B1871704700BF00300240E9
:1010D800014B1879704700BF0030024008B5102056
:1010E800012102F021FD10200021BDE8084002F096
:1010F8001BBD164B1A6822F0380210B51A60196821
:101108004288848811431960196821F0C001196068
:101118001968202A44EA0101196005D0282A03D059
:10112800302A01D0382A07D11A68C18822F44072BF
:101138001A601A680A431A60044B01881A6822F078
:1011480004021A601A680A431A6010BD00000650AB
:101158000023038043808380C38070470268084B64
:101168001A6242685A6282689A62C268DA620269DE
:101178001A6342695A6382699A63C269DA6370477B
:10118800000006500023036043608360C36003616E
:1011980043618361C36170470268044B1A64426803
:1011A8005A6482689A64C268DA647047000006501C
:1011B8000023036043608360C3607047024B1A6872
:1011C80042F480421A60704700000650044B1A68C7
:1011D80010B142F4004201E022F400421A60704764
:1011E80000000650014B9860704700BF0000065091
:1011F800014BD868704700BF0000065073B5002344
:101208000193224B1A6922F001021A611A6812F03E
:10121800080F0CBF152211224FF6FF745D68019E5E
:1012280001360196019EA64202D01540012DF5D146
:10123800164B5C682240012A25D11C6924F002045F
:101248001C611C6824F400441C601C6804F47F744E
:1012580004601C6C44605C6C84609C6CC460DB6CD7
:1012680003610B6843614B6883618B68C361CB681A
:1012780003620B6943624B6983628B69C362CB6902
:101288000363104600E000207CBD00BF000006504C
:1012980002680F4B1A6042691A6282695A62C2690F
:1012A8009A62026ADA62426A1A63826A5A63C26A94
:1012B8009A63026BDA6342681A6482685A64C26885
:1012C8009A640269DA641A6842F400421A60704744
:1012D80000000650054B1A6909B1104303E022EAE1
:1012E800000000F0FF001861704700BF00000650C2
:1012F800054B5A6909B1104303E022EA000000F0E7
:10130800FF005861704700BF00000650034BDB69BF
:1013180018420CBF00200120704700BF0000065093
:10132800054B10F0200F14BF9B695B6803420CBF8C
:1013380000200120704700BF000006502DE9F04F43
:101348008DB0164604464FF0000A01A80D4699468E
:10135800DDF858B0CDF82CA09846179FFFF712FF7C
:10136800C02E11D0B6F5807F23D0802E3DD1ADF8A8
:101378002AA02B681BBA05936B681BBA0693AB6847
:101388001BBA0793EB682EE04FF48073ADF82A3050
:101398002B681BBA03936B681BBA0493AB681BBA20
:1013A8000593EB681BBA06932B691BBA07936B6905
:1013B80019E04FF40073ADF82A302B681BBA01937B
:1013C8006B681BBA0293AB681BBA0393EB681BBA32
:1013D80004932B691BBA05936B691BBA0693AB6917
:1013E8001BBA0793EB691BBA089314BBFFF7E6FE19
:1013F8000423ADF8243009A83823ADF82630ADF819
:101408002840FFF776FE01A8FFF7A8FE0120FFF7A6
:10141800DDFE1020FFF784FF0B9B01330B930B9B22
:10142800B3F5803F02D00028F3D100E048B9042387
:1014380003E001A8FFF792FE0023ADF82430012451
:1014480000E00024202309A8ADF826308023ADF859
:1014580028300025FFF74DFEFFF7B0FE0120FFF70B
:10146800B5FE2E4631E059F80500FFF7BBFED8F867
:101478000400FFF7B7FED8F80800FFF7B3FED8F866
:101488000C00FFF7AFFE08F110080B961020FFF7CD
:1014980047FF0B9B01330B930B9BB3F5803F02D0A7
:1014A8000028F3D100E070B9FFF7A2FE3860FFF71B
:1014B8009FFE7860FFF79CFEB860FFF799FE012455
:1014C800F860103700E0002410355D4501D2002C8B
:1014D800C9D10020FFF77AFE20460DB0BDE8F08F95
:1014E8002DE9F04F93B09946DDF870A0DDF874B09F
:1014F8001E9F0023044603A8119301930D46164628
:10150800FFF740FEB9F1C00FD046019B12D0B9F5E4
:10151800807F24D0B9F1800F3DD1ADF842303368D7
:101528001BBA079373681BBA0893B3681BBA09936D
:10153800F3682EE04FF48073ADF8423033681BBA7D
:10154800059373681BBA0693B3681BBA0793F368CD
:101558001BBA089333691BBA0993736919E04FF4EE
:101568000073ADF8423033681BBA039373681BBA33
:101578000493B3681BBA0593F3681BBA06933369DF
:101588001BBA079373691BBA0893B3691BBA09930B
:10159800F3691BBA0A932B681BBA0B936B681BBAC7
:1015A8000C93AB681BBA0D93EB681BBA0E9314BB74
:1015B800FFF704FE0423ADF83C300FA83823ADF83C
:1015C8003E30ADF84040FFF794FD03A8FFF7C6FD95
:1015D8000120FFF7FBFD1020FFF7A2FE119B01334E
:1015E8001193119BB3F5803F02D00028F3D100E09E
:1015F80048B9042303E003A8FFF7B0FD0023ADF8C2
:101608003C30012400E000242823ADF83E300FA828
:101618008023ADF84030FFF76CFD0BA8FFF7BCFD49
:101628000025FFF7CBFD0120FFF7D0FD2E4631E066
:101638005AF80500FFF7D6FDD8F80400FFF7D2FDE9
:10164800D8F80800FFF7CEFDD8F80C00FFF7CAFD60
:1016580008F1100811961020FFF762FE119B013364
:101668001193119BB3F5803F02D00028F3D100E01D
:1016780070B9FFF7BDFD3860FFF7BAFD7860FFF776
:10168800B7FDB860FFF7B4FD0124F860103700E03B
:10169800002410355D4501D2002CC9D10020FFF788
:1016A80095FD204613B0BDE8F08F2DE9F04F93B0BB
:1016B8009946DDF870A0DDF874B01E9F002304463B
:1016C80003A8119301930D461646FFF75BFDB9F188
:1016D800C00FD046019B12D0B9F5807F24D0B9F154
:1016E800800F3DD1ADF8423033681BBA0793736859
:1016F8001BBA0893B3681BBA0993F3682EE04FF43A
:101708008073ADF8423033681BBA059373681BBA0F
:101718000693B3681BBA0793F3681BBA0893336937
:101728001BBA0993736919E04FF40073ADF842309E
:1017380033681BBA039373681BBA0493B3681BBA64
:101748000593F3681BBA069333691BBA0793736949
:101758001BBA0893B3691BBA0993F3691BBA0A93B6
:101768002B681BBA0B936B681BBA0C93AB681BBA3C
:101778000D93EB681BBA03A80E93FFF7EFFC0CB9A7
:10178800042300E00023ADF83C303023ADF83E30B0
:101798000FA88023ADF84030FFF7ABFC0BA8FFF78C
:1017A800FBFC0024FFF70AFD0120FFF70FFD0125D0
:1017B800264631E05AF80400FFF714FDD8F8040073
:1017C800FFF710FDD8F80800FFF70CFDD8F80C005B
:1017D800FFF708FD08F1100811961020FFF7A0FD8B
:1017E800119B01331193119BB3F5803F02D0002860
:1017F800F3D100E070B9FFF7FBFC3860FFF7F8FCA5
:101808007860FFF7F5FCB860FFF7F2FC0125F86097
:10181800103700E0002510345C4501D2002DC9D1F5
:101828000020FFF7D3FC284613B0BDE8F08F2DE960
:10183800F0478CB004464FF0000901A80D46164643
:101848009A46CDF82C909046149FFFF79BFC012CEC
:1018580002D1ADF8249002E00423ADF8243010231F
:10186800ADF8263009A88023ADF82830FFF741FCF1
:101878002B681BBA03936B681BBA01A80493002456
:10188800FFF76CFCFFF79AFC0120FFF79FFC01258E
:10189800A14623E03059FFF7A5FCD8F80400FFF76C
:1018A800A1FC08F10808CDF82C901020FFF738FDAE
:1018B8000B9B01330B930B9BB3F5803F02D00028A1
:1018C800F3D100E040B9FFF793FC3860FFF790FCD4
:1018D80001257860083700E000250834544501D216
:1018E800002DD7D10020FFF771FC28460CB0BDE8C9
:1018F800F0872DE9F04F91B004464FF0000A01A897
:101908000D4616469946DDF868B0CDF83CA09846D5
:101918001B9FFFF737FC012C02D1ADF834A002E081
:101928000423ADF834301823ADF836300DA88023E1
:10193800ADF83830FFF7DDFB2B681BBA03936B68F3
:101948001BBA01A80493FFF709FC33681BBA099373
:1019580073681BBA09A80A930024FFF71DFCFFF758
:101968002DFC0120FFF732FC0125264623E059F81B
:101978000400FFF737FCD8F80400FFF733FC08F140
:1019880008080F961020FFF7CBFC0F9B01330F932D
:101998000F9BB3F5803F02D00028F3D100E040B997
:1019A800FFF726FC3860FFF723FC0125786008372D
:1019B80000E0002508345C4501D2002DD7D1002075
:1019C800FFF704FC284611B0BDE8F08F2DE9F04779
:1019D8008CB004464FF0000901A80D4616469A46F9
:1019E800CDF82C909046149FFFF7CCFB012C02D128
:1019F800ADF8249002E00423ADF82430802309A830
:101A0800ADF82830ADF82690FFF773FB2B681BBAAA
:101A180003936B681BBA0493AB681BBA0593EB6816
:101A28001BBA06932B691BBA07936B691BBA01A8EB
:101A380008930024FFF792FBFFF7C0FB0120FFF794
:101A4800C5FB0125A14623E03059FFF7CBFBD8F8A9
:101A58000400FFF7C7FB08F10808CDF82C90102008
:101A6800FFF75EFC0B9B01330B930B9BB3F5803F99
:101A780002D00028F3D100E040B9FFF7B9FB386085
:101A8800FFF7B6FB01257860083700E00025083429
:101A9800544501D2002DD7D10020FFF797FB2846E7
:101AA8000CB0BDE8F0872DE9F04F91B004464FF037
:101AB800000A01A80D4616469946DDF868B0CDF82B
:101AC8003CA098461B9FFFF75DFB012C02D1ADF8A7
:101AD80034A002E00423ADF834300823ADF83630E2
:101AE8000DA88023ADF83830FFF703FB2B681BBA2D
:101AF80003936B681BBA0493AB681BBA0593EB6836
:101B08001BBA06932B691BBA07936B691BBA01A80A
:101B18000893FFF723FB33681BBA099373681BBA52
:101B280009A80A930024FFF737FBFFF747FB0120BA
:101B3800FFF74CFB0125264623E059F80400FFF780
:101B480051FBD8F80400FFF74DFB08F108080F9681
:101B58001020FFF7E5FB0F9B01330F930F9BB3F5A5
:101B6800803F02D00028F3D100E040B9FFF740FBE6
:101B78003860FFF73DFB01257860083700E0002555
:101B880008345C4501D2002DD7D10020FFF71EFB99
:101B9800284611B0BDE8F08F08B501214FF000507C
:101BA80001F0DAFF4FF000500021BDE8084001F0D5
:101BB800D3BF0A4B30B540F6FE721C68824024EA57
:101BC800020291E8300025438C682543CC6845EA39
:101BD800040111FA00F01043186030BD0074004091
:101BE8000023036043608360C3607047064B012293
:101BF80019B1196882400A4303E01968824021EA52
:101C080002021A60704700BF00740040064B0009CA
:101C1800012219B1596882400A4303E05968824099
:101C280021EA02025A60704700740040044B5A6867
:101C380010B142F0030201E022F003025A6070473B
:101C480000740040054B814012B11A68114302E04C
:101C58001A6822EA01011960704700BF0074004049
:101C680082B000230193054B0193019B08331B1895
:101C78000193019B196002B0704700BF00740040D7
:101C880082B000230193054B0193019B14331B1869
:101C98000193019B196002B0704700BF00740040B7
:101CA8000828044B0CBF42EA012142EA0141C15015
:101CB800704700BF2074004082B000230193064B98
:101CC8000193019B2C3303EB90030193019B18684C
:101CD80080B202B0704700BF00740040064B4FF45A
:101CE800805219B1196882400A4303E0196882409A
:101CF80021EA02021A60704700740040054B8140D7
:101D080012B11A68114302E01A6822EA0101196047
:101D1800704700BF00740040034B5B6B8140194261
:101D28000CBF00200120704700740040014B814027
:101D38005963704700740040054B81401A68586B1E
:101D4800084003D011420CBF00200120704700BF9B
:101D580000740040014B8140596370470074004093
:101D6800014B1868000C7047002004E0024B18680B
:101D78000005000D704700BF002004E0044B5A68BE
:101D880009B1104301E022EA00005860704700BF23
:101D9800002004E0044B9A6809B1104301E022EAEC
:101DA80000009860704700BF002004E0044BDA6828
:101DB80009B1104301E022EA0000D860704700BF73
:101DC800002004E0054B00221F211A60DA605961E7
:101DD8009A61DA611A625A62704700BF00000550C2
:101DE8000E4B1A6822F4804222F0010210B5448892
:101DF8001A6002881968224384882243C4882243CF
:101E08000489224344898089224321F47F61024363
:101E180021F0020192B20A431A6010BD0000055079
:101E28000023038043808380C380038143818381AF
:101E3800704743880288818843EA0242034B1A624A
:101E4800C28842EA01425A62704700BF000005504A
:101E5800044B1A6810B142F0040201E022F00402B7
:101E68001A6070470000055082784378120442EAED
:101E7800032203781A43C37842EA0362014B9A614A
:101E8800704700BF00000550044B1A6810B142F0BB
:101E9800080201E022F008021A60704700000550AD
:101EA800044B1A6810B142F4804201E022F48042E7
:101EB8001A60704700000550044B1A6810B142F0D0
:101EC800010201E022F001021A607047000005508B
:101ED800014B986A704700BF00000550044BDA6850
:101EE80009B1104302E0C04380B21040D860704787
:101EF80000000550020B064B01D19B6803E0022A43
:101F08000CBF5B681B6903420CBF002001207047AF
:101F180000000550014B5861704700BF0000055094
:101F2800034B1B6918420CBF00200120704700BFFB
:101F380000000550014B5861704700BF0000055074
:101F4800036823F001030360002303604360836098
:101F5800C3600361212343612C4B98421CD02C4B56
:101F6800984220D02B4B984225D02B4B98422AD010
:101F78002A4B98422FD02A4B984233D0294B98426B
:101F880037D0294B984204D14FF03D5243F8AC2C3E
:101F98007047264B984203D13D2243F8082C7047DE
:101FA800234B984204D14FF4746243F8202C7047B5
:101FB800204B984204D14FF4741243F8382C7047E0
:101FC8001D4B984204D14FF0746243F8502C70476F
:101FD8001A4B984203D11A4A43F8642C7047194B9C
:101FE800984203D1184A43F87C2C7047174B984203
:101FF80003D1174A43F8942C7047164B984204BFF4
:102008004FF03D5243F8AC2C704700BF10600240BF
:102018002860024040600240586002407060024000
:1020280088600240A0600240B8600240106402402C
:1020380028640240406402405864024070640240D0
:102048003D00002088640240400F0020A064024048
:1020580000003D20B86402400268134B10B51340DD
:10206800CC680A6822434C6922438C692243CC69B4
:1020780022430C6A22434C6A22438C6A22434C6BEB
:1020880022438C6B22431343036042690C6BCB6A77
:1020980022F007022343134343610B6943604B68F3
:1020A80083608B68C36010BD3F801CF00023036011
:1020B80043608360C360036143618361C3610362FA
:1020C80043628362C3620363436383637047036845
:1020D80011B143F0010301E023F0010303607047ED
:1020E800036811B143F4004301E023F400430360A3
:1020F8007047036811B143F0200301E023F0200387
:102108000360704741607047406880B27047036859
:1021180012B143F4002301E023F4002303600161BA
:102128007047036811B143F4802301E023F480234E
:10213800036070470AB101617047C1607047006869
:10214800C0F3C0407047006800F001007047406964
:1021580000F0380070470A4A0A4B10B50A4CA042F2
:1021680088BF13468A004CBF5B681B6821F0F021CA
:1021780021F0821119420CBF0020012010BD00BFC0
:1021880000640240006002400F64024010B5084B32
:10219800084A094CA04288BF134611F0005F21F09D
:1021A800F02121F0821114BFD960996010BD00BFE1
:1021B80000600240006402400F6402400B0607D52D
:1021C800436912B143F0800301E023F080034361C7
:1021D800802909D001F01E01036812B1194301607A
:1021E800704723EA010101607047124B124A10B58B
:1021F800124CA0428CBF14461C4621F0F02323F059
:10220800C3132BB1026802F01E0202EAD12202E0D7
:10221800426902F0800288004CBF6368236821F09D
:10222800F02121F08210184002D0101C18BF0120A4
:1022380010BD00BF00600240006402400F6402400D
:1022480010B5084B084A094CA04288BF134611F044
:10225800005F21F0F02121F0821114BFD96099604C
:1022680010BD00BF00600240006402400F640240DD
:10227800044B00221A605A609A60DA60024A5A6176
:10228800704700BF003C0140FFFF7F00837910B515
:10229800002B29D01A4B01681C68CA4314401C60E3
:1022A8005C6822405A60027902F1804202F59E324F
:1022B80014682143116002689C68D1430C409C60FB
:1022C800DC682140D9604179102906D19968114309
:1022D8009960D9680A43DA6010BD01F1804303F5BB
:1022E8009E3319680A4308E00379016803F18043C3
:1022F80003F59E331A6822EA01021A6010BD00BF76
:10230800003C014000230C22036003714271837179
:102318007047024B1A6902431A617047003C01403A
:10232800034B5B6918420CBF00200120704700BFB7
:10233800003C0140014B5861704700BF003C014020
:10234800054B1A685B69034004D010420CBF00209B
:102358000120704718467047003C0140014B586106
:10236800704700BF003C0140014BC0B21870704775
:10237800003C0240044B1A6810B142F4807201E03C
:1023880022F480721A607047003C0240044B1A68BD
:1023980010B142F4007201E022F400721A60704732
:1023A800003C0240044B1A6810B142F4806201E01C
:1023B80022F480621A607047003C0240024B1A689F
:1023C80042F400621A607047003C0240024B1A68EF
:1023D80042F480521A607047003C0240044B1A696C
:1023E800002A04DA034A5A6002F188325A607047B8
:1023F800003C024023016745024B1A6942F0004243
:102408001A617047003C0240044B5A69D20704D550
:10241800034A9A6002F144329A607047003C0240D5
:102428003B2A1908024B5A6942F001025A61704767
:10243800003C0240044B1A7802F0F3021A701A7832
:1024480002431A70704700BF143C0240024B58699F
:10245800C0F34710704700BF003C0240014B18888A
:1024680080B27047163C0240024B1878AA3818BF51
:1024780001207047153C0240024B187800F00C0010
:10248800704700BF143C0240044B1A6909B110435D
:1024980001E022EA00001861704700BF003C0240DA
:1024A800034BDB6818420CBF00200120704700BFB7
:1024B800003C0240014BD860704700BF003C02401E
:1024C8000B4BDA68D0030DD4DA68D1060CD4DA687D
:1024D80012F0EF0F0AD1DB6813F0020F0CBF0820CF
:1024E8000720704701207047052070470620704775
:1024F800003C024007B508238DF80730FFF7E0FFDE
:102508008DF807009DF80730012BF7D09DF80700DC
:102518000EBD034B1A7842F002021A70EAE700BFB8
:10252800143C024070B504460D461646FFF7E2FF1C
:10253800082807D1044B1A7802F00F0214432543E8
:102548002E431E7070BD00BF143C024010B50446F7
:10255800FFF7D0FF082804BF014B1C7010BD00BF57
:10256800153C024038B504460D46FFF7C3FF08285E
:102578000AD1064B1A8825B192B222EA04041C80BB
:1025880038BD1443A4B21C8038BD00BF163C0240BD
:1025980070B504460E46FFF7ADFF082811D1094D66
:1025A8002B6923F440732B612B692B612B6943F052
:1025B80001032B612670FFF79DFF2B6923F00103B0
:1025C8002B6170BD003C024070B504460E46FFF713
:1025D80091FF082813D10A4D2B6923F440732B610E
:1025E8002B6943F480732B612B6943F001032B6142
:1025F8002680FFF77FFF2B6923F001032B6170BD55
:10260800003C024070B504460E46FFF773FF0828E9
:1026180013D10A4D2B6923F440732B612B6943F4C2
:1026280000732B612B6943F001032B612660FFF7D0
:1026380061FF2B6923F001032B6170BD003C024050
:10264800F8B5064614461D46FFF754FF082814D16E
:102658000A4F3B6923F440733B613B6943F4407381
:102668003B613B6943F001033B61C6E90045FFF765
:1026780041FF3B6923F001033B61F8BD003C024088
:1026880010B50446FFF736FF44B1012C08D0022CE0
:1026980014BF4FF440734FF4007303E0234601E086
:1026A8004FF48073082815D10B4C226922F440722C
:1026B8002261226913432361236943F004032361E0
:1026C800236943F480332361FFF714FF236923F060
:1026D8000403236110BD00BF003C024070B50446EE
:1026E80041B1012908D0022914BF4FF440764FF4B4
:1026F800007603E00E4601E04FF48076FFF7FAFE1D
:1027080008281ED10F4D2B6923F440732B612B69C8
:102718001E432E612B6923F0F8032B612B6943F0CC
:1027280002031C432C612B6943F480332B61FFF7B0
:10273800E1FE2B6923F002032B612B6923F0F803D8
:102748002B6170BD003C02404FF0204318B943F2A2
:10275800DB021A6003E043F2D20243F820204FF074
:102768002042411C6FF0704342F8213002F582721A
:1027780042F82030704770B584684568C368C16AFC
:10278800026825431D4303691D4343691D4383694B
:102798001D43C3691D43036A1D43436A1D43836A7E
:1027A8001D43036B0D431D434FF02043082C43F892
:1027B800225005D153F8224044F0400443F8224007
:1027C800436B9E691D6835435E6845EA06159E6839
:1027D80045EA0625DE6845EA06451E695B6945EA5D
:1027E8000655541C45EA03654FF02043B1F5804F68
:1027F80043F8245010D1836B9869196801435868CD
:1028080041EA0011986841EA002118695B6941EAC8
:10281800005141EA036101E06FF07041014B43F858
:10282800221070BD040100A0022242604FF48052C1
:102838004262416B4FF4005210B5826200230F22AE
:10284800FF2403608360C360036143618361C361E4
:102858000362C36203630A604A608C60CA600A61EB
:102868004A618B61816B0A604A608C60CA600A6148
:102878004A618B6110BD4FF0204321B153F82020ED
:1028880042F0010203E053F82010024A0A4043F8DC
:1028980020207047FEFF0F0010280CBF064B074B87
:1028A8004FF040024FF0180119605A604FF0FC32A7
:1028B8009A60DA60704700BF600000A0800000A046
:1028C80030B5836844681C43C36844F008041C435B
:1028D80003691C43436944EA4324836944EA433453
:1028E800C36999685A68090441EA02211A68DB68D1
:1028F800114341EA0361036A9A685D68120442EA77
:1029080005221D68DB682A4342EA03620368102B2C
:102918000CBF034B034B1C609960DA6030BD00BFED
:10292800600000A0800000A010230360C26900239B
:1029380043608360C360036143618361FC23136068
:1029480053609360D360026A136053609360D360EE
:10295800704741B110280CBF074B084B1A6842F06A
:1029680004021A60704710280CBF034A034A044B3C
:1029780011680B4013607047600000A0800000A041
:10298800FBFF0F0041B110280CBF084B084B1A6819
:1029980042F040021A60704710280CBF034A044AEC
:1029A800044B11680B401360704700BF600000A023
:1029B800800000A0BFFF0F00102802D1024B586909
:1029C8007047024B58697047600000A0800000A063
:1029D800054B18221A6000225A604FF0FC329A60A8
:1029E800DA601A61704700BFA00000A0026843685F
:1029F80042F0100242EA4322836842EA4332144B0F
:102A080010B51A60C26891685468090441EA042143
:102A18001468D268214341EA02629A6002699168A7
:102A28005468090441EA04211468D268214341EA40
:102A38000262DA60426991685068090441EA00213B
:102A48001068D268014341EA02621A6110BD00BFF2
:102A5800A00000A0C2680023036043608360FC23D9
:102A6800136053609360D36002691360536093608E
:102A7800D3604269136053609360D3607047054B1D
:102A880018B11A6842F0040202E01968024A0A40C2
:102A98001A607047A00000A0FBFF0F0062B1102869
:102AA80001D10E4B03E0B0F5807F03D10C4B5A687F
:102AB800114311E00B4BFAE7102804D1074B5A6871
:102AC80022EA010108E0B0F5807F0CBF044B054BFA
:102AD8005A686FEA0101114059607047600000A010
:102AE800800000A0A00000A0102801D1064B04E03F
:102AF800B0F5807F0CBF054B054B5B680B420CBFE4
:102B080000200120704700BF600000A0800000A0E6
:102B1800A00000A0102804D1074B5A6822EA01013E
:102B280008E0B0F5807F0CBF044B054B5A686FEA8C
:102B38000101114059607047600000A0800000A0AA
:102B4800A00000A0102801D1084B04E0B0F5807F58
:102B58000CBF074B074B5B6813EA010004D013EA6C
:102B6800D1010CBF00200120704700BF600000A009
:102B7800800000A0A00000A0102804D1084B5A68CB
:102B880022EAD10109E0B0F5807F0CBF054B064B66
:102B98005A684FEAD10122EA01015960704700BF23
:102BA800600000A0800000A0A00000A008B52C4B89
:102BB800984205D10120014600F0AAFF012048E013
:102BC800284B984205D10220012100F0A1FF0220E4
:102BD8003FE0254B984205D10420012100F098FFE1
:102BE800042036E0214B984205D10820012100F04D
:102BF8008FFF08202DE01E4B984205D1102001219F
:102C080000F086FF102024E01A4B984205D12020BE
:102C1800012100F07DFF20201BE0174B984205D1D1
:102C28004020012100F074FF402012E0134B98422D
:102C380005D18020012100F06BFF802009E0104BB6
:102C480098420BD14FF48070012100F061FF4FF4DE
:102C580080700021BDE8084000F05ABF08BD00BFE1
:102C6800000002400004024000080240000C02403C
:102C7800001002400014024000180240001C0240EC
:102C8800002002402DE9F0470023D1F800801A46C1
:102C98004FF0010C03270CFA02F404EA0805A542D8
:102CA8002ED1066817FA03F4E443264006600E792D
:102CB800D0F8009006FA03FA013E4AEA0909012E03
:102CC800C0F8009014D8866891F805902640866070
:102CD800866809FA03F949EA06068660466826EA1C
:102CE800050545608D7946689540ADB23543456028
:102CF800C5682C40C460CC79C5689C402C43C4602E
:102D080001320233102AC6D1BDE8F0874FF6FF73AF
:102D180003600023037143718371C371704782B0EC
:102D28004FF480330193019B0B430193019BC361D3
:102D3800C161019BC361C3690193C369019302B077
:102D48007047036919420CBF0020012070470069D1
:102D580080B27047436919420CBF002001207047B8
:102D6800406980B2704701837047418370470AB158
:102D780001837047418370474161704743694B4005
:102D88004361704701F00703C908083130B59B005B
:102D980050F821500F249C4025EA040440F82140B3
:102DA80050F8214012FA03F31C4340F8214030BD8B
:102DB80008B52020012100F0B7FE20200021BDE841
:102DC800084000F0B1BE0E4B1A6822F0F00210B5B0
:102DD8001A6090E806001C68214384682143114367
:102DE800402A196007D11A6822F480321A601968DB
:102DF800C2680A431A601A6842F004021A6010BDD9
:102E0800000406500023036043608360C36070477A
:102E1800024B1A6842F004021A6070470004065018
:102E2800044B9A6822F01F029A609A6802439A60DB
:102E3800704700BF00040650014B5860704700BF40
:102E480000040650024B1868C0F30320704700BF07
:102E580000040650054BDA6802601A6942605A6934
:102E680082609A69C260DB6903617047000406509A
:102E7800024B9A6842F480729A60704700040650C8
:102E8800084B1A6A02609A6842601A6882600022D7
:102E980002F13E01013253F82110C1600430332A97
:102EA800F6D170470004065002680B4B10B51A6241
:102EB80042689A6082681A601A6842F004021A60CE
:102EC8000022C46802F13E0101320430332A43F87B
:102ED8002140F6D110BD00BF00040650044B1A680B
:102EE80010B142F0080201E022F008021A607047AF
:102EF80000040650054B1A6A09B1104303E022EAA0
:102F0800000000F0FF001862704700BF0004065080
:102F1800054B10F4805F14BF1B685B6A03420CBF4B
:102F280000200120704700BF00040650014BC04339
:102F38005862704700040650044B5A6A1B6A1340D3
:102F480003420CBF00200120704700BF0004065058
:102F5800C043024BC0B25862704700BF000406501D
:102F6800F0B501F003038DB00027DB00ADF82E703B
:102F780004460D4616460A97ADF82E30FFF718FF9F
:102F88008023069306A8202307970893FFF71BFFC3
:102F9800BDF82E0080B2FFF743FF03E0E059FFF7CA
:102FA8004BFF0437AF42F9D3FFF762FF0820FFF762
:102FB800AFFF0A9B01330A930A9BB3F5803F02D007
:102FC8000028F3D100E080B901A8FFF743FF019B77
:102FD8001BBA3360029B1BBA7360039B1BBAB360B6
:102FE800049B1BBA0120F36000E000200DB0F0BD87
:102FF8002DE9F04399468DB003F003034FF0000824
:10300800DB00ADF82C80ADF82E80CDF82880ADF827
:103018002C3001F00303DB000D4616460446ADF8DC
:103028002E30149FFFF7C4FE802306934023079396
:103038002023402D089306A88ABF4FF48033CDF88B
:1030480024800993FFF7BFFEBDF82E0080B2FFF77A
:10305800E7FE4FF0000805E054F80800FFF7ECFE23
:1030680008F10408A845F7D3FFF702FF0820FFF787
:103078004FFF0A9B01330A930A9BB3F5803F02D0A6
:103088000028F3D101E0002852D1BDF82C0080B20D
:10309800FFF7C6FE4FF0000805E056F80800FFF7F6
:1030A800CBFE08F10408C845F7D3FFF7E1FE00237B
:1030B8000A930820FFF72CFF0A9B01330A930A9B07
:1030C800B3F5803F02D00028F3D101E000282FD1CA
:1030D800BDF82E0080B2FFF7A3FE002603E0A0593A
:1030E800FFF7AAFE0436AE42F9D3FFF7C1FE00236C
:1030F8000A930820FFF70CFF0A9B01330A930A9BE7
:10310800B3F5803F02D00028F3D100E080B901A8D0
:10311800FFF7A0FE019B1BBA3B60029B1BBA7B60BA
:10312800039B1BBABB60049B1BBA0120FB6000E039
:1031380000200DB0BDE8F083F0B501F003038DB0B9
:103148000027DB00ADF82E7004460D4616460A9798
:10315800ADF82E30FFF72CFE202306A80697079718
:103168000893FFF730FEBDF82E0080B2FFF758FE37
:1031780003E0E059FFF760FE0437AF42F9D3FFF7E9
:1031880077FE0820FFF7C4FE0A9B01330A930A9BC7
:10319800B3F5803F02D00028F3D100E098B901A828
:1031A800FFF758FE019B1BBA3360029B1BBA736082
:1031B800039B1BBAB360049B1BBAF360059B1BBA45
:1031C8000120336100E000200DB0F0BD2DE9F0438F
:1031D80099468DB003F003034FF00008DB00ADF80B
:1031E8002C80ADF82E80CDF82880ADF82C3001F079
:1031F8000303DB000D4616460446ADF82E30149F37
:10320800FFF7D6FD402307932023402D089306A8F7
:103218008CBF4FF48033CDF82480CDF8188088BF58
:103228000993FFF7D0FDBDF82E0080B2FFF7F8FD37
:103238004FF0000805E054F80800FFF7FDFD08F11D
:103248000408A845F7D3FFF713FE0820FFF760FE30
:103258000A9B01330A930A9BB3F5803F02D00028EA
:10326800F3D101E0002855D1BDF82C0080B2FFF75A
:10327800D7FD4FF0000805E056F80800FFF7DCFD21
:1032880008F10408C845F7D3FFF7F2FD00230A93B5
:103298000820FFF73DFE0A9B01330A930A9BB3F50A
:1032A800803F02D00028F3D101E0002832D1BDF8D8
:1032B8002E0080B2FFF7B4FD002603E0A059FFF707
:1032C800BBFD0436AE42F9D3FFF7D2FD00230A93C3
:1032D8000820FFF71DFE0A9B01330A930A9BB3F5EA
:1032E800803F02D00028F3D100E098B901A8FFF789
:1032F800B1FD019B1BBA3B60029B1BBA7B60039B21
:103308001BBABB60049B1BBAFB60059B1BBA012060
:103318003B6100E000200DB0BDE8F08308B5134B19
:10332800984207D14FF40010012100F015FC4FF42A
:10333800001014E00E4B984207D14FF48000012191
:1033480000F00AFC4FF4800009E00A4B98420BD1C8
:103358004FF40000012100F0FFFB4FF400000021B2
:10336800BDE8084000F0F8BB08BD00BF00540040AD
:1033780000580040005C00407FB5044686886846D7
:103388000D4600F019FB02992C482B6826F03F06E1
:103398003604B1FBF0F0360C80B20643A6802288D2
:1033A80022F001021204120C2280254A93420AD804
:1033B8005B00B1FBF3F301309BB280B22084032B96
:1033C80098BF042321E0EE884BF6FF72964205D1A0
:1033D80003225343B1FBF3F39BB206E01922534394
:1033E800B1FBF3F39BB243F480431A054FF4967292
:1033F80008BF43F0010350434FF47A7290FBF2F098
:10340800013080B243F400432084A3832388698970
:10341800AA889BB243F001032380238823F48163A5
:1034280023F002031B040A431B0C13439BB22380A3
:103438002A89AB8913439BB223817FBD40420F0089
:10344800A086010041F288330360002383804BF695
:10345800FF72038143814FF48043C28083817047A8
:10346800038819B19BB243F0010303E023F0010381
:103478001B041B0C03807047038819B19BB243F4EB
:10348800807303E023F480731B041B0C03807047D4
:10349800038819B19BB243F4007303E023F400736B
:1034A8001B041B0C0380704712B141F0010101E0BD
:1034B80001F0FE0101827047038819B19BB243F401
:1034C800806303E023F480631B041B0C03807047B4
:1034D80083899BB201F0FE0123F0FE030B43838135
:1034E8007047838919B19BB243F0010303E023F0CD
:1034F80001031B041B0C83817047038819B19BB21D
:1035080043F0400303E023F040031B041B0C03803B
:103518007047038829B16FEA43436FEA53439BB26C
:1035280001E05B045B0C03807047038819B99BB208
:1035380043F0800303E023F080031B041B0C03808B
:103548007047B1F5804F838B04D023F480431B046C
:103558001B0C02E09BB243F4804383837047B1F5B0
:10356800006F038803D19BB243F4006303E023F4A4
:1035780000631B041B0C03807047B1F5005F0388D0
:1035880003D19BB243F4005303E023F400531B041C
:103598001B0C03807047038819B19BB243F01003DA
:1035A80003E023F010031B041B0C03807047018207
:1035B8007047008AC0B27047038819B19BB243F4C0
:1035C800805303E023F480531B041B0C03807047D3
:1035D800B1F5006F038803D19BB243F4006303E0A5
:1035E80023F400631B041B0C03807047038819B184
:1035F8009BB243F0200303E023F020031B041B0CC1
:1036080003807047008BC0F307207047838819B187
:103618009BB243F4006303E023F400631B041B0C18
:1036280083807047838819B19BB243F4805303E0C9
:1036380023F480531B041B0C8380704782B0002343
:1036480001930190019BCB180193019B188880B2CC
:1036580002B0704783889BB20AB1194301E023EA9C
:10366800010181807047838A008B9BB243EA004046
:10367800084020F07F40431A584240EB030070474F
:10368800838A008B9BB243EA004020F07F4070475A
:1036980082B00023009301930B0F01900093009BCD
:1036A80021F07F4113B1019B143302E0019B090C07
:1036B80018330193019B1B6819420CBF002001209D
:1036C80002B07047C94389B2818270478388808A73
:1036D80080B208409BB206D001F0E06113EA1141C4
:1036E8000CBF002001207047C94389B2818270470E
:1036F800014B1860704700BF00300040014B586014
:10370800704700BF00300040014B9860704700BF11
:1037180000300040024B4AF6AA221A60704700BFE8
:1037280000300040024B4CF6CC421A60704700BF94
:1037380000300040034BDB6818420CBF002001201A
:10374800704700BF0030004008B501214FF080509D
:1037580000F002FA4FF080500021BDE8084000F068
:10376800FBB9014B1860704720000E42034B1A68E2
:1037780022F0E00202431A60704700BF0070004068
:10378800014B1860704700BF10000E42014B1860D3
:10379800704700BFA0000E42014B1860704700BF81
:1037A800A4000E42044B1A6810B922F4804201E0CA
:1037B80042F480421A60704700700040014B186064
:1037C800704700BF24000E420A4B1A6822F0030219
:1037D80002431A60084B1A69012942F004021A616F
:1037E80001D130BF00E020BF1A6922F004021A613B
:1037F800704700BF0070004000ED00E0074B1A68FA
:1038080042F004021A601A6842F002021A60044B7D
:103818001A6942F004021A6130BF70470070004014
:1038280000ED00E0034B5B6818420CBF002001204C
:10383800704700BF00700040024B1A6842EA8002DD
:103848001A607047007000400A4B1A6842F0010283
:103858001A6000229A60196821F0847121F480317D
:10386800196005495960196821F480211960DA60E6
:10387800704700BF0038024010300024024B00227D
:103888001A701870704700BF02380240034B1A685C
:1038980022F0F80242EAC0021A607047003802407B
:1038A800014B1860704700BF00004742064B0022DA
:1038B80001281A701A7002D0042804D101E0187087
:1038C800704705221A70704770380240014B186023
:1038D800704700BF800E4742014341EA82120099B7
:1038E8005B08013B42EA016141EA0341014B59602F
:1038F800704700BF00380240014B1860704700BF96
:10390800600047428001034B40EA0171C3F884100C
:10391800704700BF00380240014B1860704700BF75
:1039280068004742014B1860704700BF4C0047428F
:10393800034B9A6822F0EC6202430A439A6070478C
:1039480000380240034B9A6822F0784202430A4347
:103958009A60704700380240034B9A6822F00302CD
:1039680002439A60704700BF00380240024B9868D3
:1039780000F00C00704700BF00380240034B9A6803
:1039880022F0F00202439A60704700BF00380240FC
:10399800034B9A6822F4E05202439A60704700BFD2
:1039A80000380240034B9A6822F4604242EAC0029F
:1039B8009A607047003802401E4B9A6802F00C0269
:1039C800042A10B503D0082A03D01B4B18E01B4B60
:1039D80016E059685A6811F4800F596814BF174BDC
:1039E800154B02F03F02B3FBF2F3124A5268C2F3DE
:1039F8000142C1F3881101324B435200B3FBF2F389
:103A08000C4903608B680E4A0468C3F30313D35C44
:103A180034FA03F343608C68C4F38224145D33FAE8
:103A280004F484608968C1F34231525CD340C360B6
:103A380010BD00BF003802400024F40000127A00D4
:103A48002800002000F44073B3F5407F084B08D1EC
:103A5800996820F0704221F4F81122F440720A4368
:103A68009A601A6F000542EA10501867704700BF45
:103A780000380240014B1860704700BF3C0E4742B7
:103A8800014B1860704700BF400E4742014B186059
:103A9800704700BF5C014742044B1A6B09B11043E1
:103AA80001E022EA00001863704700BF00380240B6
:103AB800044B5A6B09B1104301E022EA0000586335
:103AC800704700BF00380240044B9A6B09B110439D
:103AD80001E022EA00009863704700BF0038024006
:103AE800044B1A6C09B1104301E022EA0000186483
:103AF800704700BF00380240044B5A6C09B11043AC
:103B080001E022EA00005864704700BF0038024014
:103B1800044B1A6909B1104301E022EA0000186158
:103B2800704700BF00380240044B5A6909B110437E
:103B380001E022EA00005861704700BF00380240E7
:103B4800044B9A6909B1104301E022EA0000986128
:103B5800704700BF00380240044B1A6A09B110438D
:103B680001E022EA00001862704700BF00380240F6
:103B7800044B5A6A09B1104301E022EA0000586276
:103B8800704700BF00380240044B1A6D09B110435A
:103B980001E022EA00001865704700BF00380240C3
:103BA800044B5A6D09B1104301E022EA0000586540
:103BB800704700BF00380240044B9A6D09B11043AA
:103BC80001E022EA00009865704700BF0038024013
:103BD800044B1A6E09B1104301E022EA000018668E
:103BE800704700BF00380240044B5A6E09B11043B9
:103BF80001E022EA00005866704700BF0038024022
:103C0800044B1A7809B1104301E022EA0000187049
:103C1800704700BF0D3802404309012B074A01D104
:103C2800136803E0022B0CBF136F536F00F01F00E3
:103C380033FA00F000F00100704700BF003802407E
:103C480007B5002301933120FFF7E6FF019B0133FD
:103C58000193019BB3F5A06F01D00028F3D0312068
:103C6800FFF7DAFF003018BF01200EBD024B5A6F74
:103C780042F080725A67704700380240034BDB6895
:103C880018420CBF00200120704700BF00380240D6
:103C9800014B1870704700BF0E38024008B540202D
:103CA8000121FFF741FF40200021BDE80840FFF750
:103CB8003BBF054B1A6810B142F0040201E022F044
:103CC80004021A60704700BF00080650014B98684C
:103CD800704700BF00080650044B1A6810B142F044
:103CE800080201E022F008021A6070470008065036
:103CF800034B5B6818420CBF00200120704700BFCF
:103D080000080650024B6FEA00105860704700BF69
:103D180000080650034B5B6818420CBF00200120C6
:103D2800704700BF00080650C043024BC0B258603D
:103D3800704700BF00080650002303E001330A382B
:103D4800DBB2C0B20928F9D840EA0310C0B2704704
:103D5800020900F00F030A2000FB0230C0B27047CE
:103D680000217F22FF2380E80E007047044B08B132
:103D7800FF2202E0CA225A6253225A62704700BFE9
:103D88000028004082B0002301930C4BDA685206E9
:103D980011D44FF0FF32DA60DA68019901310191EC
:103DA8000199B1F5803F01D05006F5D5034BD8688D
:103DB800C0F3801000E0012002B0704700280040E6
:103DC800024BDA6822F08002DA607047002800406F
:103DD80038B50F4CCA236362532363620546FFF765
:103DE800D1FF88B1A36823F04003A360A2682B68C1
:103DF8001343A360AB68236123696A6843EA0243FB
:103E08002361FFF7DDFF0120014BFF225A6238BD15
:103E18000028004082B0002301930D4BCA225A6249
:103E280053225A62DA6822F0A002DA60D968019A4D
:103E380001320192019AB2F5003F054A01D0890684
:103E4800F4D5D068FF235362C0F3401002B0704726
:103E58000028004037B51E4CCA230025019563622F
:103E680053236362FFF78EFF00282CD042F2011320
:103E780025606360A36803F00703A360E368019A01
:103E880001320192019AB2F5803F01D05807F5D569
:103E98000F4BD86810F0040015D09A684FF6FF71E0
:103EA80000229A6059610B4919619A61DA611A62B4
:103EB800DA62DA635A649A64DA601A64FFF7AAFF6E
:103EC800003018BF0120024BFF225A623EBD00BFDE
:103ED80000280040FF007F0038B50B4CCA236362FE
:103EE800532363620546FFF74DFF50B1A36815B130
:103EF80043F0100301E023F01003A360FFF760FF15
:103F08000120FF23636238BD00280040074BCA2206
:103F18005A6253225A629A6810B142F0200201E0B4
:103F280002F0DF029A60FF225A62704700280040C0
:103F3800F8B5244B0C469B6820B913F0400306D112
:103F4800CB7004E013F0400330D1CB702EE0207822
:103F5800FFF7F2FE07466078FFF7EEFE0646A07808
:103F6800FFF7EAFEE57840EA054545EA074545EAF0
:103F78000625144CCA23636253236362FFF702FFCA
:103F880080B105F07F3525F0FE452560FFF718FF65
:103F9800A3689B0605D4FFF73DFF003018BF01203A
:103FA80000E00120074BFF225A62F8BD65782378AC
:103FB8002D0245EA0345A3781D43E37845EA034506
:103FC800D7E700BF002800400023C3700370437088
:103FD800837070470F4B1B6870B5C3F30542C3F37A
:103FE800062603F07F0503F480031B0C0C460A70B9
:103FF8004E708D70CB7058B91046FFF7A9FE20702F
:104008003046FFF7A5FE60702846FFF7A1FEA070B6
:1040180070BD00BF00280040014B986A5B6870477C
:1040280000280040F8B50C464B7830B9D9062AD597
:1040380023F010030A33637025E0CD788A781B02D9
:1040480043EA05450B78154345EA4335174CCA231F
:10405800636253236362FFF795FE80B125F07F45C5
:1040680025F0C0056560FFF7ABFEA3689A0605D486
:10407800FFF7D0FE003018BF012000E001200B4BF5
:10408800FF225A62F8BDE078FFF756FE07466078CF
:10409800FFF752FE0646A078FFF74EFE257840EA65
:1040A800453545EA074545EA0625CFE7002800409B
:1040B80001230370837043700023C37070470F4B54
:1040C8005B6870B5C3F30742C3F3042603F03F05EA
:1040D800C3F342330C46CA704E708D700B7058B9DA
:1040E8001046FFF735FEE0703046FFF731FE60708E
:1040F8002846FFF72DFEA07070BD00BF00280040C5
:10410800264B2DE9F0419B680C46154620B913F063
:10411800400306D1D37004E013F040032CD1D370D0
:104128002AE02878FFF708FE07466878FFF704FEBC
:104138000646A878FFF700FE8046287BFFF7FCFDBF
:104148006A68AB681343EA7843EA024343EA080320
:1041580043EA074343EA062343EA00630F4ACA21B6
:1041680051625321B4F5807F51620CBFD361136251
:10417800FF235362BDE8F0816A68AB681343AA78ED
:1041880013432A7843EA02436A7843EA0223EA7827
:1041980043EA02432A7B43EA0263DFE70028004040
:1041A80000230122C370037043708370836002731D
:1041B80043607047F8B51446164AB1F5807F0CBFC6
:1041C800D269126A02F48001090CC2F3062702F0D0
:1041D8007F06C2F305650346E170C2F3054002F0AD
:1041E800804102F0803220706770A6702573A1604C
:1041F800626073B9FFF7ACFD20703846FFF7A8FD81
:1042080060703046FFF7A4FDA0702846FFF7A0FDB8
:104218002073F8BD0028004082B000230193114BA1
:10422800CA225A6253225A629A6819B11043986096
:10423800012012E022EA00029A60000ADA68019975
:10424800013101910199B1F5803F01D01042F5D0BB
:10425800044BDB68184018BF0120024BFF225A624A
:1042680002B0704700280040074B10B5CA245C62B2
:104278000A435324B0F5807F5C620CBF5A649A6489
:10428800FF225A6210BD00BF00280040B0F5807FB1
:10429800044B03D1586C4004400C7047986C4004A0
:1042A800400C704700280040074BCA225A6253222C
:1042B8005A629A6822F007029A609A6802439A60E2
:1042C800FF225A62704700BF00280040044BCA22F0
:1042D8005A6253225A62FF2258615A62704700BFDD
:1042E80000280040014B586980B270470028004000
:1042F80082B000230193114BCA225A6253225A6298
:104308009A6820B142F480629A60012010E022F499
:1043180080629A60DA680199013101910199B1F5D9
:10432800803F01D05007F5D5044BD868C0F3800012
:10433800024BFF225A6202B0704700BF00280040BB
:10434800074BCA225A6253225A629A6822F4802280
:104358009A609A6802430A439A60FF225A62704739
:1043680000280040024B986800F48020704700BF86
:1043780000280040074BCA225A6253225A629A68A0
:1043880022F4E0029A609A6802430A439A60FF2284
:104398005A6270470028004070B5094DCA236B6205
:1043A80053236B6204460E46FFF7ECFC20B13443FE
:1043B800AC61FFF705FD0120FF236B6270BD00BFF4
:1043C8000028004038B50B4CCA236362532363624C
:1043D8000546FFF7D7FC50B1A36815B143F0800339
:1043E80001E023F08003A360FFF7EAFC0120FF232C
:1043F800636238BD00280040074BCA225A62532224
:104408005A629A6810B142F4000201E022F40002F4
:104418009A60FF225A62704700280040074BCA2260
:104428005A6253225A629A6822F400229A609A6861
:1044380002439A60FF225A62704700BF002800407A
:104448000E4B30B5CA245C6253245C62DC68E4031A
:1044580006D50B4CDD6815F4803F01D0013CF9D13D
:10446800064BDC6814F4803F04D101431143D9633F
:10447800012000E00020FF225A6230BD00280040E1
:1044880001000200084B9A6822F4006222F0080238
:1044980009B142F400621043CA225A6253225A6296
:1044A800FF2298605A6270470028004038B51546C8
:1044B8001A4A136B526B0C46C3F305412170C3F3C0
:1044C8000621617003F07F0103F480031B0CE37085
:1044D8000023A170EB70C2F304236B7002F03F035A
:1044E800C2F34232AB702A70B8B92078FFF730FCBB
:1044F80020706078FFF72CFC6070A078FFF728FC2C
:10450800A0706878FFF724FC6870A878FFF720FC93
:10451800A8702878FFF71CFC287038BD00280040D8
:10452800014B986B704700BF00280040044B4000C7
:104538001A6C11B922EA000000E0104318647047B1
:1045480000280040044B1A6C09B1104301E022EA2C
:1045580000001864704700BF00280040044B1A6C24
:1045680022F4C0521A641A6C02431A64704700BFDE
:1045780000280040044B1A6C22F4E0621A641A6C9A
:1045880002431A64704700BF00280040044B1A6CAD
:1045980022F4C0421A641A6C02431A64704700BFBE
:1045A80000280040044B1A6C10B142F0800201E070
:1045B80022F080021A64704700280040044B1A6CED
:1045C80010B122F4004201E042F400421A6470473C
:1045D8000028004082B000230193054B0193019B02
:1045E80003EB80030193019B196002B0704700BF81
:1045F8005028004082B000230193054B0193019B92
:1046080003EB80030193019B186802B0704700BF59
:1046180050280040044B1A6C22F480321A641A6C39
:1046280002431A64704700BF00280040044B1A6C0C
:1046380022F400321A641A6C02431A64704700BFED
:1046480000280040044B1A6C22F480221A641A6C69
:1046580002431A64704700BF00280040144BCA2266
:1046680010B55A6253225A62DA68120707D541F226
:104678000102DC6814F0080F01D0013AF9D10C4BA3
:10468800DA6812F008020BD19C6814F0100F09D1F7
:104698000843D862FFF7BEFB003018BF012002E0D4
:1046A800002000E01046024BFF225A6210BD00BFF6
:1046B800002800400E4BCA225A6253225A6220F048
:1046C800040239B199680A439A601A6C00F0040030
:1046D800104308E0996821EA02029A601A6C00F017
:1046E800040022EA00001864014BFF225A62704756
:1046F80000280040044BDA68044B134003420CBF07
:1047080000200120704700BF002800407F3F0100C3
:10471800054BDA6880B240F0800002F0800262EA5D
:104728000002DA60704700BF002800400A4B1A6C8C
:1047380010B59C68D96802F0040202EAD03200EA97
:104748000403134306D08BB213EA10130CBF0020E6
:10475800012010BD184610BD00280040054BDA683E
:10476800C0F30F1040F0800002F0800262EA0002FD
:10477800DA6070470028004008B501214FF4006056
:10478800FFF7F6F94FF400600021BDE80840FFF795
:10479800EFB910B581684468084A2143C468536872
:1047A800214304682143046923F4FD43214323F092
:1047B8007F030B43017D0B43536010BD002C014068
:1047C80000230375036043608360C360036170471F
:1047D800014B1860704700BFA0802542014B18604C
:1047E800704700BF002C0140024B186800F003001E
:1047F800704700BF002C01400268094B10B59A6051
:1048080084684168DA682143C468006922F4FF6259
:10481800214322F0070201430A43DA6010BD00BFBA
:10482800002C01400023036043608360C360036180
:104838007047024B1869C0B2704700BF002C014096
:1048480082B000230193034BC3180193019B18689E
:1048580002B07047142C01400268094B10B55A6227
:1048680042689A62C4688268D96A224304694069C6
:10487800224321F0F70102430A43DA6210BD00BF68
:10488800002C01404FF0FF33036000234360836036
:10489800C360036143617047014B186B704700BFE9
:1048A800002C0140014BD3F880007047002C0140D8
:1048B800014BC3F880007047002C0140014B986CF5
:1048C800704700BF002C0140014B1860704700BFC3
:1048D800A0852542014B1860704700BFA48525427A
:1048E800014B1860704700BFA8852542014B18602E
:1048F800704700BFAC852542014B1860704700BF68
:10490800AC812542014B1860704700BFB081254239
:1049180000F00100024B80F001001860704700BFF2
:10492800B4812542014B1860704700BFB881254209
:10493800014B1860704700BF8C852542044BDA6B29
:1049480009B1104301E022EA0000D863704700BFB4
:10495800002C0140034B5B6B18420CBF0020012068
:10496800704700BF002C0140014B9863704700BF9F
:10497800002C0140034B5B6B18420CBF0020012048
:10498800704700BF002C0140014B9863704700BF7F
:10499800002C014008B5154B98420BD101214FF46A
:1049A8008050FFF7E5F84FF480500021BDE808403B
:1049B800FFF7DEB80E4B984207D14FF48040012133
:1049C800FFF7CAF84FF4804009E00A4B98420BD130
:1049D8004FF400400121FFF7BFF84FF400400021D9
:1049E800BDE80840FFF7B8B808BD00BF0030014077
:1049F80000380040003C00400B88028810B54C8805
:104A080023438C882343CC8823430C8923434C8934
:104A180023438C892343CC8902F441522343134313
:104A28009BB20380838B23F400631B041B0C8383DA
:104A38000B8A038210BD838B23F47B6323F00F035F
:104A48001B041B0C8383022303848B68F0B5858BBE
:104A5800022BADB238D0294A8E889468002E14BF34
:104A680002260126240203D5946824F400049460E5
:104A7800D2F88440D2F884705268DFF884C002F01B
:104A88003F02BCFBF2F2C4F388145443C7F302722A
:104A9800B4FBF2F4CA88B2F5007F4FF00A0201D1E4
:104AA800240A02E07601B4FBF6F46243B2FBF3F3A6
:104AB80005330A229BB2B3FBF2F303F001021202A0
:104AC800C3F34F0392B200E000229C1EA4B2FE2C56
:104AD80028BF0022CC8828BF0223134323439BB25C
:104AE80003840B884A882B4343F4006313438A8862
:104AF80013438A8913439BB28383F0BD0038024075
:104B080000127A000023038043808380C3800381DE
:104B180043818381C38107230382704700230222D4
:104B2800038043808380C3808260838170470388C9
:104B380019B19BB243F0400303E023F040031B0488
:104B48001B0C03807047838B19B19BB243F48063BD
:104B580003E023F480631B041B0C838370470388E2
:104B680023F400631B041B0C038003889BB20B43D4
:104B780003807047B1F5804F038803D19BB243F49B
:104B8800804303E023F480431B041B0C038070471D
:104B98004FF6FF639942038803D09BB243F48073B6
:104BA80003E023F480731B041B0C03807047838885
:104BB80019B19BB243F0040303E023F004031B0480
:104BC8001B0C83807047838819B19BB243F0100394
:104BD80003E023F010031B041B0C83807047838BB6
:104BE80023F47B6323F00F031B041B0C8383022332
:104BF80003840B88828BB3F5007F10B592B205D081
:104C0800002B0CBF4FF48073002301E04FF4807336
:104C18004C8822438C88898942F4006222430A43E3
:104C280092B21343838310BD808980B2704781811B
:104C38007047038819B19BB243F4005303E023F48F
:104C480000531B041B0C0380704703889BB243F47A
:104C5800805303807047012902D0008B80B27047CF
:104C6800808A80B27047008A80B2704783889BB27E
:104C78000AB1194301E023EA01018180704709095B
:104C880001238B409BB21AB1828892B2134303E08E
:104C9800828892B222EA030383807047038919420B
:104CA8000CBF002001207047C94389B201817047B9
:104CB80010B584880089012301F00F0280B213FA2D
:104CC80002F21040A4B205D009098B401C420CBF67
:104CD8000020012010BD01F00F0101238B40DB43B0
:104CE8009BB20381704700BF08B501214FF4804093
:104CF800FEF73EFF4FF480400021BDE80840FEF774
:104D080037BF014B186070470038014001F00302BB
:104D180089080A4B023130B5920053F821500F240C
:104D2800944025EA040443F8214053F8214010FA3E
:104D380002F2144343F8214030BD00BF003801405F
:104D4800014B1860704700BFDC002742014B186018
:104D5800704700BF00042742024B186AC0F30020C6
:104D6800704700BF0038014030B5048C24F00104BE
:104D78002404240C0484058B048CADB2A4B225F061
:104D8800F305154324F00A0445EA031544F0010429
:104D9800ADB20C430583048430BD30B5048C24F0D7
:104DA80010042404240C0484048B058C24F440741B
:104DB800ADB22405240D25F0A00544EA022445F0EF
:104DC800100544EA033445EA0115A4B2ADB20483E0
:104DD800058430BD08B5474B984205D101200146EE
:104DE800FEF7C6FE01203DE0B0F1804F05D101205D
:104DF8000146FEF7B1FE012076E03F4B984205D10F
:104E080002200121FEF7A8FE02206DE03B4B9842EC
:104E180005D104200121FEF79FFE042064E0384BF1
:104E2800984205D108200121FEF796FE08205BE094
:104E3800344B984205D110200121FEF78DFE102039
:104E480052E0314B984205D120200121FEF784FE23
:104E5800202049E02D4B984209D102200121FEF77C
:104E680087FE02200021BDE80840FEF781BE284BDE
:104E7800984207D14FF480300121FEF779FE4FF4B4
:104E88008030EFE7234B984207D14FF400300121DF
:104E9800FEF76EFE4FF40030E4E71F4B984207D14F
:104EA8004FF480200121FEF763FE4FF48020D9E7FC
:104EB8001A4B984205D140200121FEF74DFE4020B3
:104EC80012E0174B984205D180200121FEF744FEDD
:104ED800802009E0134B98420BD14FF480700121D8
:104EE800FEF73AFE4FF480700021BDE80840FEF757
:104EF80033BE08BD00000140000400400008004027
:104F0800000C004000100040001400400004014064
:104F180000400140004401400048014000180040A2
:104F2800001C0040002000401C4A038890429BB2AD
:104F380012D002F5806290420ED0B0F1804F0BD0B3
:104F4800A2F58032904207D002F58062904203D0E9
:104F580002F58062904203D14A8823F0700313431C
:104F68000F4A904208D002F58062904204D023F4A0
:104F780040730A899BB2134303804B68C3620B8852
:104F88000385064B984203D003F58063984201D10C
:104F98008B7A038601238382704700BF000001409B
:104FA800001000404FF0FF3343600023038003816B
:104FB800438083727047018582827047038823F09B
:104FC80070031B041B0C0B4303807047416270473E
:104FD800C1627047406A7047008D80B2704703888D
:104FE80019B19BB243F0020303E023F002031B0450
:104FF8001B0C03807047038819B19BB243F004036C
:1050080003E023F004031B041B0C03807047038890
:1050180019B19BB243F0800303E023F080031B0423
:105028001B0C03807047038823F008031B041B0C28
:10503800038003889BB20B4303807047038823F4E3
:1050480040731B041B0C038003889BB20B43038033
:105058007047038819B19BB243F0010303E023F0C2
:1050680001031B041B0C03807047038C23F001030E
:105078001B041B0C038470B5038C8488028B0D8879
:105088004E8822F073021204120C2A438D8923F0F1
:1050980002031B0435431B0CADB22B430E4DA84233
:1050A800A4B203D005F58065A8420ED1CD894E8AF9
:1050B80023F008032B438D8823F004032B430D8A28
:1050C800354324F44074ADB22C43848002838A684B
:1050D8004263038470BD00BF00000140038C23F0CD
:1050E80010031B041B0C0384038C828830B5048BCB
:1050F8000D8824F4E6442404240C23F0200344EA15
:1051080005241B048D891B0C43EA05134D8843EACB
:105118000513134DA84292B2A4B29BB203D005F571
:105128008065A84215D1CD8923F080039BB243EA5C
:1051380005134FF6BF751D408B8845EA03130D8A8A
:1051480022F4406242EA85024D8A42EA85029BB215
:1051580092B282808A6804838263038430BD00BF70
:1051680000000140038C23F480731B041B0C038490
:10517800038C828830B5848B0D8824F07304240452
:10518800240C23F400731B042C438D891B0C43EA65
:1051980005234D8843EA0523124DA84292B29BB2DB
:1051A80003D005F58065A84215D1CD8923F40063A5
:1051B8009BB243EA05234FF6FF351D408B8845EA2D
:1051C80003230D8A22F4405242EA05124D8A42EA2C
:1051D80005129BB292B282808A688483C263038478
:1051E80030BD00BF00000140038C23F480531B0432
:1051F8001B0C0384038C30B58488828B0D8822F4C1
:10520800E6421204120C23F4005342EA05221B045E
:105218008D891B0C43EA05334D8843EA05330B4D52
:10522800A842A4B292B29BB203D005F58065A84209
:1052380005D10D8A24F4804444EA8514A4B28480FC
:1052480082838A680264038430BD00BF0000014085
:10525800002303804380838083608381C38103822A
:105268004382704730B5058C0124ADB28C4025EAE5
:10527800040400F11803048409B1082907D1490876
:105288004FF68F70CC582040C850C8580AE00439EF
:10529800C1F34E0148F6FF70CC582040C8501202A6
:1052A800C85892B20243CA5030BD41637047816307
:1052B8007047C163704701647047038B23F0700324
:1052C8001B041B0C0B4303837047038B23F4E0433D
:1052D8001B041B0C43EA01239BB203837047838B97
:1052E80023F070031B041B0C0B4383837047838BD1
:1052F80023F4E0431B041B0C43EA01239BB2838382
:105308007047038B23F008031B041B0C0B43038318
:105318007047038B23F400631B041B0C43EA01232F
:105328009BB203837047838B23F008031B041B0C79
:105338000B4383837047838B23F400631B041B0C8C
:1053480043EA01239BB283837047038B23F0040352
:105358001B041B0C0B4303837047038B23F48063EC
:105368001B041B0C43EA01239BB203837047838B06
:1053780023F004031B041B0C0B4383837047838BAC
:1053880023F480631B041B0C43EA01239BB2838331
:105398007047038B23F080031B041B0C0B43038310
:1053A8007047038B09025B0441EA53439BB20383B2
:1053B8007047838B23F080031B041B0C0B438383F0
:1053C8007047838B09025B0441EA53439BB2838392
:1053D8007047038C23F002031B041B0C0B4303844C
:1053E8007047038C23F008031B041B0C0B43038436
:1053F8007047038C23F020031B041B0C43EA0113A2
:105408009BB203847047038C23F080031B041B0C9E
:1054180043EA01139BB203847047038C23F400739F
:105428001B041B0C43EA01239BB203847047038CC3
:1054380023F400631B041B0C43EA01239BB203847F
:105448007047038C23F400531B041B0C43EA0133FD
:105458009BB20384704710B5048C01238B40A4B21F
:1054680024EA03030384038C12FA01F10B439BB271
:10547800038410BD10B5048C04238B40A4B224EA25
:1054880003030384038C12FA01F10B439BB20384D8
:1054980010BD00230122038043808280C3800381E2
:1054A8007047406B7047806B7047C06B7047006CEB
:1054B8007047038B23F00C031B041B0C0383038B23
:1054C8009BB20B4303837047038B23F440631B0495
:1054D8001B0C0383038B9BB243EA01239BB2038318
:1054E8007047F8B50C464988A288B4F800E02389CB
:1054F800054600290CBF02270027012A14BF0126F0
:105508000226BEF1000F10D1FFF72EFC2846E188D5
:10551800FFF7CFFF2846394632462389FFF73DFC7F
:10552800E1882846BDE8F840CEE7FFF736FC284674
:10553800E188FFF7C9FF2846394632462389FFF735
:1055480013FCE1882846BDE8F840B2E7838B23F0D6
:105558000C031B041B0C8383838B9BB20B43838339
:105568007047838B23F440631B041B0C8383838B5A
:105578009BB243EA01239BB283837047F8B50D467B
:105588000B88AA88498804463BB92B89FFF7ECFBAE
:10559800E9882046BDE8F8408BE7042B07D12B8922
:1055A800FFF7FBFBE9882046BDE8F8408CE7082BAD
:1055B800B5F808C0078C1DD127F480773F043F0C4D
:1055C8000784868B038CB6B29BB226F0F30623F4CD
:1055D800206346EA0C1C43EA01211FFA8CFC89B2BD
:1055E8004CEA020241F4807182830184E988BDE8B3
:1055F800F840ABE727F480573F043F0C0784868BBD
:10560800038C26F4407623F4005336055B04360DEC
:105618005B0C46EA022243EA013342EA0C329BB2AF
:10562800E98892B243F4805382830384BDE8F8404A
:1056380097E74A880B8813438A881343CA88134319
:105648000A8913434A8913438A8913439BB2A0F8F2
:10565800443070470023038043808380C3800381E4
:10566800438183817047B0F8443029B16FEA4343DE
:105678006FEA53439BB201E05B045B0CA0F8443033
:105688007047838819B19BB243F0040303E023F009
:1056980004031B041B0C83807047838819B19BB2D9
:1056A80043F0010303E023F001031B041B0C838078
:1056B800704783899BB20AB1194301E023EA0101CB
:1056C8008181704781827047038A19420CBF00208C
:1056D80001207047C94389B201827047038A8289D1
:1056E80011EA030092B203D011420CBF002001203E
:1056F8007047C94389B2018270470A43A0F848201D
:10570800704783899BB20AB1194301E023EA01017A
:1057180081817047838819B19BB243F0080303E085
:1057280023F008031B041B0C83807047038923F0B4
:1057380007031B041B0C03817047038923F07003C4
:105748001B041B0C0B43038103899BB243F0070323
:105758000381704738B50D4611460122602D044675
:1057680002D1FFF71AFB01E0FFF7FEFA238923F0C5
:1057780070031B041B0C1D43258123899BB243F036
:105788000703238138BD038923F070031B041B0C16
:105798000B4303817047838823F070031B041B0CA1
:1057A800838083889BB20B4383807047038923F0EF
:1057B80007031B041B0C038103899BB20B43038162
:1057C8007047038923F080031B041B0C03810389A2
:1057D8009BB20B430381704710B50489E4B20C43B4
:1057E800144344EA0324A4B2048110BD10B504464E
:1057F800FFF7F2FF23899BB243F48043238110BD56
:1058080010B50446FFF7E8FF238923F077031B044C
:105818001B0C43F07703238110BD70B50489068BF8
:10582800058C26F44076ADB226F0030624F0070472
:10583800360425F022052404360C1543240C46F4BE
:10584800807645EA0315214346F00106ADB2018191
:105858000683058470BD838819B19BB243F0800329
:1058680003E023F080031B041B0C83807047A0F81F
:105878005010704708B5234B984205D110200121DC
:10588800FEF776F9102037E01F4B984207D14FF406
:1058980000300121FEF760F94FF4003009E01B4B9E
:1058A80098420BD14FF480200121FEF755F94FF4AF
:1058B80080200021BDE80840FEF74EB9144B9842FD
:1058C80007D14FF400200121FEF746F94FF40020DC
:1058D800EFE7104B984207D14FF480100121FEF7F3
:1058E8003BF94FF48010E4E70B4B984209D1202094
:1058F8000121FEF73DF920200021BDE80840FEF710
:1059080037B908BD0010014000440040004800407D
:10591800004C00400050004000140140038ACA882F
:105928009BB223F4405330B513430D460382838959
:105938000989AA8823F4B0530A43698923F00C0320
:105948001B040A431B0C92B213438381838AAA89DE
:105958009BB223F44073134385B0838204466846A0
:10596800FEF72AF81A4B9C4203D003F580639C4249
:1059780001D1039B00E0029BA28912B2002A4FF0DA
:1059880019012A6801FB03F101DA520000E09200D4
:105998006423B1FBF2F1B1FBF3F21201100903FB2E
:1059A8001011A08900B2002806DAC9003231B1FB13
:1059B800F3F303F0070305E009013231B1FBF3F318
:1059C80003F00F031A4392B2228105B030BD00BF25
:1059D800001001404FF4165303600C22002383800B
:1059E800C38003814281838170470B88028A10B586
:1059F8004C8823438C88C988234392B20B4322F4F2
:105A080070629BB21343038210BD0023038043805E
:105A18008380C3807047838919B19BB243F40053D4
:105A280003E023F400531B041B0C83817047038B92
:105A380003F47F430383038B9BB20B4303837047B9
:105A4800838929B16FEA43436FEA53439BB201E06C
:105A58005B045B0C83817047838A19B19BB243F462
:105A6800006303E023F400631B041B0C838270476C
:105A7800C905C90D818070478088C005C00D704771
:105A8800038A23F00F031B041B0C0382038A9BB2B7
:105A98000B4303827047838919B19BB243F0020319
:105AA80003E023F002031B041B0C838170478389E6
:105AB80023F400631B041B0C838183899BB20B4373
:105AC80083817047038A23F020031B041B0C038285
