:020000040800F2
:10000000A8060020B9030008C1030008C3030008C4
:10001000C5030008C7030008C9030008000000006A
:10002000000000000000000000000000CB030008FA
:10003000CD03000800000000CF0300085D030008A6
:10004000D3030008D3030008D3030008D303000838
:10005000D3030008D3030008D3030008D303000828
:10006000D3030008D3030008D3030008D303000818
:10007000D3030008D3030008D3030008D303000808
:10008000D3030008D3030008D3030008D3030008F8
:10009000D3030008D3030008D3030008D3030008E8
:1000A000D3030008D3030008D3030008D3030008D8
:1000B000D3030008D3030008D3030008D3030008C8
:1000C000D3030008D3030008D3030008D3030008B8
:1000D000D3030008D3030008D3030008D3030008A8
:1000E000D3030008D3030008D3030008D303000898
:1000F000D3030008D3030008D3030008D303000888
:10010000D3030008D3030008D3030008D303000877
:10011000D3030008D3030008D3030008D303000867
:10012000D3030008D3030008D3030008D303000857
:10013000D3030008D3030008D3030008D303000847
:10014000D3030008D3030008D3030008D303000837
:10015000D3030008D3030008D3030008D303000827
:10016000D3030008D3030008D3030008D303000817
:10017000D3030008D3030008D3030008D303000807
:10018000D3030008D303000800F002F800F03CF8A5
:100190000AA090E8000C82448344AAF10107DA45E2
:1001A00001D100F031F8AFF2090EBAE80F0013F0F8
:1001B000010F18BFFB1A43F001031847A80A0000FB
:1001C000C80A0000103A24BF78C878C1FAD852078C
:1001D00024BF30C830C144BF04680C6070470000C1
:1001E0000023002400250026103A28BF78C1FBD840
:1001F000520728BF30C148BF0B6070471FB500F0E1
:100200000AFD1FBD10B510BD00F0CFFC1146FFF771
:10021000F5FF00F0F3F800F0EDFC03B4FFF7F2FF98
:1002200003BC00F0F1FC000010B54A4B002253F86B
:100230002240844203D0521CD2B2072AF7D301EBEA
:100240004210C0B210BD2DE9FC4115000E46074614
:100250004FF0000400D10124FFF7E6FF202819D356
:1002600031463846FFF7E0FF3B49400951F820008E
:10027000012100F0CEFB8DF8045000208DF806001F
:100280008DF8074002208DF8050000966946384633
:1002900000F00EFABDE8FC812DE9FC41044619B1DD
:1002A000022901D0012502E00025022921D00026E3
:1002B000202CEFD328486709012150F8270000F0CF
:1002C000A8FB254904F01F00203131F810000090F0
:1002D0008DF8045000208DF806008DF8076002208C
:1002E0008DF805001B48694650F8270000F0E0F93A
:1002F000D0E70126DCE709B1012200E00022164B1D
:1003000000F01F012033400933F81110114B53F84E
:10031000200000F032BA02B1012200F02EBA0146EC
:1003200042090C4810B550F82200026801F01F0382
:100330000949203131F813104B00DA40D2B2012ABA
:1003400005D000F002FA002800D0012010BD00F016
:1003500006FAF8E700000020200C000813480168A6
:10036000491C0160704711490A680B689B1A834257
:10037000FBD370470E484FF47A710068B0FBF1F080
:10038000B0F1807F0DD220F07F414FF0E020491E78
:100390004161084AF021117000218161072101614A
:1003A0007047FEE701480068704700002000002009
:1003B0002400002023ED00E0094880470948004759
:1003C000FEE7FEE7FEE7FEE7FEE7FEE7FEE7FEE705
:1003D000FEE7FEE704480549054A064B7047000062
:1003E0009504000889010008A8000020A806002044
:1003F000A8020020A8020020FFF7BCBFFFF7BAFF49
:1004000001218C20FFF748FF01218D20FFF744FFD9
:1004100001218E20FFF740FF01218F20FFF73CFFD5
:1004200000256D1C00218C20FFF765FF00218D2029
:10043000FFF761FF00218E20FFF75DFF00218F2075
:10044000FFF759FF680702D0E843400703D10121B5
:100450008C20FFF750FF05F00704012C01D0062C7B
:1004600003D101218D20FFF746FF022C01D0052C7E
:1004700003D101218E20FFF73EFF032C01D0042C75
:1004800003D101218F20FFF736FF7D20FFF76BFF9F
:10049000C7E700004D4810B5016841F00101016057
:1004A0004A4A0021083211600268494B1A40026032
:1004B000031D484A1A60026822F480220260434801
:1004C0000C30016000F03BF843494FF000600860D9
:1004D00010BD70B53D4D08352868404B404910F0BF
:1004E0000C0004D05E10042803D0082803D00B6051
:1004F0001BE00E6019E0354A121D1068C0F38054ED
:10050000106800F03F0014B1B6FBF0F001E0B3FB5F
:10051000F0F013681268C3F388135843C2F3014222
:10052000521C5200B0FBF2F0086028682C4AC0F35D
:100530000310121D105C0A68C2400A6070BD234A95
:100540000020116841F4803111604FF4A0631168FC
:1005500000F1010011F4003F01D19842F7D1106879
:10056000800331D519484030016841F08051016065
:100570001C48016841F4804101601448083001685A
:100580000160016841F400410160016841F4A0513B
:100590000160031F14491960116841F080711160F6
:1005A00011688901FCD5114A40F2056111600168AA
:1005B00021F003010160016841F00201016001685E
:1005C000C1F381010229FAD17047000000380240CE
:1005D000FFFFF6FE1030002408ED00E00024F400D8
:1005E000240000200070004008544007003C0240F6
:1005F0006F4910B5884206D10121084600F03BFA48
:10060000002101204FE06B49884206D101210220E0
:1006100000F031FA0021022045E06749884206D106
:100620000121042000F027FA002104203BE0634967
:10063000884206D10121082000F01DFA002108207F
:1006400031E05F49884206D10121102000F013FA01
:100650000021102027E05B49884206D1012120209B
:1006600000F009FA002120201DE05749884206D1F8
:100670000121402000F0FFF90021402013E0534900
:10068000884206D10121802000F0F5F90021802068
:1006900009E04F4988420AD184150121204600F023
:1006A000EAF900212046BDE8104000F0E4B910BD91
:1006B000F0B5002201274FF0030C0B6807FA02F592
:1006C0002B40AB422CD1066853000CFA03F4A6432E
:1006D00006600E79D0F800E09E4046EA0E060660FD
:1006E0000E79012E01D0022E12D18668A6438660B3
:1006F0004E79D0F808E09E4046EA0E0686604668CD
:10070000AE43466045688E799640B6B23543456043
:10071000C568A543C560CC799C40C3681C43C460D0
:10072000521C102AC9D3F0BD4FF6FF7101600021A1
:10073000017141718171C171704741F48032C261B0
:10074000C161C261C169C069704702460020126977
:100750000A4200D001207047006980B2704702460B
:10076000002052690A4200D001207047406980B2DF
:10077000704701837047418370470AB10183704716
:10078000418370474161704742694A404261704706
:100790004B07DB0E9A40C90810B500EB8100016AD7
:1007A0000F249C40A1430162016A1143016210BD04
:1007B000000002400004024000080240000C024019
:1007C000001002400014024000180240001C0240C9
:1007D00000200240E948016841F001010160E74A58
:1007E0000021083211600268E54B1A400260031DC7
:1007F000E44A1A60026822F480220260DF480C306A
:1008000001607047DD490022891C0A70087070473A
:1008100002460020510901290CD002290CD0D749E9
:100820007431096802F01F02012393400B4200D08B
:1008300001207047D149F4E7D0497031F1E730B574
:1008400000244FF4A0653120FFF7E2FF641CAC42A6
:1008500001D00028F7D03120FFF7DAFF002800D0C0
:10086000012030BDC54A116821F0F80141EAC000FD
:1008700010607047C44908607047C0490022703159
:100880000A700A70012802D0042801D105200870DE
:100890007047BE490860704741EA82115A0810B596
:1008A000BB4B029C03EB02421143014341EA04604B
:1008B000B249091D086010BDB34908667047800140
:1008C00040EA0170AD49843108607047AE498866DE
:1008D0007047AD49C8647047A84B08331A6808438D
:1008E00022F0EC62104318607047A44B08331A687A
:1008F000084322F078421043186070479F4A08323C
:10090000116821F003010143116070479B480830D2
:10091000006800F00C007047984A0832116821F016
:10092000F001014311607047944A0832116821F4C4
:10093000E051014311607047904A0832116821F478
:10094000604141EAC0001060704770B58B4B0833BE
:100950001968904C11F00C0104D06610042903D0E2
:10096000082903D004601BE0066019E0834A121DC9
:100970001168C1F38055116801F03F0115B1B6FB54
:10098000F1F101E0B4FBF1F114681268C4F38814CA
:100990006143C2F30142521C5200B1FBF2F101600B
:1009A00019687D4A01F0F0010909545C0168E140D1
:1009B00041601C6804F4E054A40A145D21FA04F4B4
:1009C00084601B6803F460435B0BD25CD140C16060
:1009D00070BDC0F30121032908D1684B08331968A1
:1009E0006E4A21F4F81102400A431A6063497031DB
:1009F0000A68C0F30B0002430A6070476349443938
:100A00000860704761494039086070476449086070
:100A100070475A4A30320029116801D0014300E082
:100A2000814311607047554A34320029116801D062
:100A3000014300E0814311607047504A3832002979
:100A4000116801D0014300E08143116070474B4AB7
:100A500040320029116801D0014300E08143116058
:100A60007047464A44320029116801D0014300E032
:100A7000814311607047414A10320029116801D04A
:100A8000014300E08143116070473C4A1432002961
:100A9000116801D0014300E0814311607047374A7B
:100AA00018320029116801D0014300E08143116030
:100AB0007047324A20320029116801D0014300E01A
:100AC0008143116070472D4A24320029116801D0FA
:100AD000014300E0814311607047284A50320029E9
:100AE000116801D0014300E0814311607047234A3F
:100AF00054320029116801D0014300E081431160A4
:100B000070471E4A58320029116801D0014300E0A5
:100B1000814311607047194A60320029116801D081
:100B2000014300E0814311607047144A6432002998
:100B3000116801D0014300E08143116070470F4A02
:100B40000D320029117801D0014300E0814311707A
:100B500070470A487430016841F080710160704745
:100B60000146064A00200C3212680A4200D00120D9
:100B7000704702490E31087070470000003802408B
:100B8000FFFFF6FE1030002400004742800E47426F
:100B90000000FFFF0024F40038000020FFFCFF0FDE
:100BA0005C014742704770477047754600F028F86F
:100BB000AE4605006946534620F00700854618B04A
:100BC00020B5FFF707FCBDE820404FF000064FF0CE
:100BD00000074FF000084FF0000B21F00701AC4672
:100BE000ACE8C009ACE8C009ACE8C009ACE8C00991
:100BF0008D4670470446AFF300802046FFF70DFB9B
:100C0000004870474800002001491820ABBEFEE7AD
:100C10002600020070474FF04070E1EE100A704766
:100C200000000000010000000200000004000000BD
:100C3000080000001000000020000000400000003C
:100C400001000200040008001000200040008000A5
:100C50000001000200040008001000200040008095
:100C6000FFFF0000840C0008000000204800000086
:100C7000C4010008CC0C00084800002060060000F9
:100C8000E0010008000000000000024000040240F3
:100C900000080240000C0240001002400014024014
:100CA0000018024000000000007A030A0000000063
:100CB000000000000102030406070809000000000C
:0C0CC000010203040102030406070809F6
:040000050800018965
:00000001FF
