:100000000C9435000C945D000C945D000C945D0024
:100010000C945D000C945D000C945D000C945D00EC
:100020000C945D000C945D000C945D000C945D00DC
:100030000C945D000C945D000C945D000C945D00CC
:100040000C946B110C945D000C94C3010C940A0287
:100050000C945D000C945D000C945D000C945D00AC
:100060000C945D000C945D00650411241FBECFEF5D
:10007000D8E0DEBFCDBF12E0A0E0B1E0EEE2FBE3EE
:1000800002C005900D92A039B107D9F713E0A0E99D
:10009000B2E001C01D92A534B107E1F710E0CAE655
:1000A000D0E004C02297FE010E944F1AC836D10743
:1000B000C9F70E943C010C94951D0C9400002F92EE
:1000C0003F924F925F926F927F928F929F92AF92E8
:1000D000BF92CF92DF92EF92FF920F931F93DF9325
:1000E000CF9300D000D0CDB7DEB71C012A013B0171
:1000F00009831A835901680132C0C6018A0D9B1D0C
:1001000062E070E00E94CD196B837C838B819C81BF
:100110004C01FC01EE0FFF1FEE0FFF1FE20DF31D60
:10012000E080F18002811381C801B701A30192012F
:100130000E94CE158823C9F0C801B701A30192011E
:100140000E94FE15181634F4CB80DC800894C10898
:10015000D10805C0AB80BC800894A11CB11CAC14B4
:10016000BD045CF289819A814C01C4010F900F900B
:100170000F900F90CF91DF911F910F91FF90EF9013
:10018000DF90CF90BF90AF909F908F907F906F90B7
:100190005F904F903F902F9008952F923F924F92F3
:1001A0005F926F927F928F929F92AF92BF92CF9207
:1001B000DF92EF92FF920F931F93DF93CF9300D0C4
:1001C00000D0CDB7DEB789839A833A0108946108DD
:1001D00071081301442455242DC0EB81FC81A080BB
:1001E000B180C280D380E480F58006811781C6018A
:1001F000B501A80197010E945E1687FD0AC0EB8138
:10020000FC81A482B582C682D782E082F182028319
:1002100013830894811C911C8B819C8104969C8380
:100220008B8382149304CCF20894411C511C0894D3
:10023000210831084614570444F489819A819C01AD
:100240003C832B8388249924ECCF0F900F900F9040
:100250000F90CF91DF911F910F91FF90EF90DF9062
:10026000CF90BF90AF909F908F907F906F905F9056
:100270004F903F902F900895EF92FF920F931F930E
:10028000DF93CF93CDB7DEB7A8970FB6F894DEBF54
:100290000FBECDBF0E94171288E193E040E855E2FF
:1002A00060E070E00E94D10288E193E00E941505B1
:1002B00088E193E060E071E00E94AE07DE011196F4
:1002C000EFE2F1E088E201900D928150E1F78E01BA
:1002D0000F5F1F4FC80160E070E04AE050E00E94ED
:1002E000CD0088E193E06CE071E00E94AE0799E2F6
:1002F000E92EF12CEC0EFD1EF80141915191619116
:1003000071918F0188E193E022E030E00E949B0729
:100310000E151F0589F788E193E00E94150588E115
:1003200093E069E171E00E94AE07CE01019643EDD2
:100330005DE462E67EE320E030E009E010E00E9448
:100340005F008C0188E193E066E271E00E94FA06AA
:1003500088E193E0B8014AE050E00E94DB0688E1C2
:1003600093E00E94170480E090E0A8960FB6F894FE
:10037000DEBF0FBECDBFCF91DF911F910F91FF90D8
:10038000EF90089508951F920F920FB60F921124C7
:100390002F933F934F938F939F93EF93FF934091AE
:1003A000C6002091D0023091D1022F5F3F4F2F73B2
:1003B00030708091D2029091D3022817390759F0FA
:1003C000E091D002F091D102E057FD4F408330938D
:1003D000D1022093D002FF91EF919F918F914F9185
:1003E0003F912F910F900FBE0F901F901895E091A5
:1003F0002403F0912503E05CFF4F819191912081CE
:100400003181821B930B8F739070892B11F00E94A6
:10041000C20108951F920F920FB60F9211242F93CD
:100420003F934F935F936F937F938F939F93AF937C
:10043000BF93EF93FF9320911403309115038091A4
:100440001603909117032817390731F48091C100E2
:100450008F7D8093C10016C0E0911603F0911703C1
:10046000EC52FD4F40818091160390911703019645
:1004700060E470E00E94CD199093170380931603F7
:100480004093C600FF91EF91BF91AF919F918F91E3
:100490007F916F915F914F913F912F910F900FBE80
:1004A0000F901F9018958F92AF92BF92CF92DF92CC
:1004B000EF92FF920F931F93DF93CF93CDB7DEB7E9
:1004C000FC011382128288EE93E0A0E0B0E0848306
:1004D0009583A683B7838BE591E0918380837587AD
:1004E000648757874687318B208B138B028BF58A65
:1004F000E48AD78AC68AB18EA08E828E8E85838F3B
:100500008F85848F8889858F8989868FCF91DF91A8
:100510001F910F91FF90EF90DF90CF90BF90AF9021
:100520008F9008958F92AF92BF92CF92DF92EF9209
:10053000FF920F931F93DF93CF93CDB7DEB7FC01EC
:100540001382128288EE93E0A0E0B0E0848395836A
:10055000A683B7838BE591E0918380837587648759
:1005600057874687318B208B138B028BF58AE48A61
:10057000D78AC68AB18EA08E828E8E85838F8F8514
:10058000848F8889858F8989868FCF91DF911F918C
:100590000F91FF90EF90DF90CF90BF90AF908F9032
:1005A0000895AF92BF92DF92EF92FF920F931F9345
:1005B000CF93DF93EC017A018B01DD24403081EE93
:1005C000580780E0680780E0780711F0DD24D394B5
:1005D00091E0A92EB12CEC89FD89DD2069F0C501DF
:1005E0000E8C02C0880F991F0A94E2F7808360E0A6
:1005F00079E08DE390E005C0108260E874E88EE158
:1006000090E0A80197010E94E0192150304040403D
:100610005040569547953795279580E1203038070B
:1006200020F0DD2011F0DD24D6CFE889F989308370
:10063000EA89FB892083EE89FF89408121E030E04F
:10064000C9010A8C02C0880F991F0A94E2F7482B4F
:100650004083EE89FF894081C9010B8C02C0880F5D
:10066000991F0A94E2F7482B4083EE89FF89408165
:10067000C9010C8C02C0880F991F0A94E2F7482B1D
:100680004083EE89FF8980810D8C02C0220F331FC9
:100690000A94E2F7209528232083DF91CF911F91C0
:1006A0000F91FF90EF90DF90BF90AF900895CF93A0
:1006B000DF93DC011E968D919C911F97EC01C05C2D
:1006C000DF4FFC01EE5BFF4F2881398180819181F2
:1006D00028173907C9F75696ED91FC915797408135
:1006E00021E030E0C9015A960C905A9702C0880F59
:1006F000991F0A94E2F78095842380835696ED91A2
:10070000FC9157974081C9015B960C905B9702C0A2
:10071000880F991F0A94E2F7809584238083569668
:10072000ED91FC9157974081C9015C960C905C97C4
:1007300002C0880F991F0A94E2F780958423808372
:100740005696ED91FC91579780815D960C905D9740
:1007500002C0220F331F0A94E2F72095282320833A
:100760001C96ED91FC911D97EE5BFF4F808191816E
:1007700092938293DF91CF910895DC011C96ED91C5
:10078000FC911D97E05CFF4F219131918081918117
:10079000281B390B2F733070C9010895DC011C969A
:1007A000ED91FC911D97E05CFF4F20813181E05479
:1007B000F040DF01AE5BBF4F8D919C9111972817E0
:1007C000390719F42FEF3FEF07C08D919C91E80F87
:1007D000F91F8081282F30E0C9010895DC011C96A3
:1007E000ED91FC911D97E05CFF4F20813181E05439
:1007F000F040DF01AE5BBF4F8D919C9111972817A0
:10080000390719F42FEF3FEF10C08D919C9111978C
:10081000E80FF91F20818D919C91119701968F739C
:10082000907011969C938E9330E0C9010895FC015D
:1008300086859785DC01A05CBF4FFC01EE5BFF4F16
:100840002D913C9111978081918128173907C1F72B
:100850000895CF93DF93EC01462FEE85FF85E05C92
:10086000FF4F80819181E054F040019660E470E098
:100870000E94CD199C01DF01AE5BBF4F8D919C9111
:10088000119728173907D1F3E05CFF4F80819181E0
:10089000E054F040E80FF91F4083EE85FF85E05CEF
:1008A000FF4F31832083EE89FF89208181E090E032
:1008B0000D8C02C0880F991F0A94E2F7282B208321
:1008C00081E090E0DF91CF91089510921B03109288
:1008D0001A0388EE93E0A0E0B0E080931C039093AD
:1008E0001D03A0931E03B0931F038BE591E090932B
:1008F00019038093180380E992E090932503809375
:10090000240384ED92E0909327038093260385ECE3
:1009100090E0909329038093280384EC90E09093D7
:100920002B0380932A0380EC90E090932D03809317
:100930002C0381EC90E090932F0380932E0386ECA0
:1009400090E0909331038093300384E080933203EE
:1009500083E08093330387E08093340385E08093C2
:10096000350381E0809336030895CF92DF92EF92B2
:10097000FF920F931F93CF93DF937C016B018A014A
:10098000C0E0D0E00FC0D6016D916D01D701ED91AF
:10099000FC910190F081E02DC7010995C80FD91F86
:1009A000015010400115110571F7CE01DF91CF9173
:1009B0001F910F91FF90EF90DF90CF900895EF92ED
:1009C000FF920F931F93CF93DF937C018B01C0E0C5
:1009D000D0E0F8010F5F1F4F6491662359F0D701F3
:1009E000ED91FC910190F081E02DC7010995C80FB0
:1009F000D91FEFCFCE01DF91CF911F910F91FF90C3
:100A0000EF900895DC01ED91FC910190F081E02DD3
:100A1000099508959C01DB01ED91FC910190F08115
:100A2000E02DCB01B90109950895EF92FF920F9344
:100A30001F938C01DC01ED91FC910190F081E02D80
:100A40006DE009957C01D801ED91FC910190F08158
:100A5000E02DC8016AE009959C012E0D3F1DC901DA
:100A60001F910F91FF90EF900895EF92FF920F93D7
:100A70001F937C010E94DF048C01C7010E941505B1
:100A80009C01200F311FC9011F910F91FF90EF9022
:100A90000895EF92FF920F931F937C01DC01ED917B
:100AA000FC910190F081E02D09958C01C7010E9415
:100AB0001505080F191FC8011F910F91FF90EF90A6
:100AC0000895EF92FF920F931F937C01DB01ED914C
:100AD000FC910190F081E02DCB01B70109958C01CB
:100AE000C7010E941505080F191FC8011F910F911A
:100AF000FF90EF900895CF93DF93DB010D900020DE
:100B0000E9F71197A61BB70BEC01E881F981028088
:100B1000F381E02DAD010995DF91CF9108954F92BA
:100B20005F927F928F929F92AF92BF92CF92DF920D
:100B3000EF92FF920F931F93DF93CF93CDB7DEB762
:100B4000A1970FB6F894DEBF0FBECDBF2C01742E57
:100B5000CB01223008F42AE019A231E2C32ED12CB5
:100B6000CC0EDD1E822E9924AA24BB24672D752F5E
:100B7000A50194010E94E01979018A01C801B70119
:100B8000A50194010E94AE19472D461B0894C10887
:100B9000D1084A3010F4405D01C0495CF601408341
:100BA000E114F1040105110521F07E2C5F2DC8012F
:100BB000DDCFC201B6010E947B05A1960FB6F89465
:100BC000DEBF0FBECDBFCF91DF911F910F91FF9080
:100BD000EF90DF90CF90BF90AF909F908F907F90DD
:100BE0005F904F900895DC012115310541F4ED919E
:100BF000FC910190F081E02D642F099508950E94E9
:100C00008F050895EF92FF920F931F937C010E942E
:100C1000F3058C01C7010E9415059C01200F311FAF
:100C2000C9011F910F91FF90EF900895EF92FF92ED
:100C30000F931F939A017B0100E010E0B801A70118
:100C40000E94F3051F910F91FF90EF900895CF92AE
:100C5000DF92EF92FF920F931F936C017B019A0139
:100C600000E010E0B801A7010E94F3058C01C60165
:100C70000E941505080F191FC8011F910F91FF90C1
:100C8000EF90DF90CF900895EF92FF920F931F9314
:100C90009A01E62EFF2400E010E0B801A7010E94AF
:100CA000F3051F910F91FF90EF900895CF92DF927F
:100CB000EF92FF920F931F936C01E62E9A01FF248F
:100CC00000E010E0B801A7010E94F3058C01C60105
:100CD0000E941505080F191FC8011F910F91FF9061
:100CE000EF90DF90CF900895CF92DF92EF92FF9236
:100CF0000F931F93CF93DF93EC016A017B012115C2
:100D0000310541F4E881F9810190F081E02D642FF3
:100D100009951FC02A303105D1F477FF17C0E8814B
:100D2000F9810190F081E02D6DE209958C01442755
:100D30005527BA014C195D096E097F09CE012AE0D9
:100D40000E948F059801280F391F04C02AE00E94D5
:100D50008F059C01C901DF91CF911F910F91FF90E9
:100D6000EF90DF90CF900895EF92FF920F931F9333
:100D70007C010E9474068C01C7010E9415059C012C
:100D8000200F311FC9011F910F91FF90EF9008951F
:100D9000EF92FF920F931F937B019A010027F7FCBC
:100DA0000095102FB801A7010E9474061F910F91A2
:100DB000FF90EF900895CF92DF92EF92FF920F9302
:100DC0001F936C017B019A010027F7FC0095102FFF
:100DD000B801A7010E9474068C01C6010E94150586
:100DE000080F191FC8011F910F91FF90EF90DF901E
:100DF000CF9008950E947B0508957F928F929F92D5
:100E0000AF92BF92CF92DF92EF92FF920F931F9318
:100E1000CF93DF934C017A018B01722ECB01BA0183
:100E200020E030E040E050E00E945E1687FD03C005
:100E3000C0E0D0E00EC0D401ED91FC910190F081B2
:100E4000E02DC4016DE20995EC0117FB109517F92F
:100E5000109520E030E040E05FE3AA240BC0CA0117
:100E6000B90120E030E040E251E40E9422159B01EC
:100E7000AC01A394A71498F3C801B7010E94FB1317
:100E80005B016C010E9452127B018C01C401B8010C
:100E9000A7012AE030E00E94F305C80FD91F772090
:100EA00039F0C40167E771E00E947B05C80FD91FC4
:100EB000C801B7010E9440179B01AC01C601B501F2
:100EC0000E94CA1324C020E030E040E251E40E94B6
:100ED00028147B018C010E94EC165B016C01CC2470
:100EE000B7FCC094DC2CC401B601A5012AE030E0B7
:100EF0000E947406C80FD91FC601B5010E948E1644
:100F00009B01AC01C801B7010E94CA137A947720F3
:100F1000D1F6CE01DF91CF911F910F91FF90EF900D
:100F2000DF90CF90BF90AF909F908F907F9008956B
:100F30000E94FD060895EF92FF920F931F937C018C
:100F40000E94FD068C01C7010E941505080F191F9C
:100F5000C8011F910F91FF90EF900895EF92FF92BB
:100F60000F931F937C010E947B058C01C7010E9497
:100F70001505080F191FC8011F910F91FF90EF90E1
:100F80000895AF92BF92CF92DF92EF92FF920F93AC
:100F90001F93CF93DF935C016B01EE24FF24C0E02D
:100FA000D0E010C0D501ED91FC9100811181C60106
:100FB000BE010E943B08682FC501F8010995E80EA3
:100FC000F91E2196F60184819581C817D90750F33F
:100FD000C701DF91CF911F910F91FF90EF90DF90AC
:100FE000CF90BF90AF900895EF92FF920F931F9311
:100FF0007C010E94C1078C01C7010E9415059C015C
:10100000200F311FC9011F910F91FF90EF9008959C
:10101000FC01848195816817790748F40190F0817B
:10102000E02D309721F0E60FF71F8081089580E0D2
:101030000895FC01848195816817790730F4019047
:10104000F081E02DE60FF71F40830895FC019B011E
:10105000848195816817790728F460817181611511
:10106000710529F41092370367E373E002C0620F41
:10107000731FCB010895FC0184819581681779075E
:1010800048F40190F081E02D309721F0E60FF71F32
:101090008081089580E00895FC010190F081E02DA9
:1010A000309729F40895861709F44083319680819A
:1010B0008823C9F70895FC0180819181009729F464
:1010C00020E030E040E050E004C00E94261C9B017C
:1010D000AC01B901CA010895CF92DF92EF92FF925D
:1010E0000F931F93CF93DF936C01DC01ED90FC9085
:1010F0001197E114F104E9F11496CD91DC91159763
:101100002097B9F1870102C00F5F1F4FF80180815E
:1011100090E00E944D1C892BB9F72197CE0DDF1D61
:1011200001C02197888190E00E944D1C892B19F005
:10113000C017D107B0F7FE013196E01BF10BD601C5
:101140001596FC93EE9314972D913C91201731073F
:1011500028F4C901B801AF010E94651CD601ED91C8
:10116000FC91119714968D919C911597E80FF91F9A
:101170001082DF91CF911F910F91FF90EF90DF9040
:10118000CF900895CF93DF93FC01C081D181209748
:1011900029F407C090E00E945D1C89938881882310
:1011A000C9F7DF91CF910895CF93DF93FC01C08100
:1011B000D181209729F407C090E00E94551C8993A3
:1011C00088818823C9F7DF91CF910895EF92FF922C
:1011D0000F931F93CF93DF93FC01DB0186179707D3
:1011E00019F12481358114968D919C9115972817BA
:1011F0003907E1F4232BC1F0E080F180CD91DC913F
:101200000FC090E00E94551C8C01888190E00E94E4
:10121000551C0817190751F40894E11CF11C21967C
:10122000F7018081882369F781E001C080E0DF91C8
:10123000CF911F910F91FF90EF900895AF92BF92C1
:10124000CF92DF92EF92FF920F931F93CF93DF9392
:10125000FC015B017A01DB0114962D913C911597FD
:101260002115310559F184819581009739F1821753
:10127000930720F14817590720F07C010894E108F2
:10128000F10800811181C801CFEFDFEF6801CE0CBA
:10129000DF1C10C0F501608171810E94C31C9C019C
:1012A000009771F0801B910BE816F90608F0EC012D
:1012B000C9010196C816D90668F702C0CFEFDFEF63
:1012C000CE01DF91CF911F910F91FF90EF90DF90B2
:1012D000CF90BF90AF900895FC01DB014481558110
:1012E00014968D919C911597481B590BCF010E9424
:1012F0001E090895CF93DF93FC01DB018481958162
:101300004817590760F4C081D1816D917C91CE015D
:10131000840F951F0E94C31C9C01009719F42FEFA6
:101320003FEF02C02C1B3D0BC901DF91CF91089507
:1013300040E050E00E947A090895DF92EF92FF9218
:101340000F931F93CF93DF93EC018C819D814817FE
:101350005907B8F47A010894E11CF11CE881F9817D
:10136000EE0DFF1DD080108208811981C80170E048
:101370000E94B81C9C010E0D1F1DF801D082009721
:1013800019F4EFEFFFEF05C088819981F901E81B9F
:10139000F90BCF01DF91CF911F910F91FF90EF904B
:1013A000DF900895FC0144815581415050400E94D6
:1013B0009D090895CF93DF93FC018481958148179F
:1013C000590758F4C081D181CE01840F951F70E078
:1013D0000E94801C9C01009719F42FEF3FEF02C080
:1013E0002C1B3D0BC901DF91CF91089540E050E0E7
:1013F0000E94DA0908950F931F93CF93DF93FC01A6
:101400008B0141155105F9F061157105E1F08481F9
:1014100095812817390718F0FB01108214C041503C
:101420005040EC01C21BD30B4C175D0708F4EA01D6
:1014300060817181620F731FC801AE010E94A91CF7
:10144000C00FD11F1882DF91CF911F910F91089586
:10145000FC01DB012481358114964D915C91159737
:1014600024173507A8F080819181009789F06D914C
:101470007C916115710561F0241B350B820F931F60
:101480000E948B1C9C0180E0232B19F481E00895BD
:1014900080E00895DC01FB0114968D919C911597D5
:1014A000892B31F461157105A9F090E0808108C0A5
:1014B0000D90BC91A02D6115710529F490E08C91DF
:1014C000882349F407C0CD010E948B1C9C0190E049
:1014D000232B09F491E0892F0895CF93DF939C018A
:1014E000FB01EC01A881B981109729F0608171811D
:1014F00061157105D1F4C081D181209759F08481A3
:101500009581892B39F0888190E022273327281B89
:10151000390B12C0109771F0F90184819581892BE4
:1015200049F08C91282F30E007C0CD010E948B1C20
:101530009C0102C020E030E0C901DF91CF91089505
:101540000E946D0A892F8095881F8827881F08951B
:101550000E946D0A20E0181619060CF021E0822F77
:1015600008950E946D0A20E0181619060CF421E077
:10157000822F08950E946D0A892F881F8827881F4F
:101580000895FC01DB012481358114968D919C9195
:1015900015972817390711F020E007C0CF010E94E6
:1015A0006D0A20E0892B09F421E0822F0895FC01C7
:1015B000DB0114962D913C91159784819581821BB6
:1015C000930B84179507A0F080819181009781F09B
:1015D0006D917C916115710559F0840F951FA901DA
:1015E0000E949B1C9C0180E0232B19F481E008954C
:1015F00080E00895FC01DB012481358114968D91F2
:101600009C9115972817390710F480E00895CF01B1
:1016100040E050E00E94D70A08950F931F93CF93A4
:10162000DF93EC018B016F5F7F4F888199810E946E
:10163000581B009711F480E005C0998388831B83B1
:101640000A8381E0DF91CF911F910F9108952F922E
:101650003F924F925F926F927F928F929F92AF9242
:10166000BF92CF92DF92EF92FF920F931F93CF938F
:10167000DF935C012B014A01DC0114960D911C9152
:1016800015970115110509F4D4C0FB01C480D5805C
:10169000C114D10409F4CDC0DA0114966D907C9088
:1016A00015976C187D08FC01E080F18061147104CD
:1016B00091F01BC0D4016C9111967C9111971496F6
:1016C0004D915C9115978C2F0E94651CF401E4806C
:1016D000F580EC0EFD1ED2016D917C91C7010E9438
:1016E000C31CEC01009731F7A4C077FE02C067016C
:1016F0002EC0FB0120803180E8013CC08E010E1914
:101700001F09C601B701A8010E94651C0C0D1D1D13
:10171000D4016C9111967C91119714964D915C9126
:101720001597C8010E94651CF401C480D580C00EC5
:10173000D11ED2011496ED90FC901597EC0EFD1E73
:10174000F50184819581860D971D95838483D2014F
:101750006D917C91C7010E94C31CEC01009771F64A
:10176000C601B7010E94941C64C07B01EC0CFD1CF7
:10177000C60DD71DC701B1010E94C31CBC01009753
:10178000A1F7C017D10709F454C0F50182819381F4
:101790008C179D0708F044C0C501BE010E940D0BC7
:1017A0008823F1F546C0C501B201A9010E941E09B6
:1017B000EC0197FD3EC0D5016D917C911197F2012E
:1017C000848195818C0F9D1F680F791F14964D9110
:1017D0005C911597481B590BCB01860D971D0E94F4
:1017E0006E1CD50114968D919C911597860D971DB1
:1017F00015969C938E931497ED91FC911197E80F99
:10180000F91F10822D913C912C0F3D1FF401608136
:10181000718144815581C9010E94651C9E0105C0EA
:10182000D50114962D913C9115972150304037FFEA
:10183000BACFDF91CF911F910F91FF90EF90DF9082
:10184000CF90BF90AF909F908F907F906F905F9060
:101850004F903F902F900895CF93DF93EC018881B4
:101860009981892B29F08A819B818617970760F4DB
:10187000CE010E940D0B882341F08C819D81892B24
:1018800019F4E881F981108281E0DF91CF91089508
:10189000EF92FF920F931F93CF93DF93EC017B01A5
:1018A0006C817D81E114F104C1F04115510599F07D
:1018B0008A01060F171FB8010E942C0C882369F0BB
:1018C000888199812C813D81820F931FB7010E94ED
:1018D000941C1D830C8381E001C080E0DF91CF91D7
:1018E0001F910F91FF90EF900895EF92FF920F9349
:1018F0001F93DF93CF93CDB7DEB72B970FB6F89436
:10190000DEBF0FBECDBF7C01CB01BA018E010F5FE0
:101910001F4FA8012AE030E00E94471DF801019006
:101920000020E9F73197E01BF10BC701B801AF01C7
:101930000E94480C2B960FB6F894DEBF0FBECDBFA9
:10194000CF91DF911F910F91FF90EF900895EF924B
:10195000FF920F931F93DF93CF93CDB7DEB72C97F2
:101960000FB6F894DEBF0FBECDBF7C01CB01BA012C
:101970008E010F5F1F4FA8012AE030E00E94FE1C7D
:10198000F80101900020E9F73197E01BF10BC70146
:10199000B801AF010E94480C2C960FB6F894DEBF38
:1019A0000FBECDBFCF91DF911F910F91FF90EF90B0
:1019B0000895EF92FF920F931F93DF93CF9300D080
:1019C00000D000D0CDB7DEB77C01CB018E010F5F18
:1019D0001F4FB8014AE050E00E946C1DF8010190D1
:1019E0000020E9F73197E01BF10BC701B801AF0107
:1019F0000E94480C26960FB6F894DEBF0FBECDBFEE
:101A0000CF91DF911F910F91FF90EF900895EF928A
:101A1000FF920F931F93DF93CF93CDB7DEB7279736
:101A20000FB6F894DEBF0FBECDBF7C01CB018E0197
:101A30000F5F1F4FB8014AE050E00E94DD1CF80123
:101A400001900020E9F73197E01BF10BC701B801C5
:101A5000AF010E94480C27960FB6F894DEBF0FBE68
:101A6000CDBFCF91DF911F910F91FF90EF9008951F
:101A7000EF92FF920F931F93DF93CF9300D000D08C
:101A8000CDB7DEB77C01862F90E08E010F5F1F4F30
:101A9000B8014AE050E00E94DD1CF80101900020EE
:101AA000E9F73197E01BF10BC701B801AF010E94C4
:101AB000480C0F900F900F900F90CF91DF911F91D6
:101AC0000F91FF90EF900895DF93CF9300D0CDB7A3
:101AD000DEB769831A82BE016F5F7F4F41E050E03D
:101AE0000E94480C0F900F90CF91DF9108956115DF
:101AF000710511F480E00895DB010D900020E9F7F5
:101B00001197A61BB70BAD010E94480C0895FB016D
:101B100060817181448155810E94480C0895CF9362
:101B2000DF93EC0188819981009711F00E94001BDE
:101B3000198218821D821C821B821A82DF91CF912A
:101B400008950F931F93182F092F0E94750C882357
:101B500021F4812F902F0E948F0D812F902F1F91A4
:101B60000F9108950F931F93182F092F0E94A70C10
:101B7000882321F4812F902F0E948F0D812F902F89
:101B80001F910F9108950F931F93182F092F0E94F3
:101B9000D90C882321F4812F902F0E948F0D812F43
:101BA000902F1F910F9108950F931F93182F092FB6
:101BB0000E94070D882321F4812F902F0E948F0D02
:101BC000812F902F1F910F9108950F931F93182F1E
:101BD000092F0E94380D882321F4812F902F0E9415
:101BE0008F0D812F902F1F910F9108950F931F93A9
:101BF000182F092F0E94640D882321F4812F902F24
:101C00000E948F0D812F902F1F910F9108950F9398
:101C10001F93182F092F6115710561F0DB010D90DD
:101C20000020E9F71197A61BB70BAD010E94480CE5
:101C3000882321F4812F902F0E948F0D812F902FC8
:101C40001F910F9108950F931F93182F092FFB01D8
:101C500060817181448155810E94480C882321F460
:101C6000812F902F0E948F0D812F902F1F910F9108
:101C70000895EF92FF920F931F93CF93DF93EC01A0
:101C80007B018A01BA010E942C0C882321F4CE0129
:101C90000E948F0D07C01D830C8388819981B70135
:101CA0000E94941CCE01DF91CF911F910F91FF9064
:101CB000EF900895CF93DF93EC01198218821B8275
:101CC0001A821D821C821E826115710551F0DB0192
:101CD0000D900020E9F71197A61BB70BAD010E94EC
:101CE000390EDF91CF910895CF93DF93EC011982E4
:101CF00018821B821A821D821C821E826115710548
:101D000051F0DB010D900020E9F71197A61BB70BEE
:101D1000AD010E94390EDF91CF9108950F931F936B
:101D2000182F092F6115710559F0DB010D90002066
:101D3000E9F71197A61BB70BAD010E94390E02C03F
:101D40000E948F0D812F902F1F910F910895EF9278
:101D5000FF920F931F93DF93CF93CDB7DEB7A19779
:101D60000FB6F894DEBF0FBECDBF8C01FC0111820F
:101D7000108213821282158214821682CB01BA015C
:101D80007E010894E11CF11CA70130E00E94471D70
:101D9000C801B7010E948E0EA1960FB6F894DEBF5F
:101DA0000FBECDBFCF91DF911F910F91FF90EF90AC
:101DB0000895EF92FF920F931F93DF93CF93CDB7C8
:101DC000DEB7A1970FB6F894DEBF0FBECDBF8C0172
:101DD000FC011182108213821282158214821682F3
:101DE000CB01BA017E010894E11CF11CA70130E08F
:101DF0000E94471DC801B7010E948E0EA1960FB622
:101E0000F894DEBF0FBECDBFCF91DF911F910F9130
:101E1000FF90EF900895EF92FF920F931F93DF933F
:101E2000CF93CDB7DEB7A2970FB6F894DEBF0FBE43
:101E3000CDBF8C01FC0111821082138212821582A7
:101E400014821682CB01BA017E010894E11CF11CB8
:101E5000A70130E00E94FE1CC801B7010E948E0E4F
:101E6000A2960FB6F894DEBF0FBECDBFCF91DF9123
:101E70001F910F91FF90EF900895EF92FF920F93B3
:101E80001F93DF93CF93CDB7DEB7A2970FB6F89429
:101E9000DEBF0FBECDBF8C01FC0111821082138208
:101EA0001282158214821682CB01BA017E01089437
:101EB000E11CF11CA70130E00E94FE1CC801B70123
:101EC0000E948E0EA2960FB6F894DEBF0FBECDBF55
:101ED000CF91DF911F910F91FF90EF900895EF92B6
:101EE000FF920F931F93DF93CF93CDB7DEB7619728
:101EF0000FB6F894DEBF0FBECDBF8C01CB01F80149
:101F000011821082138212821582148216827E013F
:101F10000894E11CF11CB70150E00E946C1DC8013F
:101F2000B7010E948E0E61960FB6F894DEBF0FBE09
:101F3000CDBFCF91DF911F910F91FF90EF9008954A
:101F4000EF92FF920F931F93DF93CF93CDB7DEB73E
:101F500061970FB6F894DEBF0FBECDBF8C01CB01E9
:101F6000F801118210821382128215821482168265
:101F70007E010894E11CF11CB70150E00E946C1D29
:101F8000C801B7010E948E0E61960FB6F894DEBFAD
:101F90000FBECDBFCF91DF911F910F91FF90EF90BA
:101FA0000895EF92FF920F931F93DF93CF93CDB7D6
:101FB000DEB762970FB6F894DEBF0FBECDBF8C01BF
:101FC000CB01F801118210821382128215821482D1
:101FD00016827E010894E11CF11CB70150E00E94BA
:101FE000DD1CC801B7010E948E0E62960FB6F894F0
:101FF000DEBF0FBECDBFCF91DF911F910F91FF903C
:10200000EF900895EF92FF920F931F93DF93CF937A
:10201000CDB7DEB762970FB6F894DEBF0FBECDBF67
:102020008C01CB01F8011182108213821282158279
:10203000148216827E010894E11CF11CB70150E065
:102040000E94DD1CC801B7010E948E0E62960FB679
:10205000F894DEBF0FBECDBFCF91DF911F910F91DE
:10206000FF90EF900895EF92FF920F931F93DF93ED
:10207000CF93CDB7DEB729970FB6F894DEBF0FBE6A
:10208000CDBF8C01862FF80111821082138212823B
:1020900015821482168290E07E010894E11CF11CE6
:1020A000B70150E00E946C1DC801B7010E948E0E5E
:1020B00029960FB6F894DEBF0FBECDBFCF91DF914A
:1020C0001F910F91FF90EF900895EF92FF920F9361
:1020D0001F93DF93CF93CDB7DEB729970FB6F89450
:1020E000DEBF0FBECDBF8C01862FF801118210829A
:1020F0001382128215821482168290E07E01089467
:10210000E11CF11CB70150E00E946C1DC801B70131
:102110000E948E0E29960FB6F894DEBF0FBECDBF7B
:10212000CF91DF911F910F91FF90EF900895DF9372
:10213000CF9300D0CDB7DEB7FC011182108213829D
:10214000128215821482168269831A82BE016F5F21
:102150007F4F0E948E0E0F900F90CF91DF910895C8
:10216000DF93CF9300D0CDB7DEB7FC011182108290
:102170001382128215821482168269831A82BE012A
:102180006F5F7F4F0E948E0E0F900F90CF91DF9167
:102190000895BF92CF92DF92EF92FF920F931F9319
:1021A000CF93DF93082FB92E6B017A01E901241731
:1021B000350710F4EA017901802F9B2D61E871E069
:1021C0000E945A0ED60114968D919C9115978E15EA
:1021D0009F05D0F08C179D0708F4EC01D601ED9116
:1021E000FC911197EC0FFD1F108110826D917C9175
:1021F0006E0D7F1D802F9B2D0E948E0ED601ED91BE
:10220000FC91EC0FFD1F1083802F9B2DDF91CF9150
:102210001F910F91FF90EF90DF90CF90BF900895A6
:102220000F931F938C01FB01248135810E94C910FB
:10223000C8011F910F910895CF93DF93EC01FB012B
:102240008617970761F0608171816115710529F02A
:10225000448155810E94390E02C00E948F0DCE012B
:10226000DF91CF910895FC011182108213821282B6
:102270001582148216820E941C110895FC0111829D
:102280001082138212821582148216820E941C11FF
:102290000895FC01808191810E94001B0895FC013A
:1022A000808191810E94001B0895FC0120E030E0B4
:1022B0008081882311F421E030E0C9010895FC01F8
:1022C00081E080830895089508950E94001B089579
:1022D0000E94531A08951F920F920FB60F92112465
:1022E0002F933F938F939F93AF93BF9380913C0322
:1022F00090913D03A0913E03B0913F033091400384
:102300000196A11DB11D232F2D5F2D3720F02D57D4
:102310000196A11DB11D2093400380933C0390932F
:102320003D03A0933E03B0933F0380913803909107
:102330003903A0913A03B0913B030196A11DB11D51
:102340008093380390933903A0933A03B0933B03EF
:10235000BF91AF919F918F913F912F910F900FBEA1
:102360000F901F9018958FB7F89420913C033091EF
:102370003D0340913E0350913F038FBFB901CA0115
:1023800008959FB7F8942091380330913903409114
:102390003A0350913B0386B5A89B06C08F3F21F0BE
:1023A0002F5F3F4F4F4F5F4F9FBF542F432F322F11
:1023B0002227280F311D411D511D82E0220F331F9E
:1023C000441F551F8A95D1F7B901CA010895EF92AC
:1023D000FF920F931F93CF93DF937B018C010E9499
:1023E000C111EB010EC00E94C1116C1B7D0B685E18
:1023F0007340C8F30894E108F10801091109C851B4
:10240000DC4FE114F1040105110569F7DF91CF916B
:102410001F910F91FF90EF900895019739F0880F69
:10242000991F880F991F02970197F1F708957894E3
:1024300084B5826084BD84B5816084BD85B58260C9
:1024400085BD85B5816085BDEEE6F0E08081816067
:102450008083E1E8F0E01082808182608083808167
:1024600081608083E0E8F0E0808181608083E1EB3F
:10247000F0E0808184608083E0EBF0E08081816027
:102480008083EAE7F0E080818460808380818260DD
:1024900080838081816080838081806880831092C6
:1024A000C1000895EF92FF920F931F937B018C015F
:1024B00020E030E040E05FE40E942E1688238CF09C
:1024C000C801B70120E030E040E05FE40E94CA1399
:1024D0000E94EC169B01AC01205030404040504817
:1024E00006C0C801B7010E94EC169B01AC01B901FE
:1024F000CA011F910F91FF90EF900895A0E0B0E006
:10250000E4E8F2E10C94161ADC012B01FA019C912B
:10251000923008F439C1EB018881823008F433C16C
:10252000943069F4843009F02FC111969C91119771
:102530008981981709F428C1A2E8B1E025C1843047
:1025400009F421C18230A9F4923009F01DC19A0129
:10255000AD0188E0EA010990AE01E90109929E010E
:102560008150C1F7E201898111969C918923818371
:1025700008C1923009F407C112962D903C90139730
:10258000EB018A819B811496AD90BD90CD90DC903B
:102590001797EC80FD800E811F819101281B390B5C
:1025A000B90137FF04C066277727621B730B6032BF
:1025B00071050CF061C0121613066CF53701480165
:1025C000062E04C096948794779467940A94D2F761
:1025D00021E030E040E050E004C0220F331F441FF0
:1025E000551F6A95D2F721503040404050402E216F
:1025F0003F2140235123211531054105510521F08B
:1026000021E030E040E050E079018A01E628F72837
:10261000082919293CC0232BD1F1260E371E35017C
:102620004601062E04C096948794779467940A9482
:10263000D2F721E030E040E050E004C0220F331F29
:10264000441F551F6A95D2F72150304040405040FA
:102650002A213B214C215D212115310541055105E0
:1026600021F021E030E040E050E059016A01A62865
:10267000B728C828D9280BC0821593052CF01C0157
:10268000AA24BB24650103C0EE24FF248701119610
:102690009C91D20111968C91981709F445C0992309
:1026A00039F0A80197012A193B094C095D0906C0B8
:1026B000A60195012E193F09400B510B57FD08C08B
:1026C00011823382228224833583468357831DC03F
:1026D00081E081833382228288279927DC01821B53
:1026E000930BA40BB50B84839583A683B7830DC08E
:1026F000220F331F441F551F24833583468357837E
:1027000082819381019793838283248135814681DD
:102710005781DA01C9010197A109B1098F5F9F4F64
:10272000AF4FBF4328F30BC0918333822282EA0C60
:10273000FB1C0C1D1D1DE482F5820683178383E0BC
:102740008083248135814681578157FF1AC0C90192
:10275000AA2797FDA095BA2F81709070A070B070D5
:102760005695479537952795822B932BA42BB52B00
:1027700084839583A683B783828193810196938313
:102780008283DF0101C0D201CD01CDB7DEB7E2E126
:102790000C94321AA0E2B0E0E0EDF3E10C94221ABE
:1027A00069837A838B839C832D833E834F835887F1
:1027B000E9E0EE2EF12CEC0EFD1ECE010196B701E4
:1027C0000E94DD188E010F5E1F4FCE010596B801E5
:1027D0000E94DD188A8991E089278A8BC701B80198
:1027E000AE01475E5F4F0E947E120E940818A096BD
:1027F000E6E00C943E1AA0E2B0E0E1E0F4E10C94D3
:10280000221A69837A838B839C832D833E834F8333
:102810005887F9E0EF2EF12CEC0EFD1ECE0101964B
:10282000B7010E94DD188E010F5E1F4FCE01059685
:10283000B8010E94DD18C701B801AE01475E5F4FC5
:102840000E947E120E940818A096E6E00C943E1AA0
:10285000A0E2B0E0EEE2F4E10C94161A69837A8308
:102860008B839C832D833E834F835887CE010196B3
:10287000BE01675F7F4F0E94DD18CE010596BE0145
:102880006F5E7F4F0E94DD189985923088F08989AC
:102890008230C8F0943019F4823051F404C084308E
:1028A00029F4923081F482E891E0C6C0923049F474
:1028B00020E09A858A89981321E02A87CE0109961B
:1028C000BBC0823049F420E09A858A89981321E0C0
:1028D0002A8BCE014196B0C02D843E844F84588807
:1028E0006D887E888F88988CEE24FF248701AA2427
:1028F000BB24650140E050E060E070E0E0E0F0E023
:10290000C10181709070892BE9F0E60CF71C081D5D
:10291000191D9A01AB012A0D3B1D4C1D5D1D80E068
:1029200090E0A0E0B0E0E614F7040805190520F4F3
:1029300081E090E0A0E0B0E0BA01A901480F591F82
:102940006A1F7B1FAA0CBB1CCC1CDD1C97FE08C099
:1029500081E090E0A0E0B0E0A82AB92ACA2ADB2AE8
:102960003196E032F10549F0660C771C881C991C01
:102970005694479437942794C3CFFA85EA892B89D4
:102980003C898B859C85280F391F2E5F3F4F17C0D0
:10299000CA0181709070892B61F016950795F794A4
:1029A000E79480E090E0A0E0B0E8E82AF92A0A2B5A
:1029B0001B2B76956795579547952F5F3F4F77FD72
:1029C000E7CF0CC0440F551F661F771F17FD4160EE
:1029D000EE0CFF1C001F111F21503040403090E0D2
:1029E000590790E0690790E4790760F32B8F3C8FDB
:1029F000DB01CA018F779070A070B07080349105B0
:102A0000A105B10561F447FD0AC0E114F104010517
:102A1000110529F0405C5F4F6F4F7F4F40781A8E51
:102A2000FE1711F081E08A8F4D8F5E8F6F8F78A334
:102A300083E0898FCE0149960E940818A096E2E1B2
:102A40000C94321AA8E1B0E0E8E2F5E10C941E1A09
:102A500069837A838B839C832D833E834F8358873E
:102A6000B9E0EB2EF12CEC0EFD1ECE010196B70164
:102A70000E94DD188E010F5E1F4FCE010596B80132
:102A80000E94DD182985223008F47EC03989323051
:102A900010F4B8017CC08A859A8989278A872430F6
:102AA00011F0223031F4231709F06EC062E871E0B2
:102AB0006EC0343039F41D861E861F86188A1C8627
:102AC0001B8604C0323021F484E08987B7015FC0DF
:102AD0002B853C858B899C89281B390B3C872B8750
:102AE000ED84FE840F851889AD88BE88CF88D88C88
:102AF000EA14FB040C051D0540F4EE0CFF1C001F3E
:102B0000111F215030403C872B8720E030E040E00F
:102B100050E080E090E0A0E0B0E460E070E0EA1413
:102B2000FB040C051D0540F0282B392B4A2B5B2B91
:102B3000EA18FB080C091D09B695A7959795879586
:102B4000EE0CFF1C001F111F6F5F7F4F6F3171056F
:102B500031F7DA01C9018F779070A070B0708034BE
:102B60009105A105B10561F427FD0AC0E114F10446
:102B70000105110529F0205C3F4F4F4F5F4F207832
:102B80002D873E874F87588BBE01675F7F4FCB01F4
:102B90000E9408186896EAE00C943A1AA8E1B0E09E
:102BA000E4EDF5E10C94221A69837A838B839C838C
:102BB0002D833E834F83588789E0E82EF12CEC0E5D
:102BC000FD1ECE010196B7010E94DD188E010F5E39
:102BD0001F4FCE010596B8010E94DD18898582300D
:102BE00040F08989823028F0C701B8010E94551948
:102BF00001C081E06896E6E00C943E1AA8E1B0E0DE
:102C0000E4E0F6E10C94221A69837A838B839C8337
:102C10002D833E834F83588789E0E82EF12CEC0EFC
:102C2000FD1ECE010196B7010E94DD188E010F5ED8
:102C30001F4FCE010596B8010E94DD1889858230AC
:102C400040F08989823028F0C701B8010E945519E7
:102C500001C08FEF6896E6E00C943E1AA8E1B0E060
:102C6000E4E3F6E10C94221A69837A838B839C83D4
:102C70002D833E834F83588789E0E82EF12CEC0E9C
:102C8000FD1ECE010196B7010E94DD188E010F5E78
:102C90001F4FCE010596B8010E94DD18898582304C
:102CA00040F08989823028F0C701B8010E94551987
:102CB00001C08FEF6896E6E00C943E1AA8E1B0E000
:102CC000E4E6F6E10C94221A69837A838B839C8371
:102CD0002D833E834F83588789E0E82EF12CEC0E3C
:102CE000FD1ECE010196B7010E94DD188E010F5E18
:102CF0001F4FCE010596B8010E94DD1889858230EC
:102D000040F08989823028F0C701B8010E94551926
:102D100001C081E06896E6E00C943E1AA8E0B0E0BD
:102D2000E4E9F6E10C941F1A9B01AC0183E089836E
:102D3000DA01C9018827B7FD83959927AA27BB2700
:102D4000B82E211531054105510519F482E089831A
:102D50003AC08823A9F0203080E0380780E0480797
:102D600080E8580729F460E070E080E09FEC30C014
:102D7000EE24FF248701E21AF30A040B150B02C0AC
:102D800079018A018EE1C82ED12CDC82CB82ED82C2
:102D9000FE820F831887C801B7010E94B9170197F7
:102DA0001816190684F4082E04C0EE0CFF1C001F30
:102DB000111F0A94D2F7ED82FE820F831887C81A7A
:102DC000D90ADC82CB82BA82CE0101960E94081811
:102DD0002896E9E00C943B1AACE0B0E0E2EFF6E1B3
:102DE0000C94261A69837A838B839C83CE01019687
:102DF000BE016B5F7F4F0E94DD188D81823061F1D3
:102E0000823050F1843021F48E81882351F12EC01C
:102E10002F81388537FD20C06E812F3131051CF0A0
:102E20006623F9F023C08EE190E0821B930B298585
:102E30003A854B855C8504C056954795379527950F
:102E40008A95D2F76623B1F050954095309521953B
:102E50003F4F4F4F5F4F0EC020E030E040E050E06A
:102E600009C02FEF3FEF4FEF5FE704C020E030E0F5
:102E700040E050E8B901CA012C96E2E00C94421AF5
:102E8000A8E0B0E0E6E4F7E10C941E1A7B018C01A7
:102E9000611571058105910519F482E0898360C08F
:102EA00083E089838EE1C82ED12CDC82CB82ED8237
:102EB000FE820F831887C801B7010E94B917FC0171
:102EC0003197F7FF3BC0222733272E1B3F0B5701BB
:102ED0006801022E04C0D694C794B794A7940A94AC
:102EE000D2F740E050E060E070E081E090E0A0E0E8
:102EF000B0E004C0880F991FAA1FBB1F2A95D2F704
:102F00000197A109B1098E219F21A023B123009728
:102F1000A105B10521F041E050E060E070E04A29F0
:102F20005B296C297D294D835E836F8378878EE1D1
:102F300090E08E1B9F0B9C838B8312C0309781F097
:102F40000E2E04C0EE0CFF1C001F111F0A94D2F7B6
:102F5000ED82FE820F831887CE1ADF0ADC82CB82D5
:102F60001A82CE0101960E9408182896EAE00C9475
:102F70003A1AEF92FF920F931F937B018C0180E02E
:102F8000E81680E0F80681E0080780E0180788F47A
:102F90008FEFE816F1040105110531F028F088E003
:102FA00090E0A0E0B0E017C080E090E0A0E0B0E0EA
:102FB00012C080E0E81680E0F80680E0080781E0B3
:102FC000180728F088E190E0A0E0B0E004C080E1BC
:102FD00090E0A0E0B0E020E230E040E050E0281BCC
:102FE000390B4A0B5B0B04C016950795F794E794D1
:102FF0008A95D2F7F701E657FE4F8081281B3109E9
:1030000041095109C9011F910F91FF90EF90089557
:10301000DF92EF92FF920F931F93FC01E480F58003
:1030200006811781D1808081823048F480E090E071
:10303000A0E1B0E0E82AF92A0A2B1B2BA5C08430B6
:1030400009F49FC0823021F4EE24FF24870105C0DB
:10305000E114F1040105110519F4E0E0F0E096C077
:10306000628173819FEF623879070CF05BC022E8C0
:103070003FEF261B370B2A3131052CF020E030E0E2
:1030800040E050E02AC0B801A701022E04C07695A6
:103090006795579547950A94D2F781E090E0A0E0B4
:1030A000B0E004C0880F991FAA1FBB1F2A95D2F752
:1030B0000197A109B1098E219F21A023B123009777
:1030C000A105B10521F081E090E0A0E0B0E09A0117
:1030D000AB01282B392B4A2B5B2BDA01C9018F77E7
:1030E0009070A070B07080349105A105B10539F4DD
:1030F00027FF09C0205C3F4F4F4F5F4F04C0215C4A
:103100003F4F4F4F5F4FE0E0F0E02030A0E03A0744
:10311000A0E04A07A0E45A0710F0E1E0F0E07901EE
:103120008A0127C06038710564F5FB01E158FF4F43
:10313000D801C7018F779070A070B070803491056E
:10314000A105B10539F4E7FE0DC080E490E0A0E0F0
:10315000B0E004C08FE390E0A0E0B0E0E80EF91E1C
:103160000A1F1B1F17FF05C016950795F794E794D4
:10317000319687E016950795F794E7948A95D1F7ED
:1031800005C0EE24FF248701EFEFF0E06E2F679576
:1031900066276795902F9F77D794DD24D7948E2F3D
:1031A0008695492F462B582F5D29B701CA011F91DB
:1031B0000F91FF90EF90DF900895FC01DB014081BB
:1031C00051812281622F6F7770E0221F2227221FF8
:1031D0009381892F880F822B282F30E0991F992700
:1031E000991F11969C93119721153105A9F5411549
:1031F00051056105710511F482E037C082E89FEF47
:1032000013969C938E9312979A01AB0167E0220F5D
:10321000331F441F551F6A95D1F783E08C930DC06F
:10322000220F331F441F551F12968D919C911397A7
:10323000019713969C938E931297203080E0380765
:1032400080E0480780E4580758F314962D933D9387
:103250004D935C93179708952F3F310579F44115ED
:1032600051056105710519F484E08C93089564FF9C
:1032700003C081E08C9312C01C9210C02F573040C5
:1032800013963C932E93129783E08C9387E0440F20
:10329000551F661F771F8A95D1F7706414964D935A
:1032A0005D936D937C93179708951F93DC01FB0149
:1032B0009C91923008F447C08081823008F443C06A
:1032C000943051F411961C91843099F58181682FC6
:1032D00070E0611B71093FC0843021F0923031F4FD
:1032E0008230B9F18181882389F12DC011961C911A
:1032F00011978230F1F081811817D9F412962D912F
:103300003C911397828193818217930794F0281739
:103310003907BCF014968D919D910D90BC91A02D14
:103320002481358146815781281739074A075B0771
:1033300018F4112341F00AC082179307A407B507B8
:1033400040F4112319F061E070E005C06FEF7FEFEA
:1033500002C060E070E0CB011F910895629FD00130
:10336000739FF001829FE00DF11D649FE00DF11D40
:10337000929FF00D839FF00D749FF00D659FF00DEF
:103380009927729FB00DE11DF91F639FB00DE11DDC
:10339000F91FBD01CF011124089597FB092E0726BF
:1033A0000AD077FD04D02ED006D000201AF47095F4
:1033B00061957F4F0895F6F7909581959F4F0895F9
:1033C000A1E21A2EAA1BBB1BFD010DC0AA1FBB1F29
:1033D000EE1FFF1FA217B307E407F50720F0A21B9B
:1033E000B30BE40BF50B661F771F881F991F1A9408
:1033F00069F760957095809590959B01AC01BD0132
:10340000CF010895AA1BBB1B51E107C0AA1FBB1F18
:10341000A617B70710F0A61BB70B881F991F5A9560
:10342000A9F780959095BC01CD0108952F923F9208
:103430004F925F926F927F928F929F92AF92BF92C4
:10344000CF92DF92EF92FF920F931F93CF93DF9370
:10345000CDB7DEB7CA1BDB0B0FB6F894DEBF0FBECD
:10346000CDBF09942A88398848885F846E847D841A
:103470008C849B84AA84B984C884DF80EE80FD801C
:103480000C811B81AA81B981CE0FD11D0FB6F89492
:10349000DEBF0FBECDBFED010895EE0FFF1F0590FB
:1034A000F491E02D0994CF93DF93BC018230910514
:1034B00010F462E070E0A0914303B0914403ED0189
:1034C000E0E0F0E040E050E021C08881998186177B
:1034D000970769F48A819B81309719F093838283DF
:1034E00004C09093440380934303FE0134C06817E3
:1034F000790738F44115510519F08417950708F438
:10350000AC01FE018A819B819C01E9012097E9F6CB
:1035100041155105A9F1CA01861B970B049708F4C0
:10352000BA01E0E0F0E02AC08D919C9111978417D8
:103530009507F9F46417750781F412968D919C91A3
:103540001397309719F09383828304C090934403B8
:1035500080934303FD0132964FC0CA01861B970B2F
:10356000FD01E80FF91F6193719302978D939C936E
:1035700043C0FD01828193819C01D9011097A1F67E
:103580008091410390914203892B41F480918C02F8
:1035900090918D02909342038093410340918E025B
:1035A00050918F024115510541F44DB75EB780919E
:1035B0008A0290918B02481B590B20914103309154
:1035C000420324173507B0F4CA01821B930B8617F8
:1035D000970780F0AB014E5F5F4F8417950750F05F
:1035E000420F531F5093420340934103F9016193EB
:1035F000719302C0E0E0F0E0CF01DF91CF91089538
:10360000CF93DF93009709F450C0EC0122971B82FF
:103610001A82A0914303B0914403109709F140E04E
:1036200050E0AC17BD0708F1BB83AA83FE012191CE
:103630003191E20FF31FAE17BF0779F48D919C9182
:103640001197280F391F2E5F3F4F39832883129619
:103650008D919C9113979B838A834115510571F439
:10366000D0934403C093430320C012968D919C9144
:103670001397AD01009711F0DC01D3CFFA01D3838A
:10368000C28321913191E20FF31FCE17DF0769F456
:1036900088819981280F391F2E5F3F4FFA013183AE
:1036A00020838A819B8193838283DF91CF910895C8
:1036B000A0E0B0E0EEE5FBE10C941C1A8C01009751
:1036C00029F4CB010E94531A8C01BAC09EEFE92E57
:1036D0009FEFF92EE00EF11E5801A60EB71EAE1494
:1036E000BF0408F4ABC08EEF882E8FEF982E8A0CA3
:1036F0009B1CE7014881598146175707B8F04530B0
:10370000510508F49DC0CA0104978617970708F46D
:1037100097C042505040461B570BF40151834083E1
:1037200079836883C5010E94001B8AC06B01C41A9B
:10373000D50AE0914303F0914403A0E0B0E0C0E07B
:10374000D0E042C0E815F905A1F5208131812C15A2
:103750003D0578F1C90102968C159D05A8F04E5FD4
:103760005F4F420F531FE701598348832281338102
:10377000109729F013963C932E93129761C03093C3
:103780004403209343035CC0225030402C193D0970
:1037900031832083109729F01396FC93EE931297B0
:1037A00004C0F0934403E0934303F7017183608303
:1037B00047C080819181C817D90708F4EC01DF0167
:1037C000828193819C01F901309709F0BBCF400FB2
:1037D000511F809141039091420384179507E9F4AA
:1037E000C617D707D0F420918E0230918F02211591
:1037F000310541F42DB73EB780918A0290918B023A
:10380000281B390BA216B306C8F4B0924203A0924B
:103810004103E7017983688313C0CB010E94531AE7
:10382000EC01009759F0F70140815181B8010E94E5
:10383000651CC8010E94001B8E0102C000E010E060
:10384000C801CDB7DEB7ECE00C94381A1F93FC0129
:1038500099278827BC01E89411911032E9F31930B7
:1038600010F01E30C8F31B3251F01D3249F4689439
:1038700006C00E94321D610F711D811D911D1191A5
:1038800010531A30B0F33EF4909580957095619581
:103890007F4F8F4F9F4F1F910895911133C18032F9
:1038A00019F089508550D0F70895911108958154E9
:1038B0008A5108F4805E855A0895911108958156C1
:1038C0008A5108F4805285580895FB01DC0102C03A
:1038D00001900D9241505040D8F70895681779072C
:1038E00068F4FB01DC01E40FF51FA40FB51F02C053
:1038F00002900E9241505040D8F708950C94651CE8
:10390000FC018191861721F08823D9F79927089522
:103910003197CF010895FB01DC018D910190801951
:103920000110D9F3990B0895FB01DC0101900D9270
:103930000020E1F70895FB01DC014150504030F0D8
:103940008D910190801919F40020B9F7881B990B0B
:103950000895FB01DC014150504048F001900D9268
:103960000020C9F701C01D9241505040E0F7089572
:10397000FC0181E090E00190061609F4CF010020DF
:10398000D1F701970895FB0151915523A9F0BF018B
:10399000DC014D9145174111E1F759F4CD0101903A
:1039A000002049F04D9140154111C9F3FB0141112F
:1039B000EFCF81E090E001970895FB019F01E8942B
:1039C0004230C4F04532B4F44A3029F497FB1EF477
:1039D000909581959F4F642F77270E94021A805DF2
:1039E0008A330CF0895D8193CB010097A1F716F41F
:1039F0005DE251931082C9010C94851DFA01CF93A9
:103A0000FF93EF93223044F1253234F5C22FE8942E
:103A1000CA3049F497FB3EF4909580957095619576
:103A20007F4F8F4F9F4F2C2F332744275527FF93CE
:103A3000EF930E94E019EF91FF91605D6A330CF003
:103A4000695D6193B901CA01605070408040904047
:103A500051F716F4CDE2C19310828F919F91CF91CF
:103A60000C94851D592F482F372F262F660F771F4F
:103A7000881F991F660F771F881F991F620F731F7A
:103A8000841F951F660F771F881F991F0895FA01DD
:103A9000CF93FF93EF932230CCF02532BCF4C22FAA
:103AA0002C2F332744275527FF93EF930E94E019CB
:103AB000EF91FF91605D6A330CF0695D6193B9012C
:103AC000CA01605070408040904051F710828F9141
:103AD0009F91CF910C94851DFB019F01423074F0A2
:103AE000453264F4642F77270E94021A805D8A337E
:103AF0000CF0895D8193CB010097A1F71082C90179
:103B00000C94851D992788270895DC01FC01672FF7
:103B100071917723E1F7329704C07C916D937083A4
:0E3B20006291AE17BF07C8F30895F894FFCF67
:103B2E00486920667269656E64732100427562622F
:103B3E006C6520736F72743A0073656172636869A5
:103B4E006E672E2E2E00526573756C743A2000CD62
:103B5E00CCCC3EC3F5A83EDD240E40D80F494054D0
:103B6E00F82D40D7A3C0406502B53FCDCCCC3D2D3E
:103B7E00B27D3FBE9FAA3F000000002904B504BDE0
:103B8E0003EE03CE031704000000006411B50464B5
:103B9E00116411641164112E00000000006411B54F
:103BAE0004000000000000000000000102020303F8
:103BBE0003030404040404040404050505050505B3
:103BCE000505050505050505050506060606060691
:103BDE000606060606060606060606060606060677
:103BEE000606060606060606060607070707070761
:103BFE000707070707070707070707070707070747
:103C0E000707070707070707070707070707070736
:103C1E000707070707070707070707070707070726
:103C2E000707070707070707070708080808080810
:103C3E0008080808080808080808080808080808F6
:103C4E0008080808080808080808080808080808E6
:103C5E0008080808080808080808080808080808D6
:103C6E0008080808080808080808080808080808C6
:103C7E0008080808080808080808080808080808B6
:103C8E0008080808080808080808080808080808A6
:103C9E000808080808080808080808080808080896
:103CAE00080808080808080808082000450300004E
:00000001FF
