S30C0000007C0C8426020C83B67A
S308000000857EC1C271
S3250000C0007EC0498D0327FC39B6A00085012706B6A001847F394F398D243402810D270BB725
S3250000C020A0010C799679917825100F798D0F860DB7A0018D08860AB7A0013502393402B69F
S3250000C040A000850227F935023910CE01EE966E8155260A9E6FA684811226026E848E0218C0
S3250000C0606F83300126FA8E02176F809F19A60243A702A10226063001630120F19F719F274A
S3250000C0809F233089FF389F211F148EC0D1CE0076C612BDC1B1CE00A7C604BDC1B1863997C7
S3250000C0A0F0BDC4BE8E00B59F8DCECBD3C60AEF815A26FB8615B7A0008EC106BDD0EB8EC0A8
S3250000C0C0C99F6F8655976E200412BDC4D87EC4263B10405000CBD30C8426020C83B6000036
S3250000C0E07EC1C27EC1C17EC0D07ECBD3804FC7525932C221C32E1DC2C1C1D2000000000095
S3250000C100000000000000003638303920455854454E4445442042415349430D28432920315D
S3250000C120393832204259204D4943524F534F46540D0D0034169E76DC789F6AD76C976D3574
S3250000C140960F738E00F4C601BDC003810826075A27EF301F20348115260A5A27E48608BDB9
S3250000C160C01720F681031A012705810D260D4F3401BDD0AB6F848E00F33581812025C9814A
S3250000C1807B24C5C1FA24C1A7805CBDC01720B92705BDCEC79F7A6E9F007A7EC5A79673266E
S3250000C1A003BDC0080F73975310260C6C97567ECE24A680A7C05A26F939399D8227FB7ECA79
S3250000C1C0053B813A240B812026037E007C803080D039D3C9D43DD3E200ADD66ED6C3CEDA9E
S3250000C1E0CE0ACC86CEA0CE29CE15D773D73BD744D8B5D8E7D809DA6FD843DF41CE34CE517E
S3250000C200CE58C19DCC77DA77DB37DB0779D11479D10B7BD21B7BD2E07FD84C50CA5E46CA99
S3250000C2205D464FD247CF5245CDA7454C53C549C6444154C15052494ED44FCE494E5055D487
S3250000C240454EC44E4558D44449CD524541C45255CE524553544F52C55245545552CE5354AC
S3250000C2604FD0504F4BC5434F4ED44C4953D4434C4541D24E45D7455845C354524FCE54521B
S3250000C2804F46C64445CC4445C64C494EC552454E55CD454449D4544142A854CF5355C254E4
S3250000C2A04845CE4E4FD4535445D04F46C6ABADAAAFDE414EC44FD2BEBDBC46CE5553494E08
S3250000C2C0C75347CE494ED44142D35553D2524EC45349CE504545CB4C45CE535452A45641E8
S3250000C2E0CC4153C3434852A44154CE434FD35441CE4558D04649D84C4FC7504FD35351D24B
S3250000C300484558A44C454654A45249474854A44D4944A4494E4B4559A44D45CD5641525063
S3250000C32054D2494E5354D2535452494E47A4C4ECC637C694C694C694C6C5C691D070C6F3B0
S3250000C340C7A0C5BEC885CAD7C7DAC62CC5A0C671C5C2CEE1C5E7CEE8C5F8C4BCC18FDA6A67
S3250000C360DA6BDCE6DC2AE3D4DD70D8F64E46534E52474F4446434F564F4D554C42534444EF
S3250000C3802F304944544D4F534C535354434E4644414F444E494F464D4E4F4945445355465D
S3250000C3A04E45204552524F520020494E20000D4F4B0D000D425245414B003064C6129F0F23
S3250000C3C0A68480802615AE019F119E3B27099C1127099E0F3A20E59E119F3B9E0F4D398D78
S3250000C3E017DE4133419E433001A68236029C4726F8DF45394F58D31FC3003A250810DF17F4
S3250000C40010931725EEC60CBDC4D8BDD0AFBDD0FE8EC36C3A8D318D2F8EC3A1BDD0EB96687E
S3250000C4204C2703BDD514BDD0AF8EC3AEBDD0EBBDC141CEFFFFDF6825F69F839D7C27F025C3
S3250000C4400BBDCF9D7EC575A6807ED100BDC7189E2B9FF1BDCF9DD7038D4C2512DC47A38423
S3250000C460D31BDD1BEE843702A7809C1B26F896F3271CDC1BDD43DB038900DD41BDC3DFCE94
S3250000C48000EF3702A7809C4526F89E419F1B8D368D02209B9E19EC8427213304A6C026FC74
S3250000C4A0EF84AE8420F0DC2B9E19EE84270910A3022306AE8420F31A019F473926FB9E192C
S3250000C4C06F806F809F1B9E19BDC66C9E279F23BDC5A09E1B9F1D9F1F8E00C99F0BAEE41099
S3250000C4E0DE216FE20F2D0F2E0F086E8486809708BDC73ABDC3BA326226049E0F3285C609D6
S3250000C500BDC3F4BDC699DC683416C6A0BDC9FCBDC8D0BDC8CED654CA7FD450D750108EC546
S3250000C520247EC9778ED214BDD3639D8281A426059D7CBDC8CEBDD3BCBDC973DC3B340686B5
S3250000C5408034021CAF8D609E839F2FA6802707813A27227ECA05A68197002772EC80DD68CB
S3250000C5609F83968C270F865BBDC0179668BDD51B865DBDC0179D7C8D0220C827294D102A3D
S3250000C58001B881FF270F815422C9BEC0F4481F893A9D7C6E949D7C8198102714F27ECA05F3
S3250000C5A09E19301F9F3339BDC008270A8103271281132703977339BDC00827FB20EE9D821C
S3250000C5C020021A0126319E839F2F060032629E688CFFFF27069F299E2F9F2D8EC3B20D000A
S3250000C5E0102AFE427EC41B260EC6209E2D1027FE169F839E299F6839272CBDCB6F34069EE3
S3250000C600279D82270CBDC9FABDCEC7301F9C7122181F10A3E125121F0383003A250B931B8C
S3250000C6202507DF219F277EC4CB7EC4059D821027FE94BDC4CB20191F899D7CC1A02716C121
S3250000C640A12645C603BDC3F4DE839E6886A134528D037EC5439D82BDC7188D403001DC2BA1
S3250000C66010936822029E19BDC4AA2517301F9F833926FD86FF973BBDC3BA1F148121270B02
S3250000C680C6048CC60E7EC4077ECA0535529F68DF838D068C8D069F8339C63A865FD7015FBB
S3250000C6A09E831F98D6019701A68427EC3404A1E027E63001812227EA4C26023001812326D6
S3250000C6C0E70C0420E3BDC8CE9D8281812705C6A2BDC9FC964F26130F048DB64D27BA9D7C15
S3250000C6E0812026F50A042AF19D7C9D821025FF657EC57BBDCE94C681BDC9FC340281A12759
S3250000C7000481A026830A53260535047EC6399D7C8D06812C27EF35849E749F2B24618030CE
S3250000C7209701DC2B811822DB58495849D32B5849DB018900DD2B9D7C20E2BDCAE09F3BC64E
S3250000C740AEBDC9FC96063402BDC8E3350246BDC8D510270C2D9E52DC2110A30224119C1B94
S3250000C760250DE684BDCC969E4DBDCDCC8E00569F4DBDCDFEDE4D9E3B3726A78410AF0239D9
S3250000C7803F5245444F0D007EC407960927079E319F687ECA058EC77FBDD0EB9E2F9F833970
S3250000C7A0C6169E68300127DF8D01398122260BBDC9D1C63BBDC9FCBDD0EE8E00F36F848D69
S3250000C7C006C62CE7842016BDD0FEBDD0FBBDC141240532647EC5CAC62E399E33864F9709A9
S3250000C7E09F35BDCAE09F3B9E839F2B9E35A684260996092651BDD0FE8DCD9F839D7CD606F5
S3250000C80027239E8397018122270E301F4F9701BDC133863A9701862C9702BDCCA7BDC9D621
S3250000C820BDC7552006BDD461BDD3829D822706812C1026FF529E839F359E2B9F839D822749
S3250000C84021BDC9FA209C9F83BDC69930014D260AC606EE812741EC81DD31A684812426E690
S3250000C86020989E35D6091026FD3AA68427068EC8747ED0EB393F45585452412049474E4F38
S3250000C8805245440D0026049E742003BDCAE09F3BBDC3BA2704C60020471F143003BDD3631F
S3250000C8A0A66897549E3BBDD111BDD3823069BDD3E5E068270CAE6E9F68AEE8109F837EC538
S3250000C8C04332E8129D82812C26F49D7C8DBD8D131CFE7D1A010D0625032A998C2B96C6181F
S3250000C8E07EC4078D6E4F8C34043402C601BDC3F4BDC9B00F3F9D8280AD25138103240F812A
S3250000C9000149983F913F2564973F9D7C20E9D63F26331024006B8B07246799061027047823
S3250000C92089FF340248ABE08EC20C30863502A18424558D9C34028D299E3D3502261D4D10B2
S3250000C94027006A204B0806598D098EC958D73F0F0620D99E837EC66C64CA7DA184243120EF
S3250000C960D3EC0134068D08D63F16FF7B7ECA05D654A68435203404D64F9E50DE5234546E16
S3250000C980A49E74A6E0272681642703BDC8D09F3D3504815A2719817D271554D70A355297E7
S3250000C9A05C9F5DDF5F3504D761D854D762D64F39BDDBFF0F069D7C24037ED461BDCB2B2431
S3250000C9C051812E27F481A7274181A627E38122260A9E83BDCCA19E649F833981A3260D861D
S3250000C9E05ABDC8E7BDCB7643537ECC7D4C272F8D06BDC8E3C6298CC6288CC62CE19F008389
S3250000CA0026037E007CC6027EC407867DBDC8E77ED638BDCAE09F52960626947ED3639D7C66
S3250000CA201F89589D7CC12123037ECA053404C194251EC19A241C8DBFA6E4BDC8E38DBBBDD4
S3250000CA40C8D33502DE523442BDCE94350234068E8D9D3504BEC0F93AAD947EC8D0864F9763
S3250000CA6003BDCB76DD01BDD399BDCB760D0326069401D40220049A01DA027ECC7DBDC8D547
S3250000CA80261096618A7F945D975D8E005CBDD3E520360F060A3FBDCDE0D7569F589E5FBD1A
S3250000CAA0CDE296563404A0E0270786012403D656409754DE585C5A2604D654200BA680A1B8
S3250000CAC0C027F3C6FF240150CB0159D40A2702C6FF7ED3CBBDC9FAC6018D089D8226F539E0
S3250000CAE05F9D82D70597379D828D401025FF165FD7069D7C25048D33250A1F899D7C25FC83
S3250000CB008D2924F8812426060306CB809D7CD7389A088028102700750F089E1BDC379C1D5E
S3250000CB20271210A381273E300520F381412504805B80A5398E0074EEE41183CA152728DC3F
S3250000CB401FDD43C30007DD419E1D9F47BDC3DF9E419F1F9E459F1D9E47DC37ED814F5FED6B
S3250000CB6084ED02A7049F393990800000009D7CBDC8CE96542B5DBDC8D0964F819025088E8C
S3250000CB80CB68BDD3E5264CBDD417DC5239DC053406125F9E3734148DD435349F37DE5234B9
S3250000CBA0605C9D82812C27EBD703BDC9F43506DD059E1D9C1F2721DC3710A3842706EC0241
S3250000CBC0308B20EFC6129605260BD603E1042759C6108CC6087EC407CC0005DD64DC37ED18
S3250000CBE084D603E704BDC3F49F41C60B4F0D0527053506C30001ED058D5DDD6430020A03DA
S3250000CC0026E89F0FD30F1025F7FB1F01BDC3F8830035DD1F4F301FA7059C0F26F89E419675
S3250000CC201F9341ED029605262DE604D7034F5FDD643506DD5210A305243ADE6427048D17DA
S3250000CC40D35230020A0326E7EDE358495849E3E1308B30059F393986109745EC05DD174FE0
S3250000CC605F5849250F086509642404D31725050A4526EE397ECBD01F40931F214F0F06DD3C
S3250000CC8050C6907ED3D1BDC8D0CE01F0BDD52B32628E01EF200B9F4D8D5C9F58D756393056
S3250000CCA01F86229701970230019F629F58C6FF5CA680270C91012704910226F3812227029E
S3250000CCC0301F9F64D756DE62118301F022078DC69E62BDCDCE9E0B8C00F12605C61E7EC4BF
S3250000CCE0079656A700DC58ED0286FF97069F0D9F5230059F0B390F074F3406DC23A3E01069
S3250000CD009321250ADD239E2330019F253584C61A030727CA8D04350420DE9E279F234F5FE3
S3250000CD20DD4B9E219F478E00C99C0B27048D3220F89E1B9C1D27048D2220F89F419E419C61
S3250000CD401F2735EC02D341DD41A6012AF0E60458CB053A9C4127E88D0820F8A60130022A89
S3250000CD6014E6842710EC02109323220910934723049F4BDD473005399E4B27FB4FE6845A6E
S3250000CD80D347DD439E239F41BDC3E19E4BDC45ED029E45301F7ECD1CDC523406BDC9B0BD64
S3250000CDA0C8D335109F62E6849E52EB842405C61C7EC407BDCC969E62E6848D109E4D8D22AF
S3250000CDC08D0C9E628D1CBDCCD57EC8F5AE02DE255C2004A680A7C05A26F9DF2539BDC8D3A4
S3250000CDE09E52E6848D182613AE07301F9C2326083404D323DD233504300139AE02399C0DA1
S3250000CE0026079F0B301B9F0D4F398D037ECC7C8DCC0F065D39BDCE97C601BDCCF69653BD4E
S3250000CE20CC9AA78432627ECCD58D0220DF8DE0275EE684398D484FE1842303E6844F3406E3
S3250000CE40BDCC989E4D8D9B35043A3504BDCDCE20D58D2BA0844020DFC6FFD7539D828129CC
S3250000CE602705BDC9FA8D2D8D1527245F4AA18424CD1F89E08450D15323C4D65320C0BDC9A4
S3250000CE80F4EEE4AE659F4DA664E66432671F357ECBD39D7CBDC8CEBDCB724D26F27E00829F
S3250000CEA0BDCE0F102702E1DE839F833AA68434526F849D82BDD4613552A784DF83398D0766
S3250000CEC09F2BBDC9FA20CDBDC8CE96542BC1964F819022BBBDD4179E52398DEEE6847ECC19
S3250000CEE07C8DDB9E2BE784393401BDC718BDC4A69F66350127129D82271381A726099D7CA6
S3250000CF002706BDC718270639CEFFFFDF2B32629E66BDD0AFBDC19AEC8426037EC4269F6614
S3250000CF20EC0210932B22F4BDD51BBDD0FB9E668D10AE9F0066CE00F4A6C027D5BDD10020BE
S3250000CF40F73004108E00F4A68027512B15813A260DE684C12027F0C11E27EC8C86218D30FE
S3250000CF6020E5CEC0E781FF2604A6803345847F334A6DC427E7A0C42AF6ABC4EE414A2B068D
S3250000CF806DC02AFC20F7A6C48D066DC02AF820B7108C01ED2406847FA7A06FA4399E83CEC5
S3250000CFA000F30F430F44A68027210D43270FBDCB2B241881302504813923100F438120270F
S3250000CFC00A9742812227380D442719A7C02706813A27CF20D16FC06FC01F308300F18E00F0
S3250000CFE0F29F8339813F2604862620DF81272613CC9C1EEDC10F42A68027D0914227CCA759
S3250000D000C020F481302504813C25C0301F34500F41CEC0E70F42334AA6C4273110AE41AEE5
S3250000D020E4E6A0E08027FAC180263832623540DA4296412606C1202606863AEDC12094E722
S3250000D040C0C12426020C44C11C27AA2086CEC0EC034126C03550A680A7C0BDCB2B25EC03DC
S3250000D0604320E80C424A27AE313FE6A02AFC20AF27398D0139BDDFD5273E819F2753812CC3
S3250000D0802737813B2760BDC8E3960634022606BDD528BDCC9F8D573504BDC1335D26089DAB
S3250000D0A082812C27148D549D8226CF860D2051BDC13327F7966C26F339BDC133270AD66CC0
S3250000D0C0D16B25068DE5201ED66CD06A24FC502010BDCE9281291026F92BBDC133D06C23E6
S3250000D0E0058D185A26FB9D7C7ED078BDCCA1BDCDE05C5A27C3A6808D0720F786208C863F2A
S3250000D1007EC0178ED60F2009BDD27E035403622003BDD27E5D102702808E005C1F895D27F3
S3250000D1206CD04F2769250A974F966197548E004F50C1F82F594F6401BDD209D6622A0B634D
S3250000D1400163026303630443890097639653996097539652995F97529651995E975196508F
S3250000D160995D97505D2A4425028D5D5F9650262E9651975096529751965397529663975304
S3250000D1800F63CB08C1282DE44F974F9754398D6D5F20A85C086309530952095109502AF382
S3250000D1A0964F3404A0E0974F23DE8C2508086386009763200C0C4F27280650065106520660
S3250000D1C05324048D0D27EE39035403500351035203539E5230019F5226069E5030019F50F1
S3250000D1E039C60A7EC4078E0012A6049763A603A704A602A703A601A702965BA701CB082F02
S3250000D200E89663C008270C6701660266036604465C26F43981000000008D6327608D788611
S3250000D220009713971497159716D6538D22D663D78BD6528D1AD663D78AD6518D12D663D788
S3250000D24089D6508D0CD663D788BDD35A7ED16B2795439613562726241696169B60971696D5
S3250000D26015995F97159614995E97149613995D46971306140615061606634F20D539EC01F0
S3250000D28097618A80DD5DD661D854D762EC03DD5FA684975CD64F394D27169B4F46492810CF
S3250000D2A08B80974F270C966297543996544320023262102AFED27ED1E1BDD3AE270D8B020C
S3250000D2C025F40F62BDD11C0C4F27EB398420000000BDD3AE8ED2CC5FD762BDD3638C8D9E1E
S3250000D2E02773004F8DB10C4F27CC8E0013C604D703C6019650915D26139651915E260D96FB
S3250000D30052915F2607965391602601431FA859240AE7800A032B34272EC6011F8A250E0833
S3250000D32060095F095E095D25E32BC820DF966090539760965F9252975F965E9251975E9657
S3250000D3405D9250975D20D8C64020D0565656D7638D087ED16BC6147EC4079E139F509E15A5
S3250000D3609F52393402EC0197548A80DD500F63E684AE039F52D74F35828E004520068E0056
S3250000D380408C9E3B964FA78496548A7F9450A7019651A702DE52EF0339966197549E5C9FED
S3250000D3A04F0F63965E975196549E5F9F5239DC4FDD5C9E519F5E9E539F604D39D64F27089F
S3250000D3C0D65459C6FF250150398DF1D7500F51C68896508080D74FDC74DD52976397547E0F
S3250000D3E0D1670F5439E68427D3E601D8542BD1D64FE184261DE601CA7FD450E1012613D6CE
S3250000D40051E102260DD652E1032607D653E00426013956D85420ABD64F273DC0A096542AAF
S3250000D42005035BBDD1CA8E004FC1F82E06BDD1FD0F5B390F5B96544906507ED209D64FC101
S3250000D440A0241D8DD2D7639654D754808086A0974F965397017ED167D750D751D752D75352
S3250000D460399E749F549F4F9F519F529F479F452564BDDB9E812D260403552004812B2604E6
S3250000D4809D7C2551812E2728814526289D7C256481A7270E812D270A81A62708812B2704DA
S3250000D4A0200603489D7C254C0D48270800472004034626CC96479045974727122A09BDD2B6
S3250000D4C0D10C4726F92007BDD2B90A4726F996552A8E7ED638D645D046D7453402BDD2B92A
S3250000D4E03504C0308D022098BDD37EBDD3CB8E00407ED111D6475858DB475880303404AB45
S3250000D500E09747209F9B3EBC1FFD9E6E6B27FD9E6E6B28008EC3A88D0CDC68DD50C6904301
S3250000D520BDD3D58D037ED0EBCE01F18620D6542A02862DA7C0DF6497548630D64F102700A1
S3250000D540C64FC18022088ED50FBDD21986F797458ED50ABDD3EF2E0F8ED505BDD3EF2E0E86
S3250000D560BDD2B90A4520F1BDD2D10C4520E2BDD103BDD417C60196458B0A2B09810B2405F1
S3250000D5804A1F8986024A4A9747D7452E0DDE64862EA7C05D27048630A7C08ED614C68096EC
S3250000D5A053AB0397539652A90297529651A90197519650A98497505C565928E32403C00B83
S3250000D5C050CB2F30041F98847FA7C00A452604862EA7C053C4808CD63826C4A6C2813027B7
S3250000D5E0FA812E2602335F862BD647271C2A03862D50A7428645A741862F4CC00A24FBCB30
S3250000D6003AED436F452004A7C46F418E01F1398000000000FA0A1F0000989680FFF0BDC031
S3250000D620000186A0FFFFD8F0000003E8FFFFFF9C0000000AFFFFFFFF964F27020354399F30
S3250000D64064BDD37E8D058D088E00407ED2199F64BDD3799E64E680D7559F648DEE9E6430A4
S3250000D660059F64BDD1118E00450A5526EE39BDD3BC2B1F27158D10BDD37E8D0E8E00408D0B
S3250000D680CA8ED214BDD1117ED43D9EB19F509EB39F52BED6BF9F5DBED6C19F5FBDD21FDC6C
S3250000D6A08AC3658BDDB3DD52DC88C9B08905DDB1DD500F548680974F961597637ED16B4054
S3250000D6C0E64DABBDD3AE8ED708D661BDD2D8BDD3AE8DB40F62965CD64FBDD10B8ED70DBD4E
S3250000D6E0D108965434022A09BDD10396542B05030ABDD6388ED70DBDD11135024D2A03BDF6
S3250000D700D6388ED7127ED63F83490FDAA27F000000000584E61A2D1B862807FBF887996814
S3250000D7208901872335DFE186A55DE72883490FDAA2A154468F138F524389CD8ED76EBDD114
S3250000D740117ED6C3BDD37E0F0A8DF68E004ABDD3848E0040BDD3630F54960A8D0C0D4F103C
S3250000D76027FA7E8E004A7ED2DE34027ED6F181490FDAA2965434022A028D24964F34028195
S3250000D7808125058ED2148DDE8ED7A3BDD63F3502818125068ED76EBDD10835024D2A037E23
S3250000D7A0D638390B76B383BDD3791EF4A6F57B83FCB0107C0C1F67CA7CDE53CBC17D1464EF
S3250000D7C0704C7DB7EA517A7D6330887E7E9244993A7E4CCC91C77FAAAAAA13810000000062
S3250000D7E0037F5E56CB7980139B0B6480763893168238AA3B20803504F334813504F3348035
S3250000D8008000000080317217F8BDD3BC102FF3C38ED7F5964F808034028680974FBDD1110F
S3250000D8208ED7FABDD2DE8ED214BDD1088ED7E0BDD63F8ED7FFBDD1113504BDD4E88ED804D6
S3250000D8407ED219BDD3AE8ED60FBDD36327674D26037ED1898E004ABDD3845F96612A10BDA0
S3250000D860D43D8E004A9661BDD3EF260343D601BDD39B3404BDD8098E004ABDD2198D363587
S3250000D88002461025FDB2398138AA3B29077134583E5674167EB31B772FEEE3857A1D841CB5
S3250000D8A02A7C6359580A7E75FDE7C6803172181081000000008ED887BDD219BDD37E964FAD
S3250000D8C0818825037ED2ABBDD43D96018B8127F44A34028E0040BDD1088ED88CBDD64E0FC4
S3250000D8E0623502BDD29739BDD3BC2B037ED43D03548DF97ED638BDDD24326286019798BDF3
S3250000D900C4A61025ED7DBDCF411F208300F5D797DC2BBDD51BBDD0FB8E00F4D69826255F30
S3250000D920BDDA4ABDE1EF250B80303402860A3DEBE020EDC001C90181412605BDD0AB20BB2D
S3250000D940814C260B8D310F98BDD0AB20C33262810D260D8D22BDD0AB8E00F49F837EC44FD2
S3250000D960814527F181512606BDD0AB7EC4268D0220AD812026108CC6F9A6842708BDC017BA
S3250000D98030015A26F439814426486D8427F78D045A26F7390A97311F3121A621A7A426F8AD
S3250000D9A039814927138158270D8148265C6F841F108300F5D7978DBFBDDA4A810D278E81D3
S3250000D9C01B2725810826228C00F427EC8D458DC420E6814326CB6D84270EBDDA4A2502204A
S3250000D9E0F5A7808D375A26EE39D697C1F9260220C734106D8026FCE682E701ACE426F832E1
S3250000DA0062A7808D170C9720AF810826128D045A26FB398C00F427D0301F86087EC0178131
S3250000DA204B2705805327013934028D1E3402A68427166D6126068DE430012003BDD994A628
S3250000DA4084A1E426E95A26E635A0BDC003817F24F9815F2602861B810D270E811B270A8116
S3250000DA60082706812025E31A0139864F978C398600D6791D7ECC7DBDC9F7DC1F3406BDCA4B
S3250000DA80E0BDC9F435061E109C1F26517ECC7D9D7CBDC9F7BDCAE03410EC021093212304AA
S3250000DAA093272312E684BDCCF63410AE62BDCDCC3550AF423440BDCEC234045D271FC6FF07
S3250000DAC081292703BDCEC23404BDC9F4C6AEBDC9FC8D2E1F13AE62A684A06124037ECBD30C
S3250000DAE04CA1E42402A7E4A6611E89AE025A3A4D270DA1E42302A6E41F891E31BDC1B1359C
S3250000DB0096BDC8E37ECDDDBDC9F7BDCE943404BDC9FABDC8E3BDC9F496062605BDCE97209A
S3250000DB2003BDCE2D3404E661BDCC9835062705A7805A26FB7ECE24BDC9F7BDC8E3C601342B
S3250000DB400496062610BDCE97E7E42791BDC9FABDC8E3BDC8D39E523410BDC9FABDDB013483
S3250000DB6014BDC9F4AE63BDCDE23404E1662523A661271CE6665A3A3184EE62E661A6E4A02D
S3250000DB80664CA161250CA680A1C0260C5A26F7E666215F32677ECC7C6C66302120D981267C
S3250000DBA0265C32620F520F538E00529D7C814F2712814827239D82200C81381022EE46C641
S3250000DBC0038D2A9D7C25F20F500F510F060F630F54C6A0D74F7ED16B9D7C250BBDCB2B2545
S3250000DBE0E6814724E28007C6048D0220EB680169841025F5EC5A26F58030AB01A70139352D
S3250000DC00400F069E839D7C8126279981B0275E81FF26089D7C8170102700AB9F836EC49EC6
S3250000DC2068300126D9C6167EC407AE9F00838C6070102700748D238DE6BDC9F7C680D70885
S3250000DC40BDCAE08D25BDC9F4C6AEBDC9FC9E4BDC83ED84DC39ED027EC691C6B0BDC9FCC6E5
S3250000DC6080D7088A80BDCAE59F4B7EC8D08DEB3410BDC9EF8DF43540C632AE4227A9109E3C
S3250000DC8083EEC4DF83A6043402EC84EE023476BDD384BDC8CE3576ED84EF023502A7049D0A
S3250000DCA0821026ED60109F83399D7C8D0934108D2D3540AFC4395F9D7C240680301F899D89
S3250000DCC07C9E8D583A398DEEAE843410BDC9EF8E004F96062707BDCDE09E52960639C6AE1C
S3250000DCE0BDC9FC7ECEC71027EEE9BDC718BDC4A69F939D82271081A7263B9D7C27048D24B2
S3250000DD00200486FF972BDE938CEEC4ECC42706EC42932B23F49E938D15BDC4C69E93BDC437
S3250000DD20967EC426BDC7187EC1BAA6C0A78011931B26F79F1B39BDDC1F9D7C8122260BBD8C
S3250000DD40C9D1C63BBDC9FCBDD0EE327EBDC7CD3262BDCAE09F3BBDC8D38E00F34FBDCCA5F9
S3250000DD607EC755BDC7189E2B399E919F2B7EC4A6BDC4CBCC000ADD95DD8F5FDD919D822474
S3250000DD80068DE09F959D82271BBDC9FA24068DD39F919D82270EBDC9FA24068DC69F8F2795
S3250000DDA049BDC1BA8DC39F939E958DBF9C93253A8D1CBDDE44BDC4948DAF9F938D3A8D0FDF
S3250000DDC08D36BDDEDFBDC4CBBDC4947EC426864F97989E93DC958D150D982602ED02AE8401
S3250000DDE08D0BD38F250481FA25EE7ECBD33406EC84350626023262399E19301F30018DEDC5
S3250000DE0030033001A68427F49F0F4A270C4A272A4A26EF8603A78020E7EC016A0227014FA7
S3250000DE20E6036A0427015FED01DD2BBDC4A69E0F25E1DC476C80ED8420C66F84AE01AE0276
S3250000DE409F4720EA9E1920049E8330018D9F300230019F839D7C4D27EF2AF99E8381FF2787
S3250000DE60EF81A227128120270E818126E79D7C81A0270481A126DB9D7C25049D8220D79EEE
S3250000DE80833410BDC7189E83A682BDE1EF25F930011F10E061C0052720250A33845030858D
S3250000DEA0BDDD2E20149F479E1B9F435030859F419F1BBDC3DF9E459F8335108601A784A73E
S3250000DEC002A704D62B2604C6016C02E701D62C2604C6016C04E7039D82812C279A209C9E13
S3250000DEE019301F3001EC02DD68BDDDED30033001A68427EF4A271B800226F334108EDF3C11
S3250000DF00BDD0EBAEE4EC01BDD51BBDD514BDD0AB35103410EC01DD52BDDBC7BDD528354046
S3250000DF20C6053001A68427055AA7C020F530C45D27BE31C433C5BDDD2E30A420B3554C2060
S3250000DF4000BDCECA8E01F0C60434045F860408530952594A26F85D260AA6E44A27058C016B
S3250000DF60F0270CCB30C1392302CB07E7806F8435045A26D532628E01EF7ECCA186019799F0
S3250000DF805ABDE11D9D8210270093D793BDC8E3BDC8D39E529F4DD699BDCE36BDD0EE9E52DC
S3250000DFA0D699E0845A102B014FBDD0FB20F6D7939F0F86029799A684812527C481202607AC
S3250000DFC00C9930015A26EF9E0FD6938625BDE11DBDC017202981B12701393262BDC8E5BD4F
S3250000DFE0C8D3C63BBDC9FC9E529F952006969727089E950F97E68426037ECBD3AE020F9A76
S3250000E0000F99A68081211027FF728123275B5A2616BDE11DBDC0179D8226D296972603BDAD
S3250000E020D0AB9E957ECDE2812B2609BDE11D8608979A20CC812E274E81251027FF70A18429
S3250000E040268B81242719812A26F6969A8A20979AC1022511A6018124260B5A30010C999616
S3250000E0609A8A10979A30010C990F980C995A2749A680812E271E812327F1812C2621969A4F
S3250000E0808A40979A20E5A68481231026FF3F8601979830010C985A2720A680812327F581A5
S3250000E0A05E2616A1842612A101260EA102260AC1042506C00430040C9A301F0C99969A8583
S3250000E0C00826180A995D2713A684802D270681FE260986088A049A9A979A5A9D821027FFD8
S3250000E0E03CD793BDC8CE96999B9881111022EAE3BDE12A301FBDD0EB0F979D82270D979778
S3250000E100813B2705BDC9FA20029D7C9E95E684D093AE023AD6931026FEE47EE017340286BA
S3250000E1202B0D9A2703BDC0173582CE01F2C620969A85082702C62B0D542A040F54C62DE748
S3250000E140C0C630E7C08401102601078ED50FBDD3EF2B15BDD528A68026FCA682A7018C0109
S3250000E160F126F78625A78439964F97472703BDE3129647102B0081409B998009BDE22FBDBC
S3250000E180E3A8BDE3479647BDE3C69647BDE38E96982602335F4ABDE22FBDE2CA4D2706C115
S3250000E1A02A2702E7C06FC48E01F130019F0F963A901090992738A684812027EE812A27EA39
S3250000E1C04F3402A680812D27F8812B27F4812427F08130260EA6018D1625083502A782265C
S3250000E1E0FA20C735024D26FB9E0F8625A7823981302504803A80C639969827014A9B472B19
S3250000E200014F34022A0A3402BDD2D135024C20F49647A0E097478B092B199699800990476F
S3250000E2208D0DBDE3A8201D34028630A7C035024A2AF53996998DF8BDE39286F790478DEFD7
S3250000E2400F450F97BDE34796982602DE399B4716FF43964F34022703BDE312969827014A99
S3250000E2609B997F01F1D69AC40426037301F1BB01F1800934022A0A3402BDD2D135024C2054
S3250000E280F4A6E42B014F409B994CBB01F197450F97BDE3473502BDE3C696982602335FE63E
S3250000E2A0E02709D647CB09D099F001F1862B5D2A03862D50A7418645A7C1862F4CC00A24C4
S3250000E2C0FBCB3AEDC16FC47EE1998E01F2E68434048620D69AC52035042708862AC1202622
S3250000E2E0021F893404A780E6842710C145270CC13027F2C12C27EEC12E26048630A782969B
S3250000E3009A85102704C624E782840435042602E7823934404F9747D64FC18022118ED50F13
S3250000E320BDD2199647800920ECBDD2D10C478ED50ABDD3EF2EF38ED505BDD3EF2E07BDD252
S3250000E340B90A4720F135C03440BDD103BDD41735408ED614C6808D369653AB03975396529B
S3250000E360A90297529651A90197519650A98497505C565928E32403C00B50CB2F30041F9853
S3250000E380847FA7C053C4808CD63826CA6FC40A452609DF39862EA7C00F97390A97260886D4
S3250000E3A0039797862CA7C03996478B0A97454C800324FC8B059797969A8440260297973956
S3220000E3C034028DCA35024A2B0A34028630A7C0A6E026ED39812A1027F95C7ECA054E
S3250000E400171AFFFD6FD08618340217019735024A26F6308D0B8F1700848D638D1181202722
S3250000E420E581512708817127048D7220EC393402860D8D47860A8D43350239340286248DB5
S3250000E4403A3502393402862C8D313502393402865B8D283502393402865D8D1F3502393F46
S3250000E4600739340286208D138D113502393402810027058DEA4A20F73502393F01393F00E9
S3250000E480393416B76FD7308D8B4D3F043516393416BF6FD7308D8B3F3F0535163934103F79
S3250000E4A0023510397F6FDCAE8D8B25E684C1102707C11127531600A08601B76FDCE601F74F
S3250000E4C06FD2308D0A464FE186271F8B036D86270220F48610B76FD28600B76FD48600B7E3
S3250000E4E06FD38601B76FD61600908B01E686F76FD48B01E686F76FD34F1F01E689ECDFF7A8
S3250000E5006FD67C6FD61600728601B76FDCE601F76FD2308D0A694FE186271F8B036D8627EB
S3250000E5200220F48611B76FD28600B76FD48600B76FD38601B76FD61600408B01E686F76FFA
S3250000E540D48B01E686F76FD34F1F01E689ECDFF76FD67C6FD6160022F76FD24F1F01E689BC
S3250000E560ED0CF76FD4F66FD21F01E689EE0CF76FD31F01E689ECDFF76FD6B66FD38108262C
S3250000E58022AE8D8A4B7D6FDC2704A6022002A601B76FD52A0E841F308D0751A686BB6FD6C8
S3250000E5A0B76FD639BDE4A4AE8D8A2517FEE117FEAEF66FD6AE8D8A18A68017FEC45A26F8A9
S3250000E5C0308D0724B66FD64AA68617FEA07D6FDC2709FC6FD0C30001FD6FD0F66FD44F5814
S3250000E5E0495849308D04E4B76FD9A68B17FE8CB66FD95CA68B17FE83B66FD95CA68B17FEF2
S3250000E6007AB66FD95CA68B17FE71B66FD38100272E81012739810227388103102701AF81EB
S3250000E62004102701C48105102701D08106102701E08107102701F581081027020920008681
S3250000E6400F17FE29308D095317FE52160467160464B66FD4818127338137272F8166102767
S3250000E66000AD8167102700A78164102700A181651027009B17FDEB862317FDFF17FDBCAE73
S3250000E6808D894DA60117FDF916042A17FDD4AE8D893EA60184F0444444448D0E862C17FDA3
S3250000E6A0DAA601840F8D0316040B8100260486442050810126048658204881022604865928
S3250000E6C0204081032604865520388104260486532030810526068650C643202A810826048D
S3250000E6E08641201E8109260486422016810A26068643C6432010810B26068644C6502006E6
S3250000E700863F17FD763917FD721F9817FD6D3917FD508601B76FDBAE8D88B5A6018580273D
S3250000E7200D34068650C6438DDD7F6FDB3506854027213402B66FD4816627128164270E17B2
S3250000E740008186538DBC7F6FDB350220068D74865520F18520270D34028D6886598DA37F6B
S3250000E7606FDB35028510270D34028D5786588D927F6FDB35028508270F34068D468644C6D2
S3250000E780508D837F6FDB35068504270E34028D33864217FF6D7F6FDB35028502270E34021E
S3250000E7A08D21864117FF5B7F6FDB35028501271034068D0F8643C64317FF4B7F6FDB3506A3
S3250000E7C01602F27D6FDB2605862C17FCAE3917FC91862317FCA517FC62AE8D87F3A601E6CF
S3250000E7E0021F0117FCA91602CC17FC7617FC4CAE8D87DDA60117FC891602BA17FC6417FC2B
S3250000E8003AAE8D87CBA601E6021F0117FC811602A417FC4E17FC24AE8D87B5E6011DF36FB7
S3250000E820D0C300021F0117FC6616028917FC3317FC09AE8D879AEC01F36FD0C300031F0140
S3250000E84017FC4C16026F17FC19B66FD52B14841F17FBE817FC2B17FBEBB66FD51702351631
S3250000E8600253849F8184260C17FBD9B66FD517022316024181882618AE8D8754A60217FB52
S3250000E880BA17FBFD17FBBDB66FD51702071602258189261AAE8D8738EC021F0117FB9C176C
S3250000E8A0FBED17FB9FB66FD51701E916020781862611864117FBC417FB8AB66FD51701D442
S3250000E8C01601F281852607864217FBAF20E9818B2607864417FBA420DE8180261117FB64FF
S3250000E8E0B66FD51701AE862B17FB901601C78181261417FB4FB66FD5170199862B17FB7B9B
S3250000E90017FB781601AF8182261117FB37862D17FB69B66FD517017C16019A81832614175C
S3250000E920FB22862D17FB5417FB51B66FD5170164160182818C2615AE8D8695A60217FAFBD7
S3250000E94017FB3E17FAFE170164160169818D2617AE8D867CEC021F0117FAE017FB3117FA7B
S3250000E960E317014916014E8194261217FADF17FAD3B66FD517011D17FADC1601388198261D
S3250000E9801E17FAC9AE8D8648A60217FAAE17FAF117FAB1B66FD51700FB17FABA16011681C0
S3250000E9A099262017FAA7AE8D8626EC021F0117FA8A17FADB17FA8DB66FD51700D717FA9611
S3250000E9C01600F28196261717FA83864117FAAC17FA72B66FD51700BC17FA7B1600D78195DE
S3250000E9E0260A17FA68864217FA9120E3819B260A17FA5A864417FA8320D58191261A17FA8E
S3250000EA004C17FA40B66FD517008A862B17FA6C17FA6917FA4116009D8193261A17FA2E1761
S3250000EA20FA22862D17FA5417FA51B66FD517006417FA2316007F819C261B17FA10AE8D85BD
S3250000EA408FA60217F9F517FA3817F9F817005E17FA04160060819D261D17F9F1AE8D857091
S3250000EA60EC021F0117F9D417FA2517F9D717003D17F9E316003F819F261717F9D0AE8D85E8
S3250000EA804FEC021F0117F9B317FA0417F9C8160024160021340284604444444444308D00C7
S3250000EAA008A68617F9D535023958595553308D051C17F9E93917F9767D6FDC27037A6FD627
S3250000EAC04FF66FD6F36FD0FD6FD0393F3F3F204142582041444341414443424144444141C9
S3250000EAE044444241444444414E4441414E4442414E444341534C2041534C4141534C424176
S3250000EB005352204153524141535242424343204243532042455120424745204247542042D6
S3250000EB204849204249544142495442424C4520424C5320424C5420424D4920424E452042B8
S3250000EB40504C204252412042524E20425352204256432042565320434C5220434C52414389
S3250000EB604C5242434D5041434D5042434D5044434D5053434D5055434D5058434D5059432C
S3250000EB804F4D41434F4D42434F4D204357414944414120444543204445434144454342451C
S3250000EBA04F5241454F524245584720494E4320494E4341494E43424A4D50204A5352204CAE
S3250000EBC04243434C4243534C4245514C4247454C4247544C4248494C424C454C424C534C25
S3250000EBE0424C544C424D494C424E454C42504C4C4252414C42524E4C4253524C4256434CC9
S3250000EC004256534C4441204C4442204C4444204C4453204C4455204C4458204C4459204CC7
S3250000EC204541534C4541554C4541584C4541594C5352204C5352414C5352424D554C204EA7
S3250000EC404547204E4547414E4547424E4F50204F5241204F5242204F524343505348535004
S3250000EC6053485550554C5350554C55524F4C20524F4C41524F4C42524F5220524F52415211
S3250000EC804F52425254492052545320534243415342434253455820535441205354422053BC
S3250000ECA0544420535453205354552053545820535459205355424153554242535542445349
S3250000ECC0574920535749325357493353594E43544652205453542054535441545354420145
S3250000ECE001020302030203020A0704010000000000000000010200000102000000000000E0
S3250000ED000000000001020000010200025D00002E59006B0D0A68320038823B2300006080ED
S3250000ED200000494B00316300097237811E1F151910111C1221221D1B131A1418575855568A
S3250000ED4064666567006F016E305C007D5E00002D5A006C0E0B693300398300245F00002EBD
S3250000ED605B006D0F0C6A34003A8400255D00002F59006B0D0A68320038823B235D00002F84
S3250000ED8059006B0D0A68320038823B237A26707C07164E00350261042B2053007A26707C23
S3250000EDA007164E73350261042B3C53787A26707C07164E73350261042B3C53787A26707CDD
S3250000EDC007164E73350261042B3C53787B27710608174F0036036205500052007B2771069F
S3250000EDE008174F7436036205507552777B27710608174F7436036205507552777B277106BB
S3250000EE0008174F7436036205507552770400000404000404040404000404040400000101AA
S3250000EE20000007070001020002010202060606060606060606060606060606060808080834
S3250000EE40020202020001010102010001010000010100010101010100010100010100000190
S3250000EE60010001010101010001010001080000080800080808080800080808080500000519
S3250000EE80050005050505050005050505020202030202020002020202030603000404040407
S3250000EEA0040404040404040404040404080808080808080808080808080808080505050588
S3250000EEC00505050505050505050505050202020302020200020202020301030004040404C2
S3250000EEE0040404040404040404040404080808080808080808080808080808080505050548
S3250000EF00050505050505050505050505214A07224207234407243D07253E07264707273FB8
S3250000EF2007284C07294D072A48072B46072C40072D45072E41072F43073F7E018328038C08
S3250000EF402C038E54039328049C2C049E54049D7904A32808AC2C08AE5408AF7908B328052F
S3250000EF60BC2C05BE5405BF7905CE5103DE5104DD7604EE5108EF7608FE5105FF7605003FDD
S3250000EF807F01832A038C2903932A049C2904A32A08AC2908B32A05BC2905003B20494E5633
S3250000EFA0414C4944045052455353203C53504143453E20544F20434F4E54494E55452C2006
S3160000EFC03C513E20544F20515549542004504352043C
S3250000F000170EFFFD6FEC8D1A308C9A17F48F17F46D17F41A815127068171270220E86E9F0B
S3250000F020FFFE1706BF8D0417059439B66FD481001027057FB66FD381082613B66FD5848E7C
S3250000F040818C260A308D065E17F45217F3E0B66FD481801027055CB66FD481302610BE6F66
S3250000F060ECA6018A80BA6FE0B76FE0160545817D264EBE6FEC3001BF6FEC10FF6FEE10FE2E
S3250000F0806FEAB66FE034028A50B76FE0B66FE13402B66FE23402B66FE33402BE6FE43410EA
S3250000F0A0BE6FE63410BE6FE83410BE6FEC341010FF6FEA10FE6FEEBEFFFABF6FEC1604FD82
S3250000F0C0817E2649BE6FEC3001BF6FEC10FF6FEE10FE6FEAB66FE03402B66FE13402B66FE9
S3250000F0E0E23402B66FE33402BE6FE43410BE6FE63410BE6FE83410BE6FEC341010FF6FEAEA
S3250000F10010FE6FEEBEFFF4BF6FEC1604B0817F2649BE6FEC3001BF6FEC10FF6FEE10FE6F2D
S3250000F120EAB66FE03402B66FE13402B66FE23402B66FE33402BE6FE43410BE6FE63410BE83
S3250000F1406FE83410BE6FEC341010FF6FEA10FE6FEEBEFFF2BF6FEC160463813B1026007B2B
S3250000F160B66FD2817E260BBE6FECAE01BF6FEC16044B810E260EBE6FECE601B66FE3FD6FE4
S3250000F180EC160439BE6FEC108E6FF2C6334FE7A64CE686E7A64CB16FD626F6C67EE7A64C7D
S3250000F1A08EF1C3AFA610FF6FEEFF6FF0B66FE1F66FE2BE6FE410BE6FE610FE6FEAFE6FE8AB
S3250000F1C07E6FF2BF6FE410BF6FE610FF6FEA10FE6FEEFE6FF0BF6FEC1603E2813C102600DC
S3250000F1E072B66FD281BD26244FF66FD6F36FEC10FF6FEE10FE6FEA340610FF6FEA10FE6F4E
S3250000F200EEBE6FECAE01BF6FEC1603B1819D26274FF66FD6F36FEC10FF6FEE10FE6FEA3404
S3250000F2200610FF6FEA10FE6FEEBE6FECE601B66FE3FD6FEC1603864FF66FD6F36FEC10FF09
S3250000F2406FEE10FE6FEA340610FF6FEA10FE6FEE16FF31816F261810FF6FEE10FE6FEA355B
S3250000F2601010FF6FEA10FE6FEEBF6FEC16034E816E264010FF6FEE10FE6FEA3510BF6FEC9D
S3250000F280B66FE02A1E3510BF6FE83510BF6FE63510BF6FE43502B76FE33502B76FE235025A
S3250000F2A0B76FE13502B76FE010FF6FEA10FE6FEE16030A8120262C4FF66FD6F36FEC10FF34
S3250000F2C06FEE10FE6FEA340610FF6FEA10FE6FEEBE6FEC4FE6011DC30002F36FECFD6FEC80
S3250000F2E01602DA814B262A4FF66FD6F36FEC10FF6FEE10FE6FEA340610FF6FEA10FE6FEE42
S3250000F300BE6FECEC01C30003F36FECFD6FEC1602ACB66FD38106264BBE6FEC108E6FF2A603
S3250000F32084A7A48603A721867EA7228EF354AF23867EA7258EF341AF26B66FE01F8A7E6F31
S3250000F340F2BE6FEC4FE6011DC30002F36FECFD6FEC160269FC6FECC30002FD6FECFD6FEC91
S3250000F36016025A810710260085B66FD281162624BE6FEC108E6FF2A684A7A48E0003AF210C
S3250000F380867EA7238EF3E0AF24867EA7268EF3BEAF272022BE6FEC108E6FF2AE84AFA48E12
S3250000F3A00003AF22867EA7248EF3E0AF25867EA7278EF3BEAF28B66FE01F8A7E6FF2BE6FCD
S3250000F3C0ECB66FD28116260AFC6FECC30003E3012008FC6FECC30004E302FD6FEC1601DD05
S3250000F3E04FF66FD61DF36FECFD6FEC1601CFB66FD2811F10260091BE6FECA60184F0815071
S3250000F400264410BE6FEC3122A601840F8100271381012716810227198103271C8104271FF7
S3250000F42016019010BF6FE116018910BF6FE416018210BF6FE616017B10BF6FE8160174102E
S3250000F440BF6FEA16016DA601840F8105102600F3A60184F0810027138110271481202715A2
S3250000F4608130271681402717160148BE6FE12012BE6FE4200DBE6FE62008BE6FE82003BE8B
S3250000F4806FEABF6FEC160135B66FD2811E2671BE6FECA60184F081502606A601840F2012DD
S3250000F4A0A601840F810510260099A60184F04444444410BE6FEC3122810027138101271993
S3250000F4C08102271D81032721810427251600E4BE6FE11E12BF6FE12020BE6FE41E12BF6FCC
S3250000F4E0E4BE6FE61E12BF6FE6BE6FE81E12BF6FE8BE6FEA1E12BF6FEA10BF6FEC1600BD14
S3250000F500B66FD28135270481372618BE6FECA60184808180262D308D015E17EF8017EF0E49
S3250000F520160090B66FD28134270481362615BE6FECA60184808180260A308D016917EF5DD7
S3250000F54017EEEBBE6FEC108E6FF24FE686E7A64CB16FD626F6C67EE7A64C8EF589AFA61069
S3250000F560FF6FEEFF6FF0F66FE2BE6FE410BE6FE610FE6FEAFE6FE8B66FE31F8BB66FE036A7
S3250000F58002B66FE137017E6FF23601B76FE13702B76FE01FB8B76FE3F76FE2BF6FE410BFC0
S3250000F5A06FE610FF6FEAFF6FE810FE6FEEFE6FF04F1F8B4FF66FD6F36FECFD6FEC39308D4B
S3250000F5C0008C17EED8BE6FEC17EEC4308D008317EECBB66FE117EEA9308D007917EEBEB667
S3250000F5E06FE217EE9C308D006F17EEB1BE6FE417EE9D308D006517EEA4BE6FE617EE9030DB
S3250000F6008D005B17EE97BE6FEA17EE83308D005117EE8ABE6FE817EE76308D004717EE7D0E
S3250000F620B66FE317EE5B308D003E17EE708E0008F66FE0582504863020028631BDE47B30B5
S3250000F6401F26F0308D002517EE5317EDE13950433D04413D04423D04583D04593D04533D7B
S3250000F66004553D0444503D0443433D042028454648494E5A564329045761726E696E673A6C
S3250000F68020696E737472756374696F6E206E6F7420737570706F727465642C20736B697008
S3250000F6A070696E672E045761726E696E673A20696E737472756374696F6E206E6F7420736E
S3250000F6C07570706F727465642C2065787065637420696E636F727265637420726573756CA8
S3130000F6E074732E04BE6FECBF6FD0BDE5A43967
S3250000F800308D78BE1F101F8B979D3384318C35EF81C61634041F20E3A1ED816AE426F6C654
S3250000F8200DA6A0A7805A26F9318DF7D48E20FEACA12602ADA43584328D78168DC34F1F8B85
S3250000F8403F0820F9016102AC02AA02A8026F02A40045022AFFE302AA029E02B002A402AD1F
S3250000F86002AA03D102D102EC02D97892051F012EA000000500000000000000003901950194
S3250000F880B201CC01C40176017401C1017A0055017E027001D26A8D77F717023FEE6A335F35
S3250000F8A00DFB261117073D505A2B0A11A3A126F8EF6A1602380FFB3706C10B10220229EF4E
S3250000F8C06A58338CB8ECC56ECB41535349535430390410DF976D61260DAD9D77E5AD9D77CD
S3250000F8E0E1308CE53F039EC2270D6F026F03CC01A6A701E7006F013F061706E82A0C50D7AE
S3250000F900FA5A2B06A630A7B120F7AE6A9F93863E3F0133E4DF954F5FDD9BDD8FDD91C60276
S3250000F92034071704F6308D0623812E275A308D058B812F27528120231434026C5F812F2739
S3250000F9404F1704AD27026A5E1704D020E8800DA75D9EC2E6802A109EC25C27F710DE953088
S3250000F9608D01593F0220905AE15F24033A20E4315DA65F8002A75E5AA680A1A226EE6A5EF1
S3250000F98026F53AEC1E308B6D5D32C4AD1E16FF7A6D5E2BC83089FFAEDC9B20EB0455EA62E2
S3250000F9A00454F65EFE044205E6044304B004440536044506380447046B044C0576044D0487
S3250000F9C0A6044E0596044F05A304500548045202B00456057004570509FFA6803406C6107D
S3250000F9E03D8D043506840F8B90198940196E9D76D18DE78DE5AF648620203DA66181342223
S3250000FA0039109EC2EEA6EF64AF7E272EAFA6202A8D5D8D5F24FA4D27F9817F27F5A7610D9D
S3250000FA208F2617810D2604860A8DC20DC2260BA661308C09810A270F8DB30C903B04308CF9
S3250000FA40FC860D8DA8860A8DA4A680810426F88D1E8D061FA9E7E420E18D182405811826F3
S3250000FA600253398D0A8D0C24FA811827F44F396E9D764FAD9D764B847F394F2C8D5D0D8F50
S3250000FA8026340D902B29306C9CF82523308CEB3F02098E308D76023F058D172552068E25D1
S3250000FAA04E9E91274A301F9F9127448DAC254016049A17025B390F8F17038E3B3F2C4245F6
S3250000FAC04C4C2C2432302C454F54203B204552524F5220524553504F4E5345E68D75BE1F69
S3250000FAE09BA163272510DE97308CD13F038DC316FE078DE720F7DEC2A6C4442402A6413937
S3250000FB0086139EC2A7848615A784393447DEC28D1B81102712D6C2810D2602D6C34FE7E42E
S3250000FB208C8D096AE42AFA35C717FF43E6C4C50227F7A7413986116D6626014C3F010C8F6E
S3250000FB403986143F014A3F010A8F8E61A8301F26FC39EE626D662754327D3F00815326FAA8
S3250000FB603F0081392722813126F26FE48D21E7618D1DE7628D19A66231CB8D13270C6D69E4
S3250000FB802B02E7A4E1A027F235924C27CD20F98D12C6103D8D0D3404ABE01F89AB62A76220
S3250000FBA06A63393F0017025C27F835F2DEC2AE643456CC0018D7C23F01C604DDC2EC68A3E6
S3250000FBC062108300182502C6175CE7E4CB03E761308C333F035F30618D278D258D23AE628A
S3250000FBE08D1F6AE426FAAF6253E76130618D14AE68AC6224C8308C2E3F03EC64DDC24F3558
S3250000FC00D6EB8416FDD4532C312C454F5420202020202020203B2043522C4C462C4E554C25
S3250000FC204C532C532C31533930333030303046430D0A043F06C6063F075A26FB5F1F9817F1
S3250000FC40FDA53F073F075CC11025F23F06252D30643F05AE64C6103F045A26FB3F07AE64BF
S3250000FC60C610A6802B0481202402862E3F015A26F12409AF64A6654826D120B73F06398DBB
S3250000FC808F4C8D8D39502C412C302C31302020202020202020203B204120524547422C3032
S3250000FCA02C31312020202020202020203B204220524547582C2D312C3133202020202020C3
S3250000FCC020203B205820524547592C2D312C313520202020202020203B20592052454755B1
S3250000FCE02C2D312C313720202020202020203B205520524547532C2D312C31202020202058
S3250000FD00202020203B205320524547432C442C004F30E8103432318DFF6BECA04D2F043F82
S3250000FD200120F786203F0130E56DE426126D3F27033F058C3F04ECA05D26DF3F0635B28D91
S3250000FD40402710810D271EE63F5A50583F075A26FB20E3A7E4DC9B6D3F2602A682ED84A653
S3250000FD60E4810D26D1308D72E8C6153502A7805A26F910EE88ECC615A68234025A26F92007
S3250000FD80BC4F8C8620978E6E9D733734148D5C2718918E27F89E9E814D27169E9381502728
S3250000FDA0109EA08157270A35948D4427FC200AAE849F9B0D8E27F08D629E9B812B260E8D4C
S3250000FDC0233402DC9B308B9F9B350220EC812D2707814027DA5F20CF8D0A3402DC9B405055
S3250000FDE0820020E18D9D273216FB710F9B0F9C8D2A8D112625C6103D860458099C099B4AF8
S3250000FE0026F820148130251281392F0A8141250A814622068007840F1A04393F008118275F
S3250000FE20C7398D013B3530341026191701B6AE6C5A2B16A630ACA126F7813F260297FB0CC2
S3250000FE408F1601061700BBED6C17019800FA5A2BC9A6B4A730863FA7B120F38DC8357FADB6
S3250000FE60F13F0A20FC17009ADD9E9E9E17FB6B862D3F0117FF0B270A812C260E9F9E3001AD
S3250000FE8020F1D69C8D47812C27E98127260C8D8B8127270C1F898D3520F4812026069F9EF3
S3250000FEA03F0720C6810A2608860D3F019F9E200A815E260A301E9F9E3F068D0720AC812F2E
S3250000FEC027F6399E9E341030E43F0535909E9EE780E11F26039F9E393402863F3F013582F5
S3250000FEE08D20DDA0398D1BC4F01F02302F25048D1130AB343010A3622302EDE4AD9D71C22F
S3250000FF0035E017FE7E2609812F2205810EDC9B3916FA498DED1F028DE96FE23426AD9D711E
S3250000FF20A1AD9D719D3401AD9D7197350126E135B28D010133F133D427038DC68C4F5F3472
S3250000FF404E20DA8DEFFF8DBADD913262EEF80ADF99DEC2CC0701ED423B8DA7DDC239270511
S3250000FF608DA0DDF839306E9FF8398D961F018D9230013430A3E4EDE430611DA1E426023FE9
S3250000FF8004EEE4335FEF843F053F063596272317FDF1272C812D263F17FDE827030FFA390F
S3250000FFA08D405A2B32ACA126F9AEA1AF3C5A2AF90AFA8D2E27E930A13F055A26F93F0639B9
S3250000FFC08D20C1082711A684E784E1842609A7845A2B07ACA126F916F982AFA46F310CFA97
S3250000FFE020D09E9B318D70CAD6FA396FE25F308C3F3F00815B26068610A7E43F00810D27CA
S325000100000C6D842BD2A18126F8EB1F20EE308C3F1F988460AAE4A7E4C49F6D8427B9E18142
S3250001002026F8E61FEAE4E7E430E43F043F063584412C2430342C482C2430312C2D2C2430B5
S32500010040392C552C2435302C502C2438302CFF108411001288138914861585168B1780186C
S325000100608119821A83828C838D039F006E9D70526E9D704E6E9D704A6E9D70466E9D704227
S30D000100806E9D703E6E9D703A03
S3150000FFF0006C007000740078007C00800084F83784
