:020000040800F2
:10000000C00D002071020008290400082B0400081C
:100010002D0400082F04000831040008000000002F
:100020000000000000000000000000003304000891
:10003000350400080000000037040008E51E000831
:100040008B0200088B0200088B0200088B0200085C
:100050008B0200088B0200088B0200088B0200084C
:100060008B0200088B0200088B0200088B0200083C
:100070008B0200088B0200088B0200088B0200082C
:100080008B0200088B0200088B0200088B0200081C
:100090008B0200088B0200088B0200088B0200080C
:1000A0008B0200088B0200088B0200088B020008FC
:1000B0008B0200088B0200088B0200088B020008EC
:1000C0008B0200088B0200088B0200088B020008DC
:1000D0008B0200088B0200088B020008EF21000849
:1000E0008B0200088B0200088B0200088B020008BC
:1000F0008B0200088B0200088B0200088B020008AC
:100100008B0200088B0200088B0200088B0200089B
:100110008B0200088B0200088B0200088B0200088B
:100120008B0200088B0200088B0200088B0200087B
:100130008B0200088B0200088B0200088B0200086B
:100140008B0200088B0200088B0200088B0200085B
:100150008B0200088B0200088B0200088B0200084B
:100160008B0200088B0200088B0200088B0200083B
:100170008B0200088B0200088B0200088B0200082B
:100180008B0200088B02000800F002F800F061F812
:100190000AA090E8000C82448344AAF10107DA45E2
:1001A00001D100F056F8AFF2090EBAE80F0013F0D3
:1001B000010F18BFFB1A43F0010318473423000056
:1001C000542300000A444FF0000C10F8013B13F0D8
:1001D000070408BF10F8014B1D1108BF10F8015BA0
:1001E000641E05D010F8016B641E01F8016BF9D193
:1001F00013F0080F1EBF10F8014BAD1C0C1B09D1EA
:100200006D1E58BF01F801CBFAD505E014F8016B5B
:1002100001F8016B6D1EF9D59142D6D370470000ED
:100220000023002400250026103A28BF78C1FBD8FF
:10023000520728BF30C148BF0B607047642902F0E5
:100240006380002070471FB502F04DF91FBD10B547
:1002500010BD02F012F91146FFF7F5FF00F04CF85F
:1002600002F030F903B4FFF7F2FF03BC02F034F9F7
:100270000948804709480047FEE7FEE7FEE7FEE73A
:10028000FEE7FEE7FEE7FEE7FEE7FEE70448054976
:10029000054A064B70470000390400088901000830
:1002A000C0070020C00D0020C0090020C0090020A8
:1002B00008B540218DF800108DF8010002236A4630
:1002C0003E214C4801F0CBFD08BD10B5044602E0CC
:1002D000641CFFF7EDFF20780028F9D110BD08B5A8
:1002E00000218DF800108DF8010002236A463E219E
:1002F000404801F0B4FD08BD4FF4822588B00024C9
:100300000121284601F0FFFC0121284601F038FDBB
:100310000021284601F034FD0A2001F0BCFC012137
:10032000284601F02DFD142001F0B5FC00212846DF
:1003300001F026FD282001F0AEFC0121284601F045
:100340001FFD2D492B4801F04CFD1B2001F07EFCC8
:100350003820FFF7C4FF1B2001F078FC3920FFF79D
:10036000BEFF1B2001F072FC1420FFF7B8FF1B201A
:1003700001F06CFC7820FFF7B2FF1B2001F066FC57
:100380005620FFF7ACFF1B2001F060FC6C20FFF74C
:10039000A6FFC82001F07FFC3820FFF7A0FF0C204B
:1003A000FFF79DFF1B2001F051FC0120FFF797FF95
:1003B000022001F070FC11A0FFF787FFC020FFF7BB
:1003C0008EFF11A0FFF781FFC020FFF788FF11A06B
:1003D000FFF77BFFC020FFF782FF224610A168468F
:1003E00001F048FF6846FFF770FF641C642001F0CD
:1003F00052FCE9E700540040A086010048692066ED
:100400007269656E647321004D7920576F726C6458
:1004100021000000202020202020202000000000BB
:100420003E202564000000007047FEE7FEE7FEE77F
:10043000FEE7704770477047504810B5016841F4B7
:10044000700101604E48016841F0010101604C4AB1
:1004500000210832116002684A4B1A400260031DF5
:10046000494A1A60026822F48022026044480C3033
:10047000016000F03CF841494FF0006080390860AD
:1004800010BD70B53E4D08352868404B404910F00E
:100490000C0004D05E10042803D0082803D00B60A1
:1004A0001BE00E6019E0364A121D1068C0F380543C
:1004B000106800F03F0014B1B6FBF0F001E0B3FBB0
:1004C000F0F013681268C3F388135843C2F3014273
:1004D000521C5200B0FBF2F0086028682C4AC0F3AE
:1004E0000310121D105C0A68C2400A6070BD244AE5
:1004F0000020116841F4803111604FF4A06311684D
:1005000000F1010011F4003F01D19842F7D11068C9
:10051000800331D51A484030016841F080510160B4
:100520001C48016841F480410160154808300168A9
:100530000160016841F400410160016841F4A0518B
:100540000160031F14491960116841F08071116046
:1005500011688901FCD5114A40F2056111600168FA
:1005600021F003010160016841F0020101600168AE
:10057000C1F381010229FAD17047000088ED00E043
:1005800000380240FFFFF6FE103000240024F40083
:10059000000000200070004019544007003C024059
:1005A0002749084327490860704770B50F23017831
:1005B000426801254FF0E026E2B1224A126802F4B7
:1005C000E062C2F5E062C2F30722C2F10404D34044
:1005D0004278A24084781C401B4B14432201CA5429
:1005E000007800F01F018D40400906EB8000C0F844
:1005F000005170BD01F01F008540480906EB8000E6
:10060000C0F8805170BD114A114001430D48001FD0
:10061000016070470B4A121D0029116801D0014387
:1006200000E08143116070474FF0E0210428086921
:1006300003D020F004000861704740F00400FAE79E
:100640000000FA050CED00E000E400E080FFFF1F71
:100650006F4910B5884206D10121084600F0CFFB52
:10066000002101204FE06B49884206D10121022080
:1006700000F0C5FB0021022045E06749884206D111
:100680000121042000F0BBFB002104203BE0634972
:10069000884206D10121082000F0B1FB002108208A
:1006A00031E05F49884206D10121102000F0A7FB0C
:1006B0000021102027E05B49884206D1012120203B
:1006C00000F09DFB002120201DE05749884206D103
:1006D0000121402000F093FB0021402013E053490A
:1006E000884206D10121802000F089FB0021802072
:1006F00009E04F4988420AD184150121204600F0C3
:100700007EFB00212046BDE8104000F078BB10BD04
:10071000F0B5002201274FF0030C0B6807FA02F531
:100720002B40AB422CD1066853000CFA03F4A643CD
:1007300006604E68D0F800E09E4046EA0E0606606D
:100740004E68012E01D0022E12D18668A643866023
:100750008E68D0F808E09E4046EA0E06866046683D
:10076000AE43466045688E899640B6B235434560D3
:10077000C568A543C5600C699C40C3681C43C46040
:10078000521C102AC9D3F0BD4FF6FF710160002141
:1007900041608160C1600161704741F48032C26193
:1007A000C161C261C169C069704702460020126917
:1007B0000A4200D001207047006980B270470246AB
:1007C000002052690A4200D001207047406980B27F
:1007D000704701837047418370470AB101837047B6
:1007E000418370474161704742694A4042617047A6
:1007F0004B07DB0E9A40C90810B500EB8100016A77
:100800000F249C40A1430162016A1143016210BDA3
:10081000000002400004024000080240000C0240B8
:10082000001002400014024000180240001C024068
:1008300000200240C44910B5884202D101214C0574
:100840000AE0C249884202D101218C0504E0C04976
:1008500088420AD10121CC05204600F0EEFA20465C
:10086000BDE81040002100F0E8BA10BD7FB5044695
:1008700080880D4620F03F06684600F02AFAB54908
:100880000298B0FBF1F189B20E43A680228822F0D3
:1008900001022280B04B2A689A421BD85200B0FB5A
:1008A000F2F080B2042800D20420491C2184A083E5
:1008B000208840F00100208020884FF6F531084064
:1008C000A9886A89114301432180A889298908439D
:1008D00020817FBDEB88A3F53F46FF3E05D102EBAB
:1008E0004202B0FBF2F080B208E002EBC20303EB7D
:1008F0000212B0FBF2F080B240F48040020501D158
:1009000040F001004FF4967251434FF47A72B1FBFC
:10091000F2F140F40040C8E741F288310160002163
:1009200081804BF6FF72C280018141814FF480418A
:10093000818170470029018802D041F0010101E066
:1009400021F00101018070470029018802D041F4A3
:10095000807101E021F480710180704700290188D5
:1009600002D041F4007101E021F400710180704770
:1009700012B141F0010101E001F0FE010182704776
:100980000029018802D041F4806101E021F48061F6
:1009900001807047828901F0FE0122F0FE021143BE
:1009A000818170470029818902D041F0010101E075
:1009B00021F00101818170470029018802D041F0B6
:1009C000400101E021F040010180704700290188C9
:1009D00002D041F4004101E0C1F30E0101807047F3
:1009E0000029018803D021F080010180704741F087
:1009F0008001FAE7B1F5804F818B02D021F480416C
:100A000001E041F4804181837047B1F5006F0188B6
:100A100003D021F400610180704741F40061FAE7DE
:100A2000B1F5005F018803D021F4005101807047C7
:100A300041F40051FAE70029018802D041F0100189
:100A400001E021F010010180704701827047008AA7
:100A5000C0B270470029018802D041F4805101E002
:100A600021F4805101807047B1F5006F018803D0F7
:100A700021F400610180704741F40061FAE7002928
:100A8000018802D041F0200101E021F02001018025
:100A90007047008B000A70470029818802D041F41A
:100AA000006101E021F400618180704700298188A4
:100AB00002D041F4805101E021F4805181807047DF
:100AC000405A7047002A828801D00A4300E08A43D6
:100AD00082807047034600209A8A1B8B42EA0342B9
:100AE00022F07F42914300D101207047818A008B20
:100AF00041EA004121F07F40704700220B0F21F0B6
:100B00007F4101D0143001E0090C18300068084220
:100B100000D0012210467047C9438182704710B54A
:100B200002460020938801F0E064928A03EA1443AD
:100B300021F07F410A4202D0002B00D0012010BDDD
:100B4000C9438182704700000054004000580040B3
:100B5000005C004040420F00A0860100E9480168A7
:100B600041F001010160E74A00210832116002688A
:100B7000E54B1A400260031DE44A1A60026822F441
:100B800080220260DF480C3001607047DD4900229E
:100B9000891C0A700870704702460020510901291B
:100BA0000CD002290CD0D7497431096802F01F0219
:100BB000012393400B4200D001207047D149F4E754
:100BC000D0497031F1E730B500244FF4A0653120F1
:100BD000FFF7E2FF641CAC4201D00028F7D03120BF
:100BE000FFF7DAFF002800D0012030BDC54A1168A8
:100BF00021F0F80141EAC00010607047C449086064
:100C00007047C049002270310A700A70012802D072
:100C1000042801D1052008707047BE49086070475C
:100C200041EA82115A0810B5BB4B029C03EB024209
:100C30001143014341EA0460B249091D086010BD37
:100C4000B34908667047800140EA0170AD498431BC
:100C500008607047AE4988667047AD49C864704700
:100C6000A84B08331A68084322F0EC62104318605E
:100C70007047A44B08331A68084322F078421043A7
:100C8000186070479F4A0832116821F00301014340
:100C9000116070479B480830006800F00C007047F6
:100CA000984A0832116821F0F00101431160704741
:100CB000944A0832116821F4E051014311607047F1
:100CC000904A0832116821F4604141EAC000106086
:100CD000704770B58B4B08331968904C11F00C01BC
:100CE00004D06610042903D0082903D004601BE057
:100CF000066019E0834A121D1168C1F3805511681E
:100D000001F03F0115B1B6FBF1F101E0B4FBF1F1E7
:100D100014681268C4F388146143C2F30142521C80
:100D20005200B1FBF2F1016019687D4A01F0F00157
:100D30000909545C0168E14041601C6804F4E05416
:100D4000A40A145D21FA04F484601B6803F4604370
:100D50005B0BD25CD140C16070BDC0F3012103299F
:100D600008D1684B083319686E4A21F4F811024023
:100D70000A431A60634970310A68C0F30B000243EA
:100D80000A607047634944390860704761494039D7
:100D9000086070476449086070475A4A3032002939
:100DA000116801D0014300E0814311607047554A4A
:100DB00034320029116801D0014300E08143116001
:100DC0007047504A38320029116801D0014300E0D1
:100DD0008143116070474B4A40320029116801D0AD
:100DE000014300E0814311607047464A44320029C4
:100DF000116801D0014300E0814311607047414A0E
:100E000010320029116801D0014300E081431160D4
:100E100070473C4A14320029116801D0014300E0B8
:100E2000814311607047374A18320029116801D098
:100E3000014300E0814311607047324A20320029AB
:100E4000116801D0014300E08143116070472D4AD1
:100E500024320029116801D0014300E08143116070
:100E60007047284A50320029116801D0014300E040
:100E7000814311607047234A54320029116801D020
:100E8000014300E08143116070471E4A5832002937
:100E9000116801D0014300E0814311607047194A95
:100EA00060320029116801D0014300E081431160E4
:100EB0007047144A64320029116801D0014300E0F0
:100EC0008143116070470F4A0D320029117801D01B
:100ED000014300E08143117070470A487430016893
:100EE00041F08071016070470146064A00200C32D3
:100EF00012680A4200D00120704702490E31087082
:100F00007047000000380240FFFFF6FE103000245A
:100F100000004742800E47420000FFFF0024F4001B
:100F200014000020FFFCFF0F5C014742FE4910B592
:100F3000884206D101210846FFF789FF00210120E0
:100F40005BE0B0F1804F09D0F84988420DD1012112
:100F50000220FFF772FF0021022070E00121084605
:100F6000FFF76BFF0021012069E0F149884206D1BB
:100F700001210420FFF761FF002104205FE0ED491B
:100F8000884206D101210820FFF757FF00210820E1
:100F900055E0E949884206D101211020FFF74DFFB5
:100FA000002110204BE0E549884206D10121202094
:100FB000FFF743FF0021202041E0E149884206D1AC
:100FC00001210220FFF743FF0021022015E0DD4947
:100FD000884202D101210C040AE0DB49884202D197
:100FE00001214C0404E0D94988420AD101218C0432
:100FF0002046FFF72CFF00212046BDE81040FFF7F8
:1010000026BFD349884206D101214020FFF715FFB2
:101010000021402013E0CF49884206D101218020E1
:10102000FFF70BFF0021802009E0CB4988420AD15D
:10103000841501212046FFF700FF00212046BDE86E
:101040001040FFF7FABE10BD30B50288B64CBC4D5B
:10105000A0420DD0A8420BD0B0F1804F08D0B34BC6
:10106000984205D0B24B984202D0B24B984203D17D
:1010700022F070034A881A43AF4B984206D0AF4B18
:10108000984203D022F440730A891A4302804A68C6
:10109000C2620A880285A04201D0A84201D1897AA1
:1010A00001860121818230BD4FF0FF314160002176
:1010B0000180018141808172704701858282704781
:1010C000028822F070020A43028070474162704732
:1010D000C1627047406A7047008D704700290188DF
:1010E00002D041F0020101E021F0020101807047CD
:1010F0000029018802D041F0040101E021F004013F
:10110000018070470029018802D041F0800101E090
:1011100021F0800101807047028822F008020280DD
:1011200002880A4302807047028822F440720280DB
:1011300002880A43028070470029018802D041F0EA
:10114000010101E021F001010180704730B5028CFE
:1011500022F001020284028C8388048B22F00202B6
:1011600024F073050C882C438D8915434A882A4343
:101170006D4DA84202D0724DA8420DD122F0080553
:10118000CA8923F440732A4322F004058A882A433B
:101190000D8A1D434B8A2B438380048389684163F6
:1011A000028430BD70B5028C22F010020284028CE1
:1011B0008388048B0D8824F4E6464FF6FF7404EA16
:1011C000052535438E8922F0200204EA06161643CF
:1011D0004A8804EA02123243534EB04202D0584EBB
:1011E000B04215D122F08006CA8923F4406304EA94
:1011F0000212324322F040068A8804EA0212324385
:101200000E8A04EA86061E434B8A04EA83033343AC
:101210008380058389688163028470BD70B5028C08
:1012200022F480720284028C8388848B0D8824F0DF
:10123000730425438E894FF6FF7422F4007204EA8A
:10124000062616434A8804EA02223243364EB0424A
:1012500002D03B4EB04215D122F40066CA8923F475
:10126000405304EA0222324322F480668A8804EA68
:10127000022232430E8A04EA06161E434B8A04EA0F
:1012800003133343838085838968C163028470BDFF
:1012900070B5028C22F480520284058C8288838B84
:1012A0000C8823F4E6464FF6FF7303EA0424344324
:1012B00025F400568D8903EA053535434E8803EA47
:1012C00006362E43184DA84202D01D4DA84205D126
:1012D00022F480450A8A03EA82122A4382808483A8
:1012E00089680164068470BD00210180418081808D
:1012F00081608181C18101824182704730B50124C2
:10130000058C00F118038C40A543058431B30829EE
:101310002CD0091FC1F34E001844016848F6FF7332
:101320001940016001681AE000000140000400401B
:1013300000080040000C0040001000400014004075
:1013400000040140004001400044014000480140C9
:1013500000180040001C00400020004006E04FF64E
:10136000FF7303EA02221143016030BD03EB510019
:1013700001684FF68F73194001600168F3E741631C
:10138000704781637047C163704701647047028B87
:1013900022F070020A4302837047028B4FF6FF73FC
:1013A00022F4E04203EA0121114301837047828B5A
:1013B00022F070020A4382837047828B4FF6FF73DC
:1013C00022F4E04203EA0121114381837047028B3A
:1013D00022F008020A4302837047028B4FF6FF7324
:1013E00022F4006203EA0121114301837047828BDA
:1013F00022F008020A4382837047828B4FF6FF7304
:1014000022F4006203EA0121114381837047028BB9
:1014100022F004020A4302837047028B4FF6FF73E7
:1014200022F4806203EA0121114301837047828B19
:1014300022F004020A4382837047828B4FF6FF73C7
:1014400022F4806203EA0121114381837047028BF9
:1014500022F080020A4302837047028B4FF6FF732B
:10146000C2F30E0203EA0121114301837047828B0C
:1014700022F080020A4382837047828B4FF6FF730B
:10148000C2F30E0203EA0121114381837047028CEB
:1014900022F002020A4302847047028C22F0080202
:1014A0000A4302847047028C4FF6FF7322F0200239
:1014B00003EA0111114301847047028C4FF6FF7358
:1014C00022F0800203EA0111114301847047028C6B
:1014D0004FF6FF7322F4007203EA012111430184E5
:1014E0007047028C4FF6FF7322F4006203EA012179
:1014F000114301847047028C4FF6FF7322F40052AF
:1015000003EA013111430184704710B50123048CB3
:101510008B409C430484038C8A401343038410BD96
:1015200010B50423048C8B409C430484038C8A40B4
:101530001343038410BD828B22F440628283828B2A
:101540004FF6FF7303EA01210A4382837047828BBF
:1015500022F00C028283828B0A4382837047028BC3
:1015600022F440620283028B4FF6FF7303EA0121EB
:101570000A4302837047F0B5048C24F010040484FD
:10158000078B068C4FF6FF7404EA011527F47347A6
:1015900004EA0331394304EA02220A4326F0A00197
:1015A000294341F0100102830184F0BD028B22F037
:1015B0000C020283028B0A43028370472DE9F0413B
:1015C0000C460E884988A288238905460EB3042E4E
:1015D00026D0082E2E8C4FF6FF7028D026F4805689
:1015E0002E84AF8B2E8C00EA022200EA013127F410
:1015F00073473A4300EA0330104326F420420A437B
:1016000042F48051A8832984E1882846BDE8F0414E
:1016100091E700F061F9E1882846BDE8F041C5E7AF
:10162000FFF7A9FFE1882846BDE8F04197E726F4D7
:1016300080762E84AF8B2E8C00EA012100EA031005
:10164000104327F0F307384326F420620A4342F49C
:101650008071A8832984E1882846BDE8F04176E7B7
:1016600000210180418001228280C1800181704778
:101670002DE9F0410C46002549880746012601B9AD
:101680000225A288012A00D1022620882389002869
:10169000384610D0FFF76FFFE1883846FFF75FFF4D
:1016A000238932462946384600F016F9E188384643
:1016B000BDE8F0417AE700F00FF9E1883846FFF71E
:1016C00075FF2389324629463846FFF754FFE188E3
:1016D0003846BDE8F04142E7406B7047806B704789
:1016E000C06B7047006C704710B50A884B88CC8877
:1016F0001A438B8823431A430B891A434B898989E0
:101700001A430A43A0F8442010BD00210180418003
:101710008180C1800181418181817047002930F839
:10172000441F02D041F4004101E0C1F30E010180E9
:1017300070470029818802D041F0040101E021F0C6
:101740000401818070470029818802D041F00101A5
:1017500001E021F0010181807047002A828901D0D7
:101760000A4300E08A4382817047818270470246C3
:101770000020128A0A4200D001207047C94301822A
:101780007047034600201A8A9B890A4203EA010334
:1017900002D0002B00D001207047C943018270475E
:1017A0001143A0F848107047002A828901D00A43EB
:1017B00000E08A43828170470029818802D041F08D
:1017C000080101E021F0080181807047018921F0C2
:1017D000070101817047028922F070020A430281E9
:1017E000704700B50346FFF7F6FF188940F0070081
:1017F000188100BD70B50D4611460446602D4FF0AE
:1018000001020AD000F068F829462046FFF7E3FFFE
:10181000208940F00700208170BDFFF7ACFEF3E7A0
:1018200030B504894FF6FF7505EA03231343E4B28C
:101830000B432343038130BD10B50446FFF7F0FF8F
:10184000208940F07700208110BD10B50446FFF7D5
:10185000E7FF208940F48040208110BD828822F07B
:101860007002828082880A4382807047028922F057
:101870000702028102890A4302817047028922F02D
:101880008002028102890A430281704770B505898E
:10189000048B068C25F007050D434FF6FC410C40E8
:1018A00040F201110C434FF6FF7101EA031126F0DB
:1018B00022061143314305810483018470BD002950
:1018C000818802D041F0800101E021F08001818017
:1018D0007047A0F85010704770B5048C24F00104D4
:1018E0000484058B048C4FF6FF7606EA031313433A
:1018F00025F0F3052B4324F00A020A4342F00101CC
:101900000383018470BD0000CA4910B5884206D126
:1019100001211020FFF79BFA0021102028E0C64982
:10192000884202D101214C0410E0C449884202D10E
:1019300001218C040AE0C249884202D10121CC0471
:1019400004E0C04988420AD101210C052046FFF776
:1019500074FA2046BDE810400021FFF76EBABA497C
:10196000884209D101212020FFF771FA00212020AF
:10197000BDE81040FFF76BBA10BD7FB50446008A82
:101980000D46C98820F4405001432182A08941F2CC
:101990000C618843A9882A8911436A89024311434B
:1019A000A181A08A20F44071A8890843A0826846DA
:1019B000FFF78FF99F48844202D0A348844201D1A7
:1019C000039800E00298A1890904002900EBC001F6
:1019D00001EB0010296802DA4FEA410101E04FEA09
:1019E0008101B0FBF1F06422B0FBF2F14FEA01118A
:1019F0004FEA11136FF018056B4300EB8300A389C6
:101A00001D044FF0320306D503EBC000B0FBF2F02B
:101A100000F0070005E003EB0010B0FBF2F000F06F
:101A20000F00084320817FBD4FF416510160002153
:101A30008180C18001810C2242818181704710B573
:101A4000028A4C8822F470630A8822438C88C988F1
:101A50000C4322431A43028210BD002101804180C1
:101A60008180C18070470029818902D041F40051F2
:101A700001E021F4005181817047028B02F47F4222
:101A80000283028B0A43028370470029818902D0B6
:101A900041F4004101E0C1F30E018181704700294A
:101AA000818A02D041F4006101E021F40061818269
:101AB0007047C1F30801818070478088C0F3080037
:101AC0007047028A22F00F020282028A0A430282CF
:101AD00070470029818902D041F0020101E021F024
:101AE000020181817047828922F4006282818289A9
:101AF0000A4382817047028A22F020020282028A0F
:101B00000A43028270470029018A02D041F48041D1
:101B100001E021F4804101827047818941F0010197
:101B2000818170470029818A02D041F0080101E0DB
:101B300021F0080181827047028BD2B20283028BAE
:101B400042EA0121018370470029818A02D041F0D5
:101B5000200101E021F02001818270470029818A63
:101B600002D041F0100101E021F0100181827047A4
:101B7000828A22F004028282828A0A438282704729
:101B80000029818A02D041F0020101E021F0020126
:101B900081827047002A828A01D00A4300E08A438A
:101BA0008282704710B5C1F3421301F01F04012176
:101BB000A140012B07D0022B07D01430002A026865
:101BC00005D00A4304E00C30F8E71030F6E78A430A
:101BD000026010BD0246002012880A4200D0012097
:101BE0007047C9430180704770B501F01F05012699
:101BF0000024C1F3421306FA05F2012B0FD0022B89
:101C00000FD0838A4FEA11210088134206FA01F6A9
:101C100000EA060001D000B10124204670BD83898E
:101C2000F0E7038AEEE70A0A01219140C9430180E7
:101C30007047000000100140004400400048004090
:101C4000004C0040005000400014014010B5044614
:101C500001210846FFF7BFF82248014644604FF0D3
:101C600080442046FFF7F0F908212046FFF754FA98
:101C700002212046FFF72AFA01212046FFF75CFAED
:101C80002046FFF727FA0028FAD12046BDE8104089
:101C90000021FFF751BA10B5044601210846FFF7AD
:101CA0009AF810480C30014644604FF080442046BA
:101CB000FFF7CAF908212046FFF72EFA0221204635
:101CC000FFF704FA01212046FFF736FA2046FFF716
:101CD00001FA0028FAD12046BDE810400021FFF7A4
:101CE0002BBA00002400002082B2012100204FF610
:101CF000FF73914206D0401CC0B203EA4101102894
:101D0000F7D31020704770B505462D48C5F303443E
:101D10000E4686B050F824000121FFF73EF8A8B225
:101D2000CDE9000600200390049002200290244890
:101D30006946283050F82400FEF7EAFC06B070BD72
:101D40002DE9F04305461E4885B0C5F303440F4610
:101D50001E46904650F824000121DDF83090FFF730
:101D60001CF8A8B28DE881011548CDE90369283037
:101D7000694650F82400FEF7CBFC05B0BDE8F083BF
:101D80000F4BC0F303422833002953F8222081B2BD
:101D9000104601D0FEF71DBDFEF71DBDFEF722BDAA
:101DA00010B502684B00DA40D2B2012A05D0FEF726
:101DB000FCFC002800D0012010BDFEF700FDF8E774
:101DC0003C0000204149884209D04149884201D164
:101DD000012070473F49884201D10220704700200E
:101DE0007047F0B585B00E460746FFF7EBFF3A495E
:101DF000002500EB400001EBC004009551F83000D5
:101E0000D4F804C002224CEA000001231146FFF777
:101E100097FF0121A068FEF7DEFFA27D217DE0682B
:101E2000FEF7E6FCA27D617D2069FEF7E1FCADF8DE
:101E300008504BF6FF70ADF80A004FF48060ADF823
:101E40000E000001ADF81000012138460196FEF7A2
:101E500071FD01A93846FEF709FD05B0F0BD2DE979
:101E6000F0470C461D46164681460121FEF76CFDE3
:101E70001A4F48463946FEF72DFE0028F9D0600675
:101E8000010E00224846FEF773FD154C48462146D8
:101E9000FEF720FE0028F9D0114F0024BF1CDFF808
:101EA0002C800BE0315D4846FEF7CFFD39464046B9
:101EB000FEF710FE0028F9D0641CA4B2AC42F1D3A6
:101EC0004846BDE8F0470121FEF748BD00540040F8
:101ED00000580040005C00408C000020010003001E
:101EE0008200070014480168491C016070471249CC
:101EF0000A680B689B1A8342FBD370471FB568467C
:101F0000FEF7E7FE01984FF47A71B0FBF1F0B0F103
:101F1000807F0CD220F07F414FF0E020491E4161CC
:101F2000064AF021117000218161072101611FBD66
:101F30000148006870470000D400002023ED00E055
:101F400000F5807000210180418081807047B0F8E9
:101F500004017047B0F90011B0F90221914204D197
:101F6000B0F8040108B1012070470020704710B597
:101F70000C460346FFF7EEFF10B14FF6FF7010BDA1
:101F8000B3F900014100401CA3F800015C5203F5C5
:101F900080739888401C9880B3F90000C11700EB4B
:101FA000516121F07F01401A1880204610BDB0F821
:101FB0000421A2B1B0F90211521E4B00491C09B212
:101FC000A0F80211C35AA0F80421CA1701EB52620B
:101FD00022F07F02891AA0F80211184670474FF6C6
:101FE000FF7070479A4988420ED09A49884201D1C1
:101FF000012070479849884201D1022070479749D3
:10200000884201D105207047002070472DE9F0413A
:1020100088B00E468046FFF7E5FF054606285BD0F0
:102020008F49012705EB4500009701EBC00451F8EB
:1020300030C0606802224CEA000000231146FFF71E
:102040007FFE0121A068FEF7C6FEA27C617CE068ED
:10205000FEF7CEFBA27C217CE068FEF7C9FB01966F
:102060000026ADF80C600C20ADF80860ADF80E004D
:10207000ADF80A60ADF8106001A94046FFF77DFC9D
:10208000012240F225514046FFF78CFD002240F22C
:1020900027714046FFF786FD207D8DF814008DF8EE
:1020A00015608DF8166005A80697FEF77EFA05EB19
:1020B000450000EBC5126B4800EB4200FFF740FF04
:1020C000694800EB4200FFF73BFF01214046FFF764
:1020D000CAFC08B0BDE8F081FEE770B50C460546C5
:1020E00080212846FFF776FD0028F9D021462846B2
:1020F000BDE87040FFF7DDBC70B50E4640F22774B6
:10210000054600222146FFF74DFD31465748FFF7AF
:102110002EFF21462846BDE870400122FFF742BD50
:1021200070B50C46054603E0641C2846FFF7E4FF43
:1021300021780029F8D170BDFFF7BFBC00B54C482D
:10214000FFF735FFA0F57F41FF3900D1002000BD2A
:1021500070B540F22554064600222146FFF722FDC5
:102160004348FFF7EDFE21463046FFF75CFD0122B4
:1021700021463046FFF716FD40F22775002229461A
:102180003046FFF70FFD394C12E080213046FFF753
:1021900021FD0028F9D02046FFF709FF014630460F
:1021A000FFF787FC40213046FFF714FD0028F9D0E7
:1021B000B4F804010028E8D129463046FFF733FD82
:1021C0002046BDE87040BBE62648B0F8100338B1A1
:1021D0002448B0F90E1300EB4100B0F80C02704730
:1021E0004FF6FF7070471F48B0F81003704770B586
:1021F000194C40F225512046FFF7F6FC30B120463D
:10220000FFF75BFC01461A48FFF7B1FE40F2277565
:1022100029462046FFF7E8FC002817D01248B0F8FE
:10222000100340B11148FFF7C2FE01462046BDE849
:102230007040FFF73EBC002229462046FFF7B2FC63
:1022400029462046BDE87040FFF7EDBC70BD000098
:1022500000100140004400400048004000140140CC
:10226000D8000020380100204A0400205606002033
:10227000440300200FB41CB5074B06AA7B446946F3
:102280000090059800F0E1F80020694600F0F0F8B1
:102290001CBC5DF814FB0000F10100002DE9F041C9
:1022A00004460E46002020622046E168884738B385
:1022B000252806D0D4E901219047206A401C2062DD
:1022C000F2E7E168204600278847050018D0A5F10D
:1022D0004100192802D820354FF4006732462946BC
:1022E00020462760FDF7AAFF40B1012804D0F61D63
:1022F00026F007060836D7E7361DD5E72846D9E782
:10230000206ABDE8F08100002DE9F0410646002476
:1023100010687529314616A511D0AFF3008000284A
:1023200003DAC0F1000013A507E031688A0701D580
:1023300011A502E0490704D510A5012401E0AFF37F
:10234000008000210A2306F1240707E0B0FBF3F226
:1023500003FB1200303078541046491C0028F5D198
:1023600023462A463046BDE8F04100F00CB8000094
:10237000000000002D0000002B00000020000000E5
:102380007047704770472DE9F0470D4699469246D1
:10239000044600F124080168880604D5E06921F0AC
:1023A0001001216000E00120A84202DDA0EB05073A
:1023B00000E00027A16907EB050202EB0900A1EB91
:1023C0000000A0612078C00602D42046AFF3008050
:1023D000002608E0D4E901211AF806009047206A97
:1023E000401C761C20624E45F4DB2078C0060AD5DE
:1023F0002046AFF3008006E0D4E901213020904769
:10240000206A401C2062381EA7F10107F4DC07E0B7
:10241000D4E9012118F805009047206A401C206289
:10242000281EA5F10105F3DC2046AFF300802078DB
:10243000000602D50220BDE8F0870120FBE700007E
:1024400001694A1C02610878704700B58FB0CDE978
:1024500001310021059105497944CDE90310114668
:102460006846FFF71BFF0FB000BD0000E5FFFFFF50
:102470000A6802F8010B0A607047754600F028F8F8
:10248000AE4605006946534620F00700854618B061
:1024900020B5FDF7FBFEBDE820404FF000064FF0F1
:1024A00000074FF000084FF0000B21F00701AC4689
:1024B000ACE8C009ACE8C009ACE8C009ACE8C009A8
:1024C0008D4670470446AFF300802046FDF7CAFEF4
:1024D000004870475C07002001491820ABBEFEE7AA
:1024E0002600020070474FF04070E1EE100A70477E
:1024F000102500080000002038010000C401000879
:10250000B825000838010020880C000020020008CF
:1025100011847A030A680901020304060708090CFA
:102520006910B22AE310A43201320232042A0820D0
:1025300031322032406A8021511302401A04041AB9
:1025400008041A0C041A10041A14041A18041A1C89
:10255000041A20041B020238294E1942292C19049E
:102560001B09065A1A08142A0418195659181B0B65
:102570000A181B0203602961196A295819642B097A
:10258000088A299119183B0201902918140A090791
:102590003A25A41A01AC69B6160240030207422686
:1025A00079641940396012073A27263A010249E254
:0825B00014024001491800006B
:040000050800018965
:00000001FF
