:020000040800F2
:1000000000000220314501087545010875450108C9
:100010007545010875450108754501080000000097
:10002000000000000000000000000000754501080D
:100030007545010800000000754501089D0A00088B
:1000400075450108754501087545010875450108A4
:100050007545010875450108754501087545010894
:100060007545010875450108754501087545010884
:100070007545010875450108754501087545010874
:100080007545010875450108754501087545010864
:100090007545010875450108754501087545010854
:1000A0007545010875450108754501087545010844
:1000B0007545010875450108754501087545010834
:1000C0007545010875450108754501087545010824
:1000D0007545010875450108754501087545010814
:1000E0007545010875450108754501087545010804
:1000F00075450108754501087545010875450108F4
:1001000075450108754501087545010875450108E3
:1001100075450108754501087545010875450108D3
:1001200075450108754501087545010875450108C3
:1001300075450108754501087545010875450108B3
:1001400075450108754501087545010875450108A3
:100150007545010875450108754501087545010893
:100160007545010875450108754501087545010883
:100170007545010875450108754501087545010873
:080180007545010875450108F1
:100188002DE9F041002604460D469046374606E024
:100198002368A95D1B682046984701363F184645E5
:1001A800F6D13846BDE8F081036870B505460846C3
:1001B8000E465C680DF020ED314602462846A04701
:1001C80070BD08B503681B68984708BD38B50D2190
:1001D8000546FFF7F6FF0A2104462846FFF7F1FF18
:1001E800001938BD38B50446FFF7DEFF054620463E
:1001F800FFF7ECFF401938BD38B50446FFF7E1FFBB
:1002080005462046FFF7E2FF401938BD70B58AB0B1
:1002180000238DF824300446012A98BF0A220DF1E4
:10022800230300E00146B1FBF2F000FB1211C9B252
:1002380009291E4601D8303100E03731C9B203F828
:1002480001190028EED1236830465D680DF0D4EC22
:10025800314602462046A8470AB070BD10B504468C
:1002680022B90268C9B21268904710BDD2B2BDE87F
:100278001040CBE738B50446FFF7F0FF05462046A7
:10028800FFF7A4FF401938BDE8E738B50446FFF783
:10029800E5FF05462046FFF799FF281838BDDDE73A
:1002A80038B50446FFF7DAFF05462046FFF78EFF0C
:1002B800281838BDF8B506460D46144622B9036815
:1002C800C9B21B689847F8BD0A2A0CD100290BDA75
:1002D8002D21FFF776FF6942074622463046FFF791
:1002E80095FFC019F8BDD2B2BDE8F8408EE738B521
:1002F8000446FFF7DFFF05462046FFF767FF401972
:1003080038BDD7E738B50446FFF7D4FF0546204681
:10031800FFF75CFF281838BD2DE9F84F1946074646
:1003280090461D461046002300229DF8286009F0DB
:10033800B6EC38B138462D21FFF743FF05F10045EB
:10034800814600E0814600240022294B09E010463E
:1003580019460022274B09F02AEB013402460B46C6
:10036800E4B2B442F3D14046294608F0D0EF8B46B8
:10037800824609F0F2EC044609F050E902460B46C1
:100388005046594608F0C0EF0A2282468B46384646
:100398002146FFF763FF00EB09042EB338461649E0
:1003A800FFF702FF24181DE0124B00225046594661
:1003B80009F0B4E98946804609F0A0EC05460A220E
:1003C80029463846FFF776FF2418284609F038E909
:1003D80002460B464046494608F096EF013E8246E3
:1003E8008B46F6B2002EDFD12046BDE8F88F00BF5D
:1003F8000000E03F00002440306901089DF800102B
:10040800009189E737B59DF8181004460091FFF769
:1004180083FF05462046FFF7D9FE28183EBD00BFDA
:1004280010B5044600F060FBE06023682046DB68F6
:100438009847002808DA00F057FBE368A268C31A57
:100448009342F2D34FF0FF3010BD10B5044600F0D0
:100458004BFBE060236820461B699847002808DAB0
:1004680000F042FBE368A268C31A9342F2D34FF04C
:10047800FF3010BD10B504462046FFF7E6FF002800
:100488000ADB2D2808D0A0F13003092B04D92368F2
:100498002046DB689847EFE710BD816070472DE97B
:1004A800F0479A460B78DDF8209004460D4616462C
:1004B8004BB34FF00008474619E0EB5D984218BF70
:1004C8000027EB5D984202D10137B74215D2B9F146
:1004D800000F08D01AF80830984206D108F1010830
:1004E800C84504D30CE0C84601E04FF00008204698
:1004F800FFF796FF0028E0DC02E00120BDE8F08766
:100508000020BDE8F0870120BDE8F087F7B5054673
:10051800084614460E460DF070EB074620460DF0CF
:100528006CEB314600903A4628462346FFF7B7FF62
:10053800FEBD0022EAE707B500230093FFF7AFFFEF
:100548000EBD2DE9F04104460F46FFF793FF002545
:1005580000281EDB2E464FF00A08B8420AD02D2884
:1005680007D0A0F13003092B04D808FB0505303D5E
:1005780000E0012623682046DB6898472046FFF7FD
:1005880064FFA0F13003092BE7D9B842E5D006B1E2
:100598006D422846BDE8F0810121D2E72DE9F047F8
:1005A80005460F46FFF766FF0024C0B24FF07E5A9B
:1005B800A14626464FF00A08B8421DD02D2817D06C
:1005C8002E2817D0A0F13003092B15D808FB0404F6
:1005D800303CB9F1000F0FD0504609F046E818A397
:1005E800D3E9002309F09AE809F0E0EB824601E03C
:1005F800012601E04FF001092B682846DB6898477F
:100608002846FFF722FFC0B2A0F13003092BD3D947
:100618002E28D1D0B842EFD006B164422046B9F1B5
:10062800000F06D009F0FAEC514609F066EDBDE876
:10063800F08709F0F4ECBDE8F08700BFAFF3008065
:100648009A9999999999B93F0121A7E7F8B504466C
:100658000D461746002606E02046FFF7E1FE002873
:1006680003DBA8550136BE42F6D13046F8BD2DE968
:10067800F04104460D461646984663B100272046C9
:10068800FFF7CEFE002807DBA84205D0F05501375A
:100698004745F4D100E01F463846BDE8F08100BF69
:1006A80010B50446406903885B06FCD500F018FFC6
:1006B8006069402100F0C1FF0028F9D0012010BD79
:1006C8002DE9F0412E4D2F4E456186B088468C208D
:1006D800012100F0C7F801218F2000F0C3F84FF482
:1006E800FA7000F0DFF900218C2000F0BBF8FA2046
:1006F80000F0D8F901218C2000F0B4F84FF4FA701A
:1007080000F0D0F90220012100F0EAFC01214FF4A9
:10071800802000F009FD02220024134601273046FC
:100728004FF440618DE8900000F04AF88C20214693
:1007380000F098F88F20214600F094F830460A21FE
:10074800072200F08EFB30460B21072200F089FBC0
:100758000C23284602A9CDF80880ADF80C40ADF866
:100768000E40ADF81040ADF81440ADF8123000F06E
:100778000DFE2846394600F086FE06B0BDE8F08139
:10078800004800400004024010B50446606920217A
:1007980000F053FF0028F9D0606900F0A5FE10BDF5
:1007A800064B0246002053F8041F914204D0013042
:1007B800C0B20A28F7D10020704700BFFCFFFF1F16
:1007C8002DE9F3419DF824600D461F469046002A06
:1007D80008BF01260446FFF7E3FF0B4B012153F83E
:1007E800200000F07DFC9DF82030009520466946E9
:1007F8008DF804808DF805708DF807608DF8063047
:1008080000F0AEFABDE8FC81806001081F282DE9E0
:10081800F74304460D46164699461CD9DFF8408032
:10082800470904F01F0408EB440458F82700012185
:1008380000F056FC238D8DF80450009300238DF8AA
:100848000630064B8DF8079053F827008DF80560A1
:10085800694600F085FABDE8FE8300BF000000206D
:1008680080600108420910B5094B0A4C00F01F00CE
:1008780004EB400453F8220021B1218DBDE810405B
:1008880000F0E0BA218DBDE8104000F0DDBA00BFED
:10089800000000208060010800F0DDBA41090F4A1D
:1008A80008B5034652F821000D49026803F01F03FA
:1008B80001EB4303198D4B0032FA03F3DBB2012B32
:1008C80005D100F0B6FA003018BF012008BD00F0CD
:1008D800A7FA003018BF012008BD00BF00000020A3
:1008E8008060010810B5074A002352F8044F84427B
:1008F80003D00133DBB2072BF7D101EB4313D8B296
:1009080010BD00BFFCFFFF1F4FF0FF307047034BC7
:100918000C221A604FF0FF30704700BF9813002078
:10092800024B0B221A604FF0FF30704798130020DB
:100938004FF400534B600020704701207047022895
:1009480004D9034B09221A60002070470120704720
:1009580098130020024B16221A604FF0FF307047A0
:1009680098130020024B1F221A604FF0FF30704787
:10097800981300200020704730B538B10DE01D886D
:10098800AD06FCD5A5880D54013001E0064B1C4688
:100998009042F4DB22EAE27030BD044B09221A606F
:1009A8004FF0FF3030BD00BF001001409813002009
:1009B8004FF400534B60002070474FF0FF307047F2
:1009C800024B02221A604FF0FF3070479813002044
:1009D800024B0A221A604FF0FF307047981300202C
:1009E800012830B509D002281AD113E005886D0610
:1009F800FCD5CD5C0133A58002E00D4800230446F8
:100A08009342F3DB11E005886D06FCD5CD5C01331C
:100A1800A58002E00648002304469342F3DB04E085
:100A2800044B09221A604FF0FF32104630BD00BF58
:100A3800001001409813002008B50D4B1A680AB938
:100A48000C4A1A601B68EFF30882181890420AD9FA
:100A5800192202200849FFF7C3FF084B0C221A602D
:100A68004FF0FF3301E0024A1060184608BD00BF8E
:100A7800240900209C1300204869010898130020CD
:100A880008B5012002490422FFF7AAFFFEE700BFCC
:100A980062690108024B1A6801321A60704700BF88
:100AA8002C090020034B1A681968891A8142FBD364
:100AB800704700BF2C090020084B1A684FF47A735E
:100AC800B2FBF3F2064B013A5A60064AF02182F86B
:100AD800231000229A6007221A6070472C00002019
:100AE80010E000E000ED00E0014B1868704700BF1F
:100AF8002C09002010B501210446FFF7B3FE4FF47E
:100B08004870FFF7CFFF20460021FFF7ABFEC82053
:100B1800BDE81040FFF7C6BF4C7701080000002071
:100B280014090020180900209C130020334B1A6870
:100B380042F001021A6000229A60196821F084715B
:100B480021F4803119602E495960196882B021F466
:100B580080211960DA60009201921A6842F48032AA
:100B68001A601A6802F400320192009A0132009267
:100B7800019A1AB9009AB2F5A06FF2D11F4B1B68FF
:100B880013F4003318BF01230193019B012B2ED1CD
:100B98001A4B1A6C42F080521A641A4A116841F4CE
:100BA800804111609A689A609A6842F400429A609B
:100BB8009A6842F4A0529A60134A5A601A6842F03E
:100BC80080721A6019680D4A8901FBD50F4B40F2F3
:100BD80005611960936823F003039360936843F0F9
:100BE80002039360936803F00C03082BFAD1084BB7
:100BF8004FF000629A6002B0704700BF00380240B0
:100C0800103000240070004008544007003C0240A7
:100C180000ED00E0184B194A996801F00C0104290D
:100C280003D0082903D0164B19E0164B17E0596872
:100C38005A6811F4800F596814BF124B104B02F018
:100C48003F02B3FBF2F30C4A5268C2F30142C1F30C
:100C58008811013252004B43B3FBF2F3074A136089
:100C6800054B9A68054BC2F303129A181968127952
:100C780031FA02F21A607047003802402C00002056
:100C88000024F40000127A0008B52C4B984205D1D4
:100C98000120014600F060FA012048E0284B984204
:100CA80005D10220012100F057FA02203FE0254B30
:100CB800984205D10420012100F04EFA042036E0C4
:100CC800214B984205D10820012100F045FA08205F
:100CD8002DE01E4B984205D11020012100F03CFA6E
:100CE800102024E01A4B984205D12020012100F061
:100CF80033FA20201BE0174B984205D140200121F0
:100D080000F02AFA402012E0134B984205D18020C7
:100D1800012100F021FA802009E0104B98420BD104
:100D28004FF48070012100F017FA4FF48070002111
:100D3800BDE8084000F010BA08BD00BF000002403E
:100D48000004024000080240000C0240001002406B
:100D58000014024000180240001C0240002002401B
:100D68002DE9F0470F6800234FF0010C4FF00308FE
:100D78000CFA03F202EA0705954231D15A000668D7
:100D880008FA02F4E443264006600E79D0F8009091
:100D980006FA02FA013E4AEA0909012EC0F8009053
:100DA80015D8866891F8059026408660866809FA05
:100DB80002F949EA06068660466826EA050545609E
:100DC8008D79466805FA03F5ADB235434560C568C7
:100DD8002C40C460CD79C46805FA02F22243C2608F
:100DE8000133102BC4D1BDE8F0874FF6FF730360C1
:100DF8000023037143718371C371704782B04FF44C
:100E080080330193019B0B430193019BC361C16133
:100E1800019BC361C3690193C369019302B0704721
:100E2800036919420CBF002001207047006980B295
:100E38007047436919420CBF002001207047406980
:100E480080B2704701837047418370470AB10183BC
:100E58007047418370474161704743695940416118
:100E6800704701F00703C908083130B59B0050F8F6
:100E780021500F2404FA03F425EA040440F8214021
:100E880050F8214002FA03F2144340F8214030BDE3
:100E98000A4B1A6842F001021A6000229A60196827
:100EA80021F0847121F4803119600549596019686D
:100EB80021F480211960DA60704700BF00380240D1
:100EC80010300024024B00221A701870704700BFBF
:100ED80002380240034B1A6822F0F80242EAC000C6
:100EE8001860704700380240014B1860704700BF17
:100EF80000004742064B002201281A701A7002D0DF
:100F0800042804D101E01870704705221A70704750
:100F180070380240014B1860704700BF800E47428E
:100F280010B5029C014341EA82125B08013B42EA88
:100F3800046444EA0344014B5C6010BD003802407D
:100F4800014B1860704700BF600047428001034BA7
:100F580040EA0171C3F88410704700BF00380240AE
:100F6800014B1860704700BF68004742014B18608A
:100F7800704700BF4C004742034B9A6822F0EC626E
:100F8800104301439960704700380240034B9A6848
:100F980022F07842104301439960704700380240BC
:100FA800034B9A6822F0030210439860704700BF11
:100FB80000380240024B986800F00C00704700BFF0
:100FC80000380240034B9A6822F0F0021043986000
:100FD800704700BF00380240034B9A6822F4E05281
:100FE80010439860704700BF00380240034B9A686E
:100FF80022F4604242EAC00098607047003802401C
:101008001E4B9A6802F00C02042A10B503D0082A75
:1010180003D01B4B18E01B4B16E059685A6811F4B3
:10102800800F596814BF174B154B02F03F02B3FBF2
:10103800F2F3124A5268C2F30142C1F38811013235
:101048004B435200B3FBF2F30C4903608B680E4A22
:10105800C3F30313D45C036823FA04F343608C6876
:10106800C4F38224145D23FA04F484608968C1F30C
:101078004231525C23FA02F3C36010BD00380240CB
:101088000024F40000127A004000002000F44073AD
:10109800B3F5407F084B08D1996820F0704221F4DD
:1010A800F81122F440720A439A601A6F000542EA66
:1010B80010501867704700BF00380240014B186095
:1010C800704700BF3C0E4742014B1860704700BF95
:1010D800400E4742014B1860704700BF5C01474211
:1010E800044B1A6B09B1104301E022EA00001863AF
:1010F800704700BF00380240044B5A6B09B11043D7
:1011080001E022EA00005863704700BF003802403F
:10111800044B9A6B09B1104301E022EA000098637E
:10112800704700BF00380240044B1A6C09B11043E5
:1011380001E022EA00001864704700BF003802404E
:10114800044B5A6C09B1104301E022EA00005864CC
:10115800704700BF00380240044B1A6909B11043B8
:1011680001E022EA00001861704700BF0038024021
:10117800044B5A6909B1104301E022EA00005861A2
:10118800704700BF00380240044B9A6909B1104308
:1011980001E022EA00009861704700BF0038024071
:1011A800044B1A6A09B1104301E022EA00001862F0
:1011B800704700BF00380240044B5A6A09B1104317
:1011C80001E022EA00005862704700BF0038024080
:1011D800044B1A6D09B1104301E022EA00001865BA
:1011E800704700BF00380240044B5A6D09B11043E4
:1011F80001E022EA00005865704700BF003802404D
:10120800044B9A6D09B1104301E022EA0000986589
:10121800704700BF00380240044B1A6E09B11043F2
:1012280001E022EA00001866704700BF003802405B
:10123800044B5A6E09B1104301E022EA00005866D7
:10124800704700BF00380240044B1A7809B11043B8
:1012580001E022EA00001870704700BF0D38024014
:101268004309012B074A01D1136803E0022B0CBF85
:10127800136F536F00F01F0023FA00F000F0010015
:10128800704700BF0038024007B5002301933120A2
:10129800FFF7E6FF019B01330193019BB3F5A06FB4
:1012A80001D00028F3D03120FFF7DAFF003018BF53
:1012B80001200EBD024B5A6F42F080725A67704788
:1012C80000380240034BDB6818420CBF00200120A5
:1012D800704700BF00380240014B1870704700BFCC
:1012E8000E38024008B5234B984205D11020012141
:1012F800FFF762FF102037E01F4B984207D14FF4E9
:1013080000300121FFF74CFF4FF4003009E01B4B80
:1013180098420BD14FF480200121FFF741FF4FF491
:1013280080200021BDE80840FFF73ABF144B9842DF
:1013380007D14FF400200121FFF732FF4FF40020BE
:10134800EFE7104B984207D14FF480100121FFF7C7
:1013580027FF4FF48010E4E70B4B984209D1202077
:101368000121FFF729FF20200021BDE80840FFF7F1
:1013780023BF08BD00100140004400400048004061
:10138800004C00400050004000140140038ACA8805
:101398009BB223F4405330B513430D46038283892F
:1013A8000989AA8823F4B0530A43698923F00C03F6
:1013B8001B040A431B0C92B213438381838AAA89B4
:1013C8009BB223F44073134385B083820446684676
:1013D800FFF716FE1A4B9C4203D003F580639C422C
:1013E80001D1039B00E0029BA28912B2002A4FF0B0
:1013F80019012A6801FB03F101DA520000E09200AA
:101408006423B1FBF2F1B1FBF3F21201100903FB03
:101418001011A08900B2002806DAC9003231B1FBE8
:10142800F3F303F0070305E009013231B1FBF3F3ED
:1014380003F00F031A4392B2228105B030BD00BFFA
:10144800001001404FF4165303600C2200238380E0
:10145800C38003814281838170470B88028A10B55B
:101468004C8823438C88C988234392B20B4322F4C7
:1014780070629BB21343038210BD00230380438034
:101488008380C3807047838919B19BB243F40053AA
:1014980003E023F400531B041B0C83817047038B68
:1014A80003F47F430383038B9BB219430183704783
:1014B800838929B16FEA43436FEA53439BB201E042
:1014C8005B045B0C83817047838A19B19BB243F438
:1014D800006303E023F400631B041B0C8382704742
:1014E800C905C90D818070478088C005C00D704747
:1014F800038A23F00F031B041B0C0382038A9BB28D
:10150800194301827047838919B19BB243F00203E2
:1015180003E023F002031B041B0C838170478389BB
:1015280023F400631B041B0C838183899BB219433A
:1015380081817047038A23F020031B041B0C03825C
:10154800038A9BB2194301827047038A19B19BB27F
:1015580043F4804303E023F480431B041B0C038201
:10156800704783899BB243F0010383817047838A64
:1015780019B19BB243F0080303E023F008031B04EE
:101588001B0C83827047038BDBB20383038B9BB2F4
:1015980043EA012101837047838A19B19BB243F062
:1015A800200303E023F020031B041B0C83827047F5
:1015B800838A19B19BB243F0100303E023F01003B0
:1015C8001B041B0C83827047838A23F004031B04CB
:1015D8001B0C8382838A9BB2194381827047838A5A
:1015E80019B19BB243F0020303E023F002031B048A
:1015F8001B0C83827047838A9BB20AB1194301E0AE
:1016080023EA010181827047C1F3421310B5012416
:1016180001F01F01A34204FA01F101D10C3004E0EA
:10162800022B01D1103000E0143003680AB11943CD
:1016380001E023EA0101016010BD038819420CBFD3
:10164800002001207047C94389B20180704710B556
:10165800C1F34214012201F01F03012C02FA03F224
:1016680001D1838903E0022C0CBF038A838A9BB2D1
:101678001340028892B243B10123090A03FA01F127
:1016880011420CBF0020012010BD184610BD090AE8
:10169800012303FA01F3DB439BB20380704700BFC9
:1016A80001C041E270002DE945005CE30CF19F9711
:1016B8004B0000EA401800084018000840180008CD
:1016C80040180008EC170008EC170008EC17000891
:1016D800EC1700082418000824180008401800080F
:1016E80024180008241800082418000824180008E2
:1016F80024180008241800082418000824180008D2
:101708002418000824180008EC170008DC17000843
:10171800DC170008DC170008DC170008DC170008D5
:10172800DC170008401800082418000824180008CE
:10173800241800082418000824180008EC170008CA
:1017480024180008DC170008D417000840180008FF
:10175800EC17000840180008DC170008DC17000820
:10176800D4170008EC170008EC1700082418000824
:1017780024180008401800084018000840180008FD
:1017880040180008401800082418000840180008ED
:10179800401800082418000840180008EC17000832
:1017A800EC1700082418000824180008241800085A
:1017B800EC170008EC170008EC17000824180008BC
:1017C800241800082418000840180008000053E3F3
:1017D8000300000A14C090E5184090E504005CE19D
:1017E800030000BA00C0A0E30C00A0E17000BDE84F
:1017F8001EFF2FE18C408CE0105090E50441A0E1E1
:1018080001608CE204C095E0146080E5F4FFFF0AF3
:101818000410C5E70C008CE9F2FFFFEA000052E370
:10182800EFFFFF0A14C090E5184090E504005CE162
:10183800EBFFFFAAEEFFFFEA000052E3000053139C
:10184800E7FFFF0A14C090E5184090E504005CE14A
:10185800E3FFFFAAE6FFFFEA14C090E50030A0E12D
:10186800180090E500005CE170002DE90D0000AA69
:101878008C408CE0105093E50441A0E1040095E011
:101888000060A0130160A003000051E3016086031B
:1018980001C08CE2000056E314C083E50100001A81
:1018A800000052E30200001A0000A0E37000BDE847
:1018B8001EFF2FE10460C5E7060080E9FAFFFFEA92
:1018C80030002DE90C2090E50030D2E56E0053E39E
:1018D800013082020C3080050130D205302043E20D
:1018E8000150A0030050A013090052E30040A0E1FA
:1018F8000C2090950000A0930D00008A011082E250
:101908000C1084E500C180E08CC083E00130D2E592
:10191800302043E2090052E330004CE20120A0E10C
:10192800F5FFFF9A000055E3000060123000BDE8A3
:101938001EFF2FE10000A0E3F9FFFFEA142090E565
:10194800181090E5010052E110402DE90D0000AAA1
:10195800821082E010C090E50111A0E1012082E22E
:1019680001409CE0142080E50300000A3C30A0E31D
:101978000130CCE7D1FFFFEB040084E50400A0E1CF
:101988001040BDE81EFF2FE10040A0E3FAFFFFEA88
:10199800F0412DE90CC090E50040A0E10180A0E1F4
:1019A8000270A0E10030DCE50160A0E1130000EA6C
:1019B8004B0053E33100001A01C08CE20CC084E5EF
:1019C800303094E5063083E2000057E3303084E598
:1019D8001910A0031C10A0130020A0E30400A0E12C
:1019E8000230A0E12DFFFFEB000050E3000086E588
:1019F8001E00000A0CC094E50030DCE5046080E2BB
:101A0800721053E2005071E20150B5E0560053E203
:101A1800002070E20020B2E0051092E101108CE293
:101A2800E2FFFF0A000055E30C1084E50600000AF7
:101A3800303094E5000057E3093083E2303084E524
:101A48001710A0031A10A013E2FFFFEA000052E3E8
:101A5800DAFFFF0A303094E5000057E3093083E2EB
:101A6800303084E51810A0031B10A013D9FFFFEA3B
:101A78000060A0E10600A0E1F041BDE81EFF2FE1F3
:101A8800460053E300005703F9FFFF1A080056E128
:101A9800F7FFFF0A1B00A0E31C10A0E31A20A0E335
:101AA800008098E50030D8E5180053E30000C80529
:101AB8000400000A190053E30010C8050100000AD9
:101AC800170053E30020C805048088E2080056E1A7
:101AD800F2FFFF1AE6FFFFEA10402DE90C3090E50F
:101AE8000020D3E55F0052E30040A0E10A00000AAD
:101AF8006E0052E30500000A70FFFFEB0C3094E51E
:101B08000020D3E55F0052E3010080020300000AD1
:101B18000000E0E31040BDE81EFF2FE10000A0E355
:101B2800013083E20C3084E5F9FFFFEA10402DE92B
:101B38000C3090E50020D3E5540052E30040A0E1CA
:101B48000200000A0000A0E31040BDE81EFF2FE1DC
:101B5800013083E20C3080E5DEFFFFEB00C050E28D
:101B6800F7FFFFBA282094E5143094E5181094E59F
:101B7800012082E2010053E1282084E5F0FFFFAA5A
:101B8800832083E0101094E50221A0E1013083E274
:101B9800020091E0143084E5E9FFFF0A0530A0E374
:101BA8000230C1E704C080E5E6FFFFEA08402DE9FE
:101BB8000C2090E50010D2E55F0051E30030A0E171
:101BC8000100A0130100000A0840BDE81EFF2FE134
:101BD800012082E20C2083E538FFFFEB0000E0E102
:101BE800A00FA0E1F7FFFFEAF0052DE90C4090E512
:101BF8000030D4E5530053E30300000A0030A0E3AB
:101C08000300A0E1F005BDE81EFF2FE1013084E2EA
:101C18000C3080E50130D4E5000053E32900000AC8
:101C280030C043E2FF200CE2024084E25F0053E34D
:101C3800090052130020A0830120A0930C4080E5E6
:101C48001D00008A5F0053E30010A0035800000A3B
:101C58000020A0E30E0000EA821182E0013183E057
:101C6800301043E2010052E1E3FFFF8A0C2090E5C7
:101C78000030D2E5000053E3012082E20200000AAE
:101C88005F0053E30C2080E54800000A0120A0E132
:101C980030C043E2FFC00CE209005CE3411043E2BC
:101CA800ECFFFF9A190051E3D3FFFF8A821182E00B
:101CB800013183E0371043E2E9FFFFEA414043E2A4
:101CC800190054E3F2FFFF9A084090E5A441A0E10F
:101CD800014004E2012024E2000051E30010A003C7
:101CE80001100212000051E33A00001A0C219FE58E
:101CF800C4C082E2020000EA1C2082E20C0052E129
:101D0800BDFFFF0A0010D2E5030051E1F9FFFF1AF9
:101D1800145092E5000055E33500000A143080E2C3
:101D2800081093E80C0053E1188092E50010A0A376
:101D3800080000AA107090E5836083E00661A0E1C6
:101D4800061097E0013083E2143080E516A0A01356
:101D58002001811906A0C7172C1080E5000054E364
:101D68000C40921504409205102092150820920507
:101D7800301090E50C0053E1021081E0301080E54E
:101D88009DFFFFAA831083E010C090E50111A0E138
:101D9800015083E201309CE0145080E51600A01346
:101DA8000100CC17044083150820831593FFFFEA30
:101DB800011081E2203090E5030051E18EFFFF2AF7
:101DC800282090E51C3090E5012082E2282080E55B
:101DD800013193E789FFFFEA0C2090E50040D2E546
:101DE800434044E2010054E30040A0830140A09333
:101DF800BDFFFFEA143080E2081093E8D6FFFFEA3F
:101E0800CC600108003190E5FF0053E370402DE9F4
:101E1800012083120040A0E10150A0E10400000A63
:101E28000350C4E7002184E50451C4E57040BDE8CF
:101E38001EFF2FE10060A0E30310A0E10C2190E554
:101E4800FF60C0E508C190E50FE0A0E11CFF2FE1AD
:101E5800203194E5013083E2203184E50120A0E3BC
:101E68000630A0E1EDFFFFEA103190E5000053E3F2
:101E78001900000A043093E5080093E5000050E3D8
:101E8800043091E51EFF2F010020D0E52B0052E31E
:101E98000D00001A000053E3050000CA090000EA1B
:101EA8000020D0E52B0052E30700001A000053E39E
:101EB8000700000A080090E5000050E3013043E203
:101EC800F6FFFF1A1EFF2FE10100000A0000A0E341
:101ED8001EFF2FE1040090E51EFF2FE10120A0E383
:101EE800182180E50300A0E11EFF2FE138402DE90D
:101EF800004051E20050A0E15100000A0030D4E552
:101F0800450053E303F19F97450000EA4C20000881
:101F18002C2000082C2000082C2000082C20000869
:101F2800582000084C2000084020000840200008E5
:101F38002C2000082C2000082C2000082C20000849
:101F48002C2000082C2000082C2000082C20000839
:101F58002C2000082C2000082C2000082C20000829
:101F68002C2000084C2000082C2000082C200008F9
:101F78002C2000082C2000082C2000082C20000809
:101F88002C2000082C2000082C2000082C200008F9
:101F98002C2000082C2000084C2000082C200008C9
:101FA8002C2000082C2000082C2000082C200008D9
:101FB8002C2000082C2000082C2000082C200008C9
:101FC8004C200008402000082C2000082C20000885
:101FD8002C2000082C2000082C2000082C200008A9
:101FE8002C2000082C2000082C2000082C20000899
:101FF8002C2000082C2000084C2000082C20000869
:102008002C2000082C2000082C2000084C20000858
:102018002C2000082C2000082C2000082C20000868
:102028004C200008041094E50500A0E1AEFFFFEB8A
:10203800000050E30300001A084094E5000054E350
:10204800ADFFFF1A0000A0E33840BDE81EFF2FE1F6
:102058000500A0E10410A0E182FFFFEB000050E3BF
:10206800F7FFFF0A0020D0E52B0052E3F5FFFF0A37
:10207800F3FFFFEA70402DE90040A0E10FFEFFEBFF
:10208800006050E2300000DA0C5094E5043094E52A
:10209800033065E0030056E12D0000CA082094E5EE
:1020A800063085E0040012E30C3084E50E00001AC7
:1020B800090056E3050000DA0500A0E198109FE545
:1020C8000820A0E3442A00EB000050E30B00000ABC
:1020D8000400A0E10510A0E10620A0E1DDFDFFEB72
:1020E8002C0084E57040BDE81EFF2FE10620D5E7EF
:1020F800240052E3013083020C308405EBFFFFEA31
:102108000830D5E52E0053E35F0053130B00001A87
:102118000930D5E54E0053E3ECFFFF1A303094E563
:10212800163083E2036066E0306084E50400A0E1D5
:1021380028109FE51520A0E3C6FDFFEBE7FFFFEAA7
:10214800240053E3E1FFFF1AF0FFFFEA0000A0E3D9
:10215800E3FFFFEA0000A0E3E0FFFFEA606C01088C
:102168006C6C0108000051E310402DE90040A0E12B
:102178000800001A0C3090E50010D3E5000051E388
:102188000200001A0000A0E31040BDE81EFF2FE186
:10219800013083E20C3080E5680051E30900000A51
:1021A800760051E3F6FFFF1A0400A0E1C3FDFFEB40
:1021B8000C3094E50020D3E55F0052E3F0FFFF1AEE
:1021C800013083E20C3084E50400A0E1BBFDFFEBA5
:1021D8000C3094E50020D3E55F0052E30130830220
:1021E8000C3084050100A003E5FFFF1AE5FFFFEAB4
:1021F800F0412DE90040A0E10100A0E10150A0E17B
:102208007C2E00EB000050E31900000A001194E551
:10221800007085E00080A0E3060000EA0130A0E13C
:10222800011081E2070055E10360C4E7001184E56D
:102238000461C4E50E00000AFF0051E30160D5E423
:10224800F5FFFF1AFF80C4E50400A0E10C2194E526
:1022580008C194E50FE0A0E11CFF2FE1203194E5CF
:10226800013083E2203184E50110A0E30030A0E3CF
:10227800EBFFFFEAF041BDE81EFF2FE1F8402DE932
:102288000C3090E50020D3E54C0052E30040A0E17B
:102298000200000A0000A0E3F840BDE81EFF2FE19D
:1022A800011083E20C1080E50120D3E55F0052E3C2
:1022B80000C0A01301C0A0035F0052E35A005213EC
:1022C8002A00000ABF0100EB006050E2F0FFFF0A9D
:1022D8000030D6E5230053E33300000A0C1094E5E0
:1022E8000030D1E56E0053E3012081020C20840503
:1022F8000130D1053870A0030210A0013770A01377
:10230800450053E33000000A000053E3E0FFFF0AF2
:10231800013081E2010000EA00005CE3DCFFFF0A13
:102328000C3084E50350A0E101C0D3E445005CE330
:10233800F8FFFF1A052061E00400A0E145FDFFEB6E
:102348000710A0E10030A0E10620A0E10400A0E110
:10235800D2FCFFEB0C1094E50020D1E5450052E3D8
:10236800CBFFFF1A011081E20C1084E5C9FFFFEAD8
:1023780000005CE3021083120C1080150220D315B4
:102388005A0052E30000A013F3FFFF1A011081E284
:102398000C1084E50400A0E10010A0E3810700EB25
:1023A8000C1094E50020D1E5EBFFFFEA043096E538
:1023B8001020D3E5000052E3302094150430931523
:1023C8000230631030308415C3FFFFEA0020A0E319
:1023D800D8FFFFEA70402DE90C1090E50030D1E5F8
:1023E800493043E2010053E308D04DE20040A0E148
:1023F8002C6090E52400008A012081E20C2080E511
:102408000130D1E5450053E308508D120010A013A8
:10241800041025154200000A493043E20F0053E337
:1024280003F19F97330000EA1025000810250008E3
:1024380000250008A424000800250008002500083D
:1024480000250008002500080025000800250008D0
:1024580000250008002500080025000800250008C0
:102468000025000870240008012082E20C2084E581
:102478000400A0E1800500EB0C3094E50020D3E5D2
:10248800450052E300C0A0E12200000A0000A0E3DA
:1024980008D08DE27040BDE81EFF2FE10400A0E1E6
:1024A80075FFFFEB00C0A0E10030A0E303005CE192
:1024B8000400A0E12B10A0E30C20A0E1F2FFFF0A2A
:1024C80076FCFFEB000050E3000085E5EEFFFF0A15
:1024D8000C2094E50030D2E5450053E3085080E233
:1024E800CCFFFF1A012082E20C2084E52C6084E5F1
:1024F80004009DE5E5FFFFEA0400A0E1310100EBDF
:1025080000C0A0E1E7FFFFEA0400A0E1B0FFFFEB95
:1025180000C0A0E1E3FFFFEA013083E20C3084E56C
:10252800E0FFFFEA021081E20020A0E30C1080E542
:102538000230A0E12B10A0E308D08DE27040BDE886
:1025480056FCFFEAF0402DE90C2090E50030D2E57A
:102558004C3043E20CD04DE20050A0E10E0053E3B2
:1025680003F19F97320000EA242600083C26000861
:10257800842600083C2600083C2600083C26000863
:102588003C260008D82500083C2600082426000818
:102598003C2600083C2600083C2600083C2600088B
:1025A800AC250008012082E20010A0E30C2080E5A1
:1025B800FC0600EB0C3095E50010D3E5450051E32F
:1025C8000040A0E1B100000A0040A0E3140000EAC6
:1025D8000130D2E5740053E35600000A0010A0E36E
:1025E80080FDFFEB0C3095E50030D3E5490053E35F
:1025F8000040A0E10A00001A0500A0E174FFFFEB0B
:102608000420A0E10030A0E10410A0E30500A0E14F
:1026180022FCFFEB0040A0E1010000EA2A0400EBE5
:102628000040A0E10400A0E10CD08DE2F040BDE83C
:102638001EFF2FE1240400EB0C3095E50030D3E5B4
:10264800490053E30040A0E1F5FFFF1A000050E302
:10265800DCFFFF0A203095E5242095E5020053E1D0
:10266800D8FFFFAA1C1095E5012083E2030181E74A
:102678000500A0E1202085E5DFFFFFEA012082E2D6
:102688000C2080E504108DE20120A0E3BFFCFFEBE5
:10269800007050E2CBFFFF0A0C3095E50040D3E50F
:1026A8000060A0E3000054E31F00000A440054E364
:1026B8005E00000A611044E2302044E2FF1001E2AB
:1026C800FF2002E2090052E3190051833900009A01
:1026D800430054E3550054133600000A4C0054E3F9
:1026E8003400000A530054E35F00000A490054E331
:1026F8005600000A540054E36000000A450054E301
:10270800A300000A4D0054E30700001A000056E336
:102718000500000A012083E20C2085E50140D3E58D
:10272800000054E30230A0E1DFFFFF1A0040A0E3FD
:10273800004087E5BAFFFFEA023082E27C129FE59B
:102748000320A0E30C3080E542FCFFEB0040A0E151
:102758000500A0E1DC0300EB0420A0E10030A0E1CB
:102768000110A0E30500A0E1CCFBFFEB303095E5BC
:10277800033083E2303085E50C3095E50030D3E551
:10278800490053E30040A0E1A5FFFF1A000050E311
:102798008CFFFF0A203095E5242095E5020053E1DF
:1027A80088FFFFAA1C1095E5012083E2030181E759
:1027B800202085E58FFFFFEA0500A0E1C20300EBBA
:1027C8000030A0E1000056E30360A0010400000A05
:1027D8000110A0E30620A0E10500A0E1AFFBFFEB9C
:1027E8000060A0E10C3095E5530054E30040D3E5C8
:1027F800ABFFFF0A450054E3ADFFFF0A000056E3B4
:10280800C9FFFF0A203095E5242095E5020053E131
:10281800C5FFFFAA1C2095E5036182E7013083E22A
:10282800203085E50C3095E50040D3E59CFFFFEAB4
:102838000130D3E5DF3003E2540053E30500A0E1A3
:10284800DDFFFF1A5F0000EB0030A0E1DCFFFFEACC
:10285800000056E3B4FFFF0A0500A0E1DCFEFFEB31
:102868000410A0E30030A0E1D9FFFFEA0500A0E1D1
:102878000110A0E3DBFCFFEB0030A0E1D0FFFFEA92
:102888000500A0E1A8FCFFEB0030A0E1CCFFFFEAC7
:10289800012083E20C2085E50120D3E5730052E393
:1028A8002F00000A640052E30070E0132500000ABC
:1028B8000500A0E122FFFFEB006050E20800000ADB
:1028C8000030D6E5400053E30500000A420053E318
:1028D8000300000A0500A0E1B3FCFFEB000050E391
:1028E80038FFFF0A010077E30630A0010400000A60
:1028F800143095E5182095E5020053E1060000BA6A
:102908000030A0E30420A0E10500A0E10210A0E34C
:1029180062FBFFEB0040A0E141FFFFEA832083E078
:10292800101095E50221A0E1010083E2023091E058
:10293800140085E5F1FFFF0A4100A0E30200C1E7AA
:10294800C00083E9EEFFFFEA023083E20C3085E540
:102958000500A0E15FFCFFEB007050E2D3FFFFAA87
:1029680018FFFFEA023083E20C3085E50500A0E19C
:102978008DFCFFEB000050E312FFFF0A40109FE5BB
:102988000E20A0E30500A0E1B2FBFFEB0030A0E1C0
:10299800DBFFFFEA000056E3006087E509FFFF0A56
:1029A8000C3095E50020D3E5450052E305FFFF1AFA
:1029B800013083E20C3085E504409DE518FFFFEA0D
:1029C800946C0108846C0108F0402DE90C2090E516
:1029D8000030D2E5720053E3560053130CD04DE299
:1029E8000040A0E16700000A4B0053E36500000ABD
:1029F800301043E24A0051E301F19F975C0000EA7E
:102A0800F02B0008F02B0008F02B0008F02B000832
:102A1800F02B0008F02B0008F02B0008F02B000822
:102A2800F02B0008F02B00087C2B00087C2B0008FA
:102A38007C2B00087C2B00087C2B00087C2B0008D2
:102A48007C2B0008343000087C2B00080830000874
:102A5800182F00087C2B0008D42E0008A82E000888
:102A68007C2B00087C2B00087C2B00087C2B0008A2
:102A78007C2B00080C2E0008F02B0008E02D000825
:102A8800B42D00087C2B0008882D0008D42C0008E1
:102A98003C2D00089C2C00087C2B00087C2B00088F
:102AA8007C2B00087C2B0008F02B00087C2B0008EE
:102AB8007C2B00087C2B00087C2B00087C2B000852
:102AC8007C2B0008582C0008582C0008582C0008AB
:102AD800582C0008582C0008582C0008582C0008BE
:102AE800582C0008582C0008582C00087C2B00088B
:102AF800582C0008582C0008582C0008582C00089E
:102B08007C2B00087C2B00087C2B0008582C000824
:102B1800582C00082C2C0008582C0008582C0008A9
:102B2800582C0008582C0008582C0008D20300EB39
:102B38003D10A0E30020A0E10030A0E30400A0E1E4
:102B4800D6FAFFEB000050E30050A0E104008DE549
:102B58000700000A0C2094E50030D2E5000053E39A
:102B68000300000A012082E2450053E30C2084E5BB
:102B78002100000A0050A0E30500A0E10CD08DE27E
:102B8800F040BDE81EFF2FE10400A0E104108DE233
:102B98000020A0E37DFBFFEB005050E2F4FFFF0AAA
:102BA8000400A0E187FFFFEB000050E3000085E58B
:102BB800EFFFFF0A04209DE5000052E3ECFFFF0A47
:102BC800203094E5241094E5010053E1E8FFFFAAC2
:102BD8001C0094E5011083E2032180E704509DE581
:102BE800201084E5E3FFFFEA55FEFFEB0050A0E16B
:102BF80004508DE5000055E3DDFFFF0A203094E521
:102C0800242094E5020053E1D9FFFFAA1C1094E5A3
:102C1800012083E2035181E704509DE5202084E5EB
:102C2800D4FFFFEA012082E20C2080E510FDFFEBD3
:102C38002410A0E30020A0E10030A0E30400A0E1FC
:102C480096FAFFEB0050A0E104008DE5E8FFFFEAEB
:102C5800141090E5180090E5613043E2000051E15E
:102C6800EC079FE5033183E0033180E0D30100BA2C
:102C78000050A0E3043095E5043093E5301094E566
:102C8800012082E2033081E0303084E50C2084E5C5
:102C9800B8FFFFEA012082E20C2080E5F4FCFFEB9C
:102CA80004008DE50400A0E146FFFFEB1D10A0E342
:102CB8000020A0E104309DE50400A0E177FAFFEBD5
:102CC8000050A0E104008DE5C9FFFFEA0130D2E51C
:102CD800302043E25F0053E3090052130200009AD8
:102CE800413043E2190053E3C401008A0010A0E315
:102CF800BCFBFFEB0C3094E504008DE50030D3E518
:102D0800490053E30050A0E19AFFFF1A0400A0E134
:102D1800AFFDFFEB0520A0E10030A0E10410A0E327
:102D28000400A0E15DFAFFEB0050A0E104008DE58E
:102D3800AFFFFFEA7CFBFFEB0C3094E504008DE568
:102D48000030D3E5490053E30050A0E1A8FFFF1A83
:102D5800000050E386FFFF0A203094E5242094E524
:102D6800020053E182FFFFAA1C1094E5012083E2D0
:102D7800030181E704509DE5202084E5E2FFFFEA96
:102D8800012082E20C2080E50EFFFFEB1F10A0E37C
:102D98000020A0E10030A0E30400A0E13FFAFFEB2F
:102DA8000050A0E104008DE591FFFFEA012082E2D6
:102DB8000C2080E503FFFFEB1E10A0E30020A0E13C
:102DC8000030A0E30400A0E134FAFFEB0050A0E1DA
:102DD80004008DE586FFFFEA012082E20C2080E5F1
:102DE800F8FEFFEB2010A0E30020A0E10030A0E3F4
:102DF8000400A0E129FAFFEB0050A0E104008DE5F2
:102E08007BFFFFEA012082E20C2080E5EDFEFFEB6C
:102E180004508DE20070A0E10510A0E10400A0E1DB
:102E28000120A0E3D9FAFFEB006050E23500000A68
:102E38000400A0E1E3FEFFEB000050E3000086E59C
:102E48003000000A050056E10D00000A0030D0E508
:102E5800250053E30A00000A04209DE5000052E320
:102E68002800000A203094E5241094E5010053E17D
:102E7800240000AA1C0094E5011083E2032180E7E6
:102E8800201084E50400A0E12710A0E30720A0E1BA
:102E980004309DE501FAFFEB0050A0E153FFFFEA83
:102EA800012082E20C2080E5C6FEFFEB2210A0E3A1
:102EB8000020A0E10030A0E30400A0E1F7F9FFEB57
:102EC8000050A0E104008DE549FFFFEA013082E2ED
:102ED8000C3080E50130D2E5590053E3022082022C
:102EE8000C2080050110A0E3930400EB0C3094E55E
:102EF8000020D3E5450052E3013083020050A0E1F1
:102F08000C30840539FFFF0A0050A0E337FFFFEAC1
:102F1800013082E20C3080E50130D2E5000053E355
:102F280013FFFF0A021082E2463043E20C1080E5EC
:102F3800300053E303F19F970DFFFFEA24330008A5
:102F48007C2B00087C2B00087C2B00087C2B0008BD
:102F58007C2B00087C2B00087C2B00087C2B0008AD
:102F68007C2B00087C2B00087C2B00087C2B00089D
:102F78007C2B0008342B00087C2B00087C2B0008D5
:102F88007C2B00087C2B00087C2B00087C2B00087D
:102F98007C2B00087C2B00087C2B00087C2B00086D
:102FA8007C2B00087C2B0008103300087C2B0008C1
:102FB8007C2B0008D03200089032000850320008FC
:102FC8007C2B000810320008D03100087C2B000848
:102FD8007C2B00087C2B00087C2B00089031000813
:102FE8007C2B00086C3100087C2B00087C2B000827
:102FF8001C310008342B00087C2B0008C430000862
:10300800012082E20C2080E56EFEFFEB2110A0E398
:103018000020A0E10030A0E30400A0E19FF9FFEB4D
:103028000050A0E104008DE5F1FEFFEA011082E204
:103038000C1080E50130D2E55F0053E3ED00000A93
:10304800303043E2090053E3F500008A0120A0E193
:10305800013082E20C3084E50120D2E5302042E2E2
:10306800090052E30320A0E1F8FFFF9A0400A0E161
:10307800032061E0F7F9FFEB005050E2A1FFFF0ADF
:103088000C1094E50030D1E55F0053E39DFFFF1A73
:10309800011081E20C1084E50400A0E149FEFFEB79
:1030A8000520A0E10030A0E12610A0E30400A0E183
:1030B8007AF9FFEB0050A0E1CCFEFFEA0230D2E53E
:1030C8005F0053E3DD00000A1BFAFFEB0050A0E1AC
:1030D800000055E3C5FEFF0A0C3094E50020D3E557
:1030E8005F0052E387FFFF1A013083E20C3084E56A
:1030F8000400A0E133FEFFEB0520A0E10030A0E1D1
:103108002910A0E30400A0E164F9FFEB0050A0E15E
:10311800B6FEFFEA143090E5182090E5020053E16E
:10312800B10000AA832083E0101090E50221A0E1FD
:10313800013083E2025091E0143080E5AB00000AD0
:1031480010339FE52300A0E30200C1E7043085E5C2
:10315800302094E5043093E5033082E0303084E594
:1031680084FEFFEA17FEFFEB4510A0E30020A0E174
:103178000030A0E30400A0E148F9FFEB0050A0E113
:1031880004008DE59AFEFFEA143090E5182090E5DA
:10319800020053E1940000AA832083E0101090E518
:1031A8000221A0E1013083E2025091E0143080E571
:1031B8008E00000AA0329FE52300A0E30200C1E7C9
:1031C800043085E5E1FFFFEA143090E5182090E52A
:1031D800020053E1840000AA832083E0101090E5E8
:1031E8000221A0E1013083E2025091E0143080E531
:1031F8007E00000A64329FE52300A0E30200C1E7D5
:10320800043085E5D1FFFFEA143090E5182090E5F9
:10321800020053E1740000AA832083E0101090E5B7
:103228000221A0E1013083E2025091E0143080E5F0
:103238006E00000A28329FE52300A0E30200C1E7E0
:10324800043085E5C1FFFFEA143090E5182090E5C9
:10325800020053E1640000AA832083E0101090E587
:103268000221A0E1013083E2025091E0143080E5B0
:103278005E00000AEC319FE52300A0E30200C1E7ED
:10328800043085E5B1FFFFEA143090E5182090E599
:10329800020053E1540000AA832083E0101090E557
:1032A8000221A0E1013083E2025091E0143080E570
:1032B8004E00000AB0319FE52300A0E30200C1E7F9
:1032C800043085E5A1FFFFEA143090E5182090E569
:1032D800020053E1440000AA832083E0101090E527
:1032E8000221A0E1013083E2025091E0143080E530
:1032F8003E00000A74319FE52300A0E30200C1E705
:10330800043085E591FFFFEA64119FE50420A0E3FE
:1033180050F9FFEB0050A0E116FEFFEA143090E5EB
:10332800181090E5010053E1101090B5835083B058
:10333800013083B2143080B5055181B00050A0A38C
:103348002830A0E304508DE50030C5E50230D2E511
:10335800303043E2090053E30030A0830130A093EA
:10336800000053E3B830C5E13100001A0400A0E1C1
:1033780094FDFFEB040085E504309DE5043093E5FA
:10338800000053E3FAFDFF0A0400A0E14BF9FFEB4C
:103398000C2094E50030D2E5000053E30400000A55
:1033A800012082E20C2084E5732053E2003072E2AF
:1033B8000230B3E004509DE5BA30C5E1EDFDFFEA07
:1033C80010C094E5810081E00001A0E1011081E2D4
:1033D80000509CE0141084E52310A01304309505D8
:1033E8000010CC170430851522FEFFEA0050A0E338
:1033F800043095E555FFFFEA0050A0E323FFFFEAFC
:103408004FFCFFEB000050E30050A0E104008DE505
:10341800D7FDFF0A0030D0E5160053E3F6FDFF1A8A
:10342800D4FDFFEA940100EB005050E213FFFF1AAD
:10343800B4FEFFEA21F9FFEB04509DE5CAFFFFEA5D
:10344800032082E20C2080E58B0100EB0050A0E114
:103458001EFFFFEA90610108E86301081064010893
:10346800FC630108D463010898630108C06301087C
:10347800AC630108986C0108F0472DE90C3090E521
:103488000040D3E5000054E300A0A0E11F00000ABB
:10349800012083E20C2080E50180D3E5000058E399
:1034A800023083120C308015760054E33400001A81
:1034B800305048E2FF3005E2090053E31400008A67
:1034C800EBFAFFEB14309AE518209AE5020053E175
:1034D8000010A0E1270000AA832083E010C09AE52D
:1034E8000221A0E1013083E202009CE014308AE569
:1034F8002000000A000051E31E00000A2E30A0E35D
:103508000230CCE7045080E5081080E51A0000EA94
:103518000480A0E1CC609FE539C0A0E30020A0E3CF
:10352800040000EA040051E10F00009A03C0A0E182
:103538000C0052E10F00000A0C3062E0A33F83E068
:10354800C33082E0035296E70010D5E5010054E14C
:10355800037286E0F2FFFF1A0110D5E5010058E179
:103568001100000A080051E1EFFFFF8A012083E201
:103578000C0052E1EFFFFF1A0000A0E3F047BDE89E
:103588001EFF2FE1760058E363005403E0FFFF1AA3
:103598000CFDFFEB2F10A0E30020A0E10030A0E31A
:1035A8000A00A0E1F047BDE83CF8FFEA14309AE5CC
:1035B80018209AE5020053E1EEFFFFAA832083E07A
:1035C80010109AE50221A0E1013083E2020091E0A7
:1035D80014308AE5E7FFFF0A2D30A0E30230C1E787
:1035E800047080E5E4FFFFEA2464010830402DE917
:1035F8000030A0E30CD04DE204308DE50C3090E5AE
:103608000030D3E5450053E3000053130040A0E128
:103618001600000A2E0053E31400000A04508DE23D
:103628000B0000EA1DF8FFEB000050E3000085E501
:103638000E00000A0C2094E50020D2E5000052E3B9
:1036480045005213085080E20C00000A2E0052E395
:103658000A00000A0400A0E1DAFCFFEB002050E2B7
:103668002A10A0E30030A0E30400A0E1ECFFFF1A59
:103678000000A0E30CD08DE23040BDE81EFF2FE132
:1036880004009DE5000050E3F8FFFF0A083090E5CC
:10369800000053E3F6FFFF1A042090E50010D2E57E
:1036A800230051E3F2FFFF1A042092E51010D2E53F
:1036B800090051E3301094050420920501206200AE
:1036C8003020840504308005E9FFFFEA70402DE9C9
:1036D8000C2090E50030D2E5301043E2090051E3B8
:1036E8000040A0E12B00009A611043E2190051E369
:1036F8000F00009A431043E2010051E37A00009A58
:103708004C0053E34200000A550053E30400001A3A
:103718000130D2E56C0053E34700000A740053E31C
:103728001E00000A0050A0E30500A0E17040BDE8BB
:103738001EFF2FE14FFFFFEB005050E2F8FFFF0A9A
:103748000030D5E52D0053E3F6FFFF1A043095E568
:10375800301094E5082093E5022081E0072082E2FA
:10376800302084E5000093E508139FE5952800EBD9
:10377800000050E3EBFFFF1A0400A0E13CFAFFEB66
:103788003110A0E30030A0E10520A0E10400A0E191
:103798007040BDE8C1F7FFEA7040BDE834FAFFEABF
:1037A800013082E20C3080E50130D2E5740053E349
:1037B800DBFFFF1A022082E20C2080E5C5F8FFEB50
:1037C800000050E3D6FFFFBA143094E5182094E5C2
:1037D800020053E1D2FFFFAA832083E0101094E592
:1037E8000221A0E1013083E2025091E0143084E527
:1037F800CBFFFF0A040085E5240094E5203094E51A
:10380800000053E14200A0E30200C1E7C4FFFFAAA1
:10381800300000EA012082E20C2080E514FAFFEB78
:10382800005050E2BEFFFF0A0400A0E1DEF8FFEB03
:10383800000050E3BBFFFF1AB9FFFFEA013082E244
:103848000C3080E50130D2E56C0053E3B4FFFF1A79
:10385800022082E20C2080E563FFFFEB006050E26B
:10386800AFFFFF0A0C3094E50020D3E5450052E392
:10387800ABFFFF1A013083E20C3084E50400A0E1BD
:1038880094F8FFEB000050E3A5FFFFBA143094E56D
:10389800182094E5020053E1A1FFFFAA832083E0EA
:1038A800101094E50221A0E1013083E2025091E07A
:1038B800143084E59AFFFF0A046085E5080085E571
:1038C800240094E5203094E5000053E14000A0E393
:1038D8000200C1E792FFFFAA1C1094E5012083E2D1
:1038E800035181E7202084E58EFFFFEA2C1090E544
:1038F800000051E30400000A0000D1E5000050E395
:103908002E00000A160050E32C00000A430053E37F
:103918003000000A440053E381FFFF1A0130D2E56A
:10392800303043E2050053E303F19F977CFFFFEA41
:10393800C0390008B8390008B03900082C37000829
:103948002C3700085039000804C0A0E3143094E56F
:10395800180094E5022082E2000053E10C2084E57F
:103968006FFFFFAA832083E0100094E50221A0E105
:10397800025090E00060A0130160A003000051E332
:1039880001608603013083E2000056E3143084E5C9
:1039980063FFFF1A0830A0E30230C0E704C0C5E5A2
:1039A800081085E55FFFFFEA03C0A0E3E6FFFFEA32
:1039B80002C0A0E3E4FFFFEA01C0A0E3E2FFFFEAE0
:1039C800300094E5083091E5033080E0303084E53C
:1039D8000030D2E5CCFFFFEA0130D2E5313043E2D6
:1039E800040053E303F19F974DFFFFEA783A00087C
:1039F800703A0008683A00082C370008083A0008AE
:103A080004C0A0E3143094E5180094E5022082E293
:103A1800000053E10C2084E541FFFFAA832083E0E6
:103A2800100094E50221A0E1025090E00060A0138C
:103A38000160A003000051E301608603013083E2C6
:103A4800000056E3143084E535FFFF1A0730A0E381
:103A58000230C0E704C0C5E5081085E531FFFFEA7C
:103A680003C0A0E3E6FFFFEA02C0A0E3E4FFFFEA29
:103A780001C0A0E3E2FFFFEAA06C0108F0412DE9D4
:103A88000C1090E50030D1E54C0053E308D04DE22E
:103A98000040A0E17F00000A540053E38000000AC0
:103AA800730053E34400000A660053E32800000A49
:103AB800302043E2090052E30B00008A0400A0E131
:103AC80001FFFFEB005050E21F00000A0C3094E5A4
:103AD8000030D3E5490053E38300000A0500A0E164
:103AE80008D08DE2F041BDE81EFF2FE16F0053E3DF
:103AF8006200000A74C053E200507CE20C50B5E04A
:103B0800740053E3690053130200001A0130D1E531
:103B18006C0053E34B00000A0400A0E155FEFFEBE4
:103B2800006050E20800000A0050D6E52D0055E379
:103B38003000000A2E0055E35C00000A2F0055E310
:103B48005D00000A2D0055E33E01000A0050A0E385
:103B5800E1FFFFEA0130D1E5700053E3EDFFFF1A02
:103B6800023081E20C3080E50230D1E5540053E3A5
:103B78007800000AD7F7FFEB010090E2F2FFFF0A96
:103B8800143094E5182094E5020053E1EEFFFFAAF3
:103B9800832083E0101094E50221A0E1013083E244
:103BA800025091E0143084E5E7FFFF0A0630A0E3F5
:103BB8000230C1E7040085E5C7FFFFEA0130D1E51F
:103BC800720053E35100000A700053E3D1FFFF1A5B
:103BD800021081E20C1080E5A7FFFFEB4510A0E37F
:103BE8000020A0E10030A0E30400A0E108D08DE2AD
:103BF800F041BDE8A9F6FFEA048096E5083098E5AB
:103C0800302094E5007098E5023043E2033082E00A
:103C1800303084E50700A0E15C149FE5692700EBDC
:103C2800000050E3CC00000A0C3098E5030053E391
:103C380003F19F97C4FFFFEAD83E0008F43E00084E
:103C4800483E0008703D0008000055E3C500001A12
:103C5800023081E20C3084E54510A0E30400A0E1C5
:103C68000A0100EB2C10A0E30030A0E10520A0E140
:103C78000400A0E108D08DE2F041BDE887F6FFEA34
:103C88000130D1E56E0053E3A2FFFF1A021081E272
:103C98000C1080E588FFFFEA08D08DE2F041BDE80E
:103CA80075F9FFEA08D08DE2F041BDE89EF7FFEA1A
:103CB800043096E50070A0E3DBFFFFEA0070A0E3A4
:103CC8000C3094E50020D3E55F0052E39200001A1F
:103CD800013083E20C3084E50400A0E14510A0E344
:103CE800EA0000EB0030A0E18E0000EA0400A0E149
:103CF800B7F9FFEB0410A0E30030A0E10520A0E134
:103D08000400A0E108D08DE2F041BDE863F6FFEAC7
:103D1800021081E20C1080E52AFBFFEB0050A0E1C5
:103D28000400A0E168FEFFEB0C1094E50010D1E55B
:103D3800490051E30060A0E10400A0E19C00000AF2
:103D48000110A0E30520A0E10630A0E108D08DE233
:103D5800F041BDE851F6FFEA031081E20C1080E55E
:103D68000000A0E385FFFFEA0700A0E10C139FE530
:103D7800142700EB000050E37E00000A0030D7E56E
:103D88006E0053E370FFFF1A0130D7E5610053E37B
:103D9800770053130080A0030180A0136AFFFF1A65
:103DA8005F10A0E30400A0E1B80000EB0050A0E120
:103DB8000400A0E103FBFFEB0CC094E50010DCE578
:103DC800450051E301C08C020070A0E10CC08405DD
:103DD8000830A0010900000A700051E39C00000AA5
:103DE800690051E358FFFF1A0130DCE56C0053E32A
:103DF80055FFFF1A0400A0E11FFFFFEB0030A0E110
:103E08000720A0E13610A0E30400A0E123F6FFEBB1
:103E18000520A0E10030A0E13510A0E30400A0E1F6
:103E28001EF6FFEB3410A0E30030A0E10620A0E16D
:103E38000400A0E108D08DE2F041BDE817F6FFEAE2
:103E48000400A0E10CFFFFEB34129FE50050A0E155
:103E58000700A0E1DB2600EB000050E34F00000A5A
:103E68000700A0E11C129FE5D62600EB000050E3F6
:103E78000400000A0700A0E10C129FE5D12600EB20
:103E8800000050E35700001A0400A0E10EFEFFEB0B
:103E98000C2094E50020D2E5490052E30030A0E16F
:103EA8005C00000A0520A0E13310A0E30400A0E1B3
:103EB800FAF5FFEB3210A0E30030A0E10620A0E104
:103EC8000400A0E108D08DE2F041BDE8F3F5FFEA77
:103ED8000400A0E13010A0E30620A0E10030A0E338
:103EE80008D08DE2F041BDE8ECF5FFEA000057E3A9
:103EF8000700000A0030D7E5700053E36D00531344
:103F08000200001A0120D7E5030052E13900000A37
:103F18000070A0E32F0055E368FFFF0A0400A0E14A
:103F2800D5FEFFEB0030A0E1000057E30400000AD3
:103F38000320A0E13310A0E30400A0E1D7F5FFEBD4
:103F48000030A0E10400A0E13110A0E30620A0E1C8
:103F580008D08DE2F041BDE8D0F5FFEA0400A0E109
:103F680098FAFFEBF5FFFFEA96FAFFEB0C1094E5E1
:103F78000050A0E135FFFFEA0400A0E1BEFEFFEB20
:103F88000050A0E10400A0E1BBFEFFEB0070A0E13F
:103F98000400A0E1B8FEFFEB0030A0E197FFFFEAC4
:103FA8000400A0E14510A0E3380000EB0030A0E1D8
:103FB800BBFFFFEA06F9FFEB0620A0E10030A0E115
:103FC8000410A0E30400A0E1B4F5FFEB0110A0E3A6
:103FD8000030A0E10520A0E10400A0E108D08DE2B6
:103FE800F041BDE8ADF5FFEA0400A0E1A2FEFFEB59
:103FF8000030A0E1AAFFFFEA0C3094E50020D3E5E9
:104008005F0052E30170A013C1FFFF1A013083E281
:104018000C3084E5BDFFFFEA0400A0E104308DE523
:10402800EBF8FFEB04309DE500C0A0E10320A0E120
:104038000400A0E10C30A0E10410A0E397F5FFEB29
:104048000030A0E196FFFFEA048096E50070A0E347
:10405800F4FEFFEA0130DCE5690053E3BAFEFF1A1B
:1040680002C08CE20CC084E50400A0E14510A0E386
:10407800060000EB0030A0E160FFFFEAFC6E0108DB
:10408800B06C0108A46C0108A86C0108AC6C0108AC
:1040980070402DE90C3090E500C0D3E508D04DE222
:1040A8000020A0E301005CE10040A0E10160A0E184
:1040B80004208DE504508D121800000A0400A0E1C8
:1040C8006DFEFFEB002050E22A10A0E30030A0E3D1
:1040D8000400A0E10F00000A70F5FFEB000050E3B8
:1040E8000030A0E1000085E50A00000A0C2094E5F4
:1040F8000000D2E5060050E1085083E2EEFFFF1A07
:10410800012082E20C2084E504009DE508D08DE2C0
:104118007040BDE81EFF2FE10000A0E3FAFFFFEAB0
:10412800013083E20C3080E52A10A0E30230A0E1E0
:1041380008D08DE27040BDE858F5FFEA70402DE9DF
:104148000C3090E50020D3E54A0052E301308302A9
:104158000040A0E10C3080050B00000A000051E38C
:104168000150A0010800001A0400A0E11EFDFFEBA9
:10417800003050E20800000A0400A0E12510A0E386
:104188000520A0E17040BDE844F5FFEA0400A0E185
:104198000CFAFFEB005050E2F2FFFF1A0000A0E318
:1041A8007040BDE81EFF2FE1F0472DE90C2090E597
:1041B8000030D2E5470053E3540053130050A0E108
:1041C8000160A0E13800000ADDF8FFEB000050E3D1
:1041D800000056130040A0E11700001A0C3095E5C6
:1041E8000030D3E5000053E3000054132B00000A0D
:1041F800450053E32900000A0410A0E10030D1E58E
:10420800040053E37500000A1A3043E20100003A43
:10421800020053E32E00009A0010A0E30500A0E17D
:10422800C5FFFFEB0310A0E30030A0E10420A0E1EC
:104238000500A0E1F047BDE818F5FFEA083095E56C
:10424800010013E3E4FFFF1A0030D4E51A2043E22B
:10425800020052E30400008A044094E50030D4E5EB
:104268001A2043E2020052E3FAFFFF9A020053E3E6
:104278000A00001A083094E50020D3E51A2042E22B
:10428800020052E30400008A043093E50020D3E5DD
:104298001A2042E2020052E3FAFFFF9A083084E54E
:1042A8000400A0E1F047BDE81EFF2FE1301090E5C3
:1042B800143081E2303080E50030D2E5540053E319
:1042C8000700000A470053E37B00000A0040A0E310
:1042D800F2FFFFEA041091E5000051E3C6FFFF1A60
:1042E800CDFFFFEA013082E20C3080E50130D2E5F3
:1042F800000053E3F4FFFF0A022082E2433043E266
:104308000C2080E5330053E303F19F97EEFFFFEAAB
:1043180074470008D4420008D442000858470008EF
:10432800D4420008D442000800490008E4480008C4
:10433800D4420008D4420008D4420008D4420008FD
:10434800D4420008D4420008D4420008D4420008ED
:10435800C8480008A4480008D4420008804800085B
:10436800D4420008D4420008D4420008D4420008CD
:10437800D4420008D4420008D4420008D4420008BD
:10438800D4420008D4420008D4420008D4420008AD
:1043980038480008D4420008D4420008D442000833
:1043A800D442000804480008D4420008D442000857
:1043B800D4420008D4420008D4420008D44200087D
:1043C800D4420008D4420008D4420008D44200086D
:1043D800D4420008D4420008D4420008D04700085C
:1043E800043091E5000053E37300000A0020D3E590
:1043F800012042E22E0052E302F19F976E0000EA8C
:10440800B8450008B8450008C4450008C445000878
:10441800C4450008C445000820420008204200089E
:10442800C4450008C4450008C4450008C445000840
:10443800C4450008C4450008C4450008C445000830
:10444800C4450008C4450008C4450008C445000820
:10445800C4450008C4450008C4450008C445000810
:10446800C4450008C4450008C4450008C445000800
:10447800C4450008C4450008C4450008C4450008F0
:10448800C4450008C4450008C4450008C4450008E0
:10449800C4450008C4450008C4450008C4450008D0
:1044A800C4450008C4450008C4450008C4450008C0
:1044B800C4450008C445000820420008013082E2D3
:1044C8000C3085E50130D2E5000053E37EFFFF0A9A
:1044D800021082E2413043E20C1085E5310053E3DB
:1044E80003F19F9778FFFFEACC450008D442000803
:1044F800D4420008D4420008D4420008D44200083C
:10450800D4420008D4420008D4420008D44200082B
:10451800D4420008D4420008D4420008D44200081B
:10452800D4420008D4420008D442000830460008AB
:10453800D4420008F0450008D44200083847000873
:10454800D4420008D4420008D4420008D4420008EB
:10455800D4420008D4420008D4420008D4420008DB
:10456800D4420008D4420008D4420008D4420008CB
:10457800D4420008D4420008D4420008D4420008BB
:10458800D4420008D4420008D4420008D4420008AB
:10459800D4420008D4420008D4420008D44200089B
:1045A800D4420008D4420008D44200085C460008FF
:1045B800083093E5000053E38BFFFF1A0110A0E3D6
:1045C80015FFFFEA0010A0E30500A0E1F5FEFFEBF0
:1045D8001510A0E30020A0E10030A0E30500A0E151
:1045E800F047BDE82DF4FFEA0230D2E5000053E3BE
:1045F8000010A0E30500A0E10300000A032082E206
:104608006E0053E30C2085E5DC00000AE5FEFFEBB5
:104618004310A0E30020A0E10030A0E30500A0E1E2
:10462800F047BDE81DF4FFEA0500A0E1C4F7FFEB81
:104638000040A0E10500A0E1BFF4FFEB1410A0E3E7
:104648000030A0E10420A0E10500A0E1F047BDE8AA
:1046580012F4FFEA0500A0E198F4FFEB010050E333
:1046680019FFFFDA0C6095E50030D6E5000053E34A
:1046780015FFFF0A016086E25F0053E30C6085E5E1
:1046880011FFFF1A017040E20080A0E33BA0A0E305
:104698000030D6E5000053E30BFFFF0A240053E384
:1046A8000040A0139A00000A0430D6E7000053E344
:1046B8000400000A240053E30200000A014084E2D7
:1046C800070054E1F7FFFFBA0610A0E10500A0E1DA
:1046D8000420A0E15FF4FFEB0C6095E5003050E2A8
:1046E800046086E00C6085E5077064E0F6FEFF0A6A
:1046F800000058E39F00000A0820A0E10500A0E19F
:104708003A10A0E3E5F3FFEB008050E2EEFEFF0A6B
:10471800000057E3DDFFFFCA0500A0E13910A0E360
:104728000820A0E10030A0E3F047BDE8DBF3FFEA92
:104738000500A0E182F7FFEB1310A0E30020A0E141
:104748000030A0E30500A0E1F047BDE8D3F3FFEA9D
:104758009CF8FFEB0E10A0E30020A0E10030A0E3DE
:104768000500A0E1F047BDE8CCF3FFEA95F8FFEBC0
:104778000040A0E10500A0E150F4FFEB000050E389
:10478800D1FEFFBA0C2095E50010D2E55F0051E399
:10479800CDFEFF1A012082E20C2085E50500A0E18C
:1047A80088F8FFEB303095E5053083E20020A0E182
:1047B800303085E50500A0E10B10A0E30430A0E14E
:1047C800F047BDE8B5F3FFEA7610A0E364F6FFEB27
:1047D800000050E3BCFEFF0A0010A0E30500A0E1C2
:1047E80070FEFFEB1010A0E30020A0E10030A0E372
:1047F8000500A0E1F047BDE8A8F3FFEA6810A0E3D0
:1048080057F6FFEB000050E3AFFEFF0A0010A0E3ED
:104818000500A0E163FEFFEB0F10A0E30020A0E17C
:104828000030A0E30500A0E1F047BDE89BF3FFEAF4
:104838000010A0E34AF6FFEB000050E3A2FEFF0AD7
:104848000500A0E10010A0E345F6FFEB000050E3EF
:104858009DFEFF0A0010A0E30500A0E151FEFFEB5A
:104868001110A0E30020A0E10030A0E30500A0E1C2
:10487800F047BDE889F3FFEA0F1081E2301080E5C8
:1048880050F8FFEB0910A0E30020A0E10030A0E3FE
:104898000500A0E1F047BDE880F3FFEA0A1081E2D5
:1048A800301080E547F8FFEB0A10A0E30020A0E1F4
:1048B8000030A0E30500A0E1F047BDE877F3FFEA88
:1048C80040F8FFEB0D10A0E30020A0E10030A0E3CA
:1048D8000500A0E1F047BDE870F3FFEA39F8FFEB07
:1048E8001210A0E30020A0E10030A0E30500A0E141
:1048F800F047BDE869F3FFEA32F8FFEB0C10A0E3DC
:104908000020A0E10030A0E30500A0E1F047BDE8E9
:1049180062F3FFEA0130D6E5530053E32400000AAE
:104928005F0053E32000000A240053E366FEFF1AE9
:1049380003C0A0E1142095E5181095E5010052E1A7
:10494800150000AA101095E5820082E0003191E080
:10495800012082E2142085E50F00000A04C083E5E7
:104968000C6095E5026086E200A1C1E7027047E2AB
:104978000C6085E55DFFFFEA0380A0E163FFFFEAC5
:1049880008FEFFEB4410A0E30020A0E10030A0E304
:104998000500A0E1F047BDE840F3FFEA0C3095E5DB
:1049A800023083E20C3085E547FEFFEA2EC0A0E323
:1049B800DFFFFFEA2FC0A0E3DDFFFFEA043092E546
:1049C800F0412DE9013083E2084092E5013083E0AF
:1049D800040053E10250A0E10160A0E10070A0E1F1
:1049E8001000008A0C4095E5000054E30100000A1D
:1049F800F041BDE81EFF2FE10620A0E1090095E87F
:104A0800030080E00710A0E1202000EB0C0095E8EF
:104A1800062082E00340C2E7043095E5066083E0A3
:104A2800046085E5F1FFFFEA0C2092E5000052E3FF
:104A3800EEFFFF1A000054E30200001A020053E3DD
:104A48000240A0E30200009A8440A0E1040053E180
:104A5800FCFFFF8A000095E50410A0E1252100EB8A
:104A6800008050E20080851508408515DCFFFF1A9C
:104A7800000095E5C61D00EB0130A0E3008085E548
:104A8800048085E5088085E50C3085E5D7FFFFEAD9
:104A9800F04F2DE9005052E20130A0035CD04DE206
:104AA8000040A0E10160A0E1183180058400000AFF
:104AB800183190E5000053E38100001A0030D5E575
:104AC800460053E303F19F97E50200EAEC5500081E
:104AD8007455000874550008C4530008E8560008C7
:104AE8007856000898570008B853000884530008FF
:104AF80018530008AC52000840520008D45100086E
:104B080068510008FC500008905000082450000824
:104B1800644E0008B84F00088C4D00084C4F000840
:104B2800F84D0008D04E0008304D0008304D000800
:104B3800304D0008D84C0008D84C0008D84C000864
:104B4800D84C0008D84C0008106100081061000813
:104B5800D84C0008D84C00088C6000088060000819
:104B680048600008C0610008706100086C630008B4
:104B780070610008605B0008605B000898640008CA
:104B8800F86200082C640008DC5F00081C5A000862
:104B9800E4590008F04B0008D8590008C05F000825
:104BA800B45F0008B45F0008085F0008085F0008E9
:104BB8009C5E0008445B0008205B0008945A0008CB
:104BC800285A0008C45D0008585D0008EC5C00081D
:104BD8006C560008805C0008305E00086C590008BC
:104BE800805800080C580008087095E50030D7E593
:104BF800330053E30130A013183180153000001A38
:104C0800043095E50020D3E52D0052E3B00A000AF0
:104C1800043093E5741F9FE5000093E5692300EBDA
:104C2800000050E3042097E50200001A0030D2E5A6
:104C3800030053E3E30A000A0400A0E10610A0E120
:104C4800241000EB048095E5043098E5007093E5A6
:104C58003C1F9FE50700A0E15A2300EB000050E34A
:104C68008F0A000A0700A0E1201F9FE5552300EBEB
:104C7800000050E3CE0A001A083095E50400A0E1D0
:104C88000610A0E1082093E5121000EB043095E52A
:104C98000020D3E52D0052E30900001A043093E503
:104CA800082093E5010052E30500001A043093E55B
:104CB8000030D3E53E0053E30400A0012910A0030F
:104CC8004FF4FF0B5CD08DE2F04FBDE81EFF2FE1E3
:104CD80014C194E558308DE240C023E5102194E5D5
:104CE800143184E50030A0E31C508DE520308DE5BB
:104CF80024208DE5042095E50400A0E10610A0E13C
:104D080062FFFFEB20309DE5000053E30400A001A3
:104D18000610A0010520A001850B000B18309DE5A9
:104D2800143184E5E6FFFFEA14C190E500005CE376
:104D3800E7FFFF0A0C20A0E1020000EA002092E54C
:104D4800000052E3E2FFFF0A081092E5000051E379
:104D5800F9FFFF1A041092E50010D1E5170041E2AF
:104D6800020050E3DAFFFF8A010053E1F2FFFF1A65
:104D78000400A0E10610A0E1042095E543FFFFEB45
:104D8800CFFFFFEA0C7E9FE5001190E5139087E2C4
:104D980000A0A0E3060000EA0130A0E1011081E2D2
:104DA800090057E10380C4E7001184E50481C4E5E4
:104DB8000A06000AFF0051E30180F7E5F5FFFF1A34
:104DC800FFA0C4E50400A0E10C2194E508C194E526
:104DD8000FE0A0E11CFF2FE1203194E5013083E2D0
:104DE800203184E50110A0E30030A0E3EBFFFFEAE7
:104DF800A47D9FE5001190E5119087E200A0A0E353
:104E0800060000EA0130A0E1011081E2090057E143
:104E18000380C4E7001184E50481C4E50806000A9C
:104E2800FF0051E30180F7E5F5FFFF1AFFA0C4E595
:104E38000400A0E10C2194E508C194E50FE0A0E18D
:104E48001CFF2FE1203194E5013083E2203184E515
:104E58000110A0E30030A0E3EBFFFFEA3C7D9FE5F3
:104E6800001190E51A9087E200A0A0E3060000EA8E
:104E78000130A0E1011081E2090057E10380C4E795
:104E8800001184E50481C4E5B005000AFF0051E380
:104E98000180F7E5F5FFFF1AFFA0C4E50400A0E1D3
:104EA8000C2194E508C194E50FE0A0E11CFF2FE177
:104EB800203194E5013083E2203184E50110A0E33C
:104EC8000030A0E3EBFFFFEA087095E5000057E328
:104ED800048095E57AFFFF0A0050A0E3001190E5F1
:104EE80005A0A0E1070000EA0130A0E1011081E27D
:104EF800015085E2050057E10360C4E7001184E52D
:104F08000461C4E56EFFFF0AFF0051E30560D8E7BE
:104F1800F4FFFF1AFFA0C4E50400A0E10C2194E50A
:104F280008C194E50FE0A0E11CFF2FE1203194E5D2
:104F3800013083E2203184E50110A0E30030A0E3D2
:104F4800EAFFFFEA587C9FE5001190E5159087E29B
:104F580000A0A0E3060000EA0130A0E1011081E210
:104F6800090057E10380C4E7001184E50481C4E522
:104F78007B05000AFF0051E30180F7E5F5FFFF1A02
:104F8800FFA0C4E50400A0E10C2194E508C194E564
:104F98000FE0A0E11CFF2FE1203194E5013083E20E
:104FA800203184E50110A0E30030A0E3EBFFFFEA25
:104FB800F07B9FE5001190E50F9087E200A0A0E349
:104FC800060000EA0130A0E1011081E2090057E182
:104FD8000380C4E7001184E50481C4E55605000A8E
:104FE800FF0051E30180F7E5F5FFFF1AFFA0C4E5D4
:104FF8000400A0E10C2194E508C194E50FE0A0E1CC
:105008001CFF2FE1203194E5013083E2203184E553
:105018000110A0E30030A0E3EBFFFFEA887B9FE5E7
:10502800001190E5119087E200A0A0E3060000EAD5
:105038000130A0E1011081E2090057E10380C4E7D3
:10504800001184E50481C4E5D105000AFF0051E39D
:105058000180F7E5F5FFFF1AFFA0C4E50400A0E111
:105068000C2194E508C194E50FE0A0E11CFF2FE1B5
:10507800203194E5013083E2203184E50110A0E37A
:105088000030A0E3EBFFFFEA207B9FE5001190E5ED
:10509800159087E200A0A0E3060000EA0130A0E135
:1050A800011081E2090057E10380C4E7001184E59B
:1050B8000481C4E5B105000AFF0051E30180F7E56A
:1050C800F5FFFF1AFFA0C4E50400A0E10C2194E558
:1050D80008C194E50FE0A0E11CFF2FE1203194E521
:1050E800013083E2203184E50110A0E30030A0E321
:1050F800EBFFFFEAB87A9FE5001190E5109087E290
:1051080000A0A0E3060000EA0130A0E1011081E25E
:10511800090057E10380C4E7001184E50481C4E570
:105128009105000AFF0051E30180F7E5F5FFFF1A3A
:10513800FFA0C4E50400A0E10C2194E508C194E5B2
:105148000FE0A0E11CFF2FE1203194E5013083E25C
:10515800203184E50110A0E30030A0E3EBFFFFEA73
:10516800507A9FE5001190E5129087E200A0A0E335
:10517800060000EA0130A0E1011081E2090057E1D0
:105188000380C4E7001184E50481C4E57105000AC1
:10519800FF0051E30180F7E5F5FFFF1AFFA0C4E522
:1051A8000400A0E10C2194E508C194E50FE0A0E11A
:1051B8001CFF2FE1203194E5013083E2203184E5A2
:1051C8000110A0E30030A0E3EBFFFFEAE8799FE5D8
:1051D800001190E50D9087E200A0A0E3060000EA28
:1051E8000130A0E1011081E2090057E10380C4E722
:1051F800001184E50481C4E55105000AFF0051E36C
:105208000180F7E5F5FFFF1AFFA0C4E50400A0E15F
:105218000C2194E508C194E50FE0A0E11CFF2FE103
:10522800203194E5013083E2203184E50110A0E3C8
:105238000030A0E3EBFFFFEA80799FE5001190E5DD
:10524800189087E200A0A0E3060000EA0130A0E180
:10525800011081E2090057E10380C4E7001184E5E9
:105268000481C4E51205000AFF0051E30180F7E557
:10527800F5FFFF1AFFA0C4E50400A0E10C2194E5A6
:1052880008C194E50FE0A0E11CFF2FE1203194E56F
:10529800013083E2203184E50110A0E30030A0E36F
:1052A800EBFFFFEA18799FE5001190E5089087E287
:1052B80000A0A0E3060000EA0130A0E1011081E2AD
:1052C800090057E10380C4E7001184E50481C4E5BF
:1052D800F204000AFF0051E30180F7E5F5FFFF1A29
:1052E800FFA0C4E50400A0E10C2194E508C194E501
:1052F8000FE0A0E11CFF2FE1203194E5013083E2AB
:10530800203184E50110A0E30030A0E3EBFFFFEAC1
:10531800B0789FE5001190E50B9087E200A0A0E32C
:10532800060000EA0130A0E1011081E2090057E11E
:105338000380C4E7001184E50481C4E5D204000AAF
:10534800FF0051E30180F7E5F5FFFF1AFFA0C4E570
:105358000400A0E10C2194E508C194E50FE0A0E168
:105368001CFF2FE1203194E5013083E2203184E5F0
:105378000110A0E30030A0E3EBFFFFEA001190E585
:10538800FF0051E301208112BA07000A7E30A0E332
:105398000130C4E7002184E50431C4E50400A0E13C
:1053A8000610A0E1082095E5B8FDFFEB44FEFFEAF2
:1053B800082095E5B5FDFFEB41FEFFEA00C0A0E33C
:1053C800148190E514C180E504808DE5048095E59D
:1053D8000C0058E1AF08000A0030D8E558208DE2EB
:1053E80040C022E510B190E51A3043E2020053E3D1
:1053F80000208DE5142180E51C808DE520C08DE519
:1054080024B08DE58209008A0230A0E10170A0E392
:1054180002A0A0E1048098E5000058E307228AE092
:105428009C08000A040057E3A705000A0000D8E515
:10543800141194E51A0040E2020050E3101083E5CD
:10544800148083E518C083E51CB083E5142184E546
:10545800017087E2103083E2EDFFFF9A0030D8E553
:10546800040053E31709000A020053E32700001A57
:1054780008A098E50030DAE5410053E304A09A0556
:105488000030DAE51A3043E2020053E31F00008AD5
:10549800030057E31009008A00309DE5019047E2B8
:1054A80008808DE509C283E00C608DE50380A0E1EA
:1054B800030000EA040057E306C0A0E10609000A59
:1054C800019047E20F009CE810608CE20F0086E82C
:1054D800099288E0073288E00020A0E3143184E5CF
:1054E80010908CE504A08CE508208CE50CB08CE5C8
:1054F80004A09AE50030DAE51A3043E2020053E3EB
:10550800017087E2EAFFFF9A08809DE50C609DE53F
:105518000400A0E10610A0E1082095E55BFDFFEB83
:105528000030D8E5040053E310309D0510318405A0
:10553800000057E30900000A00809DE520A0A0E3D1
:10554800075288E0088015E5000058E3017047E23B
:10555800EA07000A000057E3105045E2F8FFFF1A77
:1055680004809DE5148184E5D5FDFFEA042095E5D6
:1055780046FDFFEB04A016E23604001A48769FE5C4
:10558800001194E5029087E2060000EA0130A0E1EC
:10559800011081E2090057E10380C4E7001184E5A6
:1055A8000481C4E53304000AFF0051E30180F7E5F4
:1055B800F5FFFF1AFFA0C4E50400A0E10C2194E563
:1055C80008C194E50FE0A0E11CFF2FE1203194E52C
:1055D800013083E2203184E50110A0E30030A0E32C
:1055E800EBFFFFEA046011E23E05001A087095E53A
:1055F800000057E3048095E5B1FDFF0A001190E52E
:1056080006A0A0E1070000EA0130A0E1011081E254
:10561800016086E2060057E10350C4E7001184E503
:105628000451C4E5A6FDFF0AFF0051E30650D8E780
:10563800F4FFFF1AFFA0C4E50400A0E10C2194E5E3
:1056480008C194E50FE0A0E11CFF2FE1203194E5AB
:10565800013083E2203184E50110A0E30030A0E3AB
:10566800EAFFFFEA0130A0E3183180E594FDFFEA84
:105678000510A0E1FBF1FFEB002050E21400000A46
:105688000030D2E52B0053E31C3194050A00000AD0
:10569800105194E5003095E50400A0E1103184E54F
:1056A8000610A0E1F9FCFFEB105184E584FDFFEA48
:1056B8000010D2E52B0051E30500001A000053E367
:1056C800360800DA082092E5000052E3013043E290
:1056D800F6FFFF1A0130A0E3183184E578FDFFEAF0
:1056E8000030A0E3148190E5143180E5040011E353
:1056F800047095E50500000A0030D7E5000053E383
:105708000200001A082097E5060052E3FC07000A89
:105718000400A0E10610A0E10720A0E1DBFCFFEBFC
:105728000431D4E53C0053E3AE07000A003194E5A8
:10573800FF0053E301108312B306000A3C20A0E3E4
:105748000320C4E7001184E50421C4E50400A0E1B6
:105758000610A0E1082095E5CCFCFFEB0431D4E568
:105768003E0053E39607000A003194E5FF0053E337
:10577800011083129606000A3E20A0E30320C4E726
:10578800001184E50421C4E5148184E54CFDFFEA99
:10579800048095E5000058E32B05001A2C549FE57A
:1057A800001190E5047085E2060000EA0130A0E1EE
:1057B800011081E2070055E10360C4E7001184E5A8
:1057C8000461C4E53EFDFF0AFF0051E30160F5E511
:1057D800F5FFFF1AFF80C4E50400A0E10C2194E561
:1057E80008C194E50FE0A0E11CFF2FE1203194E50A
:1057F800013083E2203184E50110A0E30030A0E30A
:10580800EBFFFFEAC8739FE5042095E59FFCFFEBDB
:10581800089087E2001194E500A0A0E3060000EAE2
:105828000130A0E1011081E2090057E10380C4E7DB
:10583800001184E50481C4E52D03000AFF0051E34B
:105848000180F7E5F5FFFF1AFFA0C4E50400A0E119
:105858000C2194E508C194E50FE0A0E11CFF2FE1BD
:10586800203194E5013083E2203184E50110A0E382
:105878000030A0E3EBFFFFEA041095E59AF1FFEB97
:10588800000050E30090A0133608000A0030D0E56D
:105898002B0053E38F04001A043090E5000053E313
:1058A8008C04000A080090E5000050E3019089E2AA
:1058B800F5FFFF1A04A095E500B0A0E3013049E226
:1058C80010839FE500308DE50B70A0E1020000EA2F
:1058D800017087E2090057E1F9FCFF0A1C7184E5B1
:1058E8000400A0E10610A0E10A20A0E167FCFFEB9C
:1058F80000309DE5070053E1F4FFFFDA001194E55D
:10590800D4529FE5060000EA0120A0E1011081E2DF
:10591800080055E102B0C4E7001184E504B1C4E50C
:10592800EAFFFF0AFF0051E301B0F5E5F5FFFF1AB2
:105938000020A0E3FF20C4E50400A0E10C2194E5C9
:1059480008C194E50FE0A0E11CFF2FE1202194E5B8
:10595800012082E2202184E50110A0E30020A0E3D9
:10596800EAFFFFEA74729FE5001190E51A9087E25A
:1059780000A0A0E3060000EA0130A0E1011081E2E6
:10598800090057E10380C4E7001184E50481C4E5F8
:10599800E402000AFF0051E30180F7E5F5FFFF1A72
:1059A800FFA0C4E50400A0E10C2194E508C194E53A
:1059B8000FE0A0E11CFF2FE1203194E5013083E2E4
:1059C800203184E50110A0E30030A0E3EBFFFFEAFB
:1059D8000130A0E3183180E5B9FCFFEA047095E5D1
:1059E8000030D7E52D0053E3085095E57105000A0E
:1059F8002F0053E3A005000A0720A0E18C0C00EB60
:105A08000400A0E10610A0E10520A0E1B10C00EB24
:105A1800ABFCFFEA042095E5850C00EBA8FCFFEA47
:105A2800BC719FE5001190E50A9087E200A0A0E311
:105A3800060000EA0130A0E1011081E2090057E107
:105A48000380C4E7001184E50481C4E5D803000A93
:105A5800FF0051E30180F7E5F5FFFF1AFFA0C4E559
:105A68000400A0E10C2194E508C194E50FE0A0E151
:105A78001CFF2FE1203194E5013083E2203184E5D9
:105A88000110A0E30030A0E3EBFFFFEA88119FE5D7
:105A9800042095E518008DE2AD1F00EB18008DE29B
:105AA800542000EB000050E385FCFF0A17508DE2FC
:105AB800001194E5007085E00080A0E3060000EA8C
:105AC8000130A0E1011081E2070055E10360C4E75D
