:020000040800F2
:1000000000C00120FD720008B1310008B5310008C0
:10001000B9310008BD310008C131000800000000FE
:10002000000000000000000000000000C5310008D2
:10003000C931000800000000CD310008D1310008AE
:1000400049730008497300084973000849730008A0
:100050004973000849730008C53300084973000854
:10006000497300084973000849730008510D0008DE
:100070004973000849730008497300084973000870
:100080004973000849730008497300084973000860
:100090004973000849730008497300084973000850
:1000A0004973000849730008497300084973000840
:1000B0004973000849730008497300084973000830
:1000C0004973000849730008497300084973000820
:1000D0004973000849730008497300084973000810
:1000E0004973000849730008D933000849730008B0
:1000F0004973000849730008497300084D0D000852
:10010000497300084973000849730008550D000839
:1001100049730008497300084973000849730008CF
:1001200049730008497300084973000849730008BF
:1001300049730008497300084973000849730008AF
:100140004973000849730008497300080D3400081A
:10015000497300084973000849730008497300088F
:10016000497300084973000849730008497300087F
:10017000497300084973000849730008497300086F
:080180004973000849730008EF
:1001880030B547F24C34C0F6000483B0054601216F
:1001980054F8200005F0CEFD04EB450440F20003BE
:1001A800C2F20003228A53F82500009201238DF839
:1001B800043000228DF80730694602238DF80620A6
:1001C8008DF8053005F06EF903B030BD47F24C33B9
:1001D80040F20002C0F60003C2F2000203EB400343
:1001E80052F820201B8A1383704700BF47F24C3314
:1001F80040F20002C0F60003C2F2000203EB400323
:1002080052F820201B8A5383704700BF40F2000336
:10021800C2F2000347F24C32C0F6000253F8203015
:1002280002EB40025969128A4A405A61704700BF7E
:1002380030B50446012087B00D46014605F07AFD29
:1002480001214FF4804005F0ADFD06A9012241F8D7
:10025800102D164A02EB8402002410698DF80C4018
:100268008DF80F4005F01EF9012D01D007B030BD03
:100278002046214606F060F8082304A88DF81530BA
:1002880004958DF814408DF8165004F0E3FD0F2303
:10029800062201A88DF804208DF805308DF8063067
:1002A8008DF8075004F034F8E0E700BF00000020A4
:1002B80008B540F20003C2F2000303EB80000121FD
:1002C800006905F067F908BD4FF4406008B5C4F24D
:1002D80002001021002205F075F944F6FF73013B76
:1002E800FDD14FF44060C4F202001021012205F054
:1002F80069F908BD70B5214C94E8030004F0F6FCD8
:1003080000282AD0A568002D28D020681B4D04F0AD
:10031800E5FC0028F9D11A4C95E8030004F006FD25
:10032800184B2168AA689960286819464FF6FF7625
:10033800B24294BF1A611E6104F036FC286801219C
:1003480004F088FCAB682268B34238BF1E4602EB53
:1003580046029E1B2260AE6070BD70BD20682946B3
:1003680004F078FC94E8030004F0E0FC044B1868FF
:100378002946BDE8704002F0CFBE00BF140000203F
:1003880024020020A401002070B5AE4C4FF496134F
:1003980005460E46E3604FF4A840C4F200004FF44F
:1003A800003105F02BFB40B1E3685A1EE260002BD8
:1003B800F1D1BDE8704002F0EBBE4FF4A840C4F2A2
:1003C8000000012105F0EAF94FF48053E3604FF48F
:1003D800A8400121C4F20000C0F2030105F0FAFAB6
:1003E80028B9E3685A1EE260002BF0D1E1E74FF428
:1003F800A840C4F200009421002205F0EBF94FF464
:100408008053E3604FF4A8408221C4F20000C0F298
:10041800070105F0DFFA28B9E3685A1EE260002BED
:10042800F0D1C6E74FF4A840C4F20000294605F011
:1004380069FA4FF48053E3604FF4A8408021C4F276
:100448000000C0F2070105F0C5FA28B9E3685A1E92
:10045800E260002BF0D1ACE74FF4A840C4F20000F2
:10046800314605F04FFA4FF49613E3604FF4A84075
:100478000421C1F20001C4F2000005F0BFFA38B946
:10048800E3685A1EE260002BF0D102F081FEEDE72E
:100498004FF4A840C4F20000012105F08DF94FF493
:1004A8009613E3604FF4A840C4F200004FF4003103
:1004B80005F0A4FA58B1E3685A1EE260002BF1D1A6
:1004C80002F066FE0546701B18BF012070BD4FF490
:1004D800A840C4F20000012105F060F94FF48053F0
:1004E800E3604FF4A8400121C4F20000C0F2030108
:1004F80005F070FA28B9E3685A1EE260002BF0D1C3
:10050800DEE74FF4A840C4F200009421002205F071
:1005180061F94FF48053E3604FF4A8408221C4F29C
:100528000000C0F2070105F055FA28B9E3685A1E21
:10053800E260002BF0D1C3E74FF4A840C4F20000FA
:10054800294605F0DFF94FF48053E36004E0E368DF
:100558005A1EE260002BB3D04FF4A8400421C4F225
:100568000000C1F2000105F049FA0028EFD04FF46D
:10057800A840C4F20000012105F010F94FF480539F
:10058800E3604FF4A8400121C4F20000C0F2030167
:1005980005F020FA28B9E3685A1EE260002BF0D172
:1005A8008EE74FF4A840C4F200009421012205F020
:1005B80011F94FF48053E3604FF4A845C4F20005E5
:1005C80002212846C1F2000105F018FA28B9E368AB
:1005D8005A1EE260002BEFD172E72846002105F091
:1005E80003F9284601212B8B05F0E6F84FF48053D8
:1005F800E3604FF4A8404021C4F20000C1F20001BA
:1006080005F0FCF928B9E3685A1EE260002BF0D126
:1006180056E74FF4A840C4F2000005F075F94FF40E
:10062800A8434FF480520546E260C4F200031A88DA
:1006380002F4007292B23AB1E268511EE160002AF7
:10064800F5D13DE7140000204FF4A8400121C4F281
:10065800000005F0C9F84FF4A8404FF48061C4F2D7
:100668000000C1F2000105F0E5F92CE70420FF21A4
:10067800FFF78ABE193038B5C4B221462020FFF7EB
:1006880083FE214605462120FFF77EFE401938BD2E
:10069800294BF0B418611A69012A2BD0022801D01D
:1006A800F0BC704747F20C46C4F2000646F2100749
:1006B800C4F202079E61214E1F60202510240120EC
:1006C800082104220027C1F20005C1F20004C1F28A
:1006D8008000C1F20001C1F280024FF4001CF763F0
:1006E8000B26C3F814C0DE615D601C625862996213
:1006F800DA62D5E743F60C42C4F2000246F2B801CA
:10070800C4F202019A610D4A19600021D1632F22B7
:10071800DA614FF020525A604FF010521A624FF0CF
:1007280001525A624FF008524FF400109A624FF08B
:1007380004525861DA62B3E714000020A4010020D3
:100748002DE9F047642990B0174688BF4FF0640838
:100758000CD848F21F58C1EB0121C5F2EB1888FBF1
:100768000138C917C1EB68185FFA88F80820012119
:1007780005F0E0FA4FF44060022500240126C4F297
:10078800020002A94FF010098DF80D50CDF808901D
:100798008DF80C608DF80E408DF80F4004F082FE45
:1007A8000720314605F0C6FA4FF480604FF4107305
:1007B800C4F2020002A902938DF80C508DF80D5076
:1007C8008DF80E608DF80F4004F06CFE4FF48060D9
:1007D80006210422C4F2020004F000FF4FF48060F6
:1007E80004220921C4F2020004F0F8FE4FF400606C
:1007F8004FF4A053C4F2020002A902938DF80C50E2
:100808008DF80D508DF80E408DF80F4004F04AFE1B
:10081800204604210622C4F2020004F0DFFE9A4DAD
:100828004FF400600A210622C4F2020004F0D6FE4A
:100838002B69022B00F0E980204602A9C4F20200CD
:10084800CDF8089004F02EFE4FF40060C4F20200C8
:100858000C21062204F0C2FE4FF400608023022619
:100868000024C4F2020002A902938DF80C608DF8EE
:100878000D608DF80E408DF80F4004F013FE4FF414
:10088800006006220721C4F2020004F0A7FEFFF769
:100898001BFD01214FF4001005F076FA4FF4A84033
:1008A800C4F2000004F0B2FE0DF1400948F2A06362
:1008B800C0F201034FF4804A49F8303D4BF6FF730C
:1008C800ADF816304FEA0A403323012140F4A8401E
:1008D800ADF818304FF48063ADF81A30ADF8144015
:1008E800ADF81CA004F04CFF4FEA0A40494640F41A
:1008F800A84004F0C3FE01213046FFF745FDAF21B3
:1009080006460420FFF740FD604BAF22812186197F
:10091800052083F84020FFF737FD0421361806200C
:10092800FFF732FD36184046FFF7A4FE2B69022B6D
:1009380000F08E809E210220FFF726FD002134184A
:100948000A20FFF721FD2B69022B044404D00E2056
:100958000421FFF719FD241800212720FFF714FDB3
:100968000F2126181F20FFF70FFD0A2136181A201D
:10097800FFF70AFD0A2136181B20FFF705FD0121A4
:1009880036184FF4004005F0FFF94FF47050C4F2E8
:10099800000005F0E1FA4FF4705000244FF40073A2
:1009A800C4F2000008A9ADF82030ADF826300A9747
:1009B800ADF82240ADF82440ADF82C4005F02EFBF0
:1009C8002B69022B33D00120E6B93323012401A877
:1009D8008DF804308DF805608DF806608DF80740B5
:1009E80003F096FC4FF47050C4F2000071212246C7
:1009F80005F054FC4FF47050C4F20000214605F095
:100A0800A5FB304610B0BDE8F0873046314605F00A
:100A180091F900200323C4F2020002A9CDF808903E
:100A28008DF80C308DF80F4004F03CFD14E70121DF
:100A38004FF0005005F0A8F90CA920460C940D942D
:100A48000F9403F0C7FE2046012103F0E3FEBAE746
:100A580001210820FFF798FC012180460920FFF7B3
:100A680093FCC02180440E20FFF78EFC46442146AB
:100A780036181420FFF788FC214636181520FFF792
:100A880083FC361856E700BF14000020A40100209C
:100A980070B540F21406C2F2000684B0F36900246F
:100AA80001A88DF804308DF805408DF806408DF8C2
:100AB800074003F02DFC2146306804F0CBF84FF4D2
:100AC80000653068C4F2020503F07AFF2646FFF796
:100AD800FBFB01210220FFF757FCC4F2020628465F
:100AE80002A94FF4A05302938DF80C408DF80D40E5
:100AF8008DF80E408DF80F4004F0D4FC102302A9A5
:100B08003046029304F0CEFC30460421224604F01D
:100B180065FD28460A21224604F060FD2246284643
:100B28000C2104F05BFD4FF47056802302A928467F
:100B38000293C4F2000604F0B5FC062228460721F9
:100B480004F04CFD2146304605F000FB304605F028
:100B580003FA4FF40040214605F016F9204604B088
:100B680070BD00BF2DE9F0411E4C1F4BD4F810801A
:100B78001C4F4D088A08B5F5003F064628BF4FF6BA
:100B8800FF72B8F1010F256338689E6019461A6133
:100B980020D004F009F83868012104F05BF84FF41C
:100BA8007050C4F20000828B02F4806292B212B9D3
:100BB800012105F0CBFA236B4FF6FF72934228BF51
:100BC80013460A4AED1A06EB4306A5601660002094
:100BD800BDE8F08103F0E8FF3868414604F03AF8D0
:100BE800DDE700BF14000020A4010020240200203B
:100BF80070B550B3244D042095F84010FFF7C4FB9E
:100C080095F8401004460420FFF7BEFB9E210546D8
:100C18000220FFF7B9FB4019041901D0012070BD6B
:100C28004FF47055C4F2000528460221012205F050
:100C38002BFB164B0121186804F00CF8AE8B06F458
:100C48008066B6B2CEB1204670BDFFF70FFD012118
:100C580004460220FFF798FB2418DFD14FF47050A8
:100C680002212246C4F2000005F00EFB074B214684
:100C7800186803F0EFFF204670BD2846012105F0F3
:100C880065FA304670BD00BFA401002014000020A2
:100C980070B50446FFF7EAFC022C2CD002209F21F5
:100CA800FFF772FB40F6FF720546013AFDD14FF49B
:100CB8004060C4F20200102104F084FC0DB1012050
:100CC80070BD104C2946206803F0C4FF266A61688D
:100CD800626AA36A206831431143194304F026F875
:100CE8004FF47050C4F20000294605F02FFA236B28
:100CF8002846A36070BD20469F21FFF745FB0546A7
:100D0800DCE700BF1400002064280DD848F21F5308
:100D1800C0EB0020C5F2EB1383FB0023C017C0EB28
:100D28006310C0B2FFF7A6BC6420FBE7012805D01A
:100D3800034B93F840100420FFF726BBFFF796BC3F
:100D4800A4010020FFF7D6BAFFF7D4BA4FF47050C9
:100D580008B5C4F20000022105F0B0FA70B10B4BDF
:100D68001B69022B0BD002F0DBF901464FF47050DF
:100D7800C4F20000BDE8084005F066BA08BD02F0FC
:100D8800CFF90146042003F08BFDECE714000020A6
:100D980010B5012086B00121C0F2200004F0CAFF7E
:100DA80001214FF0005004F0EFFF0020102304460B
:100DB80069460093C4F2020003238DF804308DF8CD
:100DC800074004F06FFB02A920460294039405949F
:100DD80003F000FD2046012103F01CFD06B010BD04
:100DE80038B51B4C4FF480530546236003E0236855
:100DF8005A1E226043B34FF44050C4F2010002214E
:100E080005F05CFA0028F2D04FF44050C4F201001B
:100E1800294605F019FA4FF48053236003E023684C
:100E28005A1E226083B14FF44050C4F201000121E0
:100E380005F044FA0028F2D04FF44050C4F2010003
:100E480005F0FEF9C0B238BD01F038FCC0B238BDBB
:100E58004800002070B504460E464FF48050082123
:100E6800012A1546C4F2020018D904F0A9FB46F07D
:100E78004000FFF7B5FF013DADB20135651914F823
:100E8800010BFFF7ADFFAC42F9D14FF48050C4F22B
:100E980002000821BDE8704004F090BB04F090FB0C
:100EA8003046FFF79DFF002DE5D1EEE72DE9F04F25
:100EB80089B00025804601214FF480508DF80350F9
:100EC80004F070FF0120014604F034FF10200121D6
:100ED80004F030FF1020012104F02CFF2E461020D2
:100EE8000121C4F2020604F025FF05210A46304616
:100EF80008AC04F073FB30460621052204F06EFBB3
:100F08004FF0200905223046072104F067FB44F81A
:100F18001C9D0227304621468DF808708DF80A502E
:100F28008DF80B708DF809704FF4405A04F0BAFA36
:100F3800802330462146C4F2010A019304F0B2FA34
:100F4800402321463046019304F0ACFA504605F0A0
:100F580003F84FF40073ADF8163007234FF0080B71
:100F680003A95046ADF81C304FF480564FF48273F5
:100F7800ADF80E30C4F20206ADF80C50ADF81050C2
:100F8800ADF81250ADF81450ADF818B0ADF81A50CD
:100F980005F01AF85046012105F0CAF84FF0010A89
:100FA80030462146CDF804B08DF808A08DF80A50D7
:100FB8008DF8097004F076FA3046594604F0FEFAC6
:100FC80030462146CDF804A08DF808508DF80A5017
:100FD8008DF809708DF80B5004F064FA30462146FC
:100FE800019704F05FFA98F8004098F8013098F8F3
:100FF800030098F8041098F80220234303430B4396
:101008000DEB0900134300F81D3D49465246FFF712
:1010180021FF09B0BDE8F08F70B504460E464FF4C5
:1010280080500821012A1546C4F2020019D904F09B
:10103800C7FA46F0C000FFF7D3FE013DADB2013557
:1010480065190020FFF7CCFE04F8010BAC42F8D17B
:101058004FF48050C4F202000821BDE8704004F04B
:10106800ADBA04F0ADFA46F08000FFF7B9FE002DE6
:10107800E3D1EDE700B583B00DF10700212101228E
:10108800FFF7CAFF9DF807300DF1070043F0400352
:10109800212101228DF80730FFF7DCFE03B000BDE7
:1010A80010B582B02021012204460DF10700FFF798
:1010B800B3FF9DF8073023F020031C430DF1070010
:1010C800202101228DF80740FFF7C4FE02B010BDB1
:1010D80010B582B02021012204460DF10700FFF768
:1010E8009BFF9DF8073003F07F031C430DF10700B9
:1010F800202101228DF80740FFF7ACFE02B010BD99
:1011080010B582B02021012204460DF10700FFF737
:1011180083FF9DF8073023F040031C430DF10700BF
:10112800202101228DF80740FFF794FE02B010BD80
:1011380030B583B002AC002304F8013D05463821E0
:1011480020460122FFF768FF69782B78AA780B43BD
:1011580013432046382101228DF80730FFF77AFE25
:1011680003B030BD30B583B002AC002304F8013DB4
:101178000546212120460122FFF74EFF68782B788B
:101188009DF80720A97803430B4322F02F0213434D
:101198002046212101228DF80730FFF75BFE03B0BE
:1011A80030BD00BF10B584B02021012204460DF1E6
:1011B8000700FFF731FF062202A82921FFF72CFFBD
:1011C8009DF8073003F0200303F0FF0293B99DF95F
:1011D80008109DF90A209DF90C3001EBC10102EBC2
:1011E800C20203EBC303490052005B0084E80E000F
:1011F80004B010BD002AFBD09DF908109DF90A2003
:101208009DF90C3001EBC10102EBC20203EBC303F1
:10121800C900D200DB0084E80E00E9E770B5044697
:1012280002F0D2FA62780126002384F8126184F869
:1012380013313AB31946402503EB8300C00000F58B
:101248008C7022182354D3805670D1709560D16069
:101258005161627801339A42EED89AB10023194657
:10126800402503EB8300C00000F55C70221823546E
:10127800D3805170D1709560D1605161627801332B
:101288009A42EED8204602F0AFFB204602F02EFB31
:101298000021204602F0F4FB204602F04BFC2046D9
:1012A800BDE8704002F098BB38B501F07F0404EB4C
:1012B8008405ED0009060FD405F55C754119445500
:1012C80000244C708A60CB70022B01D100230B7173
:1012D80002F0D8FC002038BD05F58C75411944553D
:1012E80001254D708A60CB70CC80EDE708B501F020
:1012F8007F03CAB203EB830100EBC10112F0800F38
:1013080014BF01F58C7101F55C71D2090B704A703C
:1013180002F0ECFC002008BD70B501F07F0404EB7E
:101328008406F60006F55C76811900258455CA60A6
:101338004B618D614D70C378012B08BF0A611CB1E8
:1013480002F0F8FC002070BD02F094FD002070BD92
:10135800F8B501F07F0404EB8405ED0005F58C7504
:1013680041190127CA600A61002206464F70445598
:101378008A614B611CB102F0DDFC0020F8BD02F06F
:1013880079FD0020F8BD00BFCAB2130649BF01F0BD
:101398007F0101EB810301EB810300EBC30357BF1E
:1013A80000EBC30303F58C7303F55C7301F07F0155
:1013B80010B5D209012419709C705A70194602F0B0
:1013C800DFFD002010BD00BFCAB210B5140649BF2A
:1013D80001F07F0101EB810301EB810300EBC30303
:1013E80057BF00EBC30303F58C7303F55C7301F07F
:1013F8007F010024D20919709C705A70194602F0B6
:10140800D9FD204610BD00BF08B50B0603D402F075
:1014180017FB002008BD01F07F0102F0EDFA002063
:1014280008BD00BF03690022186861F30A1202436D
:101438001A60704703695A6803206FF341025A60C3
:1014480002F04CB903695A68032042F002025A605C
:1014580002F044B90A0645BF01F07F0101EB8101A2
:1014680001EB810100EBC10156BF00EBC10101F5A1
:101478008C7101F55C7102F03DBE00BF0B0645BFE3
:1014880001F07F0101EB810101EB810100EBC1015A
:1014980056BF00EBC10101F58C7101F55C7102F0DA
:1014A80057BE00BF2DE9F04F83B0054602F004FB9C
:1014B80010B903B0BDE8F08F284602F00BFB01908D
:1014C800002859D0C0F3074808F00800C0B2002827
:1014D80040F0CB8008F004085FFA88F3002B4DD168
:1014E800019AD4B204F00203DBB213B1EB68022212
:1014F8005A610199C1F3076303F08003DBB2002B43
:1015080040F06281019AC2F3072606F00803DBB2B5
:10151800002B40F0338104F00803DBB2002B40F0CD
:10152800238104F01004E4B2002C40F0F68006F0A9
:101538001003DBB2002B40F0858106F02006F6B2DE
:10154800002E40F06781019BC3F3074404F01003A9
:10155800DBB2002B40F0538104F02004E4B2002CED
:10156800A7D0984B1B6828461B6A9847EB684FF42E
:1015780000125A6101209CE701989AE7284602F078
:101588003BFD074600286ED02E464FF0000934E098
:1015980003F00402D2B212B1B2690423936003F0DB
:1015A8000802D2B212B1B2690823936003F01002A4
:1015B800D2B212B1B2691023936003F02002D2B202
:1015C80012B1B2692023936003F04002D2B212B183
:1015D800B2694023936003F00202D2B212B1B26939
:1015E8000223936003F08003DBB2002B40F080817C
:1015F80004367F0809F1010935D0F807F8D52A69BA
:101608005FFA89FA1069536B05EB8A0123FA0AF32A
:101618008969DB018968DBB203430B40DBB2D90778
:10162800B6D540F24C00C2F20000536B01680124A9
:1016380004FA09F023EA00035363B3694A689C601B
:1016480028465146904795F80380A04518BF234681
:101658009ED1B9F1000F04D195F81121042A00F0A8
:101668008D81434694E701203AE7284602F0B6FC0C
:10167800044600284FD0DFF84C91AB462E46002791
:1016880005E00137043664080BF1280B43D0E20764
:10169800F7D55FFA87FA2846514602F0A5FCC0B292
:1016A800C3071CD5736D01209860EA78824201BF98
:1016B8001A69DBF87833C2F31202C2EB030308BFDE
:1016C800CBF88833D9F80030514628461B6898472C
:1016D80095F803A00120BAF1010F00F0488100F04D
:1016E8000202D2B212B1726D0220906000F00402C0
:1016F800D2B212B1726D0420906000F00803DBB220
:10170800002BBED0D9F8003028469B689847736DE7
:1017180008219960B5E70120DCE6EB689A6922F0B8
:1017280010029A611C6A04F00F0202EB8202C4F3F1
:10173800434105EBC207022907F55C7700F0BA8040
:1017480006290BD10822284605F5B96102F028F8C8
:10175800BA69EB68C4F30A141219BA619A6942F0BB
:1017680010029A610120E2E6164B1B682846DB68E6
:101778009847EB6808225A610120D2E6114B1B6892
:1017880028465B6998472A69EB6891684FF40062BC
:101798005A61AB7A9BB1CB0711D5D5F80C311A68D1
:1017A80042F001021A6019684FF46D42CEF200024D
:1017B80041F003011960136943F006031361012026
:1017C800A9E600BF4C000020AB7A43B1D5F80C3134
:1017D800D5F80C216FF341036FF3000313602B69F5
:1017E8006A4A5968126821F00101596028469369CC
:1017F8009847EB684FF000425A61012082E6634B3C
:101808001B682846DB699847EB684FF480125A61D9
:101818000120A1E6284602F01FFAEB682846DC689A
:1018280002F00CFA03285AD00123AB704023AB8096
:10183800052363F38D24EB684FF40052DC6001202C
:101848005A6180E62B695A68002722F001025A6023
:101858002846394602F0D0F86B785BB12B463A46F9
:10186800FF2099698860596D88606978013204336E
:101878008A42F6D32B6901244FF0FF3264F30F0735
:101888009A6164F31F470F22DF615A612F221A61A0
:101898001A686FF30A121A60284602F0B3FB3B4A33
:1018A800EB6812684FF480515961284613699847CC
:1018B800204642E647F6F0722240002A3FF44EAF37
:1018C800C4F30A14F9682246284601F069FFF9684A
:1018D800BA69EB6809191219F960BA613EE7002381
:1018E800AB704FF40073AB80092363F38D24A2E738
:1018F80009EB890405EBC40404F58C74B2696369C7
:10190800A169A068D2F818C0C1EB0308804534BFAC
:10191800C34683460BF1030B1FFA8CFCBCEB9B0FF1
:1019280022D98B4220D9FBB1E16805E062699A426D
:1019380019D9A068C3EB0208404538BF80461FFA92
:1019480088F35246284601F015FFE168A36941442F
:101958004344E160A361B069826908F1030892B267
:10196800B2EB980FE2D802468021916040E61FB999
:1019780095F81121052A05D05046B0E6284602F010
:1019880041FB6EE6284602F03DFBF5E74C000020DF
:10199800D0F8E43510B51B6904469847032384F84A
:1019A8001231002010BD00BF08B50422D0F8E4357C
:1019B80080F81221DB689847002008BD08B5D0F8E8
:1019C800E035DB6903B19847002008BD08B5D0F8B9
:1019D800E0351B6A9847002008BD00BF08B5D0F85D
:1019E800E0355B6A9847002008BD00BF002110B5AC
:1019F8000B4604464022FFF757FC80214022002373
:101A08002046FFF751FCD4F8E435A078012284F889
:101A180012215B689847002010BD00BF10B582B046
:101A28006946044600F038F99DF8001001F01F03DC
:101A3800012B0FD009D3022B11D0204601F08001D1
:101A4800FFF7A2FC002002B010BD2046694600F056
:101A5800E1F9F7E72046694600F0C2F9F2E72046C7
:101A6800694600F051F9EDE770B5044629B990F8D8
:101A78001131022B0CD0002070BDD0F8E0355B6925
:101A8800002BF8D090F81221032AF4D19847F2E7F6
:101A9800D0F83421D0F820319A4210D9C1780129E0
:101AA800D0F82411C3EB020208BFC918C0F83421CA
:101AB80008BFC0F8241192B200F0A2F8DBE7D0F812
:101AC8003851B5FBF3F603FB16565EB9AB4209D89D
:101AD800D0F83C319D4205D2324600F091F8C4F866
:101AE8003C61C8E7D4F8E035DB681BB194F81221F3
:101AF800032A03D0204600F0B7F8BCE720469847F1
:101B0800F8E700BF10B5044629B990F81131032B46
:101B18000CD0002010BDD0F8E0359B69002BF8D020
:101B280090F81221032AF4D19847F2E7D0F88C23D1
:101B3800D0F878339A4212D9C1780129D0F87C13A9
:101B4800C3EB020204BFC918C0F87C13C0F88C2389
:101B58009A4228BF1A4692B200F06CF8D9E7D0F83A
:101B6800E0351B691BB190F81221032A03D02046E7
:101B780000F06AF8CDE79847F9E700BF2DE9F04192
:101B8800069D044616461F46884601F025FD204658
:101B98004146C4F8E075C4F8E455C4F8E865FFF7B1
:101BA8003DFBD4F8E4351B6898472046BDE8F04172
:101BB80001F06CBD00207047D0F8E03510B5044640
:101BC8001B689847D4F8E4359B689847002010BDF7
:101BD80008B5D0F8E0355B689847002008BD00BF1D
:101BE80013460A46022110B5C0F83831C0F834311E
:101BF80080F8111100210446FFF7AAFB002010BD50
:101C080010B50C46134600212246FFF7A1FB002021
:101C180010BD00BF13460A46032110B5C0F8903323
:101C2800C0F88C3380F8111100210446FFF774FBCB
:101C3800002010BD10B50C46134600212246FFF7C0
:101C48006BFB002010BD00BF38B5002104250446F9
:101C58000A460B4680F81151FFF77AFB204602F03E
:101C6800D1F9002038BD00BF38B50021052504464C
:101C78000A460B4680F81151FFF74EFB204602F04A
:101C8800C1F9002038BD00BF01EB810100EBC100A4
:101C9800B0F88803704700BF90F8C8350B7090F80B
:101CA800C9354B7090F8CB2590F8CA3503EB022361
:101CB8004B8090F8CD2590F8CC3503EB02238B8030
:101CC80090F8CF2590F8CE3503EB02239BB2CB805A
:101CD800C0F83C31012380F81131704710B591F9F3
:101CE8000030002B044609DBCB883BB10021FFF70D
:101CF8004BFB2046BDE8104002F084B92046802105
:101D0800FFF742FBF5E700BF70B54A788B88012AD8
:101D18000C460546DEB21CD003D3032A23D000208C
:101D280070BD90F81221022A17D0032A21D11A0671
:101D38003DD406EB860600EBC60696F87233002BF8
:101D48003FD1264A1360284624490222FFF748FF5C
:101D5800E5E790F81221022A0FD15906DFD0314663
:101D6800FFF712FBDBE790F81221022AF5D0032ACD
:101D78000FD0FFF7B3FF002070BD032AF9D14A88BE
:101D8800002ACCD15B0620D12846FFF75DFF002052
:101D980070BD4A880AB95A061BD1D5F8E0352846DD
:101DA8009B68214698472846FFF74EFFEFE703F068
:101DB8007F0303EB830300EBC30393F81A31002B73
:101DC800BFD0064B01221A60BDE73146FFF7FCFA87
:101DD800E3E73146FFF7D8FADFE700BFE801002064
:101DE80038B590F81231032B04460D4603D0FFF79F
:101DF80075FF002038BD0B79012BF8D8D0F8E035F5
:101E08009B689847EB88002BF3D12046FFF71CFF0F
:101E1800EFE700BF70B54B7882B00C460546092B3A
:101E280011D8DFE803F03749105E107491100517D8
:101E3800E288012A07D190F81231022B00F0318193
:101E4800032B00F0D68028462146FFF747FF0020E5
:101E580002B070BDA178A64E01293171F3D890F86F
:101E68001231022B00F02181032BECD1002900F064
:101E7800348190F81011012900F0C580FFF7A8FE01
:101E88003179284685F81011FFF796FE2846FFF7A6
:101E9800DBFEDCE790F81231023B012BD3D8D0F8F7
:101EA8001431002B68D1924B0122DA6028469149FF
:101EB8000122FFF795FECAE790F81231023B012B89
:101EC800C1D86388012BC2D1D0F8E03500229B68C5
:101ED800C0F814212846214698472846FFF7B4FE43
:101EE800B5E76388012B00F0F280022BAFD1A388FD
:101EF80013F0FF0FABD101691B0A4A68013B10467A
:101F0800042B7FD8DFE803F0838D88927A00A388BA
:101F1800002B98D1E388002B95D1638890F8122183
:101F280003F07F03032A1E468DD080F8133119462B
:101F3800FFF778FA2846FFF787FE002E00F0C380E7
:101F4800022385F8123182E76288130A013B062BC7
:101F58003FF679AF01A151F823F000BFD91F00085F
:101F68009B1F0008891F00084F1E00084F1E00080D
:101F78004F1E00084F1E00085D4B0322DA6095E7EC
:101F8800D2B2052A3FF65FAFDFE802F082797067C8
:101F98005E55D0F8E03580789B6A0DF106019847C8
:101FA800022343700146C5F8EC05BDF80630002B46
:101FB8003FF44DAFE288002A3FF449AF934228BF6F
:101FC800134628461A46ADF80630FFF709FE3EE7E5
:101FD800D0F8E83580781B680DF106019847E2884B
:101FE800402A014603D095F81231012BDDD1082390
:101FF800E1E700F58871FFF7F3FD28E7052363F3B0
:10200800061002464A602846FFF71EFE1FE7012316
:1020180063F306100246F5E7032363F3061002464E
:10202800F0E7022363F306100246EBE7042363F3A9
:1020380006100246E6E7D0F8E83580789B690DF18E
:10204800060198470146B0E7D0F8E83580785B6923
:102058000DF1060198470146A7E7D0F8E8358078E2
:102068001B690DF10601984701469EE7D0F8E8354F
:102078008078DB680DF106019847014695E7D0F8AE
:10208800E83580789B680DF10601984701468CE792
:10209800D0F8E83580785B680DF10601984701466D
:1020A80083E71549FFF79CFDD1E60029ABD0012154
:1020B800032380F8101180F81231FFF77DFD2846C0
:1020C800FFF7C2FDC3E6012385F81231BFE6D0F859
:1020D800E025C0F814319368FCE6022380F8123139
:1020E80080F81011FFF774FD2846FFF7ADFDAEE646
:1020F800E8010020F4010020F001002030B4F0B124
:102108000378F3B10446002314F8015F0133DBB20E
:10211800002DF9D15B000233DCB2138003230C706D
:102128004B7002785AB1022300255C1CE4B2CA54F1
:102138000D5510F8012F0233DBB2002AF5D130BC5F
:10214800704702242346E8E7222340F27C000B80F4
:10215800C2F20000704700BF08B58121FFF754F9AB
:10216800002008BD38B50B7813F06004054608D187
:102178004B780A2B12D00B2B16D0062B33D000200D
:1021880038BD202CFBD14B78023B092B27D8DFE840
:1021980003F0211B26262626262615101F49012274
:1021A800FFF71EFD204638BD8A781D4B20469A60F1
:1021B80038BD8A781A4B00201A6038BD4A88184BF7
:1021C800120A5A60002038BD15490122FFF708FDA0
:1021D800002038BD13490122FFF702FDCFE7FFF7C2
:1021E8007DFD022038BD4B881B0A222B0FD0212BE6
:1021F8001CBF21460A4604D02846FFF7F1FC002000
:1022080038BDCA880849092A28BF0922F4E7CA88BC
:1022180006494A2A28BF4A22EEE700BF00020020EA
:10222800F8010020FC0100208E000020A000002002
:1022380010B581210446FFF759F820460121FFF720
:1022480055F8002010BD00BF10B5812104220323DA
:102258000446FFF729F82046012104220323FFF74B
:1022680023F8002010BD00BF38B590F81241032CA8
:102278000D46134601D0002038BD81212A46FFF7BC
:1022880067F8002038BD00BF2DE9F04F48F21F5B0A
:1022980044F6D359DA4DDFF86CA3DFF86C8391B0BC
:1022A8000024C5F2EB1BC1F26209002630462E70ED
:1022B8006E70FDF765FF0120FDF762FF0220FDF754
:1022C8005FFF0320FDF75CFF07A803F0ADFC089B48
:1022D800ABFB03235A09B2F1807F0FD24EF21003F1
:1022E800CEF200034FF46D41013ACEF200015A607C
:1022F800F02281F8232007229E601A600020FDF753
:1023080075FF0120FDF772FF0220FDF76FFF032024
:10231800FDF76CFF0A266878002840D1FDF776FFA4
:10232800CAF80060DAF80030002BFBD10120FDF775
:102338006DFFB44B1E60DAF80030002BFBD1022091
:10234800FDF764FFAF4B1E60DAF80030002BFBD1BD
:102358000320FDF75BFFAB4B1E60DAF80030002B63
:10236800FBD10134E4B2102CD5D127460020FDF76B
:102378004DFF0120FDF74AFF0220FDF747FF03202C
:10238800FDF744FFCAF80060DAF80040002CFBD1E2
:102398007B1E13F0FF07E9D168780028BED0002023
:1023A800FDF786FF0128FAD00026042001216E706F
:1023B80003F0EAFC0820012103F0BCFC4FF4704351
:1023C8004FF440600227C4F2020002A902930323DB
:1023D8008DF80D308DF80C708DF80E608DF80F604B
:1023E80003F060F84FF440600C213A46C4F2020052
:1023F80003F0F4F84FF440600D213A46C4F20200AD
:1024080003F0ECF84FF440600E213A46C4F20200A3
:1024180003F0E4F84FF440603A460F21C4F202009A
:1024280003F0DCF840F2341CC2F2000C4FF40060F8
:10243800DCF80030ADF81860A9FB03231B0A013B48
:102448009BB240F2CF72C4F2000004A905926B80DF
:10245800ADF81030ADF8126004F088F84FF4006061
:102468000121C4F2000004F009F960234FF4006070
:102478000127C4F200000BA9ADF82C304FF47A7391
:102488000D93ADF82E70ADF8386004F02BF94FF4C9
:1024980000603246C4F20000314604F047FB4FF4B6
:1024A80000600821C4F2000004F096FA4FF40060BE
:1024B800C4F200000BA904F05DF94FF40060324645
:1024C8000421C4F2000004F031FB4FF40060C4F2B0
:1024D8000000082104F088FA4FF40060C4F20000FC
:1024E8000BA904F095F94FF400603246C4F20000DD
:1024F800082104F01BFB4FF40060C4F2000008211F
:1025080004F07CFA4FF40060C4F200000BA904F058
:10251800CBF94FF400603246C4F200000C2104F0FD
:1025280005FB4FF40060C4F20000082104F06EFAC5
:102538004FF40060C4F20000394604F0C5F84FF4C7
:102548000060C4F200003146324604F0EFFA4FF45E
:102558000060C4F200000421324604F0E7FA4FF4A8
:102568000060C4F200000821324604F0DFFA4FF49C
:102578000060C4F200000C21324604F0D7FA402370
:1025880088F80030204888F80160072388F802306E
:1025980088F8036088F80460FEF788FC1E23CAF8F0
:1025A8000030DAF80030002BFBD140F2B420C2F240
:1025B80000002023012603700C23837046702E70C0
:1025C800FEF7D0FD114829210622FEF725FD40F629
:1025D800A802C2F2000240F2B72C117892F802E089
:1025E80017790B480B4A40F27813C2F2000CC2F27A
:1025F800000300938CF80010314640F2B0260BE03F
:1026080004020020AC020020A4020020A808002038
:10261800B80200205C010020C2F200060D4B86F8CB
:1026280000E02F71FFF7AAFA6B78002BFCD000208E
:10263800FDF73EFE0128FAD04FF440500021C4F2C5
:10264800010003F075FD0448FEF7FCFE024801F0A6
:102658002DFD2AE6EC000020B802002082B0044AD2
:102668000190019B13601368002BFCD102B07047E6
:10267800AC020020034B1A6812B11A68013A1A60BA
:10268800704700BFAC02002008B50221582002F0B4
:102698003DFE4FF6FC70C0F60F004FF0553102F0CA
:1026A800C5FD054C05250220FDF7B0FD2560236812
:1026B800002BFCD1F7E700BFAC02002008B5034BA4
:1026C8001B7803B1FEE7FFF7DFFF00BF040200201D
:1026D80030B52B4B402183B00022184619700321D6
:1026E80099705A70DA701A71FEF7E0FB254B2022B8
:1026F80018461A7001240C229A705C70FEF732FD9D
:102708001E20FFF7ABFF0F210DF107002246FEF751
:1027180083FC9DF807303B2B01D0FFF7B5FF1A4D1E
:102728001A4C4FF4FA732B602B681848292104229D
:102738001BB3FEF771FC94F9022094F90030002ACB
:10274800B8BF5242002BB8BF5B42D2B2DBB20F2BEC
:1027580098BF0F2AE8D90020FDF738FD0020FDF7C3
:10276800A7FD0028FAD00020FDF7A2FD0128FAD025
:102778000020FDF73BFD03B030BDFFF785FFFAE70A
:10278800A4020020B4020020AC020020A808002007
:102798002DE9F0410D2082B0012103F0CBFA4FF46E
:1027A80040600024012502262027C4F20200694661
:1027B80000978DF804508DF806408DF807408DF885
:1027C800056002F06FFE4FF440603946C4F2020023
:1027D80002F0F6FE4FF40060C4F20200694600956C
:1027E8008DF804508DF806408DF807408DF8056087
:1027F80002F058FE20464FF40077C4F20200694602
:1028080000978DF804408DF806408DF807408DF844
:10281800056002F047FE4FF400602946C4F202004A
:1028280002F0CEFE2846FFF719FF2046C4F2020048
:10283800394602F0AFFE002800F01382002003465C
:1028480069464FF480640125C4F202008DF8043013
:102858008DF8063002238DF8053000948DF8075066
:1028680002F020FE2846FFF7F9FE0020C4F202001D
:10287800214602F08FFE002800F0FF814FF400602F
:10288800C4F20200012102F099FE002005464FF42F
:10289800C05301240227C4F20200694600938DF850
:1028A80004508DF806508DF807408DF8057002F039
:1028B800F9FD28464FF40076C4F2020069460096F6
:1028C8008DF804408DF806508DF807408DF8057096
:1028D80002F0E8FD28463146C4F2020002F070FE1C
:1028E8002046FFF7BBFE2846C4F202004FF4006101
:1028F80002F050FE002800F0B1810020C4F202006E
:102908004FF4805102F046FE002800F0A781002015
:10291800054601244FF480564FF00208C4F2020025
:10292800694600968DF804508DF806508DF80740DA
:102938008DF8058002F0B6FD28464FF40067C4F212
:102948000200694600978DF804408DF806508DF80E
:1029580007408DF8058002F0A5FD28463946C4F2E7
:10296800020002F02DFE2046FFF778FE2846C4F24A
:102978000200314602F00EFE002800F07B810020A4
:10298800054601244FF400664FF00208C4F2020025
:10299800694600968DF804508DF806508DF807406A
:1029A8008DF8058002F07EFD28464FF48057C4F26A
:1029B8000200694600978DF804408DF806508DF89E
:1029C80007408DF8058002F06DFD28463946C4F2AF
:1029D800020002F0F5FD2046FFF740FE2846C4F24B
:1029E8000200314602F0D6FD002800F040810020A8
:1029F800012304464FF40075C4F2020069468DF8BD
:102A0800043002238DF8053000958DF806408DF8C6
:102A1800074002F047FD2046C4F20200294602F0B2
:102A2800CDFD2046FDF7D2FB0020FDF741FC002834
:102A3800FAD00020FDF73CFC0028FAD1FDF7D6FBC0
:102A48000020C4F202004FF4007102F0B9FD4FF407
:102A58004060C4F20200202102F0B0FD0020C4F260
:102A680002004FF4806102F095FD002840F0FC80E0
:102A7800002006464FF4C0530225C4F202006946FE
:102A880000938DF804608DF806608DF807508DF876
:102A9800055002F007FD304601244FF40077C4F2D8
:102AA8000200694600978DF804408DF806608DF89D
:102AB80007408DF8055002F0F5FC30463946C4F25F
:102AC800020002F07BFD2046FFF7C8FD3046C4F245
:102AD80002004FF4006102F05DFD002800F0B880AC
:102AE8000020C4F202004FF4805102F053FD002888
:102AF80000F0AE80002006464FF490530225C4F241
:102B08000200694600938DF804608DF806608DF820
:102B180007508DF8055002F0C5FC304601244FF4EB
:102B28000067C4F20200694600978DF804408DF8EA
:102B380006608DF807408DF8055002F0B3FC30466A
:102B48003946C4F2020002F039FD2046FFF786FD3F
:102B58003046C4F202004FF4007102F01BFD002859
:102B680079D00020C4F202004FF4805102F012FD27
:102B7800002870D0002006464FF420630225C4F2D6
:102B88000200694600938DF804608DF806608DF8A0
:102B980007508DF8055002F085FC304601244FF4AB
:102BA8008057C4F20200694600978DF804408DF8FA
:102BB80006608DF807408DF8055002F073FC30462A
:102BC8003946C4F2020002F0F9FC2046FFF746FD40
:102BD8003046C4F202004FF4007102F0DBFC38B159
:102BE8000020C4F202004FF4006102F0D3FC08B9DF
:102BF800FFF74AFD00200546022469464FF4C053FA
:102C0800C4F2020000938DF804508DF806508DF838
:102C180007408DF8054002F045FC284601234FF493
:102C280000766946C4F2020000968DF804308DF8EB
:102C380006508DF807308DF8054002F033FC284621
:102C4800C4F20200314602F0BBFC02B0BDE8F081DC
:102C5800FFF71AFD4EE7FFF717FD8BE7FFF714FDA7
:102C680055E6FFF711FDE9E5FFF70EFD00E7FFF771
:102C78000BFDBCE6FFF708FD81E6FFF705FDFDE566
:102C88002DE9F04F4FF4807083B0012103F08AF8EA
:102C980001214FF4007003F085F80120FDF7F8FCDE
:102CA800022057214BF68032FDF74AFD002840F0FC
:102CB800A381BA4BDFF8F892B94CBA4EBA4DDFF897
:102CC800EC824FF44032002718465A604FF4706285
:102CD800DA601F609F60277001F0C4FB484601F06E
:102CE800B7FB4FF400504FF0010A4FF0007349460C
:102CF800C4F20100C9F8003089F8047089F8057039
:102D0800C9F80870C9F8107089F814A001F076FBAA
:102D18004FF404504946C4F2010001F06FFB3846F5
:102D28004FF0030904234FF0020BC4F20200694676
:102D380000938DF804908DF805B08DF8077002F0B7
:102D4800B1FB38460823C4F202006946009302F03A
:102D5800A9FB4FF400504B46C4F2010059465246B5
:102D68006780A78001F0D2FB4FF404504B464946D8
:102D78005246C4F2010001F0C9FB4FF40050C4F2FE
:102D88000100514601F08AFB4FF40450C4F20100DF
:102D9800514601F083FB4FF4FA733360A14637685C
:102DA800002F00F015814FF40050C4F2010001F02B
:102DB800FDFB4FF40050C4F20100022101F0E0FCD9
:102DC8000028F6D04FF40050C4F2010001F01EFCB8
:102DD80003464FF40450C4F201002B8001F0E6FBD7
:102DE8004FF40450C4F20100022101F0C9FC00288C
:102DF800F6D04FF40450C4F2010001F007FCA8F823
:102E080000002B889BB2962B0FD9684B1B889BB26E
:102E1800092B0AD863889BB2B3F5FA7F05D0B9F8B5
:102E2800023001339BB2A9F802302B889BB2092BE0
:102E38000FD8B8F800309BB2962B0AD9A3889BB25A
:102E4800B3F5FA7F05D0B9F8043001339BB2A9F87D
:102E5800043063889BB2B3F5FA7FA0D1B9F8043087
:102E68009BB2B3F5FA7F9AD14FF40050C4F2010037
:102E7800002101F013FB4FF40450C4F201000021BB
:102E880001F00CFBFDF704FE0220FDF701FC022017
:102E980064214BF68032FDF753FC002840F0AF80E8
:102EA80001254FF4005000232946C4F20100638035
:102EB8002570A38001F0F2FA4FF404502946C4F2B9
:102EC800010001F0EBFA384D384FDFF8D4804FF4A9
:102ED800FA7333603368002B00F08B804FF4005096
:102EE800C4F2010001F062FB4FF40050C4F201008B
:102EF800022101F045FC0028F6D04FF40050C4F23E
:102F0800010001F083FB03464FF40450C4F20100B2
:102F18002B8001F04BFB4FF40450C4F20100022156
:102F280001F02EFC0028F6D04FF40450C4F2010042
:102F380001F06CFB38802B889BB2AA2B0FD91B4B56
:102F48001B889BB2AA2B0AD963889BB2B3F5FA7F78
:102F580005D0B8F8023001339BB2A8F802302B88AC
:102F68009BB2092B0ED83B889BB2092B0AD8A388A1
:102F78009BB2B3F5FA7F05D0B8F8043001339BB2A1
:102F8800A8F8043063889BB2B3F5FA7FA2D1B8F8E9
:102F980004309BB2B3F5FA7F9CD10BE0DC0800202B
:102FA8000A020020AC020020B0080020EC08002033
:102FB800B40800200020FDF709F90020FDF778F992
:102FC8000028FAD00020FDF711F903B0BDE8F08F12
:102FD8004FF400503946C4F2010001F05FFA4FF493
:102FE8000450C4F20100394601F058FAFFF74CFBCF
:102FF80048E7FFF749FBDDE7FFF746FB59E6FFF730
:1030080043FB4DE770B54FF4804086B0012102F0D4
:10301800BBFE0620012102F08DFE06AC4FF4806352
:1030280018460025012644F8183DC4F20200022380
:1030380069468DF804308DF807608DF805608DF8C5
:10304800065002F02FFA4FF480600522C4F2020005
:103058000A2102F0C3FA4FF400600823C4F2020008
:103068006946009302F01EFA4FF40060052203211E
:10307800C4F2020002F0B2FA4FF46050C4F2000049
:1030880002F06AFF4FF47A4304934FF46050102320
:10309800C4F2000002A9ADF80A304FF44073ADF84D
:1030A8000830ADF80C50ADF81450ADF80E5002F0E1
:1030B800B5FF4FF460503146C4F2000003F046F803
:1030C800144C0A20FFF7CAFA4FF4FA7323604FF63C
:1030D800FF762368C3B14FF46050C4F200000121A9
:1030E80003F0ECF810B92368002BF4D14FF46050CA
:1030F800C4F2000003F0A4F8B04208D01D2DE8D9AE
:103108001E2D01D106B070BDFFF7BEFAFAE70135F2
:10311800EDB2F3E7AC020020704700BF704700BF74
:1031280030B4174B1A7872B9D988D1B91A891548A9
:10313800541CA4B2302C30F8120014BF1C81198121
:103148000122DA800BE01A890E48511C30F812006F
:103158008AB2302A08BF002280F400401A8130BCAD
:103168007047094C074821884D1CADB2302D14BF5B
:1031780025802280002230F81100DA80EFE700BFB6
:103188000A0200207C73000818010020FEE700BF37
:10319800FEE700BF5874000800000020A4010020CA
:1031A800A4010020F0080020704700BFFEE700BF20
:1031B800FEE700BFFEE700BFFEE700BF704700BFA5
:1031C800704700BF704700BFF8B5764B1B786BB3EC
:1031D800754D764C95F902200023901C6370A370FE
:1031E80019DB022A01DDF923637095F90020911C8F
:1031F80017DA0722A2700BB9A37823B16C486B4980
:103208000422FFF731F82379684F0133DBB20A2B28
:1032180023710FD0F8BD95F900200723911C637026
:10322800E7DB022AE7DDF922A270E4E7BDE8F8400F
:10323800FFF720BA00264FF4006031463246C4F248
:1032480000002E70AE7003F071FC4FF4006032463F
:10325800C4F20000042103F069FC4FF40060324618
:10326800C4F20000082103F061FC32464FF400600C
:103278004D4E0C21C4F2000003F058FC30462921C1
:103288000622FDF7C9FE4B4B287819784A4BAA78D5
:103298001B78411AD21AC9B2D2B24FFA82FC4BB289
:1032A800BCF1000FB8BFCCF1000C83EAE370A0EBCF
:1032B800E3705FFA8CFCC0B2844528BF6046787121
:1032C80078792970AA70A0B19A1C54DB022B3EDCD5
:1032D80095F90230022B23DC02330DDB63794FF4BE
:1032E800006040F2CF71C4F2000091FBF3F103F0EB
:1032F800A1F900232371F8BD4FF400600821C4F23E
:103308000000012203F012FC63794FF400604FF4CF
:103318007A71C4F2000091FBF3F103F035FBDDE7AD
:103328004FF40060C4F200000021012203F0FEFB0C
:1033380063794FF400604FF47A7191FBF3F1C4F2B2
:10334800000003F01DFB184B93F90230C4E74FF45B
:1033580000600421C4F20000012203F0E7FB637956
:103368004FF400604FF47A71C4F2000091FBF3F15E
:1033780003F008FBACE74FF40060C4F200000C2136
:10338800012203F0D3FB7B794FF400604FF47A718C
:1033980091FBF3F1C4F2000003F0F8FA96F900305B
:1033A80094E700BF04020020A808002018020020AB
:1033B800B8020020B7020020B002002040F2052326
:1033C8000122C2F2000310461A7001F0B1BD00BF1D
:1033D80010B50B4CA37A63B14FF46D43CEF20003E2
:1033E8001A6922F006021A6100F012F8204600F06D
:1033F8004BFE4FF48020BDE8104001F099BD00BF9E
:10340800B802002040F2B820C2F20000FEF74AB825
:103418004FF46053C4F202030022196841F001011D
:1034280019609A60186843F2100120F08470C2F2A3
:10343800004120F4803018605960196882B021F486
:1034480080211960DA60009201921A6842F4803291
:103458001A601A4603E0009BB3F5A06F09D0136801
:1034680003F400330193009B01330093019B002B6D
:10347800F1D04FF46053C4F202031B6813F4003315
:1034880008BF019301D001230193019B012B1DD09B
:103498004FF46052C4F202024FF440539168C5F2EF
:1034A800000321F400019160C2F88430136843F0EE
:1034B8008063136013681B01FCD54FF46D43CEF293
:1034C80000034FF000629A6002B070474FF46053F7
:1034D800C4F202034FF4E042196CC4F2000241F056
:1034E80080511964116841F4804111609A689A60AA
:1034F8009A6842F400429A60996845F2084241F499
:10350800A051C0F2407299605A601A6842F0807205
:103518001A6019460A684FF460539201C4F2020314
:10352800F8D54FF47052C4F2020240F205611160FE
:103538009A6822F003029A609A6842F002029A603E
:103548009A6802F00C02082AFAD1A1E74FF46053F6
:10355800C4F202039A6802F00C02042A13D0082A63
:103568001CBF4FF41051C0F2F40111D04FF4605257
:10357800C4F20202174B9268C2F303129A5C21FA52
:1035880002F11961704747F64001C0F27D11EDE77D
:1035980058685A6810F4800F586815BF47F64003FA
:1035A8004FF41053C0F27D13C0F2F40302F03F024F
:1035B800B3FBF2F14FF46053C4F20203C0F3881076
:1035C8005B68C3F30143013301FB00F15B00B1FB0E
:1035D800F3F1CBE724010020F0B5012083B00146C8
:1035E800002402F0A7FBC4F202044FF4D8530026CB
:1035F800032769462046009302238DF804308DF88E
:1036080005708DF806608DF8076001F04BFF2046C5
:1036180008210A2201F0E2FF204609210A2201F0CE
:10362800DDFF20460B210A2201F0D8FF0A2220469E
:103638000C2101F0D3FF01254FF480636946204631
:1036480000938DF806508DF807508DF8057001F03D
:1036580029FF0A210A46204601F0C0FF29464FF4F7
:10366800804002F09FFB8020294602F071FB29462A
:103678004FF0805002F0CEFB30462946FCF7D8FDCB
:10368800284601F055FC03B0F0BD00BF00B54FF46B
:10369800C06083B000F032FE432201238DF804207D
:1036A80001A803228DF805308DF806208DF8073023
:1036B80000F02EFE03B000BDC0EB001044F6251349
:1036C800C200C2F29243A3FB0213D21A03EB5202C6
:1036D8009208002301339A42FCD270474DF2C0424F
:1036E800C0F2010244F6251302FB00F0C2F2924335
:1036F800A3FB0023C21A03EB5202920800230133F2
:103708009A42FCD2704700BF30B5054683B000230B
:1037180003200193FFF7D0FFEB681A694FF4546454
:103728000192C0F2030406E0FFF7C6FFEB681A69CE
:10373800013C01921AD0019A0320002AF4DA019A76
:1037480042F001020192019A1A6119694FF4546218
:103758000191C0F2030203E01969013A019102D014
:103768000199C907F8D40320FFF7A6FF002003B08A
:1037780030BD00BF30B4C5787DB900EB820003339B
:103788009B10D0F8D04008D004312A4651F8040CD8
:103798000132043193422060F8D1002030BC7047D8
:1037A800033270B49510D0F8D0600AD00A1D0023F7
:1037B8003468013342F8044C04329D42F8D101EBDD
:1037C8008501084670BC704701222DE9F00F0023DF
:1037D800827040220129C370828065D0002941D0BF
:1037E80041780778C3604FF4006202614FF4606665
:1037F8004FF4886B4FF4806A8C4689B19C46024628
:103808004FEA411900230CF510680CF5306508EBF8
:103818000304E91820339461516504324B45F6D10D
:10382800C0F814A0C0F8CCB0B7B10CF5A06201463E
:1038380002EB47150446C4F8902020320434AA420B
:10384800F9D10CF5805303EB0732C1F8D03003F5FA
:10385800805304319342F8D1C0F80C610020BDE8D0
:10386800F00F704700234FF006090C274FF46066ED
:103878004FF4886B4FF4806A4FF40064C4F2040379
:103888004FF4A062C172077080F80190C280C4F240
:103898000406C4F2040BC4F2040A4946C4F2040440
:1038A8009C46C3600461AAE74FF4A0724FF0040974
:1038B80008274FF460664FF4886B4FF4806A4FF422
:1038C80000644FF0A043C2800222C172077080F8E2
:1038D80001900272C5F20006C5F2000BC5F2000A9B
:1038E8004946C5F200049C46DBE700BF38B5037AB9
:1038F800C2680025012B04462DD0D36843F040034D
:10390800D360FFF701FF237A627A032B14BF4FF4C9
:1039180034134FF43C130AB143F48013E2681420C3
:103928009363FFF7DBFEE368217ADA68032908BFAF
:1039380042F48032DA60227A032A35D0E378012B08
:1039480007D1E3689D68052262F3440545F0200528
:103958009D60002038BD936B417A65F3104309B12F
:1039680043F480139363D36823F4800323F0500354
:1039780043F010036FF3C3036FF3C7136FF351439F
:103988006FF3D343D3602046FFF7BEFEE378012BE5
:10399800DFD1052363F34405E36845F020059D6006
:1039A800E378012BCDD0D4E71D6B012262F39B6530
:1039B8006FF3D7552D2245F0805562F316451D63E8
:1039C800C820FFF78BFEE36845F400051D63C82097
:1039D800FFF784FEB2E700BFC3689A6842F00102AD
:1039E8009A600020704700BFC3689A6822F00102FD
:1039F8009A600020704700BF00B583B00023019390
:103A0800019B43F020030193019B61F38A13019307
:103A1800019BC1680B610A694FF454630192C0F2BB
:103A2800030303E00A69013B019202D0019A900660
:103A3800F8D40320FFF740FE002003B000BD00BF0C
:103A480000B583B000230193019B43F01003019359
:103A5800019BC1680B610A694FF454630192C0F27B
:103A6800030303E00A69013B019202D0019AD206DE
:103A7800F8D40320FFF720FE002003B000BD00BFEC
:103A8800C26808B5D3686FF35D736FF39E7301293D
:103A980008BF43F0005302D009B943F080433220F5
:103AA800D360FFF71BFE002008BD00BFC36858693C
:103AB80000F00100704700BFC368586900F00100BA
:103AC80080F00100704700BFC368586900F001002A
:103AD800704700BFC3685A6998691040704700BFB3
:103AE800C3685868704700BF03691A6861F3010228
:103AF8001A60704710B4C2684FF400644FF0FF3189
:103B08000023C8F2000493615161516051619461CE
:103B1800C0789169984208BF102343F4701343F4A6
:103B2800605343F0080321EA03010B43936100202B
:103B380010BC7047F8B50546D0F80C012A69002179
:103B480001600B46116863F3CC211160E97A012901
:103B580056D010212846FFF74FFF2846FFF770FF81
:103B68002E6900224FF0FF3332617261B361F26156
:103B78006B78002B30D029462C469646FF27A36940
:103B88001868C0F3076000F08000C0B2002814BFB6
:103B98004FF0904000201860C3F810E09F606B78E9
:103BA800013204349342EAD8B3B100221746FF2405
:103BB8004B6D1868C0F3076000F08000C0B20028A1
:103BC80014BF4FF09040002018601F619C606B7814
:103BD800013204319342EBD8336943F48073336183
:103BE800EB78012B07D103F58173C0F20103402262
:103BF80062F3594333632846FFF77CFF0020F8BD82
:103C08001668E868C02780244FF4800167F30F0323
:103C180046F00306166064F31F4364F30F014FF484
:103C2800A07244628162C0F8043162F30F036FF33B
:103C38001F43C0F80831C0F80C318AE703699B6854
:103C4800C3F34103013B022B9ABF024AD05C032015
:103C5800704700BFDC7300080369826998681168BF
:103C6800C0F34100022818BF6FF30A0102D10320F4
:103C780060F30A0111605A6842F480725A600020A9
:103C8800704700BF70B44B780022012B24D00B780A
:103C980000EB8304012505FA03F3646D63F31F4207
:103CA8002368C3F3072505F08005EDB26DB98E686A
:103CB800CD78C98866F30A0365F3934361F3995392
:103CC80043F0805343F4004323600369D9690A43EE
:103CD800DA61002070BC70470C7800EB840503FAA9
:103CE80004F363F30F02AC69DAE700BF30B44A7833
:103CF8000023012A1C4613D00A7800EB8201012513
:103D080005FA02F2496D62F31F4402696FF3CF337B
:103D18000B60D36923EA0404D461002030BC7047E7
:103D2800097800EB810502FA01F262F30F04A96930
:103D3800EBE700BFF0B44C780B784D69012C00EB31
:103D4800830330D05C6D23682269002D24D08F68EE
:103D5800ED19013DB5FBF7F5AE05B60D65F3DC428F
:103D680007FB06F666F312022261C278012A01BF38
:103D78000C780A6900EB8404646D08BF6261CA7834
:103D8800012A58D00A7800EB820043F00443426DC0
:103D980013600020F0BC70478D6865F3120201259E
:103DA80065F3DC42E0E79E6933683269002D47D04D
:103DB8008C68CF7805EB040C0CF1FF3C65F312021C
:103DC800BCFBF4F464F3DC42012F08BF67F35E72B6
:103DD8003261C278012A45D0CA78012A38D055B153
:103DE80002690C78566B012707FA04F434435463CC
:103DF800CA78012A2CD00A7800EB820243F00443E7
:103E080092691360CB78012BC3D1C378CA6809784B
:103E1800002BBED1ADB200EB81000335AD10D0F858
:103E2800D000B6D0043252F8041C013304329D424B
:103E38000160F8D1ADE74A793AB143F00053A1E700
:103E480065F3120264F3DC42C2E743F0805399E75A
:103E580002699268D20558BF43F00053CBD543F0AE
:103E68008053C8E70C780A6900EB8404A46962618E
:103E7800BEE700BFF0B44A78012A82B035D00B788B
:103E88004C6900EB83035A6D136815690095002C83
:103E980025D08E689DF800509DF802404E6166F36B
:103EA8000605012666F3C4048DF800508DF802401B
:103EB800009C1461C278012A02BF0C780A6900EBE1
:103EC800840443F0044304BF646D62610A7800EB24
:103ED8008200426D1360002002B0F0BC70479DF86C
:103EE80000509DF802408E68D9E784694D692368BF
:103EF80026690096002D36D08A68954293BF9DF8B2
:103F080000209DF800504A6165F306028CBF62F3F9
:103F180006058DF800209DF8022088BF8DF8005016
:103F2800012565F3C4028DF80220009A2261C27847
:103F3800012A02BF0D780A6900EB850543F00443A6
:103F480004BFAD696A612360C378002BC3D14B6994
:103F5800002BC0D003690A78596B012000FA02F2DD
:103F68000A435A63B7E79DF800709DF8026065F34D
:103F7800060762F3C4068DF800708DF80260D4E776
:103F88004B78012B0B7800EB830006D0426D136849
:103F980043F4001313600020704782691368C3F369
:103FA800076101F08001C9B20029F1D043F08043D4
:103FB800EEE700BF4B78012B0B78C97800EB830044
:103FC8000CBF8269426D136802396FF3555301299A
:103FD80098BF43F0805313600020704703699A69C3
:103FE800D8691040000C704700EB810102694B6DE5
:103FF8009B6850691840704703699869DB691840E5
:1040080080B2704782B00122002362F3C403002209
:1040180000928DF80230C02218238DF803208DF805
:104028000030436D009A1A61C278012A01BF00F579
:10403800B96058611A684FF0802208BF1A6002B050
:10404800704700BFD0F8143110B50446D3B10369E6
:104058009A68D10716D5827A42B1D0F80C21D0F8E7
:104068000C116FF341026FF300020A605A6842F0C4
:1040780001025A600520FFF731FB23695A6822F0D4
:1040880001025A6010BD00BF837A6BB103699B6857
:10409800DB0741BFD0F80C31D0F80C216FF3410396
:1040A8006FF3000348BF1360704700BF38B543780B
:1040B8000122054680F812215BB103460022FF2148
:1040C8009C69A1605C6DA1606C78013204339442F4
:1040D800F6D82B6900221A615A61DA614FF0FF3273
:1040E80028469A61FFF7ACFC28461021BDE8384005
:1040F800FFF782BC4B78012B0B7800EB830014D0C0
:10410800436D1868C0F3074000F02003DBB24BB9D9
:1041180000F00200C0B200280CBF4FF440504FF42A
:10412800005070474FF48050704783691868C0F397
:10413800074000F02003DBB23BB900F00200C0B238
:1041480000280CBF3020202070471020704700BF87
:1041580070B44D78012D0D780C4600EB850315D011
:104168005D6D2B68B2F5805F1E4608BF43F40013EF
:1041780009D0B2F5005F10D0B2F5405F12D012B985
:1041880062F3CF3633462B6070BC70479D692B684D
:10419800102A1E4616D0202A02D143F00063F2E707
:1041A800302AECD1C3F3074202F02002D2B222B97E
:1041B80043F0806646F08023E5E70023637170BC16
:1041C800FFF7F8BE70BCFFF7DBBE00BF122340F25A
:1041D80038100B80C2F20000704700BF04230B8028
:1041E800004870474C01002010B540F26424C2F228
:1041F800000447F2E0300A46C0F600002146FDF709
:104208007DFF204610BD00BF10B540F26424C2F205
:10421800000447F2F4300A46C0F600002146FDF7D4
:104228006DFF204610BD00BF10B540F26424C2F2F5
:10423800000447F204400A46C0F600002146FDF794
:104248005DFF204610BD00BF08B50A4628B10648E4
:104258000649FDF753FF054808BD05480349FDF722
:104268004DFF024808BD00BF20740008640200200A
:104278001074000808B50A4628B106480649FDF733
:104288003DFF054808BD05480349FDF737FF0248CB
:1042980008BD00BF447400086402002030740008A0
:1042A8000F4A4AF6AB231268CAF6AA23A3FB0213E5
:1042B8001909B1F1807F00D3FEE74EF21003CEF268
:1042C80000034FF46D42CEF2000201395960F0212B
:1042D80082F8231000229A6007221A60704700BFF4
:1042E80034010020704700BF704700BF704700BF0F
:1042F800704700BF704700BF704700BF4FF46D4361
:1043080040F0BF60CEF2000340F40030D860704740
:10431800C37830B47BB902784FF461435109CEF2C7
:10432800000302F01F022031012000FA02F243F8D4
:10433800212030BC70474FF46D43CEF2000345781E
:10434800DA6884780378D243C2F30222C2F1040106
:10435800C9B205FA01F10F2545FA02F2C9B22240A5
:104368000A4303F1604303F561431201D2B283F8B3
:10437800002302784FF461435109CEF2000302F0A2
:104388001F02012000FA02F243F82120D1E700BF02
:1043980021F060414FF46D4321F07F01CEF200031C
:1043A80008439860704700BF4FF46D43CEF2000396
:1043B8001A6919B922EA0000186170471043186198
:1043C800704700BF4EF21003CEF2000304281A68AB
:1043D8000CBF42F0040222F004021A60704700BFCA
:1043E80008B501214FF4807001F022FD4FF4807070
:1043F8000021BDE8084001F01BBD00BF42680B79F1
:10440800F0B422F0407C0E68CD680C694F792CF42A
:10441800807C4CEA060646EA0326466086682C43FA
:104428004FF2FD738D68CCF2FF0344EA0502334076
:10443800134343EA470383600B7DC26A013B22F4BE
:104448007002DBB242EA0353C362F0BC704700BF9C
:1044580000230360037143718360C3600361012318
:104468000375704770B44FF40C5290E84200C4F2E0
:10447800010285685468C06843F2E0033143CFF60F
:10448800FC732943234001430B43536070BC7047BE
:104498000023036043608360C3607047836819B971
:1044A80023F001038360704743F001038360704782
:1044B800436823F4400323F40073194341607047B1
:1044C80041628262704700BF436823F01F031943AB
:1044D800416070474FF40C53C4F201035A6818B98D
:1044E80022F400025A60704742F400025A60704792
:1044F8004FF40C53C4F201035A6818B922F480022D
:104508005A60704742F480025A607047092970B4B3
:1045180021D901EB41041E3CC668072505FA04F5BC
:1045280026EA050503FA04F445EA0403062AC360EB
:1045380020D90C2A02EB82022BD9413AC46A1F23E4
:1045480003FA02F324EA030301FA02F143EA01023F
:10455800C26270BC7047066901EB4104072505FA81
:1045680004F526EA050503FA04F445EA0403062AD5
:104578000361DED8013A02EB8202446B1F2303FA7F
:1045880002F324EA030301FA02F143EA0102426357
:10459800DFE7233A046B1F2303FA02F324EA030339
:1045A80001FA02F143EA01020263D2E7836843F0A9
:1045B80080438360704700BF8068C0F380507047B5
:1045C800836819B923F480638360704743F4806378
:1045D80083607047836819B923F0020383607047CA
:1045E80043F00203836070474368013923F4604352
:1045F80043EA413141607047436819B923F40063C5
:104608004360704743F4006343607047C06C80B2F6
:10461800704700BF42F20833C4F2010318687047BC
:10462800836819B923F480738360704743F48073F7
:1046380083607047836819B923F4007383607047F7
:1046480043F40073836070474FF40C53C4F20103C2
:104658005A6818B922F400525A60704742F400525E
:104668005A607047092970B420D8066901EB4104E3
:10467800072505FA04F526EA050503FA04F445EAD0
:1046880004030361846BC4F30153D31A0233DBB20E
:1046980003EB83031F2202FA03F224EA020401FA5D
:1046A80003F144EA0103836370BC704701EB4104E2
:1046B800C6681E3C072505FA04F526EA050503FA2F
:1046C80004F445EA0403C360DCE700BF836B0139E7
:1046D80023F4401343EA01518163704782B00023F9
:1046E80001930190019BC9180191019B1A6002B0C6
:1046F800704700BF836823F47023194381607047B3
:10470800836823F44013194381607047836843F436
:1047180080038360704700BF8068C0F38050704793
:10472800436819B923F480634360704743F4806396
:1047380043607047436819B923F480534360704756
:1047480043F480534360704782B000230193019083
:10475800019B283359180191019B186880B202B057
:10476800704700BF0123C9B203FA01F143681AB9BF
:1047780023EA01014160704719434160704700BF57
:10478800036819420CBF002001207047C94301602B
:10479800704700BF4368006810EA112007D0012263
:1047A800C9B202FA01F119420CBF0020012070477A
:1047B8006FEA11210160704708B501214FF00050E0
:1047C80001F028FB4FF000500021BDE8084001F03F
:1047D80021BB00BF70B491E860004FF4E8438C68D7
:1047E800CA68C4F2000346EA05010C431E6840F695
:1047F800FE7505FA00F5224326EA050502FA00F0DF
:104808002843186070BC70470023036043608360CE
:10481800C36070474FF4E843C4F200031A6831B923
:10482800012101FA00F022EA000018607047012116
:1048380001FA00F010431860704700BF4FF4E843D6
:10484800C4F2000300095A6831B9012101FA00F0E5
:1048580022EA000058607047012101FA00F0104375
:10486800586070474FF4E843C4F200035A6818B917
:1048780022F003025A60704742F003025A60704700
:104888004FF4E843C4F2000301FA00F122B91A68B0
:1048980022EA0101196070471A68114319607047CC
:1048A80082B04FF4E843C4F200030022019201935E
:1048B800019B083318180190019B196002B07047DA
:1048C80082B04FF4E843C4F200030022019201933E
:1048D800019B143318180190019B196002B07047AE
:1048E80047F220430828C4F200030CBF42EA012122
:1048F80042EA0141C150704782B04FF4E843C4F224
:104908000003002201920193019B2C3303EB9000DA
:104918000190019B186880B202B070474FF4E843D9
:10492800C4F200031A6839B94FF4805101FA00F053
:1049380022EA0000186070474FF4805101FA00F035
:1049480010431860704700BF4FF4E843C4F20003F7
:1049580001FA00F122B91A6822EA010119607047C8
:104968001A681143196070474FF4E843C4F2000312
:1049780001FA00F15B6B19420CBF0020012070475F
:104988004FF4E843C4F2000301FA00F15963704799
:104998004FF4E843C4F2000301FA00F11A68586BB7
:1049A800084003D011420CBF00200120704700BF0F
:1049B8004FF4E843C4F2000301FA00F15963704769
:1049C800016846F21002002321F00101C4F202023C
:1049D8000160036043608360C360036121239042E8
:1049E80043616BD046F22803C4F2020398426CD0AC
:1049F80046F24003C4F2020398426ED046F25803CE
:104A0800C4F20203984270D046F27003C4F2020363
:104A1800984272D046F28803C4F20203984275D0D5
:104A280046F2A003C4F2020398423ED046F2B8030D
:104A3800C4F20203984273D046F21043C4F2020350
:104A4800984275D046F22843C4F20203984276D0C1
:104A580046F24043C4F20203984278D046F25843E3
:104A6800C4F2020398427AD046F27043C4F20203B9
:104A780098427CD046F28843C4F2020398427FD021
:104A880046F2A043C4F20203984200F0838046F243
:104A9800B843C4F20203984201BF4FF4C843C4F2BA
:104AA80002034FF03D52DA6070474FF4C043C4F23E
:104AB80002030022C2F23D02DA6070474FF4C0439D
:104AC800C4F202033D229A6070474FF4C043C4F217
:104AD80002034FF474629A6070474FF4C043C4F203
:104AE80002034FF474129A6070474FF4C043C4F243
:104AF80002034FF074629A6070474FF4C043C4F2E7
:104B080002033D22C2F20002DA6070474FF4C0434C
:104B1800C4F202034FF47462C2F20002DA60704712
:104B28004FF4C043C4F202034FF03D52DA607047BD
:104B38004FF4C843C4F202033D229A6070474FF411
:104B4800C843C4F202034FF474629A6070474FF48A
:104B5800C843C4F202034FF474129A6070474FF4CA
:104B6800C843C4F202034FF074629A6070474FF46E
:104B7800C843C4F202033D22C2F20002DA60704761
:104B88004FF4C843C4F202034FF47462C2F2000245
:104B9800DA6070474FF4C843C4F202030022C2F23D
:104BA8003D02DA60704700BF2DE9F00FD1F80CB074
:104BB800D1F800A0D1F81490D1F81880D1F81CC011
:104BC8000F6A4B6B4E6A8D6ACC6A0A694BEA0A0A0D
:104BD8004AEA090A4AEA080A84B04AEA0C0A4AEA8E
:104BE800070701933E4303683543019E00938B6B8F
:104BF800354348F23F09009E0293CFF21C0906EAAA
:104C08000909029E0B6B354345EA090503934B6876
:104C1800896805604569039E25F0070534432C43E0
:104C2800446142608360C16004B0BDE8F00F704722
:104C38000023036043608360C36003614361836151
:104C4800C361036243628362C36203634363836332
:104C5800704700BF036819B923F001030360704768
:104C680043F0010303607047036819B923F4004354
:104C78000360704743F4004303607047036819B941
:104C880023F020030360704743F02003036070475C
:104C980041607047406880B2704700BF036822B91E
:104CA80023F4002303600161704743F40023036089
:104CB80001617047036819B923F4802303607047C2
:104CC80043F48023036070470AB9C16070470161EB
:104CD800704700BF0068C0F3C0407047006800F02C
:104CE80001007047406900F03800704710B44FF475
:104CF800C84246F20F444FF4C043C4F20203C4F260
:104D08000204C4F20202A0428CBF104618468B006F
:104D18004CBF4368036821F0F02121F08211194249
:104D28000CBF0020012010BC704700BF10B44FF426
:104D3800C84246F20F444FF4C043C4F20204C4F21E
:104D48000202C4F20203A0428CBF1046184611F0BA
:104D5800005F21F0F02121F0821114BFC160816051
:104D680010BC70470B060CD54369AAB143F0800309
:104D7800802943610FD0036801F01E0119430160C7
:104D88007047802907D0002AF5D1036801F01E0179
:104D980023EA01010160704723F080038029436101
:104DA800F3D1704770B44FF4C04246F20F454FF448
:104DB800C84421F0F023C4F20205C4F20204C4F28C
:104DC800020223F0C316A84288BF224696B104689F
:104DD80004F01E0404EAD12489004CBF526812680A
:104DE80023F0821313EA020002D0201C18BF01200E
:104DF80070BC7047446904F08004EDE710B44FF4C8
:104E0800C84246F20F444FF4C043C4F20204C4F24D
:104E18000202C4F20203A0428CBF1046184611F0E9
:104E2800005F21F0F02121F0821114BFC160816080
:104E380010BC70474FF47053C4F201034FF6FF7172
:104E48000022C0F27F011A605A609A60DA605961E4
:104E5800704700BF837970B43BB34FF47053C4F20A
:104E6800010301681E6802794579CC4326401E601B
:104E78005E6802F1804202F59E3234405C6014683C
:104E88002143116002689868D14308409860D86847
:104E9800102D01EA0001D96013D005F1804505F510
:104EA8009E352B681A432A6009E00379016803F1EB
:104EB800804303F59E331A6822EA01021A6070BC27
:104EC8007047996811439960D9680A43DA60F6E730
:104ED80000230C220360037142718371704700BF85
:104EE8004FF47053C4F201031A69104318617047F4
:104EF8004FF47053C4F201035B6918420CBF0020E1
:104F0800012070474FF47053C4F201035861704791
:104F18004FF47053C4F201031A685B69034004D06C
:104F280010420CBF0020012070471846704700BF90
:104F38004FF47053C4F20103586170474FF4705333
:104F4800C4F20203C0B21870704700BF4FF4705328
:104F5800C4F202031A6818B922F480721A60704702
:104F680042F480721A6070474FF47053C4F202031F
:104F78001A6818B922F400721A60704742F4007275
:104F88001A6070474FF47053C4F202031A6818B9D4
:104F980022F480621A60704742F480621A60704797
:104FA8004FF47053C4F202031A6842F400621A60A4
:104FB800704700BF4FF47053C4F202031A6842F4FA
:104FC80080521A60704700BF4FF47053C4F2020356
:104FD8001A69002A09DA40F2231148F6AB12C4F222
:104FE8006751CCF6EF5259605A6070474FF47053CE
:104FF800C4F202031A6942F000421A61704700BF06
:105008004FF47053C4F202035A69D20709D542F625
:105018003B2146F67F62C0F61901C4F65D429960ED
:105028009A6070474FF47053C4F202035A6942F011
:1050380001025A61704700BF43F61443C4F20203E9
:105048001A7802F0F3021A701A7810431870704731
:105058004FF47053C4F202035869C0F34710704705
:1050680043F61643C4F20203188880B2704700BFA3
:1050780043F61543C4F202031878AA3818BF012072
:10508800704700BF43F61443C4F20203187800F0D7
:105098000C0070474FF47053C4F202031A6919B92F
:1050A80022EA00001861704710431861704700BF7A
:1050B8004FF47053C4F20203DB6818420CBF00209F
:1050C800012070474FF47053C4F20203D860704750
:1050D8004FF47053C4F20203DA68D0030AD4DA68D2
:1050E800D10601D505207047DA6812F0EF0F03D01A
:1050F8000620704701207047DB6813F0020F0CBFD1
:1051080008200720704700BF00B583B008238DF83A
:105118000730FFF7DDFF8DF807009DF80730012BFA
:10512800F7D09DF8070003B000BD00BF43F6144355
:10513800C4F202031A7842F002021A70FFF7E4BFC1
:1051480070B506460D461446FFF7DEFF08280AD15B
:1051580043F61443C4F202031A7802F00F0216430E
:1051680035432C431C7070BD10B50446FFF7CCFFC7
:10517800082802BF43F61543C4F202031C7010BD91
:1051880038B505460C46FFF7BFFF082800D038BDE4
:1051980043F61643C4F202031A881CB91543ADB28C
:1051A8001D8038BD92B222EA05051D8038BD00BFBA
:1051B80070B505460E46FFF7A7FF082800D070BD5A
:1051C8004FF47054C4F20204236923F4407323613A
:1051D80023692361236943F0010323612E70FFF7DC
:1051E80093FF236923F00103236170BD70B5054661
:1051F8000E46FFF789FF082800D070BD4FF47054A1
:10520800C4F20204236923F440732361236943F43D
:1052180080732361236943F0010323612E80FFF724
:1052280073FF236923F00103236170BD70B5054640
:105238000E46FFF769FF082800D070BD4FF4705480
:10524800C4F20204236923F440732361236943F4FD
:1052580000732361236943F0010323612E60FFF784
:1052680053FF236923F00103236170BDF8B5074696
:1052780014461D46FFF748FF082800D0F8BD4FF434
:105288007056C4F20206336923F4407333613369FC
:1052980043F440733361336943F001033361C7E971
:1052A8000045FFF731FF336923F001033361F8BD8F
:1052B80038B50446FFF728FF54B1012C08BF4FF456
:1052C800807405D0022C14BF4FF440744FF400745E
:1052D800082800D038BD4FF47055C4F202052B6978
:1052E80023F440732B612B691C432C612B6943F019
:1052F80004032B612B6943F480332B61FFF704FF10
:105308002B6923F004032B6138BD00BF70B5054637
:105318000E4651B1012908BF4FF4807605D0022905
:1053280014BF4FF440764FF40076FFF7EDFE0828DF
:1053380000D070BD4FF47054C4F20204236923F402
:105348004073236121690E432661236923F0F80322
:105358002361236943F002031D432561236943F454
:1053680080332361FFF7D0FE236923F00203236112
:10537800236923F0F803236170BD00BF08B500233B
:10538800C4F2020398423CD04FF48063C4F2020393
:10539800984240D04FF40063C4F20203984244D0CC
:1053A8004FF44063C4F20203984248D04FF480534C
:1053B800C4F2020398424CD04FF4A053C4F2020343
:1053C800984250D04FF4C053C4F20203984254D0CC
:1053D8004FF4E053C4F20203984258D04FF40053FC
:1053E800C4F20203984200D008BD01214FF4807036
:1053F80000F0E6FC4FF480700021BDE8084000F0A2
:10540800DFBC0120014600F0DBFC01200021BDE8E3
:10541800084000F0D5BC0220012100F0D1FC022098
:105428000021BDE8084000F0CBBC0420012100F0B9
:10543800C7FC04200021BDE8084000F0C1BC0820DA
:10544800012100F0BDFC08200021BDE8084000F063
:10545800B7BC1020012100F0B3FC10200021BDE8EA
:10546800084000F0ADBC2020012100F0A9FC20205C
:105478000021BDE8084000F0A3BC4020012100F055
:105488009FFC40200021BDE8084000F099BC802026
:10549800012100F095FC80200021BDE8084000F0C3
:1054A8008FBC00BF00222DE9F00713460E680127C4
:1054B8004FF0030803E001330232102B2BD007FA18
:1054C80003F404EA0605A542F5D1D0F8009091F856
:1054D80004C008FA02F4E44304EA0909C0F8009099
:1054E800D0F800900CFA02FA0CF1FF3C4AEA0909DC
:1054F800BCF1010FC0F8009010D9C56891F807C039
:105508002C40C460C5680CFA02F401332C43023203
:10551800102BC460D3D1BDE8F0077047D0F808A0BD
:1055280091F8059091F806C004EA0A0AC0F808A0A4
:10553800D0F808A009FA02F949EA0A09C0F808905F
:10554800D0F8049029EA0505456045680CFA03FC83
:105558001FFA8CFC4CEA05054560CEE700234FF6A0
:10556800FF720260037143718371C371704700BF9A
:1055780082B04FF480330193019B0B430193019B4D
:10558800C361C161019BC361C3690193C36901938D
:1055980002B07047036919420CBF00200120704710
:1055A800006980B2704700BF436919420CBF0020F0
:1055B80001207047406980B2704700BF018370477F
:1055C800418370470AB9418370470183704700BF20
:1055D800416170474369594041617047CB080833BE
:1055E80001F0070130B4890050F823500F2404FA61
:1055F80001F425EA040440F8234050F8234002FA55
:1056080001F2144340F8234030BC704708B54FF40A
:10561800A843C4F20003984218D04FF4B043C4F230
:10562800000398421ED04FF4B843C4F200039842D6
:1056380000D008BD01214FF4000000F0EBFB4FF44F
:1056480000000021BDE8084000F0E4BB01214FF450
:10565800001000F0DFFB4FF400100021BDE8084007
:1056680000F0D8BB01214FF4800000F0D3FB4FF4C9
:1056780080000021BDE8084000F0CCBBF0B504462E
:1056880085B068460D46A68800F0CEFA02992A68C9
:105698004DF68363C4F21B33A3FB010326F03F06D8
:1056A8009F0C3604360C1FFA87FC4CEA0606A680C7
:1056B800238848F2A06023F001031B04C0F2010014
:1056C8001B0C8242238024D85200B1FBF2F189B22C
:1056D8000CF1010CA4F820C0032998BF0421A18370
:1056E80023886E89A8882989AA899BB243F0010377
:1056F8002380238823F4816323F002031B041B0CFB
:10570800304303430A439BB292B22380228105B0FF
:10571800F0BDE8884BF6FF7398421DBF02EB82028A
:1057280002EB8202B1FBF2F102EB42020CBFB1FBC9
:10573800F2F141F4804189B20B051B0D0BB941F020
:1057480001014FF4967344F6D35203FB07F7C1F2F5
:10575800620282FB07329209013241F4004122843D
:10576800BDE700BF002341F28832026083804BF618
:10577800FF72038143814FF48043C2808381704765
:10578800038829B923F001031B041B0C038070470D
:105798009BB243F001030380704700BF038829B917
:1057A80023F480731B041B0C038070479BB243F4E3
:1057B80080730380704700BF038829B923F40073FE
:1057C8001B041B0C038070479BB243F400730380D7
:1057D800704700BF1AB901F0FE010182704741F01D
:1057E80001010182704700BF038829B923F480634F
:1057F8001B041B0C038070479BB243F48063038037
:10580800704700BF838923F0FE031B0401F0FE01EB
:105818001B0C0B4383817047838929B923F001034B
:105828001B041B0C838170479BB243F001038381E7
:10583800704700BF038829B923F040031B041B0CE1
:10584800038070479BB243F040030380704700BF5A
:10585800038819B95B045B0C038070476FEA434304
:105868006FEA53439BB20380704700BF038829B196
:1058780023F080031B041B0C038070479BB243F08A
:1058880080030380704700BFB1F5804F838B05D03C
:1058980023F480431B041B0C838370479BB243F49F
:1058A80080438383704700BFB1F5006F038805D03C
:1058B80023F400631B041B0C038070479BB243F462
:1058C80000630380704700BFB1F5005F038805D00F
:1058D80023F400531B041B0C038070479BB243F452
:1058E80000530380704700BF038829B923F01003D1
:1058F8001B041B0C038070479BB243F0100303800A
:10590800704700BF01827047008AC0B2704700BF6D
:10591800038829B923F480531B041B0C03807047A8
:105928009BB243F480530380704700BFB1F5006F0A
:10593800038805D023F400631B041B0C0380704705
:105948009BB243F400630380704700BF038829B902
:1059580023F020031B041B0C038070479BB243F009
:1059680020030380704700BF008BC0F307207047F7
:10597800838829B923F400631B041B0C83807047B8
:105988009BB243F400638380704700BF838829B9C2
:1059980023F480531B041B0C838070479BB243F491
:1059A80080538380704700BF82B000230193019029
:1059B800019BC9180191019B188880B202B07047F9
:1059C80083889BB21AB923EA010181807047194381
:1059D80081807047828A038B90B240EA0340084076
:1059E80020F07F400B1A584258417047828A038B37
:1059F80090B240EA034020F07F40704782B0002315
:105A08000A0F0093019301900092009B21F07F41BF
:105A180053B1019B14330193019B1B6819420CBFBE
:105A28000020012002B07047019B1833090C019334
:105A3800F2E700BFC94389B2818270478388808AB0
:105A480080B208409BB206D001F0E06113EA114130
:105A58000CBF002001207047C94389B2818270477A
:105A68004FF46053C4F202030022196841F00101A7
:105A780019609A60186843F2100120F08470C2F22D
:105A8800004120F4803018605960196821F48021A1
:105A98001960DA60704700BF43F60203C4F20203DC
:105AA80000221A701870704782B04FF460520023B9
:105AB8000193C4F2020213689B030CD5019B0133C6
:105AC8000193019B4FF46053C4F202031868C0F3BA
