:100000000C94B5010C94D2010C94D2010C94D20141
:100010000C94D2010C94D2010C94D2010C94D20114
:100020000C94D2010C94D2010C94D2010C94D20104
:100030000C94D2010C94D2010C94711B0C94D2013B
:100040000C94D2010C94D2010C9464090C94AC0968
:100050000C94D2010C94D2010C94D2010C94D201D4
:100060000C94FD0B0C94D2019C0C110C110C110C76
:10007000110C110C110C110C9C0C110C110C110C0D
:10008000110C110C110C110CB10C110C110C110CE8
:10009000110C110C110C110CB40C110C110C110CD5
:1000A000110C110C110C110CB10C110C110C110CC8
:1000B000110C110C110C110CB40C110C110C110CB5
:1000C000110C110C110C110CBC0C110C110C110C9D
:1000D000110C110C110C110C850C110C110C110CC4
:1000E000110C110C110C110C110C110C110C110C28
:1000F000110C110C110C110C380C110C110C110CF1
:10010000110C110C110C110C500C110C110C110CC8
:10011000110C110C110C110CC90C110C110C110C3F
:10012000110C110C110C110CC90C110C110C110C2F
:10013000110C110C110C110C610C110C110C110C87
:10014000110C110C110C110C610C110C110C110C77
:10015000110C110C110C110C730C110C110C110C55
:10016000110C110C110C110C4C0C110C110C110C6C
:10017000110C110C110C110C730C110C110C110C35
:10018000110C110C110C110C4C0C110C110C110C4C
:10019000110C110C110C110C6D0C110C110C110C1B
:1001A000110C110C110C110C2A0C110C110C110C4E
:1001B000110C110C110C110C2A0C110C110C110C3E
:1001C000110C110C110C110C880C110C110C110CD0
:1001D000110C110C110C110C8E0C110C110C110CBA
:1001E000110C110C110C110C340C444541442042EB
:1001F00045454621000D0A0A0A476F6F646279651A
:100200002E2E2E206E6F20737061636520666F72D4
:100210002069646C65207461736B210D0A000D0AFE
:100220000A48656C6C6F20576F726C64210D0A0070
:1002300043757272656E743A2025752F25752F25CA
:1002400075202532753A253032753A253032750DD4
:100250000A0053657474696E672073756363657310
:100260007366756C0D0A005365743A2025752F2549
:10027000752F2575202532753A253032753A25308F
:1002800032750D0A007076506F72744D616C6C6F30
:100290006320666F72202A42756666206661696C0B
:1002A0002E2E210D0A007076506F72744D616C6CA9
:1002B0006F6320666F72202A4C696E6542756666B0
:1002C0006572206661696C2E2E210D0A002532753B
:1002D0003A25303275202532752F2575004D696E0F
:1002E00025336443002532753A2530327520253296
:1002F000752F2575004D61782533644300253275CF
:100300003A253032753A2530327500253364430082
:1003100025752F25752F257500416E79204461794B
:1003200020200053617475726461792000467269FF
:1003300064617920202000546875727364617920AB
:10034000005765646E657364617900547565736404
:1003500061792020004D6F6E646179202020005368
:10036000756E646179202020000011241FBECFEF3C
:10037000D8E0DEBFCDBF11E0A0E0B1E0E2E8F2E4FA
:1003800002C005900D92A433B107D9F717E0A4E39A
:10039000B1E001C01D92A63BB107E1F70E944406FF
:1003A0000C943F210C9400004F925F926F927F92C9
:1003B0008F929F92BF92CF92DF92EF92FF920F9314
:1003C0001F93DF93CF93CDB7DEB727970FB6F8947F
:1003D000DEBF0FBECDBF80918C0790918D07009737
:1003E00009F47EC180919C0790919D07009709F4C4
:1003F00067C18E010F5F1F4F32E0C32ED12CCC0E90
:10040000DD1E24E0822E912C8C0E9D1E97E6692E17
:1004100092E0792E80E3482E82E0582E80918E075C
:1004200090918F076EE342E350E00E940A08E0904B
:100430008C07F0908D07FB82EA82BB2480918E07A7
:1004400090918F07B8014FEF5FEF0E94FD07298160
:100450002D3029F12830B1F0203280F38B2D90E03F
:100460008F3491055CF78E0D9F1DDC012C93B394A6
:1004700080918E0790918F07698142E350E00E943E
:100480000A08DCCFBB20D1F2BA9480918E079091FC
:100490008F0768E042E350E00E940A08CFCFF701DF
:1004A000EB0DF11D108280E091E00E945907AA81B6
:1004B000BB81FD018191FB83EA83823709F495C0FA
:1004C000843709F0ABCFC601B4010E94A706882388
:1004D00009F4B7C0E0919C07F0919D078C8180875B
:1004E000C601B4010E94A706E0919C07F0919D0708
:1004F0008C818783C601B4010E94A706E0919C0706
:10050000F0919D078C818683C601B4010E94A706E5
:10051000E0919C07F0919D078C818583C601B40111
:100520000E94A706E0919C07F0919D078C8184832F
:10053000C601B4010E94A706E0919C07F0919D07B7
:100540008C818383C601B4010E94A706882309F425
:1005500065CF40919C0750919D078C81FA01828361
:100560002DB73EB72E5030400FB6F8943EBF0FBEA9
:100570002DBFEDB7FEB73196ADB7BEB712967C92E0
:100580006E921197DA0118969C91189792831382B4
:1005900017969C9117979483158216969C9116979F
:1005A0009683178214969C911497908711861396C0
:1005B0009C9192871386848715860E949207EDB7D7
:1005C000FEB73E960FB6F894FEBF0FBEEDBF80910A
:1005D0009C0790919D070E94970A813009F01ECFD9
:1005E00082E592E00E94CC0719CF11968C91119769
:1005F0003196FB83EA83843709F010CFAAEAB7E08B
:10060000E0E9F7E08AE001900D928150E1F7A0EA7D
:10061000B7E0E0E9F7E08AE001900D928150E1F760
:100620008AEA97E060E070E04AE050E00E947D20B6
:1006300080EA97E06AE070E04AE050E00E947D20A6
:10064000EDCE80E997E00E94EE09813009F0E6CE18
:100650002DB73EB72E5030400FB6F8943EBF0FBEB8
:100660002DBFEDB7FEB73196ADB7BEB712965C920F
:100670004E9211978091970790E08053984F938303
:100680008283809196078483158280919507868363
:1006900017828091930780871186809192078287C5
:1006A000138680919107848715860E949207EDB783
:1006B000FEB73E960FB6F894FEBF0FBEEDBFAECEAE
:1006C0008AE090E00E94670F90939D0780939C07BB
:1006D000009709F08ECE85E892E00E94CC0789CE83
:1006E00080E590E00E94670F90938D0780938C07C0
:1006F000009709F077CE86EA92E00E94CC0772CE8E
:10070000EF92FF920F931F93CF93DF9380919E07F9
:1007100090919F0760E070E04FEF5FEF20E00E9454
:100720008712813009F47BC06091920770E080E00D
:1007300090E00E94AC1C7B018C016091930770E0FB
:1007400080E090E00E94AC1C20E030E040E752E402
:100750000E943A1DA80197010E94171C21E332E56F
:100760004EE85FE30E943A1D9B01AC0160E070EC33
:100770008FE095E40E94161C0E94801CEB01809182
:100780009E0790919F0760E070E04FEF5FEF20E0E1
:100790000E9487128130D9F080E090E00E947218A8
:1007A000609192076F3011F2603158F4662309F4BA
:1007B000BDCF70E080E090E00E94AC1C7B018C011A
:1007C000DECF6E3109F4B2CF6D3299F7AFCFC801E9
:1007D000B7012CEF32EF48ED51E40E943A1D9B0126
:1007E000AC0160E070EC8FE095E40E94161C0E9462
:1007F000801C9B01AC01CE01B9010E942C0788EE40
:1008000093E00E94B91780919E0790919F0760E046
:1008100070E040E050E020E00E944E11BDCF0E9409
:10082000020788EE93E00E94B91780919E0790918D
:100830009F0760E070E040E050E020E00E944E1131
:1008400073CFA2E0B0E0E7E2F4E00C94CB1D0E948D
:100850006B169A8389838AEA97E060E070E04AE049
:1008600050E00E946D2080EA97E06AE070E04AE084
:1008700050E00E946D2080E00E94240F0E941C0D19
:10088000A0E1CA2EA3E0DA2EFDEFAF2EF2E0BF2EDC
:10089000E5EF8E2EE2E09E2E75EE672E72E0772E4B
:1008A0006DED262E62E0362E7E010894E11CF11CCF
:1008B0005FE7452E20C1823009F4D7C1833008F0AC
:1008C000DEC1813009F4D6C189E193E00E94330E84
:1008D00080E06AE00E948A0DADB7BEB718970FB6E8
:1008E000F894BEBF0FBEADBFEDB7FEB731961296FE
:1008F000DC92CE921197809195078283138280912A
:100900009607848315828091970790E08053984FD3
:10091000978386830E94F90DEDB7FEB738960FB620
:10092000F894FEBF0FBEEDBF81E061E00E948A0D2A
:10093000809199078F37B9F000D000D0EBE0F3E059
:10094000ADB7BEB71296FC93EE931197992787FD2A
:10095000909514969C938E9313970E94F90D0F9087
:100960000F900F900F9081E068E00E948A0D2DB7E4
:100970003EB7285030400FB6F8943EBF0FBE2DBF93
:10098000EDB7FEB73196ADB7BEB71296BC92AE9238
:1009900011978091930782831382809192078483B9
:1009A000158280919107868317820E94F90DEDB719
:1009B000FEB738960FB6F894FEBF0FBEEDBF82E0CB
:1009C00060E00E948A0D00D000D0ADB7BEB712968D
:1009D0009C928E9211978091B307992787FD9095ED
:1009E00014969C938E9313970E94F90D0F900F907D
:1009F0000F900F9082E068E00E948A0DEDB7FEB77D
:100A00003A970FB6F894FEBF0FBEEDBF3196ADB763
:100A1000BEB712967C926E9211978091AD07828339
:100A200013828091AC07848315828091AF078683FF
:100A300017828091B007808711860E94F90DEDB76B
:100A4000FEB73A960FB6F894FEBF0FBEEDBF83E037
:100A500060E00E948A0D00D000D0ADB7BEB71296FC
:100A60003C922E9211978091A907992787FD909526
:100A700014969C938E9313970E94F90D0F900F90EC
:100A80000F900F9083E068E00E948A0DEDB7FEB7EB
:100A90003A970FB6F894FEBF0FBEEDBF31962DEC1E
:100AA00032E0ADB7BEB712963C932E93119780916A
:100AB000A307828313828091A20784831582809189
:100AC000A507868317828091A607808711860E94DA
:100AD000F90D8DB79EB70A960FB6F8949EBF0FBE5C
:100AE0008DBF80919107882309F454C0C70162E348
:100AF00070E00E94E51780E997E00E94EE098823E4
:100B0000A9F380919E0790919F07009731F160E0D3
:100B100070E045E050E020E00E948712813009F447
:100B200040C04092990780E060E00E948A0D809169
:100B30009407843009F48FC0853008F4BCCE863029
:100B400009F48EC0863008F481C0873009F0BCCE2D
:100B500083E293E00E94330EBBCE00E80093990736
:100B600080919907833EFCF29091A9078917DCF6E2
:100B7000E0EAF7E0A0E9B7E08AE00D900192815049
:100B8000E1F780EA97E06AE070E04AE050E00E9416
:100B90007D20C9CF80919A0790919B070E94711583
:100BA000A5CF44E1542E00E010E080E060E00E9418
:100BB0003F0F05C089E995E10197F1F700C00E9458
:100BC000380F8823B9F70E94580F080F191F5A943D
:100BD00061F780919E0790919F0760E070E040E090
:100BE00050E020E00E944E11B80180E090E00E94A9
:100BF000AC1C2DE83EEF46EC5CE30E943A1D23E37B
:100C000033E948E853E40E94161C0E947B1C609361
:100C100099076F3709F487CF61340CF0A1CF809129
:100C2000B30786170CF09CCFEAEAF7E0A0E9B7E03B
:100C30008AE00D9001928150E1F78AEA97E060E046
:100C400070E04AE050E00E947D208ACF87E393E085
:100C50000E94330E3DCE81E493E00E94330E38CEE5
:100C60008DE293E00E94330E33CE85E593E00E943F
:100C7000330E2ECE8FE593E00E94330E29CE8BE407
:100C800093E00E94330E24CE60E072EC81E090E0AD
:100C900040E520E50E942D0890938F0780938E07F2
:100CA00081E060E043E00E94D91090939F07809319
:100CB0009E07009739F060E070E040E050E020E0EF
:100CC0000E944E1185E60E942D0B8EE192E00E945B
:100CD000180981E294E063E071E040EC50E020E02C
:100CE00030E002E0EE24FF24CC24DD24AA24BB243F
:100CF0000E944E1480E893E06CE071E040E650E022
:100D000020E030E001E0BAE9EB2EB7E0FB2E0E94D4
:100D10004E1484ED91E06FE171E040ED50E020E091
:100D200030E003E0EE24FF240E944E140E942C16B3
:100D300085EF91E00E94180980E061E00E948A0D31
:100D40008AEE91E00E94330E80E090E008950B015E
:100D5000DC01ED91FD912227332744275527E894A4
:100D60009AE001C0319660816032E1F3A8F16D3202
:100D700011F46894F7CF6A3378F5603368F171F451
:100D800098E031966081613248F1623611F492E068
:100D900003C0683719F490E1319660816132F0F058
:100DA000613608F060526053B8F06A3018F067504E
:100DB0006A3090F0691780F481E2771B08F4790FAC
:100DC000769557954795379527958A95B9F7260FC4
:100DD000381F481F581FE0CF80E001C081E04EF46B
:100DE00066272095309540955095261F361F461F43
:100DF000561FFE93EE93D0012D933D934D935D933B
:100E0000112408950FB6F8940F928AE1809381001F
:100E10008FEF97ED909387008093860084B1866072
:100E200084B983E390E19093890080938800909344
:100E30008B0080938A0082EA809380000F900FBE1F
:100E400008950FB6F8940F921092800084B1897FB4
:100E500084B90F900FBE0895CF93DF93EB010FB6C7
:100E6000F8940F92BC0180E090E00E94AC1C2AEA4A
:100E700031EF40E350E40E943A1D0E94801C7093C1
:100E8000890060938800BE0180E090E00E94AC1C65
:100E90002AEA31EF40E350E40E943A1D0E94801C90
:100EA00070938B0060938A000F900FBEDF91CF91FB
:100EB0000895A1E0B0E0EFE5F7E00C94D31DDC016C
:100EC0000D900020E9F76D010894C108D108C81AF7
:100ED000D90AE82EF92E00E010E05E010894A11C6A
:100EE000B11C0C151D05D0F4F70181917F010F5F36
:100EF0001F4F89838091340190913501B50140E005
:100F000050E020E00E944E11813059F78091C100DD
:100F100080628093C1000C151D0530F32196EAE034
:100F20000C94EF1DA0E0B0E0E8E9F7E00C94DB1DC5
:100F3000FE0135964191519180913801909139018E
:100F400060E470E09F010E945B1E809138019091E7
:100F500039010E9459072096E2E00C94F71DA0E0A9
:100F6000B0E0E5EBF7E00C94DB1DFE013596419116
:100F70005191809138019091390160E470E09F01B6
:100F80000E94301E80913801909139010E945907CA
:100F90002096E2E00C94F71DA1E0B0E0E2EDF7E06E
:100FA0000C94D31D7C010E94081E6C01009709F16E
:100FB00000E010E05E010894A11CB11CF701E00FF5
:100FC000F11F0F5F1F4FE491E983809134019091ED
:100FD0003501B50140E050E020E00E944E11813023
:100FE00029F48091C10080628093C1000C151D0519
:100FF00028F32196EAE00C94EF1D80913601909140
:10100000370120E00E94871291E0882309F490E0E4
:10101000892F0895A1E0B0E0E0E1F8E00C94DB1D39
:1010200069838091340190913501BE016F5F7F4FDC
:1010300020E00E944E11813031F080E02196E2E004
:101040000C94F71D0AC08091C10080628093C1009A
:1010500081E02196E2E00C94F71DDF92EF92FF927F
:101060000F931F937B018C01D42E822F0FB6F8941F
:101070000F9261E040E00E94D91090933701809375
:1010800036018D2D61E040E00E94D910909335012A
:10109000809334018091380190913901009709F4CF
:1010A0003DC0C801B7016050704A8B4A9F4F660F20
:1010B000771F881F991F660F771F881F991FA80128
:1010C0009701220F331F441F551F220F331F441F48
:1010D000551F220F331F441F551F0E94A91D215069
:1010E0003040404050402093C400232F342F452FE0
:1010F00055272093C50082E08093C00088E9809343
:10110000C10086E08093C2000F900FBE80E090E0A7
:101110001F910F91FF90EF90DF90089580E490E091
:101120000E94670F9093390180933801009709F06E
:10113000B8CFECCF80913801909139010E94FD0F1A
:1011400080913601909137010E94F413809134010F
:10115000909135010E94F4130FB6F8940F92E1ECD0
:10116000F0E080818F7D808380818F7780830F90F6
:101170000FBE0895CF93DF93FC01DC010D9000209A
:10118000E9F71197A81BB90BB1F080E090E031911D
:1011900001962091C00025FD09C0C9E9D5E121973C
:1011A000F1F700C02091C00025FFF7CF3093C600B3
:1011B0008A179B0760F3DF91CF910895A0E0B0E01C
:1011C000E4EEF8E00C94DB1DFE013596419151915F
:1011D000809138019091390160E470E09F010E9494
:1011E0005B1E80913801909139010E94BA082096C7
:1011F000E2E00C94F71DA0E0B0E0E1E0F9E00C942F
:10120000DB1DFE01359641915191809138019091FD
:10121000390160E470E09F010E94301E8091380126
:10122000909139010E94BA082096E2E00C94F71DD3
:10123000CF93DF93EC010E94081E0097D1F020E0CD
:1012400030E0FE01E20FF31F2F5F3F4FE49140912A
:10125000C00045FD09C0A9E9B5E11197F1F700C04B
:101260004091C00045FFF7CFE093C600281739072B
:1012700040F3DF91CF91089505C0E9E9F5E1319799
:10128000F1F700C09091C00095FFF7CF8093C600A2
:10129000089505C089E995E10197F1F700C08091B3
:1012A000C00087FFF7CF2091C0002C7119F4809106
:1012B000C60008958FEF08958091C000807808954A
:1012C0008091C000807208951F920F920FB60F9206
:1012D00011242F933F934F935F936F937F938F933B
:1012E0009F93AF93BF93EF93FF93DF93CF9300D080
:1012F000CDB7DEB719828091C0008C7149F12FEF14
:101300002A838091360190913701BE016E5F7F4F35
:10131000AE014F5F5F4F20E00E9459128981882300
:1013200011F00E94BD1A0F900F90CF91DF91FF91A5
:10133000EF91BF91AF919F918F917F916F915F914D
:101340004F913F912F910F900FBE0F901F901895C6
:101350003091C6003A83D5CF1F920F920FB60F92ED
:1013600011242F933F934F935F936F937F938F93AA
:101370009F93AF93BF93EF93FF93DF93CF9300D0EF
:10138000CDB7DEB78091340190913501BE016F5F1A
:101390007F4FAE014E5F5F4F0E94A0138130D1F0AE
:1013A0002091C1002F7D2093C1000F900F90CF910D
:1013B000DF91FF91EF91BF91AF919F918F917F91BD
:1013C0006F915F914F913F912F910F900FBE0F90B2
:1013D0001F90189589818093C600E7CFA2E0B0E006
:1013E000E4EFF9E00C94D71D8C018091B407909143
:1013F000B507009749F060E070E04AE050E020E077
:101400000E948712813029F081E02296E6E00C9458
:10141000F31D80ED89831A820E94ED0B813009F45F
:101420007AC021EDF80120830E94ED0B813009F490
:1014300078C07801C70169E00E94D10B882369F464
:101440008091B4079091B50760E070E040E050E013
:1014500020E00E944E1180E0D8CFF8012181922F28
:101460009695969596959E70892F880F880F890F6F
:101470002F70820F81832281922F96959695969553
:101480009E70892F880F880F890F2F70820F82839B
:101490002381922F9695969596959670892F880F11
:1014A000880F890F2F70820F8383848187708483D4
:1014B0002581922F9695969596959670892F880FEF
:1014C000880F890F2F70820F85832681922F969522
:1014D000969596959270892F880F880F890F2F7097
:1014E000820F86832781922F92959F70990F892F63
:1014F000880F880F890F2F70820F87838091B40720
:101500009091B50760E070E040E050E020E00E947C
:101510004E1181E07ACFCE01019662E00E948E0BDF
:1015200080CF7801C80169E00E948E0B83CFCF93F2
:10153000DF93EC018091B4079091B507009749F0D3
:1015400060E070E04AE050E020E00E9487128130C5
:1015500021F081E0DF91CF91089530ED3883198239
:101560008A812AE0622F0E949D1D8295807F890FCB
:101570008A838B810E949D1D8295807F890F8B833A
:101580008C810E949D1D8295807F890F8C838D8127
:101590000E949D1D8295807F890F8D838E810E9480
:1015A0009D1D8295807F890F8E838F810E949D1D56
:1015B0008295807F890F8F8388850E949D1D8295EB
:1015C000807F890F888780E189870E94ED0B8130B9
:1015D00079F08091B4079091B50760E070E040E049
:1015E00050E020E00E944E1180E0DF91CF910895FD
:1015F000CE016AE00E948E0B8091B4079091B507EE
:1016000060E070E040E050E020E00E944E1181E098
:10161000A1CF1F93182F81E060E043E00E94D91012
:101620009093B5078093B407009739F060E070E0BD
:1016300040E050E020E00E944E1137B13F7C37B9C6
:1016400028B1206328B91093BA001FEF1093BB0094
:1016500084E08093BC001F9108951F93182F81E0B0
:1016600060E043E00E94D9109093B5078093B407DF
:10167000009739F060E070E040E050E020E00E9428
:101680004E1147B14F7C47B938B1306338B9109229
:10169000B90026E62093B8001093BA001FEF10930C
:1016A000BB0084E08093BC001F9108958091BC0032
:1016B00080FDFCCF10923A0138EF3093290125ECE0
:1016C0002093BC0008958091BC0080FDFCCF109257
:1016D0003A0138EF3093290125EE2093BC0008959C
:1016E0002091BC0020FDFCCF60933B01662369F094
:1016F000A82FB92FECE3F1E0615070E0635C7E4FFE
:101700008D918193E617F707D9F710923A0168EFA8
:101710006093290155EC5093BC000895FC01809121
:10172000BC0080FDFCCF60933B01308130933C01D5
:10173000208120FD0EC0623060F03196ADE3B1E053
:10174000625070E0625C7E4F41914D93A617B707DF
:10175000D9F710923A0168EF6093290155EA509346
:10176000BC0008952091BC0020FDFCCF20913A01DF
:1017700020FF14C0662379F0ECE3F1E0A82FB92F25
:10178000615070E0635C7E4F81918D93E617F7079F
:10179000D9F720913A012D7F20933A01822F817051
:1017A00008952091BC0020FDFCCF20913A0120FF3C
:1017B00011C0662379F0ECE3F1E0A82FB92F615056
:1017C00070E0635C7E4F81918D93E617F707D9F740
:1017D00020913A01822F8170089580915C018823C5
:1017E00019F086B186B1FDCF81E008958091BC00EB
:1017F00080FDFCCF8091290108951F920F920FB6B2
:101800000F9211242F933F938F939F93AF93BF9386
:10181000EF93FF938091B90090E00897813C910588
:10182000A0F03091B9003093290125ED2093BC0040
:10183000FF91EF91BF91AF919F918F913F912F9128
:101840000F900FBE0F901F9018958C5C9F4FFC015E
:101850000C94021E91E0E0E0F0E0E45CFE4FA08119
:10186000A093BB0090935D01F5ECF093BC00E0CF3A
:1018700020915D019091BB00E22FF0E0E45CFE4F0F
:1018800090832F5F20935D0130E080913B0190E0D9
:1018900001972817390744F3E5E8E093BC00C8CF67
:1018A0003091BB00E0915D01F0E0E45CFE4F3083DD
:1018B00020913A01216020933A0184ED8093BC008D
:1018C000B7CF80913A018460826080933A01109290
:1018D0005D0125EC2093BC00ABCF94E090935C01BC
:1018E0009093BC00A5CFA0915D01B091BB00EA2F01
:1018F000F0E0E45CFE4FB083AF5FA0935D013091F8
:101900003A01316030933A01AFCF20915D01BCCFF5
:1019100090915D01E92FF0E09F5F9FCFB0915D0155
:10192000F0913B01BF17C1F19091B900909329014B
:1019300084E08093BC007CCF10925D0180E09091A8
:101940003B018917E8F4E82FF0E0E45CFE4F2081CA
:101950002093BB008F5F80935D0185E88093BC007E
:1019600067CF80915D01EBCFE091B900E093290151
:10197000B5EEB093BC005CCF85EE8093BC0058CF31
:10198000A0913A01A160A0933A0134E93093BC00E0
:101990004FCF80913A0198CFE0913A01E160E09316
:1019A0003A01C6CF80FF35C05A9A000083FD15C0AA
:1019B00067FD40C05F98862F66FF3AC02D9A85FF6D
:1019C00035C02C9A84FF30C02B9A5C9A87E08A95A8
:1019D000F1F700C05C986295607F67FD23C05F9857
:1019E00066FF1EC02D9A65FF16C02C9A64FD16C0B6
:1019F0002B985C9A97E09A95F1F700C05C988BED74
:101A000091E00197F1F700C05F9A2D9A2C9A2B9ADA
:101A100008955A98CACF2C9864FFEACF2B9AE9CF41
:101A20002D98E1CF5F9ADCCF2B98CFCF2C98CACFDF
:101A30002D98C5CF5F9ABFCF80915E0190915F01D5
:101A4000009709F454C084B1896384B98AB1846968
:101A50008AB95C9A5A9A28985F9A2D9A2C9A2B9A4E
:101A600082E393EBA2E081509040A040E1F700C0F8
:101A700000C088E060E30E94D20CAFE8B8E511979F
:101A8000F1F7000088E060E30E94D20C8FE898E54F
:101A90000197F1F7000088E060E30E94D20CA8E211
:101AA000B2E01197F1F700C0000088E060E30E9407
:101AB000D20C80E068E20E94D20C80E068E00E94D4
:101AC000D20C80E061E00E94D20C88E192E40197A0
:101AD000F1F700C080E066E00E94D20C80E06CE08C
:101AE0000E94D20C1092610110926001089580E56D
:101AF00090E00E94670F90935F0180935E010097D2
:101B000009F0A1CF089580915E0190915F010E943C
:101B1000FD0F08958093600160936101843058F453
:101B2000643148F480FD605C81FD6C5E606880E03B
:101B30000E94D20C08956CE080E00E94D20C0895BF
:101B4000682F80916001843050F46D3021F16A304B
:101B500031F16C30B1F080916101843108F0089569
:101B600085E00E94D20C209161012F5F20936101DA
:101B70002431A8F3809160018F5F60E00E948A0D9C
:101B8000089580E061E00E94D20C88E192E4019720
:101B9000F1F700C080E060E00E948A0D08958F5F39
:101BA00060E00E948A0D0895EF92FF920F931F93B9
:101BB000CF93DF937C01DC010D900020E9F78D01CC
:101BC00001501040081B190B79F080E090E0C0E054
:101BD000D0E021968E0D9F1DFC0180810E94A00DFA
:101BE000CE01C017D107A8F3CDB7DEB7E6E00C945D
:101BF000F31DA0E0B0E0EFEFFDE00C94DB1DFE0173
:101C000035964191519180915E0190915F0160E51F
:101C100070E09F010E945B1E80915E0190915F01C8
:101C20000E94D40D2096E2E00C94F71DA0E0B0E0F5
:101C3000ECE1FEE00C94DB1DFE01359641915191E3
:101C400080915E0190915F0160E570E09F010E94CC
:101C5000301E80915E0190915F010E94D40D20960C
:101C6000E2E00C94F71DEF92FF920F931F93CF9336
:101C7000DF937C010E94081E8C01009761F0C0E098
:101C8000D0E0F701EC0FFD1F219684910E94A00D7A
:101C9000C017D107B0F3CDB7DEB7E6E00C94F31D63
:101CA0008830C0F421E030E002C0220F331F8A9553
:101CB000E2F7EAE2F0E0ABE2B0E06F3FE1F066238A
:101CC00009F59C91422F409549234C935081522B0A
:101CD000508308958E30E8F490E0089721E030E0DA
:101CE00002C0220F331F8A95E2F7E4E2F0E0A5E29A
:101CF000B0E06F3F21F78C9182278C935081522B5B
:101D0000508308953C91322B3C935081522B508349
:101D10000895853170F490E00E9721E030E002C024
:101D2000220F331F8A95E2F7E7E2F0E0A8E2B0E085
:101D3000C4CF20E0E0E0F0E0A0E0B0E0BECF88302B
:101D4000C0F421E030E002C0220F331F8A95E2F791
:101D5000922F9095EAE2F0E0ABE2B0E08081892337
:101D600080836F3FE1F06623F1F42C9129232C93BB
:101D700008958E30E0F490E0089721E030E002C052
:101D8000220F331F8A95E2F7922F9095E4E2F0E05C
:101D9000A5E2B0E08081892380836F3F21F73C91E9
:101DA00032273C9308954C91422B4C9308958531F2
:101DB00080F490E00E9721E030E002C0220F331F44
:101DC0008A95E2F7922F9095E7E2F0E0A8E2B0E082
:101DD000C5CF9FEF20E0E0E0F0E0A0E0B0E0BECFB4
:101DE000883000F18E3080F0853140F590E00E971C
:101DF00021E030E002C0220F331F8A95E2F7E6E2CD
:101E0000F0E080818223089590E0089721E030E09F
:101E100002C0220F331F8A95E2F7E3E2F0E08081EF
:101E20008223089521E030E002C0220F331F8A95FB
:101E3000E2F7E9E2F0E080818223089520E0E0E02B
:101E4000F0E0808182230895882331F020917C0086
:101E5000206220937C00089580917C008F7D809388
:101E60007C00089580917C0082958695817008950C
:101E700080917A008295869586958170089580324A
:101E8000A0F497E890937A0090917C00292F206429
:101E9000662361F4922F9F77907E982B90937C001D
:101EA00080917A00806480937A000895906CF4CFDA
:101EB00080917C0085FD06C02091780030917900EA
:101EC000C90108952091790030E0C9010895EF9289
:101ED000FF920F931F93CF93DF93EC010E9465163F
:101EE00080913207882309F586E691E0909363019B
:101EF00080936201109265011092640188EC95E074
:101F0000909331078093300710922F0710922E077D
:101F100090936901809368018EE297E09093670146
:101F20008093660181E080933207209741F0AE01F3
:101F30004B5F5F4F249625E0C73CD20758F0C0E0C6
:101F4000D0E00E9433177E01CE01CDB7DEB7E6E0C8
:101F50000C94F31DE0916201F0916301A2E6B1E0FF
:101F600006C080819181009739F0DF01FC01228158
:101F7000338124173507A8F387E0EE32F807F9F22A
:101F8000CD91DC9111972596E080F1801196FC921D
:101F9000EE92C901841B950B8B30910518F19F01BE
:101FA000240F351FD90113969C938E931297538358
:101FB000428312966D917C91139702E611E001C065
:101FC0008F01D801ED91FC91119782819381861741
:101FD0009707B0F3D9011196FC93EE93F801318382
:101FE00020839A0180912A0190912B01821B930BEF
:101FF00090932B0180932A01A4CFCF93DF93009776
:1020000011F1EC0125970E9465162A813B81A2E619
:10201000B1E001C0DF01ED91FC91119782819381C4
:1020200082179307B8F3F983E883CD93DC9380910B
:102030002A0190912B01820F931F90932B01809383
:102040002A010E943317DF91CF91089580912A01D0
:1020500090912B01089508950F931F93CF93DF93D1
:10206000EC010FB6F8940F928E8D1816DCF40989E6
:102070000023C1F08E010F5E1F4F08C03E8D31500E
:102080003E8F13167CF42989222361F0C8010E9437
:10209000F518882399F30E948D193E8D31503E8F9B
:1020A00013168CF34FEF4E8F0F900FBE0FB6F894B0
:1020B0000F921D8D1116DCF458855523C1F08E0149
:1020C000085F1F4F08C07D8D71507D8F17167CF4FF
:1020D0006885662361F0C8010E94F518882399F38A
:1020E0000E948D197D8D71507D8F17168CF39FEF97
:1020F0009D8F0F900FBEDF91CF911F910F9108958B
:10210000CF93DF93EC012C8D222359F488819981A0
:10211000009709F447C08A8D8F5F8A8FDF91CF9136
:1021200008954423E1F48C819D81422F50E00E9468
:10213000111E2C8D8C819D81820F911D9D838C831E
:102140002A813B818217930730F3888199819D838F
:102150008C838A8D8F5F8A8FDF91CF9108958E81D6
:102160009F81422F50E00E94111E3C8D232F30E0B2
:10217000309521953F4F8E819F81820F931F9F83C2
:102180008E83488159818417950728F68A819B811F
:10219000820F931F9F838E838A8D8F5F8A8FDF913B
:1021A000CF9108958A819B810E94051A1B821A8211
:1021B000B2CF8F929F92BF92CF92DF92EF92FF9217
:1021C0000F931F93DF93CF930F92CDB7DEB7B82E47
:1021D000882381F440E050E0CA010F90CF91DF9155
:1021E0001F910F91FF90EF90DF90CF90BF909F9045
:1021F0008F9008958FE190E069830E94670F4C01F2
:102200006981009739F30B2D10E0C62EDD24C09EA6
:102210007001C19EF00CD09EF00C1124C7010196F4
:102220000E94670FF401918380836981009719F1FF
:10223000E80EF91EF382E282128E958384830150A8
:1022400010400C9DA0010D9D500D1C9D500D1124A2
:10225000480F591F57834683B38E648F8FEF858F46
:10226000868FC40108960E94741BC40141960E9487
:10227000741BA401B1CFC4010E94FD0F40E050E0E7
:10228000ABCF1F93162F60E042E00E94D910FC01F3
:10229000009709F0128FCF011F9108956F927F92DE
:1022A0009F92AF92BF92CF92DF92EF92FF920F93E5
:1022B0001F93DF93CF9300D000D00F92CDB7DEB73E
:1022C0008C013B015D834C83922E20E07E010894BB
:1022D000E11CF11C94E0C92ED12CCC0EDD1E88E04F
:1022E000A82EB12CA00EB11E0FB6F8940F92F801D3
:1022F000928D838D981708F44CC08C819D81009736
:1023000009F466C0222351F10F900FBE0E9465169A
:102310000FB6F8940F92F801258D2F3F19F1F801AF
:10232000368D3F3F21F10F900FBEC701B6010E94CD
:102330004719882309F050C00FB6F8940F92F8019E
:10234000528D0F900FBEF801438D541791F0C801C4
:102350000E942C100E94331721E0C6CFC7010E94B3
:102360003C19D2CF158EF801368D3F3FE1F6168E1F
:10237000DACF6C817D81C5010E94C718C8010E9417
:102380002C100E943317882339F70E94BD1A21E0D0
:10239000ABCFC801B301492D0E948010F80181899B
:1023A000882309F50F900FBE81E00F900F900F90DA
:1023B0000F900F90CF91DF911F910F91FF90EF90B1
:1023C000DF90CF90BF90AF909F907F906F900895D7
:1023D0000F900FBE80E0E9CFC8010E942C100E9430
:1023E000331780E0E2CFC80141960E94F518813092
:1023F000C9F60E94BD1AD6CF0F931F93CF93DF93D8
:10240000EC010A811B810E94A9190817190731F0F4
:1024100080E0DF91CF911F910F9108958E819F8170
:1024200001979F838E83009731F081E0DF91CF91F8
:102430001F910F910895CE0160E070E040E050E000
:1024400020E00E944E1181E0E4CFEF92FF92CF9303
:10245000DF938FE190E00E94670FE82EE7017E0195
:10246000F92EE7012097F9F01B821A82198218824F
:102470001D821C821F821E821A8E81E08B8F1C8E11
:102480008FEF8D8F8E8FC70108960E94741BC70136
:1024900041960E94741BC70160E070E040E050E08C
:1024A00020E00E944E11CE01DF91CF91FF90EF907E
:1024B00008950F931F93CF93DF93EC018A019A8DB8
:1024C0008B8D981730F080E0DF91CF911F910F91A5
:1024D0000895CE01422F0E9480108E8D8F3F41F0D3
:1024E0008F5F8E8F81E0DF91CF911F910F910895C3
:1024F0002989222311F481E0E7CFCE0141960E9481
:10250000F5188823C1F381E0F8018083DDCFA5E0D1
:10251000B0E0EDE8F2E10C94D01D8C01862E772E10
:102520005D834C83922E20E07E010894E11CF11C17
:1025300044E0C42ED12CCC0EDD1E31E1A32EB12CF3
:10254000A80EB91E0FB6F8940F92F801828D882359
:1025500009F060C08C819D81009709F48AC0222314
:1025600009F43AC00F900FBE0E9465160FB6F8949A
:102570000F92F801558D5F3F09F439C0F801668D5F
:102580006F3F09F43AC00F900FBEC701B6010E9419
:102590004719882309F075C00FB6F8940F92F80117
:1025A000728D0F900FBE7723D9F4F801808191814D
:1025B000009729F16C817D81C5010E94C718C8016F
:1025C0000E942C100E943317882311F021E0BACF0B
:1025D0000E94BD1A21E0B6CFC7010E943C19C2CFAC
:1025E000C8010E942C100E94331721E0ABCF158E3A
:1025F000F801668D6F3F09F0C6CF168EC4CF0FB6B7
:10260000F8940F92F801828193810E94AF190F9084
:102610000FBED0CFE680F78080819181009791F046
:10262000448D9701240F311D378326836281738186
:102630002617370708F03EC0882D972DB90150E0C6
:102640000E94111E992041F5F801228D2150228F00
:10265000808191810097C9F1F8013085332311F110
:10266000C80108960E94F5188130E1F40E94BD1A55
:1026700019C00F900FBE80E02596EDE00C94EC1D84
:102680002AC0C8010E942C100E94331780E02596B2
:10269000EDE00C94EC1D1FC0F801F782E682418941
:1026A000442361F40F900FBE81E02596EDE00C9479
:1026B000EC1D11C0978386839C01BECFC801419653
:1026C0000E94F518882371F3D1CF0E94A919F8014F
:1026D00093838283C1CFEF92FF920F931F93CF9387
:1026E000DF93EC018B01EA80FB800E94A919E816B8
:1026F000F906D9F0CE0160E070E0A80120E00E9468
:102700008712813031F0CDB7DEB7E6E00C94F31DCF
:1027100017C02E813F812F5F3F4F3F832E83CDB760
:10272000DEB7E6E00C94F31D0BC08E819F8101960D
:102730009F838E8381E0CDB7DEB7E6E00C94F31D76
:102740000F931F93CF93DF93EC018A018A8D882327
:1027500039F1E881F981309789F04C8D2E813F81E4
:10276000240F311D3F832E83AA81BB812A173B078B
:1027700098F4CB01B90150E00E94111E2A8D21501E
:102780002A8F8D8D8F3F91F08F5F8D8F81E0DF914C
:10279000CF911F910F910895FF83EE839F01E9CFA1
:1027A00080E0DF91CF911F910F91089538853323F9
:1027B00031F481E0DF91CF911F910F910895CE0107
:1027C00008960E94F5188823A1F381E0F801808320
:1027D000DECF0FB6F8940F92FC01828D0F900FBEE2
:1027E0000895FC01828D0895CF93DF93EC018881D9
:1027F00099810E94FD0FCE010E94FD0FDF91CF91C4
:102800000895FC01928D81E0911180E00895FC0112
:10281000228D81E0938D291380E00895CF93DF937B
:10282000EC01E0913307F091340793838283809128
:102830005C0790915D07C817D907D0F080917307A6
:102840009091740760913307709134076E5F7F4FEA
:102850000E94AB1B8091310190913201C817D907BA
:1028600020F4D0933201C0933101DF91CF910895CC
:1028700080917107909172076091330770913407CE
:102880006E5F7F4F0E94AB1BDF91CF9108958091C7
:1028900036078230E0F30E94BD1AF9CFA0E0B0E025
:1028A000E4E5F4E10C94CB1D1C012B014A01390134
:1028B00057018AE290E00E94670FE82EE7017E014F
:1028C000F92EE701209709F49DC0C114D10409F441
:1028D000DEC0D88ECF8AC60165EA70E0A4010E94EE
:1028E0001A1E089481089108EF88F88CE80CF91CEE
:1028F000CE014996B20140E150E00E94211E18A687
:10290000102F043008F078C01E8B19A7E2E0CE2EFD
:10291000D12CCC0EDD1EC6010E94821BCE010C966E
:102920000E94821BD987C88784E090E0811B9109AF
:102930009D878C87DB8BCA8BC701B101A3010E94E5
:102940003A1A99838883A114B10419F0F501D1834F
:10295000C0830FB6F8940F92209176072F5F2093D3
:1029600076078091330790913407009709F451C09E
:1029700040917707442359F4E0913307F0913407ED
:102980005689051720F0D0933407C09333072E895A
:1029900060917807621710F4209378079091790777
:1029A0009F5F9093790770913507721710F4209309
:1029B000350730E0C901880F991F880F991F880FCC
:1029C000991F820F931F8A5C984FB6010E94861B45
:1029D0000F900FBE80917707882339F0E09133077D
:1029E000F0913407A689A01748F081E0CDB7DEB793
:1029F000E2E10C94E71D5FC013E086CF0E94BD1A90
:102A000081E0F4CF8FEFCDB7DEB7E2E10C94E71DA4
:102A100052C0D0933407C0933307309176073130DA
:102A200009F0B5CFEE24FF24C701880F991F880F46
:102A3000991F880F991F8E0D9F1D8A5C984F0E94C9
:102A4000741B0894E11CF11CF4E0EF16F10461F72B
:102A50006AE7E62E67E0F62EC7010E94741B53E872
:102A6000A52E57E0B52EC5010E94741B8FE597E097
:102A70000E94741B88E697E00E94741BF092740712
:102A8000E0927307B0927207A092710780CFC401E1
:102A90000E94670FC82ED92ED88ECF8AC114D104B8
:102AA00009F019CFC7010E94FD0F8FEFCDB7DEB738
:102AB000E2E10C94E71DFC018285938527E08836CE
:102AC000920711F080E008952489358987E02F3539
:102AD000380729F081E021153105A1F7089580E03C
:102AE0000895A2E0B0E0E7E7F5E10C94D71D8C0172
:102AF0000097A9F0809133079091340708171907C0
:102B000071F00FB6F8940F92D8011A968D919C919E
:102B10001B97B7E088369B0731F00F900FBE2296C7
:102B2000E6E00C94F31DF80184899589F7E08F3570
:102B30009F0799F3009789F7B8016E5F7F4FCB012C
:102B400069837A830E94EA1BF80126898091350700
:102B500069817A81821710F42093350730E0C9012A
:102B6000880F991F880F991F880F991F820F931F35
:102B70008A5C984F0E94861BE0913307F0913407DE
:102B8000D80156969C9156978689981730F20E94E4
:102B9000BD1AC3CFEF92FF920F931F93CF93DF9392
:102BA000E82EE7017E01F92EE7018A859B8537E053
:102BB0008836930741F0FF248F2DCDB7DEB7E6E0CE
:102BC0000C94F31D49C08C899D8927E08F359207AD
:102BD00091F3009781F7F0905E07FF2079F5E0917F
:102BE0003307F0913407FF24F3949E898689981760
:102BF00008F4FF248E010E5F1F4FC8010E94EA1BDC
:102C00004E8980913507841710F44093350750E0C2
:102C10009A01220F331F220F331F220F331F240F5D
:102C2000351FC9018A5C984FB8010E94861B8F2D01
:102C3000CDB7DEB7E6E00C94F31D0EC0BE01645FB5
:102C40007F4F8FE597E00E94861BFF248F2DCDB725
:102C5000DEB7E6E00C94F31DAF92BF92CF92DF9205
:102C6000EF92FF920F9387E494E16CE271E045E507
:102C700050E020E030E000E0EE24FF24CC24DD240E
:102C8000AA24BB240E944E14813041F00F91FF9082
:102C9000EF90DF90CF90BF90AF900895F89480931D
:102CA000770710925D0710925C070E94841A0F91BB
:102CB000FF90EF90DF90CF90BF90AF900895F89481
:102CC000109277070E94BC1A089580915E078F5F6B
:102CD00080935E0708950FB6F8940F9220915C07D9
:102CE00030915D070F900FBEC901089520915C07D8
:102CF00030915D07C90108958091760708950F937B
:102D00001F93CF93DF9380915E07882309F065C0FE
:102D1000A0915C07B0915D071196B0935D07A093F9
:102D20005C0780915C0790915D07009709F45FC094
:102D3000809131019091320120915C0730915D07C3
:102D400028173907C0F54EC0E0917307F09174075A
:102D50000580F681E02DC681D7818A819B812091F3
:102D60005C0730915D072817390708F473C08E019E
:102D70000E5F1F4FC8010E94EA1B8C899D89009736
:102D800021F0CE010C960E94EA1B2E893091350766
:102D9000321710F42093350730E0C901880F991FCE
:102DA000880F991F880F991F820F931F8A5C984F75
:102DB000B8010E94861BE0917307F09174070081AF
:102DC000002311F68FEF9FEF909332018093310132
:102DD000DF91CF911F910F910895109175071F5F9B
:102DE00010937507DF91CF911F910F9108958091F6
:102DF0007307909174072091710730917207309397
:102E000074072093730790937207809371078091E2
:102E10005B078F5F80935B07E0917307F091740706
:102E20008081882339F48FEF9FEF90933201809354
:102E3000310182CFC0917307D0917407ED81FE817B
:102E40000680F781E02D82819381909332018093F7
:102E5000310172CF9093320180933101DF91CF9194
:102E60001F910F910895A1E0B0E0E9E3F7E10C9420
:102E7000D71D0FB6F8940F9220915E072150209332
:102E80005E0780915E07882309F05BC0309176076A
:102E9000332309F456C0198240915F074423D1F1CE
:102EA000E0916407F0916507E680F780C7010C9612
:102EB0000E94EA1B87010E5F1F4FC8010E94EA1B98
:102EC000D70156962C91569780913507821710F4AA
:102ED0002093350730E0C901880F991F880F991F8B
:102EE000880F991F820F931F8A5C984FB8010E9428
:102EF000861BE0913307F0913407D70156969C91D9
:102F000056978689981740F2B1E0B98340915F07E0
:102F1000442331F6509175075523D9F4E981E13006
:102F200021F0A0915A07A13061F410925A070E9433
:102F3000BD1A81E00F900FBE2196E6E00C94F31DC0
:102F400018C080E00F900FBE2196E6E00C94F31DB0
:102F500010C060917507662341F30E947F1690911F
:102F60007507915090937507709175077723A9F7AE
:102F7000DCCF0F931F93CF93DF93EC01009739F4CD
:102F80000E94BD1ADF91CF911F910F9108958091FA
:102F90005E078F5F80935E0700915C0710915D076D
:102FA000809133079091340702960E94EA1BCE016C
:102FB000800F911F0E940E140E943317882301F383
:102FC000DF91CF911F910F910895CF93DF93FC0173
:102FD000EB0180915E078F5F80935E078081918116
:102FE000C80FD91F20915C0730915D07281739075A
:102FF000F8F4C817D90730F580915C0790915D0708
:103000008C179D07F8F4D183C0838091330790918A
:10301000340702960E94EA1BCE010E940E140E9401
:103020003317882311F40E94BD1ADF91CF910895C0
:10303000C817D90740F380915C0790915D078C1702
:103040009D0708F3D183C083EACF80915E07882370
:1030500031F03CC0309135073150309335078091C5
:10306000350790E0FC01EE0FFF1FEE0FFF1FEE0F84
:10307000FF1FE80FF91FEA5CF84F8081882351F3A6
:103080002091350730E0C901880F991F880F991FDB
:10309000880F991F820F931FDC01AA5CB84F11960D
:1030A000ED91FC9112970280F381E02D1296FC9332
:1030B000EE931197875C984FE817F90759F08681CE
:1030C00097819093340780933307089521E02093EC
:1030D0005A0708950280F381E02D1296FC93EE9337
:1030E0001197EDCFEF92FF920F931F93CF93DF9342
:1030F000EC010FB6F8940F9280913307909134074A
:10310000C817D907A9F1209799F18E0172E0E72E2F
:10311000F12CE00EF11EC7010E94EA1BF801848920
:103120009589009721F0C8010C960E94EA1B88E659
:1031300097E0B7010E94861B0F900FBE209731F0D9
:10314000CDB7DEB7E6E00C94F31D21C08091770780
:103150008823D1F49091680720917607921779F02F
:103160000E942518CDB7DEB7E6E00C94F31D0FC022
:103170000091330710913407C0E0D0E0C7CF109220
:10318000340710923307DCCF0E94BD1AD9CFCF93FA
:10319000DF93EB016091330770913407645F7F4FD9
:1031A0000E94AB1B809133079091340702960E94D6
:1031B000EA1B8FEFCF3FD80759F080915C079091C1
:1031C0005D078C0F9D1F0E940E14DF91CF91089513
:1031D00060913307709134076E5F7F4F88E697E008
:1031E0000E94861BDF91CF9108950F931F93CF9379
:1031F000DF93DC011596ED91FC911697C681D7817E
:103200008E01045F1F4FC8010E94EA1B80915E0778
:10321000882349F58E010E5F1F4FC8010E94EA1BEB
:103220002E8980913507821720F130E0C901880F7F
:10323000991F880F991F880F991F820F931F8A5C0F
:10324000984FB8010E94861BE0913307F091340734
:1032500081E02E899689291708F480E0DF91CF91CB
:103260001F910F9108958FE597E0B8010E94861B8A
:10327000EBCF20933507D9CFFC0180915B0780838A
:1032800080915C0790915D07928381830895FC0192
:10329000DB010FB6F8940F928D919C9111972FEF4F
:1032A0008F3F9207B1F120915B073081321771F1A6
:1032B0004181528120915C0730915D0724173507C9
:1032C00008F520915C0730915D07241B350B28170A
:1032D0003907C0F420915C0730915D07821B930B86
:1032E000840F951F11969C938E9380915B0780832A
:1032F00080915C0790915D079283818380E00F90BD
:103300000FBE089581E00F900FBE08954181528154
:10331000D8CF80E00F900FBE089581E080935A07C8
:103320000895009779F0FC010788F08DE02D8081E9
:10333000853A69F4319680E090E001962191253A32
:10334000E1F30895E0913307F0913407EDCF80E089
:1033500008952091330730913407C9010895EF9201
:10336000FF920F931F93CF93DF93E82EE7017E0127
:10337000F92EE7018E89E0913307F09134079689A1
:103380008917E0F4E0913307F0913407468924E08F
:1033900030E0241B31093D872C8799E0899FC001CB
:1033A00011248A5C984F2A853B852817390759F0E4
:1033B000E0913307F091340786898E8BCDB7DEB765
:1033C000E6E00C94F31D87010E5F1F4FC8010E94B9
:1033D000EA1BE0913307F091340726892E8B809108
:1033E0003507821710F42093350730E0C901880FA4
:1033F000991F880F991F880F991F820F931F8A5C4E
:10340000984FB8010E94861BD9CF0F931F93CF937B
:10341000DF93EC01009731F19E8989A5981711F18E
:103420008E010E5F1F4FC8010E94EA1B49A54E8BFB
:10343000242F30E084E090E0821B930B9D878C87E3
:1034400080913507841798F0C901880F991F880F5C
:10345000991F880F991F820F931F8A5C984FB8019C
:103460000E94861BDF91CF911F910F910895409389
:103470003507EACF21E1FC01208392E29293B3E386
:10348000B293629372931292A0E8A293129272E0A6
:10349000729363E0629334E0329385E08293B6E006
:1034A000B293A7E0A29378E0729369E0629330E16F
:1034B0003293229382E18293B3E1B293A4E1A29387
:1034C00075E1729366E1629337E1329328E12293CA
:1034D00089E18293B0E2B293A1E2A293929373E264
:1034E00072934293529366E2629357E2529348E298
:1034F000429339E2329320E3229381E382939F0146
:1035000021503040C901089545E347BD32E034BD44
:1035100025E025BDEEE6F0E0808182608083A09109
:103520003307B0913407CD91CDBFDD91DEBFFF9160
:10353000EF91DF91CF91BF91AF919F918F917F914B
:103540006F915F914F913F912F911F910F91FF903C
:10355000EF90DF90CF90BF90AF909F908F907F9033
:103560006F905F904F903F902F901F900F900FBEE5
:103570000F90089581E0089508950F920FB6F89482
:103580000F921F9211242F923F924F925F926F924F
:103590007F928F929F92AF92BF92CF92DF92EF92E3
:1035A000FF920F931F932F933F934F935F936F93CC
:1035B0007F938F939F93AF93BF93CF93DF93EF93BB
:1035C000FF93A0913307B09134070DB60D920EB65C
:1035D0000D920E942518A0913307B0913407CD9128
:1035E000CDBFDD91DEBFFF91EF91DF91CF91BF9114
:1035F000AF919F918F917F916F915F914F913F918B
:103600002F911F910F91FF90EF90DF90CF90BF907F
:10361000AF909F908F907F906F905F904F903F9072
:103620002F901F900F900FBE0F9008950F920FB61E
:10363000F8940F921F9211242F923F924F925F9213
:103640006F927F928F929F92AF92BF92CF92DF92B2
:10365000EF92FF920F931F932F933F934F935F939C
:103660006F937F938F939F93AF93BF93CF93DF938A
:10367000EF93FF93A0913307B09134070DB60D92ED
:103680000EB60D920E947F160E942518A091330756
:10369000B0913407CD91CDBFDD91DEBFFF91EF91A9
:1036A000DF91CF91BF91AF919F918F917F916F915A
:1036B0005F914F913F912F911F910F91FF90EF904C
:1036C000DF90CF90BF90AF909F908F907F906F9042
:1036D0005F904F903F902F901F900F900FBE0F90D4
:1036E00008950E94161B1895FC010396928381830E
:1036F0002FEF3FEF348323839683858390878783DF
:1037000010820895FC01118610860895CF93DF93EF
:10371000FC01DB0121813281E9018A819B811396C1
:103720009C938E93129715963C932E9314978A81AF
:103730009B81EC017D836C83E9017B836A837283C7
:1037400061831996FC93EE93189780818F5F808335
:10375000DF91CF910895CF93DF93FC01DB012D9191
:103760003C911197BFEF2F3F3B0789F1DC01139686
:103770001296CD91DC91139788819981281739078A
:1037800068F012960D90BC91A02D1296CD91DC910F
:103790001397888199812817390798F712968D9188
:1037A0009C911397EB019B838A83EC017D836C834F
:1037B000EB01BD83AC8313967C936E931297F987CC
:1037C000E88780818F5F8083DF91CF910895A78103
:1037D000B085E4CFCF93DF93FC01A281B3818481D4
:1037E000958115969C938E931497C481D581BB8344
:1037F000AA83A085B18511968D919C9112978E1701
:103800009F0741F0118610862C9121502C93DF9157
:10381000CF9108951296DC93CE931197118610865E
:103820002C9121502C93DF91CF9108955058BB27B4
:10383000AA270ED0E5C0D6D030F0DBD020F031F48E
:103840009F3F11F41EF4CBC00EF4E095E7FBC1C01E
:10385000E92FE7D080F3BA1762077307840795074B
:1038600018F071F49EF5FFC00EF4E0950B2EBA2F00
:10387000A02D0B01B90190010C01CA01A001112476
:10388000FF27591B99F0593F50F4503E68F11A1622
:10389000F040A22F232F342F4427585FF3CF4695B3
:1038A00037952795A795F0405395C9F77EF41F16D5
:1038B000BA0B620B730B840BBAF09150A1F0FF0F9F
:1038C000BB1F661F771F881FC2F70EC0BA0F621F8B
:1038D000731F841F48F4879577956795B795F7957B
:1038E0009E3F08F0B3CF9395880F08F09927EE0F0D
:1038F00097958795089504D06894B111B5C008953F
:1039000098D088F09F5790F0B92F9927B751A0F021
:10391000D1F0660F771F881F991F1AF0BA95C9F763
:1039200012C0B13081F09FD0B1E008959CC0672FE4
:10393000782F8827B85F39F0B93FCCF38695779513
:103940006795B395D9F73EF49095809570956195FC
:103950007F4F8F4F9F4F0895E89409C097FB3EF427
:1039600090958095709561957F4F8F4F9F4F9923CC
:10397000A9F0F92F96E9BB279395F695879577954A
:103980006795B795F111F8CFFAF4BB0F11F460FF0A
:103990001BC06F5F7F4F8F4F9F4F16C0882311F062
:1039A00096E911C0772321F09EE8872F762F05C076
:1039B000662371F096E8862F70E060E02AF09A9511
:1039C000660F771F881FDAF7880F9695879597F906
:1039D000089597F99F6780E870E060E008959FEF91
:1039E00080EC089500240A94161617061806090696
:1039F000089500240A941216130614060506089565
:103A0000092E0394000C11F4882352F0BB0F40F4EC
:103A1000BF2B11F460FF04C06F5F7F4F8F4F9F4F2C
:103A2000089557FD9058440F551F59F05F3F71F0AE
:103A30004795880F97FB991F61F09F3F79F0879515
:103A40000895121613061406551FF2CF4695F1DF9E
:103A500008C0161617061806991FF1CF869571052E
:103A6000610508940895E894BB2766277727CB0162
:103A700097F908950BD0C4CFB5DF28F0BADF18F05E
:103A8000952309F0A6CFABCF1124EECFCADFA0F368
:103A9000959FD1F3950F50E0551F629FF001729FE3
:103AA000BB27F00DB11D639FAA27F00DB11DAA1F02
:103AB000649F6627B00DA11D661F829F2227B00D4F
:103AC000A11D621F739FB00DA11D621F839FA00DDA
:103AD000611D221F749F3327A00D611D231F849F2A
:103AE000600D211D822F762F6A2F11249F57504081
:103AF0008AF0E1F088234AF0EE0FFF1FBB1F661F1C
:103B0000771F881F91505040A9F79E3F510570F0D4
:103B100060CFAACF5F3FECF3983EDCF386957795B4
:103B20006795B795F795E7959F5FC1F7FE2B880FCF
:103B3000911D9695879597F90895991B79E004C092
:103B4000991F961708F0961B881F7A95C9F78095DC
:103B50000895A1E21A2EAA1BBB1BFD010DC0AA1FCE
:103B6000BB1FEE1FFF1FA217B307E407F50720F0E6
:103B7000A21BB30BE40BF50B661F771F881F991F61
:103B80001A9469F760957095809590959B01AC01AA
:103B9000BD01CF0108952F923F924F925F926F9295
:103BA0007F928F929F92AF92BF92CF92DF92EF92CD
:103BB000FF920F931F93CF93DF93CDB7DEB7CA1B4E
:103BC000DB0B0FB6F894DEBF0FBECDBF09942A8879
:103BD000398848885F846E847D848C849B84AA8421
:103BE000B984C884DF80EE80FD800C811B81AA81AE
:103BF000B981CE0FD11D0FB6F894DEBF0FBECDBF79
:103C0000ED010895EE0FFF1F0590F491E02D09944A
:103C1000FC0105900020E9F7809590958E0F9F1F7D
:103C20000895FB01DC0102C001900D92415050400B
:103C3000D8F70895DC0101C06D9341505040E0F782
:103C40000895FB01DC014150504048F001900D9275
:103C50000020C9F701C01D9241505040E0F708957F
:103C6000AEE0B0E0E6E3FEE10C94D91D8C01CB019F
:103C7000BA0146E04C831A83098397FF02C080E0B3
:103C800090E801979E838D83CE010196A9010E9441
:103C9000861E4D815E8157FD0AC02F8138854217EF
:103CA00053070CF49A01020F131FF80110822E968D
:103CB000E4E00C94F51DAEE0B0E0E1E6FEE10C942A
:103CC000D91D8C01CB01BA014EE04C831A830983C4
:103CD00097FF02C080E090E801979E838D83CE011C
:103CE0000196A9010E94861E4D815E8157FD0AC082
:103CF0002F813885421753070CF49A01020F131FC6
:103D0000F80110822E96E4E00C94F51DACE0B0E0D2
:103D1000ECE8FEE10C94CB1D6C011B018A01FC0157
:103D200017821682838181FFD1C12E010894411C24
:103D3000511CF6019381F10193FD859193FF8191CF
:103D40001F01882309F4BEC1853239F493FD8591A2
:103D500093FF81911F01853229F490E0B6010E9402
:103D6000B520E7CFEE24FF2420E02032B0F48B32E0
:103D700069F08C3228F4803251F0833271F40BC038
:103D80008D3239F0803349F421602CC022602460E8
:103D900029C0286027C0206125C027FD2CC0382FEE
:103DA00030533A3098F426FF08C08E2D880FE82E45
:103DB000EE0CEE0CE80EE30E15C08F2D880FF82EDA
:103DC000FF0CFF0CF80EF30E20620CC08E3221F4B3
:103DD00026FD78C1206406C08C3611F4206802C02C
:103DE000883649F4F10193FD859193FF81911F017C
:103DF000882309F0BACF982F9554933018F0905239
:103E0000933028F40C5F1F4FFFE3F9830DC0833616
:103E100031F0833771F0833509F060C022C0F801BA
:103E2000808189830E5F1F4F420171E0A72EB12C64
:103E300016C062E0662E712C600E711EF801808043
:103E4000918026FF03C06E2D70E002C06FEF7FEF00
:103E5000C4012C870E94AA205C0183012C852F7746
:103E600017C052E0652E712C600E711EF801808023
:103E7000918026FF03C06E2D70E002C06FEF7FEFD0
:103E8000C4012C870E949F205C012C85206883013F
:103E900023FD20C008C080E290E0B6012C870E947C
:103EA000B520FA942C858F2D90E0A816B90698F3CA
:103EB00011C0F40127FD859127FF81914F0190E00A
:103EC000B6012C870E94B5202C85F110FA94089435
:103ED000A108B108A114B10461F7F1C0843611F052
:103EE000893649F527FF08C0F80160817181828118
:103EF00093810C5F1F4F09C0F80160817181882791
:103F000077FD8095982F0E5F1F4F4FE6B42EB2229B
:103F100097FF09C090958095709561957F4F8F4F61
:103F20009F4FF0E8BF2AA2012AE030E00E94E12082
:103F3000782E741845C0853731F43FEEB32EB22287
:103F40002AE030E025C099EFB92EB2228F36C1F0B9
:103F5000803720F4883509F0B5C00DC0803721F0D6
:103F6000883709F0AFC002C020E1B22AB4FE0BC00E
:103F700084E0B82A08C0B4FE09C0E6E0BE2A06C044
:103F800028E030E005C020E130E002C020E132E06E
:103F9000B7FE08C0F80160817181828193810C5F56
:103FA0001F4F07C0F8016081718180E090E00E5FD3
:103FB0001F4FA2010E94E120782E7418FFE7BF2254
:103FC000B6FE0BC02EEFB2227E1438F4B4FE07C04A
:103FD000B2FC05C08FEEB82202C0A72C01C0AE2CE7
:103FE0008B2D90E0B4FE0DC0FE01E70DF11D208188
:103FF000203319F4E9EEBE2209C0A394B2FE06C034
:1040000004C086789070009709F0A3948B2C9924B3
:10401000B3FC14C0B0FE0FC0AF1428F4E72CEF0CB3
:10402000EA18AF2C08C0E72C06C080E290E0B60189
:104030000E94B520A394AF14C0F304C0AF1410F4D1
:10404000FA1801C0FF2484FE0FC080E390E0B6019F
:104050000E94B52082FE1FC081FE03C088E590E06B
:1040600010C088E790E00DC0C4018678907000977A
:1040700091F081FC02C080E201C08BE2B7FC8DE2CE
:1040800090E0B6010E94B52006C080E390E0B60142
:104090000E94B520EA947E14C0F37A94F201E70DF1
:1040A000F11D808190E0B6010E94B5207720A9F72C
:1040B00006C080E290E0B6010E94B520FA94FF208D
:1040C000C1F737CEF6012681378102C02FEF3FEFCF
:1040D000C9012C96E2E10C94E71DDC01CB01FC0147
:1040E000F999FECF06C0F2BDE1BDF89A319600B451
:1040F0000D9241505040B8F70895DC01A40FB51F50
:104100004150504048F0CB01840F951F2E910E94E2
:104110008E2041505040D0F70895262FF999FECFB8
:1041200092BD81BDF89A019700B4021639F01FBA0A
:1041300020BD0FB6F894FA9AF99A0FBE0895FC01C3
:104140000590615070400110D8F7809590958E0FC2
:104150009F1F0895FC016150704001900110D8F735
:10416000809590958E0F9F1F08950F931F93CF9367
:10417000DF938C01EB018B8181FF1BC082FF0DC09F
:104180002E813F818C819D812817390764F4E88155
:10419000F9810193F983E88306C0E885F985802FCA
:1041A0000995009731F48E819F8101969F838E83BC
:1041B00002C00FEF1FEFC801DF91CF911F910F9148
:1041C0000895FA01AA27283051F1203181F1E894AD
:1041D0006F936E7F6E5F7F4F8F4F9F4FAF4FB1E0FA
:1041E0003ED0B4E03CD0670F781F891F9A1FA11DF5
:1041F000680F791F8A1F911DA11D6A0F711D811DF6
:10420000911DA11D20D009F468943F912AE0269FBA
:1042100011243019305D3193DEF6CF010895462F19
:104220004770405D4193B3E00FD0C9F7F6CF462FFA
:104230004F70405D4A3318F0495D31FD4052419363
:1042400002D0A9F7EACFB4E0A69597958795779520
:104250006795BA95C9F700976105710508959B01A7
:10426000AC010A2E06945795479537952795BA9530
:10427000C9F7620F731F841F951FA01D0895F8943E
:02428000FFCF6E
:104282000D0A0057726974654C4344005772697491
:1042920065525443526574726F677261646500536C
:1042A200444D6F6E69746F7200F8C80549444C45FD
:0442B20000FFFF000A
:00000001FF
