:100000000C9483000C94A2000C94A2000C94A20007
:100010000C94A2000C94A2000C94A2000C94A200D8
:100020000C94A2000C94A2000C94A2000C94A200C8
:100030000C94A2000C94A2000C94A2000C94A200B8
:100040000C94A2000C94A2000C94A2000C94A200A8
:100050000C94A2000C94A4000C94A2000C94A20096
:100060000C94A2000C94CA2D0C940E2E0C94A20099
:100070000C94A2000C94A2000C94A2000C94A20078
:100080000C94A2000C94A2000C94A2000C94A20068
:100090000C94A2000C94A2000C94A2000C94A20058
:1000A0000C94A2000C94A2000C94A2000C94A20048
:1000B0000C94A2000C94A2000C94A2000C94A20038
:1000C0000C94A2000C94A2000C94A2000C94A20028
:1000D0000C94A2000C94A2000C94A2000C94A20018
:1000E0000C94A200202B2D2E30313233343536378C
:1000F00038396800454647656667006364696E6F16
:1001000070737578580011241FBECFEFD1E2DEBFA7
:10011000CDBF1AE0A0E0B2E0ECE2F8E600E00BBFF1
:1001200002C007900D92AE3AB107D9F71FE0AEEAD0
:10013000BAE001C01D92A538B107E1F70E94622F15
:100140000C9414340C9400001F920F920FB60F926F
:1001500011240BB60F922F933F934F935F936F939E
:100160007F938F939F93AF93BF93EF93FF930E94DF
:100170003B010E94420381110E94E203FF91EF9133
:10018000BF91AF919F918F917F916F915F914F91AF
:100190003F912F910F900BBE0F900FBE0F901F90AD
:1001A00018952F923F924F925F926F927F928F920B
:1001B0009F92AF92BF92CF92DF92EF92FF920F93F6
:1001C0001F93CF93DF93FB010DB605820EB6068217
:1001D000FC0105800DBE06800EBEDF91CF911F9100
:1001E0000F91FF90EF90DF90CF90BF90AF909F90D6
:1001F0008F907F906F905F904F903F902F900895D9
:10020000F894FFCF7894C201F10109950E94050589
:100210000895E0913C0CF0913D0C8CE594E09487BE
:100220008387FFCF0F931F930E9465020E94900166
:1002300060E48EEA9AE00E94EC0390933D0C809378
:100240003C0C21E0FC0125877894E0913C0CF09176
:100250003D0C87E792E09487838700E010E029E077
:1002600031E041E06FE670E08AEB9BE00E947104B0
:100270001F910F9108950F931F93CF93DF93E091F8
:100280003C0CF0913D0C8785882311F081508787C5
:10029000808991890196918B808B80912F0C909110
:1002A000300C01969093300C80932F0CA091290C68
:1002B000B0912A0C8CE0A932B80769F114968D919F
:1002C0009C911597019715969C938E931497892B63
:1002D00011F509E21CE01696ED91FC91179717961F
:1002E0001C921E921697CD91DC9111971B830A8365
:1002F000D0932A0CC093290C18968D919C91199734
:100300000995A091290CB0912A0C14968D919C917D
:100310001597892B01F3DF91CF911F910F910895CC
:10032000E9E2FCE0F0932C0CE0932B0CF183E083EA
:100330008FEF9FEF90932E0C80932D0C1092300C2A
:1003400010922F0C0895CF93DF93DC0119963C9304
:100350002E93189717965C934E931697E091290C5D
:10036000F0912A0C248135812617370750F4621B3F
:10037000730B0190F081E02D24813581261737071A
:10038000B0F31196FC93EE93C281D3811396DC9364
:10039000CE931297B383A283B983A88315967C93D7
:1003A0006E9314978CE0E932F80731F084819581DF
:1003B000861B970B95838483DF91CF910895CF930C
:1003C000DF93FC01A081B1818CE0A932B80761F014
:1003D00014968D919C91159724813581820F931FDE
:1003E00015969C938E931497C281D381B983A88369
:1003F000A081B1811396DC93CE9312971782168257
:10040000DF91CF91089520912F0C3091300C8617F9
:10041000970750F42817390728F081E02617370787
:1004200008F4089580E0089528173907B0F381E0B3
:100430000895CF93DF93DC011D968C911D97833037
:1004400071F140F1853091F18D3081F18FEF9FEFA7
:1004500053969C938E9352971D961C921D971496BB
:100460009C911497E1E3FCE00190F081E02D848100
:100470008917D0F71196FC93EE93C281D38113961E
:10048000DC93CE931297B383A283B983A883DF91C1
:10049000CF9108958111DACFDF91CF9108955296CF
:1004A000ED91FC91539784818F5F84831296ED9137
:1004B000FC9113978D919C91119791838083CD919D
:1004C000DC911197FB83EA83C1CFE1E3FCE0F09379
:1004D000340CE093330CF183E0831092350CF093ED
:1004E0003B0CE0933A0CF093390CE093380C0895F0
:1004F000CF93DF93DC011D961C921D9714969C915F
:100500001497E1E3FCE00190F081E02D84818917EC
:10051000D0F71196FC93EE93C281D3811396DC93AE
:10052000CE931297B383A283B983A883CD01DF91C1
:10053000CF910895CF93DF932CE33CE0D9016D91E7
:100540007C91FB01858784E18787E1E3FCE0808182
:100550009181DC01CD91DC911197D183C083FB8324
:10056000EA83F9019183808321E01D962C93DF912A
:10057000CF910C94D1001F93CF93DF93CDB7DEB70B
:100580002A970FB6F894DEBF0FBECDBF182F6F3F6E
:100590008FEF780729F120913C0C30913D0C49E117
:1005A00052E0CE0101960E94A301812F0E949A027F
:1005B0008F819885892B21F0CE0101960E94DF0161
:1005C000E0913C0CF0913D0C828993892A960FB6FC
:1005D000F894DEBF0FBECDBFDF91CF911F9108957C
:1005E000812F0E949A02ECCFCF93DF93DC015396C8
:1005F0007C936E93529714962C911497C0913C0C57
:10060000D0913D0C9C819217D8F01D961C921D979D
:10061000E1E3FCE00190F081E02D84818217D0F7C6
:100620001196FC93EE93C281D3811396DC93CE9303
:100630001297B383A283B983A883DF91CF910895E2
:100640001D86E1E3FCE00190F081E02D84818917B3
:10065000D0F7F983E883828193819B838A83D38354
:10066000C283FC01D183C083B0933D0CA0933C0CAA
:1006700081E01D968C931D97BE01CD01DF91CF9136
:100680000C94D100E091310CF091320C2481E09176
:100690003C0CF0913D0C94818785811104C081E070
:1006A000291720F0089581E09217E0F380E0089583
:1006B000CF93DF93A0913C0CB0913D0C8091310C15
:1006C0009091320CEC01E881F981F093320CE093C7
:1006D000310C21E33CE03383228390933D0C8093E3
:1006E0003C0C21E02D8724E11F962C931F971D962B
:1006F0001C921D9714963C911497FC0103C0019025
:10070000F081E02D24812317D0F71196FC93EE930E
:10071000C281D3811396DC93CE931297B383A283C5
:10072000B983A883BD01DF91CF910C94D100CF9301
:10073000DF93A0913C0CB0913D0C8091310C9091D5
:10074000320CEC01E881F981F093320CE093310C2A
:1007500021E33CE03383228390933D0C80933C0C57
:1007600021E02D871D961C921D9714963C9114979D
:10077000FC0103C00190F081E02D24813217D0F3F9
:100780001196FC93EE93C281D3811396DC93CE93A2
:100790001297B383A283B983A883BD01DF91CF9160
:1007A0000C94D100A091310CB091320CE0913C0C32
:1007B000F0913D0C14969C918481891708F008955E
:1007C0000C949703E0913C0CF0913D0C87858111CE
:1007D0000C9497030C945803CF93DF93FC0164832C
:1007E00082E08587168684E18787678F168E158E4F
:1007F000148E118A108A1486138681E39CE09087F8
:100800008783CAE3DCE0A881B981B287A187F98335
:10081000E8831896FC93EE931797CF014496958B37
:10082000848BCF014696918F808F978B868BCF01DB
:10083000DF91CF9108950F931F93CF93DF93FC0126
:1008400066517109680F791F76836583DB015296C3
:100850002C93A581B68151963C93A581B681509683
:100860000C93A581B6811F961C93A581B6815396E2
:100870001C92A581B68182E091E054969C93A5815B
:10088000B68155968C93448382E08587168684E1F1
:100890008787478F168E158E148E118A108A1486BC
:1008A000138681E39CE090878783CAE3DCE0A8811C
:1008B000B981B287A187F983E8831896FC93EE93F8
:1008C0001797CF014496958B848BCF014696918FD5
:1008D000808F978B868BCF01DF91CF911F910F91E6
:1008E00008950F931F93F8940E941B048C0160E0FD
:1008F00070E00E94F4027894C8011F910F9108954E
:10090000CF93F894E0913C0CF0913D0CC78D94810D
:10091000C91711F0981708F48483878F0E94D203B7
:1009200078948C2FCF910895CF93DF93D82FC92F30
:10093000F89460E070E00E94F40278948D2F9C2F70
:10094000DF91CF910895F894FC01268524602687D5
:1009500078940895F894BC0186E00E94BB027894D4
:100960000895F89420912F0C3091300C821B930B3A
:1009700021F0BC0186E00E94BB0278940895F894AF
:10098000A091310CB091320CE0913C0CF0913D0CF7
:1009900014969C918481981710F00E9458037894C3
:1009A00008950F931F93CF93DF93C0913C0CD09188
:1009B0003D0C9B8B8A8B8C899D898E010C5E1F4F11
:1009C0008017910761F0FC01208131813D8B2C8BD8
:1009D0000E9478028C899D8980179107A1F78E85E6
:1009E000837061F4E985FA858F8198859087878384
:1009F000AF81B8851A96FC93EE9319978EE0DF913C
:100A0000CF911F910F910C949A02F8940C94D104F9
:100A1000CF93DF93EC01F8948D858E3069F0E091EF
:100A20003C0CF0913D0C8C899D8991838083FD8BDA
:100A3000EC8B87E00E949A028A899B897894DF91E7
:100A4000CF910895F894E8E3FCE080819181789457
:100A50000895F894FC0127813085FCE021333F079D
:100A600019F07894C901089520E030E0FACFFC0134
:100A70008283F3838083F18364830895FF920F93CD
:100A80001F93CF93DF93EC01FC806C83F3941F14CE
:100A9000B4F00EEF1FEF8A819B81DC011296ED917D
:100AA000FC911397FB83EA83D183C0830E94780271
:100AB000FC01138B028BF394F1E0FF12ECCFDF917A
:100AC000CF911F910F91FF900895F8940E943E05D9
:100AD0000E94D20378940895CF93DF93FC01848120
:100AE0008150848387FD06C020E030E0C901DF919A
:100AF000CF910895A0913C0CB0913D0C5396FC937E
:100B0000EE9352971196FC93EE93C281D381139684
:100B1000DC93CE931297B383A283B983A88383E037
:100B20000E949A02E0913C0CF0913D0C228933899D
:100B3000C901DF91CF910895F8940E946C057894D3
:100B40000895CF93DF93FC019481892F8150848392
:100B500087FD06C020E030E0C901DF91CF91089504
:100B600061157105D1F0A0913C0CB0913D0C5396EC
:100B7000FC93EE9352971196FC93EE93C281D3812E
:100B80001396DC93CE931297B383A283B983A88381
:100B900083E0DF91CF910C94BB0294832FEF3FEF62
:100BA000DBCFF8940E94A10578940895CF93DF934A
:100BB000FC01F89484818F5F8483181624F4789460
:100BC000DF91CF91089580819181EC01A881B98155
:100BD000B183A0831396FC93EE93129760E070E0CC
:100BE0000E94F4027894DF91CF910895CF93DF9320
:100BF000FC0184818F5F848318161CF4DF91CF91F0
:100C0000089580819181EC01A881B981B183A0838D
:100C10001396FC93EE9312971B8A1A8ADF91CF9159
:100C20000C9478021F93CF93DF93EC01162F1616C6
:100C30001CF017C01150A9F08C818F5F8C8318169F
:100C4000CCF388819981DC01ED91FC91F983E883F3
:100C5000D383C2830E947802FC01138A128A115046
:100C600059F7DF91CF911F9108950F931F93CF9361
:100C7000DF93FC01EB01F89484818F5F8483181665
:100C80009CF58C8181508C8387FD0BC00E94D20320
:100C900020E030E07894C901DF91CF911F910F914E
:100CA000089500913C0C10913D0CD8011196DC93F5
:100CB000CE93EA81FB811396FC93EE9312971B83EC
:100CC0000A83118300835396DC93CE93529783E07B
:100CD0000E949A02F801228933897894C901DF9130
:100CE000CF911F910F91089580819181DC012D9109
:100CF0003C9131832083D9011396FC93EE93129794
:100D00000E947802FC01138A128ABBCFFC01828305
:100D1000F3838083F1831582148208950F931F93C8
:100D2000CF93DF938C01C0913C0CD0913D0CDC0142
:100D30001496ED91FC911597309709F49FC04C8162
:100D40008481841748F444838585843009F460C025
:100D5000853091F18823F1F0F8010190F081E02DC8
:100D60000E171F0721F094818C819817B0F7F98333
:100D7000E883A281B381BB83AA83D383C283CD934B
:100D8000DC931B8B0A8B84E0DF91CF911F910F9135
:100D90000C949A022281338180819181D9018D93B3
:100DA0009C9380819181DC0113963C932E93129742
:100DB000CF010E947802D0CF8289938962817381AA
:100DC00020813181DB012D933C9320813181D90138
:100DD00013967C936E931297DC010D90BC91A02D1D
:100DE0008A179B0729F014962C9114972417A8F7BB
:100DF000B183A08312968D919C91139793838283E4
:100E00001396FC93EE931297DC01ED93FC93A4CF21
:100E1000828993896281738120813181DB012D93E5
:100E20003C9320813181D90113967C936E93129764
:100E3000DC010D90BC91A02D8A179B0769F11496D7
:100E40002C9114972417A8F7B183A08312962D91A3
:100E50003C911397338322831396FC93EE9312975E
:100E6000D901ED93FC93DC011496ED91FC9115975B
:100E70004C818481841708F466CF6ECFFC01D58342
:100E8000C4838D8D9E8D978386831E8F0D8FDF91FA
:100E9000CF911F910F910895DC01D6CFF8940E9455
:100EA0008E0678940895F894DC0114962D913C9167
:100EB0001597232B19F080E078940895E0913C0C6D
:100EC000F0913D0C1596FC93EE931497258D368D7D
:100ED00017963C932E931697968F858F81E0789482
:100EE0000895DC0114962D913C911597232B11F058
:100EF00080E00895E0913C0CF0913D0C1596FC9338
:100F0000EE931497258D368D17963C932E93169756
:100F1000968F858F81E00895CF93DF9380913C0C6D
:100F200090913D0CF894DC015D96CD91DC915E973B
:100F3000EE81FF815E96FC93EE935D972881398167
:100F40002C173D0789F15F963C91309779F0A0818D
:100F5000B181AE17BF0729F014962C91321708F40F
:100F6000322F0680F781E02D309789F7FC0134831A
:100F7000E881F981A081B181B983A8831396DC93BC
:100F8000CE931297FD83EC83858D968D9F838E8300
:100F9000D68FC58F60E070E0CF010E94F402789494
:100FA000CE01DF91CF9108951D821C827894CE01ED
:100FB000DF91CF910895CF93DF9380913C0C909176
:100FC0003D0CDC015D96CD91DC915E97EE81FF8159
:100FD0005E96FC93EE935D97288139812C173D072F
:100FE00071F15F963C91309779F0A081B181AE1795
:100FF000BF0729F014962C91321708F4322F06807F
:10100000F781E02D309789F7FC013483E881F9817D
:10101000A081B181B983A8831396DC93CE931297F4
:10102000FD83EC83858D968D9F838E83D68FC58FB0
:10103000CF010E947802CE01DF91CF9108951D82E9
:101040001C82CE01DF91CF9108950F931F93CF9310
:10105000DF9300913C0C10913D0CF894D8015D9603
:10106000ED91FC915E973097F9F438C08D919C9189
:10107000119791838083EC01FB83EA83B583A4837A
:101080005D968D919C915E97978386835E96FC9387
:10109000EE935D97CD010E947802D8015D96ED91A7
:1010A000FC915E97309799F086819781E8019E8F39
:1010B0008D8FA081B181AE17BF07C1F61582148252
:1010C000D8015D96ED91FC915E97309769F75F9638
:1010D0008C915F9714968C930E94D2037894DF9141
:1010E000CF911F910F910895FC018283F383808338
:1010F000F1830895CF93DF93FC01F894808191816F
:101100008E179F0769F0EC01A881B981B183A08394
:101110001396FC93EE93129760E070E00E94F40245
:101120007894DF91CF910895CF93DF93FC01808174
:1011300091818E179F0771F0EC01A881B981B1836D
:10114000A0831396FC93EE9312970E947802FC0101
:10115000138A128ADF91CF9108950F931F93CF9333
:10116000DF93EC01888199818C179D0799F00EEF30
:101170001FEFDC01ED91FC91F983E883D383C283F7
:101180000E947802FC01138B028B888199818C1755
:101190009D0779F7DF91CF911F910F910895F894F2
:1011A0000E94AD080E94D20378940895EF92FF92B6
:1011B0000F931F93CF93DF937C01C0913C0CD09190
:1011C0003D0C0E94DB078C01EA8AFB8AD701F701FC
:1011D00004C094818C81981728F10190F081E02D52
:1011E000AE17BF07B1F7B983A8831296ED91FC91B2
:1011F0001397FB83EA831396DC93CE931297D183E4
:10120000C08385E00E949A02FA88CB89C8010E94B7
:101210008E068F2D9C2FDF91CF911F910F91FF9004
:10122000EF900895DF01DFCFF8940E94D6087894FC
:101230000895EF92FF920F931F93CF93DF9300D007
:10124000CDB7DEB77C0169837A830E94DB078C010E
:1012500040913C0C50913D0CDA015296EC92529721
:101260005396FC929701F7017A8169810190F08190
:10127000E02D2E173F0731F09481DA0114968C91FE
:101280009817A0F7DA011196FC93EE93828193816F
:1012900013969C938E93129753834283FC01518340
:1012A000408385E00E94BB027C018F3FFFEF9F07D8
:1012B00019F0C8010E948E06C7010F900F90DF91B0
:1012C000CF911F910F91FF90EF900895F8940E9495
:1012D000190978940895FB01F894DC012D913C9153
:1012E0001197318320836D937C9380913C0C909176
:1012F0003D0C938382834483158278940895F894F7
:10130000FC0101C0F901208131812817390741F022
:1013100062177307B9F7DB018D919C9191838083EC
:1013200078940895F894E0913C0CF0913D0C248D54
:10133000982F90959223948F789482230895F8940F
:10134000E0913C0CF0913D0C948D892B848F789426
:101350000895FC01F8948581158278940895FC0124
:10136000848D682B648F8585883071F0893009F011
:101370000895828968238613FBCFCF010E947802EB
:10138000FC01138A128A089582898623B1F7089591
:10139000F8940E94AF090E94D20378940895FF92B6
:1013A0000F931F93CF93DF938C01F62EFC01C08126
:1013B000D1818C179D0771F08D818F298D836C8170
:1013C0008A819B810E94AF090990D881C02D0C179A
:1013D0001D0791F7DF91CF911F910F91FF90089515
:1013E000F8940E94CF090E94D20378940895FC01DA
:1013F000858115820895EF92FF920F931F93CF93EB
:10140000DF938C01E62E662301F1F12CC1E0D0E0E0
:1014100003C0F394EE20C9F09E010F2C01C0220FEF
:101420000A94EAF78E2D8223A1F32095E222EF2D74
:10143000F0E0EE0FFF1FE00FF11F0190F081E02DB3
:101440008F2D0995F394E110E7CFDF91CF911F9194
:101450000F91FF90EF9008951F93CF93DF93182F74
:10146000C0913C0CD0913D0CF8942C8D982F922378
:1014700039F48A8B88E00E949A022C8D912F922356
:10148000892F81958923982F909592239C8F78940A
:10149000DF91CF911F9108951F93CF93DF93182F62
:1014A000C0913C0CD0913D0CF8942C8D822339F4E2
:1014B0001A8B88E00E949A022C8D812F8223982F0C
:1014C000909592239C8F7894DF91CF911F910895EE
:1014D0001F93CF93DF93182FC0913C0CD0913D0CFC
:1014E000F8949C8D8923811729F01A8B89E00E943A
:1014F0009A029C8D812F809589238C8F7894812FDF
:10150000DF91CF911F9108950F931F93CF93DF9396
:10151000082FC0913C0CD0913D0CF8949C8D182F55
:10152000192399F46115710539F47894812FDF91AD
:10153000CF911F910F9108958A8B88E00E94BB0282
:1015400097FDF3CF9C8D102F1923812F81951823A0
:10155000812F809589238C8F7894812FDF91CF9173
:101560001F910F9108950F931F93CF93DF93082F2F
:10157000C0913C0CD0913D0CF8949C8D182F1923F0
:1015800099F46115710539F47894812FDF91CF9129
:101590001F910F9108958A8B88E00E94BB0297FDEE
:1015A000F3CF9C8D102F1923812F809589238C8F49
:1015B0007894812FDF91CF911F910F9108951F9300
:1015C000CF93DF93182FC0913C0CD0913D0CF89431
:1015D0008C8D912F9823911789F06115710539F43D
:1015E000789410E0812FDF91CF911F9108951A8B8D
:1015F00089E00E94BB0297FDF3CF8C8D912F9095CF
:1016000098239C8F7894812FDF91CF911F9108951B
:10161000CF93DF93FC01C0913C0CD0913D0CF8942A
:101620007B8F6A8F46969B8B8A8B99838883A08D4C
:10163000B18DBB83AA83D18FC08FCD93DC93858579
:101640008C3049F08AE00E949A028A899B897894BA
:10165000DF91CF910895CF010E947802F3CFCF930D
:10166000DF93F894A0913C0CB0913D0C5696ED910F
:10167000FC915797CD014696E817F90779F0C0819C
:10168000D1815796DC93CE9356979B838A838BE0C8
:1016900085877894CF01DF91CF9108958CE00E94E7
:1016A0009A02A0913C0CB0913D0C5696ED91FC91A4
:1016B0005797CD014696E3CFF8940E94F4027894B0
:1016C0000895CF93DF93EC017F836E837D836C83DA
:1016D00079836883242F220F330B260F371F3B8318
:1016E0002A83642F0D960E94370560E0CE0108968C
:1016F000DF91CF910C943705CF93DF93EC01F894F1
:10170000888199819F838E839D838C836A817B816D
:10171000681B790B75956795CE010D960E943E0565
:1017200060E0CE0108960E943E050E94D2037894A4
:10173000DF91CF910895EF92FF920F931F93CF9374
:10174000DF93EC017B01BA010D960E94A1058C018B
:10175000009789F4EC81FD81E192F192FD83EC83A5
:101760008A819B81E817F90770F4CE0108960E94E0
:10177000F6050E94D203C801DF91CF911F910F910E
:10178000FF90EF900895888199819D838C83EDCFA0
:10179000F8940E949B0B78940895FC018189181697
:1017A000D4F48150818BA481B5816D937D93B583F1
:1017B000A48382819381A817B90740F4CF010896CA
:1017C0000E94F60520E030E0C901089580819181F2
:1017D00095838483F3CF2FEF3FEFF6CFEF92FF9205
:1017E0000F931F93CF93DF93EC017B01BA010D960A
:1017F0000E94A1058C01009791F4EE81FF81329740
:10180000FF83EE8388819981E817F90780F0F182E0
:10181000E082CE0108960E94F6050E94D203C8011C
:10182000DF91CF911F910F91FF90EF900895EA8182
:10183000FB813297FF83EE83EACFF8940E94EE0B90
:1018400078940895FC0181891816E4F48150818B05
:10185000A681B7811297B783A68380819181A8174B
:10186000B90750F06D937C93CF0108960E94F6055E
:1018700020E030E0C9010895A281B3811297B783B7
:10188000A683F0CF2FEF3FEFF5CFEF92FF920F93AC
:101890001F93CF93DF93EC017B01BA0108960E945E
:1018A000A1058C010097A1F4EE81FF8181919191B6
:1018B000D7018D939C93FF83EE838A819B81E817E8
:1018C000F90770F4CE010D960E94F6050E94D2032E
:1018D000C801DF91CF911F910F91FF90EF90089574
:1018E000888199819F838E83EDCFF8940E94450C67
:1018F00078940895CF93DF93FC0184851816FCF447
:1019000081508487A681B7818D919D91EB01998348
:101910008883B783A68382819381A817B90750F47F
:10192000CF010D960E94F60520E030E0C901DF915D
:10193000CF9108958081918197838683F1CF2FEF96
:101940003FEFF4CFCF93DF9361157105B1F0E091D4
:101950003C0CF0913D0C938B828B91838083EC0146
:10196000AA81BB81B383A283FB83EA83ED93FC93BB
:101970008DE0DF91CF910C94BB028FEF9FEFDF9151
:10198000CF9108950F931F93FC018283F38380838B
:10199000F1831582148273876287758764877783E2
:1019A0006683460F571F5187408737872687118BDD
:1019B000008B1F910F9108950F931F93CF93DF9387
:1019C000EC018E819F819B878A879D878C871D82F2
:1019D0001C82888199818C179D0799F00EEF1FEF6B
:1019E000DC01ED91FC91F983E883D383C2830E94EB
:1019F0007802FC01138B028B888199818C179D07DB
:101A000079F7DF91CF911F910F910895CF93DF93D5
:101A1000FC01A285B38584859585A817B907A9F12E
:101A2000848195810196958384836D93B387A28782
:101A300080859185A817B907C8F4808191818E1798
:101A40009F07E9F0EC01A881B981B183A0831396C7
:101A5000FC93EE9312970E947802FC01138A128A7B
:101A600020E030E0C901DF91CF9108958681978110
:101A700093878287808191818E179F0719F720E0D5
:101A800030E0C901DF91CF91089584819581892B40
:101A900019F480E090E0C6CF2CEF3FEFE3CF0F9337
:101AA0001F93CF93DF93EC018B01F894EE85FF85B4
:101AB000309709F009958C819D81009771F4B801E8
:101AC000CE010E94A20C9C0197FFF5CF7894C9012A
:101AD000DF91CF911F910F91089501979D838C8382
:101AE000EC85FD852191FD87EC8788859985E81730
:101AF000F90720F08E819F819D878C87789430E054
:101B0000C901DF91CF911F910F9108958F929F92FC
:101B1000AF92BF92CF92DF92EF92FF920F931F93FB
:101B2000CF93DF93EC015B014A018901CE84DF840E
:101B3000F894E12CF12CC114D10419F0CE01F60176
:101B400009958C819D810097A9F4B801CE010E946E
:101B5000A20C892BB1F37894C701DF91CF911F912B
:101B60000F91FF90EF90DF90CF90BF90AF909F903C
:101B70008F90089501979D838C83EC85FD858191DD
:101B8000D5018D935D01FD87EC8788859985E817E0
:101B9000F90748F47894BFEFEB1AFB0A8E149F0400
:101BA000D9F2F894C8CF8E819F819D878C87F2CF20
:101BB0000F931F93FC018283F3838083F18355830A
:101BC0004483738762877587648777836683640F2E
:101BD000751F7187608737872687118B008B1F9150
:101BE0000F9108950F931F93CF93DF93EC012E81F4
:101BF0003F813B872A873D872C8788859985821B73
:101C0000930B9D838C83888199818C179D0799F014
:101C10000EEF1FEFDC01ED91FC91F983E883D38394
:101C2000C2830E947802FC01138B028B8881998108
:101C30008C179D0779F7DF91CF911F910F91089530
:101C4000FF920F931F93CF93DF93EC01F62E8A013F
:101C5000F8948C819D81009779F4B801CE010E949F
:101C6000A20C9C0197FFF5CF7894C901DF91CF9129
:101C70001F910F91FF90089501979D838C83EA85B2
:101C8000FB85F192FB87EA8788859985E817F90734
:101C900020F08E819F819B878A87EE85FF85309714
:101CA00011F0CE010995789420E030E0C901DF9170
:101CB000CF911F910F91FF9008951F93CF93DF93C2
:101CC000FC01A485B585828593858A179B0761F100
:101CD000848195810196958384831D91B587A4871E
:101CE00080859185A817B907D0F4808191818E17DE
:101CF0009F0771F0EC01A881B981B183A08313968D
:101D0000FC93EE9312970E947802FC01138A128AC8
:101D1000212F30E0C901DF91CF911F910895868175
:101D2000978195878487E1CF84819581892B19F4E8
:101D300080E090E0CFCF2DEF3FEFECCF8F929F92DE
:101D4000AF92BF92CF92DF92EF92FF920F931F93C9
:101D5000CF93DF93EC017B014A015901CE84DF84EC
:101D6000F89400E010E08C819D81009731F101979B
:101D70009D838C83F70181917F01AA85BB858D931B
:101D8000BB87AA8788859985A817B90720F08E8117
:101D90009F819B878A87C114D10419F0CE01F60177
:101DA000099578940F5F1F4FF1E08F1A910861F049
:101DB000F8948C819D810097D1F6B501CE010E94E7
:101DC000A20C892B81F27894C801DF91CF911F91E9
:101DD0000F91FF90EF90DF90CF90BF90AF909F90CA
:101DE0008F90089581E080933E0C0895CF93DF9308
:101DF000CCE4D0E08091CE0A9091CF0ADC01ED9145
:101E0000FC910480F581E02D6DE20995219791F711
:101E10008091CE0A9091CF0ADC01ED91FC91019066
:101E2000F081E02D42E050E061E674E0DF91CF9177
:101E300009948F929F92AF92BF92EF92FF920F936D
:101E40001F93CF93DF93CDB7DEB760970FB6F894AB
:101E5000DEBF0FBECDBF611571058105910509F487
:101E600045C0EE24E394F12CEC0EFD1E87013AE010
:101E7000832E912CA12CB12CA50194010E94EA3251
:101E8000A62FA05DF801A1938F01B901CA016115C8
:101E900071058105910581F7EE16FF06B0F401503A
:101EA000110903C0F801A2918F018091CE0A90918F
:101EB000CF0AFC0120813181F901248135816A2F0B
:101EC000F90109950E151F0569F760960FB6F8948C
:101ED000DEBF0FBECDBFDF91CF911F910F91FF905D
:101EE000EF90BF90AF909F908F9008958091CE0A11
:101EF0009091CF0ADC01ED91FC910480F581E02DF9
:101F000060E360960FB6F894DEBF0FBECDBFDF91E1
:101F1000CF911F910F91FF90EF90BF90AF909F9046
:101F20008F900994CF93DF93DC016C91662381F04D
:101F3000EC0121968091CE0A9091CF0ADC01ED91BF
:101F4000FC910480F581E02D099569916111F2CF32
:101F5000DF91CF910895CF93DF93DC016C916623DD
:101F600081F0EC0121968091CE0A9091CF0ADC019C
:101F7000ED91FC910480F581E02D09956991611145
:101F8000F2CF8091CE0A9091CF0ADC01ED91FC91C5
:101F90000190F081E02D42E050E061E674E0DF91D5
:101FA000CF910994F894E091D00AF091D10A8193ED
:101FB000F093D10AE093D00A7894089521E0209319
:101FC000D20A2093D30A9093D50A8093D40A81E051
:101FD000089561110BC021E02093D20A2093D30A07
:101FE0009093D50A8093D40A81E0089580E0089503
:101FF000FB014091D00A5091D10A26ED3AE006C08B
:102000002F5F3F4F61917C9176130FC0D901241748
:102010003507B0F32081211108C086ED9AE0909336
:10202000D10A8093D00A80E0089521E02093D20A5B
:102030002093D30A9093D50A8093D40A81E008951F
:10204000CF93DF93EC01CB01BA010E94030281110F
:102050000CC081E08093D20A8093D30AD093D50A32
:10206000C093D40ADF91CF91089580E0DF91CF91A2
:102070000895CF93DF93CFE3DCE0899199910097A6
:1020800011F00E94A3048CE0C934D807B1F7DF91A6
:10209000CF910895CF93DF93CFE3DCE088819981DE
:1020A000009721F00E9408051982188222968CE080
:1020B000C934D80799F7DF91CF910895E0913C0C8E
:1020C000F0913D0C20893189A9014F5F5F4FA0E05D
:1020D000B0E00197A109B109480F591F8089918982
:1020E0002417350738F48217930750F084179507A3
:1020F000A8F308958217930788F78417950770F35C
:10210000089581E090E00E94AA0420912F0C309164
:10211000300CC901089510923E0CF894A0E0B0E094
:102120000197A109B109BC016F5F7F4F20E030E04A
:1021300042EF5EE086EE9AE00E94A3017894089553
:102140004F925F926F927F928F929F92AF92BF92C7
:10215000CF92DF92EF92FF920F931F93CF93DF9373
:102160009093CF0A8093CE0A83E694E00E94AB0F4F
:1021700084E694E00E94AB0F8EE794E00E94AB0FE0
:10218000C3E8D4E06AE28091CE0A9091CF0ADC01E4
:10219000ED91FC910480F581E02D09956991611123
:1021A000F2CF87EE94E00E94AB0FC6EFD4E06AE274
:1021B0008091CE0A9091CF0ADC01ED91FC910480D0
:1021C000F581E02D099569916111F2CF88E095E0E4
:1021D0000E94AB0FC0E2D5E06AE28091CE0A9091F6
:1021E000CF0ADC01ED91FC910480F581E02D099589
:1021F00069916111F2CF82E395E00E94AB0FCDE3CC
:10220000D5E06AE28091CE0A9091CF0ADC01ED918F
:10221000FC910480F581E02D099569916111F2CF5F
:1022200086E695E00E94AB0FC0E5D5E06AE28091BA
:10223000CE0A9091CF0ADC01ED91FC910480F581EA
:10224000E02D099569916111F2CF82E695E00E9437
:10225000AB0FCBE6D5E06AE28091CE0A9091CF0A2F
:10226000DC01ED91FC910480F581E02D09956991E7
:102270006111F2CF8DE795E00E94AB0FC3E8D5E086
:102280006AE28091CE0A9091CF0ADC01ED91FC9137
:102290000480F581E02D099569916111F2CF85E9FE
:1022A00095E00E94AB0FCDE9D5E06AE28091CE0ABD
:1022B0009091CF0ADC01ED91FC910480F581E02D35
:1022C000099569916111F2CF85E994E00E94AB0F05
:1022D00083E694E00E94AB0F1092D30A59E9452E91
:1022E00052E0552E812C912C540183940FEA12E078
:1022F00076ED672E7AE0772EC12CD12C7601C3942F
:10230000F80180819181892B09F4DFC00E94F60ECB
:10231000C3EAD4E06DE28091CE0A9091CF0ADC014D
:10232000ED91FC910480F581E02D09956991611191
:10233000F2CFC501B4010E94190F8091CE0A90918D
:10234000CF0ADC01ED91FC910480F581E02D6EE275
:102350000995C701B6010E94190FC0EBD5E060E2F4
:102360008091CE0A9091CF0ADC01ED91FC9104801E
:10237000F581E02D099569916111F2CFD801ED91B8
:10238000FC91C081D1816881662379F0219680918A
:10239000CE0A9091CF0ADC01ED91FC910480F58189
:1023A000E02D099569916111F2CF89EC94E00E94CA
:1023B000AB0F88EC90E00E94AA04F801C191D19182
:1023C0008F017092D10A6092D00A1092D20A1092B4
:1023D000400C10923F0C1092420C1092410C109243
:1023E000440C1092430C1092460C1092450C109223
:1023F000480C1092470CEA81FB81309709F009954F
:10240000EE81FF810995EC81FD81309709F00995F6
:102410000E944A108091D20A882309F49AC0C2EB24
:10242000D4E06DE28091CE0A9091CF0ADC01ED916B
:10243000FC910480F581E02D099569916111F2CF3D
:102440006091D40A7091D50A80E090E00E94190F43
:10245000C3EBD5E060E28091CE0A9091CF0ADC0117
:10246000ED91FC910480F581E02D09956991611150
:10247000F2CF8091D00A9091D10A865D9A40B1F056
:10248000A8F0C6EDDAE08091CE0A9091CF0A69916A
:10249000DC01ED91FC910480F581E02D099580919E
:1024A000D00A9091D10AC817D90768F388EC94E054
:1024B0000E94AB0FBFEFCB1ADB0AEB0AFB0AF80155
:1024C00080819181892B09F021CFD2010D911D913D
:1024D0002D01BFEF8B1A9B0AAB0ABB0A0115110530
:1024E00009F00ACF0E94F60E83E694E00E94AB0F3B
:1024F000C6EBD5E066E48091CE0A9091CF0ADC016C
:10250000ED91FC910480F581E02D099569916111AF
:10251000F2CF8091D30A811121C087ED94E00E940F
:10252000AB0F8091D30A282F332727FD3095932FA7
:10253000DF91CF911F910F91FF90EF90DF90CF909F
:10254000BF90AF909F908F907F906F905F904F90D3
:1025500008958BEC94E00E94AB0FACCF8FED94E02C
:102560000E94AB0FDECFCF92DF92EF92FF920F93DC
:102570001F93CF93DF93E0913C0CF0913D0CD480FE
:10258000CD2CC3948C2D0E948004F82E61E08D1117
:1025900060E081E090E00E94E90F882349F0DF913C
:1025A000CF911F910F91FF90EF90DF90CF90089502
:1025B0000D2D10E0E8012196E0913C0CF0913D0CCE
:1025C000248130E061E02C173D0709F060E082E0F3
:1025D00090E00E94E90F8111E2CF8F2D0E948004CC
:1025E000282F30E061E0C217D30709F060E083E0F4
:1025F00090E00E94E90F8111D2CFE0913C0CF09164
:102600003D0C61E084818D1160E084E090E00E94E7
:10261000E90F8111C4CFF894E0913C0CF0913D0C8E
:1026200084818E5F84837894780182E0E80EF11CC7
:10263000E0913C0CF0913D0C848190E061E08E15BE
:102640009F0509F060E085E090E00E94E90F8111AC
:10265000A6CF8C2D0E94800461E08D1160E086E0A1
:1026600090E00E94E90F81119ACFE0913C0CF0912B
:102670003D0C848190E061E0E816F90609F060E025
:1026800087E090E00E94E90F811189CFE0913C0C36
:10269000F0913D0C878D90E061E0C817D90709F0F3
:1026A00060E088E090E00E94E90F811178CF8D2DE5
:1026B0008D5F0E94800490E061E0C817D90709F09F
:1026C00060E089E090E00E94E90F811168CF0D5F22
:1026D0001F4FE0913C0CF0913D0C848190E061E053
:1026E0008017910709F060E08AE090E00E94E90F0E
:1026F000811155CFE0913C0CF0913D0C878D90E01D
:1027000061E00817190709F060E08BE090E00E9493
:10271000E90F811144CFF894E0913C0CF0913D0C0D
:10272000D482D78E78943BCF0F931F93E0913C0CCB
:10273000F0913D0C448144500DEF17E02EE834E158
:1027400067E970E080918F02909190020E9471047D
:102750009093420C8093410CE0913C0CF0913D0C25
:10276000448145500CEC15E02EE834E167E970E057
:1027700080918D0290918E020E9471049093400C82
:1027800080933F0CE0913C0CF0913D0C4481415012
:1027900004EC15E02EE834E167E970E080919502E1
:1027A000909196020E9471049093480C8093470C7C
:1027B000E0913C0CF0913D0C4481425006EC15E058
:1027C0002EE834E167E970E08091930290919402E1
:1027D0000E9471049093460C8093450CF894E0910C
:1027E0003C0CF0913D0C4481435009E916E02EE881
:1027F00034E167E970E080919102909192020E9429
:102800001B04E3E4FCE091838083789480819181D0
:102810000E9494040E944A1068EC75E081E090E008
:102820001F910F910C94F80F0F931F93E0913C0CA4
:10283000F0913D0C448145500CEC15E02EE834E15C
:1028400067E970E080918D0290918E020E94710480
:102850009093400C80933F0CE0913C0CF0913D0C28
:10286000448144500DEF17E02EE834E167E970E051
:1028700080918F02909190020E9471049093420C7B
:102880008093410CE0913C0CF0913D0C448143500D
:1028900009E916E02EE834E167E970E080919102E1
:1028A000909192020E9471049093440C8093430C87
:1028B000E0913C0CF0913D0C4481425006EC15E057
:1028C0002EE834E167E970E08091930290919402E0
:1028D0000E9471049093460C8093450CE0913C0C4F
:1028E000F0913D0C4481415004EC15E02EE834E1B8
:1028F00067E970E080919502909196020E947104C0
:102900009093480C8093470C0E944A1068EC75E045
:1029100081E090E01F910F910C94F80FFC018081F1
:102920000E94D20F80E090E008950F931F93CF9301
:10293000DF930E948110C0912F0CD091300C84E65F
:1029400090E00E94AA04AE014B595F4FBE016C5942
:102950007F4F81E090E00E942010882329F0DF91D2
:10296000CF911F910F910895C0912F0CD091300CF1
:1029700084E690E00E94AA04AE014B595F4FBE016D
:102980006C597F4F82E090E00E9420108111E7CFC8
:10299000C0912F0CD091300C88EE93E00E94AA04D5
:1029A000AE0147515C4FBE0168517C4F83E090E01F
:1029B0000E9420108111D3CF00912F0C1091300C68
:1029C000E801CC59DF4FCE010E94B104A8014B5958
:1029D0005F4FBE0184E090E0DF91CF911F910F9196
:1029E0000C94201060E080E092E00C94370560E0E9
:1029F00080E092E00C94370560E080E092E00C9477
:102A000037050F931F93CF93DF9300D000D01F9211
:102A1000CDB7DEB760E0CE0101960E94370560E0D9
:102A2000CE0101960E94650561E08D8118160CF4B7
:102A300060E081E090E00E94E90F882351F00F9060
:102A40000F900F900F900F90DF91CF911F910F91EA
:102A50000895E0913C0CF0913D0C448141508E0171
:102A60000F5F1F4F23E935E167E970E080918D0228
:102A700090918E020E9471049093400C80933F0CC1
:102A8000C8010E949C0561E08D8118160CF460E07D
:102A900082E090E00E94E90F8111D1CFF8948D81FE
:102AA0001816ACF50E94D203789461E08D81181657
:102AB00064F583E090E00E94E90F8111C0CF61E0EE
:102AC0008D81813009F060E084E090E00E94E90FA0
:102AD0008111B5CFF8948D81181604F50E94D203A8
:102AE000789461E08D811816BCF483E090E00E9438
:102AF000E90F8111A4CF61E08D81813009F060E0A0
:102B000085E090E00E94E90F9ACF60E0D2CFCE013D
:102B100001960E94F605C6CF60E0E7CFCE01019690
:102B20000E94F605DBCFF894FC012481121634F4E0
:102B30000E94D203789480E090E008950E94F60508
:102B40000E94D203789480E090E0089580E092E0C3
:102B50000E949C0580E092E00E94D60580E090E013
:102B60000895CF93DF93EC0180E092E00E949C05F2
:102B700088810E94D20F80E090E0DF91CF9108958C
:102B800082E390E00E94AA04F89480E092E00E9420
:102B9000F6050E94D203789480E090E008950F93A8
:102BA0001F93CF93DF93C0918D02D0918E02E0915D
:102BB0003C0CF0913D0C44814B5F04EC15E021EBA3
:102BC00035E167E970E0CE010E9471049093400CFA
:102BD00080933F0CE0913C0CF0913D0C44814F5FA1
:102BE00006EC15E021EB35E167E970E080918F029A
:102BF000909190020E9471049093420C8093410C3A
:102C0000E0913C0CF0913D0C44814D5F09E916E0E8
:102C100021EB35E167E970E0809191029091920299
:102C20000E9471049093440C8093430CE0913C0CFF
:102C3000F0913D0C44814C5F0DEF17E021EB35E145
:102C400067E970E080919302909194020E94710470
:102C50009093460C8093450CE0913C0CF0913D0C18
:102C600044814E5F0CEC15E021EB35E167E970E043
:102C700080919502909196020E9471049093480C65
:102C80008093470C80E092E00E94D60580E092E0BD
:102C90000E94D60580E092E00E94D60580E092E096
:102CA0000E94D60580E092E00E94D6050E944A105C
:102CB00068EC75E081E090E00E94F80F882329F02D
:102CC000DF91CF911F910F910895E0913C0CF0910D
:102CD0003D0C44814B5F04EC15E021EB35E167E9E5
:102CE00070E0CE010E9471049093400C80933F0CE1
:102CF000F89462E080E092E00E94120678940E94CC
:102D00004A1061E080910402813009F060E082E0C5
:102D100090E0DF91CF911F910F910C94E90F0F93E9
:102D20001F93E0913C0CF0913D0C44814F5F00E01B
:102D300010E026EA35E167E970E080918D0290911C
:102D40008E020E9471049093400C80933F0C60E0CF
:102D500072E0CB010E94350661E080910002909103
:102D600001028050924009F060E081E090E00E9412
:102D7000E90F882319F01F910F91089561E0809168
:102D80000402811125C082E090E00E94E90F8111C8
:102D9000F2CF60E072E0CB010E94350661E08091E5
:102DA0000002909101028050924009F060E083E0BF
:102DB00090E00E94E90F8111DECF61E08091040272
:102DC00081110EC084E090E01F910F910C94E90FE7
:102DD00060E082E090E00E94E90F8111CCCFD9CF72
:102DE00060E0F0CF0F931F93CF93DF9360E070E02C
:102DF00080E092E00E94D10561E0019609F060E078
:102E000081E090E00E94E90F882329F0DF91CF91C3
:102E10001F910F91089561E080910002909101024D
:102E20008050924009F060E082E090E00E94E90F5B
:102E30008111ECCF61E080910402811160E083E0B8
:102E400090E00E94E90F8111E1CFE0913C0CF091FC
:102E50003D0C4481415000E010E020EC35E167E991
:102E600070E080918D0290918E020E947104909387
:102E7000400C80933F0C64EF71E080E092E00E9490
:102E8000D105EC010E944A1061E0CD2B09F06DC024
:102E900084E090E00E94E90F8111B8CF61E0809159
:102EA0000002909101028050924009F060E085E0BC
:102EB00090E00E94E90F8111A9CF61E080910402A6
:102EC000811160E086E090E00E94E90F81119ECFC1
:102ED0000E948110C0912F0CD091300C11E4812FF1
:102EE0000E94D20F64EF71E080E092E00E94D10571
:102EF00061E0019609F060E087E090E00E94E90F50
:102F0000811184CF61E020910002309101022050B4
:102F1000324009F060E088E090E00E94E90F811102
:102F200075CF61E080910402811160E089E090E05A
:102F30000E94E90F81116ACF1F5F163481F668EC99
:102F400075E08AE090E00E94F80F81115FCFAE013A
:102F50004753564FBE016C53764F8BE090E0DF91A4
:102F6000CF911F910F910C94201060E091CF0F939F
:102F70001F93CF93E0913C0CF0913D0CC4814C2FFA
:102F80004F5F04EC15E02FE338E167E970E08091D2
:102F90008D0290918E020E9471049093400C809358
:102FA0003F0C4C2F4E5F09E916E02AE238E167E951
:102FB00070E080918F02909190020E947104909332
:102FC000420C8093410C4C2F4D5F06EC15E028E03D
:102FD00038E167E970E080919102909192020E943D
:102FE00071049093440C8093430C85E192E00E941D
:102FF0007A0885E192E00E947A080E944A1067E907
:1030000076E081E090E0CF911F910F910C94F80F42
:10301000CF93DF93EC018DE092E00E944E07888110
:103020000E94D20F0E948C0780E090E0DF91CF9148
:103030000895CF93DF93EC0185E092E00E944E0764
:1030400088810E94D20F0E948C0780E090E0DF917F
:10305000CF910895CF93DF93EC0185E092E00E9439
:103060004E0785E192E00E94140988810E94D20FE8
:103070000E948C0780E090E0DF91CF910895CF937C
:10308000DF93EC018DE092E00E944E0785E092E034
:103090000E944E076FEF7FEF85E192E00E94660984
:1030A00088810E94D20F0E948C070E948C0780E0CA
:1030B00090E0DF91CF91089585E192E00E9474083D
:1030C00085E092E00E9486068DE092E00C948606F0
:1030D00085E192E00E94740885E092E00C948606F7
:1030E00085E192E00E94740885E092E00C948606E7
:1030F00085E092E00C94860685E092E00E948606C8
:103100008DE092E00C94860685E092E00E948606AF
:103110008DE092E00C94860685E092E00C948606A1
:1031200085E092E00C9486060F931F93CF93E09175
:103130003C0CF0913D0CC4814C2F4F5F0CEC15E022
:103140002AE238E167E970E080918D0290918E0269
:103150000E9471049093400C80933F0C4C2F4E5F63
:103160000DEF17E02AE238E167E970E080918F0205
:10317000909190020E9471049093420C8093410CB4
:103180004C2F4D5F09E916E02AE238E167E970E06B
:1031900080919102909192020E9471049093440C4C
:1031A0008093430C4C2F4C5F06EC15E02AE238E18B
:1031B00067E970E080919302909194020E947104FB
:1031C0009093460C8093450C4C2F4B5F04EC15E01C
:1031D0002AE238E167E970E08091950290919602C9
:1031E0000E9471049093480C8093470C85E192E013
:1031F0000E94CF080E944A1068EC75E081E090E0E0
:10320000CF911F910F910C94F80F0F931F93CF93B1
:10321000E0913C0CF0913D0CC4814C2F4F5F0CECC5
:1032200015E02AE238E167E970E080918D02909123
:103230008E020E9471049093400C80933F0C4C2F9F
:103240004E5F0DEF17E02AE238E167E970E0809108
:103250008F02909190020E9471049093420C80938F
:10326000410C4C2F4D5F09E916E02AE238E167E98D
:1032700070E080919102909192020E94710490936B
:10328000440C8093430C4C2F4C5F06EC15E02AE273
:1032900038E167E970E080919302909194020E9476
:1032A00071049093460C8093450C4C2F4B5F04ECBB
:1032B00015E02AE238E167E970E08091950290918B
:1032C00096020E9471049093480C8093470CF894E6
:1032D00085E192E00E94940885E192E00E949408C2
:1032E00085E192E00E94940885E192E00E949408B2
:1032F00085E192E00E9494080E94D20378940E9493
:103300004A1068EC75E081E090E0CF911F910F9139
:103310000C94F80F0F931F93CF93E0913C0CF09116
:103320003D0CC48185E092E00E944E074C2F4F5F18
:103330000CEC15E029E138E167E970E080918D023D
:1033400090918E020E9471049093400C80933F0CE8
:103350004C2F4E5F0DEF17E029E138E167E970E08F
:1033600080918F02909190020E9471049093420C80
:103370008093410C4C2F4D5F09E916E029E138E1BB
:1033800067E970E080919102909192020E9471042D
:103390009093440C8093430C4C2F4C5F06EC15E04B
:1033A00029E138E167E970E08091930290919402FD
:1033B0000E9471049093460C8093450C4C2F4B5FF8
:1033C00004EC15E029E138E167E970E080919502AD
:1033D000909196020E9471049093480C8093470C40
:1033E0000E948C070E944A10E0913C0CF0913D0C29
:1033F00061E084818C1360E081E090E00E94E90F3D
:10340000882321F0CF911F910F91089568EC75E00A
:1034100082E090E0CF911F910F910C94F80FCF9321
:10342000E0913C0CF0913D0CC48185E092E00E945B
:103430005307682F81E090E00E94E90F882311F084
:10344000CF91089585E092E00E94530761E08111D9
:1034500057C082E090E00E94E90F8111F1CFF8940B
:103460000E94DB07789461E080910502909106024A
:103470008550924009F060E083E090E00E94E90FFF
:103480008111DECF61E08091090290910A02892BBF
:1034900009F03EC084E090E00E94E90F8111D0CF96
:1034A000E0913C0CF0913D0C61E084818C1360E074
:1034B00085E090E00E94E90F8111C2CF85E092E0A3
:1034C0000E944E070E94250861E0809105029091BC
:1034D00006028550924009F060E086E090E00E948C
:1034E000E90F8111ADCF61E08091090290910A024C
:1034F000892B09F060E087E090E0CF910C94E90F10
:1035000060E082E090E00E94E90F811199CFA7CF9F
:1035100060E0C0CFBF92CF92DF92EF92FF920F9305
:103520001F93CF93DF93E0913C0CF0913D0CD4803E
:10353000CD2CC394BD2CB394B394E0908D02F09045
:103540008E0206EC15E027EF3BE14C2D67E970E0B9
:10355000C7010E9471049093400C80933F0CC0916E
:103560008F02D091900204EC15E02AEE3BE14B2D46
:1035700067E970E0CE010E9471049093420C809341
:10358000410C8DE092E00E944E07E0913C0CF091DE
:103590003D0C61E084818D1160E081E090E00E944B
:1035A000E90F882351F0DF91CF911F910F91FF9088
:1035B000EF90DF90CF90BF90089584E690E00E9456
:1035C000AA04E0913C0CF0913D0C61E084818C11E7
:1035D00060E082E090E00E94E90F8111E4CF85E095
:1035E00092E00E944E07E0913C0CF0913D0C61E0AE
:1035F00084818C1160E083E090E00E94E90F8111EA
:10360000D2CF84E690E00E94AA04E0913C0CF091B5
:103610003D0C61E084818B1160E084E090E00E94C9
:10362000E90F8111C0CF0E948C07E0913C0CF09112
:103630003D0C61E084818C1160E085E090E00E94A7
:10364000E90F8111B0CF84E690E00E94AA04E091D6
:103650003C0CF0913D0C61E084818C1160E086E0CF
:1036600090E00E94E90F81119ECF0E942508E09111
:103670003C0CF0913D0C61E084818D1160E087E0AD
:1036800090E00E94E90F81118ECF0E944A100DEF49
:1036900017E027EF3BE14C2D67E970E0C7010E947E
:1036A00071049093400C80933F0C09E916E02AEED8
:1036B0003BE14B2D67E970E0CE010E9471049093CD
:1036C000420C8093410C8DE092E00E944E07E09105
:1036D0003C0CF0913D0C61E084818D1160E088E04C
:1036E00090E00E94E90F81115ECF84E690E00E9495
:1036F000AA04E0913C0CF0913D0C61E084818C11B6
:1037000060E089E090E00E94E90F81114CCF85E0F4
:1037100092E00E944E07E0913C0CF0913D0C61E07C
:1037200084818C1160E08AE090E00E94E90F8111B1
:103730003ACF84E690E00E94AA04E0913C0CF0911C
:103740003D0C61E084818B1160E08BE090E00E9491
:10375000E90F811128CFF8940E94DB077894E0915B
:103760003C0CF0913D0C61E084818C1160E08CE0B8
:1037700090E00E94E90F811116CF84E690E00E944C
:10378000AA04E0913C0CF0913D0C61E084818C1125
:1037900060E08DE090E00E94E90F811104CF0E946B
:1037A0002508E0913C0CF0913D0C61E084818D1185
:1037B00060E08EE090E00E94E90F8111F4CEDF918D
:1037C000CF911F910F91FF90EF90DF90CF90BF901E
:1037D0000C944A1086E990E00E94AA0485E092E0E9
:1037E0000E944E070E948C0780E090E0089582E3DB
:1037F00090E00E94AA048DE092E00E944E070E9491
:103800008C0780E090E008950F931F93CF93DF9390
:103810000E948110C0912F0CD091300CE0913C0C93
:10382000F0913D0C4481455000E010E02EE43DE174
:1038300067E970E080918D0290918E020E94710480
:103840009093400C80933F0CE0913C0CF0913D0C28
:10385000448144502CE23DE167E970E080918F02A1
:10386000909190020E9471049093420C8093410CBD
:10387000E0913C0CF0913D0C4481435028E13DE146
:1038800067E970E080919102909192020E94710428
:103890009093440C8093430CE0913C0CF0913D0CD0
:1038A000448142502AE03DE167E970E08091930253
:1038B000909194020E9471049093460C8093450C61
:1038C000E0913C0CF0913D0C4481415026EF3CE1ED
:1038D00067E970E080919502909196020E947104D0
:1038E0009093480C8093470C0E944A1068EC75E056
:1038F00081E090E00E94F80F882329F0DF91CF91BA
:103900001F910F910895AE014D585F4FBE0162594E
:103910007F4F82E090E0DF91CF911F910F910C9447
:1039200020100F931F93CF93DF930E948110C091BB
:103930002F0CD091300CE0913C0CF0913D0C448167
:10394000415000E010E020E83DE167E970E080913F
:103950008D0290918E020E9471049093400C80938E
:103960003F0CE0913C0CF0913D0C4481425022E729
:103970003DE167E970E080918F02909190020E9492
:1039800071049093420C8093410CE0913C0CF091B7
:103990003D0C448143502EE53DE167E970E08091A4
:1039A0009102909192020E9471049093440C809332
:1039B000430C0E944A1067E976E081E090E00E94A3
:1039C000F80F882329F0DF91CF911F910F9108956F
:1039D000AE0147595F4FBE016C597F4F82E090E0C6
:1039E000DF91CF911F910F910C94201082E390E012
:1039F0000E94AA048DE092E00E944E078AE090E0C7
:103A00000E945E100E948C0781E40E94D20F80E029
:103A100090E0089588E290E00E94AA0484E190E09A
:103A20000E945E1082E40E94D20F80E090E0089530
:103A300084E190E00E94AA048DE092E00E944E078B
:103A40008AE090E00E945E100E948C0783E40E944E
:103A5000D20F80E090E008958AE090E00E94AA04EE
:103A60008DE092E00E944E0784E190E00E945E109B
:103A700085E092E00E944E078AE090E00E945E108E
:103A80000E948C078AE090E00E945E100E948C07E2
:103A900084E40E94D20F80E090E0089585E092E0F7
:103AA0000E944E078EE190E00E945E100E948C07FB
:103AB00085E40E94D20F80E090E0089585E092E0D6
:103AC0000E944E0788E290E00E945E100E948C07E0
:103AD0008AE090E00E945E1083E40E94D20F80E0B2
:103AE00090E0089584E190E00E94AA0488E290E0CA
:103AF0000E945E1082E40E94D20F80E090E0089560
:103B000088E290E00E94AA0485E092E00E944E07BD
:103B10008AE090E00E945E100E948C0781E40E947F
:103B2000D20F80E090E008950F931F9300913C0C1A
:103B300010913D0CF80144814F5F24ED3DE167E9B0
:103B400070E080918D0290918E020E94710490939A
:103B5000400C80933F0C0E942F0BFC01128D738D43
:103B6000612F0E945C0B812F0E94D20F0E942F0BAD
:103B7000FC01128D738D612F0E945C0B812F0E94BE
:103B8000D20F0E942F0BFC01128D738D612F0E94AA
:103B90005C0B812F0E94D20F67E976E081E090E014
:103BA0001F910F910C94F80FCF93DF93EC0161E418
:103BB00070E00E94080B62E470E0CE010E94080BE6
:103BC00063E470E0CE010E94080B80E090E0DF919A
:103BD000CF9108950F931F93CF93DF9300D0CDB76C
:103BE000DEB761E080912A02853009F060E081E073
:103BF00090E00E94E90F81112AC002E410E04FEF2B
:103C00005FEFB80189E192E00E94C80B61E0892B67
:103C100009F060E082E090E00E94E90F811117C096
:103C20000F5F1F4F0634110551F74FEF5FEF61E44F
:103C300070E089E192E00E941D0C61E0892B09F09F
:103C400060E083E090E00E94E90F882339F00F9054
:103C50000F90DF91CF911F910F91089541E050E0B7
:103C600068E570E089E192E00E94C80B61E001968E
:103C700009F060E084E090E00E94E90F8111E7CF55
:103C8000F89468E570E089E192E00E94CD0B7894A9
:103C900061E0019609F060E085E090E00E94E90FA4
:103CA0008111D5CF41E050E068E570E089E192E014
:103CB0000E941D0C61E0019609F060E086E090E052
:103CC0000E94E90F8111C3CFF89468E570E089E1A3
:103CD00092E00E94220C789461E0019609F060E085
:103CE00087E090E00E94E90F8111B1CFF89461E084
:103CF00080912A02811160E088E090E00E94E90F43
:103D000078948111A4CFF89461E0809125028530E8
:103D100009F060E089E090E00E94E90F7894811159
:103D200096CFF89461E020911F023091200280919B
:103D30001D0290911E022817390709F060E08AE001
:103D400090E00E94E90F7894811181CF05E010E0A6
:103D500006C089810E94D20F01501109A1F04FEFD6
:103D60005FEFBE016F5F7F4F89E192E00E94750CAB
:103D700061E0892B09F060E08BE090E00E94E90FA0
:103D8000882339F364CF68EC75E08CE090E00E9402
:103D9000F80F81115CCF4FEF5FEF67E470E089E1CE
:103DA00092E00E94C80B61E0892B09F060E08DE091
:103DB00090E00E94E90F81114ACF4FEF5FEFBE0103
:103DC0006F5F7F4F89E192E00E94750C61E0892B63
:103DD00009F060E08EE090E00E94E90F811137CF9A
:103DE00061E02091190230911A0280911D02909198
:103DF0001E022817390709F060E08FE090E00E946A
:103E0000E90F811124CF61E02091190230911A024B
:103E100080911F02909120022817390709F060E075
:103E200080E190E00E94E90F811111CF41E050E064
:103E3000BE016F5F7F4F89E192E00E94750C61E0E7
:103E4000019609F060E081E190E00E94E90F8111A4
:103E5000FECEF894BE016F5F7F4F89E192E00E9431
:103E60007A0C789461E0019609F060E082E190E0DC
:103E70000E94E90F8111EBCEF89461E080912A0253
:103E8000853009F060E083E190E00E94E90F7894CA
:103E90008111DDCEF89461E080912502811160E00E
:103EA00084E190E00E94E90F78948111D0CEF894DB
:103EB00061E020911F023091200280911D029091BB
:103EC0001E022817390709F060E085E190E00E94A2
:103ED000E90F78948111BBCEF89461E470E089E138
:103EE00092E00E94CD0B61E0892B09F060E086E151
:103EF00090E00E94E90F8111AACE62E470E089E1AE
:103F000092E00E94CD0B61E0892B09F060E087E12F
:103F100090E00E94E90F81119ACE63E470E089E19C
:103F200092E00E94CD0B61E0892B09F060E088E10E
:103F300090E00E94E90F81118ACE64E470E089E18B
:103F400092E00E94CD0B61E0892B09F060E089E1ED
:103F500090E00E94E90F81117ACE65E470E089E17A
:103F600092E00E94CD0B789461E0892B09F060E02B
:103F70008AE190E00E94E90F811169CE61E0209111
:103F80001F023091200280911D0290911E0228177D
:103F9000390709F060E08BE190E00E94E90F8111A0
:103FA00056CE05E010E0F894BE016F5F7F4F89E1C7
:103FB00092E00E947A0C789461E0892B09F060E02D
:103FC0008CE190E00E94E90F811141CE89810E942D
:103FD000D20F0150110939F768EC75E08DE190E0DE
:103FE0000E94F80F811133CEF89461E080912A028B
:103FF000853009F060E08EE190E00E94E90F78944E
:10400000811125CEF89461E080912502811160E054
:104010008FE190E00E94E90F7894811118CE61E061
:1040200020911F023091200280911D0290911E026A
:104030002817390709F060E080E290E00E94E90F5C
:10404000811105CEF89465E470E089E192E00E9468
:10405000220C61E0892B09F060E081E290E00E948F
:10406000E90F8111F4CD64E470E089E192E00E94EF
:10407000220C61E0892B09F060E082E290E00E946E
:10408000E90F8111E4CD63E470E089E192E00E94E0
:10409000220C61E0892B09F060E083E290E00E944D
:1040A000E90F8111D4CD62E470E089E192E00E94D1
:1040B000220C61E0892B09F060E084E290E00E942C
:1040C000E90F8111C4CD61E470E089E192E00E94C2
:1040D000220C789461E0892B09F060E085E290E0A1
:1040E0000E94E90F8111B3CD61E020911F02309150
:1040F000200280911D0290911E022817390709F0B5
:1041000060E086E290E00E94E90F8111A0CD05E019
:1041100010E0F894BE016F5F7F4F89E192E00E944A
:104120007A0C789461E0892B09F060E087E290E0F6
:104130000E94E90F81118BCD89810E94D20F01501D
:10414000110939F768EC75E088E290E00E94F80FF9
:1041500081117DCDF89461E080912A02853009F0CB
:1041600060E089E290E00E94E90F789481116FCDC0
:10417000F89461E080912502811160E08AE290E08C
:104180000E94E90F7894811162CD61E020911F02B5
:104190003091200280911D0290911E02281739074C
:1041A00009F060E08BE290E00E94E90F81114FCDB1
:1041B00089E192E00E947C0BF89461E080912A02F0
:1041C000853009F060E08CE290E00E94E90F78947D
:1041D00081113DCDF89461E080912502811160E06C
:1041E0008DE290E00E94E90F7894811130CDF8942F
:1041F00061E02091190230911A0280911D02909184
:104200001E022817390709F060E08EE290E00E9454
:10421000E90F789481111BCDF89461E02091190287
:1042200030911A0280911F029091200228173907BD
:1042300009F060E08FE290E00E94E90F789407CDEA
:1042400045E069E47CE089E192E00C94610B8FEF3A
:104250000C9492098FEF0C9492098FEF0C949209B1
:10426000CF92DF92EF92FF920F931F93CF93DF9342
:10427000CDB7DEB72C970FB6F894DEBF0FBECDBF1B
:1042800085E00E949F098FEF0E942C0A61E0813037
:1042900009F060E081E090E00E94E90F882379F066
:1042A0002C960FB6F894DEBF0FBECDBFDF91CF9135
:1042B0001F910F91FF90EF90DF90CF9008958FEFB7
:1042C0000E942C0A61E0843009F060E082E090E016
:1042D0000E94E90F8111E4CF8FEF0E94920961E003
:1042E000811123C183E090E00E94E90F8111D8CFB2
:1042F0000E948110E0902F0CF090300C00913C0C4B
:1043000010913D0CC0908D02D0908E02F801448136
:10431000415028EA32E267E970E0C6010E94710468
:104320009093400C80933F0C8FEF0E942C0A182F23
:10433000A701495C5F4FB7016E5C7F4F84E090E05E
:104340000E9420108111ACCF61E0113009F060E0D3
:1043500085E090E00E94E90F8111A2CF8FEF0E94CB
:10436000920961E0811160E086E090E00E94E90F2F
:10437000811196CF0E944A1085E00E949F098FEF1D
:104380000E944C0A61E0853009F060E087E090E02F
:104390000E94E90F811184CF8FEF0E94920961E0A2
:1043A000811160E088E090E00E94E90F811178CFF0
:1043B0000E948110E0902F0CF090300C00913C0C8A
:1043C00010913D0CF8014481415028EA32E267E93E
:1043D00070E0C6010E9471049093400C80933F0CE2
:1043E0008FEF0E944C0A182FA701495C5F4FB7015D
:1043F0006E5C7F4F89E090E00E942010811150CFC9
:1044000061E0113009F060E08AE090E00E94E90F7D
:10441000811146CF8FEF0E94920961E0811160E027
:104420008BE090E00E94E90F81113ACF0E944A1080
:104430008BE292E090932C0280932B028DE292E02B
:1044400090932E0280932D0241E0BE01695F7F4F61
:104450008BE292E00E946B0944E0BE016F5F7F4FE8
:104460008DE292E00E946B090E948110E0902F0C77
:10447000F090300CE0913C0CF0913D0C44814150A7
:1044800004EC15E027E932E267E970E0C6010E941A
:1044900071049093400C80933F0C85E00E94680A61
:1044A000A701495C5F4FB7016E5C7F4F8CE090E0E5
:1044B0000E9420108111F4CE8FEF0E94920961E0DA
:1044C000811160E08DE090E00E94E90F8111E8CE5B
:1044D0000E944A10BE01695F7F4F8BE292E00E940A
:1044E0007F09BE016F5F7F4F8DE292E00E947F09DE
:1044F00061E080912B0290912C028B52924009F046
:1045000060E08EE090E00E94E90F8111C9CE61E089
:1045100080912D0290912E028D52924009F060E020
:104520008FE090E00E94E90FBBCE60E0DBCE60E060
:104530008BE292E00E94F00982E390E00E94AA04DC
:1045400060E08DE292E00E94F00980E090E0089542
:10455000CF93DF93EC0182E390E00E94AA0461E034
:10456000CE010E94C80980E090E0DF91CF910895CC
:10457000CF93DF93CDB7DEB72C970FB6F894DEBF9D
:104580000FBECDBF8BE292E090932C0280932B0262
:1045900041E0BE01695F7F4F0E946B0942E0BE01AE
:1045A0006F5F7F4F8BE292E00E946B0961E0809128
:1045B0002B0290912C028B52924079F081E090E096
:1045C0000E94E90F882381F02C960FB6F894DEBF85
:1045D0000FBECDBFDF91CF91089560E081E090E004
:1045E0000E94E90F8111F0CFBE01695F7F4F8BE21E
:1045F00092E00E947F0961E080912B0290912C0251
:104600008B52924041F182E090E00E94E90F8111CB
:10461000DBCFBE016F5F7F4F8BE292E00E947F098C
:1046200061E080912B0290912C028B52924009F014
:1046300060E083E090E00E94E90F8111C5CF67E060
:104640008DE893E00E94FB0967E976E084E090E062
:104650000E94F80FB9CF60E0D6CF83E40C94D20F5C
:1046600082E40C94D20F81E40C94D20F60E070E0ED
:104670008FEF0E94840A61E0811160E081E090E0A8
:104680000E94E90F8111089560E070E08FEF0E94B1
:10469000B30A61E081113CC082E090E00E94E90F22
:1046A0008111F1CF60E070E08FEF0E94DF0A61E0DE
:1046B000811160E083E090E00E94E90F8111E3CF77
:1046C0006AE070E08FEF0E94840A61E0811128C0E7
:1046D00084E090E00E94E90F8111D5CF6AE070E09C
:1046E0008FEF0E94B30A61E0811160E085E090E005
:1046F0000E94E90F8111C7CF6AE070E08FEF0E943E
:10470000DF0A61E0811160E086E090E00C94E90F3F
:1047100060E082E090E00E94E90F8111B4CFC2CF47
:1047200060E0D6CF089548EC50E060E081E492E08C
:104730000E94200E80E090E008950F931F936091F7
:104740008D0270918E0200E010E022E933E244E035
:1047500050E081E492E00E94D80D1F910F910895DE
:1047600068EC70E08FE292E00E944F0D80E090E0F4
:1047700008950F931F9360918D0270918E0200E057
:1047800010E022E933E244E050E08FE292E00E9440
:10479000C20C1F910F9108950F931F93CF93DF9336
:1047A000F89420914B0230914C0280914D029091EF
:1047B0004E022817390709F451C060E081E090E00B
:1047C0000E94E90F789481113BC0C1E44FEF5FEF85
:1047D0006C2F81E492E00E94200ECF5FC534B1F7C8
:1047E000F89461E08091450290914602892B69F529
:1047F00082E090E00E94E90F7894811121C0C4E02A
:10480000D0E0F89481E492E00E945D0E78940E94DA
:10481000D20F2197B1F7F89420914B0230914C02BE
:1048200080914D0290914E022817390709F4FCC07F
:1048300060E083E090E00E94E90F78948823B9F06B
:10484000DF91CF911F910F91089560E082E090E099
:104850000E94E90F7894882391F2F2CF61E0809171
:10486000450290914602892B09F0A8CFA6CF6AEFA6
:1048700077E084E090E00E94F80F8111E1CFF89496
:1048800081E492E00E945D0E61E0039609F060E031
:1048900085E090E00E94E90F78948111D1CFC0911A
:1048A0008F02D091900220E030E048E050E0BE015D
:1048B00081E492E00E949E0E61E0049709F060E0BE
:1048C00086E090E00E94E90F8111BACFF89461E090
:1048D0008091450290914602892B09F060E087E0C3
:1048E00090E00E94E90F78948111AACFE0913C0CEE
:1048F000F0913D0C44814F5F00E010E023E933E28A
:1049000067E970E080918D0290918E020E9471049F
:104910009093400C80933F0CF894809149029091C1
:104920004A022091470230914802821B930B20914A
:10493000450230914602821B930B61E0049709F017
:1049400060E088E090E00E94E90F7894811178CFD0
:104950000E944A10F89481E492E00E94F20D78944B
:10496000F8948091490290914A0220914702309137
:104970004802821B930B61E0209145023091460270
:104980008217930709F060E089E090E00E94E90F48
:104990007894811155CF20E030E042E050E0BE0134
:1049A00081E492E00E949E0E61E0029709F060E0CF
:1049B0008AE090E00E94E90F811142CF20E030E0D0
:1049C00042E050E0BE0181E492E00E949E0E61E070
:1049D000029709F060E08BE090E00E94E90F8111FE
:1049E0002FCFF89461E08091450290914602892B87
:1049F00009F060E08CE090E00E94E90F789481116A
:104A00001FCF4AE050E060E081E492E00E94200E77
:104A100061E0019609F060E08DE090E0DF91CF91D8
:104A20001F910F910C94E90F61E0809145029091E4
:104A30004602892B09F0FDCEFBCE0F931F93CF9337
:104A4000DF93F89461E08091330290913402892BD6
:104A500009F060E081E090E00E94E90F7894811114
:104A60002BC0F89461E48FE292E00E94060D62E4AC
:104A70008FE292E00E94060D63E48FE292E00E94D2
:104A8000060D64E48FE292E00E94060D7894F8949B
:104A90002091390230913A0280913B0290913C0280
:104AA0002817390709F420C160E082E090E00E94F5
:104AB000E90F7894882329F0DF91CF911F910F910E
:104AC0000895F89460E08FE292E00E94060D61E0A4
:104AD000049609F060E083E090E00E94E90F78948A
:104AE0008111EACFC4E0D0E06FEF7FEF8FE292E078
:104AF0000E944F0D0E94D20F2197B1F7F89461E008
:104B00008091330290913402892B09F060E084E0B7
:104B100090E00E94E90F78948111CECF6AEF77E0A0
:104B200085E090E00E94F80F8111C6CFF89461E40F
:104B30008FE292E00E94060D62E48FE292E00E9412
:104B4000060D63E48FE292E00E94060D64E48FE2BA
:104B500092E00E94060D7894C0918F02D09190024D
:104B600020E030E048E050E0BE018FE292E00E9499
:104B7000860D61E0049709F060E086E090E00E9415
:104B8000E90F811199CFF89461E0809133029091FF
:104B90003402892B09F060E087E090E00E94E90F81
:104BA0007894811189CFF89461E48FE292E00E94B9
:104BB000060D62E48FE292E00E94060D63E48FE24C
:104BC00092E00E94060D64E48FE292E00E94060DDE
:104BD000789420E030E042E050E0BE018FE292E0C5
:104BE0000E94860D61E0029709F060E088E090E0A5
:104BF0000E94E90F811160CF20E030E042E050E0F8
:104C0000BE018FE292E00E94860D61E0029709F0FA
:104C100060E089E090E00E94E90F81114DCFF894A7
:104C200061E08091330290913402892B09F060E0B9
:104C30008AE090E00E94E90F789481113DCFF894CA
:104C400060E08FE292E00E94060D8FE292E00E9407
:104C5000DC0C7894F89461E08091330290913402F6
:104C6000892B09F060E08BE090E00E94E90F7894D6
:104C7000811122CFE0913C0CF0913D0C44814F5FBB
:104C800000E010E020EB33E267E970E080918D02F4
:104C900090918E020E9471049093400C80933F0C7F
:104CA000F89461E08091330290913402892B09F0ED
:104CB00060E08CE090E00E94E90F78948111FCCED6
:104CC0000E944A106AE070E08FE292E00E944F0D6D
:104CD00061E0019609F060E08DE090E0DF91CF9116
:104CE0001F910F910C94E90F61E080913302909134
:104CF0003402892B09F0D9CED7CE089508958AE2DF
:104D000098E00E94920F6FEE70E080E090E00E94C9
:104D1000190F87E398E00E94AB0F8EE398E00E94A2
:104D2000920F60E270E080E090E00E94190F87E34C
:104D300098E00E94AB0F8BE498E00E94920F6AE02B
:104D400070E080E090E00E94190F87E398E00E94F5
:104D5000AB0F88E598E00E94920F65E070E080E07C
:104D600090E00E94190F87E398E00E94AB0F85E660
:104D700098E00E94920F62E070E080E090E00E9474
:104D8000190F87E398E00E94AB0F82E798E00E943A
:104D9000920F66E070E080E090E00E94190F87E3D8
:104DA00098E00E94AB0F8FE798E00E94920F68E0B6
:104DB00070E080E090E00E94190F87E398E00E9485
:104DC000AB0F8CE898E00E94920F64E070E080E006
:104DD00090E00E94190F87E398E00E94AB0F89E9E9
:104DE00098E00E94920F62E170E080E090E00E9403
:104DF000190F87E398E00E94AB0F86EA98E00E94C3
:104E0000920F62E170E080E090E00E94190F87E36A
:104E100098E00C94AB0FCF92DF92EF92FF920E943A
:104E2000811088EE93E00E948B10C12CD12C76016A
:104E30008BE29BE00E944E070E948C078BE29BE076
:104E40000E944E070E948C078BE29BE00E944E0757
:104E50000E948C078BE29BE00E944E070E948C0709
:104E60008FEFC81AD80AE80AF80A80913E0C882306
:104E7000F9F283EB98E00E94920FC701B601660F2A
:104E8000771F881F991F660F771F881F991F0E9421
:104E9000190F80EC98E0FF90EF90DF90CF900C948A
:104EA000AB0F8BE29BE00C94860604C080EF9AE087
:104EB0000E949C05E0913C0CF0913D0C868582FFA0
:104EC000F5CF80E090E00895CF92DF92EF92FF92CD
:104ED0000E94811088EE93E00E948B10C12CD12C8F
:104EE000760180EF9AE00E949C0580EF9AE00E9494
:104EF000D60580EF9AE00E949C0580EF9AE00E9420
:104F0000D60580EF9AE00E949C0580EF9AE00E940F
:104F1000D60580EF9AE00E949C0580EF9AE00E94FF
:104F2000D6058FEFC81AD80AE80AF80A80913E0C15
:104F30008823B9F283EB98E00E94920FC701B60173
:104F4000660F771F881F991F660F771F881F991F8D
:104F50000E94190F8FEC98E0FF90EF90DF90CF90B8
:104F60000C94AB0F61E080EF9AE00C94370560E0A1
:104F700080EF9AE00C943705CF92DF92EF92FF9288
:104F80000E94811088EE93E00E948B10C12CD12CDE
:104F90007601F89420E030E04EE756E261E070E000
:104FA00087E19BE00E94A30120E030E04EE756E25B
:104FB00060E177E281E29BE00E94A30187E19BE050
:104FC0000E94DF0181E29BE00E94DF0178948FEF75
:104FD000C81AD80AE80AF80A80913E0C8823C9F258
:104FE00083EB98E00E94920FC701B601660F771F0E
:104FF000881F991F0E94190F8EED98E0FF90EF9087
:10500000DF90CF900C94AB0FCF92DF92EF92FF9294
:105010000F931F9300E010E020E030E040E150E00B
:1050200067E07BE085EF9AE00E94C20C0E9481104D
:1050300088EE93E00E948B10C12CD12C7601F8945D
:1050400060E085EF9AE00E94060D61E085EF9AE04E
:105050000E94060D62E085EF9AE00E94060D63E073
:1050600085EF9AE00E94060D78946FEF7FEF85EF51
:105070009AE00E944F0D6FEF7FEF85EF9AE00E945C
:105080004F0D6FEF7FEF85EF9AE00E944F0D6FEFAE
:105090007FEF85EF9AE00E944F0D8FEFC81AD80A74
:1050A000E80AF80A80913E0C882349F283EB98E0E5
:1050B0000E94920FC701B601660F771F881F991FC4
:1050C000660F771F881F991F0E94190F88EE98E0BE
:1050D0001F910F91FF90EF90DF90CF900C94AB0F4A
:1050E000BF92CF92DF92EF92FF920F931F93CF93D5
:1050F000DF93C0918D02D0918E02E0913C0CF09133
:105100003D0CB480B3940E94811088EE93E00E941D
:105110008B10C12CD12C760100E010E02DE736E297
:105120004B2D67E970E0CE010E9471048FEFC81A21
:10513000D80AE80AF80A80913E0C882369F383EBC9
:1051400098E00E94920FC701B6010E94190F81EFEB
:1051500098E0DF91CF911F910F91FF90EF90DF903A
:10516000CF90BF900C94AB0F0F931F93CF93DF930F
:1051700000D000D0CDB7DEB719821A821B821C8204
:105180000E948110E0913C0CF0913D0C4481415013
:105190008E010F5F1F4F24E539E267E970E08091CF
:1051A0008D0290918E020E9471049093400C809326
:1051B0003F0CE0913C0CF0913D0C448141508E013C
:1051C0000F5F1F4F24E539E267E970E080918F029D
:1051D000909190020E9471049093420C8093410C34
:1051E000E0913C0CF0913D0C448141508E010F5FE9
:1051F0001F4F24E539E267E970E0809191029091B8
:1052000092020E9471049093440C8093430CE091AD
:105210003C0CF0913D0C448141508E010F5F1F4FBB
:1052200024E539E267E970E080919302909194025D
:105230000E9471049093460C8093450CE0913C0CC5
:10524000F0913D0C448141508E010F5F1F4F24E5CA
:1052500039E267E970E080919502909196020E9490
:1052600071049093480C8093470C88EE93E00E9461
:10527000AA040E9439100E944A1083EB98E00E9411
:10528000920F69817A818B819C810E94190F8CEF2A
:1052900098E00E94AB0F0F900F900F900F90DF914E
:1052A000CF911F910F910895CF93DF93EC010E944E
:1052B000BF040E94BF040E94BF040E94BF04488133
:1052C00059816A817B814C5F5F4F6F4F7F4F48836D
:1052D00059836A837B83E0913C0CF0913D0C868579
:1052E00082FFE5CF80E090E0DF91CF910895CF92EB
:1052F000DF92EF92FF920F931F93E0913C0CF0919D
:105300003D0C44814B5F00E010E025E537E267E9A2
:1053100070E080918D0290918E020E9471049093B2
:10532000400C80933F0CE0913C0CF0913D0C44818B
:105330004C5F25E537E267E970E080918F0290913C
:1053400090020E9471049093420C8093410CE09172
:105350003C0CF0913D0C44814D5F25E537E267E957
:1053600070E080919102909192020E94710490935A
:10537000440C8093430CE0913C0CF0913D0C448133
:105380004E5F25E537E267E970E0809193029091E6
:1053900094020E9471049093460C8093450CE09116
:1053A0003C0CF0913D0C44814F5F25E537E267E905
:1053B00070E080919502909196020E947104909302
:1053C000480C8093470C0E94811088EE93E00E9465
:1053D0008B10C12CD12C760160E080EF9AE00E9406
:1053E00065058FEFC81AD80AE80AF80A80913E0CC2
:1053F000882391F30E94391060E080EF9AE00E94C8
:1054000065050E944A1083EB98E00E94920FC70145
:10541000B6010E94190F86E099E00E94920FC70121
:10542000B601660F771F881F991F6C0D7D1D8E1D9D
:105430009F1D660F771F881F991F0E94190F8CEF01
:1054400098E01F910F91FF90EF90DF90CF900C9418
:10545000AB0FBF92CF92DF92EF92FF920F931F9309
:10546000CF93DF93C0918D02D0918E02E0913C0CDE
:10547000F0913D0CB480BA940E94811088EE93E0C4
:105480000E948B10C12CD12C760100E010E02DE79A
:1054900036E24B2D67E970E0CE010E9471040E9454
:1054A00008058FEFC81AD80AE80AF80A80913E0C5E
:1054B000882359F383EB98E00E94920FC701B6014D
:1054C0000E94190F81EF98E0DF91CF911F910F910A
:1054D000FF90EF90DF90CF90BF900C94AB0FCF92E6
:1054E000DF92EF92FF920F931F93CF93DF93E091A0
:1054F0003C0CF0913D0C44814F5F00E010E02CE249
:105500003CE267E970E080918D0290918E020E94EA
:105510007104EC019093400C80933F0C0E94811029
:1055200088EE93E00E948B10C12CD12C7601F89468
:1055300060E070E0CE010E94F40260E070E0CE0115
:105540000E94F40260E070E0CE010E94F40260E08C
:1055500070E0CE010E94F402789484E0C80ED11C61
:10556000E11CF11C80913E0C882309F3F8946FEF45
:105570007FEFCE010E94F40278940E944A1083EBE0
:1055800098E00E94920FC701B601660F771F881F2F
:10559000991F0E94190F8CEF98E0DF91CF911F9116
:1055A0000F91FF90EF90DF90CF900C94AB0FCF92C4
:1055B000DF92EF92FF92CF93DF93EC010E94811074
:1055C00088EE93E00E948B10C12CD12C760161E013
:1055D00070E0CE010E94080B8FEFC81AD80AE80AC3
:1055E000F80A80913E0C882391F360E070E0CE01D0
:1055F0000E94080BC601DF91CF91FF90EF90DF90E2
:10560000CF900895CF92DF92EF92FF920F931F9366
:10561000CF93DF93E0913C0CF0913D0C44814F5FC0
:1056200000E010E02BE13CE267E970E080918D0240
:1056300090918E020E947104CFE3DCE0998388830D
:10564000E0913C0CF0913D0C448142502DE736E254
:1056500067E970E080918F02909190020E9471043E
:105660009093420C8093410CE0913C0CF0913D0CE6
:10567000448143502DE736E267E970E08091910262
:10568000909192020E9471049093440C8093430C79
:10569000E0913C0CF0913D0C448144502DE736E202
:1056A00067E970E080919302909194020E947104E6
:1056B0009093460C8093450CE0913C0CF0913D0C8E
:1056C000448145502DE736E267E970E0809195020C
:1056D000909196020E9471049093480C8093470C1D
:1056E000888199810E94D72A6C01E12CF12C0E94BB
:1056F0004A1083EB98E00E94920FC701B6010E9406
:10570000190F87E199E00E94920FC701B601660F59
:10571000771F881F991F0E94190F8CEF98E0DF9167
:10572000CF911F910F91FF90EF90DF90CF900C944D
:10573000AB0FCF92DF92EF92FF920F931F93E09106
:105740003C0CF0913D0C44814F5F00E010E02BE1F8
:105750003CE267E970E080918D0290918E020E9498
:1057600071049093400C80933F0C0E94D72A6C01E7
:10577000E12CF12C0E944A1083EB98E00E94920FDA
:10578000C701B6010E94190F87E199E00E94920FAC
:10579000C701B601660F771F881F991F0E94190F56
:1057A0008CEF98E01F910F91FF90EF90DF90CF90DA
:1057B0000C94AB0FCF92DF92EF92FF920F931F9357
:1057C000E0913C0CF0913D0C4481415000E010E030
:1057D0002BE13CE267E970E080918D0290918E02AE
:1057E0000E9471049093400C80933F0C0E94D72A32
:1057F0006C01E12CF12C0E944A1083EB98E00E948E
:10580000920FC701B6010E94190F87E199E00E942B
:10581000920FC701B601660F771F881F991F0E945C
:10582000190F8CEF98E01F910F91FF90EF90DF9090
:10583000CF900C94AB0FCF93DF930E942F0BFC0102
:10584000C28DD38DBE010E945C0BCD2BB1F780E0E1
:1058500090E0DF91CF910895CF93DF93C0913C0CFE
:10586000D0913D0CF89482E00E949A028A899B892B
:10587000892BC9F3789480E090E0DF91CF9108956F
:105880000E94352D86E494E00E946A2D0E94A02C8F
:105890000C941E2FFC01A081B1812C9130E003807B
:1058A00002C0359527950A94E2F7828182230895F4
:1058B000FC01A081B18112963C91129782812381D3
:1058C0006823022E01C0660F0A94EAF7022E01C077
:1058D000880F0A94EAF780958323862B12968C937F
:1058E0000895FC01462F8281682F70E0038002C07A
:1058F000660F771F0A94E2F7808191810C94A02DA6
:1059000005960C94860D2FEF3FEF05960C94860DAF
:1059100047960C949E0E2FEF3FEF47960C949E0EE9
:1059200005960C944F0D6FEF7FEF05960C944F0D7D
:1059300047960C94200E4FEF5FEF47960C94200E85
:105940000C94472EEF92FF920F931F93CF93DF9308
:10595000EC019B017A01FC0183E394E08193919334
:10596000FB83EA8381E08C83BE01675D7F4F8E01FC
:1059700040E150E0CE0105960E94C20CBE01675C7A
:105980007F4F970140E150E0CE0147960E94D80D2D
:10599000DF91CF911F910F91FF90EF900895CF93DA
:1059A000DF93EC01F8940E944F2E82E08C83789470
:1059B000DF91CF910895CF93DF93EC01F8940E948B
:1059C000852E81E08C83CE0147960E94F20DCE0198
:1059D00005960E94DC0C0E94D2037894DF91CF914F
:1059E00008951F93CF93DF93EC01162F89859A8535
:1059F000892B59F0612FCE0105960E94060D97FD67
:105A000010C0DF91CF911F91089564E0CE010296FE
:105A10000E94CF09612FCE0105960E94060D97FFC7
:105A2000F0CF60E8CE010296DF91CF911F910C94E8
:105A3000CF090F931F93CF93DF938C0147960E945A
:105A40005D0EEC0197FD06C0CE01DF91CF911F9155
:105A50000F91089568E0C80102960E94CF09CE0117
:105A6000DF91CF911F910F910895CF93109269000C
:105A700010926A001DBAC2E0C4BD15BC25E048E61C
:105A800052E06DE672E088EE93E00E94902E95B5AC
:105A9000987F95BD95B5E82FF0E0DF01A859BD4F7F
:105AA0008C918770892B85BDEE0FFF1FE359FD4F49
:105AB0002081318140E050E060E87EE380E090E0CA
:105AC0000E94EA32215027BD16BCC5BBC0936E00B0
:105AD000CF910895FC01808182B9818181B9828151
