:100000000C9477010C94946B0C94CA6B0C949F0124
:100010000C949F010C949F010C949F010C948D6A89
:100020000C949F010C949F010C949F010C948F22BF
:100030000C949F010C949F010C94F18B0C949F01E4
:100040000C944C7D0C949F010C948A530C94E853AF
:100050000C949F010C949F010C949F010C949F01A0
:100060000C948E030C949F01CD04D204D204D204CC
:10007000D204D204D204D204BF03D204D204D204E4
:10008000D204D204D204D204BF03D204D204D204D4
:10009000D204D204D204D204C903D204D204D204BA
:1000A000D204D204D204D204F503D204D204D2047E
:1000B000D204D204D204D204C903D204D204D2049A
:1000C000D204D204D204D204FB03D204D204D20458
:1000D000D204D204D204D2040104D204D204D20441
:1000E000D204D204D204D2041704D204D204D2041B
:1000F000D204D204D204D2044704D204D204D204DB
:10010000D204D204D204D2040704D204D204D2040A
:10011000D204D204D204D2042504D204D204D204DC
:10012000D204D204D204D2044A04D204D204D204A7
:10013000D204D204D204D2044A04D204D204D20497
:10014000D204D204D204D2044A04D204D204D20487
:10015000D204D204D204D2044A04D204D204D20477
:10016000D204D204D204D2045304D204D204D2045E
:10017000D204D204D204D2048F04D204D204D20412
:10018000D204D204D204D2045304D204D204D2043E
:10019000D204D204D204D2048F04D204D204D204F2
:1001A000D204D204D204D2046F04D204D204D20402
:1001B000D204D204D204D2049304D204D204D204CE
:1001C000D204D204D204D2049304D204D204D204BE
:1001D000D204D204D204D204A904D204D204D20498
:1001E000D204D204D204D204C704D204D204D2046A
:1001F000D204D204D204D204C704D204D204D2045A
:10020000D204D204D204D204D204D204D204D2043E
:10021000D204D204D204D204D204D204D204D2042E
:10022000D204D204D204D204D204D204D204D2041E
:10023000D204D204D204D204D204D204D204D2040E
:10024000D204D204D204D204D204D204D204D204FE
:10025000D204D204D204D204D2040200000000244A
:100260000027002A0000000000250028002B0000C5
:1002700000000023002600290004040404040404F0
:100280000402020202020203030303030301020445
:100290000810204080010204081020010204081008
:1002A0002000000007000201000003040600000017
:1002B000000000000044696500436F756E743A20C9
:1002C000002C20556E7573656420537461636B3A1E
:1002D0002000E60789157118431CF11DF62E024215
:1002E000CE46104AB44DC84F48537C591E5B11246A
:1002F0001FBECFEFD8E0DEBFCDBF15E0A0E0B1E07C
:10030000E4EDF4E602C005900D92A63CB107D9F7E2
:1003100019E0A6ECB5E001C01D92A23BB107E1F7E0
:1003200012E0CEEED2E004C02297FE010E94EDADB5
:10033000C23DD107C9F70E94BF7C0C9468B20C94EF
:100340000000CF93DF93CDB7DEB71092C60581E0F2
:100350008093C8051092C9058091560261E00E9401
:1003600098818091570261E00E94988189EB90E02A
:1003700029EB30E0F90120812E7FFC01208389EBFD
:1003800090E029EB30E0F90120812D7FFC012083F2
:1003900088EB90E028E4FC0120838CEB90E025E4DE
:1003A000FC012083DF91CF910895CF93DF931F92BB
:1003B000CDB7DEB789838AEB90E02981220FFC015B
:1003C00020830F90DF91CF910895CF93DF9300D0DA
:1003D00000D000D0CDB7DEB78A837C836B834D839A
:1003E0002E838D81813210F080E064C0000001C056
:1003F00000008091C6058823D9F781E08093C60567
:100400008E818093C8058FEF809333061092EE059E
:100410008D8181508093EF0581E08093C7058A81AB
:10042000882F90E0880F991F982F8091C705892BFE
:100430008093C7058091C905813071F41092C90578
:100440008BEB90E02091C705FC0120838CEB90E0C2
:1004500025ECFC01208305C08CEB90E025EEFC012F
:100460002083000001C000008091C6058130D9F3CF
:100470009091EE058D81981718F48091EE058D838B
:10048000198213C08981882F90E02B813C81820FD3
:10049000931F2981222F30E022533A4FF901208106
:1004A000FC01208389818F5F898399818D819817D1
:1004B00048F38D8126960FB6F894DEBF0FBECDBFF0
:1004C000DF91CF9108950F93CF93DF93CDB7DEB730
:1004D00027970FB6F894DEBF0FBECDBF8A837C830B
:1004E0006B834D832E830F838D81813210F081E0E9
:1004F0006EC0000001C000008091C6058823D9F7B6
:1005000082E08093C6058F818093C8058FEF80932A
:1005100033061092EE058D818093EF05198213C08A
:100520008981882F90E02981222F30E04B815C81E6
:10053000240F351FF901208182539A4FFC0120833B
:1005400089818F5F898399818D81981748F31092F3
:10055000C7058A81882F90E0880F991F982F809176
:10056000C705892B8093C7058091C905813071F437
:100570001092C9058BEB90E02091C705FC01208308
:100580008CEB90E025ECFC01208307C08CEB90E025
:1005900025EEFC01208301C000008E81882321F01C
:1005A0008091C6058230C1F3809133068F3F11F4EC
:1005B00080E00DC080913306803211F482E007C0E4
:1005C00080913306803311F483E001C084E02796E4
:1005D0000FB6F894DEBF0FBECDBFDF91CF910F9164
:1005E0000895CF93DF9300D000D0CDB7DEB79B83C3
:1005F0008A836C838C81813210F081E023C08091EA
:10060000C605843011F082E01DC08C8180931106F4
:10061000198213C08981882F90E02981222F30E030
:100620004A815B81240F351FF901208180519A4F47
:10063000FC01208389818F5F898399818C81981740
:1006400048F380E00F900F900F900F90DF91CF91C3
:100650000895CF93DF9300D0CDB7DEB79A83898317
:1006600089819A819093CD058093CC050F900F904E
:10067000DF91CF910895CF93DF9300D0CDB7DEB750
:100680009A83898389819A819093CB058093CA0547
:100690000F900F90DF91CF910895CF93DF931F922A
:1006A000CDB7DEB789838981882331F08CEB90E068
:1006B00025ECFC01208305C08CEB90E025E8FC01D3
:1006C00020830F90DF91CF910895CF93DF93CDB723
:1006D000DEB78CEB90E025EDFC012083000001C02B
:1006E00000008CEB90E0FC018081882F90E080710D
:1006F00099270097A9F71092C605DF91CF91089529
:10070000CF93DF93CDB7DEB78CEB90E025ECFC0107
:1007100020831092C605DF91CF9108951F920F920A
:1007200000905F000F9211242F933F934F935F939C
:100730006F937F938F939F93AF93BF93EF93FF93A9
:10074000CF93DF93CDB7DEB789EB90E0FC018081DA
:10075000882F90E0887F9927AA2797FDA095BA2F28
:1007600040E050E028EF30E0841B950B2817390754
:1007700008F418C18C5C9F4FFC010C94EBAD8BEB23
:1007800090E02091C705FC01208381E00E944D0389
:1007900009C19091EE058091EF059817A0F48BEBBD
:1007A00090E04091EE05242F30E022533A4FF901BA
:1007B0002081FC012083842F8F5F8093EE0581E0F0
:1007C0000E944D03EFC08091C805882319F00E9454
:1007D0006503E8C081E08093C9058CEB90E024EAD2
:1007E000FC0120831092C605DDC080E280933306B1
:1007F0000E946503D7C080E3809333060E9465039F
:10080000D1C088E3809333060E948003CBC040911F
:10081000EE05842F90E02BEB30E0F901208182532C
:100820009A4FFC012083842F8F5F8093EE05909177
:10083000EE058091EF05981720F481E00E944D03AA
:10084000B1C080E00E944D03ADC04091EE05842F01
:1008500090E02BEB30E0F901208182539A4FFC01AC
:100860002083842F8F5F8093EE058091C8058823B5
:1008700019F00E94650396C081E08093C9058CEB56
:1008800090E024EAFC0120831092C6058BC00E94F0
:10089000650388C083E08093C6051092320681E02C
:1008A0000E944D037FC0809132068032A0F44091B7
:1008B0003206842F90E02BEB30E0F90120818E5E30
:1008C000994FFC012083842F8F5F8093320681E053
:1008D0000E944D0367C080E00E944D0363C0809179
:1008E0003206803240F480913206882F90E08E5E8E
:1008F000994FFC0110820E9465032091CC05309134
:10090000CD0580913206882F90E0BC0182E196E00F
:10091000F9010995109232060E94800343C080E0DD
:100920000E944D033FC084E08093C60510921006DC
:10093000109211068091CA059091CB05FC01099592
:1009400080911106882329F481E08093110610928A
:10095000F0058BEB90E040911006242F30E0205101
:100960003A4FF9012081FC012083842F8F5F80930F
:1009700010069091100680911106981720F481E0DE
:100980000E944D030FC080E00E944D030BC081E028
:100990000E944D031092C60505C0109233060E94B6
:1009A00065030000DF91CF91FF91EF91BF91AF916F
:1009B0009F918F917F916F915F914F913F912F9177
:1009C0000F9000925F000F901F901895CF93DF93C8
:1009D00000D0CDB7DEB79A83898389819A810E943E
:1009E00099A589819A812BEC34E0FC013183208325
:1009F0000F900F90DF91CF910895CF93DF9300D0A8
:100A0000CDB7DEB79A8389831092540610925506AB
:100A100010927706109278060E94A1010F900F9015
:100A2000DF91CF910895CF93DF9300D01F92CDB780
:100A3000DEB79A8389836B838B810E94D5018FE710
:100A400097E00E943B038EE297E00E942903898190
:100A50009A810E94FD040F900F900F90DF91CF912B
:100A60000895CF93DF9300D000D0CDB7DEB79A833F
:100A700089837C836B832B8189819A81622F0E9479
:100A800013050F900F900F900F90DF91CF91089565
:100A9000CF93DF9300D000D000D0CDB7DEB79B83DB
:100AA0008A836C834D832E838D81813210F080E2A6
:100AB0008D832E814D8164E376E08C810E94E50177
:100AC00089831092540689818093550689812696E0
:100AD0000FB6F894DEBF0FBECDBFDF91CF91089562
:100AE000CF93DF9300D000D0CDB7DEB79A83898350
:100AF0006B834C8389819A8121E04C816B810E94B8
:100B000048050F900F900F900F90DF91CF910895AF
:100B1000CF93DF9300D000D000D0CDB7DEB79A835B
:100B200089837C836B835E834D834D813B81898187
:100B30009A8121E0632F0E94480526960FB6F8940B
:100B4000DEBF0FBECDBFDF91CF910895CF93DF936E
:100B5000CDB7DEB728970FB6F894DEBF0FBECDBF76
:100B60009A8389837C836B835E834D8338872F834D
:100B70002F814D813B8189819A81632F0E94480595
:100B800028960FB6F894DEBF0FBECDBFDF91CF9190
:100B90000895CF93DF9300D01F92CDB7DEB79A832D
:100BA00089836B8381E0809379068B8180935606DD
:100BB00010927706109278060F900F900F90DF91A9
:100BC000CF910895CF93DF9300D000D0CDB7DEB79B
:100BD0009A8389837C836B832B8189819A81622F9D
:100BE0000E94C9050F900F900F900F90DF91CF9149
:100BF00008950F93CF93DF9300D000D0CDB7DEB729
:100C00009B838A836C8390917806809156060C8131
:100C100021E0492F67E576E00E9463028983109204
:100C20007706109278061092790689810F900F90BE
:100C30000F900F90DF91CF910F910895CF93DF9395
:100C400000D0CDB7DEB79A83898389819A8161E02C
:100C50000E94F9050F900F90DF91CF910895CF93E7
:100C6000DF9300D01F92CDB7DEB79A8389836B8361
:100C700080917906882301F180917806803248F0CE
:100C800089819A8161E070E00E9469A580E090E02E
:100C90001AC080917706882F90E02B81895A994F4E
:100CA000FC012083809177068F5F80937706809187
:100CB00077068093780605C0CE01039661E00E9416
:100CC000F10281E090E00F900F900F90DF91CF91B3
:100CD0000895CF93DF93CDB7DEB728970FB6F8947A
:100CE000DEBF0FBECDBF9C838B837E836D83588711
:100CF0004F8380917906882349F11A8219821AC09C
:100D00008B819C81FC0180819181FC01208131815A
:100D10004D815E8189819A81840F951FFC014081FC
:100D20008B819C81642FF901099589819A810196B3
:100D30009A83898341E029813A818F819885281798
:100D4000390708F040E04423D9F606C02F818D8191
:100D50009E81622F0E94F1028F81988528960FB69E
:100D6000F894DEBF0FBECDBFDF91CF910895CF9332
:100D7000DF9300D0CDB7DEB79A8389838091550683
:100D8000282F30E080915406882F90E0A901481B5D
:100D9000590BCA010F900F90DF91CF910895CF9317
:100DA000DF9300D000D0CDB7DEB79C838B838FEF6D
:100DB0009FEF9A83898390915406809155069817E6
:100DC00088F480915406882F90E08C5C994FFC0148
:100DD0008081882F90E09A838983809154068F5F69
:100DE0008093540689819A810F900F900F900F90F5
:100DF000DF91CF910895CF93DF9300D000D0CDB78E
:100E0000DEB79C838B838FEF9FEF9A8389839091CA
:100E1000540680915506981760F480915406882FE7
:100E200090E08C5C994FFC018081882F90E09A8340
:100E3000898389819A810F900F900F900F90DF9195
:100E4000CF910895CF93DF9300D0CDB7DEB79A83CB
:100E500089830F900F90DF91CF910895CF93DF9307
:100E600000D000D01F92CDB7DEB79B838A837D83ED
:100E70006C8380917C0690917D060097A9F19091FA
:100E8000540680915506981788F1198213C08981FC
:100E9000882F90E02981222F30E04A815B81240F46
:100EA000351FF90120818C5C994FFC0120838981D9
:100EB0008F5F89838981282F30E041E08C819D817B
:100EC000281739070CF040E0442309F71092540624
:100ED0008C818093550620917C0630917D068C8113
:100EE0009D81F901099503C0000001C000000F9029
:100EF0000F900F900F900F90DF91CF910895CF93A7
:100F0000DF93CDB7DEB780917A0690917B0600978C
:100F100059F0109277061092780680917A06909197
:100F20007B06FC01099501C00000DF91CF91089577
:100F3000CF93DF9300D000D0CDB7DEB79A838983FB
:100F40007C836B838B819C8190937D0680937C0650
:100F50000F900F900F900F90DF91CF910895CF9346
:100F6000DF9300D000D0CDB7DEB79A8389837C832E
:100F70006B838B819C8190937B0680937A060F9084
:100F80000F900F900F90DF91CF910895CF93DF9343
:100F900000D000D0CDB7DEB79A8389837C836B8382
:100FA00089819A818130910551F48B819C818F3F99
:100FB0002FEF920721F48EE796E00E94E6040F904F
:100FC0000F900F900F90DF91CF910895CF93DF9303
:100FD000CDB7DEB76FEF7FEF81E090E00E94C607EC
:100FE000DF91CF910895CF93DF9300D000D01F926F
:100FF000CDB7DEB79C838B836D830E94600C0E940B
:10100000700B62E088E20E94C1108B819C8160E0DD
:101010000E94A010CE01059641E061E00E94B40F4D
:101020000E94600C19821A82CE0102969C01CE01A8
:101030000196AC0161E088E20E94990C0E947B0B52
:101040000F900F900F900F900F90DF91CF91089518
:10105000CF93DF93CDB7DEB729970FB6F894DEBFF5
:101060000FBECDBF6B837C838D839E8358874F8358
:1010700029870E94600C0E94700B63E08DE20E9441
:10108000C110CE01039640E064E00E94B40F8F814E
:10109000988560E00E94A010CE01099641E061E0D1
:1010A0000E94B40F0E94600C19821A82CE0102962F
:1010B0009C01CE010196AC0161E08DE20E94990C89
:1010C0000E947B0B29960FB6F894DEBF0FBECDBFF2
:1010D000DF91CF910895CF93DF9300D01F92CDB7CA
:1010E000DEB78B830E94600C0E94700B61E08EE281
:1010F0000E94C110CE01039641E061E00E94B40F4E
:101100000E94600C19821A82CE0102969C01CE01C7
:101110000196AC0161E08EE20E94990C0E947B0B6B
:101120000F900F900F90DF91CF910895CF93DF93A1
:1011300000D01F92CDB7DEB78B830E94600C0E9457
:10114000700B61E089E20E94C110CE01039641E07C
:1011500061E00E94B40F0E94600C19821A82CE01D5
:1011600002969C01CE010196AC0161E089E20E94E9
:10117000990C0E947B0B89810F900F900F90DF914B
:10118000CF910895CF93DF9300D01F92CDB7DEB7F4
:101190008B830E94600C0E94700B61E08FE20E94C2
:1011A000C110CE01039641E061E00E94B40F0E949D
:1011B000600C19821A82CE0102969C01CE01019622
:1011C000AC0161E08FE20E94990C0E947B0B898147
:1011D0000F900F900F90DF91CF910895CF93DF93F1
:1011E00000D01F92CDB7DEB78B830E94600C0E94A7
:1011F000700B61E08BE20E94C110CE01039641E0CA
:1012000061E00E94B40F0E94600C19821A82CE0124
:1012100002969C01CE010196AC0161E08BE20E9436
:10122000990C0E947B0B8A81882331F0998181E09F
:10123000913009F080E001C080E00F900F900F9096
:10124000DF91CF910895CF93DF9300D000D000D0ED
:10125000CDB7DEB78B837D836C834E830E94600C99
:101260000E94700B62E08CE20E94C110CE010396D6
:1012700040E061E00E94B40F8E81882F90E061E031
:101280000E94A0100E94600C19821A82CE01029660
:10129000AC01CE010196BC018CE20E947E0D0E9441
:1012A0007B0B8A81882339F029818C819D81FC0107
:1012B000208381E001C080E026960FB6F894DEBF5F
:1012C0000FBECDBFDF91CF910895CF93DF9300D0B4
:1012D00000D01F92CDB7DEB789837B836A835D839D
:1012E0004C830E94600C0E94700B61E085E40E94B8
:1012F000C11041E061E070E0CE0101960E945F10F4
:101300000E94600C2C813D818A819B81A901BC01D6
:1013100085E40E940D0D0E947B0B8C819D81FC0158
:1013200080819181009711F081E001C080E00F90F1
:101330000F900F900F900F90DF91CF910895CF9362
:10134000DF93CDB7DEB727970FB6F894DEBF0FBE99
:10135000CDBF8B837D836C835F834E830E94600C43
:101360000E94700B62E084E40E94C110CE010396DB
:1013700040E061E070E00E945F102E813F818C812F
:101380009D8141E0B9010E945F100E94600C1982AA
:101390001A82CE010296AC01CE010196BC0184E412
:1013A0000E947E0D0E947B0B8A81882331F09981F7
:1013B00081E0913019F080E001C080E027960FB6FF
:1013C000F894DEBF0FBECDBFDF91CF910895CF93CC
:1013D000DF93CDB7DEB727970FB6F894DEBF0FBE09
:1013E000CDBF8F8389E190E09C838B831A82198221
:1013F0001D821E820E94600C0E94700B61E08AE2D6
:101400000E94C110CE01079641E061E00E94B40F36
:101410000E94600C9E012A5F3F4FCE010596AC01F1
:1014200061E08AE20E94990C0E947B0B8D818823E7
:1014300019F01A8219820BC089819A8101969A83C8
:10144000898364E670E080E090E00E94497E8D81AF
:10145000882339F489819A818931910510F481E0DA
:1014600001C080E0882331F621E089819A818931A9
:10147000910509F420E0822F27960FB6F894DEBF7D
:101480000FBECDBFDF91CF910895CF93DF931F9211
:10149000CDB7DEB7898380E090E00F90DF91CF91E8
:1014A0000895CF93DF9300D0CDB7DEB79A838983B9
:1014B0000F900F90DF91CF910895CF93DF9300D0DD
:1014C00000D000D0CDB7DEB79A8389837C836B834D
:1014D0005E834D8380E026960FB6F894DEBF0FBE84
:1014E000CDBFDF91CF910895CF93DF9300D0CDB7DB
:1014F000DEB79A8389830F900F90DF91CF91089583
:10150000CF93DF9300D0CDB7DEB79A83898380E095
:101510000F900F90DF91CF910895CF93DF9300D07C
:1015200000D000D0CDB7DEB79A8389837C836B83EC
:101530005E834D8380E090E026960FB6F894DEBF80
:101540000FBECDBFDF91CF910895CF93DF9300D031
:1015500000D000D0CDB7DEB79A8389837C836B83BC
:101560005E834D8380E090E026960FB6F894DEBF50
:101570000FBECDBFDF91CF9108950F931F93CF93EF
:10158000DF93CDB7DEB72A970FB6F894DEBF0FBE54
:10159000CDBF9A8389837C836B835E834D83388739
:1015A0002F831A87098780E090E02A960FB6F89477
:1015B000DEBF0FBECDBFDF91CF911F910F91089578
:1015C0000F931F93CF93DF93CDB7DEB72A970FB654
:1015D000F894DEBF0FBECDBF9A8389837C836B8373
:1015E0005E834D8338872F831A87098780E090E0D8
:1015F0002A960FB6F894DEBF0FBECDBFDF91CF9114
:101600001F910F910895CF93DF9300D000D000D0A9
:10161000CDB7DEB79A8389837C836B835E834D83EA
:1016200080E090E026960FB6F894DEBF0FBECDBFE7
:10163000DF91CF910895CF93DF93CDB7DEB761E00F
:101640008DE00E94638061E08BE00E94638061E036
:101650008AE00E94638061E08AE00E94638060E02B
:1016600087E00E94638061E089E00E94638060E01F
:101670008DE00E94988160E08BE00E94988161E09B
:101680008AE00E94988161E08AE00E94988160E08F
:1016900089E00E9498818CE490E02CE430E0F9012C
:1016A00020812061FC0120838CE490E02CE430E078
:1016B000F90120812064FC012083DF91CF910895FE
:1016C000CF93DF93CDB7DEB78CE490E02CE430E02D
:1016D000F90120812F7BFC012083DF91CF910895B8
:1016E000CF93DF93CDB7DEB760E08AE00E949881A8
:1016F000DF91CF910895CF93DF93CDB7DEB761E04F
:101700008AE00E949881DF91CF910895CF93DF9373
:1017100000D000D000D0CDB7DEB71A82198288EE93
:1017200093E09E838D830AC08B819C8101969C836C
:101730008B8389819A8101969A83898321E08981AB
:101740009A81883E33E093070CF020E0222361F772
:1017500026960FB6F894DEBF0FBECDBFDF91CF91B6
:101760000895CF93DF9300D000D0CDB7DEB78C8340
:101770008EE490E02C81FC01208300008DE490E059
:10178000FC0180818095881F8827881F8823B1F7F6
:101790008EE490E0FC0180818B831A821982000024
:1017A00089819A8101969A83898321E089819A812E
:1017B0008A3091050CF020E0222389F78B810F906D
:1017C0000F900F900F90DF91CF910895CF93DF93FB
:1017D00000D000D0CDB7DEB78C8388EE93E09A833B
:1017E00089831B820E943F0C8B838B818F3E19F46F
:1017F0008FEF9FEF1FC021E089819A81181619068B
:101800000CF020E089819A8101979A8389832223B1
:1018100031F09B818C81981711F081E001C080E04C
:10182000882301F781E02B819C81291709F080E052
:10183000882F90E00F900F900F900F90DF91CF9135
:101840000895CF93DF9300D01F92CDB7DEB7898381
:101850007B836A838A819B810E94710C8A819B8130
:10186000FC01208181E09981291709F080E0882F0F
:1018700090E00F900F900F90DF91CF910895CF934C
:10188000DF931F92CDB7DEB71982CE0101960E9479
:10189000710C89810F90DF91CF910895CF93DF93E1
:1018A000CDB7DEB7000087E00E942A8221E08130B8
:1018B000910509F420E02223B1F7DF91CF9108953B
:1018C000CF93DF93CDB7DEB7000087E00E942A8276
:1018D00021E0009709F420E02223B9F7DF91CF91AE
:1018E0000895CF93DF9300D000D0CDB7DEB79C83AF
:1018F0008B838FEF0E94B10B282F8B819C81FC0181
:1019000020831A821982000089819A8101969A8324
:10191000898321E089819A818A3091050CF020E049
:10192000222389F70F900F900F900F90DF91CF91A6
:101930000895CF93DF93CDB7DEB729970FB6F8940C
:10194000DEBF0FBECDBF8C836D835F834E8339872F
:1019500028871B821A82198280EE0E94E60B21E002
:10196000009709F020E0222319F080E090E04CC0BD
:101970008C81282F2068CE010396BC01822F0E9403
:10198000210C21E0009709F020E0222319F080E0EB
:1019900090E03AC0CE010396BC018D810E94210CDB
:1019A00021E0009709F020E0222319F080E090E088
:1019B0002BC0888599850E9413101A8219820DC048
:1019C00089819A812E813F81820F931F0E94710C21
:1019D00089819A8101969A83898388859985FC01FA
:1019E0008081282F30E041E089819A818217930716
:1019F0000CF040E0442321F7CE010396BC018EEEAB
:101A00000E94210C81E090E029960FB6F894DEBF89
:101A10000FBECDBFDF91CF9108950F931F93CF934A
:101A2000DF93CDB7DEB729970FB6F894DEBF0FBEB0
:101A3000CDBF8D837F836E83598748871C821A822E
:101A4000198280EE0E94E60B21E0009709F020E069
:101A5000222319F080E090E046C08D81282F206875
:101A6000CE010496BC01822F0E94210C21E0009738
:101A700009F020E0222319F080E090E034C00E94B9
:101A80003F0C8B838B81882331F1888599850E9457
:101A90002F101A82198211C02E813F8189819A816B
:101AA0008901080F191F8FEF0E94B10BF801808385
:101AB00089819A8101969A83898388859985FC0119
:101AC0002081318141E089819A818217930708F052
:101AD00040E0442309F7CE010496BC018EEE0E943B
:101AE000210C81E090E029960FB6F894DEBF0FBE7E
:101AF000CDBFDF91CF911F910F9108950F931F9349
:101B0000CF93DF93CDB7DEB729970FB6F894DEBF3A
:101B10000FBECDBF8D837F836E83598748871C821C
:101B20001A82198280EE0E94E60B21E0009709F0EC
:101B300020E0222319F080E090E047C08D81282F1B
:101B40002068CE010496BC01822F0E94210C21E066
:101B5000009709F020E0222319F080E090E035C0E2
:101B60000E943F0C8B838B81882339F1888599856E
:101B70000E9413101A82198211C089819A812E81C4
:101B80003F818901080F191F8FEF0E94B10BF801E7
:101B9000808389819A8101969A8389838885998532
:101BA000FC018081282F30E041E089819A818217F1
:101BB00093070CF040E0442301F7CE010496BC01EA
:101BC0008EEE0E94210C81E090E029960FB6F894E9
:101BD000DEBF0FBECDBFDF91CF911F910F91089552
:101BE0000F931F93CF93DF93CDB7DEB72A970FB62E
:101BF000F894DEBF0FBECDBF8F8368875A874987B1
:101C00001E821A8219821C821B8280EE0E94E60BC1
:101C100021E0009709F020E0222319F080E090E015
:101C20008BC08F81282F2068CE010696BC01822FA1
:101C30000E94210C21E0009709F020E0222319F0F6
:101C400080E090E079C00E943F0C8D838D818823D5
:101C500009F460C01A8219824FC029813A81C901F2
:101C6000880F991F820F931F29853A858901080FD4
:101C7000191F80E090E00E941310F80180831C82FD
:101C80001B821DC029813A81C901880F991F820FCB
:101C9000931F29853A85820F931FFC012181328190
:101CA0008B819C818901080F191F8FEF0E94B10B56
:101CB000F80180838B819C8101969C838B83298191
:101CC0003A81C901880F991F820F931F29853A8590
:101CD000820F931FFC018081282F30E041E08B812F
:101CE0009C81821793070CF040E0442359F68981C8
:101CF0009A8101969A8389838D81282F30E041E073
:101D000089819A81821793070CF040E0442309F0FF
:101D1000A4CF03C080E090E00FC098858D81981714
:101D200019F080E090E008C0CE010696BC018EEE6E
:101D30000E94210C81E090E02A960FB6F894DEBF55
:101D40000FBECDBFDF91CF911F910F9108950F93DB
:101D50001F93CF93DF93CDB7DEB7CD54D1090FB624
:101D6000F894DEBF0FBECDBFFE01E85BFF4F80835E
:101D7000CE01875B9F4FFC0171836083CE01855B41
:101D80009F4FFC0151834083CE01835B9F4FFC0139
:101D900020831F821A8219821C821B821A82198256
:101DA00024C089819A81880F991F82959295907F8E
:101DB0009827807F98279E01255B3F4FF90120815E
:101DC0003181280F391F89819A81880F991FAE01AF
:101DD0004F5F5F4F840F951F0796FC01318320836F
:101DE00089819A8101969A83898321E089819A81E8
:101DF0008A3091050CF020E0222399F680EE0E94B3
:101E0000E60B21E0009709F020E0222319F080E0A2
:101E100090E09EC0CE01885B9F4FFC018081282FFF
:101E20002068CE010796BC01822F0E94210C21E080
:101E3000009709F020E0222319F080E090E088C0AC
:101E40000E943F0C8D83CE01835B9F4F2D81FC014F
:101E50008081821730F4CE01835B9F4FFC0180812B
:101E60008D83CE01875B9F4FFC01808191812D8105
:101E7000FC0120838D81882309F459C01A821982BC
:101E800048C080E090E00E9413108E831C821B8269
:101E90001CC089819A81880F991F9E012F5F3F4F37
:101EA000820F931F0796FC01208131818B819C81D9
:101EB0008901080F191F8FEF0E94B10BF801808371
:101EC0008B819C8101969C838B838E81282F30E0AF
:101ED00041E08B819C81821793070CF040E0442302
:101EE000C1F689819A81880F991F9E012F5F3F4F0C
:101EF000820F931F0796FC01208131818B819C8189
:101F0000820F931FFC01108289819A8101969A8326
:101F100089838D81282F30E041E089819A81821761
:101F200093070CF040E0442309F0ABCF09C0CE0189
:101F30000796BC018EEE0E94210C80E090E008C064
:101F4000CE010796BC018EEE0E94210C81E090E04C
:101F5000C35BDF4F0FB6F894DEBF0FBECDBFDF917E
:101F6000CF911F910F910895CF93DF9300D000D0B0
:101F700000D0CDB7DEB79C838B836D834E831A82EE
:101F800019828D810E94F10F1A8219820FC08981F6
:101F90009A812B813C81820F931FFC0180810E94DA
:101FA000B10B89819A8101969A8389838D81282F2B
:101FB00030E041E089819A81821793070CF040E07C
:101FC000442329F78E81813019F48EEE0E94B10BE3
:101FD00026960FB6F894DEBF0FBECDBFDF91CF912E
:101FE0000895CF93DF931F92CDB7DEB789838981A0
:101FF0000E94B10B0F90DF91CF910895CF93DF93A3
:1020000000D0CDB7DEB79A83898389819A81892FE1
:1020100099270E94B10B89810E94B10B0F900F90FC
:10202000DF91CF910895CF93DF9300D01F92CDB76A
:10203000DEB79B838A838FEF0E94B10B89838A81ED
:102040009B81009729F08A819B812981FC01208353
:1020500089810F900F900F90DF91CF9108950F938A
:102060001F93CF93DF9300D000D0CDB7DEB79C8312
:102070008B838FEF0E94B10B882F90E0182F0027E1
:102080008FEF0E94B10B882F90E0802B912B9A83C9
:1020900089838B819C81009739F08B819C81298178
:1020A0003A81FC013183208389819A810F900F90BE
:1020B0000F900F90DF91CF911F910F910895CF93C3
:1020C000DF93CDB7DEB727970FB6F894DEBF0FBE0C
:1020D000CDBF9C838B837E836D834F831A8219824D
:1020E0008D819E810E94FE0F1A8219820FC02B8162
:1020F0003C8189819A81820F931FFC0180810E941B
:10210000B10B89819A8101969A83898341E0298163
:102110003A818D819E812817390708F040E04423D9
:1021200031F78F81813019F48EEE0E94B10B279622
:102130000FB6F894DEBF0FBECDBFDF91CF910895EB
:10214000CF93DF9300D01F92CDB7DEB79A838983F8
:102150006B8382E00E94F10F89819A81892F9927F0
:102160000E94B10B89810E94B10B8B81813019F4DF
:102170008EEE0E94B10B0F900F900F90DF91CF91D8
:102180000895CF93DF9300D0CDB7DEB789836A83FC
:1021900080EE0E94B10B8CE090E00E948E7E8981DF
:1021A0008F770E94B10B8A810E94B10B8A818823AC
:1021B00019F48EEE0E94B10B0F900F90DF91CF912A
:1021C0000895CF93DF93CDB7DEB760970FB6F8943D
:1021D000DEBF0FBECDBF9C878B877E876D87588BF8
:1021E0004F8729E0CE010196FC01322F11923A95DA
:1021F000E9F78B859C859B838A838D859E859E834D
:102200008D838F859889998788870E94600C0E94AA
:10221000700B61E081E20E94C1108FEF8A87CE01CE
:102220000A9641E061E00E94B40F0E94600CCE016A
:102230000196AC0163E081E20E94F00D0E947B0BED
:1022400060960FB6F894DEBF0FBECDBFDF91CF9181
:102250000895CF93DF93CDB7DEB70E941B0BDF91BC
:10226000CF910895CF93DF9300D000D01F92CDB7C8
:10227000DEB79C838B836D830E94600C0E94700B81
:1022800061E080E10E94C1108B819C8141E06D8101
:102290000E94B40F0E94600C19821A82CE0102962D
:1022A0009C01CE010196AC0161E080E10E94990C95
:1022B00021E0009709F020E0222311F08FEF8983BD
:1022C0000E947B0B8981813011F481E001C08FEF86
:1022D0000F900F900F900F900F90DF91CF91089576
:1022E000CF93DF93CDB7DEB728970FB6F894DEBF54
:1022F0000FBECDBF9C838B836D835F834E83288706
:102300000E94600C0E94700B62E081E10E94C1108B
:102310008B819C8140E06D810E94B40F8E819F81F2
:1023200041E068850E94B40F0E94600C19821A82F5
:10233000CE0102969C01CE010196AC0161E081E1E3
:102340000E94990C21E0009709F020E0222311F06F
:102350008FEF89830E947B0B898128960FB6F894B2
:10236000DEBF0FBECDBFDF91CF9108950F93CF9306
:10237000DF93CDB7DEB729970FB6F894DEBF0FBE57
:10238000CDBF9C838B836D834E8338872F830987D2
:102390000E94600C0E94700B63E082E10E94C110F9
:1023A0008B819C8140E06D810E94B40FCE01069626
:1023B00040E061E00E94B40F8F81988541E069851B
:1023C0000E94B40F0E94600C19821A82CE010296FC
:1023D0009C01CE010196AC0161E082E10E94990C62
:1023E00021E0009709F020E0222311F08FEF89838C
:1023F0000E947B0B898129960FB6F894DEBF0FBE31
:10240000CDBFDF91CF910F910895CF93DF9300D08F
:1024100000D0CDB7DEB70E94600C0E94700B61E067
:1024200080E30E94C1108FEF8A83CE01029641E0C3
:1024300061E00E94B40F0E94600C1B821C829E010E
:102440002C5F3F4FCE010396AC0161E080E30E9418
:10245000990C89830E947B0B89810F900F900F90BC
:102460000F90DF91CF910895CF93DF9300D0CDB738
:10247000DEB70E94600C0E94700B60E080E20E9458
:10248000C1100E94600C8FEF89831A82CE010296E0
:102490009C01CE010196AC0161E080E20E94990CA2
:1024A0000E947B0B89810F900F90DF91CF9108954F
:1024B000CF93DF9300D0CDB7DEB70E94600C0E94AF
:1024C000700B61E082E20E94C1108FEF898341E0CE
:1024D00061E0CE0101960E94B40F0E94600C1A8246
:1024E000CE0102969C0144EE56E061E082E20E9439
:1024F000990C0E947B0B84EE96E00F900F90DF9179
:10250000CF910895CF93DF9300D0CDB7DEB79A83F4
:10251000898342EF56E06EEE76E08AEE96E00E9406
:10252000E11089819A816AEE76E00E94355A0F9017
:102530000F90DF91CF910895CF93DF9300D0CDB767
:10254000DEB79A83898342EF56E06EEE76E08AEE3C
:1025500096E00E94E11089819A816EEE76E00E94F9
:10256000355A0F900F90DF91CF910895CF93DF935D
:1025700000D0CDB7DEB79A83898342EF56E06EEE86
:1025800076E08AEE96E00E94E11089819A8162EFFE
:1025900076E00E94355A0F900F90DF91CF91089509
:1025A000CF93DF9300D0CDB7DEB70E94600C0E94BE
:1025B000700B61E083E20E94C1108FEF898341E0DC
:1025C00061E0CE0101960E94B40F0E94600C1A8255
:1025D000CE0102969C014EEB56E061E083E20E9440
:1025E000990C0E947B0B8EEB96E00F900F90DF9181
:1025F000CF910895CF93DF9300D0CDB7DEB70E947F
:10260000600C0E94700B61E084E20E94C1108FEFA9
:10261000898341E061E0CE0101960E94B40F0E94DF
:10262000600C1A82CE0102969C014EED56E061E0EC
:1026300084E20E94990C0E947B0B8EED96E00F9035
:102640000F90DF91CF910895CF93DF9300D000D00A
:1026500000D0CDB7DEB70E94600C0E94700B61E025
:1026600085E20E94C1108FEF898341E061E0CE01D5
:1026700001960E94B40F0E94600C1A821B821C8279
:102680001D821E829E012E5F3F4FCE010396AC013C
:1026900061E085E20E94990C0E947B0B8B819C81FA
:1026A000AD81BE81BC01CD0126960FB6F894DEBF88
:1026B0000FBECDBFDF91CF910895CF93DF9300D0B0
:1026C0001F92CDB7DEB70E94600C0E94700B61E0D4
:1026D00086E20E94C1108FEF898341E061E0CE0164
:1026E00001960E94B40F0E94600C1A821B829E0108
:1026F0002E5F3F4FCE010396AC0161E086E20E945F
:10270000990C0E947B0B8B810F900F900F90DF91A3
:10271000CF910895CF93DF9300D0CDB7DEB70E945D
:10272000600C0E94700B60E086E30E94C1100E9462
:10273000600C19821A82CE0102969C01CE0101968C
:10274000AC0161E086E30E94990C21E0009709F05A
:1027500020E0222311F08FEF89830E947B0B81E020
:102760000F900F90DF91CF910895CF93DF931F9239
:10277000CDB7DEB70E94600C0E94700B60E087E26C
:102780000E94C1100E94600C19822AE040E051E0D2
:10279000CE010196BC0187E20E94A70E0E947B0B2E
:1027A00089810F90DF91CF910895CF93DF931F928E
:1027B000CDB7DEB7898389818A3018F080E090E058
:1027C0000DC08981882F90E0880F991F829592957E
:1027D000907F9827807F982780509F4F0F90DF91A0
:1027E000CF910895CF93DF9300D01F92CDB7DEB77E
:1027F0008B838B818A3010F080E01FC00E94600CB8
:102800000E94700B61E083E30E94C110CE01039629
:1028100041E061E00E94B40F0E94600C19821A82AC
:10282000CE0102969E012F5F3F4FAC0161E083E332
:102830000E94990C0E947B0B8A810F900F900F9041
:10284000DF91CF910895CF93DF9300D000D000D0D7
:10285000CDB7DEB78E838E818A3020F080E090E0A5
:10286000DC0125C019821A821B821C820E94600C26
:102870000E94700B61E082E30E94C110CE010696B7
:1028800041E061E00E94B40F0E94600C1D82CE0105
:1028900005969C01CE010196AC0161E082E30E94A5
:1028A000990C0E947B0B89819A81AB81BC81BC0110
:1028B000CD0126960FB6F894DEBF0FBECDBFDF91D7
:1028C000CF910895CF93DF9300D000D01F92CDB762
:1028D000DEB79D838C830E94600C0E94700B61E0C8
:1028E00084E30E94C1108C819D810E943BB1282FFE
:1028F0008C819D8141E0622F0E94B40F0E94600C88
:102900001A821B829E012D5F3F4FCE010296AC01C1
:1029100061E084E30E94990C89830E947B0B89818A
:102920000F900F900F900F900F90DF91CF9108951F
:10293000CF92DF92EF92FF920F93CF93DF93CDB7B9
:10294000DEB72F970FB6F894DEBF0FBECDBF9F87BF
:102950008E87CE0107960FEF2FEF4FEF6FEF0E949C
:10296000A9591A8219820E94600C0E94700B60E0C3
:1029700085E30E94C1100E94600C1D869E01235FAA
:102980003F4FCE010396AC0161E085E30E94990CB4
:1029900021E0009709F020E02223F9F49E012D5F49
:1029A0003F4F8E859F85B9010E94355A8E859F8540
:1029B0000E94BBA56B017C01CE0107960E94BBA5BE
:1029C000DC01CB0121E0C816D906EA06FB0609F4B2
:1029D00020E0822F90E09A8389830E947B0B89817B
:1029E0009A812F960FB6F894DEBF0FBECDBFDF9150
:1029F000CF910F91FF90EF90DF90CF900895CF93FC
:102A0000DF9300D000D01F92CDB7DEB79B838A83BF
:102A10007D836C838AE089838A819B810E94621412
:102A2000982F81E0992309F480E08823C9F006C03B
:102A300068EE73E080E090E00E94497E8C819D8189
:102A40000E949814009741F489818150898389817B
:102A5000882311F081E001C080E0882349F703C09A
:102A600080E090E007C081E09981992309F480E03B
:102A7000882F90E00F900F900F900F900F90DF91A4
:102A8000CF910895CF93DF931F92CDB7DEB70E9409
:102A9000600C0E94700B60E087E30E94C1100E94EE
:102AA000600C1982CE0101969C0146EF56E061E070
:102AB00087E30E94990C0E947B0B86EF96E00F90B3
:102AC000DF91CF9108950F93CF93DF9300D000D083
:102AD000CDB7DEB79A8389837C836B8389819A81A2
:102AE0008130910571F48B819C818F3F2FEF92078C
:102AF00041F400E020E040E060E08DEF96E00E94CD
:102B0000A9590F900F900F900F90DF91CF910F91D7
:102B10000895CF93DF93CDB7DEB76FEF7FEF81E0FE
:102B200090E00E946315DF91CF910895CF93DF93DA
:102B300000D0CDB7DEB79A8389830E94A4150F9089
:102B40000F90DF91CF910895CF93DF93CDB7DEB78C
:102B50000E942911DF91CF910895CF93DF931F92A7
:102B6000CDB7DEB7198211C08981882F90E0880F18
:102B7000991F855F984FFC0180819181009711F426
:102B800089810BC089818F5F898381E0998194302D
:102B900008F080E0882341F78FEF0F90DF91CF910D
:102BA0000895CF93DF93CDB7DEB70E944215DF9132
:102BB000CF910895CF93DF9300D000D000D0CDB750
:102BC000DEB79C838B837E836D8319828AE08A8340
:102BD0008D819E810E943BB1282F8D819E81622F25
:102BE0000E943211982F81E09F3F09F480E08823F2
:102BF000D9F068E873E180E090E00E94497E0E948D
:102C0000341289838981882319F08981823041F4C3
:102C10008A8181508A838A81882311F081E001C0F2
:102C200080E0882331F702C084E089838981882F7E
:102C300090E026960FB6F894DEBF0FBECDBFDF91B1
:102C4000CF9108950F931F93CF93DF93CDB7DEB746
:102C500029970FB6F894DEBF0FBECDBF9C838B8340
:102C60007E836D834F833987288719828AE08A8320
:102C7000888599850E943BB1182F8D819E810E9485
:102C80003BB1582F288539858D819E81012F4F8139
:102C9000652F0E94B611982F81E09F3F09F480E0D4
:102CA0008823D9F068E873E180E090E00E94497ED3
:102CB0000E94341289838981882319F089818230A6
:102CC00041F48A8181508A838A81882311F081E0CE
:102CD00001C080E0882331F702C084E089838981C4
:102CE000882F90E029960FB6F894DEBF0FBECDBFB7
:102CF000DF91CF911F910F9108951F93CF93DF9391
:102D0000CDB7DEB728970FB6F894DEBF0FBECDBFA4
:102D10009C838B837E836D8358874F8319828AE0DF
:102D20008A838F8198850E943BB1182F8D819E8167
:102D30000E943BB1382F4F8158858D819E81212F74
:102D4000632F0E947011982F81E09F3F09F480E06B
:102D50008823D9F068E873E180E090E00E94497E22
:102D60000E94341289838981882319F089818230F5
:102D700041F48A8181508A838A81882311F081E01D
:102D800001C080E0882331F702C084E08983898113
:102D9000882F90E028960FB6F894DEBF0FBECDBF07
:102DA000DF91CF911F910895CF93DF9300D0CDB7DE
:102DB000DEB79A8389830E940512992787FD909533
:102DC0000F900F90DF91CF910895CF93DF9300D0B4
:102DD00000D000D0CDB7DEB79C838B837E836D831C
:102DE0000E9458129A83898329813A818D819E811C
:102DF00046E050E0B9010E94FEB08D819E8126968A
:102E00000FB6F894DEBF0FBECDBFDF91CF9108950E
:102E1000CF93DF9300D000D0CDB7DEB79A838983FC
:102E20007C836B8389819A810E94895989819A81E7
:102E30000E948212000089819A810F900F900F905A
:102E40000F90DF91CF910895CF93DF9300D000D002
:102E5000CDB7DEB79A8389837C836B8389819A811E
:102E60000E94895989819A810E949C12000089815F
:102E70009A810F900F900F900F90DF91CF9108954E
:102E8000CF93DF9300D000D0CDB7DEB79A8389838C
:102E90007C836B8389819A810E94895989819A8177
:102EA0000E94B612000089819A810F900F900F90B6
:102EB0000F90DF91CF910895CF93DF9300D0CDB7DE
:102EC000DEB79A8389830E94D0120F900F90DF9112
:102ED000CF910895CF93DF9300D000D000D0CDB72D
:102EE000DEB79C838B837E836D830E94FA129A8364
:102EF000898329813A818D819E8146E050E0B90124
:102F00000E94FEB08D819E8126960FB6F894DEBF9A
:102F10000FBECDBFDF91CF910895CF93DF9300D047
:102F2000CDB7DEB79A8389830E942413DC01CB01DD
:102F3000BC01CD010F900F90DF91CF910895CF93F9
:102F4000DF9300D0CDB7DEB79A8389830E945D13EB
:102F50000F900F90DF91CF910895CF93DF9300D022
:102F600000D0CDB7DEB79C838B838AE089831A8239
:102F70000E948A13982F81E09F3F09F080E0882308
:102F800011F08FEF18C060ED77E080E090E00E94D4
:102F9000497E0E94B5138A838A81882341F48981FE
:102FA000815089838981882311F081E001C080E00C
:102FB000882349F78A810F900F900F900F90DF912F
:102FC000CF910895CF93DF9300D01F92CDB7DEB796
:102FD0009A8389836B838B810E94D5130F900F9006
:102FE0000F90DF91CF910895CF93DF9300D01F9280
:102FF000CDB7DEB79A8389836B838B810E942314BC
:10300000DC01CB01BC01CD010F900F900F90DF913F
:10301000CF910895CF93DF9300D01F92CDB7DEB745
:103020009A8389836B838B810E94F2130F900F9098
:103030000F90DF91CF910895CF93DF9300D0CDB75C
:10304000DEB79A8389830E9434120F900F90DF912C
:10305000CF910895CF93DF9300D000D000D0CDB7AB
:10306000DEB79A8389837C836B835E834D832D8156
:103070003E818B819C81B9010E94FF1426960FB678
:10308000F894DEBF0FBECDBFDF91CF9108950F93AF
:10309000CF93DF9300D000D0CDB7DEB79A8389837A
:1030A0007C836B8389819A818130910591F48B8136
:1030B0009C818F3F2FEF920761F400E020E040E019
:1030C00060E084E197E00E94A95983E197E00E94C3
:1030D00096150F900F900F900F90DF91CF910F9159
:1030E0000895CF93DF93CDB7DEB76FEF7FEF81E029
:1030F00090E00E944718DF91CF910895CF93DF931E
:1031000000D0CDB7DEB79A83898389819A810E94E6
:10311000D1A589819A812BEE34E0FC013183208393
:1031200089819A8124E0FC0124870F900F90DF9120
:10313000CF910895CF93DF9300D01F92CDB7DEB724
:103140009A8389836B8389819A810E94D1A5898121
:103150009A812BEE34E0FC013183208389819A81AE
:103160002B81FC0124870F900F900F90DF91CF915E
:1031700008950F931F93CF93DF93CDB7DEB7629778
:103180000FB6F894DEBF0FBECDBF9E878D87788BBC
:103190006F875A8B498BCE0107960E9489599E01F1
:1031A000295F3F4F8F859889A901BC0183E197E092
:1031B0000E942A1821E0009709F420E02223E1F080
:1031C0008D859E85FC01808191810C96FC0100819A
:1031D0001181CE010796BC01CE0101960E9400A686
:1031E00029893A898D859E85A9019E012F5F3F4FD0
:1031F000B901F801099502C080E090E062960FB62F
:10320000F894DEBF0FBECDBFDF91CF911F910F911C
:103210000895EF92FF920F931F93CF93DF93CDB753
:10322000DEB72A970FB6F894DEBF0FBECDBF9E83E0
:103230008D8378876F835A8749878D819E810E940D
:10324000EF1B282F8D819E81FC0124878D819E811B
:10325000FC0184858F3F09F474C08D819E81FC013F
:1032600014858F8198850E94BBA5DC01CB0149851F
:103270005A85212FBC01CD010E9428088D819E8195
:10328000FC018485882F90E02D813E81F901248501
:10329000222F30E0880F991F8D5F984FFC013183FA
:1032A00020830E94BE7DDC01CB0189839A83AB839E
:1032B000BC8306C061E070E080E090E00E94497E3F
:1032C0008D819E81FC01808191814496FC01208149
:1032D00031818D819E81F90109958823C1F40E9475
:1032E000BE7D9B01AC0189819A81AB81BC81790152
:1032F0008A01E81AF90A0A0B1B0BD801C7018031B1
:1033000007E29007A105B10510F481E001C080E05B
:10331000882381F68D819E81FC0180819181449674
:10332000FC01208131818D819E81F9010995982FC1
:1033300081E0992309F080E0882361F080E090E04B
:103340000BC06DE972E087EC98E00E941A5E80E0A5
:1033500090E002C081E090E02A960FB6F894DEBFBC
:103360000FBECDBFDF91CF911F910F91FF90EF90D6
:103370000895CF93DF9300D01F92CDB7DEB79A8325
:1033800089836B8389819A81FC0180819181029676
:10339000FC0120813181BE016D5F7F4F89819A815F
:1033A00041E050E0F90109950F900F900F90DF91E7
:1033B000CF910895CF93DF9300D000D000D0CDB748
:1033C000DEB79A8389837C836B835E834D83898197
:1033D0009A81DC011C968C911C97843048F089817D
:1033E0009A8161E070E00E9469A580E090E041C0B0
:1033F0008D819E81009749F489819A8161E070E016
:103400000E9469A580E090E034C089819A81DC0146
:103410001C96EC912D813E818B819C81A901BC0180
:103420008E2F0E949F09982F81E08927882349F0D9
:1034300089819A8161E070E00E9469A580E090E056
:1034400018C089819A81FC0184850E94E709982F20
:1034500081E0992309F080E0882349F089819A81ED
:1034600061E070E00E9469A580E090E002C08D817B
:103470009E8126960FB6F894DEBF0FBECDBFDF91BA
:10348000CF910895CF93DF9300D0CDB7DEB79A8365
:10349000898389819A81FC0184858F3F49F08981E4
:1034A0009A81FC0184850E94EE08882F90E002C07A
:1034B00080E090E00F900F90DF91CF910895CF932F
:1034C000DF9300D01F92CDB7DEB79B838A838A81BA
:1034D0009B81FC01808191810496FC0120813181D6
:1034E0008A819B81F901099521E0009709F020E08C
:1034F000222319F08FEF9FEF0EC08A819B81FC0180
:10350000248540E0CE010196BC01822F0E94230950
:103510008981882F90E00F900F900F90DF91CF91CD
:103520000895CF93DF9300D000D000D0CDB7DEB7A1
:103530009A8389837C836B835E834D8389819A819F
:10354000DC011C96EC919E012B5F3F4F8B819C818F
:10355000A901BC018E2F0E946509982F81E089275F
:10356000882319F08FEF9FEF02C080E090E026964D
:103570000FB6F894DEBF0FBECDBFDF91CF91089597
:10358000CF93DF9300D01F92CDB7DEB79B838A83A2
:103590008A819B81FC01808191810496FC012081BC
:1035A00031818A819B81F901099521E0009709F019
:1035B00020E0222319F08FEF9FEF0EC08A819B81BC
:1035C000FC01248541E0CE010196BC01822F0E94BE
:1035D00023098981882F90E00F900F900F90DF9141
:1035E000CF910895CF93DF9300D0CDB7DEB79A8304
:1035F00089830DC089819A81FC0180819181069621
:10360000FC012081318189819A81F90109958981A3
:103610009A81FC01808191810496FC012081318195
:1036200089819A81F901099521E0009709F420E048
:10363000222301F70F900F90DF91CF910895EF9221
:10364000FF920F931F93CF93DF9300D000D000D051
:10365000CDB7DEB79E838D838D819E81FC018485ED
:103660008F3FE1F18D819E81FC0184850E946B0872
:103670000E94BE7DDC01CB0189839A83AB83BC832E
:1036800006C061E070E080E090E00E94497E8D819C
:103690009E810E94C11B8823C1F00E94BE7D9B01B8
:1036A000AC0189819A81AB81BC8179018A01E81AD8
:1036B000F90A0A0B1B0BD801C701883E03E09007EB
:1036C000A105B10510F481E001C080E08823C9F6AE
:1036D0008D819E812FEFFC01248701C0000026967A
:1036E0000FB6F894DEBF0FBECDBFDF91CF911F9113
:1036F0000F91FF90EF900895CF93DF9300D01F922A
:10370000CDB7DEB79B838A838A819B81FC01848548
:103710008F3F11F480E02FC08A819B810E94C11BE2
:1037200089838981813031F18981882319F18981E7
:10373000853001F189818630E9F089818A30D1F0C4
:1037400089818230B9F089818330A1F08981873005
:1037500079F48A819B81FC01808191810496FC012E
:10376000208131818A819B81F9010995009711F0AF
:1037700081E001C080E00F900F900F90DF91CF911A
:103780000895CF93DF9300D0CDB7DEB79A838983B6
:1037900089819A81FC0184858F3F11F480E006C005
:1037A00089819A81FC0184850E94C2080F900F9044
:1037B000DF91CF910895CF93DF9300D0CDB7DEB7DF
:1037C0009A83898389819A81FC01948581E09F3F56
:1037D00009F480E00F900F90DF91CF910895CF937F
:1037E000DF9300D000D0CDB7DEB79C838B831A82E5
:1037F000198212C089819A81880F991F8D5F984F15
:10380000FC0180819181009711F489810FC0898129
:103810009A8101969A83898321E089819A818430F3
:1038200091050CF020E0222329F78FEF0F900F90E5
:103830000F900F90DF91CF9108950F93CF93DF9367
:1038400000D000D0CDB7DEB79A8389837C836B83A9
:1038500089819A818130910571F48B819C818F3FA0
:103860002FEF920741F400E020E040E060E08AE1C1
:1038700097E00E94A9590F900F900F900F90DF9141
:10388000CF910F910895CF93DF93CDB7DEB76FEF50
:103890007FEF81E090E00E941D1CDF91CF910895A1
:1038A000CF93DF9300D000D0CDB7DEB79A83898362
:1038B0007C836B8389819A810E942DA689819A815C
:1038C00029E235E0FC013183208389819A812B81B3
:1038D0003C81FC01358324830F900F900F900F9053
:1038E000DF91CF910895CF93DF9300D01F92CDB792
:1038F000DEB79B838A830E94AD15898389818F3FC0
:10390000B9F08A819B81FC018481958169810E9443
:10391000F3078981882F90E02A813B81F901248176
:103920003581880F991F855F984FFC013183208373
:103930000F900F900F90DF91CF910895CF93DF9369
:10394000CDB7DEB76B970FB6F894DEBF0FBECDBF15
:103950009F8B8E8B798F688F5B8F4A8F82E390E08D
:103960009C838B831A82198261C089819A81880F16
:10397000991F855F984FFC0120813181888D998D39
:10398000FC01848195812817390709F04AC02981F3
:10399000CE010796622F0E949A18CE0107960E94C8
:1039A000C11B8D83888D998D0E94301D8E838A8DD9
:1039B0009B8D009729F08A8D9B8D2D81FC012083A2
:1039C0008E81882391F4809126079091270721E02A
:1039D000833391050CF420E00196909327078093A0
:1039E0002607222311F081E001C080E0882369F0DE
:1039F0002981888D998DFC0184819581622F0E9497
:103A0000F30710922707109226078D81843049F41E
:103A10009E01295F3F4F8E899F89B9010E94C0A6F0
:103A200014C089819A8101969A83898321E08981D2
:103A30009A81843091050CF020E0222309F095CF83
:103A40008E899F896FEF0E949A188E899F896B9645
:103A50000FB6F894DEBF0FBECDBFDF91CF910895B2
:103A6000CF93DF9300D0CDB7DEB79A83898380E010
:103A70000E9496080F900F90DF91CF910895CF93F9
:103A8000DF9300D01F92CDB7DEB79A8389836B8313
:103A900089819A81FC01808191810296FC012081BB
:103AA0003181BE016D5F7F4F89819A8141E050E095
:103AB000F90109950F900F900F90DF91CF91089524
:103AC000CF93DF93CDB7DEB769970FB6F894DEBF1B
:103AD0000FBECDBF9D8B8C8B7F8B6E8B598F488F8C
:103AE0001A8219821C821B8241C08B819C81880FA3
:103AF000991F855F984FFC0180819181009789F122
:103B00002B81CE010596622F0E949A188B819C8191
:103B1000880F991F855F984FFC01208131818C8926
:103B20009D89FC01848195812817390741F4CE01D4
:103B300005960E94C11B843011F481E001C080E031
:103B4000882379F0488D598D2E893F89CE010596BD
:103B5000B9010E94DA1929813A81820F931F9A8351
:103B600089838B819C8101969C838B8321E08B814F
:103B70009C81843091050CF020E0222309F0B5CF20
:103B800089819A8169960FB6F894DEBF0FBECDBFCA
:103B9000DF91CF9108950F93CF93DF9300D000D0A2
:103BA000CDB7DEB79A8389837C836B8389819A81C1
:103BB0008130910571F48B819C818F3F2FEF9207AB
:103BC00041F400E020E040E060E080E297E00E9405
:103BD000A9590F900F900F900F90DF91CF910F91F7
:103BE0000895CF93DF93CDB7DEB76FEF7FEF81E01E
:103BF00090E00E94CB1DDF91CF910895CF93DF938A
:103C0000CDB7DEB728970FB6F894DEBF0FBECDBF95
:103C10009A8389837C836B835E834D8338872F836C
:103C200089819A81FC011586148689819A81FC011B
:103C30001382128289819A81FC011182108289810A
:103C40009A81FC01168A178A108E118E89819A81B9
:103C50002B813C81FC013187208789819A812D81CC
:103C60003E81FC013787268789819A812F8138859B
:103C7000FC01318B208B89819A81FC018685978597
:103C800061E00E94638089819A81FC018089918929
:103C900061E00E94638089819A81FC01138A128A03
:103CA00089819A81FC01158A148A89819A8122E08E
:103CB00030E0FC013387228728960FB6F894DEBFE8
:103CC0000FBECDBFDF91CF910895EF92FF920F937A
:103CD0001F93CF93DF93CDB7DEB72C970FB6F89431
:103CE000DEBF0FBECDBF9A8389837C836B835E83E7
:103CF0004D8338872F831A870987FC86EB86898155
:103D00009A81FC011586148689819A81FC011382AF
:103D1000128289819A81FC011182108289819A81A3
:103D2000FC01168A178A108E118E89819A812B8147
:103D30003C81FC013187208789819A812D813E81D8
:103D4000FC013787268789819A812F813885FC017C
:103D5000318B208B89819A8129853A85FC01338BAF
:103D6000228B89819A812B853C85FC01358B248BA4
:103D700089819A81FC018685978561E00E94638034
:103D800089819A81FC018089918961E00E94638028
:103D900089819A81FC018289938961E00E94638014
:103DA00089819A81FC018489958961E00E94638000
:103DB00089819A8124E030E0FC01338722872C96A8
:103DC0000FB6F894DEBF0FBECDBFDF91CF911F912C
:103DD0000F91FF90EF900895CF93DF9300D000D024
:103DE00000D0CDB7DEB79A8389834B835C836D8324
:103DF0007E8389819A81FC01808591859C0144277D
:103E000037FD4095542F80E69AEEA0E0B0E0BC016B
:103E1000CD010E94CFADDA01C9012B813C814D81DA
:103E20005E81BC01CD010E94CFADDA01C9012981BB
:103E30003A81F90184839583A683B78326960FB6CA
:103E4000F894DEBF0FBECDBFDF91CF910895CF9321
:103E5000DF9300D000D000D0CDB7DEB79C838B833A
:103E60007E836D838D819E8199231CF4919581952C
:103E700091099A8389838D819E81181619063CF4D5
:103E80008B819C8121E030E0FC01318320838D8196
:103E90009E8199230CF08FC08B819C81FC01118243
:103EA000108289C00E94BE7D9B01AC018B819C81E8
:103EB000FC0186899789A08DB18D281B390B4A0B8F
:103EC0005B0B8B819C81FC0184819581A681B781EC
:103ED00061E0281739074A075B0708F460E06623AA
:103EE00009F469C00E94BE7DDC01CB012B813C81BD
:103EF000F901868B978BA08FB18F8B819C81FC0100
:103F0000808191818130910501F58B819C81FC013B
:103F1000848595859C012F5F3F4F8B819C81FC019F
:103F2000358724878B819C81FC01248535858B8195
:103F30009C81FC01808591852817390721F58B81AB
:103F40009C81FC01158614861EC08B819C81FC011E
:103F500084859585009751F48B819C81FC01208597
:103F600031858B819C81FC01358724878B819C81E5
:103F7000FC01848595859C01215031098B819C81B0
:103F8000FC013587248789819A8101979A838983E7
:103F90008B819C81FC018485958583709078992321
:103FA00024F401978C6F9F6F01969C018B819C81FB
:103FB000B9010E94EE1F21E089819A811816190625
:103FC0000CF020E0222309F06DCF26960FB6F8946E
:103FD000DEBF0FBECDBFDF91CF910895CF93DF93AA
:103FE00000D000D0CDB7DEB79A8389837C836B8302
:103FF00089819A81FC01828593858230910509F03F
:1040000056C08B819C8181309105F1F08230910501
:104010001CF4009741F04BC08230910531F18330A0
:104020009105A1F144C089819A81FC01868597851B
:1040300060E00E94988189819A81FC018089918940
:1040400061E00E94988133C089819A81FC01868554
:10405000978561E00E94988189819A81FC0180891D
:10406000918961E00E94988122C089819A81FC0136
:104070008685978561E00E94988189819A81FC01FB
:104080008089918960E00E94988111C089819A811C
:10409000FC018685978560E00E94988189819A81DC
:1040A000FC018089918960E00E94988100008981EB
:1040B0009A81FC01828593858430910509F098C02E
:1040C0008B819C818130910581F1823091051CF4B6
:1040D000009751F08DC08230910509F447C08330BC
:1040E000910509F464C084C089819A81FC018685A8
:1040F000978561E00E94988189819A81FC0180897D
:10410000918960E00E94988189819A81FC0182896D
:10411000938961E00E94988189819A81FC01848958
:10412000958960E00E94988163C089819A81FC0131
:104130008685978560E00E94988189819A81FC013B
:104140008089918961E00E94988189819A81FC012E
:104150008289938961E00E94988189819A81FC011A
:104160008489958960E00E94988142C089819A8102
:10417000FC018685978560E00E94988189819A81FB
:10418000FC018089918961E00E94988189819A81EE
:10419000FC018289938960E00E94988189819A81DB
:1041A000FC018489958961E00E94988121C0898100
:1041B0009A81FC018685978561E00E9498818981BA
:1041C0009A81FC018089918960E00E9498818981AF
:1041D0009A81FC018289938960E00E94988189819B
:1041E0009A81FC018489958961E00E949881000090
:1041F0000F900F900F900F90DF91CF910895CF9374
:10420000DF9300D0CDB7DEB79A83898384E090E056
:104210000F900F90DF91CF910895CF93DF9300D04F
:1042200000D01F92CDB7DEB789837B836A835D831D
:104230004C838981882F90E0835B984FFC018081BB
:10424000881F8827881F882331F08A819B81FC0181
:104250001182108272C08981282F30E0C901880F35
:10426000991F820F931F880F991F880F991F9C0118
:104270008981882F90E0835B984FFC01808199278A
:1042800087FD9095280F391F80912807882F90E08F
:10429000281739074CF58981282F30E0C901880F8C
:1042A000991F820F931F880F991F880F991F9C01D8
:1042B0008981882F90E0835B984FFC01808199274A
:1042C00087FD9095280F391FC901880F991F820F0C
:1042D000931F875D984FFC01808186FB882780F9BA
:1042E000813011F481E001C080E0882331F18981BF
:1042F000282F30E0C901880F991F820F931F880F64
:10430000991F880F991F9C018981882F90E0835BFA
:10431000984FFC018081992787FD9095280F391FC0
:10432000C901880F991F820F931F875D984FFC0169
:1043300080818F7360E00E9498818981882F90E04E
:104340009C01235B384FF90120812F5F835B984FDD
:10435000FC0120838981282F30E0C901880F991F33
:10436000820F931F880F991F880F991F9C018981C5
:10437000882F90E0835B984FFC018081992787FD0F
:104380009095280F391F80912807882F90E02817D3
:1043900039075CF48981882F90E0835B984FFC019A
:1043A00080818C3014F481E001C080E0882309F41E
:1043B00083C08A819B81FC01408151818981282FA2
:1043C00030E0C901880F991F820F931F880F991F32
:1043D000880F991F9C018981882F90E0835B984FFB
:1043E000FC018081992787FD9095280F391FC9010D
:1043F000880F991F820F931F865D984FFC01808163
:1044000091819A01280F391F8C819D81FC01318394
:1044100020838981282F30E0C901880F991F820FDE
:10442000931F880F991F880F991F9C018981882FDE
:1044300090E0835B984FFC018081992787FD9095E0
:10444000280F391FC901880F991F820F931F875D9D
:10445000984FFC01808186FB992790F981E091308B
:1044600009F080E0882309F452C08981282F30E0C8
:10447000C901880F991F820F931F880F991F880FFA
:10448000991F9C018981882F90E0835B984FFC01E4
:104490008081992787FD9095280F391FC901880FC2
:1044A000991F820F931F875D984FFC0180818F7346
:1044B00061E00E9498812BC08A819B81FC018081F0
:1044C0009181049621E08034FCE99F0708F020E008
:1044D000222341F08C819D8120E43CE9FC01318361
:1044E00020830DC08A819B81FC01808191819C0188
:1044F0002C5F3F4F8C819D81FC013183208389811A
:10450000882F90E0835B984F2FEFFC0120830F9062
:104510000F900F900F900F90DF91CF9108951F9201
:104520000F9200905F000F9211242F933F934F93AF
:104530005F936F937F938F939F93AF93BF93EF930B
:10454000FF93CF93DF93CDB7DEB748E850E064E840
:1045500070E080E00E940D21DF91CF91FF91EF91FB
:10456000BF91AF919F918F917F916F915F914F918B
:104570003F912F910F9000925F000F901F90189520
:10458000CF93DF931F92CDB7DEB7898389818823CC
:1045900001F580E890E0FC01108281E890E022E0E3
:1045A000FC01208384E890E0FC011182108286E304
:1045B00090E026E330E0F90120812260FC012083B5
:1045C0008FE690E02FE630E0F90120812260FC01C7
:1045D00020830F90DF91CF910895CF93DF931F92A7
:1045E000CDB7DEB789830F90DF91CF910895CF9338
:1045F000DF9300D0CDB7DEB78A83198225C08A81C8
:10460000282F30E0C901880F991F820F931F880F50
:10461000991F880F991F9C018981882F90E0280F8E
:10462000391FC901880F991F820F931F875D984F0B
:10463000FC01808186FB882780F9813011F481E0BC
:104640000BC089818F5F898381E099819C3008F05C
:1046500080E08823A1F680E00F900F90DF91CF914A
:104660000895CF93DF9300D0CDB7DEB79A838983C7
:10467000809128078C30E8F42091280789819A815D
:10468000FC012083822F8F5F8093280789819A8184
:10469000FC018081282F30E0C901880F991F820F0B
:1046A000931F865D984F28EB3BE0FC01318320830C
:1046B00005C089819A812FEFFC0120830F900F9014
:1046C000DF91CF910895CF93DF9300D000D0CDB785
:1046D000DEB79A8389837C836B836B817C8189813C
:1046E0009A8120E639E040E252E00E947E230F905A
:1046F0000F900F900F90DF91CF910895CF93DF939C
:10470000CDB7DEB729970FB6F894DEBF0FBECDBF89
:104710009B838A837D836C835F834E83398728875D
:104720008A819B81FC0180818C3008F06FC08C8174
:1047300061E00E9463808A819B81FC018081282F37
:1047400030E08C81482F4F73C901880F991F820F69
:10475000931F875D984F242F2F73FC013081307C8D
:10476000232BFC01208320E232E08E819F81A9016E
:10477000481B590BCA0199230CF40396959587950C
:1047800095958795282F8A819B81FC01218320E6BE
:1047900039E088859985A901481B590BCA019923DD
:1047A0000CF403969595879595958795282F8A8182
:1047B0009B81FC0122838A819B81FC0190818BEA91
:1047C000989F812D11248695869586958983898168
:1047D0000E94F722982F81E0992309F080E0882336
:1047E00019F089810E94C0228A819B81FC0180810D
:1047F000282F30E0C901880F991F820F931F875D12
:10480000984FFC0120812064FC0120838A819B81D8
:10481000FC01808129960FB6F894DEBF0FBECDBF94
:10482000DF91CF910895CF93DF9300D01F92CDB742
:10483000DEB79B838A838A819B81FC018081282F3C
:1048400030E0C901880F991F820F931F875D984F31
:10485000FC0120812F7BFC0120838A819B81FC014C
:1048600090818BEA989F812D112486958695869557
:10487000898389810E94F722982F81E0992309F08A
:1048800080E0882319F089810E94ED220F900F901B
:104890000F90DF91CF9108956F927F928F929F92A8
:1048A000AF92BF92CF92DF92EF92FF920F931F933E
:1048B000CF93DF9300D000D0CDB7DEB79A83898342
:1048C0007C836B838B819C81803222E092070CF089
:1048D0005DC08B819C81992314F41C821B828B8187
:1048E0009C81853B910524F084EB90E09C838B8335
:1048F00089819A81FC018281992787FD909528E51D
:1049000032E0A901481B590BCA01880F991F880F73
:10491000991FAA2797FDA095BA2F29813A81F901FD
:104920002181332727FD309548E850E0BA01621B0A
:10493000730B9B01220F331F220F331F442737FDB8
:104940004095542F6B817C813B01882477FC8094B7
:10495000982C6B2F6F936A2F6F93692F6F938F93A0
:1049600059016A0114EBE12EF12C00E010E020E087
:1049700030E0A901C401B3010E94A36C0F900F9015
:104980000F900F90DC01CB019C838B832B813C81AA
:1049900089819A81B9010E94E0240F900F900F90B5
:1049A0000F90DF91CF911F910F91FF90EF90DF90CB
:1049B000CF90BF90AF909F908F907F906F90089511
:1049C000CF93DF9300D000D000D0CDB7DEB79C836B
:1049D0008B837E836D838B819C81FC0180818983A5
:1049E00089818C3008F094C08B819C81FC0181818D
:1049F000992787FD909528E830E0A901481B590BBD
:104A0000CA019C01220F331F220F331F8D819E810B
:104A100082179307A4F48B819C81FC0181819927E3
:104A200087FD909528E830E0A901481B590BCA0181
:104A3000880F991F880F991F9E838D832AC08B81B1
:104A40009C81FC018281992787FD909528E532E0C1
:104A5000A901481B590BCA019C01220F331F220FC9
:104A6000331F8D819E81281739079CF48B819C818F
:104A7000FC018281992787FD909528E532E0A90104
:104A8000481B590BCA01880F991F880F991F9E83D5
:104A90008D838D819E8102979E838D838D819E81E2
:104AA000AA2797FDA095BA2F880F991FAA1FBB1F91
:104AB000880F991FAA1FBB1F880F991FAA1FBB1F12
:104AC000880F991FAA1FBB1F689412F8B695A79567
:104AD000979587951694D1F79E838D838FE590E007
:104AE000FC0180818A83F8948981282F30E04D81F0
:104AF0005E81C901880F991F820F931F865D984FB1
:104B0000FC01518340838FE590E02A81FC012083E2
:104B100026960FB6F894DEBF0FBECDBFDF91CF91C2
:104B200008952F923F924F925F926F927F928F9251
:104B30009F92AF92BF92CF92DF92EF92FF920F932C
:104B40001F93CF93DF9300D0CDB7DEB79A838983CD
:104B500089819A81FC018281992787FD909528E5BA
:104B600032E0A901481B590BCA01880F991F880F11
:104B7000991F1C01442437FC4094542C89819A814C
:104B8000FC018181992787FD909528E830E0A901F3
:104B9000481B590BCA01880F991F880F991F3C01A8
:104BA000882477FC8094982C89819A810E94082619
:104BB0000196AA2797FDA095BA2F1F921F921F92C8
:104BC00024EB2F93A12CB12C650182017101A4016A
:104BD0009301BC01CD010E94A36C0F900F900F9028
:104BE0000F90DC01CB010F900F90DF91CF911F91BF
:104BF0000F91FF90EF90DF90CF90BF90AF909F907C
:104C00008F907F906F905F904F903F902F9008957E
:104C1000CF93DF9300D000D0CDB7DEB79C838B83DA
:104C20008B819C81FC0180818F3F01F18B819C8174
:104C3000FC018081282F30E0C901880F991F820F65
:104C4000931F865D984FFC0180819181880F991F89
:104C5000880F991F880F991F929582958F708927C9
:104C60009F70892702969A83898302C01A821982CB
:104C700089819A810F900F900F900F90DF91CF91C3
:104C80000895CF93DF9300D0CDB7DEB79A838983A1
:104C900089819A81FC018081282F30E0C901880F29
:104CA000991F820F931F875D984FFC01808186FBBF
:104CB000992790F981E0992309F480E00F900F90F3
:104CC000DF91CF910895CF93DF93CDB7DEB761E049
:104CD0008AE00E94988161E08AE00E9463808CE40F
:104CE00090E02CE430E0F90120812061FC01208378
:104CF0008CE490E02CE430E0F90120812064FC0198
:104D0000208361E08DE00E94638061E08BE00E947F
:104D10006380DF91CF910895CF93DF93CDB7DEB756
:104D20008CE490E02CE430E0F90120812F7BFC0141
:104D30002083DF91CF910895CF93DF931F92CDB75A
:104D4000DEB789838981882351F48CE490E02CE4D8
:104D500030E0F90120812062FC01208309C08CE44D
:104D600090E02CE430E0F90120812F7DFC012083CC
:104D70000F90DF91CF910895CF93DF931F92CDB71E
:104D8000DEB789838CE490E02CE430E0F9012081E7
:104D9000322F337F2981232BFC0120830F90DF9159
:104DA000CF910895CF93DF931F92CDB7DEB789835C
:104DB0008CE490E02CE430E0F9012081322F3C7F3C
:104DC00029812370232BFC0120838DE490E02DE4C6
:104DD00030E0F9012081422F4E7F2981222F30E0DF
:104DE00035952795359527952170242BFC01208337
:104DF0000F90DF91CF910895CF93DF9300D000D033
:104E0000CDB7DEB79A8389837C836B8389819A814E
:104E1000FC0180819181FC0180819181FC012081D4
:104E200031818B81482F4F7789819A81FC01808164
:104E30009181642FF901099589819A81FC01808112
:104E40009181FC0180819181FC01208131818B81E4
:104E50009C81880F892F881F990B482F4F77898154
:104E60009A81FC0180819181642FF90109950F904D
:104E70000F900F900F90DF91CF910895CF93DF9314
:104E800000D0CDB7DEB79A83898389819A81FC01EE
:104E900080819181FC0180819181FC01208131819F
:104EA00089819A81FC018081918160EFF9010995E6
:104EB0000F900F90DF91CF910895CF93DF9300D0A3
:104EC000CDB7DEB79A83898389819A81FC0180817D
:104ED0009181FC0180819181FC0120813181898156
:104EE0009A81FC018081918167EFF90109950F900A
:104EF0000F90DF91CF910895CF93DF9300D000D032
:104F0000CDB7DEB79A8389837C836B8389819A814D
:104F10002B813C81FC013183208389819A81FC01B2
:104F2000128289819A810E94412E0F900F900F90DA
:104F30000F90DF91CF910895CF93DF9300D0CDB73D
:104F4000DEB79A83898389819A8140E051EE60E0DF
:104F500070E00E94B0270F900F90DF91CF910895DD
:104F6000CF93DF9300D000D000D0CDB7DEB79A83C7
:104F700089834B835C836D837E838B819C81AD8130
:104F8000BE81AC01BD0187EC98E00E94D1548981BB
:104F90009A81FC018081918167EC78E00E940EA7E4
:104FA00089819A810E94512889819A810E940C28C6
:104FB00089819A810E94812826960FB6F894DEBFD7
:104FC0000FBECDBFDF91CF910895CF93DF9300D077
:104FD00000D0CDB7DEB79A8389837C836B838981C8
:104FE0009A81FC01808191812B813C81B9010E94D1
:104FF0000EA789819A810E94412E89819A810E94FF
:105000000C2889819A810E9481280F900F900F901F
:105010000F90DF91CF910895CF93DF9300D0CDB75C
:10502000DEB79A83898389819A81FC01808191818D
:10503000FC0180819181FC012081318189819A81EB
:10504000FC018081918169EFF901099589819A813B
:10505000FC0180819181FC0180819181FC01208192
:10506000318189819A81FC018081918162E0F9011D
:10507000099589819A81FC0180819181FC0180815F
:105080009181FC012081318189819A81FC0180819B
:10509000918163E0F90109950F900F90DF91CF9115
:1050A0000895CF93DF9300D0CDB7DEB79A8389837D
:1050B00061E08DE00E94638089819A8122ED30E079
:1050C00048E250E062E070E00E94882E6AEF70E0F3
:1050D00080E090E00E94497E89819A8122ED30E053
:1050E00048E250E063E070E00E94882E6DE770E0D7
:1050F00080E090E00E94497E0F900F90DF91CF9169
:105100000895CF93DF9300D01F92CDB7DEB79B8376
:105110008A838A819B81FC018281882309F474C07F
:105120008A819B810E943E278A819B81FC0180812C
:105130009181FC0180819181FC01208131818A81F2
:105140009B81FC018081918169E7F90109958A8140
:105150009B81FC0180819181FC0180819181FC0116
:10516000208131818A819B81FC0183819481FC01B2
:1051700040818A819B81FC0180819181642FF901AA
:1051800009958A819B81FC0180819181FC0180814C
:105190009181FC01208131818A819B81FC01838185
:1051A00094810196FC0140818A819B81FC01808170
:1051B0009181642FF901099582E0898316C08A8163
:1051C0009B81FC01238134818981882F90E0820FAB
:1051D000931FFC018081282F30E08A819B81B901D7
:1051E0000E94FC2689818F5F89838A819B81FC01D3
:1051F000228181E09981921708F080E08823F9F6F6
:105200008A819B810E945D270F900F900F90DF9104
:10521000CF910895CF93DF93CDB7DEB72A970FB61E
:10522000F894DEBF0FBECDBF9E838D8378876F83DA
:1052300049872A878F8198856CEF72E00E946CB154
:105240009C838B838F8198856FE270E00E9461B1AF
:1052500001969A8389838B819C81009799F089813B
:105260009A81009779F02B813C8189819A81A901EB
:10527000481B590BCA01282F2E5F8D819E81FC018E
:1052800022830EC08F8198850E943BB1282F2E5F0C
:105290008D819E81FC0122838F8198859A838983E9
:1052A0008D819E81FC018281882F90E00E945AAE00
:1052B0009C018D819E81FC01348323838D819E819D
:1052C000FC01238134818D819E81FC018281882FA4
:1052D00090E0820F931FFC0110828D819E81FC0162
:1052E000838194812985FC0120838D819E81FC012D
:1052F0008381948101962A85FC0120838D819E8182
:10530000FC018281882F90E00297AC018D819E8103
:10531000FC0183819481029629813A81B9010E941E
:1053200052B12A960FB6F894DEBF0FBECDBFDF9103
:10533000CF910895CF93DF9300D0CDB7DEB79A8396
:10534000898389819A81FC0180819181FC0180811E
:1053500091810496FC012081318189819A81FC012F
:1053600080819181F90109950F900F90DF91CF9184
:105370000895CF93DF93CDB7DEB727970FB6F89494
:10538000DEBF0FBECDBF9F838E838E819F81FC01C8
:105390008085882F90E08137910549F08937910504
:1053A00009F075C08E819F810E94812890C08E81F6
:1053B0009F81FC0187A990AD009709F487C08E8179
:1053C0009F81FC0181A592A5019799230CF4019678
:1053D000959587958B838B81882F90E00E945AAE9C
:1053E0009D838C8381E089831A823EC08A81882FC5
:1053F00090E02C813D81820F931F2981222F30E084
:105400004E815F81240F351F285F3F4FF9012081B6
:10541000FC01208389818F5F89838A81882F90E0B6
:105420002C813D81820F931F2A81222F30E04C81F5
:105430005D81240F351FF90160812981222F30E021
:105440004E815F81240F351F285F3F4FF901208176
:10545000279522272795260FFC01208389818F5FBE
:1054600089838A818F5F8A8381E02A819B812917C2
:1054700008F080E0882309F0B9CF8E819F81FC017C
:1054800027A930AD8C819D81F90109951FC08E81BE
:105490009F81FC0181AD92AD0097C9F08E819F8103
:1054A000FC0121AD32AD8E819F8109964E815F81D5
:1054B000FA0141A552A5642F61504E815F81FA0126
:1054C0007085AC01872FF901099501C0000027966E
:1054D0000FB6F894DEBF0FBECDBFDF91CF91089518
:1054E000CF93DF9300D000D000D0CDB7DEB79E833E
:1054F0008D838D819E81FC0180819181FC01808161
:1055000091810696FC01208131818D819E81FC0173
:1055100080819181F90109959C838B838D819E8186
:10552000FC0180A5882349F18B819C81873F9105EF
:1055300049F48D819E81FC0110A68D819E810E947F
:10554000B92984C18D819E81FC0181A592A54B81E1
:105550002D813E81820F931F0896FC0140838D812F
:105560009E81FC0181A592A59C012F5F3F4F8D81FB
:105570009E81FC0132A721A769C18D819E81FC011A
:105580008581882309F4FDC08B819C818038910539
:105590000CF0F7C08D819E81FC018581282F215060
:1055A0008D819E81FC0125838D819E81FC018581F9
:1055B000882F90E04B812D813E81820F931F0896AA
:1055C000FC0140838D819E81FC018581882309F047
:1055D0003DC18D819E81FC018681882309F436C1FD
:1055E0008D819E81FC018681882F90E0803D910510
:1055F00009F49EC0813D910544F480399105B9F1CB
:10560000803C910509F479C0B7C0803E910529F02E
:10561000843F910509F455C0AFC08D819E81FC0186
:1056200083A594A5009709F49EC08D819E81FC01FD
:1056300023A534A58D819E81FC018085882F90E073
:10564000AC015695542F4427579547958D819E81DF
:10565000FC018185882F90E0840F951F4D815E812C
:10566000FA014781BC01842FF90109957CC08D8125
:105670009E81FC0185A596A5009709F476C08D81D1
:105680009E81FC0125A536A58D819E81FC0180852A
:10569000882F90E0AC015695542F44275795479595
:1056A0008D819E81FC018185882F90E0840F951F5C
:1056B0004D815E81FA014781BC01842FF901099572
:1056C00054C08D819E81FC0183A994A9009709F49F
:1056D0004EC08D819E81FC0123A934A98D819E81BC
:1056E000FC018085882F90E04D815E81FA01418523
:1056F000BC01842FF90109953AC08D819E81FC017E
:1057000087A590A90097A9F18D819E81FC0127A50D
:1057100030A98D819E81FC018085882F90E04D818C
:105720005E81FA014781BC01842FF901099521C0EE
:105730008D819E81FC0181A992A90097E1F08D8164
:105740009E81FC0121A932A98D819E81FC01808569
:10575000882F90E04D815E81FA014781BC01842F42
:10576000F901099508C0000007C0000005C000004D
:1057700003C0000001C000008D819E81FC011682E3
:1057800065C08B819C81803F910574F48B819C81E5
:10579000807F99279A8389838B81282F2F708D8111
:1057A0009E81FC01278304C08B819C819A8389831D
:1057B00089819A81803E9105F1F0813E910554F4F2
:1057C000803C910519F1803D910501F180399105E9
:1057D00091F03CC0843F910571F0853F910524F420
:1057E000803F9105F1F032C0893F910551F18F3F23
:1057F000910511F12BC08D819E8122E0FC01258352
:1058000029818D819E81FC01268320C08D819E810E
:1058100021E0FC01258329818D819E81FC01268365
:1058200015C08D819E8121E0FC0120A78D819E8184
:10583000FC0112A611A60AC08D819E810E94412EF4
:1058400005C08FE497E00E940C28000026960FB652
:10585000F894DEBF0FBECDBFDF91CF910895CF93F7
:10586000DF9300D000D01F92CDB7DEB79A83898333
:105870006B835D834C8389819A81FC018081918156
:10588000FC0180819181FC01208131818B818F70AD
:10589000806E482F89819A81FC0180819181642FDB
:1058A000F90109952C813D8189819A81B9010E9474
:1058B000FC260F900F900F900F900F90DF91CF91DB
:1058C0000895CF93DF9300D000D01F92CDB7DEB7FD
:1058D0009A8389836B835D834C830F900F900F9025
:1058E0000F900F90DF91CF910895CF93DF9300D069
:1058F00000D01F92CDB7DEB79A8389836B835D8317
:105900004C8389819A81FC0180819181FC01808195
:105910009181FC01208131818B818F708069482FBA
:1059200089819A81FC0180819181642FF901099517
:1059300089819A81FC0180819181FC018081918122
:10594000FC01208131818C81482F4F7789819A8198
:10595000FC0180819181642FF901099589819A81E7
:10596000FC0180819181FC0180819181FC01208179
:1059700031818C819D81880F892F881F990B482F39
:1059800089819A81FC0180819181642FF9010995B7
:105990000F900F900F900F900F90DF91CF9108957F
:1059A000CF93DF93CDB7DEB727970FB6F894DEBF5E
:1059B0000FBECDBF9B838A836C834D833F832E8331
:1059C0008A819B810E943E278A819B81FC01808184
:1059D0009181FC0180819181FC01208131818A814A
:1059E0009B81FC01808191816C81F901099519826B
:1059F00013C08981882F90E02E813F81820F931FF1
:105A0000FC018081282F30E08A819B81B9010E94AE
:105A1000FC2689818F5F898381E029819D812917F7
:105A200008F080E0882329F78A819B810E945D2706
:105A300027960FB6F894DEBF0FBECDBFDF91CF9192
:105A40000895CF93DF9300D000D01F92CDB7DEB77B
:105A50009A8389836B835D834C838C819D810E94B3
:105A60003BB1482F2C813D8189819A816B810E94B5
:105A7000D02C0F900F900F900F900F90DF91CF913F
:105A80000895CF93DF9300D000D0CDB7DEB79A83CF
:105A900089837C836B832B813C8189819A81A901D5
:105AA00061E70E94212D0F900F900F900F90DF91D2
:105AB000CF910895CF93DF9300D000D01F92CDB740
:105AC000DEB79A8389836B835D834C838B81882FB8
:105AD00090E0803D910549F1813D91053CF480398C
