:020000040800F2
:10000000A8070020214F00083536000837360008C1
:10001000393600083B3600083D3600080000000075
:100020000000000000000000000000003F36000853
:10003000413600080000000043360008453600083D
:100040003B4F00083B4F00083B4F00086737000854
:100050003B4F00083B4F00083F3700083B4F00086C
:100060003B4F00083B4F00083B4F00083B4F000848
:100070003B4F00083B4F00083B4F00083B4F000838
:100080003B4F00083B4F00083B4F00083B4F000828
:100090003B4F00083B4F00083B4F00083B4F000818
:1000A0003B4F00083B4F00083B4F00083B4F000808
:1000B0003B4F00083B4F00083B4F00083B4F0008F8
:1000C0003B4F00083B4F00083B4F00083B4F0008E8
:1000D0003B4F00083B4F00083B4F00083B4F0008D8
:1000E0003B4F00083B4F00083B4F00083B4F0008C8
:1000F0003B4F000800F002F800F03CF80AA090E83E
:10010000000C82448344AAF10107DA4501D100F0D2
:1001100031F8AFF2090EBAE80F0013F0010F18BF63
:10012000FB1A43F001031847D056000000570000A7
:10013000103A24BF78C878C1FAD8520724BF30C813
:1001400030C144BF04680C607047000000230024E5
:1001500000250026103A28BF78C1FBD8520728BFD7
:1001600030C148BF0B6070471FB505F058FA1FBD7E
:1001700010B510BD04F0F7FE1146FFF7F5FF03F0D0
:1001800050FC04F015FF03B4FFF7F2FF03BC04F0CA
:100190001DFF000010B50121084601F00CF90021F7
:1001A000BDE81040012001F006B95D480021016062
:1001B00041608160C16001614161704759490860D7
:1001C000704758490028486802D040F0010001E01B
:1001D00020F001004860704710B58A0721F0030441
:1001E0005049130F21440F228C689A4094438C602D
:1001F0008A68984002438A6010BD494A116821F418
:10020000403141EA000111607047474B10B5D3F807
:10021000042C0243440302D522F00F020A430403D4
:1002200003D522F0F00242EA0112C40203D522F4FF
:10023000706242EA0122800203D522F4704040EA53
:100240000132C3F8042C10BD374A0029D2F8001C33
:1002500001D0014300E08143C2F8001C7047C30F86
:1002600020F00042304841B11BB1D0F8081C1143C6
:1002700007E0D0F80C1C114309E02BB1D0F8081CA2
:100280009143C0F8081C7047D0F80C1C9143C0F88B
:100290000C1C704724490028D1F8080C02D040F00B
:1002A000004001E020F00040C1F8080C704710B594
:1002B0001D4B01280BD0CC43022811D0032818D0A5
:1002C00004281FD0D3F8180C2AB3884324E0D3F8AD
:1002D000100C0AB1884300E00843C3F8100C10BDAD
:1002E000D3F8100C12B100EA0440F6E740EA0140EE
:1002F000F3E7D3F8140C0AB1884300E00843C3F8CD
:10030000140C10BDD3F8140C12B100EA0440F6E747
:1003100040EA0140F3E70843C3F8180C10BD0000A1
:10032000047C004000000140007000402849084360
:1003300028490860704770B50F22C57803784FF0E0
:10034000E0210124E5B1D1F80C5D0B4405F4E06532
:10035000C5F5E0652E0AC6F10405F2404678AE40C8
:100360008578154035432A0183F80024007800F091
:100370001F029440400901EB8000C0F8004170BDAD
:1003800003F01F008440580901EB8000C0F8804151
:1003900070BD114A114001431048016070474FF091
:1003A000E0220029D2F8101D01D0014300E0814372
:1003B000C2F8101D70474FF0E0210428086903D0EF
:1003C00020F004000861704740F00400FAE70000E4
:1003D0000000FA050CED00E080FFFF1F08ED00E0D3
:1003E00010B501214C02204600F0E5FF2046BDE893
:1003F0001040002100F0DFBF30B54268D14B0C79CE
:100400001A400B6842EA0422134343608268CE4BD1
:100410004D791A40D1E9034323438C6844EA4504EB
:10042000234313438360026B097D22F0F872491E57
:10043000C9B242EA0151016330BD0021016001717E
:1004400041714FF04072C0E9021201610121017552
:100450007047BE490A68006822F4403240EA020050
:10046000086070470021016070470029816802D050
:1004700041F0010101E021F0010181607047002A93
:10048000426801D00A4300E08A43426070478268B4
:1004900022F0F0020A43826070474268AC4B1A4077
:1004A0000A43426070478162C2627047426822F02C
:1004B0001F020A4342607047A6490028D1F804078A
:1004C00002D040F4000001E020F40000C1F804076D
:1004D000704770B5072413290AD9C568A1F114061D
:1004E00006EB4606B440A543B3401D43C56014E087
:1004F00009290AD90569A1F10A0606EB4606B440A6
:10050000A543B3401D43056107E0456901EB410682
:10051000B440A543B3401D4345611F23072A09D2B8
:10052000046C521E02EB820293409C4391400C43A8
:10053000046470BD0D2A09D2C46BD21F02EB820283
:1005400093409C4391400C43C46370BD132A09D26D
:10055000846B0D3A02EB820293409C4391400C4322
:10056000846370BD192A09D2446B133A02EB8202EC
:1005700093409C4391400C43446370BD046B193A13
:1005800002EB820293409C4391400C43046370BD94
:10059000816841F080418160704701460020896890
:1005A000490000D5012070470029816802D041F43C
:1005B000806101E021F480618160704700298168D9
:1005C00002D041F0020101E021F002018160704798
:1005D0004268491E22F4604242EA4131416070475C
:1005E0000029416802D041F4006101E021F400617A
:1005F00041607047806D80B270470029816802D0E9
:1006000041F4807101E021F480718160704700291C
:10061000816802D041F4007101E021F40071816031
:10062000704770B5072413290AD9C568A1F11406CB
:1006300006EB4606B440A543B3401D43C56014E035
:1006400009290AD90569A1F10A0606EB4606B44054
:10065000A543B3401D43056107E0456901EB410631
:10066000B440A543B3401D434561436CC3F30154FB
:10067000121B921C02EB82041F22A2409343A14052
:100680000B43436470BD426C491E22F4401242EA9F
:1006900001514164704742507047826822F47022D1
:1006A0000A4382607047826822F440120A438260E3
:1006B0007047816841F480018160704701460020E5
:1006C0008968490200D5012070470029416802D09D
:1006D00041F4806101E021F48061416070470029AC
:1006E000416802D041F4805101E021F48051416021
:1006F00070470844006B80B2704701238B4041680B
:100700000AB1194300E09943416070470246002056
:1007100012680A4200D001207047C9430160704747
:1007200030B54468002201258D4000682C4010EA55
:10073000112F01D004B10122104630BD6FEA112102
:1007400001607047FFFEFFFCFDF7FFC0042701407A
:10075000FFFD3FFF0020014038480021016041605B
:100760008160C16036494161704730B5334A817953
:10077000036899B311460C6824EA03040C604B68C3
:10078000046823EA04034B60047904EB02031C6849
:10079000056844EA05041C608B68046823EA0403C6
:1007A0008B60CB68046823EA0403CB604379A1F52E
:1007B0008061102B05D099180A68006802430A600E
:1007C00030BD01F581610A68036842EA03020A60EC
:1007D0004A68006842EA00024A6030BDFFE70079DB
:1007E0001044016899430160F7E70021016001713D
:1007F0000C2242718171704712490A6842EA000274
:100800000A607047104A0146002012680A4200D070
:10081000012070470C4908607047084A01460020D3
:100820001368526903EA01030A4202D0002B00D088
:10083000012070470449086070470000000401402F
:10084000FFFF7F001004014014040140FF4A1168BB
:1008500021F0010141EA000111607047FC490028C4
:10086000D1F8000C02D040F0020001E020F00200BC
:10087000C1F8000C7047F6490028D1F8000C02D0EE
:1008800040F0040001E020F00400C1F8000C7047C3
:10089000EF490028D1F8000C02D040F0080001E038
:1008A00020F00800C1F8000C7047E948D0F8041C9B
:1008B000C90705D0E749C0F80C1CE749C0F80C1C73
:1008C0007047E34A00B5D2F8040C800707D5FFF75C
:1008D000ECFFE248C2F8100CE148C2F8100C00BD71
:1008E000E048016841F0020101607047D8490420E6
:1008F000D1F8182CD20701D001207047D1F8182C5C
:10090000D20501D502207047D1F8181C4FF6F062CD
:100910001142F8D00320704700B50346FFF7E6FF09
:1009200003E000BFFFF7E2FF5B1E012803D0002BAE
:1009300000D1052000BD002BF4D1FAE770B50546C3
:100940004FF400463046FFF7E7FF042816D1C54CA8
:10095000206840F400702060206840F008002060AB
:100960004FF0000028603046FFF7D6FF216821F0E5
:1009700008012160216821F40071216070BD70B50B
:1009800004464FF400460D463046FFF7C5FF0428E5
:1009900004D125603046BDE87040BDE770BDB14868
:1009A000016841F0010101607047A9490028D1F8B0
:1009B000040C02D040F4807001E020F48070C1F893
:1009C000040C704710B504464FF40040FFF7A4FF35
:1009D000042801D10021216010BD70B504464FF4F8
:1009E00000460D463046FFF797FF042809D19D4881
:1009F000016821F48071016025603046BDE87040D7
:100A00008AE770BD70B505464FF400460C46304687
:100A1000FFF782FF04281AD19248016821F48071FF
:100A2000016024B12C703046BDE8704074E725F0B9
:100A300003063468A807C10EFF208840844330466F
:100A4000FFF7C0FF21463046BDE87040C5E770BDE6
:100A5000F0B504464FF400470E463846FFF75CFFFA
:100A60000546042827D17F48016821F48071016080
:100A700026B126803846FFF74FFF12E0E04380079B
:100A800011D024F003063568A007C10E4FF6FF70A1
:100A9000884085433046FFF795FF29463046FFF7EB
:100AA0009CFF054607E000212046FFF7ABFF002131
:100AB000601CFFF7A7FF2846F0BD70B505464FF450
:100AC00000460C463046FFF727FF042815D124B115
:100AD0002C703046BDE870401EE725F003063468F0
:100AE000A807C10EFF20884084433046FFF76AFF05
:100AF00021463046BDE870406FE770BDF0B5044652
:100B00004FF400470E463846FFF706FF0546042817
:100B100022D126B126803846FFF7FEFE12E0E043E0
:100B2000800711D024F003063568A007C10E4FF6E8
:100B3000FF70884085433046FFF744FF2946304622
:100B4000FFF74BFF054607E000212046FFF75AFF5D
:100B50000021601CFFF756FF2846F0BD70B5044623
:100B60004FF400460D463046FFF7D6FE042804D168
:100B700025603046BDE87040CEE670BD344A00B511
:100B8000D2F8040C400707D5FFF78FFE3648C2F8AD
:100B9000140C3648C2F8140C00BD3248016841F00C
:100BA0000401016070472F48016841F48021016011
:100BB000704770B504464FF400460D463046FFF7C7
:100BC000ABFE04281BD12A4A906835B12043D16876
:100BD00080B241EA144189B205E0E1438BB218408A
:100BE000D36803EA1141C34340EA03409060C8431D
:100BF00041EA0040D0603046BDE870408CE670BDF0
:100C000030B504464FF400452846FFF785FEE14322
:100C1000C9B244EA0141042801D1154801602846BF
:100C2000BDE8304078E630B5124B1B6840EA010061
:100C3000C3F3034340EA020040EA03046FEA0400FE
:100C400044EA00444FF40045284615E0003C0240C9
:100C500000300240EFCDAB8905040302BFAE9D8C8E
:100C600016151413043C0240C8D9EAFB2726252494
:100C70000000F81F1C3C0240FFF74EFE042801D183
:100C8000244844602846BDE8304045E630B5224956
:100C900009684FF4004501F4E00140EA11406FEAB1
:100CA000000140EA01442846FFF736FE042801D13E
:100CB000184844602846BDE830402DE616480068D4
:100CC000C0F307507047154800687047124900206C
:100CD0000968C9B2AA2900D0012070470E480068EF
:100CE000C0F3034070470E4A0029D2F8041C01D01B
:100CF000014300E08143C2F8041C7047094A0146E1
:100D0000002012680A4200D001207047054908609F
:100D1000704700000000F81F1C3C0240203C0240CD
:100D200000300240183C02405E4910B5884206D1AE
:100D30000121084600F034FB0021012030E05A492F
:100D4000884206D10121022000F02AFB0021022066
:100D500026E05649884206D10121042000F020FBFC
:100D6000002104201CE05249884206D101210820BC
:100D700000F016FB0021082012E04E49884206D1FF
:100D80000121102000F00CFB0021102008E04A494E
:100D9000884209D10121202000F002FB00212020FF
:100DA000BDE8104000F0FCBA10BDF0B500220123F0
:100DB0005FF003050E6803FA02F42640A6422FD125
:100DC0000768540005FA04F6B74307600F79D0F8B6
:100DD00000C0A74047EA0C0707600F79012F01D038
:100DE000022F11D18768B74387604E798768A64084
:100DF0003E438660868803FA02F7BE438680878872
:100E00008E79964037438780C668570005FA07FCFD
:100E100026EA0C06C660CE79A640C4682643C660A2
:100E2000521C102AC6D3F0BD4FF6FF71016000219D
:100E3000017141718171C171704741F48032C261A9
:100E4000C161C261C169C069704702460020128A4F
:100E50000A4200D001207047008A704702460020F5
:100E6000928A0A4200D001207047808A704701832D
:100E70007047418370470AB10183704741837047CF
:100E8000818270474B07DB0E9A40C90810B500EB12
:100E90008100016A0F249C40A1430162016A114351
:100EA000016210BD00000240000402400008024040
:100EB000000C0240001002400014024010B5012155
:100EC0004C02204600F082FA2046BDE81040002186
:100ED00000F07CBA484800BFD0F808148906FBD55A
:100EE0007047464A00B50346506820F07F70506056
:100EF000D3E9000140EA0100516840EA0100506076
:100F0000FFF7E8FF106820F07E0010601068996815
:100F10000843D3E9031319430843106000BD0021BF
:100F2000016041608160C1600161704734490860BF
:100F300070473449086070473149C8617047324989
:100F40000A6822F070020A600A6842EA00020A6037
:100F500070472D490A6822F460720A600A6842EA02
:100F600000020A607047284A136823F4783313603C
:100F7000136840EA010043EA000313607047224906
:100F80000A6822F4E0520A600A6842EA00020A6033
:100F90007047194A02EB8000C0F8141470471B49CF
:100FA000012008607047144A0029D2F8041401D0C7
:100FB000014300E08143C2F804147047144A01461B
:100FC000002012680A4200D00120704711490860D1
:100FD0007047094A0021D2F80834034200D00121A9
:100FE000D2F80424024202D009B101207047002047
:100FF0007047084908607047002000400024004006
:10100000008004428080044204240040088104429D
:10101000082400400C24004010B501210C07204694
:1010200000F0D4F92046BDE81040002100F0CEB910
:101030003E49086270473E4A116821F0E0010143D1
:1010400011607047394908617047384AA0328150B1
:101050007047364988627047344948627047344A5D
:10106000116821F4C051014321F00C001060704759
:101070002F490028086806D040F001000860086881
:1010800040F4804005E020F480400860086820F0CB
:10109000010008607047264B1A6822F003020243E1
:1010A0001A602448026822F004020260012901D07B
:1010B00020BF704730BF70471D4B1A6822F00302F3
:1010C00002431A604FF0E020D0F8102D42F00402E5
:1010D000C0F8102D012908D0AFF30280D0F8101D00
:1010E00021F00401C0F8101D704730BFF6E710482A
:1010F000016841F004010160016841F002010160F2
:101100000C48016841F00401016030BF7047084A93
:101110000146002052680A4200D00120704704496D
:101120000A6842EA800008607047000000000E4232
:101130000070004010ED00E0C848016841F4807183
:1011400001608168C64A01EA020181600168C54AFE
:1011500001EA02010160016821F4802101608168D7
:1011600021F47D0181604FF00001C1607047BE49EC
:1011700000220A7008707047014600204A09BB4BE4
:10118000012A09D0D3F8342801F01F0101238B4034
:10119000134200D001207047D3F80028F4E730B59F
:1011A00000244FF4A0653120FFF7E6FF641CAC4239
:1011B00001D00028F7D03120FFF7DEFF002800D053
:1011C000012030BDAA4908707047AA4A116821F46D
:1011D000604141EA000111607047A7490862704709
:1011E000A4490A6822F4F85242EA002008607047D5
:1011F000A14908607047A14900220A700870704731
:101200009F4908607047114301439E480170704731
:1012100099490866704798490867704708439A4992
:1012200008707047994A116821F0030141EA0001F2
:10123000116070479548006800F00C007047934AB1
:10124000116821F0F00141EA0001116070478F4AF6
:10125000116821F4E06141EA0001116070478B4997
:101260000A6822F4605242EAC000086070477F4971
:1012700010B5D1F8082812F00C034FF4004205D045
:10128000042B0AD0082B0AD00C2B0AD0D1F8043832
:10129000C3F342335B1C9A401BE07D4A19E07D4A50
:1012A00017E0D1F80828D1F8083802F470127A4C07
:1012B00003F4400304EB92421278012404EB9353AD
:1012C000D1F8084814F4803F26D0724C6243B2FB38
:1012D000F3F201F6080102600A686F4B02F0F002B7
:1012E0004FEA121203F109039C5C026822FA04F22D
:1012F00042600C6804F4E0644FEA14241C5D22FA96
:1013000004F48460096801F460514FEAD121595C0A
:1013100022FA01F2C26010BD5D4CD7E7C0F3014272
:101320005249032A08D1D1F8002822F0C04300F026
:10133000C0421A43C1F8002801F634010A6822F4B9
:1013400040320A600A6800F4403042EA00020A6053
:101350007047524908607047514908607047434AD6
:101360000029D2F81C1801D0014300E08143C2F8E3
:101370001C1870473D4A0029D2F8201801D00143BB
:1013800000E08143C2F820187047384A0029D2F89B
:10139000241801D0014300E08143C2F824187047AB
:1013A000324A0029D2F8101801D0014300E08143ED
:1013B000C2F8101870472D4A0029D2F8141801D02D
:1013C000014300E08143C2F814187047274A0029FE
:1013D000D2F8181801D0014300E08143C2F8181870
:1013E0007047224A0029D2F8281801D0014300E0B2
:1013F0008143C2F8281870471C4A0029D2F82C18DB
:1014000001D0014300E08143C2F82C187047174A0D
:101410000029D2F8301801D0014300E08143C2F81E
:1014200030187047114A002992F80D1801D0014375
:1014300000E0814382F80D1870471A48016841F0B6
:10144000807101607047184A0146002012680A4204
:1014500000D00120704715490870704700380240DD
:101460000CC0FF88FEFFFEEE023802400030024052
:101470000738024004380240000047423538024035
:10148000800647420A3802400B38024008380240C2
:101490000024F40000127A0000000020D806474221
:1014A000DC064742343802400C3802400E38024015
:1014B0000020CA22FF498A614FF053028A610A68FC
:1014C00022F0A0020A60A1F60C014FF4805300BF85
:1014D000D1F80C28401C02F02002984201D0002ACA
:1014E000F6D0D1F80C08800601D5012000E00020DC
:1014F000FF22C1F824287047EF480021D0F80C28BB
:10150000520612D44A1EC0F80C284314D0F80C28F6
:10151000491C02F04002994201D0002AF6D0D0F8CE
:101520000C08400601D4002070470120704770B5B8
:101530000025E14CCA202E46C4F824085320C4F8E4
:101540002408FFF7D9FF70B30020C4F8000842F266
:101550000111C4F80418D4F8081801F00701C4F800
:1015600008186214D4F80C186D1C01F0040195429F
:1015700001D00029F6D0D4F80C18490718D504F684
:101580000804216820604FF6FF71E160CB49A1603B
:1015900020616061A0616060A063A4F60804FFF7A9
:1015A00087FF28B10126FF20C4F82408304670BD0B
:1015B0000026F8E7BF48016821F08001016070470C
:1015C00070B5BD4C05460026CA20C4F82408532037
:1015D000C4F82408FFF790FFB0B104F608042068AF
:1015E00020F0400020602068296840EA0100206067
:1015F000A868A060A068696840EA0140A060A4F6FD
:101600000804FFF7D7FF0126FF20C4F8240830465E
:1016100070BD002101607F214160FF218160704722
:10162000A54908B1FF2003E0CA20C1F824085320CF
:10163000C1F82408704770B59F4C06460025CA20A3
:10164000C4F824085320C4F82408FFF755FF60B1FC
:10165000D4F8080816B140F0100001E020F01000A6
:10166000C4F80808FFF7A6FF0125FF20C4F82408E6
:10167000284670BD2DE9F0418F4D00270C4600280B
:101680000978D5F808083A464FEA406005D00028A6
:101690002FDA084600F068FB2CE0002800DBE2703F
:1016A000084600F054FB0604607800F050FB46EA60
:1016B0000026A07800F04BFB0643E07846EA00469F
:1016C000CA20C5F824085320C5F82408FFF714FFE2
:1016D00048B17B480640C5F80068FFF76BFFFFF78D
:1016E000E7FE00B10127FF20C5F824083846BDE811
:1016F000F081E270A078217840EA01466078E178D4
:10170000000240EA01400643DAE70021C17001709F
:1017100041708170704710B50C466A490968684A83
:10172000002801EA0201C1F305422270C1F3062339
:10173000637001F07F0301F48001A3704FEA11414F
:10174000E1700BD1104600F00FFB2070607800F0C4
:101750000BFB6070A07800F007FBA07010BD70B5A7
:101760000C464968002688B1C8B200F0FDFA207A1C
:1017700000F0FAFA207A617A40EA0145606821684F
:101780004FEA002040EA4130054316E0C80603D581
:1017900021F010000A306060607A00F0D8FA050489
:1017A0006068C0B200F0D3FA45EA0025207A00F064
:1017B000CEFA0543206845EA40353F4CCA20C4F8BC
:1017C00024085320C4F82408FFF796FE48B13E4889
:1017D0000540C4F80458FFF7EDFEFFF769FE00B1BD
:1017E0000126FF20C4F82408304670BD01210160A5
:1017F0000172416000214172704710B50C463349B7
:101800000968314A002801EA02014FEA1142627276
:10181000C1F30423636001F03F032372C1F342313B
:1018200021600FD1104600F09FFA60726068C0B26C
:1018300000F09AFA6060207A00F096FA2072206830
:10184000C0B2206010BD2DE9F0410E461A4D0021B6
:101850000028D5F8080814464FEA406005D0002853
:101860003DDA207800F080FA3AE0002800DBE170F1
:10187000207800F06CFA0704607800F068FA47EA14
:101880000027A07800F063FA0743E07847EA0047B2
:10189000207B00F05CFA47EA0060A16808436168B9
:1018A0000843CA21C5F824185321C5F82418B6F5F1
:1018B000807F0DE00C28004000200040FF007F00EA
:1018C0007F7F7F00002800403FFFFF00042800408A
:1018D00017D0C5F82008FF20C5F8240807E7E170F5
:1018E000207B00F041FAA0782178E27840EA0140BC
:1018F0006178090241EA02410843217B40EA016024
:10190000CBE7C5F81C08E6E70021C1700170417003
:1019100081700122816002734160704710B51446E6
:10192000FD4AB1F5807F2AD0D2F82018C1F30542D4
:101930002270C1F30623637001F07F03A37001F4EA
:1019400080031B0CE370C1F30563237301F0804334
:1019500001F08031C4E9011300280FD1104600F0D6
:1019600003FA2070607800F0FFF96070A07800F052
:10197000FBF9A070207B00F0F7F9207310BDD2F8BE
:101980001C18D3E710B5E44A0023CA24C2F824483F
:101990005324C2F824480029D2F8081803D0014380
:1019A000C2F8081812E08143C2F808184FF4005436
:1019B000D2F80C185B1C01EA1021A34201D00029C7
:1019C000F6D0D2F80C1811EA102000D00120FF2127
:1019D000C2F8241810BDD149CA22CA614FF053027F
:1019E000CA610A6822F007020A600A6842EA000235
:1019F0000A604FF0FF00C8617047C949CA220A61F6
:101A00004FF053020A6108604FF0FF000861704711
:101A1000C348006880B27047BF490022CA23C1F89A
:101A200024385323C1F824380028D1F8080804D0FA
:101A300040F48060C1F8080815E020F48060C1F827
:101A400008084FF4005300BFD1F80C08521C00F0F6
:101A500004009A4201D00028F6D0D1F80C084007C3
:101A600001D4002000E00120FF22C1F824287047A3
:101A7000AA4ACA23D3614FF05303D361136823F4F6
:101A800080231360136840EA010043EA00031360F7
:101A90004FF0FF00D0617047A048006800F480203C
:101AA00070479E4ACA23D3614FF05303D361136832
:101AB00023F4E0031360136840EA010043EA0003E3
:101AC00013604FF0FF00D0617047F0B5924C0646AE
:101AD0000025CA200F46C4F824085320C4F824085F
:101AE000FFF70AFD28B13E43C4F81868FFF762FD0E
:101AF0000125FF20C4F824082846F0BD70B5864CA7
:101B000006460025CA20C4F824085320C4F8240837
:101B1000FFF7F2FC60B1D4F8080816B140F080007D
:101B200001E020F08000C4F80808FFF743FD01251C
:101B3000FF20C4F82408284670BD7749CA22C1F89E
:101B400024285322C1F824280028D1F8080802D0FC
:101B500040F4000001E020F40000C1F80808FF2074
:101B6000C1F8240870476C4B10B5D3F8082840F62C
:101B70000804A24342EA000209B142F4006203F6FB
:101B80000803CA20D8614FF05300D8611A604FF0A3
:101B9000FF00D86110BD70B51546624A0C46116849
:101BA000614B526801EA03014FF63F7302EA0302F8
:101BB000C1F305432370C1F30623637001F07F0373
:101BC00001F48001A3704FEA1141E1704FF0000170
:101BD0006972C2F30421696002F03F012972C2F305
:101BE00042312960002819D1207800F0BDF820701A
:101BF000607800F0B9F86070A07800F0B5F8A070D7
:101C00006868C0B200F0B0F86860287A00F0ACF8FC
:101C100028722868C0B200F0A7F8286070BD3E4A5C
:101C20000029D2F8401804D041EA4000C2F8400828
:101C3000704721EA4000F9E7374A0029D2F84018F6
:101C400001D0014300E08143C2F840187047354A93
:101C5000203242F8201070473249203151F82000DC
:101C6000704732490A6822F480220A600A6842EA10
:101C700000020A607047284ACA23C2F82438532356
:101C8000C2F82438002920F00403D2F8081800F024
:101C9000040006D01943C2F80818D2F840180143CE
:101CA00005E09943C2F80818D2F840188143C2F8F9
:101CB0004018FF20C2F8240870471D490246002042
:101CC000096843F6777301EA0301114200D001204D
:101CD000704780B240F08000C1431548026802F0AE
:101CE000800241EA0201016070470C4A10B5936B13
:101CF000002103F00404136804EAD03403EA00036B
:101D00005268234302EA101003D00004000C00D0F4
:101D10000121084610BD00000020004008280040B6
:101D200014280040302800407F7F7F00402800407A
:101D30000C280040C0F30F1040F08000C1430F4852
:101D4000026802F0800241EA02010160704700214E
:101D500003E0491C0A38C9B2C0B20A28F9D20907FF
:101D600040EA116108467047010901EB810100F06A
:101D70000F0000EB4100C0B2704700000C2800408B
:101D800070B5012080F31088314C02200A21E070E8
:101D900020711420A071E07161710025A57020727E
:101DA0006172A072E572257300F052FE00F046FDEC
:101DB00000F052F885F310880120207070BD70B5D6
:101DC000234C0821002520780C2840D2DFE800F0C1
:101DD0003F06191D3F3F3F3F1F3F232F012080F348
:101DE00010881B4A1B4918320868136860F3000307
:101DF00020F0010013600860002080F310880220AA
:101E000013E000F005FD03200FE0217070BD00F02D
:101E100050F80A2009E0657000F0EDFA6078401C87
:101E200010F0FF006070F7D00B20207070BD00F044
:101E300055FB07481C30A0F10C0201881180058079
:101E4000001D121D0178117005700120EDE7FEE7FD
:101E50001C000020780000202DE9F05FFF4C0020DE
:101E600080262070FE4D46274FF028086FF0450968
:101E70004FF0040A4FF0010B00F01AFB28680A210A
:101E80000670877780F81F8080F8209080F821A066
:101E900080F822B080F823102078401C10F0FF005A
:101EA0002070E9D0EF48416841F400714160BDE81D
:101EB000F09F2DE9F047E9480025057000F0F8FA99
:101EC000E7480068007808282CD080282AD0E64C03
:101ED000DFF89893E6492570DFF898A3DFF884834C
:101EE000E54BE64D0127207803EB400C39F8102034
:101EF0000A603AF810200A7100EB400208EB420237
:101F000002F10A068E600F7313F810609CF801C08E
:101F1000401C55F82660C0B2032836F81C60568174
:101F20002070E0D3BDE8F087CD48006840688107A5
:101F300003D5C00701D000F0F4BB7047C848006863
:101F40004068800701D400F010BC7047C64830B428
:101F5000C349002303700968027802EB420201EBD7
:101F60004202948955892C4494810278521CD2B241
:101F70000270032AF0D30A7A521E12F0FF020A728C
:101F800011D10370027802EB420201EB4202938905
:101F9000DB0893810278521CD2B20270032AF1D37B
:101FA00030BC00F08BBB30BC7047AF4810B500218F
:101FB0000170AB4941F2F3230A68017801EB410457
:101FC00002EB44046489963C9C4201D3FF2010BD7F
:101FD000491CC9B201700329EFD3002010BD70B5B0
:101FE000A14C00209E4DA64E2070C0B200F06AFAAF
:101FF0002868B6F9001090F9200088420ADB2968A9
:10200000887B401E10F0FF0088730DD1BDE8704042
:1020100000F087BB2078401CC0B220700328E4D3B6
:10202000BDE8704000F041BB70BD70B58E4C002023
:102030008B4D934E2070C0B200F044FA2868B6F978
:10204000001090F91F00884203DABDE8704000F0EC
:102050005BBB2078401CC0B220700328EBD32968FA
:10206000887B401E10F0FF00887303D1BDE87040EC
:1020700000F024BB70BD2DE9F84F0020814A824951
:102080000090824B1080784D088018807C4C074669
:1020900080462870934699468A46C0B200F012FAEC
:1020A000B4F90000002801DA002020806C48B4F95F
:1020B00000202E7801688889504306EB460201EB28
:1020C00042018989B0FBF1F0714900B2208031F8FA
:1020D0001610B1F5807F02D04143080A2080B4F980
:1020E0000000BBF9002090420ADDBAF800C0A9F850
:1020F00000C0AAF80020B846ABF8000037460FE051
:10210000BAF90020904205DDA9F80020AAF80000E5
:10211000B04605E0B9F90020904201DDA9F80000C1
:10212000761CF0B228700328B7D34D48BAF90020C6
:10213000006890F91F10C1F347035B1E934244DC13
:10214000B9F800104C4C521A93B2BBF80020A41DF1
:10215000511A07EB470204EB420489B234F9182004
:10216000CC05240C1944B4FBF1F1002A02DD01EB8B
:10217000420103E0C2F10002C1EB4201436809B22F
:102180009A050ED50029A1F1800101DC01F58071CD
:1021900009B20A0400D5002111F4FE4F02D0FF213C
:1021A00000E0C9B2DA05002A427FCCB232DAA2429C
:1021B00018D2A41AFF2C15DA90F8234014448C424C
:1021C00004DD00BF90F82210017578E0047D641EE4
:1021D00014F0FF04047572D190F82240047523F4C2
:1021E0008073436001F1FF039A425EDD90F8233073
:1021F000134401F580729342E4DC027D521E12F01A
:10220000FF0202755BD190F822200275426822F429
:10221000807249E0A24213D9141BFF2C10DA90F807
:1022200023400C449442CDDC047D641E14F0FF0472
:10223000047544D190F82240047543F480734360E0
:1022400002F1FF038B4230DA90F8233002F58072FE
:102250000B449342B6DC027D521E1BE01D000020A1
:1022600044000020E40000204000002098570008AF
:10227000180100209E5700087A57000858000020D7
:102280004800002050000020520000205400002090
:102290009257000812F0FF02027510D190F8222028
:1022A0000275426842F480724260C9B2417790F888
:1022B0002120C2F10802D140027F8A4202D1009857
:1022C000BDE8F88F0177416841F010014160FF20BF
:1022D0000090F5E770B56F4C00206F4D6F4E207089
:1022E000C0B200F0EFF82868B6F9001090F91F00AE
:1022F000884207DAFFF7BFFE002816D1BDE870401C
:1023000000F047BA2078401CC0B220700328E7D301
:1023100000F0F2F962480078002806D12968887B2D
:10232000401C8873BDE870407FE670BD70B5594CA5
:102330000020594D594E2070C0B200F0C3F82868F3
:10234000B6F9001090F91E0088420EDC00F018FA71
:102350002968887B401E10F0FF0088730FD1FFF7BB
:102360008AFEBDE8704000F0B8B92078401CC0B2C9
:1023700020700328E0D3BDE8704000F096B970BD2E
:102380002DE9F041434C0027434D444E27702078FF
:1023900000F098F82868B6F9001090F920008842FB
:1023A00003DBBDE8F04100F0B4B92078401CC0B2B6
:1023B00020700328EBD32770207800F083F828687A
:1023C000B6F9001090F91E0088420CDC00F07DF98F
:1023D0003448007800280CD12968887B401C887319
:1023E000BDE8F041A2E72078401CC0B2207003286D
:1023F000E2D3BDE8F08110B500F05AF8264C206811
:102400000078112829D008DC012829D002280BD017
:10241000042816D0082806D119E014280ED0242844
:1024200018D0802823D0FEE7FFF7BFFD18B100BF0A
:1024300000F090F91DE0FFF7A3FF08E0FFF776FF3B
:1024400017E0FFF7B2FD0028F2D1FFF743FFFFF7D7
:1024500075FD0EE0FFF7E9FD0BE0FFF7C0FD08E0BA
:10246000FFF7A3FD0028E3D1FFF770FDEFE7FFF7CB
:102470005BFD0D4920680A8883881A430A800B494E
:1024800003780A781A430A70416821F01801416004
:1024900010BD000040000020440000204800002043
:1024A000200000201F000020380000203C000020F9
:1024B000C148C249007800EBC00001EB8000C04970
:1024C0000860704700EB4001BD48006800EB410028
:1024D00081894089081ABB49088070472DE9F84F67
:1024E000012080F31088B849B84B4FF0000B086802
:1024F00018608BF31088DFF8D8A2DFF8C4C2B54AA1
:10250000DFF8B492C1F800B09BE0B34F387808B15F
:10251000401E3870B1490878401E10F0FF00087066
:1025200007D10A2008709AF8000010B1401E8AF8FE
:102530000000AB48012403780020009089F800B027
:10254000FFF7B6FFDCF800000078142806D0042856
:1025500004D0242802D0022805D02AE0A14801781E
:102560008AF800102DE0974DDFF87C82584682F8FB
:1025700000B0C0B2FFF7A6FFB8F800102E883144B3
:10258000A8F800101078401CC0B210700328F0D3D7
:10259000B8F90000002808D0009804DA002804DC0C
:1025A0004FF0FF3004E0002801DA002401E00120B0
:1025B000009099F80010491C11F0FF0189F80010F3
:1025C000BED038789AF8001008433AD1874800788E
:1025D00038700CB186480378D843401CC4B283B32A
:1025E000D8464F4689F800B0FFF762FFDCF800508C
:1025F000287802281FD1404682F80080C0B200EB44
:10260000400005EB4000C17B868901EB062146892D
:102610006143360203FB06110E0C8681080A11780D
:1026200001EB410105EB4101C8731078401CC0B2B9
:1026300010700328E2D33878401C10F0FF00387087
:10264000D2D062480168491E0160BFF45EAFBDE8A8
:10265000F88F2DE9F0430546574A0020DFF85C81EA
:10266000644E654F5B4910708146147804EBC403D7
:1026700018F8233013F0880F10D14B4681F80090E2
:10268000DBB236F813C0AC4503D137F813C04CEABF
:1026900000005B1CDBB20B70032BF1D3641C14F045
:1026A000FF031370E1D0BDE8F083454802210068C4
:1026B0000170416821F08401416070474048006822
:1026C000416841F008014160EFE73D48142100688E
:1026D00001704A49097881737047394804210068BC
:1026E0000170416841F00C0141604549097801726F
:1026F00090F822100175704731482421006801705C
:1027000040490978817370472D4904200968087091
:1027100070472B481121006801703B49097881738B
:1027200070472748012201680A70486820F0840039
:1027300040F0080048600820087200204FEA0002BC
:1027400000EB400301EB4303401CC0B29A81032815
:10275000F6D370471A48082100680170416821F0DB
:10276000840141F0280141607047154880210068CC
:102770000170416821F0840141F008014160704717
:102780000F48006841680A0602D441F080014160A8
:1027900070471E480068C0070CD019480078002810
:1027A00008D007480168087A401E10F0FF00087240
:1027B00000D1B6E7704700001D000020E4000020B3
:1027C0004400002048000020680000204C00002049
:1027D00027000020400000202600002028000020C4
:1027E00025000020230000205000002022000020AF
:1027F00024000020985700089E5700081F00002062
:102800001E000020200000202100002034000020B5
:1028100010B5094C002020830120FFF71AFF10B1EA
:10282000218B01432183208B002803D0BDE8104079
:1028300000F046B910BD00002801002010B54B483B
:102840000024846044600460C4601C300470484804
:10285000FEF70DFD46484FF4FA614068B0FBF1F019
:10286000B0F1807F0DD220F07F414FF0E020491E73
:102870004161404AF021117084614FF0070101610C
:1028800010BDFEE7394881680A2906D30A398160FC
:102890001C30016841F00101016070473348416814
:1028A0000A2905D30A3941608168491C8160E9E73A
:1028B00070472E480168142908D314390160416813
:1028C000491C4160C168491CC160E7E77047274A5D
:1028D00010B51068401C1060906910B19069401EDE
:1028E0009061FFF7E6FF21484FF0C8031C300168F4
:1028F0008C0703D521F00601016013610C0703D595
:1029000021F0180101605361116931B1491E116153
:1029100003D1016841F0040101605169002906D02A
:10292000491E516103D1016841F01001016010BDE1
:1029300000B50246012080F310880C4B142A186859
:1029400003D91430143A186002E0401C521E18607B
:10295000FFF7AFFF002AF1D1002080F3108800BDFF
:102960000249886188690028FCD170475C0000201A
:102970000801002023ED00E002E0A0F1010080B298
:102980000028FAD1704700B5FF4908684CF2C03200
:1029900020EA020008604FF0010080F31088FB4835
:1029A000838A23F080038382036823F4404343F443
:1029B00080430360B0F8143423F00203A0F8143409
:1029C000D0F8003423F00C0303F10403C0F8003402
:1029D000B0F8143823F02003A0F81438D0F80038E9
:1029E00023F4406343F48063C0F80038838A23F003
:1029F00040038382036823F4405343F4805303600D
:102A0000B0F8143423F00103A0F81434D0F80034E3
:102A100023F0030303F10103C0F80034B0F81438C5
:102A200023F01003A0F81438D0F8003823F44073D2
:102A300043F48073C0F800384FF0000080F3108832
:102A40004FF06400FFF798FF08689043086000BDEE
:102A5000CF48016841F001010160CB498A6842F02A
:102A6000C0028A60026842F0020202608A6842F490
:102A700040328A60026842F004020260CA6842F092
:102A80003002CA60826842F000428260086820F02A
:102A900000400860BD4881888180C168C160B0F88D
:102AA0000414A0F80414D0F80C14C0F80C14B0F8F6
:102AB0000418A0F80418D0F80C18C0F80C1862E735
:102AC0002DE9F041B34A0023B34C13805380938027
:102AD000D380138153819381D381138253825361B5
:102AE000D4F8080C1D464CF2C037B843C4F8080CA3
:102AF000012080F31088A549888A20F08000888210
:102B0000086820F4404040F480400860B1F81404A4
:102B100020F00200A1F81404D1F8000420F00C0009
:102B2000001DC1F80004B1F8140820F02000A1F83D
:102B30001408D1F8000820F4406040F48060C1F827
:102B40000008888A20F040008882086820F44050FD
:102B500040F480500860B1F8140420F00100A1F89E
:102B60001404D1F8000420F00300401CC1F8000454
:102B7000B1F8140820F01000A1F81408D1F80008EA
:102B800020F4407040F48070C1F8000885F310888C
:102B90003220FFF7F1FE4FF0010080F31088086843
:102BA00020F440500860D1F8000420F00300C1F880
:102BB0000004D1F8000820F44070C1F8000885F343
:102BC000108848F2802C44F2401640F6B83800BF16
:102BD000D4F8080C40EA0C00C4F8080C4FF00100CF
:102BE00080F31088888A40F040008882086820F4CA
:102BF000405040F480500860B1F8140440F00100E7
:102C0000A1F81404D1F8000420F0030000F1010041
:102C1000C1F80004B1F8140840F01000A1F814083D
:102C2000D1F8000820F4407040F48070C1F800082A
:102C30004FF0000080F3108800BF5069C50706D12F
:102C40000D8AAD0703D5138040F0010050614506A1
:102C500007D4B1F81054AD0403D5938140F040007F
:102C60005061050607D4B1F81058AD0703D5D381DC
:102C700040F080005061850507D4B1F810582D064A
:102C800003D5538240F400705061050706D40D8AC5
:102C9000AD0503D5D38040F008005061C50606D4C9
:102CA0000D8A6D0403D5138140F010005061850733
:102CB00006D40D8A2D0603D5538040F002005061E2
:102CC000450707D4B1F81054AD0703D5938040F001
:102CD00004005061850607D4B1F81054AD0603D541
:102CE000538140F020005061C50507D4B1F8105859
:102CF000AD0603D5138240F48070506103F10103E7
:102D00009BB24FF0010080F31088086820F4405017
:102D10000860D1F8000420F00300C1F80004D1F8E5
:102D2000000820F44070C1F800084FF0000080F364
:102D30001088D4F8080C40EA0600C4F8080C00BF5C
:102D40004FF0010080F31088086820F440400860CC
:102D5000D1F8000420F00C00C1F80004D1F80008FC
:102D600020F44060C1F800084FF0000080F31088A4
:102D7000D4F8080C20EA0700C4F8080C43450DD924
:102D800000BFBDE8F0810000087C00400000024068
:102D90001C3802402801002000700040108B55694B
:102DA000A8437FF415AFECE710B50420FEF706F951
:102DB0000028FAD1FF49002201EB8003C3F8142454
:102DC000401CC0B20F28F7D9BDE81040FEF7E7B8A5
:102DD00000B585B000204FF47011CDE900010C2141
:102DE00002914021CDE903106846FEF77AF80120F0
:102DF000FEF7A2F84FF48050FEF7C1F80020FEF76E
:102E0000A8F84020FEF79BF8FEF764F80120FEF7D3
:102E10008DF80120FEF7D2F80028FAD01020FEF736
:102E2000CDF80028FAD04FF480410020FEF79BF83F
:102E3000FFF7BAFF05B000BD7CB501213F20FEF7CA
:102E40008EFA6846FDF7F0FF48F20E70DA4D022464
:102E500000908DF8044069462846FDF7A6FF0B2236
:102E600001212846FEF70EF80B2202212846FEF724
:102E700009F80B2203212846FEF704F80B2208214B
:102E80002846FDF7FFFF0B2209212846FDF7FAFF30
:102E90000B220A212846FDF7F5FF0B220F212846B9
:102EA000FDF7F0FF4FF63870C44D00908DF80440E8
:102EB00069462846FDF779FF0B2203212846FDF7D6
:102EC000E1FF0B2204212846FDF7DCFF0B22052140
:102ED0002846FDF7D7FF0B2208212846FDF7D2FF31
:102EE0000B2209212846FDF7CDFF0B220A21284697
:102EF000FDF7C8FF0B2211462846FDF7C3FF0B2242
:102F00000C212846FDF7BEFF0B220D212846FDF7B8
:102F1000B9FF0B220E212846FDF7B4FF0B220F212B
:102F20002846FDF7AFFF8DF8044040F6CF70A44C63
:102F3000009069462046FDF738FF0B22002120460D
:102F4000FDF7A0FF0B2201212046FDF79BFF0B227E
:102F500002212046FDF796FF0B2203212046FDF7B4
:102F600091FF0B2206212046FDF78CFF0B22072143
:102F70002046FDF787FF0B2208212046FDF782FF40
:102F80000B2209212046FDF77DFF0B220A21204656
:102F9000FDF778FF0B2211462046FDF773FF002155
:102FA0003F20FEF7DCF97CBD70B5864800684FF421
:102FB000E05600F4E054804D0BE000BF04F580645F
:102FC000B44200D900242046FDF7D9FF642000F068
:102FD000E3FBB5F81008C007F0D070BD7A4801686F
:102FE00021F420410160816821F420418160026860
:102FF00076490B7842EA033202608268497842EAF5
:1030000001318160704738B51C466B4600F08FFA7D
:103010000420FDF7D3FF0028FAD16648072C7ED2A2
:10302000DFE804F07D04449FFEFDFC0000F2144044
:103030000268674902EA01020260826802EA01024C
:103040008260026902EA01020261826902EA010207
:1030500082619DF8001001F0030201F00C0142EAC8
:103060008161026841EA020101609DF8011001F0EE
:10307000030201F00C0142EA8161826841EA020127
:1030800081609DF8021001F0030201F00C0142EA98
:103090008161026941EA020101619DF8031001F0BA
:1030A000030201F00C0142EA8161B3E000F2144036
:1030B0000268484902EA01020260826802EA0102EB
:1030C0008260026902EA01020261826902EA010287
:1030D000826102689DF8001001F00C0342EA03626D
:1030E00001F002034FEA831301F0010143EA810179
:1030F00042EA0102026082689DF8011001F00C03AF
:1031000042EA036201F002034FEA831301F0010176
:1031100043EA810142EA01028260026900E06BE158
:103120009DF8021001F00C0342EA036201F0020371
:103130004FEA831301F0010143EA810142EA0102EF
:10314000026182699DF8031001F00C0342EA0362F8
:1031500001F002034FEA831301F0010143EA810108
:1031600047E100F21440016821F003210160816809
:1031700021F003218160016921F00321016181694E
:1031800021F0032181619DF8001001F00C024FEA4B
:10319000825201F0030142EA0121026841EA020180
:1031A00001609DF8011001F00C024FEA825201F01B
:1031B000030111E000200040000002400004024032
:1031C0000008024004240040242400407D00002028
:1031D000FCFFFFCF03FFFFF342EA0121826841EACF
:1031E000020181609DF8021001F00C024FEA825248
:1031F00001F0030142EA0121026941EA0201016191
:103200009DF8031001F00C024FEA825201F0030115
:1032100042EA0121826941EA020102E092E04AE0C9
:1032200001E08161E8E000F214400268F84902EA36
:1032300001020260826802EA01028260026902EA17
:1032400001020261826902EA010282619DF80010B6
:1032500001F00C024FEA824201F0030142EA8121AF
:10326000026841EA020101609DF8011001F00C02C0
:103270004FEA824201F0030142EA8121826841EA79
:10328000020181609DF8021001F00C024FEA8242B7
:1032900001F0030142EA8121026941EA0201016170
:1032A0009DF8031001F00C024FEA824201F0030185
:1032B00042EA8121AEE700F21440016821F4432183
:1032C0000160816821F443218160016921F4412179
:1032D0000161816921F4412181619DF8001001F0B3
:1032E0000C024FEA024201F0030142EA0131026896
:1032F00041EA020101609DF8011001F00C024FEA61
:10330000024201F0030142EA0131826841EA02010E
:1033100081609DF8021001F00C024FEA024201F0B8
:10332000010142EA0131026941EA020101619DF8AD
:10333000031001F00C024FEA024201F0010142EADF
:10334000013167E700F21440016821F47031016037
:10335000816821F470318160016921F4703101616B
:10336000816921F47031816102689DF8001001F0DB
:10337000040342EAC33201F008034FEA433301F089
:10338000030143EA813142EA0102026082689DF84A
:10339000011001F0040342EAC33201F008034FEACE
:1033A000433301F0030143EA813142EA01028260C2
:1033B00002699DF8021001F0040342EAC33201F0F1
:1033C00008034FEA433301F0010143EA813142EA45
:1033D0000102026182699DF8031001F0040342EAD0
:1033E000C33201F008034FEA433301F0010143EA1D
:1033F000813142EA01028261FFF7F0FDFDF7CFFD66
:1034000038BD70B50546012408E000222346114668
:103410002846FFF7F8FD6D1C641CE4B228780028EC
:1034200001D0082CF1D370BDF8B50124A6030546E0
:10343000E70315E08DF8000000F47040B04206D0BC
:10344000B84223464FF0000203D1012102E0234697
:10345000012200216846FFF7D6FDAD1C641CE4B2D2
:103460002888002801D0082CE4D3F8BD2DE9FC47BA
:1034700088460021914600910191002855D00146CF
:10348000002502E06D1CEDB2491C0A78002AF9D132
:103490000446FFF7B6FF484600F07EF9002742E0F9
:1034A00000203CE0461CB6FBF5F105FB1161615CB8
:1034B0008DF80010811CB1FBF5F205FB1211615C67
:1034C0008DF80110C11CB1FBF5F205FB1211615C16
:1034D0008DF80210011DB1FBF5F205FB1211615CC4
:1034E0008DF80310411DB1FBF5F205FB1211801D93
:1034F000615C8DF80410B0FBF5F105FB1100205C58
:103500008DF80500FFF750FC6846FFF77AFF414849
:103510000078002809D1484600F03EF9F0B2A842F0
:10352000C0D37F1CFFB24745BAD3BDE8FC8770B556
:1035300000780024352874D018DC302871D00CDCD9
:103540002A284DD004DC202835D0252822D15BE064
:103550002D2851D02F281DD151E0312861D032289B
:103560005FD033285DD0342814D15AE06D283DD087
:1035700008DC362855D0372853D0382851D0392880
:1035800008D14EE06E2834D0B0283AD0B5282AD0E1
:10359000FF2843D0A0F141061F4D1A2E03D205EBA0
:1035A000400434F8824CA0F161061A2E03D205EBD8
:1035B000400030F8C24C09B144F002040AB144F0B2
:1035C00020040C215FF0000024FA01F202F00F0247
:1035D0001A54091F401CC0B2C9B20428F4D370BDEC
:1035E0004AF2DD04E7E746F28404E4E74BF21024F4
:1035F000E1E742F21024DEE74FF42044DBE7C02489
:10360000D9E74FF46C44D6E74FF43344D3E70000D6
:10361000FFF3CFFF7C000020A45700084FF6DD74B5
:10362000C9E7034C04EB400030F8604CC3E70000EE
:10363000D85700087047FEE7FEE7FEE7FEE7FEE723
:10364000FEE7FEE710B5012080F3108800F0A8FB2C
:10365000002080F3108810BD2DE9F041474A002179
:1036600001201070020546480CE0491C914209D126
:10367000FDF71BF901214348FDF7C4F9BDE8F0410E
:10368000FDF78DB9038ADB07EFD13E4909780029A0
:1036900028D13D490A78521CD2B20A70072A01D1BA
:1036A00000220A703949D7B280240B7891F801C002
:1036B000402523F008064CF0080243F00803072FCA
:1036C00010D2DFE807F0040B111620273100A0F814
:1036D0001844A0F81A542CF00A0010E0A0F81A546C
:1036E000A0F81844BDE8F081A0F81A44A0F81854D6
:1036F000F8E7A0F81A44A0F81A5422F00200487023
:1037000026F0020019E0A0F81A44A0F81A5422F09A
:10371000020005E0A0F81A44A0F81A5442F0020092
:10372000487023F0020008E0A0F81A44A0F81A54E8
:1037300042F00200487043F002000870D2E710B572
:10374000012080F310881248007810B1FFF784FF41
:1037500002E01049012008700120FDF76BF80020FD
:1037600080F3108810BD10B54FF48040FEF7E2FAE8
:10377000BDE810404FF48010FDF75CB87C000020DD
:103780000000024004000808800000207D000020A6
:10379000BC00002088000020FF49486048680028DD
:1037A000FCD170472DE9F04186B000258DF804501A
:1037B000FA4E01248DF80750032700948DF8057008
:1037C00069463046FDF7F1FA00210846FCF704FD92
:1037D0008DF80C5008208DF80D0002948DF80E40E5
:1037E00002A8FCF7C2FF06208DF810000F208DF80C
:1037F00011008DF812008DF8134004A8FCF79BFD12
:103800008DF80440C0208DF80650DFF894830090B6
:103810008DF807508DF8054069464046FDF7C5FA1A
:103820008020A6F81A044020A6F81A04C401DD4D31
:10383000694628460094FDF7B8FAA6F8184848F2F9
:103840000E70022400908DF8044069463046FDF762
:10385000ACFA0B2201213046FDF714FB0B220221AA
:103860003046FDF70FFB0B2203213046FDF70AFB24
:103870000B2208213046FDF705FB0B2209213046BB
:10388000FDF700FB0B220A213046FDF7FBFA0B2265
:103890000F213046FDF7F6FA4FF6387000908DF89C
:1038A000044069464046FDF780FA0B22032140465A
:1038B000FDF7E8FA0B2204214046FDF7E3FA0B225C
:1038C00005214046FDF7DEFA0B2208214046FDF7B0
:1038D000D9FA0B2209214046FDF7D4FA0B220A211E
:1038E0004046FDF7CFFA0B2211464046FDF7CAFAD3
:1038F0000B220C214046FDF7C5FA0B220D21404654
:10390000FDF7C0FA0B220E214046FDF7BBFA0B2251
:103910000F214046FDF7B6FA40F6CF7000908DF8C3
:10392000044069462846FDF740FA0B22002128464C
:10393000FDF7A8FA0B2201212846FDF7A3FA0B2276
:1039400002212846FDF79EFA0B2203212846FDF7A7
:1039500099FA0B2206212846FDF794FA0B2207213B
:103960002846FDF78FFA0B2208212846FDF78AFA30
:103970000B2209212846FDF785FA0B220A21284649
:10398000FDF780FA0B2211462846FDF77BFA10203E
:1039900000908DF8047069463046FDF706FA06B0CF
:1039A000BDE8F08110B50120FDF722FC2120FDF7D4
:1039B000E3FB0028FAD00120FDF734FC4FF440402F
:1039C000FDF703FC01213F20FDF7C9FC01217648EA
:1039D000FDF7DBFC012140F20120FDF7CBFC0120CB
:1039E000FDF726FB0120FDF7B7FC0020FDF7B4FC36
:1039F0000120FDF700FC4920FDF7BEFB0028FAD0AE
:103A00004FF48030FDF78AFC0120FDF7A2FC002076
:103A1000FDF7ADFB3120FDF7AFFB002800D0FEE73E
:103A200010BD00F063FB5C4D68800220FDF76FFB6A
:103A300040B101210807FDF7A8FC0220FDF76FFB4C
:103A4000012600E00026FFF7ADFF4FF40060FDF710
:103A500006FB1020FDF75BFB0028FAD1FFF7A2FE62
:103A600000F0C9FA002080F31088FEF789F94F486A
:103A70004FF000094F46416841F00301416080F872
:103A80000990FFF7A5F94A4C27704A49434F012096
:103A90000870388AC00701D001F003F8DFF818A1D8
:103AA0004FF4967840F2DC5B36B19AF800000028BB
:103AB00034D000F0AAFF54E0FCF7F7FE00213E48A6
:103AC000FCF7A0FFFCF76BFF424601213BA0FFF78C
:103AD000CDFC2078002844D14FF440418800FDF708
:103AE00042FA3EA0FFF78DFC207810B95846FFF748
:103AF00053FE207810B95846FFF74EFE207810B9D3
:103B00005846FFF749FE207810B95846FFF744FEA3
:103B10004FF480410020FDF726FA22E042460121C1
:103B200030A0FFF7A3FC344869880078814201D9AE
:103B3000081A688000F015FD0646688801F094FCBC
:103B4000314601F0A5FC6FF00B0101F0D6FD2B49C9
:103B500001F09EFC01F068FC00F0F3FD20780028E5
:103B6000FCD04E4684F800902548B846417802784B
:103B700021F00A01417022F00A0101708021A7F8AA
:103B800018144021A7F81A142E705746387808B137
:103B900000F0ECFE287835E08000002000000240B4
:103BA000000402400008024000020090E4000020EF
:103BB0007C000020BC0000200400080820202020F9
:103BC00020202A2A2053544D33324C2D444953434C
:103BD0004F56455259202A2A000000004A503120F1
:103BE0004F4E000020202020205354414E44425983
:103BF0002057414B45555000000008080000A041E7
:103C00007D00002007287ED2DFE800F00411161B9B
:103C10005185B20008F21440018881F04001018012
:103C2000018881F08001018000F0B0FC3BE0FEF7EC
:103C3000C6F800F01DFCB1E0FEF7C1F800F051FC41
:103C4000ACE05BA0FFF7DDFB207810B95846FFF72A
:103C5000A3FD00F0FAFC207810B95846FFF79CFD50
:103C6000207810B95846FFF797FD207810B95846CC
:103C7000FFF792FD207810B95846FFF78DFD4EA052
:103C8000FFF7BFFB207810B95846FFF785FD00F01D
:103C90004DFF34E05846FFF77FFD33E0207810B940
:103CA0005846FFF779FD207800285DD076E044A0E3
:103CB000FFF7A7FB207810B95846FFF76DFD00F01D
:103CC00064FF207810B95846FFF766FD207810B9D8
:103CD0005846FFF761FD207810B95846FFF75CFDA4
:103CE000207810B95846FFF757FD37A0FFF789FB3A
:103CF000207810B95846FFF74FFD00F068FF207894
:103D00000028C7D000E044E020780028C6D15846FB
:103D1000FFF742FDC2E72EA0FFF773FB207810B932
:103D20005846FFF739FD00F080FF207810B958465B
:103D3000FFF732FD207810B95846FFF72DFD2078A7
:103D400010B95846FFF728FD207810B95846FFF7FC
:103D500023FD21A0FFF755FB207810B95846FFF747
:103D60001BFD00F05AFDCAE75846FFF715FD15E0A8
:103D70001BA0FFF746FB207810B95846FFF70CFD53
:103D8000207810B95846FFF707FD062000F0C8F963
:103D900004E0FFF709F814A0FFF733FB2670F5E6FF
:103DA00013484168002902D04168491E41607047AC
:103DB0002052554E2020000020534C4545502000F5
:103DC0004C502052554E00004C5020534C50000097
:103DD0002053544F5020000053502D4E5254430056
:103DE00053544259202000004552524F52000000C7
:103DF00080000020B0F1807F01D30120704720F0C7
:103E00007F414FF0E020491E4161FC4AF0211170D2
:103E10004FF0000181614FF0070101614FF0000098
:103E200070471CB5F64C2168F6484160D4F8001480
:103E30008160D4F80018C160D4F8001C0161F24917
:103E40000A684261D1F800248261E268C261D4F854
:103E50000C240262D4F80C284262D4F80C2C826242
:103E6000CA68C262D1F80C24026300208DF80500F4
:103E700003228DF804208DF806008DF80700401EFF
:103E8000C4F8000C0860C1F800044FF6EE70009012
:103E900069462046FCF789FF4DF6FF7000906946A1
:103EA000DA48FCF782FF4FF63F7000906946D84829
:103EB000FCF77BFF4020A4F81A048020A4F81A0421
:103EC0001CBDD048CE4942680A608268C1F800240F
:103ED000C268C1F800280269C1F8002CCA4A4369C7
:103EE00013608369C2F80034C369CB60036AC1F808
:103EF0000C34436AC1F80C38836AC1F80C3CC16ABF
:103F0000D160006BC2F80C0470471FB56846FDF71E
:103F1000AEF901984FF4FA61B0FBF1F0FFF76AFFD8
:103F20001FBD1FB56846FDF7A2F901984008FFF7CD
:103F300061FF1FBD70B506460C461546FDF7FCF83F
:103F40000020FCF783FC0020FCF788FC0020FCF735
:103F500092FC0120FCF79CFC01210807FDF715FAF3
:103F60004FF4C050FDF77BF81020FDF7D0F8002883
:103F7000FAD13046FDF729F90020FDF753F900BFCB
:103F8000FDF758F90028FBD114B18020FDF757F94F
:103F90000020FDF72DF90020FDF7E9F815B9002004
:103FA000FDF729F9BDE870400020FDF729B910B5EB
:103FB0000120FDF71DF92120FDF7DEF80028FAD0D9
:103FC0000120FCF758FC0120FCF748FC0120FCF71D
:103FD0003DFC0120FDF726F9FDF72CF90428FBD163
:103FE0000020FDF72CF90020FDF739F9BDE810405D
:103FF0000020FDF72CB910B5012186B04802FDF76D
:10400000B9F9844C2046FCF7EBF96846FCF715FA41
:104010000021012000918DF804008DF80510029117
:1040200004918DF8140069462046FCF7E5F9062353
:10403000012204212046FCF74CFA10212046FCF70F
:1040400026FA01224FF440312046FCF718FA0121EC
:104050002046FCF70AFA40212046FCF757FB0028CF
:10406000F9D006B010BD70B5FFF7C5FF0120FCF711
:1040700023FA684E0623012211213046FCF729FA63
:10408000002504243046FCF783FA02213046FCF771
:104090003DFB0028F9D03046FCF7ACFA2844641EFA
:1040A00085B214F0FF04EDD10020FCF705FA0021E1
:1040B0004FF40070FDF75EF9A80870BD56490A6814
:1040C000C2618A6842624A680262CA6882624A6958
:1040D00002630A69C2624FF005000860C8604FF0D1
:1040E000805088604FF000004860704770B5FFF75F
:1040F00082FF0025474E04243046FCF749FA02218E
:104100003046FCF703FB0028F9D03046FCF772FA82
:10411000641E2844240485B2240CEDD1A80870BD87
:104120002DE9F047DFF8F4A0354E90B000248AF86E
:1041300000404FF400558046A6F818582146680004
:10414000FDF799FD0020FCF7F1FE0120FCF736FF9A
:104150000128FAD02B480470FFF763FE0020FCF71B
:1041600078FFDFF8BC904FF440404FF0E027B8F103
:10417000070F42D2DFE808F00456678EA5A5C000FD
:1041800000221146FFF7D6FE6846FFF797FF3C6115
:10419000C9F824484FF000004FF6FF7100BF00BF80
:1041A00000BF00BF00BF00BF00BF00BF00BF00BF17
:1041B00000BF00BF00BF00BF00BF00BF00BF00BF07
:1041C00000BF00BF00BF00BF00BF00BF00BF00BFF7
:1041D00000BF00BF00BF00BF00BF00BF00BF00BFE7
:1041E00000BF00BF00BF00BF00BF00BF00BF00BFD7
:1041F00000BF00BF401C8842D0D3ACE023ED00E0FC
:104200000000024088000020001002400008024028
:1042100000040240002401401C380240BC00002081
:104220000030024000221146FFF784FE6846FFF787
:1042300045FFFFF776FE0120FFF7AEFA01210020CF
:10424000FCF729FF87E00020FCF7FCFE0120FCF7CB
:1042500003FF6846FFF732FF3C6100220121104650
:10426000FFF768FE0120FCF703FF2020FCF74FFF5B
:104270000028FAD0012080F3108800F0AEFE002064
:1042800080F31088FCF7F4FE2020FCF740FF0028A4
:10429000FAD160E00020FCF7D5FE0120FCF7DCFE3F
:1042A0006846FFF70BFF3C61002201211046FFF733
:1042B00041FE012080F3108800F094FE84F3108802
:1042C00049E00020FCF7BEFE0120FCF7C5FE684671
:1042D000FFF7F4FE3C61B8F1050F0BD0012201217C
:1042E0000020FFF727FEA6F81A5801210846FCF720
:1042F000E3FE30E00022F2E70020FCF7A3FE0120FD
:10430000FCF7AAFE4FF48020FDF7ABFC00214FF430
:10431000C000FDF7C6FB0220CDE90E50DFF8B480E7
:104320000EA94046FCF741FD00220D214046FCF756
:10433000A9FD6846FFF7C2FE3C610022012110463C
:10434000FFF7F8FD01210020FCF77FFE0120FCF7BC
:1043500083FEFCF7CCFEFFF72AFEFFF7D6FD079899
:104360004C46C9F81C084FF40060FCF778FE10209A
:10437000FCF7CDFE0028FAD1FFF7B8FE0746A6F8F5
:10438000185801218AF80010099804F50264606049
:10439000089820600A98A0600C9820610B98E06053
:1043A000FFF700FB0020FCF763FE0020FCF754FE43
:1043B0000020FCF76DFAFFF784FD0120FCF7AFFE4B
:1043C0000120FCF73FFEFEF703FD10B03846BDE8C4
:1043D000F087000000080240F0B542F2107EB0FB0A
:1043E000FEF20EFB12024FF47A7CB2FBFCF30CFBE4
:1043F00013226425B2FBF5F305FB13220A24B2FB5A
:10440000F4F304FB1322831AB3FBF4F3B3FBFCF6BF
:104410000CFB1633B3FBF5F605FB1633B3FBF4F6D2
:1044200004FB1633C61AB61AB6FBF5F6B6FBF5F75B
:1044300005FB1765B5FBF4F604FB1655461BF61A8B
:10444000B61AB6FBFCF6B6FBF4F704FB1764001BC8
:10445000401BC01A801AB0FBFEF0303230330A81A4
:104460003035CB8030348D804C8030300880F0BDCA
:10447000FEB52020ADF80000ADF80200ADF8040054
:10448000FF490A681307FF48007804D5012802D1C4
:1044900022F008020A60FC4A4FF0B0044FF02F05EA
:1044A00053684FF025065B0701D501280ED0096837
:1044B00009070AD4012808D1ADF80850ADF8064024
:1044C000ADF80A606846FEF7AFFFFEBD507F42F2CE
:1044D00010714843FF21B0FBF1F06946FFF77CFF04
:1044E000EAE71CB5202130208DF800108DF801007E
:1044F0008DF804008DF802008DF805108DF803008A
:10450000DF49E0480A680078130704D5012802D182
:1045100022F008020A60DC4A53685B0701D50128D3
:1045200005D00968090701D4012816D01CBD507FA9
:10453000FF21192801D88DF80110A0F11A02542A80
:1045400001D88DF80210A0F16F02592A01D88DF818
:104550000310C82801D98DF804106846FEF751FFF2
:104560001CBD10B5FFF77FFD00F0D4FE02460B46E0
:10457000C648C74900F076FD0C2201F08EF800F025
:1045800037FDBDE81040C34900F082BF3EB5FFF7DC
:10459000E8FF00F049FF84B269462046FFF71CFFA0
:1045A0005620BDF80210ADF80A00202041F4004169
:1045B000ADF80210ADF80800ADF800006846FEF74F
:1045C00033FF20463EBD2DE9FE43B3A0FEF719FFA1
:1045D00040F2DC552846FFF7DFF8FFF7D7FF044627
:1045E0002846FFF7D9F8A4F66830B52825D3562712
:1045F0004FF49678202642460121A9A0FEF736FF07
:104600002846FFF7C9F869462046FFF7E5FEBDF8E2
:104610000200ADF80A7040F40040ADF80200ADF8B9
:104620000860ADF800606846FEF7FEFE2846FFF71A
:10463000B3F82846FFF7B0F8DDE79CA0FEF7E1FEEF
:104640002846FFF7A9F8BDE8FE833EB50020FFF736
:1046500067FD0546FFF785FF0446284600F004FF86
:10466000214600F015FF6FF00B0101F046F891496B
:1046700000F00EFF044600F0D7FE6946FFF7ACFEDF
:104680004120ADF80A006D20ADF808002020ADF8FB
:104690000600BDF8000040F40040ADF80000684698
:1046A000FEF7C2FE20463EBD2DE9FE4F82A0FEF77A
:1046B000A8FE40F2DC552846FFF76EF8FFF7C5FF6D
:1046C00000F096FE84B22846FFF766F8A4EB85005A
:1046D00041F2893188422CD3794F00264FF4967BE2
:1046E0004FF041084FF06D094FF0200A3E705A46D6
:1046F000012174A0FEF7BAFE2846FFF74DF869467F
:104700002046FFF769FEBDF80000ADF80A8040F4CE
:104710000040ADF80000ADF80890ADF806A068467E
:10472000FEF782FE2846FFF737F82846FFF734F8F1
:10473000DCE767A0FEF765FE2846FFF72DF8BDE829
:10474000FE8F0EB56946FFF747FE4120ADF80A001F
:10475000B520ADF80800BDF800003028BDF8020013
:1047600040F4004002D0ADF802000CE0ADF80000CB
:10477000BDF80400ADF80200BDF80600ADF8040075
:104780002020ADF806006846FEF74EFE0EBD2DE96E
:10479000F04151A0FEF735FE40F2DC542046FEF712
:1047A000FBFFFFF7DEFE4E4D0646287800F05CFE6C
:1047B000314600F06DFE6FF00B0100F09EFF49499D
:1047C00000F066FE00F030FE8046FFF7BAFF20469C
:1047D000FEF7E2FF28781E2808D838B142A0FEF77D
:1047E00010FE2046BDE8F041FEF7D6BF344E00254E
:1047F0004FF4967735703A4601213DA0FEF736FE1C
:104800002046FEF7C9FF4046FFF79BFF2046FEF714
:10481000C3FF2046FEF7C0FFECE770B50520FFF7A9
:104820007FFC04462E480078844201D9201A84B2C5
:10483000FFF797FE0546204600F016FE294600F0D9
:1048400027FE6FF00B0100F058FF264900F020FE14
:10485000044600F0E9FDFFF774FF204670BD2DE926
:10486000F04126A0FEF7CDFD40F2DC552846FEF7CC
:1048700093FFFFF7D2FF00F0BBFD84B2284641E072
:104880002C0000201C000020E40000202FDD240666
:104890008195F33F00007A442056444420000000F4
:1048A000564444204552524F522000005644442062
:1048B0004F4B00000000C84252554E2020200000FF
:1048C0007C00002052554E204552524F522000008D
:1048D00052554E204F4B00004249415320202000AA
:1048E000000008080000A041424941534F4B00001E
:1048F00042494153204552524F52200053544F5089
:1049000020200000FEF748FFA4F1FA0040F2272122
:10491000884216D3DD4F00264FF496783E7042460B
:104920000121DBA0FEF7A2FD2846FEF735FF204659
:10493000FFF707FF2846FEF72FFF2846FEF72CFF5C
:10494000ECE7D7A0FEF75DFD2846BDE8F041FEF795
:1049500023BF10B5D4A0FEF754FD40F2DC50FEF7A3
:104960001BFFBDE810400620FFF7DABB0EB5D04AAA
:1049700007CA8DE80700FBF798FF0121CD48FCF737
:1049800041F8FCF70CF8CC48802101804FF0400141
:104990000180CA484178027821F00A01417022F072
:1049A0000A010170C6A0FEF72CFD40F2DC5420463F
:1049B000FEF7F2FE5620ADF8020048F23200ADF8E4
:1049C0000400801EADF806003020ADF808006846EF
:1049D000FEF72AFD2046FEF7DFFE2046FEF7DCFE4E
:1049E000FFF7F1FDFFF760FEFFF7D1FEFFF737FF9E
:1049F000FFF7AFFFA54D4FF4967600243246012114
:104A0000B1A0FEF733FD2C70F8E7B24CB249208814
:104A10000978884201D9401A2080FFF7A2FD054697
:104A2000208800F021FD294600F032FD6FF00B01D7
:104A300000F063FEA94900F02BFD044600F0F4FCF1
:104A40008046FFF77EFE40F2DC573846FEF7A4FEB4
:104A5000A3488E4D204400244FF49676B0F54B0FBA
:104A600012D92C70324601219EA0FEF7FFFC384679
:104A7000FEF792FE4046FFF764FE3846FEF78CFED6
:104A80003846FEF789FEECE79AA0FEF7BAFC3846F6
:104A9000FEF782FE324601218BA0FEF7E7FC2C7068
:104AA000F8E74FF49672012194A0FEF7DFFC052091
:104AB000FFF736FB0546FFF754FD0446284600F095
:104AC000D3FC214600F0E4FC6FF00B06314600F009
:104AD00014FE824F394600F0DBFC00F0A5FCFFF726
:104AE00030FEFBF7E2FEE9B27B48FBF78BFFFBF7FA
:104AF00056FF4FF448780520FFF712FB0546FFF7F5
:104B000030FD0446284600F0AFFC214600F0C0FC12
:104B1000314600F0F2FD394600F0BAFC00F084FCAA
:104B2000FFF70FFE4046FEF737FEE4E73EB50120F3
:104B3000FFF7F6FA0546FFF714FD0446284600F095
:104B400093FC214600F0A4FC6FF00B0100F0D5FDB2
:104B5000734900F09DFC044600F066FC6946FFF7CF
:104B60003BFC4120ADF80A006D20ADF80800202084
:104B7000ADF80600BDF8000040F40040ADF80000BC
:104B80006846FEF751FC20463EBD70B50220FFF797
:104B9000C7FA044650480078844201D9201A84B2EA
:104BA000FFF7DFFC0546204600F05EFC294600F0DA
:104BB0006FFC6FF00B0100F0A0FD484900F068FCAD
:104BC000044600F031FCFFF7BCFD204670BD70B517
:104BD0000320FFF7A5FA04463F480078844201D934
:104BE000201A84B2FFF7BDFC0546204600F03CFCCD
:104BF000294600F04DFC6FF00B0100F07EFD3749B7
:104C000000F046FC044600F0F3FB4649884205DA12
:104C1000204600F009FCFFF794FD04E0FEF7C4F81D
:104C200041A0FEF7EEFB204670BD70B50420FFF7F3
:104C300077FA044628480078844201D9201A84B2C1
:104C4000FFF78FFC0546204600F00EFC294600F0D9
:104C50001FFC6FF00B0100F050FD204900F018FC24
:104C6000044600F0C5FB2F49884205DA204600F0D3
:104C7000DBFBFFF766FD07E00E48007820B9FEF782
:104C800093F829A0FEF7BDFB204670BD7C000020F4
:104C90004943432053544F50204552524F52200015
:104CA00053544F504F4B00005354425920200000A2
:104CB000EC570008040008081A0402407D00002098
:104CC000205445535420000054455354204F4B204A
:104CD0000000000082000020000008080000A04141
:104CE0000000EABC494343205354425920455252E4
:104CF0004F522000535442594F4B00002020202097
:104D000020202A2A20424941532043555252454EE1
:104D100054202A2A204A5031204F4646202A2A0071
:104D20000000C8429F8601004572726F7200000049
:104D30002DE9FC417148016841F48071016081688E
:104D40006F4A01EA0201816001686E4A01EA0201CC
:104D50000160016821F480210160816821F47D01F6
:104D600081604FF00004C46000F078F8012108462B
:104D7000FCF7F5FA032510208DF80550624F0090DE
:104D80008DF807408DF8045069463846FCF70DF859
:104D900001208DF804008DF8064020268DF807408C
:104DA00000968DF8055069463846FBF7FEFF3E83B6
:104DB000BDE8FC81554A10B5D2F8080810F00C0186
:104DC00053481AD0042928D0082928D00C2928D0E3
:104DD000D2F804184FF40043C1F34231491C8B4010
:104DE000C0F80030D2F80818494AC1F30311143250
:104DF000515C0268CA40026010BDD2F804184FF43A
:104E00007A43C1F34231424C8B40241D615C6FF404
:104E1000BB74614303EB81111CE03E491AE03E493B
:104E200018E0D2F80818D2F8083801F47011384C9C
:104E300003F440030B3404EB91410978012404EBA3
:104E40009353D2F8084814F4803F05D0324C6143A4
:104E5000B1FBF3F10160C5E72E4CF8E72B480021C8
:104E6000D0F8002842F00102C0F800284FF4A063F7
:104E7000D0F8002801F1010112F0020F01D199428E
:104E8000F6D1D0F80018890736D5D0F8001C41F0CB
:104E90000401C0F8001CD0F8001C41F00201C0F869
:104EA000001CD0F8001C41F00101C0F8001CD0F833
:104EB000241841F08051C0F8241818494FF40062BA
:104EC0000A604A68D206FCD400F608000168016056
:104ED0000168016001680160016821F0030101605F
:104EE000016841F001010160A0F60800D0F808183F
:104EF000C1F381010129F9D1704700000038024057
:104F00000CC0FF88FEFFFEEE0000024000300240B1
:104F1000C00000200024F40000127A00007000405D
:104F20000948804709480047FEE7FEE7FEE7FEE73D
:104F3000FEE7FEE7FEE7FEE7FEE7FEE70448054979
:104F4000054A064B70470000314D0008F500000887
:104F5000A8010020A8070020A8030020A803002023
:104F6000704770477047754600F028F8AE46050058
:104F70006946534620F00700854618B020B5FFF774
:104F8000DDFFBDE820404FF000064FF000074FF076
:104F900000084FF0000B21F00701AC46ACE8C00957
:104FA000ACE8C009ACE8C009ACE8C0098D46704760
:104FB0000446AFF300802046FBF7E5F80048704751
:104FC0004401002000487047480100200149182092
:104FD000ABBEFEE726000200704743F64F4CC2F21C
:104FE000000C604743F6BB4CC2F2000C6047000067
:104FF00021F00042A2F16052B2F5801F01F000439F
:1050000028BFD2F17F6C0BD95FEA001C43EAC202D1
:1050100042EB507018BF704728BF20F00100704766
:10502000B2F5801FBCBF184670474FEA410C1CF513
:10503000001F02D2084600F0F9BA70B500F07DF901
:1050400000000089FFF7F6BF4FF00040A0F5800098
:105050007047000002494FF0000000F0ECBA00BFBA
:105060000000F87F2DE9C04130B4DFF8A0C23CEA6F
:10507000111418BF3CEA131400F0EC8081EA030518
:105080001CEA111444EAD57418BF1CEA131500F089
:10509000C780A4EB05044FF0004545EAC12145EA6D
:1050A000C32341EA505143EA525304F17F749942B9
:1050B00004F500344FEAC0204FEAC22208BF9042F4
:1050C00000F09C804FEA13650FF24016765D4FEAC0
:1050D000134506FB05F7C7F1807706FB07F74FEA94
:1050E000D737A7FB03687642C8F58038A7FB06CE02
:1050F00038BFA8F1010807FB08E64FF0000EA6FB39
:10510000028CE6FB03CEDCF1000CCEF1004E38BF82
:10511000AEF1010EA6FB0C584FF000074FF0000552
:10512000E6FB0E87A1FB08C6A0FB07CE16EB0E061A
:1051300045F10005E1FB076515F1E04E7EBFA4F5E2
:1051400080345FEA46066D4116F1800745F100059F
:105150004FEA17274FEA066647EA0567A6F1DE46DB
:10516000B6F1805F4FEA15251FD9384624F0010CAF
:1051700005EBC471BCF1FE6F01EB0C1102D8F0BC61
:10518000BDE8008124425CBF01F5801E9EEAC47F19
:1051900002D4F0BCBDE80081244238D4F0BCA1F1B7
:1051A000C041BDE8004100F016B94FEAD22242EA00
:1051B00043524FEAD323A7FB02864FEAD02040EAAE
:1051C000415007FB03661EEA0E0F4FEAD12105FB93
:1051D000026658BFA6EB0056B6EB00564FEA520ED9
:1051E0004EEAC37E18EB0E0E56EB530EBDD518EBF0
:1051F00002085E417F1C55F10005B6E74FF48015AB
:105200004FF000074FF000064FF00008ADE7F0BC8C
:105210004FF0000001F1C04101F00041BDE8008104
:1052200011EA0C1F0CEA131500D00CE013EA0C1F56
:1052300000F025804FF00000F0BC81EA030101F08E
:105240000041BDE80081F0BCBDE8004181EA0301F6
:1052500000F0C1B8F0BCBDE8004170B500F06DF8D9
:10526000097EFC3E00F007B881EA03014FF0000020
:1052700001F00041704781EA030100F0ACB8F0BCD6
:10528000BDE800414FF0000021497047FFFDFBF9E8
:10529000F7F5F4F2F0EEEDEBE9E8E6E4E3E1E0DE69
:1052A000DDDBDAD8D7D5D4D3D1D0CFCDCCCBCAC8DB
:1052B000C7C6C5C4C2C1C0BFBEBDBCBBBAB9B8B702
:1052C000B6B5B4B3B2B1B0AFAEADACABAAA9A8A8F5
:1052D000A7A6A5A4A3A3A2A1A09F9F9E9D9C9C9BC3
:1052E0009A9999989797969595949393929191906E
:1052F0008F8F8E8E8D8C8C8B8B8A898988888787FF
:105300008685858484838382828181800000FF0773
:105310000000F87FB0FA80F310FA03F10AD0C3F16D
:105320001D0303F580634FEA41504FEA035202EB3D
:10533000D12170474FF0000070470EF1020E2EF0A1
:10534000030E5EF8046B364205D4012A43EB0305D5
:1053500015F5001F12D8012841EB010C1CF5001FA8
:105360000CD80ED14FEAD17C15F5001F0CEB4C0C7C
:105370000CF1020C08BF4CEBD37C04E04FF0080C9E
:1053800001E04FEAD37C0CEB4C0526FA05F606F05B
:105390000706B6F1040C06D20EEB860CBDE8704091
:1053A0004CF0010C6047DFE80CF0090B02024FF0F3
:1053B00000414FF00000A1F5002170BD19461046D4
:1053C000012851EB010418BFD4F5001484BF00205C
:1053D00001F0004170BD0808A0F500114FEA31014D
:1053E00070470000014800F026B900BF0000C07FF0
:1053F00041000B0ED3F19E0208D950F400034FEA8E
:10540000032323FA02F048BF4042704710B500F072
:10541000C0F800BF49922480002070476FF000421E
:1054200082EA200070470000C10DD1F19E0206DB28
:105430004FEA002343F0004323FA02F07047004292
:1054400007D54FEA4001B1F1FE4F02D24FF0000004
:10545000704710B500F09DF84992248000207047F5
:105460006FEA200070470000B0FA80F310FA03F2F0
:10547000C3F19D030AD0D90501EB1220530638BFB2
:10548000704700F1010008BF20F0010070470000E4
:105490004FF47F0C1CEAD0121EBF1CEAD11392EA13
:1054A0000C0F93EA0C0F00F0478090EA010F48BF01
:1054B00042F480724FF0004C4CEA00204CEA01218B
:1054C00002EB0302A0FB0113A2F50002002918BFA2
:1054D00043F001035B0028BF4FEA330342EB224253
:1054E0005FEA132C4CEBC2502EBFBCEB436FB2F5FE
:1054F0007C0F70474FEA036CBCF1004F08BF20F0EF
:105500000100B2F57C0F38BF70470BD582F0FF0267
:1055100012F5803FC8BF704700F1C040D8BF00F00F
:105520000040704700F5000C5FEA4C0C48BF704724
:10553000B0F1C04000F07AB890EA010F0CEAD11344
:1055400048BF42F48072624538BF634504D280EAA6
:10555000010000F00040704710B500F01AF800BFDD
:105560008900013E00F007B800F009B85FEA410C7D
:105570005FEA1C6C08D080EA010000F057B85FEACF
:10558000400C5FEA1C6CF6D14FF00040A0F58000A3
:1055900070470EF1020E2EF0030E5EF8044B24420B
:1055A00004D44FEA4102B2F17F4F11D84FEA4003D1
:1055B000B3F17F4F0CD80ED14FEAD07CB2F17F4FC0
:1055C0000CEB4C0C0CF1020C08BF4CEBD17C04E052
:1055D0004FF0080C01E04FEAD17C0CEB4C0324FAAD
:1055E00003F404F00704B4F1040C06D20EEB840CAF
:1055F000BDE810404CF0010C6047DFE80CF00708F4
:1056000002024FF00040A0F5800010BD08464200A5
:1056100018BFD2F1807288BF00F0004010BD10B5F5
:10562000FFF7D0FC4FF00001016010BDFF2141EAFF
:10563000D050C00570470CF00F03092B08BF08209D
:1056400000F083800A2B0BD0082B18BF704708BFCF
:105650001CF0400F0AD04FF000004FF000017047DF
:105660001CF0400F18BF4FF0004070471CF0100FA7
:1056700008D020F0704300F07F4242EAD3014FEAA5
:105680004370704700F0604021F07F4242EA000220
:1056900001F07F4040EA727070474FF0FF0C4CF40D
:1056A000E06C1CEA11531CBF9CEA030C9445C2BF7A
:1056B000DA4201EB02517047002B0DD0BCF1000F14
:1056C0000FD0002A01F00041A4BF41F0E04141F0B9
:1056D0007F614FF00000704701F000414FF0000083
:1056E000704750EA01334FF09B0C18BF4CF0806CB0
:1056F0007FF4B0ACAFF3008070474FF0FF0212EAC6
:10570000D0521CBF92F0FF038B42C2BFD14200EBCC
:10571000C1507047002A0AD0002B0BD0002900F09E
:105720000040A4BF40F0FE4040F40000704700F08D
:105730000040704743024FF00B0C18BF4CF0806CD8
:105740007FF450AEAFF3008070471CF4801F11D07F
:105750001CF4E02F03D06FEACC31490070474FF0C2
:105760004050EFF3008222F0704242EA000282F3DE
:10577000008870474FF000007047000100080002E9
:105780000000A0FFA0002000000060FF20FF6000DC
:105790000000000100010001010001000100020001
:1057A0000001040000FE1467001D1447009D009CCA
:1057B000003F00FA1400005341980019485A095A52
:1057C000005F00FC015F01FC00AF1404005BC01827
:1057D000815AC9005800C005005F004200F500670B
:1057E00000EA00AF00BF004600FF00EF20002000ED
:1057F0002000200020002000285800080000002081
:10580000E4000000300100080C590008003C0020B2
:1058100050010000300100080C590008E40000208D
:10582000C40600004C010008030406080C101820F0
:10583000300000000001020304010203040607080F
:10584000090000000000000000000000000000004F
:105850000000000000000000000000000000000048
:105860000000000000000000000000000000000038
:105870000000000000000000000000000000000028
:1058800028010020000000000000000000000000CF
:105890000000000000000000000000000000000008
:1058A00000000000000000000000000000000000F8
:1058B00000000000000000000000000000000000E8
:1058C00000000000000000000000000000000000D8
:1058D00000000000000000000000000000000000C8
:1058E00000000000000000000024F40000000000A0
:1058F000010204030406080C101820300000000008
:105900000000000001020304060708094C4950B1D9
:1059100001F540614B4888604B488860086840F05A
:10592000100008607047D1F8000C20F01000C1F89A
:10593000000C704745490028086806D040F0010077
:105940000860086840F4804005E020F4804008606A
:10595000086820F001000860704700B50120FFF7DB
:10596000D5FF0120FFF7E6FF39484FF40051A0F8BA
:105970001A1800BF00BF00BF00BF00BF00BF00BFBC
:1059800000BF00BF00BF00BF00BF00BF00BF00BF1F
:1059900000BF00BF00BF00BF00BF00BF00BF00BF0F
:1059A00000BF00BF00BF00BF00BF00BF00BF00BFFF
:1059B00000BF018AC907DCD00020FFF7A7FF002045
:1059C0005DF804EBB6E700B50120FFF79FFF01206B
:1059D000FFF7B0FF1F494FF4005008801B480168D3
:1059E00021F0030141F0010101601B48016821F031
:1059F0000401016020BF4FF00000FFF787FF002087
:105A00005DF804EB96E700B50120FFF77FFF01206A
:105A1000FFF790FF0D48016821F0030141F00101FB
:105A200001600D48016821F00401016020BF4FF0C2
:105A30000000FFF76BFF00205DF804EB7AE7000041
:105A40000030024037261504FDFCFBFA00700040D0
:0C5A5000000002401A08024010ED00E0C7
:04000005080000F5FA
:00000001FF
