:020000040800F2
:10000000000002207D2A0108C12A0108C12A010836
:10001000C12A0108C12A0108C12A01080000000004
:10002000000000000000000000000000C12A0108DC
:10003000C12A010800000000C12A0108AD0D000816
:10004000C12A0108C12A0108C12A0108C12A0108E0
:10005000C12A0108C12A0108C12A0108C12A0108D0
:10006000C12A0108C12A0108C12A0108C12A0108C0
:10007000C12A0108C12A0108C12A0108C12A0108B0
:10008000C12A0108C12A0108C12A0108C12A0108A0
:10009000C12A0108C12A0108C12A0108C12A010890
:1000A000C12A0108C12A0108C12A0108C12A010880
:1000B000C12A0108C12A0108C12A0108C12A010870
:1000C000C12A0108C12A0108C12A0108C12A010860
:1000D000C12A0108C12A0108C12A0108C12A010850
:1000E000C12A0108C12A0108C12A0108C12A010840
:1000F000C12A0108C12A0108C12A0108C12A010830
:10010000C12A0108C12A0108C12A0108C12A01081F
:10011000C12A0108C12A0108C12A0108C12A01080F
:10012000C12A0108C12A0108C12A0108C12A0108FF
:10013000C12A0108C12A0108C12A0108C12A0108EF
:10014000C12A0108C12A0108C12A0108C12A0108DF
:10015000C12A0108C12A0108C12A0108C12A0108CF
:10016000C12A0108C12A0108C12A0108C12A0108BF
:10017000C12A0108C12A0108C12A0108C12A0108AF
:08018000C12A0108C12A01088F
:1001880080B588B002AF786039607A684FF49043E0
:10019800C4F2000393604FF08C004FF0010100F0AF
:1001A800CBFA4FF08F004FF0010100F0C5FA4FF481
:1001B800FA7000F009FE4FF08C004FF0000100F0DB
:1001C800BBFA4FF0FA0000F0FFFD4FF08C004FF043
:1001D800010100F0B1FA4FF4FA7000F0F5FD4FF0AC
:1001E80002004FF0010109F001FE4FF480204FF0AA
:1001F800010109F079FE4FF0000300934FF001036D
:1002080001934FF48060C4F202004FF440614FF054
:1002180002024FF0020300F01BFA4FF08C004FF07F
:10022800000100F089FA4FF08F004FF0000100F054
:1002380083FA4FF48060C4F202004FF00A014FF0D5
:10024800070207F01BFD4FF48060C4F202004FF074
:100258000B014FF0070207F011FD3B68BB604FF040
:100268000003BB814FF00003FB814FF000033B828A
:100278004FF00003BB824FF00C037B8207F10803A9
:100288004FF49040C4F2000019460EF0EFFE4FF410
:100298009040C4F200004FF001010FF023F800BFB6
:1002A80007F11807BD4680BD80B582B000AF786001
:1002B8000B46FB7000BF7B689B681B889BB203F0F2
:1002C8004003002B14BF00230123DBB2002BF2D123
:1002D8007B689A68FB789BB2104619460FF082F843
:1002E80000BF7B689B6818464FF040010FF076FA14
:1002F8000346002B14BF00230123DBB2002BF0D1EF
:100308004FF00103184607F10807BD4680BD00BF3E
:1003180080B586B000AFF860B9601346FB804FF037
:1003280000037B6109E0BB681B78BA6802F101022F
:10033800BA60F8681946FFF7B7FFFB887A699A42EE
:100348002CBF00230123DBB27A6902F101027A6132
:10035800002BE8D17B69184607F11807BD4680BD18
:1003680080B584B000AF786039604FF00003FB605F
:100378000DE03B681B783A6802F101023A60786840
:100388001946FFF791FFFB6803F10103FB603B6827
:100398001B78002B0CBF00230123DBB2002BE8D114
:1003A800FB68184607F11007BD4680BD80B588B0C8
:1003B80000AFF860B9601346FB71FB790A2B0ED0C9
:1003C800FB79102B08D0FB79022B02D14FF0804328
:1003D80001E04FF4000301E04FF0805303E04FF4D5
:1003E8004A43C3F69A33FB614FF00003FB764FF0A4
:1003F8000003BB7632E0BA68FB69B2FBF3F3FA7923
:10040800B3FBF2F102FB01F29B1A7B617B69002BC3
:1004180002D04FF00103BB76BB7E002B03D1FA79E3
:10042800FB699A4215D17B69092B05DD7B69DBB233
:1004380003F13703DBB204E07B69DBB203F130037D
:10044800DBB2F868194612F093FAFB7E03F1010358
:10045800FB76FB79FA69B2FBF3F3FB61FB69002BCE
:100468000CBF00230123DBB2002BC4D1FB7E18464E
:1004780007F12007BD4680BD80B584B000AF786025
:1004880039604FF00003FB603B68002B05DA7868A1
:100498004FF02D0112F06CFAF8603B68002BB8BFE2
:1004A8005B42786819464FF00A02FFF77FFF034660
:1004B800FA68D318FB60FB68184607F11007BD46B9
:1004C80080BD00BFF0B587B000AFF860C7E9002372
:1004D8004FF000037B614FF001031E46D7E900018E
:1004E8004FF000024FF0000310F0C8ED0346002B58
:1004F80002D14FF000031E46F3B2002B08D0F86873
:100508004FF02D0112F034FA7B6903F101037B618E
:100518004FF001031E46D7E900014FF000024FF0EB
:10052800000310F0ACED0346002B02D14FF000039E
:100538001E46F3B2002B04D03C687B6883F000456C
:1005480001E0D7E90045C7E90045D7E9000110F007
:10055800C6ED0346F86819464FF00A02FFF726FF72
:1005680003467A69D3187B61D7E9000110F0B6ED2C
:100578000346184610F090EC02460B46D7E90001F6
:1005880010F000EB02460B46C7E90023D7E900014B
:1005980010F0A4ED0346002B01D17B6909E0F8684F
:1005A8004FF02E0112F0E4F903467A69D3187B6103
:1005B8007B69184607F11C07BD46F0BD80B584B0BD
:1005C80000AF786000BF7B689B6818464FF0200139
:1005D8000FF004F90346002B14BF00230123DBB2FC
:1005E800002BF0D17B689B6818460EF00FFF03467E
:1005F800FB60FB68184607F11007BD4680BD00BFC9
:1006080080B485B000AF78604FF00003FB730FE053
:10061800FA7B40F20003C2F2000353F822207B6801
:100628009A4201D1FB7B0DE0FB7B03F10103FB73D5
:10063800FB7B092B8CBF00230123DBB2002BE7D106
:100648004FF00003184607F11407BD4680BC7047F9
:1006580080B584B000AF786079807A703B707B7821
:10066800002B02D14FF001033B777868FFF7C8FFF2
:1006780003461A4642F64053C0F6010353F82230A7
:1006880018464FF0010109F0B1FB7B88BB607B780D
:100698003B733B787B733B7FFB733B7EBB7307F1FC
:1006A80008037868194607F05BF907F11007BD469B
:1006B80080BD00BF80B584B000AFF871B9717A71A0
:1006C8003B71FB791F2B33D9FB794FEA5313DBB20C
:1006D8001A4642F64053C0F6010353F82230184632
:1006E8004FF0010109F082FBFB7903F01F0242F68B
:1006F8006853C0F6010333F81230BB60BB793B7313
:100708004FF00003BB733B79FB737B797B73FB79F9
:100718004FEA5313DBB21A4640F20003C2F2000359
:1007280053F8222007F108031046194607F018F974
:1007380007F11007BD4680BD80B582B000AF024604
:100748000B46FA71BB71BB79002B18D0FB794FEAC5
:100758005313DBB21A4640F20003C2F2000353F807
:100768002220FB7903F01F0142F66853C0F601030B
:1007780033F811301046194607F02CFA17E0FB79C8
:100788004FEA5313DBB21A4640F20003C2F20003E9
:1007980053F82220FB7903F01F0142F66853C0F694
:1007A800010333F811301046194607F021FA07F112
:1007B8000807BD4680BD00BF80B582B000AF786035
:1007C8000B467B807B887868194607F037FA07F173
:1007D8000807BD4680BD00BF80B584B000AF0346A2
:1007E800FB71FB794FEA5313DBB21A4640F2000360
:1007F800C2F2000353F822301A68FB7903F01F0194
:1008080042F66853C0F6010333F811304FEA430348
:1008180022FA03F3FB73FB7B012B20D1FB794FEA10
:100828005313DBB21A4640F20003C2F2000353F836
:100838002220FB7903F01F0142F66853C0F601033A
:1008480033F811301046194607F098F90346002B83
:1008580002D04FF0010301E04FF000031FE0FB79E5
:100868004FEA5313DBB21A4640F20003C2F2000308
:1008780053F82220FB7903F01F0142F66853C0F6B3
:10088800010333F811301046194607F04BF90346B7
:10089800002B02D04FF0010301E04FF0000318468F
:1008A80007F11007BD4680BD80B485B000AF786001
:1008B8000B467B804FF00003FB730DE0FA7B40F2A0
:1008C8000003C2F2000353F822207B689A420CD03E
:1008D800FB7B03F10103FB73FB7B062B8CBF00231F
:1008E8000123DBB2002BE9D100E000BFFB7B4FEA1C
:1008F8004313DAB27B88DBB2D318DBB2184607F1B0
:100908001407BD4680BC704780B582B000AF7860E0
:100918004FF0010042F68C51C0F601014FF004027D
:1009280000F07CF9FEE700BF80B483B000AF7860C8
:100938004FF0FF33184607F10C07BD4680BC7047DF
:1009480080B485B000AFF860B9607A6040F6E4031F
:10095800C2F200034FF00C021A604FF0FF33184642
:1009680007F11407BD4680BC704700BF80B400AFD4
:1009780040F6E403C2F200034FF00B021A604FF096
:10098800FF331846BD4680BC704700BF80B483B0B3
:1009980000AF786039603B684FF400525A604FF0FE
:1009A8000003184607F10C07BD4680BC704700BF1E
:1009B80080B400AF4FF001031846BD4680BC7047B5
:1009C80080B483B000AF78607B6803F10003022B2A
:1009D80002D84FF0010308E040F6E403C2F2000336
:1009E8004FF009021A604FF00003184607F10C0790
:1009F800BD4680BC704700BF80B483B000AF78604C
:100A0800396040F6E403C2F200034FF016021A60A0
:100A18004FF0FF33184607F10C07BD4680BC7047FE
:100A280080B483B000AF7860396040F6E403C2F266
:100A380000034FF01F021A604FF0FF33184607F10A
:100A48000C07BD4680BC704780B485B000AFF86025
:100A5800B9607A604FF00003184607F11407BD46E5
:100A680080BC704790B585B000AF786040F69803B9
:100A7800C2F200031B68002B08D140F69803C2F2AB
:100A8800000340F6E802C2F200021A6040F698033A
:100A9800C2F200031B68FB60EFF308842346BB60C7
:100AA80040F69803C2F200031A687B68D218BB6844
:100AB8009A4213D94FF0020042F69451C0F6010150
:100AC8004FF0190200F0AAF840F6E403C2F200035E
:100AD8004FF00C021A604FF0FF330CE040F6980319
:100AE800C2F200031A687B68D21840F69803C2F273
:100AF80000031A60FB68184607F11407BD4690BD4D
:100B080080B489B000AFF860B9607A604FF0000334
:100B1800BB61FB68002B29D14FF00003FB6120E08B
:100B280000BF4FF48843C4F200031B889BB203F054
:100B38002003002BF5D04FF48843C4F200039B88B0
:100B48009BB2FB75BB68FA7D1A70BB6803F10103A1
:100B5800BB60BB6903F10103BB61FB6903F10103DE
:100B6800FB61FA697B689A42DADB09E040F6E40344
:100B7800C2F200034FF009021A604FF0FF3300E0A1
:100B8800BB69184607F12407BD4680BC704700BF03
:100B980080B483B000AF786039603B684FF400528E
:100BA8005A604FF00003184607F10C07BD4680BC99
:100BB800704700BF80B483B000AF78604FF0FF3358
:100BC800184607F10C07BD4680BC704780B483B057
:100BD80000AF786040F6E403C2F200034FF002026F
:100BE8001A604FF0FF33184607F10C07BD4680BC6A
:100BF800704700BF80B483B000AF786040F6E4036C
:100C0800C2F200034FF00A021A604FF0FF33184691
:100C180007F10C07BD4680BC704700BF80B487B0A1
:100C280000AFF860B9607A60FB68012B02D0022B34
:100C380023D045E04FF000037B6119E000BF4FF47B
:100C48008843C4F200031B889BB203F04003002BC7
:100C5800F5D04FF48843C4F20003BA6812789A803A
:100C6800BB6803F10103BB607B6903F101037B618E
:100C78007A697B689A42E1DB2CE04FF000037B61E4
:100C880019E000BF4FF48843C4F200031B889BB2ED
:100C980003F04003002BF5D04FF48843C4F200035F
:100CA800BA6812789A80BB6803F10103BB607B695C
:100CB80003F101037B617A697B689A42E1DB09E011
:100CC80040F6E403C2F200034FF009021A604FF045
:100CD800FF3300E07B68184607F11C07BD4680BC5F
:100CE800704700BF80B483B000AF03463960FB7122
:100CF80097F90730002B10DA4FF46D43CEF200035A
:100D0800FA7902F00F02A2F104013A68D2B24FEA6E
:100D18000212D2B25B181A760DE04FF46143CEF29C
:100D2800000397F907103A68D2B24FEA0212D2B21A
:100D38005B1883F8002307F10C07BD4680BC704799
:100D480080B582B000AF78607A686FF07F439A42CE
:100D580002D94FF001031FE04EF21003CEF2000358
:100D68007A6822F07F4202F1FF325A604FF0FF307A
:100D78004FF00F01FFF7B6FF4EF21003CEF200035B
:100D88004FF000029A604EF21003CEF200034FF0CB
:100D980007021A604FF00003184607F10807BD461E
:100DA80080BD00BF80B400AF40F69C03C2F20003D0
:100DB8001B6803F1010240F69C03C2F200031A60AB
:100DC800BD4680BC704700BF80B485B000AF786076
:100DD80040F69C03C2F200031B68FB6040F69C03CC
:100DE800C2F200031A68FB68D21A7B689A422CBFC9
:100DF80000230123DBB2002BF0D107F11407BD4615
:100E080080BC704780B500AF40F23C03C2F20003DB
:100E18001A6844F6D353C1F26203A3FB02134FEAE4
:100E280093131846FFF78CFF0346002B0CBF0023D3
:100E38000123DBB2002B00D0FEE780BD80B400AFF9
:100E480040F69C03C2F200031B681846BD4680BCEE
:100E5800704700BF80B483B000AF78604FF46D4333
:100E6800CEF200037A6842F0BF6242F40032DA60E0
:100E780007F10C07BD4680BC704700BF80B485B041
:100E880000AF78604FF00003FB734FF00003BB73B3
:100E98004FF00F037B737B68DB78002B45D04FF452
:100EA8006D43CEF20003DB686FEA030303F4E063EB
:100EB8004FEA1323FB73FB7BC3F10403BB737A7BF9
:100EC800FB7B42FA03F37B737B685B781A46BB7B38
:100ED80002FA03F3FB737B689A787B7B1340DAB2E0
:100EE800FB7B1343FB73FB7B4FEA0313FB734FF44A
:100EF8006143CEF200037A6812789B18FA7B83F874
:100F080000234FF46143CEF200037A6812784FEA67
:100F18005212D2B27968097801F01F014FF001002E
:100F280000FA01F143F8221014E04FF46143CEF2C5
:100F380000037A6812784FEA5212D2B279680978B7
:100F480001F01F014FF0010000FA01F102F1200247
:100F580043F8221007F11407BD4680BC704700BF54
:100F680080B483B000AF786039604FF46D43CEF23F
:100F780000033A6822F0604222F07F0279680A434F
:100F88009A6007F10C07BD4680BC704780B483B0F7
:100F980000AF02460B46FA71BB71BB79002B0CD02F
:100FA8004FF46D43CEF200034FF46D42CEF20002CF
:100FB8001169FA790A431A610DE04FF46D43CEF2D4
:100FC80000034FF46D42CEF200021169FA796FEA1C
:100FD80002020A401A6107F10C07BD4680BC70473F
:100FE80080B483B000AF78607B68042B0CD14EF2DC
:100FF8001003CEF200034EF21002CEF20002126885
:1010080042F004021A600BE04EF21003CEF2000325
:101018004EF21002CEF20002126822F004021A60A8
:1010280007F10C07BD4680BC704700BF80B500AF14
:101038004FF480704FF0010109F052F84FF48070BE
:101048004FF0000109F04CF880BD00BF80B485B0B6
:1010580000AF786039604FF00003FB604FF0000389
:10106800FB727B685B68FB60FB6823F0407323F4CA
:101078008073FB603B681B794FEA03223B681B685F
:101088001343FA681343FB607B68FA685A607B680D
:101098009B68FB60FA684FF2FD73CCF2FF031340C4
:1010A800FB603B681A693B68DB681A433B689B68CE
:1010B8001A433B685B794FEA43031343FA681343C7
:1010C800FB607B68FA689A607B68DB6AFB60FB6898
:1010D80023F47003FB603B681B7D03F1FF33DAB236
:1010E800FB7A1343FB72FB7A4FEA0353FA68134304
:1010F800FB607B68FA68DA6207F11407BD4680BCBA
:10110800704700BF80B483B000AF78607B684FF051
:1011180000021A607B684FF000021A717B684FF07A
:1011280000025A717B684FF000029A607B684FF0AA
:101138000002DA607B684FF000021A617B684FF0AA
:1011480001021A7507F10C07BD4680BC704700BF45
:1011580080B485B000AF78604FF00003FB604FF4B7
:101168000C53C4F201035B68FB60FA6843F2E003C6
:10117800CFF6FC731340FB607B681A687B685B687A
:101188001A437B689B681A437B68DB681343FA68D9
:101198001343FB604FF40C53C4F20103FA685A601E
:1011A80007F11407BD4680BC704700BF80B483B008
:1011B80000AF78607B684FF000021A607B684FF0E0
:1011C80000025A607B684FF000029A607B684FF01B
:1011D8000002DA6007F10C07BD4680BC704700BF0B
:1011E80080B483B000AF78600B46FB70FB78002BAF
:1011F80006D07B689B6843F001027B689A6005E033
:101208007B689B6823F001027B689A6007F10C07F2
:10121800BD4680BC704700BF80B485B000AF786021
:1012280039604FF00003FB607B685B68FB60FB681C
:1012380023F4400323F40073FB60FA683B6813430C
:10124800FB607B68FA685A6007F11407BD4680BCEA
:10125800704700BF80B483B000AF786013460A4679
:101268007A803B807A887B685A623A887B689A627F
:1012780007F10C07BD4680BC704700BF80B485B03D
:1012880000AF78600B46FB704FF00003FB607B6893
:101298005B68FB60FB6823F01F03FB60FB78FA6860
:1012A8001343FB607B68FA685A6007F11407BD4670
:1012B80080BC704780B483B000AF0346FB71FB79F4
:1012C800002B0CD04FF40C53C4F201034FF40C5212
:1012D800C4F20102526842F400025A600BE04FF473
:1012E8000C53C4F201034FF40C52C4F201025268C9
:1012F80022F400025A6007F10C07BD4680BC704713
:1013080080B483B000AF0346FB71FB79002B0CD08F
:101318004FF40C53C4F201034FF40C52C4F201020F
:10132800526842F480025A600BE04FF40C53C4F246
:1013380001034FF40C52C4F20102526822F48002F5
:101348005A6007F10C07BD4680BC704780B485B071
:1013580000AF7860F970BA707B704FF00003FB60E3
:101368004FF00003BB60FB78092B27D97B68DB684B
:10137800FB60FA7813464FEA43039B18A3F11E0358
:101388004FF0070202FA03F3BB60BB686FEA03037E
:10139800FA681340FB607978FA7813464FEA4303FA
:1013A8009B18A3F11E0301FA03F3BB60FA68BB683C
:1013B8001343FB607B68FA68DA6022E07B681B698C
:1013C800FB60FA7813464FEA43039B184FF0070275
:1013D80002FA03F3BB60BB686FEA0303FA681340C1
:1013E800FB607978FA7813464FEA43039B1801FAB1
:1013F80003F3BB60FA68BB681343FB607B68FA6859
:101408001A61BB78062B27D87B685B6BFB60BB78BF
:1014180003F1FF3213464FEA83039B184FF01F0274
:1014280002FA03F3BB60BB686FEA0303FA68134070
:10143800FB60F978BB7803F1FF3213464FEA830368
:101448009B1801FA03F3BB60FA68BB681343FB609F
:101458007B68FA685A6351E0BB780C2B27D87B6805
:101468001B6BFB60BA7813464FEA83039B18A3F102
:1014780023034FF01F0202FA03F3BB60BB686FEA55
:101488000303FA681340FB60F978BA7813464FEA09
:1014980083039B18A3F1230301FA03F3BB60FA68E3
:1014A800BB681343FB607B68FA681A6326E07B68B5
:1014B800DB6AFB60BA7813464FEA83039B18A3F1F3
:1014C80041034FF01F0202FA03F3BB60BB686FEAE7
:1014D8000303FA681340FB60F978BA7813464FEAB9
:1014E80083039B18A3F1410301FA03F3BB60FA6875
:1014F800BB681343FB607B68FA68DA6207F114077C
:10150800BD4680BC704700BF80B483B000AF786030
:101518007B689B6843F080427B689A6007F10C0700
:10152800BD4680BC704700BF80B485B000AF78600E
:101538004FF00003FB737B689B6803F48003002B68
:1015480003D04FF00103FB7302E04FF00003FB737D
:10155800FB7B184607F11407BD4680BC704700BFE7
:1015680080B483B000AF78600B46FB70FB78002B2B
:1015780006D07B689B6843F480627B689A6005E0CC
:101588007B689B6823F480627B689A6007F10C078C
:10159800BD4680BC704700BF80B483B000AF7860A0
:1015A8000B46FB70FB78002B06D07B689B6843F0EA
:1015B80002027B689A6005E07B689B6823F0020260
:1015C8007B689A6007F10C07BD4680BC704700BF76
:1015D80080B485B000AF78600B46FB704FF0000315
:1015E800FB604FF00003BB607B685B68FB60FB68D7
:1015F80023F46043FB60FB7803F1FF33BB60BB68F7
:101608004FEA4333FA681343FB607B68FA685A6011
:1016180007F11407BD4680BC704700BF80B483B093
:1016280000AF78600B46FB70FB78002B06D07B6818
:101638005B6843F400627B685A6005E07B685B681E
:1016480023F400627B685A6007F10C07BD4680BC32
:10165800704700BF80B483B000AF78607B68DB6CF4
:101668009BB2184607F10C07BD4680BC704700BF07
:1016780080B400AF42F20833C4F201031B68184675
:10168800BD4680BC704700BF80B483B000AF7860AF
:101698000B46FB70FB78002B06D07B689B6843F4F5
:1016A80080727B689A6005E07B689B6823F480728F
:1016B8007B689A6007F10C07BD4680BC704700BF85
:1016C80080B483B000AF78600B46FB70FB78002BCA
:1016D80006D07B689B6843F400727B689A6005E0DB
:1016E8007B689B6823F400727B689A6007F10C079B
:1016F800BD4680BC704700BF80B483B000AF0346CE
:10170800FB71FB79002B0CD04FF40C53C4F201038E
:101718004FF40C52C4F20102526842F400525A606B
:101728000BE04FF40C53C4F201034FF40C52C4F213
:101738000102526822F400525A6007F10C07BD46B4
:1017480080BC704780B487B000AF7860F970BA7019
:101758007B704FF000037B614FF000033B614FF05B
:101768000003FB60FB78092B27D97B68DB687B616A
:10177800FA7813464FEA43039B18A3F11E034FF070
:10178800070202FA03F33B613B696FEA03037A69D4
:1017980013407B617978FA7813464FEA43039B1824
:1017A800A3F11E0301FA03F33B617A693B69134312
:1017B8007B617B687A69DA6022E07B681B697B6100
:1017C800FA7813464FEA43039B184FF0070202FAD0
:1017D80003F33B613B696FEA03037A6913407B615A
:1017E8007978FA7813464FEA43039B1801FA03F312
:1017F8003B617A693B6913437B617B687A691A614B
:101808007B689B6B7B617B6903F440134FEA13533E
:10181800FB60FB68DBB26FEA0303DAB2BB78D3186C
:10182800DBB203F10303DBB21A4613464FEA830324
:101838009B184FF01F0202FA03F33B613B696FEA02
:1018480003037A6913407B61F978FB68DBB26FEABE
:101858000303DAB2BB78D318DBB203F10303DBB2BC
:101868001A4613464FEA83039B1801FA03F33B61B8
:101878007A693B6913437B617B687A699A6307F1EC
:101888001C07BD4680BC704780B485B000AF786047
:101898000B46FB704FF00003FB604FF00003BB608A
:1018A8007B689B6BFB60FB6823F44013FB60FB7851
:1018B80003F1FF33BB60BB684FEA0353FA68134375
:1018C800FB607B68FA689A6307F11407BD4680BC21
:1018D800704700BF80B485B000AF786013460A46F1
:1018E800FA703B804FF00003FB607B68FB60FA787E
:1018F800FB68D318FB60FB683A881A6007F1140785
:10190800BD4680BC704700BF80B485B000AF78602A
:1019180039604FF00003FB607B689B68FB60FB68E5
:1019280023F47023FB60FA683B681343FB607B6811
:10193800FA689A6007F11407BD4680BC704700BF7B
:1019480080B485B000AF786039604FF00003FB6069
:101958007B689B68FB60FB6823F44013FB60FA68B4
:101968003B681343FB607B68FA689A6007F11407C9
:10197800BD4680BC704700BF80B483B000AF7860BC
:101988007B689B6843F480027B689A6007F10C07C8
:10199800BD4680BC704700BF80B485B000AF78609A
:1019A8004FF00003FB737B689B6803F48003002BF4
:1019B80003D04FF00103FB7302E04FF00003FB7309
:1019C800FB7B184607F11407BD4680BC704700BF73
:1019D80080B483B000AF78600B46FB70FB78002BB7
:1019E80006D07B685B6843F480627B685A6005E0D8
:1019F8007B685B6823F480627B685A6007F10C0798
:101A0800BD4680BC704700BF80B483B000AF78602B
:101A18000B46FB70FB78002B06D07B685B6843F4B1
:101A280080527B685A6005E07B685B6823F48052CB
:101A38007B685A6007F10C07BD4680BC704700BF41
:101A480080B485B000AF78600B46FB704FF00003A0
:101A5800FB607B68FB60FA78FB68D31803F1280306
:101A6800FB60FB681B689BB2184607F11407BD466C
:101A780080BC704780B485B000AF786013460A46D2
:101A88007A807B704FF00003FB607B88DBB2FB60E1
:101A9800FB684FF0010202FA03F3FB607B78002B2E
:101AA80006D07B685A68FB681A437B685A6007E06F
:101AB8007B685A68FB686FEA03031A407B685A60C0
:101AC80007F11407BD4680BC704700BF80B485B0DD
:101AD80000AF78600B46FB704FF00003FB737B6828
:101AE8001A68FB781340002B03D04FF00103FB73F7
:101AF80002E04FF00003FB73FB7B184607F1140765
:101B0800BD4680BC704700BF80B483B000AF78602A
:101B18000B46FB70FB786FEA03027B681A6007F1DB
:101B28000C07BD4680BC704780B487B000AF7860B2
:101B38000B467B804FF00003FB754FF000033B61C1
:101B48004FF00003FB607B884FEA13239BB23B6195
:101B58007B685A687B88DBB24FF0010101FA03F316
:101B68001340FB607B681A683B691340002B06D062
:101B7800FB68002B03D04FF00103FB7502E04FF028
:101B88000003FB75FB7D184607F11C07BD4680BCAA
:101B9800704700BF80B485B000AF78600B467B808B
:101BA8004FF00003FB737B884FEA13239BB2FB7350
:101BB800FB7B6FEA03027B681A6007F11407BD46D6
:101BC80080BC704780B582B000AF78607A684FF407
:101BD800C843C4F200039A420CD14FF000704FF092
:101BE800010108F053FA4FF000704FF0000108F0BF
:101BF8004DFA0BE04FF080604FF0010108F046FA13
:101C08004FF080604FF0000108F040FA07F1080734
:101C1800BD4680BD80B485B000AF786039604FF0B4
:101C28000003FB734FF00003BB607B681B6823F065
:101C380002027B681A607B681B6843F001027B68BC
:101C48001A6003E0BB6803F10103BB607B685B6853
:101C580003F00103002B04D1BA684FF6FF739A42D0
:101C6800F0D17B685B6803F00103002B03D14FF0D0
:101C78000003FB73A7E03B689B79012B06D17B68C7
:101C88001B6843F080027B681A6005E07B681B686C
:101C980023F080027B681A603B68DB79012B06D150
:101CA8007B681B6843F040027B681A6005E07B682C
:101CB8001B6823F040027B681A603B681B7A012B83
:101CC80006D17B681B6843F020027B681A6005E038
:101CD8007B681B6823F020027B681A603B685B7A8C
:101CE800012B06D17B681B6843F010027B681A60E1
:101CF80005E07B681B6823F010027B681A603B686C
:101D08009B7A012B06D17B681B6843F008027B682D
:101D18001A6005E07B681B6823F008027B681A607C
:101D28003B68DB7A012B06D17B681B6843F0040211
:101D38007B681A6005E07B681B6823F004027B68F7
:101D48001A603B689B784FEA83723B68DB784FEAFE
:101D580003631A433B681B794FEA03431A433B6802
:101D68005B794FEA03531A433B681B8803F1FF333F
:101D78001A437B68DA617B681B6823F001027B6881
:101D88001A604FF00003BB6003E0BB6803F1010376
:101D9800BB607B685B6803F00103DBB2002B04D0F7
:101DA800BA684FF6FF739A42EFD17B685B6803F01D
:101DB8000103DBB2002B03D04FF00003FB7302E0FA
:101DC8004FF00103FB73FB7B184607F11407BD4670
:101DD80080BC704780B485B000AF78604FF00003D6
:101DE800FB607B689B7A4FF0010202FA03F3FB6009
:101DF8004FF4C843C4F200034FF4C842C4F20002CF
:101E0800D2F8002242F00102C3F800224FF4C8437E
:101E1800C4F200034FF4C842C4F20002D2F81C1204
:101E2800FA686FEA02020A40C3F81C227B681B7B2F
:101E3800002B33D14FF4C843C4F200034FF4C84217
:101E4800C4F20002D2F80C12FA686FEA02020A40E1
:101E5800C3F80C224FF4C843C4F200037A68927A9C
:101E68007968C9884FEA014079684988014302F1D5
:101E7800480243F832104FF4C842C4F200027B68AB
:101E88009B7A796889884FEA014079680988014313
:101E980003F148034FEAC303D31859607B681B7BDF
:101EA800012B31D14FF4C843C4F200034FF4C842A8
:101EB800C4F20002D2F80C12FA680A43C3F80C22E2
:101EC8004FF4C843C4F200037A68927A79680988A3
:101ED8004FEA014079684988014302F1480243F812
:101EE80032104FF4C842C4F200027B689B7A7968CA
:101EF80089884FEA01407968C988014303F148039A
:101F08004FEAC303D31859607B68DB7A002B10D1E2
:101F18004FF4C843C4F200034FF4C842C4F20002AD
:101F2800D2F80412FA686FEA02020A40C3F80422DF
:101F38000DE04FF4C843C4F200034FF4C842C4F2A2
:101F48000002D2F80412FA680A43C3F804227B6834
:101F58001B89002B0FD14FF4C843C4F200034FF480
:101F6800C842C4F20002D2F81412FA686FEA0202F8
:101F78000A40C3F814227B681B89012B0DD14FF44A
:101F8800C843C4F200034FF4C842C4F20002D2F8B6
:101F98001412FA680A43C3F814227B685B7B012B8E
:101FA8000DD14FF4C843C4F200034FF4C842C4F241
:101FB8000002D2F81C12FA680A43C3F81C224FF434
:101FC800C843C4F200034FF4C842C4F20002D2F876
:101FD800002222F00102C3F8002207F11407BD46CF
:101FE80080BC704780B483B000AF78607B684FF0E6
:101FF80000029A717B684FF00002DA717B684FF03B
:1020080000021A727B684FF000025A727B684FF028
:1020180000029A727B684FF00002DA727B684FF018
:1020280000029A707B684FF00002DA707B684FF00C
:1020380003021A717B684FF002025A717B684FF0F5
:1020480001021A8007F10C07BD4680BC704700BF2B
:1020580080B483B000AF0346FB714FF4C843C4F2A9
:1020680000034FF4C842C4F20002D2F8002242F042
:102078000102C3F800224FF4C843C4F200034FF42E
:10208800C842C4F20002D2F8002222F47C5222F0A4
:102098000E02C3F800224FF4C843C4F200034FF401
:1020A800C842C4F20002D2F80012FA794FEA0222BA
:1020B8000A43C3F800224FF4C843C4F200034FF4A4
:1020C800C842C4F20002D2F8002222F00102C3F88A
:1020D800002207F10C07BD4680BC704780B483B06E
:1020E80000AF78600B46FB70FB78002B06D07B684E
:1020F8001B6843F480327B681A6005E07B681B68C4
:1021080023F480327B681A6007F10C07BD4680BC57
:10211800704700BF80B483B000AF78600B46FB7097
:10212800FB78002B1ED07B681B6843F080027B681D
:102138001A607B68D3F8843143F480727B68C3F8F3
:1021480084217B68D3F8943143F480727B68C3F8A8
:1021580094217B68D3F8A43143F480727B68C3F878
:10216800A4211DE07B681B6823F080027B681A604D
:102178007B68D3F8843123F480727B68C3F88421A8
:102188007B68D3F8943123F480727B68C3F8942178
:102198007B68D3F8A43123F480727B68C3F8A42148
:1021A80007F10C07BD4680BC704700BF80B485B0FE
:1021B80000AF786039604FF00003FB737B689B6861
:1021C80003F08063002B03D04FF00003FB7316E08D
:1021D8007B689B6803F00063002B03D04FF001037A
:1021E800FB730CE07B689B6803F08053002B03D0E3
:1021F8004FF00203FB7302E04FF00403FB73FB7B19
:10220800042B00F0BA80FB7BFA7B796802F1180294
:102218004FEA02128A18126802F00102796803F183
:1022280018034FEA0313CB181A603B681B7A002B7C
:1022380018D1FB7BFA7B796802F118024FEA021287
:102248008A1811683A6812684FEA42503A68527A16
:1022580002430A43796803F118034FEA0313CB18C2
:102268001A601AE0FB7BFA7B796802F118024FEAE0
:1022780002128A1811683A6852684FEAC2003A682E
:10228800127A10433A68527A02430A43796803F192
:1022980018034FEA0313CB181A603B689B7A03F0C4
:1022A8000F03DAB23B689A72FB7BFA7B796802F11A
:1022B80018024FEA02128A18526822F00F0279684F
:1022C80003F118034FEA0313CB185A60FB7BFA7B20
:1022D800796802F118024FEA02128A1851683A68BE
:1022E800927A0A43796803F118034FEA0313CB186B
:1022F8005A60FB7B3A68927B4FEA02613A68527BEC
:102308004FEA024211433A68127B4FEA0222114314
:102318003A68D27A0A4379684FEA0313CB1803F56F
:10232800C4731A60FB7B3A68927C4FEA02613A6890
:10233800527C4FEA024211433A68127C4FEA022269
:1023480011433A68D27B0A4379684FEA0313CB18E2
:1023580003F5C4735A60FB7BFA7B796802F11802B3
:102368004FEA02128A18126842F00102796803F1F2
:1023780018034FEA0313CB181A60FB7B184607F1C2
:102388001407BD4680BC704780B485B000AF786044
:102398000B46FB704FF00003FB60FB78012B0CD061
:1023A800022B13D0002B1AD17B689A684FF00303D5
:1023B800C0F200431340FB6015E07B689A684FF455
:1023C8004073C0F600031340FB600CE07B689A681A
:1023D8004FF00003C1F203031340FB6003E04FF02A
:1023E8000003FB6000BFFB684FF48072C0F6000278
:1023F80093422FD04FF48072C0F6000293420ED859
:102408004FF00102C0F2004293421FD04FF0030286
:10241800C0F20042934225D0002B13D02EE04FF09B
:102428000002C1F20102934218D04FF00002C1F23B
:10243800030293421ED04FF44072C0F6000293424A
:1024480014D01BE04FF00203FB601BE04FF00003C9
:10245800FB6017E04FF00003FB6013E04FF0000350
:10246800FB600FE04FF00103FB600BE04FF001034E
:10247800FB6007E04FF00103FB6003E04FF000034F
:10248800FB6000BFFB68DBB2184607F11407BD46C6
:1024980080BC704780B483B000AF78600B46FB7097
:1024A800FB78012B0AD0022B0FD0002B14D17B68AC
:1024B8009B6843F080027B689A600EE07B689B68AB
:1024C80043F400427B689A6007E07B689B6843F4AA
:1024D80000027B689A6000E000BF07F10C07BD4668
:1024E80080BC704780B485B000AFF8600B467A6056
:1024F800FB72FB7AFA6803F11B034FEA0313D31844
:102508001B68DBB203F00403DAB27B681A727B68DB
:102518001B7A002B0CD1FB7AFA6803F11B034FEAF4
:102528000313D3181B684FEA53527B681A600BE0F9
:10253800FB7AFA6803F11B034FEA0313D3181B68ED
:102548004FEAD3027B685A60FB7AFA6803F11B03EF
:102558004FEA0313D3181B68DBB203F00203DAB2A5
:102568007B685A72FB7AFA6803F11B034FEA03137C
:10257800D3185B68DBB203F00F03DAB27B689A7298
:10258800FB7AFA6803F11B034FEA0313D3185B685D
:102598004FEA1323DAB27B68DA74FB7AFA684FEAF7
:1025A8000313D31803F5DC731B68DAB27B68DA729D
:1025B800FB7AFA684FEA0313D31803F5DC731B6838
:1025C8004FEA1323DAB27B681A73FB7AFA684FEA88
:1025D8000313D31803F5DC731B684FEA1343DAB20D
:1025E8007B685A73FB7AFA684FEA0313D31803F52A
:1025F800DC731B684FEA1363DAB27B689A73FB7A61
:10260800FA684FEA0313D31803F5DC735B68DAB290
:102618007B68DA73FB7AFA684FEA0313D31803F579
:10262800DC735B684FEA1323DAB27B681A74FB7AAF
:10263800FA684FEA0313D31803F5DC735B684FEAB3
:102648001343DAB27B685A74FB7AFA684FEA0313C9
:10265800D31803F5DC735B684FEA1363DAB27B685F
:102668009A74FB7A002B06D1FB68DB6843F02002E2
:10267800FB68DA6005E0FB681B6943F02002FB6831
:102688001A6107F11407BD4680BC704780B483B057
:1026980000AF78600B46FB70FB78002B06D17B6897
:1026A800DB6843F020027B68DA6005E07B681B6921
:1026B80043F020027B681A6107F10C07BD4680BC15
:1026C800704700BF80B485B000AF78600B46FB70E0
:1026D8004FF00003FB73FB78002B06D17B68DB68A7
:1026E800DBB203F00303FB730CE0FB78012B06D18C
:1026F8007B681B69DBB203F00303FB7302E04FF056
:102708000003FB73FB7B184607F11407BD4680BC2A
:10271800704700BF80B485B000AF78600B46FB708F
:102728004FF00003FB734FF6FF73BB60FB78002B81
:1027380023D17B681B6823F0030343F001027B6805
:102748001A6003E0BB6803F1FF33BB607B685B681A
:1027580003F00303012B02D0BB68002BF2D17B6886
:102768005B6803F00303012B03D04FF00003FB73F6
:1027780052E04FF00103FB734EE0FB78012B21D1AF
:102788007B681B6823F003027B681A6003E0BB6860
:1027980003F1FF33BB607B685B6803F00303002B26
:1027A80002D0BB68002BF2D17B685B6803F003039F
:1027B800002B03D04FF00003FB732DE04FF0010313
:1027C800FB7329E0FB78022B23D17B681B6823F07D
:1027D800030343F002027B681A6003E0BB6803F15D
:1027E800FF33BB607B685B6803F00303022B02D0F6
:1027F800BB68002BF2D17B685B6803F00303022BF4
:1028080003D04FF00003FB7306E04FF00103FB73A6
:1028180002E04FF00003FB73FB7B184607F1140737
:10282800BD4680BC704700BF80B485B000AF7860FB
:102838004FF00003FB737B681B6823F0030343F02E
:1028480002027B681A607B685B6803F00303022B53
:1028580002D14FF00103FB73FB7B184607F1140705
:10286800BD4680BC704700BF80B485B000AF7860BB
:102878004FF6FF73FB604FF00003FB727B681B6829
:1028880023F002027B681A6003E0FB6803F1FF3360
:10289800FB607B685B6803F00203002B02D0FB68D7
:1028A800002BF2D17B685B6803F00203002B02D196
:1028B8004FF00103FB72FB7A184607F11407BD4677
:1028C80080BC704780B485B000AF78604FF00003DB
:1028D800FB737B689B69DBB203F07003FB73FB7BC4
:1028E800184607F11407BD4680BC704780B485B010
:1028F80000AF78604FF00003FB737B689B694FEA79
:102908001363FB73FB7B184607F11407BD4680BCB5
:10291800704700BF80B485B000AF78604FF0000307
:10292800FB737B689B6903F47F034FEA1343FB73D4
:10293800FB7B184607F11407BD4680BC704700BFF3
:1029480080B485B000AFF860B9601346FB71FB79BD
:10295800002B06D0FB685A69BB681A43FB685A61AA
:1029680007E0FB685A69BB686FEA03031A40FB6813
:102978005A6107F11407BD4680BC704780B485B022
:1029880000AF786039604FF00003FB733B6803F4D5
:102998007003002B11D07B689A693B68134023F0C1
:1029A8007F4323F47003002B03D04FF00103FB7324
:1029B80059E04FF00003FB7355E03B6803F0807368
:1029C800002B11D07B685A683B68134023F07F4383
:1029D80023F47003002B03D04FF00103FB7342E094
:1029E8004FF00003FB733EE03B6803F00063002BED
:1029F80011D07B689A683B68134023F07F4323F427
:102A08007003002B03D04FF00103FB732BE04FF052
:102A18000003FB7327E03B6803F00073002B11D021
:102A28007B68DA683B68134023F07F4323F4700324
:102A3800002B03D04FF00103FB7314E04FF00003A9
:102A4800FB7310E07B681A693B68134023F07F43EF
:102A580023F47003002B03D04FF00103FB7302E053
:102A68004FF00003FB73FB7B184607F11407BD46C4
:102A780080BC704780B485B000AF786039604FF093
:102A88000003FB603A684FF07003C3F2F0039A4208
:102A980004D17B684FF000029A6123E03B6823F081
:102AA8007F4323F47003FB603B6803F00073002B43
:102AB80003D07B68FA68DA6014E03B6803F080634F
:102AC800002B03D07B68FA681A610BE03B6803F0BF
:102AD8000063002B03D07B68FA689A6002E07B6889
:102AE800FA685A6007F11407BD4680BC704700BFFA
:102AF80080B584B000AF786039604FF00003FB7395
:102B08007B685A693B681340002B00F0C4803B681F
:102B1800402B6BD0402B0FD8042B3FD0042B04D86C
:102B2800012B25D0022B2FD0B1E0102B4AD0202B1F
:102B380052D0082B3CD0AAE0B3F5006F00F0928089
:102B4800B3F5006F09D8B3F5007F77D0B3F5806F80
:102B58007ED0B3F5807F67D099E0B3F5803F4FD042
:102B6800B3F5003F56D0B3F5004F00F085808EE0F6
:102B78007B689B68184640F20111C0F2010100F021
:102B880011F90346FB7389E07B68DB6818464FF050
:102B9800030100F007F90346FB737FE07B68DB68FD
:102BA80018464FF0080100F0FDF80346FB7375E086
:102BB8007B68DB6818464FF0100100F0F3F8034615
:102BC800FB736BE07B681B6918464FF0030100F04C
:102BD800E9F80346FB7361E07B681B6918464FF010
:102BE800080100F0DFF80346FB7357E07B681B69B8
:102BF80018464FF0100100F0D5F80346FB734DE07E
:102C08007B685B6818464FF0080100F0CBF8034674
:102C1800FB7343E07B685B6818464FF0100100F0D7
:102C2800C1F80346FB7339E07B689B6918464FF08F
:102C3800010100F0B7F80346FB732FE07B689B693E
:102C480018464FF0020100F0ADF80346FB7325E08B
:102C58007B689B6918464FF0040100F0A3F803460F
:102C6800FB731BE07B689B6918464FF0700100F00E
:102C780099F80346FB7311E07B685B6818464FF0D0
:102C8800040100F08FF80346FB7300BF06E04FF025
:102C98000003FB7302E04FF00003FB73FB7B184655
:102CA80007F11007BD4680BD80B483B000AF7860DF
:102CB80039603B68B3F5807F4CD0B3F5807F0DD881
:102CC800082B2ED0082B04D8012B1ED0042B23D080
:102CD80061E0202B2AD0402B2DD05CE0B3F5006FAB
:102CE80047D0B3F5006F06D8B3F5007F37D0B3F5FA
:102CF800806F39D04FE0B3F5803F21D0B3F5003F66
:102D080023D0B3F5004F3DD045E07A6840F2011377
:102D1800C0F2010393603FE07B684FF00802DA607D
:102D28003AE07B684FF01002DA6035E07B684FF0DC
:102D380008021A6130E07B684FF010021A612BE03C
:102D48007B684FF008025A6026E07B684FF010025B
:102D58005A6021E07B684FF004025A601CE07B68EF
:102D68004FF004025A6017E07B684FF004025A6083
:102D780012E07B684FF000029A617B684FF0040212
:102D88005A6009E07B684FF000029A617B684FF057
:102D980004025A6000E000BF07F10C07BD4680BC82
:102DA800704700BF80B485B000AF786039604FF0DD
:102DB8000003FB737A683B681340002B03D04FF085
:102DC8000103FB7302E04FF00003FB73FB7B184623
:102DD80007F11407BD4680BC704700BF80B400AF40
:102DE8004FF44053C4F202034FF001029A60BD460B
:102DF80080BC704780B483B000AF78604FF4405314
:102E0800C4F202037A681A604FF44053C4F2020312
:102E18001B68184607F10C07BD4680BC704700BF09
:102E280080B485B000AF786039604FF00003FB6074
:102E38004FF00003FB600EE04FF44053C4F202036E
:102E4800FA684FEA820279688A1812681A60FB6881
:102E580003F10103FB60FA683B689A42ECD34FF434
:102E68004053C4F202031B68184607F11407BD4615
:102E780080BC704780B400AF4FF44053C4F20203E3
:102E88001B681846BD4680BC704700BF80B483B03D
:102E980000AF0346FB714FF44053C4F20203FA79C2
:102EA8001A7107F10C07BD4680BC704780B400AFAB
:102EB8004FF44053C4F202031B79DBB21846BD46F7
:102EC80080BC704780B500AF4FF010004FF0010193
:102ED80007F088F84FF010004FF0000107F082F873
:102EE80080BD00BF80B483B000AF78604FF00003AE
:102EF800C5F206034FF00002C5F20602126822F07E
:102F080038021A604FF00003C5F206034FF00002C2
:102F1800C5F2060211687A6852880A431A604FF0AF
:102F28000003C5F206034FF00002C5F2060212685C
:102F380022F0C0021A604FF00003C5F206034FF0FA
:102F48000002C5F2060211687A6892880A431A607C
:102F58007B685B88202B0BD07B685B88282B07D08D
:102F68007B685B88302B03D07B685B88382B18D153
:102F78004FF00003C5F206034FF00002C5F2060247
:102F8800126822F440721A604FF00003C5F206037B
:102F98004FF00002C5F2060211687A68D2880A4327
:102FA8001A604FF00003C5F206034FF00002C5F2A5
:102FB8000602126822F004021A604FF00003C5F2FC
:102FC80006034FF00002C5F2060211687A681288FB
:102FD8000A431A6007F10C07BD4680BC704700BF62
:102FE80080B483B000AF78607B684FF000021A802D
:102FF8007B684FF000025A807B684FF000029A808D
:103008007B684FF00002DA8007F10C07BD4680BCF0
:10301800704700BF80B483B000AF78604FF0000302
:10302800C5F206037A6812681A624FF00003C5F207
:1030380006037A6852685A624FF00003C5F2060325
:103048007A6892689A624FF00003C5F206037A68BC
:10305800D268DA624FF00003C5F206037A68126993
:103068001A634FF00003C5F206037A6852695A637F
:103078004FF00003C5F206037A6892699A634FF02D
:103088000003C5F206037A68D269DA6307F10C0710
:10309800BD4680BC704700BF80B483B000AF786085
:1030A8007B684FF000021A607B684FF000025A609C
:1030B8007B684FF000029A607B684FF00002DA608C
:1030C8007B684FF000021A617B684FF000025A617A
:1030D8007B684FF000029A617B684FF00002DA616A
:1030E80007F10C07BD4680BC704700BF80B483B0B1
:1030F80000AF78604FF00003C5F206037A681268E3
:103108001A644FF00003C5F206037A6852685A64DD
:103118004FF00003C5F206037A6892689A644FF08C
:103128000003C5F206037A68D268DA6407F10C076F
:10313800BD4680BC704700BF80B483B000AF7860E4
:103148007B684FF000021A607B684FF000025A60FB
:103158007B684FF000029A607B684FF00002DA60EB
:1031680007F10C07BD4680BC704700BF80B400AFB4
:103178004FF00003C5F206034FF00002C5F2060245
:10318800126842F480421A60BD4680BC704700BF96
:1031980080B483B000AF0346FB71FB79002B0CD0E1
:1031A8004FF00003C5F206034FF00002C5F2060215
:1031B800126842F400421A600BE04FF00003C5F2B7
:1031C80006034FF00002C5F20602126822F400421C
:1031D8001A6007F10C07BD4680BC704780B483B005
:1031E80000AF78604FF00003C5F206037A689A6072
:1031F80007F10C07BD4680BC704700BF80B400AF24
:103208004FF00003C5F20603DB681846BD4680BCD4
:10321800704700BF80B487B000AF786039604FF066
:103228000003BB604FF000037B614FF00003FB74A9
:103238004FF00003C5F206034FF00002C5F2060284
:10324800126922F001021A614FF00003C5F2060369
:103258001B6803F00803002B03D04FF011037B61B8
:1032680002E04FF015037B614FF00003C5F206033F
:103278005A687B691340FB60BB6803F10103BB60BC
:10328800BA684FF6FF739A4202D0FB68012BEBD164
:103298004FF00003C5F206035A687B691340012BFF
:1032A80003D04FF00003FB745FE04FF00003C5F25A
:1032B80006034FF00002C5F20602126922F002026C
:1032C8001A614FF00003C5F206034FF00002C5F281
:1032D8000602126822F400421A604FF00003C5F299
:1032E80006031B6803F47F727B681A604FF00003C3
:1032F800C5F206031A6C7B685A604FF00003C5F2EA
:1033080006035A6C7B689A604FF00003C5F2060307
:103318009A6C7B68DA604FF00003C5F20603DA6C3A
:103328007B681A613B681A687B685A613B685A680F
:103338007B689A613B689A687B68DA613B68DA68FF
:103348007B681A623B681A697B685A623B685A69EB
:103358007B689A623B689A697B68DA623B68DA69DB
:103368007B681A634FF00103FB74FB7C184607F176
:103378001C07BD4680BC704780B483B000AF78603E
:103388004FF00003C5F206037A6812681A604FF01E
:103398000003C5F206037A6852691A624FF0000307
:1033A800C5F206037A6892695A624FF00003C5F2C3
:1033B80006037A68D2699A624FF00003C5F20603E1
:1033C8007A68126ADA624FF00003C5F206037A6877
:1033D800526A1A634FF00003C5F206037A68926ACC
:1033E8005A634FF00003C5F206037A68D26A9A63FB
:1033F8004FF00003C5F206037A68126BDA634FF0E8
:103408000003C5F206037A6852681A644FF0000395
:10341800C5F206037A6892685A644FF00003C5F251
:1034280006037A68D2689A644FF00003C5F206036F
:103438007A681269DA644FF00003C5F206034FF0A8
:103448000002C5F20602126842F400421A6007F14F
:103458000C07BD4680BC704780B483B000AF0246FD
:103468000B46FA71BB71BB79002B0CD04FF00003EF
:10347800C5F206034FF00002C5F206021169FA7997
:103488000A431A610EE04FF00003C5F206034FF03D
:103498000002C5F206021169FA796FEA0202D2B295
:1034A8000A401A6107F10C07BD4680BC704700BF8F
:1034B80080B483B000AF02460B46FA71BB71BB798A
:1034C800002B0CD04FF00003C5F206034FF00002AA
:1034D800C5F206025169FA790A435A610EE04FF0C3
:1034E8000003C5F206034FF00002C5F20602516957
:1034F800FA796FEA0202D2B20A405A6107F10C0760
:10350800BD4680BC704700BF80B485B000AF03469D
:10351800FB714FF00003FB734FF00003C5F2060385
:10352800DA69FB791340002B03D04FF00103FB73DA
:1035380002E04FF00003FB73FB7B184607F114070A
:10354800BD4680BC704700BF80B485B000AF03465D
:10355800FB714FF00003FB734FF00003BB60FB7976
:1035680003F02003002B06D04FF00003C5F206033A
:103578009B69BB6005E04FF00003C5F206035B687A
:10358800BB60FA79BB681340002B03D04FF00103EE
:10359800FB7302E04FF00003FB73FB7B184607F157
:1035A8001407BD4680BC704790B5BBB000AFB9608A
:1035B8007B600346FB731346BB814FF000037B61BE
:1035C8004FF00003C7F8D4304FF0010387F8E73015
:1035D800BB68C7F8D0307B68C7F8E030D7F8FC3054
:1035E800C7F8DC304FF00003C7F8D83007F11803EC
:1035F8001846FFF751FDBB89C02B50D0B3F5807F2B
:1036080000F0BD80802B40F030814FF00003FB8735
:10361800D7F8D0301B68C7F8CC30D7F8CC301CBAF4
:10362800C7F8C840D7F8C830BB62D7F8D03003F124
:103638000403C7F8D030D7F8D0301B68C7F8C430B7
:10364800D7F8C4301CBAC7F8C040D7F8C030FB62FE
:10365800D7F8D03003F10403C7F8D030D7F8D0300A
:103668001B68C7F8BC30D7F8BC301CBAC7F8B840DC
:10367800D7F8B8303B63D7F8D03003F10403C7F864
:10368800D030D7F8D0301B68C7F8B430D7F8B4308A
:103698001CBAC7F8B040D7F8B0307B63E6E04FF407
:1036A8008073FB87D7F8D0301B68C7F8AC30D7F8E1
:1036B800AC301CBAC7F8A840D7F8A8303B62D7F896
:1036C800D03003F10403C7F8D030D7F8D0301B68E6
:1036D800C7F8A430D7F8A4301CBAC7F8A040D7F868
:1036E800A0307B62D7F8D03003F10403C7F8D0309C
:1036F800D7F8D0301B68C7F89C30D7F89C301CBA74
:10370800C7F89840D7F89830BB62D7F8D03003F1A3
:103718000403C7F8D030D7F8D0301B68C7F8943006
:10372800D7F894301CBAC7F89040D7F89030FB62AD
:10373800D7F8D03003F10403C7F8D030D7F8D03029
:103748001B68C7F88C30D7F88C301CBAC7F888408B
:10375800D7F888303B63D7F8D03003F10403C7F8B3
:10376800D030D7F8D0301B68C7F88430D7F8843009
:103778001CBAC7F88040D7F880307B6376E04FF4F6
:103788000073FB87D7F8D0301B68FB67FB6F1CBA48
:10379800BC67BB6FBB61D7F8D03003F10403C7F82F
:1037A800D030D7F8D0301B687B677B6F1CBA3C677A
:1037B8003B6FFB61D7F8D03003F10403C7F8D03072
:1037C800D7F8D0301B68FB66FB6E1CBABC66BB6EB4
:1037D8003B62D7F8D03003F10403C7F8D030D7F8EC
:1037E800D0301B687B667B6E1CBA3C663B6E7B6286
:1037F800D7F8D03003F10403C7F8D030D7F8D03069
:103808001B68FB65FB6D1CBABC65BB6DBB62D7F85A
:10381800D03003F10403C7F8D030D7F8D0301B6894
:103828007B657B6D1CBA3C653B6DFB62D7F8D0307D
:1038380003F10403C7F8D030D7F8D0301B68FB6415
:10384800FB6C1CBABC64BB6C3B63D7F8D03003F18B
:103858000403C7F8D030D7F8D0301B687B647B6C82
:103868001CBA3C643B6C7B6300E000BFFB7B002B15
:1038780038D1FFF77BFC4FF004033B874FF0380348
:103888007B874FF00003BB8707F138031846FFF723
:1038980029FB07F118031846FFF7BCFB4FF001009E
:1038A800FFF776FC4FF01000FFF74EFE0346C7F80F
:1038B800D4307B6903F101037B617B69B3F5803FF9
:1038C80003D0D7F8D430002BECD1D7F8D430002B64
:1038D80004D04FF0000387F8E7300BE04FF0040303
:1038E8003B8707E007F118031846FFF793FB4FF0F3
:1038F80000033B874FF020037B874FF08003BB8793
:1039080007F138031846FFF7EDFAFFF72FFC4FF0E1
:103918000100FFF73DFC4FF00003C7F8D83084E002
:10392800D7F8E0301B681846FFF758FCD7F8E030A6
:1039380003F10403C7F8E030D7F8E0301B681846F5
:10394800FFF74CFCD7F8E03003F10403C7F8E03088
:10395800D7F8E0301B681846FFF740FCD7F8E0308E
:1039680003F10403C7F8E030D7F8E0301B681846C5
:10397800FFF734FCD7F8E03003F10403C7F8E03070
:103988004FF000037B614FF01000FFF7DDFD0346A9
:10399800C7F8D4307B6903F101037B617B69B3F518
:1039A800803F03D0D7F8D430002BECD1D7F8D430EF
:1039B800002B04D04FF0000387F8E7302FE0D7F84A
:1039C800DC40FFF71BFC03462360D7F8DC3003F12B
:1039D8000403C7F8DC30D7F8DC40FFF70FFC0346D8
:1039E8002360D7F8DC3003F10403C7F8DC30D7F8DC
:1039F800DC40FFF703FC03462360D7F8DC3003F113
:103A08000403C7F8DC30D7F8DC40FFF7F7FB0346C0
:103A18002360D7F8DC3003F10403C7F8DC30D7F8AB
:103A2800D83003F11003C7F8D830D7F8D820D7F822
:103A3800F8309A4204D297F8E730002B7FF470AF41
:103A48004FF00000FFF7A4FB97F8E730184607F19E
:103A5800EC07BD4690BD00BF90B5C7B000AF07F1F9
:103A68000804216007F104010A601A4607F10F03F0
:103A78000146197007F10C031A8007F110034FF083
:103A880000021A604FF00003C7F804314FF0010339
:103A980087F8173107F104031B68C7F80031D7F816
:103AA8002831C7F81031D7F83031C7F80C3107F191
:103AB80008031B68C7F8FC304FF00003C7F808314B
:103AC80007F124031846FFF7E7FA07F10C031B88F0
:103AD800C02B51D0B3F5807F00F0BF80802B40F021
:103AE80049814FF00003A7F84A30D7F800311B6826
:103AF800C7F8F830D7F8F8301CBAC7F8F440D7F848
:103B0800F4307B63D7F8003103F10403C7F80031C0
:103B1800D7F800311B68C7F8F030D7F8F0301CBA76
:103B2800C7F8EC40D7F8EC30BB63D7F8003103F1A5
:103B38000403C7F80031D7F800311B68C7F8E8302C
:103B4800D7F8E8301CBAC7F8E440D7F8E430FB638C
:103B5800D7F8003103F10403C7F80031D7F8003172
:103B68001B68C7F8E030D7F8E0301CBAC7F8DC406B
:103B7800D7F8DC303B64FEE04FF48073A7F84A3096
:103B8800D7F800311B68C7F8D830D7F8D8301CBA36
:103B9800C7F8D440D7F8D430FB62D7F8003103F126
:103BA8000403C7F80031D7F800311B68C7F8D030D4
:103BB800D7F8D0301CBAC7F8CC40D7F8CC303B6324
:103BC800D7F8003103F10403C7F80031D7F8003102
:103BD8001B68C7F8C830D7F8C8301CBAC7F8C44043
:103BE800D7F8C4307B63D7F8003103F10403C7F872
:103BF8000031D7F800311B68C7F8C030D7F8C0309B
:103C08001CBAC7F8BC40D7F8BC30BB63D7F8003142
:103C180003F10403C7F80031D7F800311B68C7F86F
:103C2800B830D7F8B8301CBAC7F8B440D7F8B430B1
:103C3800FB63D7F8003103F10403C7F80031D7F864
:103C480000311B68C7F8B030D7F8B0301CBAC7F8D5
:103C5800AC40D7F8AC303B648DE04FF40073A7F864
:103C68004A30D7F800311B68C7F8A830D7F8A83011
:103C78001CBAC7F8A440D7F8A4307B62D7F8003143
:103C880003F10403C7F80031D7F800311B68C7F8FF
:103C9800A030D7F8A0301CBAC7F89C40D7F89C30A1
:103CA800BB62D7F8003103F10403C7F80031D7F835
:103CB80000311B68C7F89830D7F898301CBAC7F895
:103CC8009440D7F89430FB62D7F8003103F104032D
:103CD800C7F80031D7F800311B68C7F89030D7F81B
:103CE80090301CBAC7F88C40D7F88C303B63D7F8B3
:103CF800003103F10403C7F80031D7F800311B681D
:103D0800C7F88830D7F888301CBAC7F88440D7F885
:103D180084307B63D7F8003103F10403C7F800311E
:103D2800D7F800311B68C7F88030D7F880301CBA44
:103D3800FC67FB6FBB63D7F8003103F10403C7F8D6
:103D48000031D7F800311B68BB67BB6F1CBA7C67B2
:103D58007B6FFB63D7F8003103F10403C7F8003128
:103D6800D7F800311B683B673B6F1CBAFC66FB6EDB
:103D78003B6400E000BFD7F8FC301B68BB66BB6E35
:103D88001CBA7C667B6E1A4607F114031A60D7F8D2
:103D9800FC3003F10403C7F8FC30D7F8FC301B688B
:103DA8003B663B6E1CBAFC65FB6D1A4607F11403B3
:103DB8005A60D7F8FC3003F10403C7F8FC30D7F891
:103DC800FC301B68BB65BB6D1CBA7C657B6D1A46F5
:103DD80007F114039A60D7F8FC3003F10403C7F81D
:103DE800FC30D7F8FC301B683B653B6D1CBAFC64A3
:103DF800FB6C1A4607F11403DA6007F10F031B780E
:103E0800002B42D1FFF7B2F94FF00403A7F8443072
:103E18004FF03803A7F846304FF00003A7F84830B2
:103E280007F144031846FFF75DF807F12403184625
:103E3800FFF7F0F84FF00100FFF7AAF94FF0100074
:103E4800FFF782FB0346C7F8043107F110031B682C
:103E580003F1010207F110031A6007F110031B6850
:103E6800B3F5803F03D0D7F80431002BE6D1D7F85B
:103E78000431002B04D04FF0000387F817310DE010
:103E88004FF00403A7F8443008E007F1240318466C
:103E9800FFF7C0F84FF00003A7F844304FF02803AD
:103EA800A7F846304FF08003A7F8483007F14403DD
:103EB8001846FFF717F807F114031846FFF716F925
:103EC800FFF754F94FF00100FFF762F94FF00003D4
:103ED800C7F808318CE0D7F810311B681846FFF78F
:103EE8007DF9D7F8103103F10403C7F81031D7F87A
:103EF80010311B681846FFF771F9D7F8103103F134
:103F08000403C7F81031D7F810311B681846FFF7BB
:103F180065F9D7F8103103F10403C7F81031D7F861
:103F280010311B681846FFF759F9D7F8103103F11B
:103F38000403C7F8103107F110034FF000021A60AC
:103F48004FF01000FFF700FB0346C7F8043107F1F4
:103F580010031B6803F1010207F110031A6007F14F
:103F680010031B68B3F5803F03D0D7F80431002B4A
:103F7800E6D1D7F80431002B04D04FF0000387F8BE
:103F880017312FE0D7F80C41FFF738F903462360C3
:103F9800D7F80C3103F10403C7F80C31D7F80C41FA
:103FA800FFF72CF903462360D7F80C3103F104031B
:103FB800C7F80C31D7F80C41FFF720F90346236006
:103FC800D7F80C3103F10403C7F80C31D7F80C41CA
:103FD800FFF714F903462360D7F80C3103F1040303
:103FE800C7F80C31D7F8083103F11003C7F80831C6
:103FF800D7F80821D7F82C319A4204D297F817310C
:10400800002B7FF468AF4FF00000FFF7C1F897F876
:104018001731184607F58E77BD4690BD90B5C7B0E5
:1040280000AF07F10804216007F104010A601A468D
:1040380007F10F030146197007F10C031A8007F105
:1040480010034FF000021A604FF00003C7F8043164
:104058004FF0010387F8173107F104031B68C7F80D
:104068000031D7F82831C7F81031D7F83031C7F800
:104078000C3107F108031B68C7F8FC304FF0000348
:10408800C7F8083107F124031846FFF705F807F1C8
:104098000C031B88C02B51D0B3F5807F00F0BF8084
:1040A800802B40F049814FF00003A7F84A30D7F839
:1040B80000311B68C7F8F830D7F8F8301CBAC7F8D1
:1040C800F440D7F8F4307B63D7F8003103F10403E8
:1040D800C7F80031D7F800311B68C7F8F030D7F8B7
:1040E800F0301CBAC7F8EC40D7F8EC30BB63D7F80F
:1040F800003103F10403C7F80031D7F800311B6819
:10410800C7F8E830D7F8E8301CBAC7F8E440D7F861
:10411800E430FB63D7F8003103F10403C7F800313A
:10412800D7F800311B68C7F8E030D7F8E0301CBA80
:10413800C7F8DC40D7F8DC303B64FEE04FF480730E
:10414800A7F84A30D7F800311B68C7F8D830D7F835
:10415800D8301CBAC7F8D440D7F8D430FB62D7F8A7
:10416800003103F10403C7F80031D7F800311B68A8
:10417800C7F8D030D7F8D0301CBAC7F8CC40D7F839
:10418800CC303B63D7F8003103F10403C7F80031A2
:10419800D7F800311B68C7F8C830D7F8C8301CBA40
:1041A800C7F8C440D7F8C4307B63D7F8003103F1AF
:1041B8000403C7F80031D7F800311B68C7F8C030CE
:1041C800D7F8C0301CBAC7F8BC40D7F8BC30BB63BE
:1041D800D7F8003103F10403C7F80031D7F80031EC
:1041E8001B68C7F8B830D7F8B8301CBAC7F8B4405D
:1041F800D7F8B430FB63D7F8003103F10403C7F8EC
:104208000031D7F800311B68C7F8B030D7F8B030A4
:104218001CBAC7F8AC40D7F8AC303B648DE04FF41B
:104228000073A7F84A30D7F800311B68C7F8A830E0
:10423800D7F8A8301CBAC7F8A440D7F8A4307B62D6
:10424800D7F8003103F10403C7F80031D7F800317B
:104258001B68C7F8A030D7F8A0301CBAC7F89C4034
:10426800D7F89C30BB62D7F8003103F10403C7F8D4
:104278000031D7F800311B68C7F89830D7F8983064
:104288001CBAC7F89440D7F89430FB62D7F80031CD
:1042980003F10403C7F80031D7F800311B68C7F8E9
:1042A8009030D7F890301CBAC7F88C40D7F88C30CB
:1042B8003B63D7F8003103F10403C7F80031D7F89E
:1042C80000311B68C7F88830D7F888301CBAC7F89F
:1042D8008440D7F884307B63D7F8003103F10403B6
:1042E800C7F80031D7F800311B68C7F88030D7F815
:1042F80080301CBAFC67FB6FBB63D7F8003103F151
:104308000403C7F80031D7F800311B68BB67BB6FDF
:104318001CBA7C677B6FFB63D7F8003103F1040399
:10432800C7F80031D7F800311B683B673B6F1CBAF0
:10433800FC66FB6E3B6400E000BFD7F8FC301B68EE
:10434800BB66BB6E1CBA7C667B6E1A4607F114030B
:104358001A60D7F8FC3003F10403C7F8FC30D7F82B
:10436800FC301B683B663B6E1CBAFC65FB6D1A464D
:1043780007F114035A60D7F8FC3003F10403C7F8B7
:10438800FC30D7F8FC301B68BB65BB6D1CBA7C657C
:104398007B6D1A4607F114039A60D7F8FC3003F1D5
:1043A8000403C7F8FC30D7F8FC301B683B653B6D4D
:1043B8001CBAFC64FB6C1A4607F11403DA6007F1B7
:1043C80024031846FEF726FE07F10F031B78002B7F
:1043D80004D14FF00403A7F8443003E04FF0000382
:1043E800A7F844304FF03003A7F846304FF0800369
:1043F800A7F8483007F144031846FEF773FD07F1A4
:1044080014031846FEF772FEFEF7B0FE4FF00100E7
:10441800FEF7BEFE4FF00003C7F808318CE0D7F86E
:1044280010311B681846FEF7D9FED7F8103103F192
:104438000403C7F81031D7F810311B681846FEF787
:10444800CDFED7F8103103F10403C7F81031D7F8BF
:1044580010311B681846FEF7C1FED7F8103103F17A
:104468000403C7F81031D7F810311B681846FEF757
:10447800B5FED7F8103103F10403C7F8103107F17E
:1044880010034FF000021A604FF01000FFF75CF8BD
:104498000346C7F8043107F110031B6803F1010252
:1044A80007F110031A6007F110031B68B3F5803F8A
:1044B80003D0D7F80431002BE6D1D7F80431002B0C
:1044C80004D04FF0000387F817312FE0D7F80C41DC
:1044D800FEF794FE03462360D7F80C3103F104037A
:1044E800C7F80C31D7F80C41FEF788FE0346236065
:1044F800D7F80C3103F10403C7F80C31D7F80C4195
:10450800FEF77CFE03462360D7F80C3103F1040361
:10451800C7F80C31D7F80C41FEF770FE034623604C
:10452800D7F80C3103F10403C7F80C31D7F8083178
:1045380003F11003C7F80831D7F80821D7F82C3150
:104548009A4204D297F81731002B7FF468AF4FF0E6
:104558000000FEF71DFE97F81731184607F58E770D
:10456800BD4690BD90B59BB000AFB9607A603B6026
:104578000346FB734FF000037B614FF000037B653C
:104588004FF0010387F86730BB683B657B683B6683
:10459800BB6FFB654FF00003BB6507F118031846B6
:1045A800FEF77AFDFB7B012B03D14FF000033B871D
:1045B80002E04FF004033B874FF010037B874FF076
:1045C8008003BB8707F138031846FEF78BFC3B6D69
:1045D8001B68FB64FB6C1CBABC64BB6C3B623B6D28
:1045E80003F104033B653B6D1B687B647B6C1CBA61
:1045F8003C643B6C7B6207F118031846FEF70AFD22
:10460800FEF7B4FD4FF00100FEF7C2FD4FF00003C6
:10461800BB6543E03B6E1B681846FEF7DFFD3B6E4B
:1046280003F104033B663B6E1B681846FEF7D6FD94
:104638003B6E03F104033B664FF000037B614FF0D0
:104648001000FEF781FF03467B657B6903F10103D8
:104658007B617B69B3F5803F02D07B6D002BEED187
:104668007B6D002B04D04FF0000387F8673011E012
:10467800FC6DFEF7C3FD03462360FB6D03F10403E5
:10468800FB65FC6DFEF7BAFD03462360FB6D03F185
:104698000403FB65BB6D03F10803BB65BA6D3B689A
:1046A8009A4203D297F86730002BB3D14FF000003D
:1046B800FEF76EFD97F86730184607F16C07BD46A0
:1046C80090BD00BF90B5A3B000AFB9607A603B6001
:1046D8000346FB734FF000033B614FF000037B6719
:1046E8004FF0010387F88730BB683B673B68C7F822
:1046F8008030D7F89C30FB677B68FB664FF000037F
:10470800BB6707F124031846FEF7C6FCFB7B012BA9
:1047180004D14FF00003A7F8443003E04FF004033E
:10472800A7F844304FF01803A7F846304FF080033D
:10473800A7F8483007F144031846FEF7D3FB3B6F50
:104748001B68BB66BB6E1CBA7C667B6EFB623B6FEC
:1047580003F104033B673B6F1B683B663B6E1CBA67
:10476800FC65FB6D3B6307F124031846FEF752FC1A
:10477800FB6E1B68BB65BB6D1CBA7C657B6D7B6182
:10478800FB6E03F10403FB66FB6E1B683B653B6D28
:104798001CBAFC64FB6CBB6107F114031846FEF7F6
:1047A800A5FCFEF7E3FC4FF00100FEF7F1FC4FF02B
:1047B8000003BB6749E0D7F880301B681846FEF74E
:1047C8000DFDD7F8803003F10403C7F88030D7F81F
:1047D80080301B681846FEF701FDD7F8803003F1DA
:1047E8000403C7F880304FF000033B614FF010001E
:1047F800FEF7AAFE03467B673B6903F101033B61B1
:104808003B69B3F5803F02D07B6F002BEED17B6F05
:10481800002B04D04FF0000387F8873011E0FC6FBD
:10482800FEF7ECFC03462360FB6F03F10403FB6710
:10483800FC6FFEF7E3FC03462360FB6F03F1040300
:10484800FB67BB6F03F10803BB67BA6FD7F89830F3
:104858009A4203D297F88730002BACD14FF0000072
:10486800FEF796FC97F88730184607F18C07BD4687
:1048780090BD00BF90B5A3B000AFB9607A603B604F
:104888000346FB734FF000037B614FF000037B6727
:104898004FF0010387F88730BB683B677B68C7F830
:1048A8008030D7F89830FB674FF00003BB6707F1FB
:1048B80018031846FEF7F0FBFB7B012B03D14FF0E2
:1048C80000033B8702E04FF004033B874FF00003EF
:1048D8007B874FF08003BB8707F138031846FEF744
:1048E80001FB3B6F1B68FB66FB6E1CBABC66BB6EAC
:1048F8003B623B6F03F104033B673B6F1B687B66BE
:104908007B6E1CBA3C663B6E7B623B6F03F1040313
:104918003B673B6F1B68FB65FB6D1CBABC65BB6DD9
:10492800BB623B6F03F104033B673B6F1B687B650E
:104938007B6D1CBA3C653B6DFB623B6F03F1040366
:104948003B673B6F1B68FB64FB6C1CBABC64BB6CAD
:104958003B633B6F03F104033B673B6F1B687B645E
:104968007B6C1CBA3C643B6C7B6307F118031846EC
:10497800FEF750FBFEF7FAFB4FF00100FEF708FCCC
:104988004FF00003BB6749E0D7F880301B68184632
:10499800FEF724FCD7F8803003F10403C7F8803011
:1049A800D7F880301B681846FEF718FCD7F8803017
:1049B80003F10403C7F880304FF000037B614FF028
:1049C8001000FEF7C1FD03467B677B6903F1010315
:1049D8007B617B69B3F5803F02D07B6F002BEED102
:1049E8007B6F002B04D04FF0000387F8873011E06D
:1049F800FC6FFEF703FC03462360FB6F03F104031F
:104A0800FB67FC6FFEF7FAFB03462360FB6F03F1BD
:104A18000403FB67BB6F03F10803BB67BA6F3B680E
:104A28009A4203D297F88730002BADD14FF000009F
:104A3800FEF7AEFB97F88730184607F18C07BD469E
:104A480090BD00BF90B5ABB000AFB9607A603B6075
:104A58000346FB734FF000033B614FF00003C7F8B8
:104A680094304FF0010387F8A730BB68C7F890303F
:104A78003B68C7F8A030D7F8BC30C7F89C307B68D3
:104A8800C7F88C304FF00003C7F8983007F12403BB
:104A98001846FEF701FBFB7B012B04D14FF0000306
:104AA800A7F8443003E04FF00403A7F844304FF070
:104AB8000803A7F846304FF08003A7F8483007F1FD
:104AC80044031846FEF70EFAD7F890301B68C7F86B
:104AD8008830D7F888301CBAC7F88440D7F88430B3
:104AE800FB62D7F8903003F10403C7F89030D7F889
:104AF80090301B68C7F88030D7F880301CBAFC6744
:104B0800FB6F3B63D7F8903003F10403C7F890308C
:104B1800D7F890301B68BB67BB6F1CBA7C677B6F8C
:104B28007B63D7F8903003F10403C7F89030D7F8C7
:104B380090301B683B673B6F1CBAFC66FB6EBB631F
:104B4800D7F8903003F10403C7F89030D7F89030C5
:104B58001B68BB66BB6E1CBA7C667B6EFB63D7F8B2
:104B6800903003F10403C7F89030D7F890301B68F1
:104B78003B663B6E1CBAFC65FB6D3B6407F1240386
:104B88001846FEF747FAD7F88C301B68BB65BB6D33
:104B98001CBA7C657B6D7B61D7F88C3003F104030C
:104BA800C7F88C30D7F88C301B683B653B6D1CBA56
:104BB800FC64FB6CBB6107F114031846FEF796FA18
:104BC800FEF7D4FA4FF00100FEF7E2FA4FF00003C7
:104BD800C7F8983054E0D7F8A0301B681846FEF79D
:104BE800FDFAD7F8A03003F10403C7F8A030D7F8CE
:104BF800A0301B681846FEF7F1FAD7F8A03003F189
:104C08000403C7F8A0304FF000033B614FF01000D9
:104C1800FEF79AFC0346C7F894303B6903F1010399
:104C28003B613B69B3F5803F03D0D7F89430002B44
:104C3800ECD1D7F89430002B04D04FF0000387F85C
:104C4800A73017E0D7F89C40FEF7D8FA0346236050
:104C5800D7F89C3003F10403C7F89C30D7F89C4080
:104C6800FEF7CCFA03462360D7F89C3003F104031F
:104C7800C7F89C30D7F8983003F10803C7F8983084
:104C8800D7F89820D7F8B8309A4203D297F8A730C7
:104C9800002BA0D14FF00000FEF77AFA97F8A73062
:104CA800184607F1AC07BD4690BD00BF80B500AF00
:104CB8004FF000504FF0010105F0E8F94FF00050B7
:104CC8004FF0000105F0E2F980BD00BF80B485B067
:104CD80000AF786039604FF00003FB604FF00003CD
:104CE800BB604FF4E843C4F200031B68FB607B68B9
:104CF80040F6FE7202FA03F36FEA0303FA68134000
:104D0800FB603B681A683B685B681A433B689B68B2
:104D18001A433B68DB681343BB607B68BA6802FAD6
:104D280003F3FA681343FB604FF4E843C4F200034B
:104D3800FA681A6007F11407BD4680BC704700BFC7
:104D480080B483B000AF78607B684FF000021A60CF
:104D58007B684FF000025A607B684FF000029A604F
:104D68007B684FF00002DA6007F10C07BD4680BC93
:104D7800704700BF80B483B000AF78600B46FB700B
:104D8800FB78002B10D04FF4E843C4F200034FF433
:104D9800E842C4F2000211687A684FF0010000FA94
:104DA80002F20A431A6011E04FF4E843C4F2000328
:104DB8004FF4E842C4F2000211687A684FF001002B
:104DC80000FA02F26FEA02020A401A6007F10C07C1
:104DD800BD4680BC704700BF80B483B000AF786028
:104DE8000B46FB70FB78002B12D04FF4E843C4F25B
:104DF80000034FF4E842C4F2000251687A684FEAAF
:104E080012124FF0010000FA02F20A435A6013E04E
:104E18004FF4E843C4F200034FF4E842C4F200023E
:104E280051687A684FEA12124FF0010000FA02F254
:104E38006FEA02020A405A6007F10C07BD4680BCBF
:104E4800704700BF80B483B000AF0346FB71FB79A5
:104E5800002B0CD04FF4E843C4F200034FF4E842AF
:104E6800C4F20002526842F003025A600BE04FF4A9
:104E7800E843C4F200034FF4E842C4F20002526867
:104E880022F003025A6007F10C07BD4680BC704748
:104E980080B485B000AFF860B9601346FB71FB7948
:104EA800002B0FD04FF4E843C4F200034FF4E8425C
:104EB800C4F200021168FA68B86800FA02F20A43FC
:104EC8001A6010E04FF4E843C4F200034FF4E842DC
:104ED800C4F200021168FA68B86800FA02F26FEAD0
:104EE80002020A401A6007F11407BD4680BC7047E9
:104EF80080B485B000AF78600B467B804FF000032C
:104F0800FB604FF4E843C4F20003FB60FA687B6877
:104F1800D31803F10803FB60FB687A881A6007F16D
:104F28001407BD4680BC704780B485B000AF786078
:104F38000B467B804FF00003FB604FF4E843C4F25C
:104F48000003FB60FA687B68D31803F11403FB6065
:104F5800FB687A881A6007F11407BD4680BC704761
:104F680080B485B000AF786013460A467A803B80EB
:104F78004FF00003FB604FF00003BB607B68082B19
:104F880006D17B884FEA03223B881343FB6005E088
:104F98007B884FEA03423B881343FB604FF4E843A6
:104FA800C4F20003BB607A68BB68D31803F120031E
:104FB800BB60BB68FA681A6007F11407BD4680BC7D
:104FC800704700BF80B485B000AF78604FF0000331
:104FD800FB604FF4E843C4F20003FB607B684FEAD0
:104FE8009302FB68D31803F12C03FB60FB681B6872
:104FF8009BB2184607F11407BD4680BC704700BF36
:1050080080B483B000AF78600B46FB70FB78002B50
:1050180010D04FF4E843C4F200034FF4E842C4F25E
:10502800000211687A684FF4805000FA02F20A43CD
:105038001A6011E04FF4E843C4F200034FF4E84269
:10504800C4F2000211687A684FF4805000FA02F244
:105058006FEA02020A401A6007F10C07BD4680BCDD
:10506800704700BF80B485B000AFF860B9601346E0
:10507800FB71FB79002B0FD04FF4E843C4F2000317
:105088004FF4E842C4F200021168FA68B86800FAFE
:1050980002F20A431A6010E04FF4E843C4F2000336
:1050A8004FF4E842C4F200021168FA68B86800FADE
:1050B80002F26FEA02020A401A6007F11407BD46BD
:1050C80080BC704780B485B000AF786039604FF01D
:1050D8000003FB734FF4E843C4F200035A6B7B6888
:1050E800396801FA03F31340002B03D04FF0010392
:1050F800FB7302E04FF00003FB73FB7B184607F1DC
:105108001407BD4680BC704780B483B000AF786098
:1051180039604FF4E843C4F200037A68396801FA49
:1051280002F25A6307F10C07BD4680BC704700BF06
:1051380080B485B000AF786039604FF00003FB732E
:105148004FF00003BB604FF4E843C4F200031A6851
:105158007B68396801FA03F31340BB604FF4E843F6
:10516800C4F200035A6B7B68396801FA03F31340F1
:10517800002B06D0BB68002B03D04FF00103FB7354
:1051880002E04FF00003FB73FB7B184607F114079E
:10519800BD4680BC704700BF80B483B000AF786064
:1051A80039604FF4E843C4F200037A68396801FAB9
:1051B80002F25A6307F10C07BD4680BC704700BF76
:1051C80080B400AF4FF40053CEF204031B684FEADB
:1051D80013431846BD4680BC704700BF80B400AF7B
:1051E8004FF40053CEF204031B684FEA03534FEA0F
:1051F80013531846BD4680BC704700BF80B483B0C7
:1052080000AF78600B46FB70FB78002B0CD04FF496
:105218000053CEF204034FF40052CEF20402516858
:105228007A680A435A600DE04FF40053CEF2040343
:105238004FF40052CEF2040251687A686FEA020213
:105248000A405A6007F10C07BD4680BC704700BF92
:1052580080B483B000AF78600B46FB70FB78002BFE
:105268000CD04FF40053CEF204034FF40052CEF2A8
:10527800040291687A680A439A600DE04FF400537B
:10528800CEF204034FF40052CEF2040291687A6819
:105298006FEA02020A409A6007F10C07BD4680BC1B
:1052A800704700BF80B483B000AF78600B46FB70D6
:1052B800FB78002B0CD04FF40053CEF204034FF4CC
:1052C8000052CEF20402D1687A680A43DA600DE02F
:1052D8004FF40053CEF204034FF40052CEF204020E
:1052E800D1687A686FEA02020A40DA6007F10C07AF
:1052F800BD4680BC704700BF80B400AF4FF00003CC
:10530800C5F205034FF000021A604FF00003C5F222
:1053180005034FF00002DA604FF00003C5F2050301
:105328004FF01F025A614FF00003C5F205034FF01A
:1053380000029A614FF00003C5F205034FF0000226
:10534800DA614FF00003C5F205034FF000021A625C
:105358004FF00003C5F205034FF000025A62BD4644
:1053680080BC704780B485B000AF78604FF0000310
:10537800FB604FF00003C5F205034FF00002C5F2D1
:105388000502126822F4804222F001021A604FF0EE
:105398000003C5F205031B68FB60FB6823F47F6309
:1053A80023F00203FB607B681A887B685B881343E1
:1053B8009AB27B689B8813439AB27B68DB88134355
:1053C8009AB27B681B8913439AB27B685B89134343
:1053D8009AB27B689B8913439BB2FA681343FB60BC
:1053E8004FF00003C5F20503FA681A6007F11407C5
:1053F800BD4680BC704700BF80B483B000AF786002
:105408007B684FF000021A807B684FF000025A80D8
:105418007B684FF000029A807B684FF00002DA80C8
:105428007B684FF000021A817B684FF000025A81B6
:105438007B684FF000029A8107F10C07BD4680BCDB
:10544800704700BF80B483B000AF78604FF00003AE
:10545800C5F205037A68528811467A6812884FEABD
:1054680002420A431A624FF00003C5F205037A6844
:10547800D28811467A6892884FEA02420A435A62F1
:1054880007F10C07BD4680BC704700BF80B483B0ED
:1054980000AF0346FB71FB79002B0CD04FF00003E3
:1054A800C5F205034FF00002C5F20502126842F08A
:1054B80004021A600BE04FF00003C5F205034FF039
:1054C8000002C5F20502126822F004021A6007F110
:1054D8000C07BD4680BC704780B483B000AF7860CD
:1054E8004FF00003C5F205037A68127811467A680E
:1054F80052784FEA022211437A6892784FEA0242C0
:1055080011437A68D2784FEA02620A439A6107F136
:105518000C07BD4680BC704780B483B000AF03461B
:10552800FB71FB79002B0CD04FF00003C5F205038B
:105538004FF00002C5F20502126842F008021A6034
:105548000BE04FF00003C5F205034FF00002C5F26F
:105558000502126822F008021A6007F10C07BD461E
:1055680080BC704780B483B000AF0346FB71FB7901
:10557800002B0CD04FF00003C5F205034FF00002DA
:10558800C5F20502126842F480421A600BE04FF03F
:105598000003C5F205034FF00002C5F205021268C8
:1055A80022F480421A6007F10C07BD4680BC7047A0
:1055B80080B483B000AF0346FB71FB79002B0CD09D
:1055C8004FF00003C5F205034FF00002C5F20502D3
:1055D800126842F001021A600BE04FF00003C5F2B6
:1055E80005034FF00002C5F20502126822F001021D
:1055F8001A6007F10C07BD4680BC704780B400AF45
:105608004FF00003C5F205039B6A1846BD4680BCEF
:10561800704700BF80B483B000AF02460B46FA80E3
:105628007B717B79002B0CD04FF00003C5F205038A
:105638004FF00002C5F20502D168FA880A43DA6021
:105648000EE04FF00003C5F205034FF00002C5F26B
:105658000502D168FA886FEA020292B20A40DA605B
:1056680007F10C07BD4680BC704700BF80B487B007
:1056780000AF0346FB804FF00003FB754FF00003BB
:105688003B61FB884FEA13339BB2FB60FB68002B3E
:1056980006D14FF00003C5F205039B683B610FE09C
:1056A800FB68022B06D14FF00003C5F205035B68C7
:1056B8003B6105E04FF00003C5F205031B693B6140
:1056C800FA883B691340002B03D04FF00103FB75A8
:1056D80002E04FF00003FB75FB7D184607F11C073D
:1056E800BD4680BC704700BF80B483B000AF03469E
:1056F800FB804FF00003C5F20503FA885A6107F1F1
:105708000C07BD4680BC704780B485B000AF034627
:10571800FB804FF00003FB734FF00003BB604FF0BA
:105728000003C5F205031A69FB881340BB60BB6818
:10573800002B03D04FF00103FB7302E04FF000038E
:10574800FB73FB7B184607F11407BD4680BC704706
:1057580080B483B000AF0346FB804FF00003C5F26E
:105768000503FA885A6107F10C07BD4680BC7047EB
:1057780080B483B000AF78607B681B6823F00102B7
:105788007B681A607B684FF000021A607B684FF0F4
:1057980000025A607B684FF000029A607B684FF005
:1057A8000002DA607B684FF000021A617B684FF0F4
:1057B80021025A617A6846F21003C4F202039A423F
:1057C80007D14FF4C043C4F202034FF03D029A6080
:1057D800EBE07A6846F22803C4F202039A4207D142
:1057E8004FF4C043C4F202034FF474629A60DCE0E1
:1057F8007A6846F24003C4F202039A4207D14FF492
:10580800C043C4F202034FF474129A60CDE07A6880
:1058180046F25803C4F202039A4207D14FF4C04338
:10582800C4F202034FF074629A60BEE07A6846F2EE
:105838007003C4F202039A4209D14FF4C043C4F280
:1058480002034FF03D02C2F20002DA60ADE07A686E
:1058580046F28803C4F202039A4209D14FF4C043C6
:10586800C4F202034FF47462C2F20002DA609CE0F0
:105878007A6846F2A003C4F202039A4209D14FF4AF
:10588800C043C4F202034FF00002C2F23D02DA60E4
:105898008BE07A6846F2B803C4F202039A4207D151
:1058A8004FF4C043C4F202034FF03D52DA607CE08B
:1058B8007A6846F21043C4F202039A4207D14FF4C1
:1058C800C843C4F202034FF03D029A606DE07A6863
:1058D80046F22843C4F202039A4207D14FF4C84360
:1058E800C4F202034FF474629A605EE07A6846F28A
:1058F8004043C4F202039A4207D14FF4C843C4F2AA
:1059080002034FF474129A604FE07A6846F25843E3
:10591800C4F202039A4207D14FF4C843C4F2020307
:105928004FF074629A6040E07A6846F27043C4F2BD
:1059380002039A4209D14FF4C843C4F202034FF05C
:105948003D02C2F20002DA602FE07A6846F288432C
:10595800C4F202039A4209D14FF4C843C4F20203C5
:105968004FF47462C2F20002DA601EE07A6846F20E
:10597800A043C4F202039A4209D14FF4C843C4F2C7
:1059880002034FF00002C2F23D02DA600DE07A68CD
:1059980046F2B843C4F202039A4206D14FF4C84310
:1059A800C4F202034FF03D52DA6007F10C07BD461E
:1059B80080BC704780B485B000AF786039604FF024
:1059C8000003FB607B681B68FB60FA6848F23F03D2
:1059D800CFF21C031340FB603B681A683B68DB6826
:1059E8001A433B685B691A433B689B691A433B68E7
:1059F800DB691A433B681B6A1A433B685B6A1A43B4
:105A08003B689B6A1A433B685B6B1A433B689B6B1A
:105A18001343FA681343FB607B68FA681A607B6873
:105A28005B69FB60FB6823F00703FB603B68DA6A8D
:105A38003B681B6B1343FA681343FB607B68FA6887
:105A48005A613B681A697B685A603B685A687B6888
:105A58009A603B689A687B68DA6007F11407BD466C
:105A680080BC704780B483B000AF78607B684FF02B
:105A780000021A607B684FF000025A607B684FF0A2
:105A880000029A607B684FF00002DA607B684FF092
:105A980000021A617B684FF000025A617B684FF080
:105AA80000029A617B684FF00002DA617B684FF070
:105AB80000021A627B684FF000025A627B684FF05E
:105AC80000029A627B684FF00002DA627B684FF04E
