:020000040800F2
:103000000050002051900008C9320008D532000855
:10301000DD320008E5320008ED3200080000000053
:10302000000000000000000000000000F532000871
:1030300001330008000000000D33000819330008B8
:1030400091900008919000089190000891900008DC
:1030500091900008919000089190000891900008CC
:1030600091900008919000089190000891900008BC
:1030700091900008919000089190000891900008AC
:10308000919000089190000891900008919000089C
:103090003133000891900008919000089190000849
:1030A000919000089190000891900008919000087C
:1030B000919000089190000891900008919000086C
:1030C000919000089190000891900008919000085C
:1030D000919000089190000891900008919000084C
:1030E0009190000891900008919000080000000065
:1030F00000000000000000000000000000000000D0
:0C31000000000000000000005FF808F173
:10310C0080B584B000AF00F0DFFA00F005F900F0F4
:10311C00A3F849F29400C0F6000001F0E9FF49F26F
:10312C00B000C0F6000001F0E3FF49F2E000C0F689
:10313C00000001F0DDFF49F21C10C0F6000001F0A8
:10314C00D7FF4FF00003FB6036E04FF00003BB608D
:10315C002BE0FB686FF0630202FB03F303F51C53D7
:10316C0003F110037B60FB684FF0C80202FB03F312
:10317C003B6040F60000C4F201004FF4004100F047
:10318C008DFE3B68184600F087F840F60000C4F24C
:10319C0001004FF4004100F08FFE7B68184600F0F0
:1031AC007BF8BB6803F10103BB60BB68052BD0DD6A
:1031BC00FB6803F10103FB60FB68632BC5DD40F684
:1031CC000000C4F201004FF4004100F067FE49F228
:1031DC003010C0F6000001F08BFF4FF06403FB6071
:1031EC0036E04FF00003BB602BE0FB686FF063022E
:1031FC0002FB03F303F51C5303F110037B60FB6824
:10320C004FF0C80202FB03F33B6040F60000C4F22F
:10321C0001004FF4004100F041FE3B68184600F0FD
:10322C003BF840F60000C4F201004FF4004100F0FE
:10323C0043FE7B68184600F02FF8BB6803F10103CE
:10324C00BB60BB68052BD0DDFB6803F1FF33FB6073
:10325C00FB68002BC5DC6EE780B582B000AF4FF089
:10326C0004004FF0010101F057FB4FF40043BB8009
:10327C004FF01003FB714FF00303BB7107F1040314
:10328C0040F60000C4F20100194600F0B9FC07F149
:10329C000807BD4680BD00BF80B483B000AF786026
:1032AC0003E07B6803F1FF337B607B68002BF8D174
:1032BC0007F10C07BD4680BC704700BF80B400AF5F
:1032CC00BD4680BC704700BF80B400AFFEE700BFB6
:1032DC0080B400AFFEE700BF80B400AFFEE700BFD4
:1032EC0080B400AFFEE700BF80B400AFBD4680BC29
:1032FC00704700BF80B400AFBD4680BC704700BFB4
:10330C0080B400AFBD4680BC704700BF80B400AF36
:10331C00BD4680BC704700BF80B500AF02F076F8A8
:10332C0080BD00BF80B500AF02F09EF880BD00BF2D
:10333C0080B500AF41F20003C4F2020341F2000277
:10334C00C4F20202126842F001021A6041F2000259
:10335C00C4F2020241F20003C4F20203596840F2C3
:10336C000003CFF6FF0301EA0303536041F20003AD
:10337C00C4F2020341F20002C4F20202126822F00B
:10338C00847222F480321A6041F20003C4F2020308
:10339C0041F20002C4F20202126822F480221A6086
:1033AC0041F20003C4F2020341F20002C4F2020231
:1033BC00526822F4FE025A6041F20003C4F2020386
:1033CC004FF41F029A6000F0A5F880BD80B485B060
:1033DC0000AF4FF000037B604FF00003BB604FF079
:1033EC000003FB6041F20003C4F202035B6803F0CC
:1033FC000C037B607B68042B0DD0082B15D0002BA5
:10340C005CD140F20003C2F2000341F20022C0F290
:10341C007A021A605BE040F20003C2F2000341F64C
:10342C000032C0F2B7021A6051E041F20003C4F25C
:10343C0002035B6803F47013BB6041F20003C4F237
:10344C0002035B6803F48033FB60BB684FEA934371
:10345C0003F10203BB60FB68002B0CD1BA6840F689
:10346C000013C0F23D0303FB02F240F20003C2F270
:10347C0000031A602BE041F20003C4F202035B6804
:10348C0003F40033002B0CD0BA6848F68053C0F21A
:10349C005B0303FB02F240F20003C2F200031A606A
:1034AC0015E0BA6841F60033C0F2B70303FB02F231
:1034BC0040F20003C2F200031A6008E040F200037D
:1034CC00C2F2000341F20022C0F27A021A6041F209
:1034DC000003C4F202035B6803F0F0034FEA13121B
:1034EC0040F20403C2F200039B5CDBB27B6040F24F
:1034FC000003C2F200031A687B6822FA03F240F25E
:10350C000003C2F200031A6007F11407BD4680BC29
:10351C00704700BF80B500AF00F002F880BD00BF5F
:10352C0080B483B000AF4FF000037B604FF000031A
:10353C003B6041F20003C4F2020341F20002C4F208
:10354C000202126842F480321A6041F20003C4F2A3
:10355C0002031B6803F400333B607B6803F1010337
:10356C007B603B68002B03D17B68B3F5A06FECD17B
:10357C0041F20003C4F202031B6803F40033002B76
:10358C0003D04FF001033B6002E04FF000033B60BF
:10359C003B68012B40F0928042F20003C4F202031C
:1035AC0042F20002C4F20202126842F010021A60E7
:1035BC0042F20003C4F2020342F20002C4F202021D
:1035CC00126822F003021A6042F20003C4F20203F2
:1035DC0042F20002C4F20202126842F002021A60C5
:1035EC0041F20003C4F2020341F20002C4F20202EF
:1035FC0052685A6041F20003C4F2020341F2000225
:10360C00C4F2020252685A6041F20003C4F202038F
:10361C0041F20002C4F20202526842F480625A6023
:10362C0041F20003C4F2020341F20002C4F20202AE
:10363C00526822F47C125A6041F20003C4F2020375
:10364C0041F20002C4F20202526842F4E8125A60DB
:10365C0041F20003C4F2020341F20002C4F202027E
:10366C00126842F080721A6041F20003C4F2020345
:10367C001B6803F00073002BF6D041F20003C4F278
:10368C00020341F20002C4F20202526822F0030269
:10369C005A6041F20003C4F2020341F20002C4F288
:1036AC000202526842F002025A6041F20003C4F274
:1036BC0002035B6803F00C03082BF6D107F10C072F
:1036CC00BD4680BC704700BF80B500AFFFF730FE31
:1036DC0000F01CF84FF000604FF4405100F082F9FC
:1036EC0000F002F880BD00BF80B500AF4FF00100C4
:1036FC004FF0010101F010F940F20040C0F230002F
:10370C004FF0010100F06EFC80BD00BF80B500AF32
:10371C004FF0000000F090FE4FF0000000F07CFE37
:10372C0000F002F880BD00BF80B483B000AF4FF052
:10373C0000037B604FF000033B6041F20003C4F2D6
:10374C00020341F20002C4F20202126842F4803217
:10375C001A6041F20003C4F202031B6803F4003345
:10376C003B607B6803F101037B603B68002B03D15A
:10377C007B68B3F5A06FECD141F20003C4F20203F5
:10378C001B6803F40033002B03D04FF001033B60A4
:10379C0002E04FF000033B603B68012B40F092804D
:1037AC0042F20003C4F2020342F20002C4F202022B
:1037BC00126842F010021A6042F20003C4F20203D3
:1037CC0042F20002C4F20202126822F003021A60F2
:1037DC0042F20003C4F2020342F20002C4F20202FB
:1037EC00126842F002021A6041F20003C4F20203B2
:1037FC0041F20002C4F2020252685A6041F2000324
:10380C00C4F2020341F20002C4F2020252685A608E
:10381C0041F20003C4F2020341F20002C4F20202BC
:10382C00526842F480625A6041F20003C4F202030F
:10383C0041F20002C4F20202526822F47C125A6075
:10384C0041F20003C4F2020341F20002C4F202028C
:10385C00526842F488125A6041F20003C4F2020327
:10386C0041F20002C4F20202126842F080721A6045
:10387C0041F20003C4F202031B6803F00073002B37
:10388C00F6D041F20003C4F2020341F20002C4F28A
:10389C000202526822F003025A6041F20003C4F2A1
:1038AC00020341F20002C4F20202526842F0020228
:1038BC005A6041F20003C4F202035B6803F00C038C
:1038CC00082BF6D107F10C07BD4680BC704700BF32
:1038DC0080B483B000AF78604EF60053CEF2000394
:1038EC007A6842F0BE6242F42022DA6007F10C07DB
:1038FC00BD4680BC704700BF80B487B000AF786015
:10390C004FF00003FB604FF000033B614FF00F03DF
:10391C007B617B68DB78002B49D04EF60053CEF2EE
:10392C000003DB686FEA030303F4E0634FEA13233D
:10393C00FB60FB68C3F104033B61FB687A6922FA04
:10394C0003F37B617B685B781A463B6902FA03F3ED
:10395C00FB607B689B781A467B6902EA0303FA6872
:10396C0042EA0303FB60FB684FEA0313FB604EF271
:10397C000013CEF200037A6812781146FA68D2B2BC
:10398C000B4483F800234EF20013CEF200037A6846
:10399C0012784FEA5212D2B27968097801F01F01FD
:1039AC004FF0010000FA01F143F8221014E04EF23E
:1039BC000013CEF200037A6812784FEA5212D2B298
:1039CC007968097801F01F014FF0010000FA01F14C
:1039DC0002F1200243F8221007F11C07BD4680BCFF
:1039EC00704700BF80B483B000AF786039604EF68A
:1039FC000053CEF200033A6822F0604222F07F02BC
:103A0C00796842EA01029A6007F10C07BD4680BC56
:103A1C00704700BF80B483B000AF02460B46FA710A
:103A2C00BB71BB79002B0DD04EF60053CEF20003C8
:103A3C004EF60052CEF200021169FA7941EA020206
:103A4C001A610EE04EF60053CEF200034EF6005211
:103A5C00CEF200021169FA796FEA020201EA02025F
:103A6C001A6107F10C07BD4680BC704780B483B067
:103A7C0000AF78607B68042B0CD14EF21003CEF2B1
:103A8C0000034EF21002CEF20002126842F0040261
:103A9C001A600BE04EF21003CEF200034EF210024D
:103AAC00CEF20002126822F004021A6007F10C0731
:103ABC00BD4680BC704700BF80B582B000AF786057
:103ACC007A6840F60003C4F201039A420CD14FF01D
:103ADC0004004FF0010100F077FF4FF004004FF0AD
:103AEC00000100F071FF76E07A6840F60043C4F202
:103AFC0001039A420CD14FF008004FF0010100F085
:103B0C0063FF4FF008004FF0000100F05DFF62E032
:103B1C007A6841F20003C4F201039A420CD14FF0CF
:103B2C0010004FF0010100F04FFF4FF010004FF06C
:103B3C00000100F049FF4EE07A6841F20043C4F204
:103B4C0001039A420CD14FF020004FF0010100F01C
:103B5C003BFF4FF020004FF0000100F035FF3AE042
:103B6C007A6841F60003C4F201039A420CD14FF07B
:103B7C0040004FF0010100F027FF4FF040004FF0E4
:103B8C00000100F021FF26E07A6841F60043C4F200
:103B9C0001039A420CD14FF080004FF0010100F06C
:103BAC0013FF4FF080004FF0000100F00DFF12E00A
:103BBC007A6842F20003C4F201039A420BD14FF42B
:103BCC0080704FF0010100F0FFFE4FF480704FF059
:103BDC00000100F0F9FE07F10807BD4680BD00BFEB
:103BEC0080B500AF4FF001004FF0010100F0ECFE8A
:103BFC004FF001004FF0000100F0E6FE80BD00BF69
:103C0C0080B489B000AF786039604FF00003BB60BE
:103C1C004FF00003FB604FF000033B614FF00003DB
:103C2C007B614FF00003BB614FF00003FB613B680D
:103C3C00DB7803F00F03BB603B68DB7803F0100309
:103C4C00002B05D03B689B78BA6842EA0303BB6043
:103C5C003B681B8803F0FF03002B51D07B681B686B
:103C6C00BB614FF000033B6144E03B694FF0010244
:103C7C0002FA03F37B613B681B881A467B6902EAF4
:103C8C000303FB60FA687B699A422FD13B694FEAC8
:103C9C0083037B617B694FF00F0202FA03F3FB6134
:103CAC00FB696FEA0303BA6902EA0303BB617B6930
:103CBC00BA6802FA03F3BA6942EA0303BB613B68D0
:103CCC00DB78282B07D13B694FF0010202FA03F293
:103CDC007B685A610AE03B68DB78482B06D13B696C
:103CEC004FF0010202FA03F27B681A613B6903F19F
:103CFC0001033B613B69072BB7D97B68BA691A6032
:103D0C003B681B88FF2B56D97B685B68BB614FF007
:103D1C0000033B6149E03B6903F108034FF00102EA
:103D2C0002FA03F37B613B681B881A467B6902EA43
:103D3C000303FB60FA687B699A4232D13B694FEA14
:103D4C0083037B617B694FF00F0202FA03F3FB6183
:103D5C00FB696FEA0303BA6902EA0303BB617B697F
:103D6C00BA6802FA03F3BA6942EA0303BB613B681F
:103D7C00DB78282B08D13B6903F108034FF00102D3
:103D8C0002FA03F27B685A613B68DB78482B08D156
:103D9C003B6903F108034FF0010202FA03F27B685E
:103DAC001A613B6903F101033B613B69072BB2D9F3
:103DBC007B68BA695A6007F12407BD4680BC70471E
:103DCC0080B483B000AF78607B684FF6FF721A80C6
:103DDC007B684FF002029A707B684FF00402DA7035
:103DEC0007F10C07BD4680BC704700BF80B485B09E
:103DFC0000AF78600B467B804FF00003FB737B6851
:103E0C009A687B8802EA0303002B03D04FF001036E
:103E1C00FB7302E04FF00003FB73FB7B184607F1CA
:103E2C001407BD4680BC704780B483B000AF786087
:103E3C007B689B689BB2184607F10C07BD4680BC9B
:103E4C00704700BF80B485B000AF78600B467B80B4
:103E5C004FF00003FB737B68DA687B8802EA03038C
:103E6C00002B03D04FF00103FB7302E04FF0000373
:103E7C00FB73FB7B184607F11407BD4680BC7047EB
:103E8C0080B483B000AF78607B68DB689BB2184667
:103E9C0007F10C07BD4680BC704700BF80B483B0EF
:103EAC0000AF78600B467B807A887B681A6107F1DB
:103EBC000C07BD4680BC704780B483B000AF7860FF
:103ECC000B467B807A887B685A6107F10C07BD46EC
:103EDC0080BC704780B483B000AF786013460A464C
:103EEC007A807B707B78002B03D07A887B681A6190
:103EFC0002E07A887B685A6107F10C07BD4680BCEA
:103F0C00704700BF80B483B000AF78600B467B80F5
:103F1C007A887B68DA6007F10C07BD4680BC704775
:103F2C0080B485B000AF78600B467B804FF4803353
:103F3C00FB607B88FA6842EA0303FB607B68FA68E3
:103F4C009A617A887B689A617B68FA689A617B6867
:103F5C009B69FB607B689B69FB6007F11407BD469E
:103F6C0080BC704780B485B000AF02460B46FA7136
:103F7C00BB714FF00003FB6040F20003C4F201037D
:103F8C001B68FB60FA684FF68073C0F2000302EA0C
:103F9C000303FB60FB794FEA0313FA6842EA03035D
:103FAC00FB60BB79FA6842EA0303FB6040F2000352
:103FBC00C4F20103FA681A6007F11407BD4680BC0D
:103FCC00704700BF80B483B000AF0346FB7140F272
:103FDC001C03C4F22023FA791A6007F10C07BD46C2
:103FEC0080BC704780B487B000AF78600B46FB7024
:103FFC004FF00003BB604FF00003FB604FF0000379
:10400C003B614FF000037B617B68002B06DA40F2CA
:10401C000003C4F20103DB693B6105E040F20003DD
:10402C00C4F201035B683B617B6803F470234FEAC5
:10403C0013437B617B684FEA03434FEA1343BB6036
:10404C007B6803F44013B3F5401F10D13B6923F098
:10405C0070633B6140F20003C4F2010340F20002C2
:10406C00C4F20102526822F070625A6028E07B6848
:10407C0003F48013002B11D07B694FF0030202FA7A
:10408C0003F3FB60FB686FEA03033A6902EA03037C
:10409C003B613B6943F070633B6111E07B684FEA25
:1040AC0053534FEA0313BA6802FA03F36FEA03039C
:1040BC003A6902EA03033B613B6943F070633B617D
:1040CC00FB78002B0BD07B684FEA53534FEA03135A
:1040DC00BA6802FA03F33A6942EA03033B617B686C
:1040EC00002B06DA40F20003C4F201033A69DA61EC
:1040FC0005E040F20003C4F201033A695A6007F18B
:10410C001C07BD4680BC704780B485B000AF02462A
:10411C000B46FA71BB714FF00003FB60BB7903F0E7
:10412C0003034FEA83034FF00F0202FA03F3FB6021
:10413C0040F20003C4F20103BA794FEA9202D2B200
:10414C00104640F20002C4F20102B9794FEA910123
:10415C00C9B201F1020152F82110FA686FEA0202A9
:10416C0001EA020100F1020243F8221040F20003BE
:10417C00C4F20103BA794FEA9202D2B2104640F26D
:10418C000002C4F20102B9794FEA9101C9B201F1FE
:10419C00020152F8211097F807C0BA7902F0030215
:1041AC004FEA82020CFA02F241EA020100F1020229
:1041BC0043F8221007F11407BD4680BC704700BFBE
:1041CC0080B483B000AF786040F2DC03C4F22023EB
:1041DC007A681A6007F10C07BD4680BC704700BFB7
:1041EC0080B400AF41F20003C4F2020341F20002BA
:1041FC00C4F20202126842F001021A6041F200029B
:10420C00C4F2020241F20003C4F20203596840F204
:10421C000003CFF6FF0301EA0303536041F20003EE
:10422C00C4F2020341F20002C4F20202126822F04C
:10423C00847222F480321A6041F20003C4F2020349
:10424C0041F20002C4F20202126822F480221A60C7
:10425C0041F20003C4F2020341F20002C4F2020272
:10426C00526822F4FE025A6041F20003C4F20203C7
:10427C004FF41F029A60BD4680BC704780B483B077
:10428C0000AF786041F20003C4F2020341F2000275
:10429C00C4F20202126822F480321A6041F2000366
:1042AC00C4F2020341F20002C4F20202126822F4C8
:1042BC0080221A607B68B3F5803F03D0B3F5802F62
:1042CC000DD018E041F20003C4F2020341F20002E7
:1042DC00C4F20202126842F480321A600BE041F21E
:1042EC000003C4F2020341F20002C4F2020212689B
:1042FC0042F4A0221A6007F10C07BD4680BC70473F
:10430C0080B582B000AF4FF000033B604FF000036C
:10431C00BB714FF00003FB714FF0310000F0DCFB80
:10432C000346FB713B6803F101033B603B68B3F54B
:10433C00A06F02D0FB79002BEED04FF0310000F0D3
:10434C00CBFB0346002B03D04FF00103BB7102E003
:10435C004FF00003BB71BB79184607F10807BD4647
:10436C0080BD00BF80B485B000AF0346FB714FF039
:10437C000003FB6041F20003C4F202031B68FB6004
:10438C00FB6823F0F803FB60FB794FEAC303FA6880
:10439C0042EA0303FB6041F20003C4F20203FA6831
:1043AC001A6007F11407BD4680BC704780B483B017
:1043BC0000AF0346FB7140F20003C4F24223FA79CA
:1043CC001A6007F10C07BD4680BC704780B485B0FD
:1043DC0000AF786039604FF00003FB6041F20003DE
:1043EC00C4F202035B68FB60FB6823F47C13FB6084
:1043FC007A683B6842EA0303FA6842EA0303FB600B
:10440C0041F20003C4F20203FA685A6007F1140780
:10441C00BD4680BC704700BF80B483B000AF03467C
:10442C00FB7140F26003C4F24223FA791A6007F17F
:10443C000C07BD4680BC704780B485B000AF786077
:10444C004FF00003FB6041F20003C4F202035B680F
:10445C00FB60FB6823F00303FB60FA687B6842EAAD
:10446C000303FB6041F20003C4F20203FA685A60D2
:10447C0007F11407BD4680BC704700BF80B400AF85
:10448C0041F20003C4F202035B68DBB203F00C03DD
:10449C001846BD4680BC704780B485B000AF7860CC
:1044AC004FF00003FB6041F20003C4F202035B68AF
:1044BC00FB60FB6823F0F003FB60FA687B6842EA60
:1044CC000303FB6041F20003C4F20203FA685A6072
:1044DC0007F11407BD4680BC704700BF80B485B09F
:1044EC0000AF78604FF00003FB6041F20003C4F2B0
:1044FC0002035B68FB60FB6823F4E063FB60FA6813
:10450C007B6842EA0303FB6041F20003C4F202033E
:10451C00FA685A6007F11407BD4680BC704700BFAB
:10452C0080B485B000AF78604FF00003FB6041F2BF
:10453C000003C4F202035B68FB60FB6823F4605366
:10454C00FB607B684FEAC303FA6842EA0303FB6033
:10455C0041F20003C4F20203FA685A6007F114072F
:10456C00BD4680BC704700BF80B483B000AF02462C
:10457C000B46FA71BB71BB79002B0FD041F20903CA
:10458C00C4F2020341F20902C4F202021278D1B25F
:10459C00FA7941EA0202D2B21A7011E041F209032F
:1045AC00C4F2020341F20902C4F202021278D1B23F
:1045BC00FA796FEA0202D2B201EA0202D2B21A709E
:1045CC0007F10C07BD4680BC704700BF80B483B0B8
:1045DC0000AF786040F2D803C4F242237A681A60C4
:1045EC0007F10C07BD4680BC704700BF80B485B096
:1045FC0000AF78604FF00003FB6041F20003C4F29F
:10460C0002035B68FB60FB6823F44043FB60FA68C1
:10461C007B6842EA0303FB6041F20003C4F202032D
:10462C00FA685A6007F11407BD4680BC704700BF9A
:10463C0080B483B000AF0346FB7141F22003C4F297
:10464C0002034FF000021A7041F22003C4F202037D
:10465C004FF000021A70FB79012B02D0042B08D00A
:10466C000EE041F22003C4F202034FF001021A7073
:10467C0006E041F22003C4F202034FF005021A7067
:10468C0007F10C07BD4680BC704700BF80B483B0F7
:10469C0000AF0346FB7140F28043C4F24223FA7927
:1046AC001A6007F10C07BD4680BC704780B483B01C
:1046BC0000AF786041F20003C4F2020341F2000241
:1046CC00C4F20202116A7A6841EA02021A6207F124
:1046DC000C07BD4680BC704780B483B000AF034666
:1046EC00FB7140F23C43C4F24223FA791A6007F1A1
:1046FC000C07BD4680BC704780B487B000AF7860B3
:10470C004FF00003BB604FF00003FB604FF0000361
:10471C003B614FF000037B6141F20003C4F20203E2
:10472C005B6803F00C03BB60BB68042B0AD0082B3E
:10473C000FD0002B4DD17A6841F20023C0F27A03DE
:10474C0013604CE07A6841F60033C0F2B703136093
:10475C0045E041F20003C4F202035B6803F47013FA
:10476C00FB6041F20003C4F202035B6803F4803384
:10477C003B61FB684FEA934303F10203FB603B6927
:10478C00002B09D1FA6840F60013C0F23D0303FB7D
:10479C0002F27B681A6022E041F20003C4F20203C9
:1047AC005B6803F40033002B09D0FA6848F6805399
:1047BC00C0F25B0303FB02F27B681A600FE0FA683D
:1047CC0041F60033C0F2B70303FB02F27B681A60B8
:1047DC0005E07A6841F20023C0F27A03136041F2DB
:1047EC000003C4F202035B6803F0F003BB60BB6818
:1047FC004FEA1313BB60BA6840F21403C2F2000311
:10480C009B5CDBB27B617B681A687B6922FA03F2E2
:10481C007B685A6041F20003C4F202035B6803F444
:10482C00E063BB60BB684FEA1323BB60BA6840F21D
:10483C001403C2F200039B5CDBB27B617B685A6899
:10484C007B6922FA03F27B689A6041F20003C4F29E
:10485C0002035B6803F46053BB60BB684FEAD3236D
:10486C00BB60BA6840F21403C2F200039B5CDBB27B
:10487C007B617B685A687B6922FA03F27B68DA6099
:10488C0041F20003C4F202035B6803F44043BB60D3
:10489C00BB684FEA9333BB60BA6840F22403C2F2A0
:1048AC0000039B5CDBB27B617B68DA687B69B2FBE3
:1048BC00F3F27B681A6107F11C07BD4680BC704798
:1048CC0080B483B000AF78600B46FB70FB78002B94
:1048DC000DD041F20003C4F2020341F20002C4F213
:1048EC00020251697A6841EA02025A610EE041F211
:1048FC000003C4F2020341F20002C4F20202516945
:10490C007A686FEA020201EA02025A6107F10C07A7
:10491C00BD4680BC704700BF80B483B000AF7860E8
:10492C000B46FB70FB78002B0DD041F20003C4F258
:10493C00020341F20002C4F2020291697A6841EA70
:10494C0002029A610EE041F20003C4F2020341F24A
:10495C000002C4F2020291697A686FEA020201EA6B
:10496C0002029A6107F10C07BD4680BC704700BF7C
:10497C0080B483B000AF78600B46FB70FB78002BE3
:10498C000DD041F20003C4F2020341F20002C4F262
:10499C000202D1697A6841EA0202DA610EE041F260
:1049AC000003C4F2020341F20002C4F20202D16914
:1049BC007A686FEA020201EA0202DA6107F10C0777
:1049CC00BD4680BC704700BF80B483B000AF786038
:1049DC000B46FB70FB78002B0DD041F20003C4F2A8
:1049EC00020341F20002C4F20202D1687A6841EA81
:1049FC000202DA600EE041F20003C4F2020341F25B
:104A0C000002C4F20202D1687A686FEA020201EA7B
:104A1C000202DA6007F10C07BD4680BC704700BF8C
:104A2C0080B483B000AF78600B46FB70FB78002B32
:104A3C000DD041F20003C4F2020341F20002C4F2B1
:104A4C00020211697A6841EA02021A610EE041F22F
:104A5C000003C4F2020341F20002C4F20202116923
:104A6C007A686FEA020201EA02021A6107F10C0786
:104A7C00BD4680BC704700BF80B483B000AF034616
:104A8C00FB7140F24043C4F24223FA791A6007F1F9
:104A9C000C07BD4680BC704780B483B000AF0346A2
:104AAC00FB7140F24C03C4F24223FA791A6007F10D
:104ABC000C07BD4680BC704780B483B000AF034682
:104ACC00FB7141F20703C4F20203FA791A7007F181
:104ADC000C07BD4680BC704780B487B000AF03465E
:104AEC00FB714FF00003FB604FF000033B614FF094
:104AFC000003FB75FB794FEA5313DBB2FB60FB68D9
:104B0C00012B06D141F20003C4F202031B683B6186
:104B1C000FE0FB68022B06D141F20003C4F2020342
:104B2C001B6A3B6105E041F20003C4F202035B6ABD
:104B3C003B61FB7903F01F03FB60FB683A6922FAC7
:104B4C0003F303F00103DBB2002B03D04FF001039E
:104B5C00FB7502E04FF00003FB75FB7D184607F177
:104B6C001C07BD4680BC704780B400AF41F2000307
:104B7C00C4F2020341F20002C4F20202526A42F091
:104B8C0080725A62BD4680BC704700BF80B485B04D
:104B9C0000AF0346FB714FF00003FB7341F20003BF
:104BAC00C4F202039A68FB7902EA0303002B03D0D8
:104BBC004FF00103FB7302E04FF00003FB73FB7B30
:104BCC00184607F11407BD4680BC704780B483B00B
:104BDC0000AF0346FB7141F20A03C4F20203FA79F7
:104BEC001A7007F10C07BD4680BC704780B582B0C7
:104BFC0000AF4FF004004FF00101FFF78DFE4FF4B2
:104C0C008043BB804FF00303BB714FF01003FB716B
:104C1C0007F1040340F60000C4F201001946FEF748
:104C2C00EFFF07F10807BD4680BD00BF80B500AFA0
:104C3C004FF00000FFF7CAFC4FF400004FF00101E9
:104C4C00FFF796FE80BD00BF80B400AF40F21C138E
:104C5C00C2F200034FF003021A60BD4680BC7047DD
:104C6C0080B483B000AF40F2D013C2F200037B607B
:104C7C007B689B7A002B07D040F21C13C2F2000316
:104C8C004FF005021A6006E040F21C13C2F200035A
:104C9C004FF001021A6007F10C07BD4680BC70474B
:104CAC0080B582B000AF4FF4C060FEF711FE4FF03C
:104CBC0014033B714FF000037B714FF00003BB7189
:104CCC004FF00103FB7107F104031846FEF714FEC5
:104CDC004FF025033B714FF001037B7107F1040387
:104CEC001846FEF709FE07F10807BD4680BD00BF58
:104CFC0080B582B000AF0346FB71FB79002B08D066
:104D0C0040F60000C4F201004FF48041FFF7C6F8F2
:104D1C0007E040F60000C4F201004FF48041FFF7B9
:104D2C00CBF807F10807BD4680BD00BF80B485B045
:104D3C0000AF4FF2E873C1F6FF731B687B604FF254
:104D4C00EC73C1F6FF731B68BB604FF2F073C1F6D6
:104D5C00FF731B68FB607B68002B71D07B68DAB239
:104D6C0040F22803C2F200039A707B6803F47F437D
:104D7C004FEA1323DAB240F22803C2F200031A718D
:104D8C007B6803F47F034FEA1343DAB240F2280343
:104D9C00C2F200039A717B684FEA1363DAB240F2F5
:104DAC002803C2F200031A72BB68DAB240F228037D
:104DBC00C2F200039A72BB6803F47F434FEA1323D9
:104DCC00DAB240F22803C2F200031A73BB6803F490
:104DDC007F034FEA1343DAB240F22803C2F2000316
:104DEC009A73BB684FEA1363DAB240F22803C2F23B
:104DFC0000031A74FB68DAB240F22803C2F2000313
:104E0C009A74FB6803F47F434FEA1323DAB240F23F
:104E1C002803C2F200031A75FB6803F47F034FEA00
:104E2C001343DAB240F22803C2F200039A75FB680E
:104E3C004FEA1363DAB240F22803C2F200031A7687
:104E4C0007F11407BD4680BC704700BF80B582B027
:104E5C0000AF0346FB714FF0010002F04BFE03461E
:104E6C00202BF8D140F21413C2F200031A6840F25E
:104E7C002813C2F20003F979995440F21413C2F2C8
:104E8C0000031B6803F1010240F21413C2F2000389
:104E9C001A6040F21413C2F200031B684FF0810039
:104EAC0040F22811C2F200011A4603F029FE4FF01D
:104EBC00010002F04BFE07F10807BD4680BD00BFA4
:104ECC0080B582B000AF786009E07B681B78DBB2FC
:104EDC001846FFF7BBFF7B6803F101037B607B681F
:104EEC001B78002BF1D107F10807BD4680BD00BF30
:104EFC0080B588B000AFF860B9601346FB71BB6831
:104F0C00002B12D1FB68002B0FDDFB79002B0CD191
:104F1C00F968BB68DBB207F11402084611461A4661
:104F2C004FF0200303F020FF8FE0BB68002B17D15C
:104F3C00FB68002B14DDFB79012B11D14FF02B03F7
:104F4C003B75F968BB68DBB207F1140202F1010290
:104F5C00084611461A464FF0200303F005FF74E093
:104F6C00BB68002B17D1FB68002B14DA4FF02D0314
:104F7C003B75FB68C3F100031946BB68DBB207F154
:104F8C00140202F10102084611461A464FF02003A2
:104F9C0003F0EAFE59E0BB68002B0FD1FB68002B35
:104FAC000CD1F968BB68DBB207F114020846114654
:104FBC001A464FF0200303F0D7FE46E0FB79002B96
:104FCC0014D0FB68002B11DD4FF02B033B75F968F7
:104FDC00BB68DBB207F1140202F10102084611466C
:104FEC001A464FF0200303F0BFFE2EE0FB79002B96
:104FFC0002D1FB68002B02DCFB68002B11D14FF0B7
:10500C0020033B75F968BB68DBB207F1140202F1AF
:10501C000102084611461A464FF0200303F0A4FE85
:10502C0013E04FF02D033B75FB68C3F100031946E9
:10503C00BB68DBB207F1140202F10102084611460B
:10504C001A464FF0200303F08FFE07F114031846A5
:10505C00FFF736FF07F12007BD4680BD80B586B04F
:10506C0000AF7860396079683B68DBB207F10C02FD
:10507C00084611461A464FF0200303F075FE07F15F
:10508C000C031846FFF71CFF07F11807BD4680BD3F
:10509C0080B588B000AFF860B9601346FB71F86852
:1050AC00BB68DAB207F11401FB7903F041FF07F199
:1050BC0014031846FFF704FF07F12007BD4680BD17
:1050CC0080B58CB000AF7860396079683B68DBB232
:1050DC0007F10C02084611461A4603F081FF07F14E
:1050EC000C031846FFF7ECFE07F13007BD4680BDF8
:1050FC000FB480B582B000AF07F114033B6037E109
:10510C003B691B785BB2252B40F028814FF00003E4
:10511C00FB713B6903F101033B6113E0FB791A4618
:10512C004FEA820213444FEA4303DAB23B691B781D
:10513C00DBB21344DBB2A3F13003FB713B6903F127
:10514C0001033B613B691B785BB22F2B04DD3B6990
:10515C001B785BB2392BE1DD3B691B785BB2A3F1A9
:10516C004403342B00F2EF8001A252F823F000BF6D
:10517C00735200085353000853530008535300084C
:10518C00535300085353000853530008535300085B
:10519C00535300085353000853530008535300084B
:1051AC00535300085353000853530008535300083B
:1051BC00535300085353000853530008535300082B
:1051CC00D752000853530008535300085353000898
:1051DC00535300085353000853530008535300080B
:1051EC005353000853530008FB5200081B5300088C
:1051FC0051520008535300085353000853530008EE
:10520C0053530008535300085353000853530008DA
:10521C0053530008535300085353000853530008CA
:10522C0053530008535300085353000837530008D6
:10523C005353000895520008535300085353000869
:10524C00B35200083B6803F104023A601A68FB7918
:10525C00104619464FF00002FFF74AFE3B6903F176
:10526C0001033B6184E03B6803F104023A601A6875
:10527C00FB79104619464FF00102FFF739FE3B69E6
:10528C0003F101033B6173E03B6803F104023A60F4
:10529C001A68FB7910461946FFF7E0FE3B6903F1EB
:1052AC0001033B6164E03B6803F104023A601B6854
:1052BC001A46FB79104619464FF00102FFF7E8FE3B
:1052CC003B6903F101033B6152E03B6803F10402CB
:1052DC003A601B681A46FB79104619464FF00002DB
:1052EC00FFF7D6FE3B6903F101033B6140E03B68ED
:1052FC0003F104023A601B681A46FB791046194602
:10530C00FFF7DEFE3B6903F101033B6130E03B68D4
:10531C0003F104023A601B68DBB21846FFF796FDF6
:10532C003B6903F101033B6122E03B6803F104029A
:10533C003A601B681846FFF7C3FD3B6903F1010394
:10534C003B6100BF14E03B691B78DBB21846FFF7EA
:10535C007DFD3B6903F101033B6109E03B691B786F
:10536C00DBB21846FFF772FD3B6903F101033B61A9
:10537C003B691B78002B7FF4C3AE07F10807BD46D1
:10538C00BDE8804004B0704780B483B000AF40F2F9
:10539C000C13C2F200031B78DBB21A4640F27813EE
:1053AC00C2F200039B5CFB7140F20C13C2F20003CF
:1053BC001B78DBB203F10103DAB240F20C13C2F238
:1053CC0000031A7040F20C13C2F200031B78DBB21C
:1053DC001A4640F21013C2F200031B689A420DD316
:1053EC0040F21013C2F200034FF000021A6040F2B8
:1053FC000C13C2F200034FF000021A70FB79DBB2FF
:10540C00184607F10C07BD4680BC704780B500AF4D
:10541C00FFF7ECFBFFF70AFCFFF742FC01F058FE2C
:10542C0080BD00BF80B400AF40F21413C2F2000381
:10543C004FF000021A60BD4680BC704780B500AFCB
:10544C004FF0030040F27811C2F2000103F07EFB32
:10545C00024640F21013C2F200031A604FF0030030
:10546C0002F0A4FB80BD00BF80B500AF45F64443FD
:10547C00C4F200031B689AB240F2B813C2F20003E4
:10548C001A8040F2B813C2F200031B889BB203F4DB
:10549C00004240F2F413C2F200031B8802EA030339
:1054AC00002B01D001F042FE40F2B813C2F200030F
:1054BC001B889BB203F4806240F2F413C2F2000327
:1054CC001B8802EA0303002B0CD045F64443C4F2BC
:1054DC0000034FF6FF321A6040F28803C2F2000359
:1054EC005B68984740F2B813C2F200031B889BB26A
:1054FC0003F4007240F2F413C2F200031B8802EAB8
:10550C000303002B14D045F64443C4F200034FF6BA
:10551C00FF521A6040F21813C2F200031B78DBB280
:10552C0003F10103DAB240F21813C2F200031A704D
:10553C0080BD00BF80B500AFFFF7F8FB40F2F01361
:10554C00C2F200031B684FF000029A7200F00EFAD0
:10555C0003F0B6FA40F21C13C2F200034FF0000243
:10556C001A6080BD80B500AF40F2F013C2F20003A8
:10557C001B684FF000029A7240F2F013C2F2000363
:10558C001A6849F25813C0F60003DB79537240F2E3
:10559C00F013C2F200031B684FF00002DA724FF0F6
:1055AC00000002F075F94FF000004FF4007102F0AA
:1055BC00BBF94FF000004FF0100102F0F5F94FF07D
:1055CC0000004FF0400102F0BDFD4FF000004FF025
:1055DC00800102F093FD4FF0000002F06FFB40F2EF
:1055EC008803C2F2000393F82C304FF000001946E8
:1055FC0002F064FE4FF0000002F0D8FA4FF0010008
:10560C004FF0000102F090F94FF001004FF0C00193
:10561C0002F074FD4FF001004FF0200102F0C4F9CC
:10562C004FF001004FF0000102F0FAF94FF00200C8
:10563C004FF4C06102F078F94FF002004FF4807122
:10564C0002F05CFD4FF002004FF0000102F0E8F9AF
:10565C004FF002004FF0200102F0A6F94FF00300CA
:10566C004FF0000102F060F94FF003004FF4887125
:10567C0002F068FD4FF003004FF0400102F01EFEF7
:10568C004FF003004FF4405102F0CAF94FF0030001
:10569C004FF0000102F088F94FF0000001F0C8FC57
:1056AC0040F21C13C2F200034FF001021A6080BDDD
:1056BC0080B483B000AF40F2D013C2F200037B6021
:1056CC007B689B7A002B06D040F21C13C2F20003BD
:1056DC004FF005021A6007F10C07BD4680BC7047FD
:1056EC0080B400AF40F21C13C2F200034FF004026E
:1056FC001A60BD4680BC704780B400AF40F21913ED
:10570C00C2F200031B78202B06D140F21913C2F20F
:10571C0000034FF000021A70BD4680BC704700BFFA
:10572C0080B400AFBD4680BC704700BF80B584B06C
:10573C0000AF0346FB714FF00003FB60FB79212B9C
:10574C000FD140F2F013C2F200031B681B7803F078
:10575C007F03212B1FD145F60113C0F60003FB601C
:10576C001AE0FB79202B17D140F2F013C2F20003A0
:10577C001B681B7803F07F03212B04D145F63D13E6
:10578C00C0F60003FB6040F21913C2F200034FF0A5
:10579C0020021A7000E000BFFB68002B02D14FF012
:1057AC00020314E040F2F013C2F200031B68FA6823
:1057BC009A6140F2F013C2F200031B684FF0000232
:1057CC005A82FB684FF0000098474FF000031846D0
:1057DC0007F11007BD4680BD80B483B000AF03460F
:1057EC00FB7140F2F013C2F200031B681B7803F04C
:1057FC007F03212B0BD1FB79022B02D14FF000033D
:10580C0007E0FB79222B02D14FF0000301E04FF0AF
:10581C000203184607F10C07BD4680BC704700BF59
:10582C0080B582B000AF0346FB80FB88184640F27F
:10583C00DC01C2F2000100F0BBFD0346184607F183
:10584C000807BD4680BD00BF80B582B000AF0346DF
:10585C00FB80FB88184640F2E401C2F2000100F024
:10586C00A7FD0346184607F10807BD4680BD00BFDB
:10587C0080B584B000AF0346FB8040F2F013C2F257
:10588C0000031B68DB78FB73FB7B042B02D94FF006
:10589C0000030DE0FB7B4FEAC30240F2EC03C2F2C3
:1058AC0000031344FA881046194600F081FD0346A4
:1058BC00184607F11007BD4680BD00BF80B483B009
:1058CC0000AF02460B46FA71BB71BB79002B02D0BC
:1058DC004FF0020307E0FB79012B02D94FF00203D2
:1058EC0001E04FF00003184607F10C07BD4680BCE1
:1058FC00704700BF80B483B000AF0346FB80FB88C9
:10590C00002B0AD140F2F013C2F200031B684FF0D7
:10591C0008021A824FF0000303E040F27C03C2F24B
:10592C000003184607F10C07BD4680BC704700BF4A
:10593C0080B483B000AF0346FB80FB88002B0AD1F8
:10594C0040F2F013C2F200031B684FF008021A82F7
:10595C004FF0000303E040F27C03C2F20003184650
:10596C0007F10C07BD4680BC704700BF80B582B004
:10597C0000AF4FF00100FFF7BBF94FF00103FB80C4
:10598C0045F64043C4F20003FA881A6040F2F4135F
:10599C00C2F200034FF000021A8045F64043C4F2F5
:1059AC00000340F2F412C2F2000212881A6045F6AB
:1059BC004443C4F200034FF000021A6040F2F413A7
:1059CC00C2F200034FF4E0521A8045F64043C4F291
:1059DC00000340F2F412C2F2000212881A604FF077
:1059EC000003184607F10807BD4680BD80B500AF1F
:1059FC0045F64043C4F200034FF001021A6045F62D
:105A0C004443C4F200034FF000021A604FF0000050
:105A1C00FFF76EF945F64043C4F200034FF0030262
:105A2C001A604FF00003184680BD00BF80B582B0ED
:105A3C0000AF45F64043C4F200031B68FB80FB88B3
:105A4C0043F00803FB8045F64043C4F20003FA8898
:105A5C001A6045F64043C4F200031B68FB80FB88C8
:105A6C0043F00403FB8045F64043C4F20003FA887C
:105A7C001A60FFF7E9F807F10807BD4680BD00BFC3
:105A8C0080B582B000AF45F64043C4F200031B68FA
:105A9C00FB80FB8823F00403FB8045F64043C4F2F3
:105AAC000003FA881A60FFF7DBF845F64043C4F2AE
:105ABC0000034FF406421A6007F10807BD4680BD8B
:105ACC0080B584B000AF0346FB71FB79072B05D082
:105ADC0040F2BC13C2F20003FA791A7040F2BC1304
:105AEC00C2F200031B78DBB2052B00F29D8001A2F1
:105AFC0052F823F0195B00082D5B0008415B00088D
:105B0C005F5B00089B5B0008D95B0008FFF7B8FFE0
:105B1C0040F2BC13C2F200034FF006021A708EE082
:105B2C00FFF7AEFF40F2BC13C2F200034FF00402C9
:105B3C001A7084E040F2BC13C2F200034FF0020270
:105B4C005A7040F2BC13C2F200034FF003021A70F9
:105B5C0075E040F2BC13C2F200035B78DBB203F1D8
:105B6C00FF33DAB240F2BC13C2F200035A7040F2B7
:105B7C00BC13C2F200035B78DBB2002B5CD140F2A9
:105B8C00BC13C2F200034FF004021A7057E045F642
:105B9C004043C4F200031B68FB81FB8943F01003F4
:105BAC00FB8145F64043C4F20003FA891A6040F2C7
:105BBC00BC13C2F200034FF005021A7040F2BC1382
:105BCC00C2F200034FF00A025A7038E040F2BC13E4
:105BDC00C2F200035B78DBB203F1FF33DAB240F2BE
:105BEC00BC13C2F200035A7040F2BC13C2F20003A1
:105BFC005B78DBB2002B21D145F64043C4F20003A5
:105C0C001B68FB81FB8923F01003FB8145F64043A5
:105C1C00C4F20003FA891A6040F2BC13C2F200030A
:105C2C004FF006021A700AE040F2BC13C2F20003F5
:105C3C004FF006021A7002E000BF00E000BF07F14F
:105C4C001007BD4680BD00BF80B582B000AF0346D3
:105C5C00FB80FB88002B0AD140F2F013C2F2000348
:105C6C001B684FF001021A824FF000030DE040F266
:105C7C00EC13C2F200031B681B68984740F2F01348
:105C8C00C2F200031B6803F10A03184607F1080768
:105C9C00BD4680BD80B500AF40F2F013C2F20003E8
:105CAC001B68DA7840F28403C2F200035B789A42F4
:105CBC0025D840F2F013C2F200031B689B78002B2E
:105CCC001DD140F2F013C2F200031B689B88002B1D
:105CDC0015D140F2F013C2F200031A6840F2F0132F
:105CEC00C2F200031B68DB78937240F2EC13C2F231
:105CFC0000031B685B6898474FF0000301E04FF00E
:105D0C000203184680BD00BF80B582B000AF0346C9
:105D1C00FB80FB88002B0AD140F2F013C2F2000387
:105D2C001B684FF001021A824FF000030DE040F2A5
:105D3C00EC13C2F200031B689B68984740F2F01307
:105D4C00C2F200031B6803F10C03184607F10807A5
:105D5C00BD4680BD80B582B000AF40F2C813C2F220
:105D6C0000031B689A6940F2F013C2F200031B682F
:105D7C00597940F2F013C2F200031B68DB78084635
:105D8C00194690470346FB7140F2F013C2F2000330
:105D9C001B689B7A002B3AD0FB79002B0FD140F279
:105DAC00F013C2F200031B681B79002B07D140F2E1
:105DBC00F013C2F200031B689B78002B02D04FF04B
:105DCC00020326E0FB79002B21D140F2EC13C2F246
:105DDC0000031B68DB68984740F2F013C2F2000323
:105DEC001A6840F2F013C2F200031B685B79D3729D
:105DFC0040F2F013C2F200031A6840F2F013C2F240
:105E0C0000031B68DB7813734FF0000301E04FF0C5
:105E1C000203184607F10807BD4680BD80B584B063
:105E2C0000AF0346FB80FB88002B0AD140F2F01335
:105E3C00C2F200031B684FF002021A824FF00003FB
:105E4C00C8E040F2C013C2F200034FF000021A8007
:105E5C0040F2F013C2F200031B681B7803F07F03BF
:105E6C00002B47D140F2F013C2F200031B685B7A9F
:105E7C007B737B7B03F02003002B0DD040F2C0130F
:105E8C00C2F200031B7843F00203DAB240F2C013F3
:105E9C00C2F200031A700CE040F2C013C2F200030D
:105EAC001B781A4602F0FD0240F2C013C2F2000346
:105EBC001A707B7B03F04003002B0DD040F2C01313
:105ECC00C2F200031B7843F00103DAB240F2C013B4
:105EDC00C2F200031A7072E040F2C013C2F2000367
:105EEC001B781A4602F0FE0240F2C013C2F2000305
:105EFC001A7064E040F2F013C2F200031B681B78C6
:105F0C0003F07F03012B04D140F2C013C2F2000353
:105F1C0060E040F2F013C2F200031B681B7803F040
:105F2C007F03022B45D140F2F013C2F200031B6831
:105F3C005B79FB73FB7B03F00F03BB73FB7B5BB2E7
:105F4C00002B1ADABB7B4FEA830303F1804303F582
:105F5C00B8431B689BB203F03003102B2CD140F2DA
:105F6C00C013C2F200031B7843F00103DAB240F213
:105F7C00C013C2F200031A7021E0BB7B4FEA83030B
:105F8C0003F1804303F5B8431B689BB203F4405301
:105F9C00B3F5805F12D140F2C013C2F200031B783C
:105FAC0043F00103DAB240F2C013C2F200031A70DC
:105FBC0005E04FF000030DE000BF00E000BF40F231
:105FCC00EC13C2F200031B681B69984740F2C01324
:105FDC00C2F20003184607F11007BD4680BD00BF92
:105FEC0090B587B000AF40F2F013C2F200031B680B
:105FFC001B7803F07F033B603B68002B10D140F211
:10600C00F013C2F200031A6840F2F013C2F200035C
:10601C001B685B7A03F0DF0353724FF00003FAE066
:10602C003B68022B40F0F58040F2F013C2F2000303
:10603C001B685B88002B07D140F2F013C2F20003FF
:10604C001B681B79002B02D04FF00203E3E040F2F7
:10605C008403C2F20003BB6040F2F013C2F20003EF
:10606C001B685B793B613B6923F080037B617B6937
:10607C00FB6040F2F013C2F200031B685B795BB269
:10608C00002B0CDAFB684FEA830303F1804303F522
:10609C00B8431B689BB203F030037B600BE0FB68DA
:1060AC004FEA830303F1804303F5B8431B689BB2AB
:1060BC0003F440537B60BB681B781A467B699A4299
:1060CC000AD97B68002B07D040F2F013C2F2000310
:1060DC001B689B7A002B02D14FF002039BE03B69BB
:1060EC0003F08003002B19D0FB684FEA830303F104
:1060FC00804303F5B8431B689BB203F03003102BAD
:10610C007CD1FB68DBB2184601F082FFFB68DBB286
:10611C0018464FF0300101F047FC70E0FB684FEA85
:10612C00830303F1804303F5B8431B689BB203F46C
:10613C004053B3F5805F62D1FB68002B32D1FB6812
:10614C00DAB240F28803C2F2000393F82C30104606
:10615C00194602F0B3F8FB684FEA830303F180435E
:10616C0003F5B8431B689BB21C464BF68F73C0F209
:10617C00000304EA03031C4684F480539CB284F4A9
:10618C0000539CB2FB684FEA830303F1804202F593
:10619C00B84248F28003CFF6FF7344EA03039BB284
:1061AC0013602CE0FB68DBB2184601F0FDFEFB68C7
:1061BC004FEA830303F1804303F5B8431B689BB29A
:1061CC001C464BF68F73C0F2000304EA03031C4613
:1061DC0084F480539CB284F400539CB2FB684FEA65
:1061EC00830303F1804202F5B84248F28003CFF6F4
:1061FC00FF7344EA03039BB2136000E000BF40F25C
:10620C00EC13C2F200031B685B6998474FF0000364
:10621C0001E04FF00203184607F11C07BD4690BD84
:10622C0090B585B000AF40F2F013C2F200031B68CA
:10623C005B793B603B6823F08003BB60BB687B6091
:10624C0040F2F013C2F200031B685B795BB2002BC7
:10625C000CDA7B684FEA830303F1804303F5B84300
:10626C001B689BB203F03003FB600BE07B684FEACA
:10627C00830303F1804303F5B8431B689BB203F41B
:10628C004053FB6040F28403C2F200031B781A46B1
:10629C007B689A4212D940F2F013C2F200031B68D9
:1062AC005B88002B0AD1FB68002B07D040F2F0135F
:1062BC00C2F200031B689B7A002B02D14FF0020341
:1062CC0054E03B6803F08003002B23D07B684FEA3B
:1062DC00830303F1804303F5B8431B689BB21C4650
:1062EC0048F6BF73C0F2000304EA03031C4684F0B3
:1062FC0010039CB27B684FEA830303F1804202F5E2
:10630C00B84248F28003CFF6FF7344EA03039BB212
:10631C00136022E07B684FEA830303F1804303F5AB
:10632C00B8431B689BB21C464BF68F73C0F200033C
:10633C0004EA03031C4684F480539CB27B684FEA46
:10634C00830303F1804202F5B84248F28003CFF692
:10635C00FF7344EA03039BB2136040F2EC13C2F2E6
:10636C0000031B689B6998474FF00003184607F120
:10637C001407BD4690BD00BF80B500AF40F2F013CE
:10638C00C2F200031A6840F2F013C2F200031B6859
:10639C005B7A43F02003DBB2537240F2EC13C2F28F
:1063AC0000031B68DB6998474FF00003184680BD5B
:1063BC0080B485B000AF03463960FB8040F2F01327
:1063CC00C2F200031B685B8AFB60FB88002B0FD1B9
:1063DC0040F2F013C2F200031B683A689188FA6825
:1063EC0092B2C2EB010292B21A824FF0000303E0A8
:1063FC003B681A68FB681344184607F11407BD463E
:10640C0080BC704780B584B000AF40F2F013C2F28C
:10641C0000031B6803F110033B603B681B887B6027
:10642C003B689B68002B31D07B68002B2ED03B68DF
:10643C009B88FB60FA687B689A4201D97B68FB6099
:10644C003B689B68FA6892B2104698470346BB605B
:10645C003B681A88FB689BB2C3EB02039AB23B6899
:10646C001A803B685A88FB689BB213449AB23B680B
:10647C005A804FF0000001F0A9FE03461A46FB6853
:10648C009BB2B86811461A4601F06CF93B681B8840
:10649C00002B13D040F2F613C2F200034FF440521B
:1064AC001A804FF000004FF0000101F0AFFE40F2F7
:1064BC00F813C2F200034FF030021A803B681A88BE
:1064CC003B689B889A4208D340F2F013C2F2000357
:1064DC001B684FF003021A7230E03B681B88002BDC
:1064EC0008D040F2F013C2F200031B684FF0050213
:1064FC001A7223E03B681B88002B1FD140F2F0136B
:10650C00C2F200031B684FF006021A7245F65043A4
:10651C00C4F200031B689BB21A4643F20203C2F298
:10652C00000313444FEA43034FF000021A6040F299
:10653C00F813C2F200034FF030021A8007F1100773
:10654C00BD4680BD80B586B000AF40F2F013C2F2FC
:10655C0000031B6803F110037B607B681B88BB6026
:10656C0040F2F013C2F200031B681B7AFB60BB689D
:10657C00002B37D1FB68042B34D140F22013C2F22C
:10658C0000031B78012B22D145F65043C4F20003C3
:10659C001B689BB21A4643F20203C2F20003134477
:1065AC004FEA43034FF000021A6040F2F813C2F2B4
:1065BC0000034FF030021A804FF00403FB6040F2EE
:1065CC002013C2F200034FF000021A7058E04FF093
:1065DC000703FB6040F2F813C2F200034FF0100205
:1065EC001A804DE07B689B887B61BA687B699A4214
:1065FC0002D84FF0040301E04FF00203FB607A690C
:10660C00BB689A4201D9BB687B617B689B687A69DD
:10661C0092B21046984703463B614FF0000001F0E0
:10662C00B7FD03461A467B699BB2386911461A4678
:10663C0001F052F87B699BB24FF00000194601F053
:10664C00E5FD7B681A887B699BB2C3EB02039AB2A7
:10665C007B681A807B685A887B699BB213449AB218
:10666C007B685A8040F2F813C2F200034FF03002FC
:10667C001A8040F2F613C2F200034FF440521A8013
:10668C0040F2F013C2F200031B68FA68D2B21A721D
:10669C0007F11807BD4680BD80B584B000AF4FF040
:1066AC000203FB7140F2F013C2F200031B685B782B
:1066BC00BB6040F2F013C2F200031B681B7803F0BE
:1066CC007F03002B40F08280BB68092B04D1FFF7BD
:1066DC00E1FA0346FB71AEE0BB68052B28D140F212
:1066EC00F013C2F200031B68DB785BB2002B17DBE4
:1066FC0040F2F013C2F200031B689B78002B0FD101
:10670C0040F2F013C2F200031B689B88002B07D1E8
:10671C0040F2F013C2F200031B689B7A002B03D0EB
:10672C004FF00803FB60BEE04FF00003FB7182E00A
:10673C00BB68032B23D140F2F013C2F200031B6899
:10674C00DB78012B17D140F2F013C2F200031B6867
:10675C009B88002B0FD140F2F013C2F200031B6890
:10676C005B7A03F02003002B05D0FFF705FE0346F0
:10677C00FB7100BF5FE04FF00203FB715BE0BB6895
:10678C00012B53D140F2F013C2F200031B68DB78EB
:10679C00012B17D140F2F013C2F200031B689B8847
:1067AC00002B0FD140F2F013C2F200031B685B7A8E
:1067BC0003F02003002B05D0FFF712FC0346FB71FE
:1067CC0000BF38E04FF00203FB7134E040F2F013ED
:1067DC00C2F200031B681B7803F07F03012B07D167
:1067EC00BB680B2B24D1FFF7B5FA0346FB7122E0F3
:1067FC0040F2F013C2F200031B681B7803F07F0316
:10680C00022B0FD1BB68012B04D1FFF7E9FB034628
:10681C00FB7110E0BB68032B0CD1FFF701FD0346A5
:10682C00FB7108E04FF00203FB7104E000BF02E0D3
:10683C0000BF00E000BFFB79002B12D040F2C81360
:10684C00C2F200031B685B69BA68D2B21046984763
:10685C000346FB71FB79032B03D14FF00903FB605B
:10686C0021E0FB79002B03D04FF00803FB601AE00A
:10687C004FF00603FB6045F65043C4F200031B685F
:10688C009BB21A4643F20203C2F2000313444FEACE
:10689C0043034FF000021A6040F2F813C2F20003F7
:1068AC004FF030021A8040F2F013C2F200031B6862
:1068BC00FA68D2B21A7207F11007BD4680BD00BF4C
:1068CC0080B58AB000AF40F2F013C2F200031B682F
:1068DC005B783B614FF00003BB604FF00003FB6142
:1068EC003B69062B37D140F2F013C2F200031B6850
:1068FC001B7803F07F03002B40F03F8140F2F01334
:10690C00C2F200031B689B7887F8273097F8273072
:10691C00012B07D140F2C813C2F200031B68DB69DC
:10692C00BB603BE197F82730022B07D140F2C8132C
:10693C00C2F200031B681B6ABB602FE197F827307B
:10694C00032B40F01C8140F2C813C2F200031B68F9
:10695C005B6ABB6022E13B69002B40F0B58040F2E2
:10696C00F013C2F200031B685B88002B40F0AC8074
:10697C0040F2F013C2F200031B68DB88022B40F0DC
:10698C00A38040F2F013C2F200031B681B79002BAA
:10699C0040F09A8040F2F013C2F200031B681B789F
:1069AC0003F07F03002B0ED140F2F013C2F2000370
:1069BC001B689B88002B06D145F62963C0F60003A3
:1069CC00BB6000BFEAE040F2F013C2F200031B68A8
:1069DC001B7803F07F03012B22D140F2C813C2F2C3
:1069EC0000031B689A6940F2F013C2F200031B68A3
:1069FC005B7918464FF0000190470346002B40F09E
:106A0C00C08040F2F013C2F200031B689B7A002B8B
:106A1C0000F0B98045F62963C0F60003BB60BDE009
:106A2C0040F2F013C2F200031B681B7803F07F03E3
:106A3C00022B40F0AA8040F2F013C2F200031B6854
:106A4C005B7903F00F037B6140F2F013C2F2000399
:106A5C001B685B7903F07003BB6140F2F013C2F268
:106A6C0000031B685B795BB2002B0CDA7B694FEA85
:106A7C00830303F1804303F5B8431B689BB203F017
:106A8C0030033B620BE07B694FEA830303F18043E5
:106A9C0003F5B8431B689BB203F440533B6240F2CE
:106AAC008403C2F200031B781A467B699A426ED9A2
:106ABC00BB69002B6DD13B6A002B6CD045F629636A
:106ACC00C0F60003BB6069E03B69082B0FD140F2B4
:106ADC00F013C2F200031B681B7803F07F03002B3A
:106AEC005BD145F65543C0F60003BB6056E03B69ED
:106AFC000A2B53D140F2F013C2F200031B681B782F
:106B0C0003F07F03012B49D140F2F013C2F20003D2
:106B1C001B689B7A002B41D040F2F013C2F20003A9
:106B2C001B685B88002B39D140F2F013C2F20003D2
:106B3C001B681B79002B31D140F2F013C2F2000319
:106B4C001B68DB88012B29D140F2C813C2F2000369
:106B5C001B689A6940F2F013C2F200031B685B7960
:106B6C0018464FF0000190470346002B16D145F60E
:106B7C001553C0F60003BB6010E000BF0EE000BF71
:106B8C000CE000BF0AE000BF08E000BF06E000BF59
:106B9C0004E000BF02E000BF00E000BFBB68002BB8
:106BAC0016D040F2F013C2F200031B68FA6992B2DD
:106BBC005A8240F2F013C2F200031B68BA689A6161
:106BCC00BB684FF0000098474FF00003FB731BE0CD
:106BDC0040F2C813C2F200031B681A6940F2F013AA
:106BEC00C2F200031B685B78184690470346FB73A0
:106BFC00FB7B032B08D140F2F013C2F200031B689D
:106C0C004FF009021A72ABE040F2F013C2F200032B
:106C1C001B681A8A4FF6FF739A4208D140F2F013A0
:106C2C00C2F200031B684FF009021A7298E0FB7B5A
:106C3C00022B07D040F2F013C2F200031B681B8A30
:106C4C00002B08D140F2F013C2F200031B684FF086
:106C5C0008021A7284E040F2F013C2F200031B68BF
:106C6C001B785BB2002B6BDA40F2F013C2F200031C
:106C7C001B68DB887B6040F2F013C2F200031B68D8
:106C8C001B8A1A467B689A4208D940F2F013C2F26A
:106C9C0000031B687A6892B21A8241E040F2F0134A
:106CAC00C2F200031B681A8A40F2F013C2F200030E
:106CBC001B68DB889A4233D240F2F013C2F2000315
:106CCC001B681A8A40F2C813C2F200031B6893F8BF
:106CDC002C309A4207D240F22013C2F200034FF03C
:106CEC0000021A701CE040F2F013C2F200031B68A1
:106CFC001B8A1A4640F2C813C2F200031B6893F8B1
:106D0C002C3092FBF3F103FB01F3C3EB0203002BDA
:106D1C0006D140F22013C2F200034FF001021A70A8
:106D2C0040F2F013C2F200031A6840F2C813C2F228
:106D3C0000031B6893F82C309382FFF703FC0FE0E1
:106D4C0040F2F013C2F200031B684FF003021A72F8
:106D5C0040F2F613C2F200034FF440521A8000BF07
:106D6C0007F12807BD4680BD90B583B000AF4FF04A
:106D7C000103FB8045F65043C4F200031B689BB231
:106D8C001A4643F20403C2F2000313444FEA4303CE
:106D9C001B689BB203F1005303F540534FEA4303C6
:106DAC003B6040F2F013C2F200031B681B7A092B04
:106DBC004DD040F2F013C2F200031A683B68197808
:106DCC00117003F101033B6040F2F013C2F20003B7
:106DDC001A683B681978517003F101033B603A68FB
:106DEC00FB884FEA430313443B6040F2F013C2F2BA
:106DFC0000031C683B681A8803F102033B601046D1
:106E0C0001F042FE034663803A68FB884FEA430375
:106E1C0013443B6040F2F013C2F200031C683B6861
:106E2C001A8803F102033B60104601F02DFE034665
:106E3C00A3803A68FB884FEA430313443B6040F25B
:106E4C00F013C2F200031B683A681288DA8040F231
:106E5C00F013C2F200031B684FF001021A7240F2E9
:106E6C00F013C2F200031B68DB88002B02D1FFF782
:106E7C0013FC01E0FFF724FD00F0AAF803461846C6
:106E8C0007F10C07BD4690BD80B582B000AF40F253
:106E9C00F013C2F200031B681B7A7B607B68022B29
:106EAC0002D07B68042B09D1FFF74CFB40F2F013A6
:106EBC00C2F200031B681B7A7B6032E07B68062BF6
:106ECC002CD140F2F013C2F200031B685B78052B47
:106EDC0019D140F2F013C2F200031B681B7803F0C7
:106EEC007F03002B0FD140F2F013C2F200031B689A
:106EFC00DB78184600F09CF840F2EC13C2F2000369
:106F0C001B681B6A984740F2C813C2F200031B6847
:106F1C009B6898474FF008037B6002E04FF0080332
:106F2C007B6040F2F013C2F200031B687A68D2B2A5
:106F3C001A7200F04DF80346184607F10807BD46D3
:106F4C0080BD00BF80B582B000AF40F2F013C2F23A
:106F5C0000031B681B7A7B607B68022B02D07B686A
:106F6C00042B03D14FF008037B6020E07B68032BDC
:106F7C0002D07B68052B09D1FFF744FA40F2F013DD
:106F8C00C2F200031B681B7A7B6010E07B68072B46
:106F9C000AD140F2C813C2F200031B68DB689847A1
:106FAC004FF008037B6002E04FF008037B6040F277
:106FBC00F013C2F200031B687A68D2B21A7200F0A6
:106FCC0007F80346184607F10807BD4680BD00BF09
:106FDC0080B500AF40F28803C2F2000393F82C3066
:106FEC004FF00000194601F069F940F2F013C2F2BB
:106FFC0000031B681B7A082B0DD140F2F613C2F26A
:10700C0000034FF480521A8040F2F813C2F20003CE
:10701C004FF010021A8040F2F013C2F200031B680A
:10702C001B7A092B14BF00230123184680BD00BF17
:10703C0080B485B000AF0346FB7140F28403C2F20A
:10704C0000031B78FB604FF00003BB6025E0BB68BE
:10705C00DBB24FEA830303F1804202F5B842BB680E
:10706C00DBB24FEA830303F1804303F5B8431B689B
:10707C009BB2194640F60F73C0F2000301EA0303FA
:10708C0043F4004343F08003B968C9B243EA0103F7
:10709C001360BB6803F10103BB60BA68FB689A42DA
:1070AC00D5D345F64C43C4F20003FA796FEA426239
:1070BC006FEA5262D2B21A6007F11407BD4680BC67
:1070CC00704700BF80B400AFBD4680BC704700BFA6
:1070DC0080B500AF40F2F013C2F2000340F2D012C0
:1070EC00C2F200021A6040F2F013C2F200031B68F5
:1070FC004FF002021A7240F2C813C2F2000340F2BF
:10710C008802C2F200021A6040F2EC13C2F20003D1
:10711C0040F2B802C2F200021A6040F2C813C2F286
:10712C0000031B681B68984780BD00BF90B583B0F7
:10713C0000AF4FF00003FB8008E240F2B813C2F23C
:10714C0000031B889BB2DBB21A4602F00F0240F21E
:10715C00CC13C2F200031A7040F2CC13C2F200033B
:10716C001B78002B40F07B8145F60043C4F20003F2
:10717C001B689AB240F2F613C2F200031A8040F276
:10718C00F613C2F200031B889BB21A4602F03002BF
:10719C0040F2F813C2F200031A8040F2F613C2F266
:1071AC0000031B889BB21A4602F4405240F2F613BD
:1071BC00C2F200031A8045F60043C4F200031B68B8
:1071CC009BB24BF6BF74C0F2000403EA040484F4CF
:1071DC00005484F0200445F60042C4F20002A1B22F
:1071EC0048F28003CFF6FF7341EA03039BB21360AE
:1071FC0040F2B813C2F200031B889BB203F01003D9
:10720C00002B5DD145F60042C4F2000245F6004366
:10721C00C4F200031B689BB2194648F60F73C0F208
:10722C00000301EA03031360FFF72EFE45F600434B
:10723C00C4F200031B689BB24BF6BF74C0F200048F
:10724C0003EA040440F2F613C2F200031B889BB25B
:10725C0003F48053002B01D084F4805440F2F613D5
:10726C00C2F200031B889BB203F40053002B01D025
:10727C0084F4005440F2F813C2F200031B889BB252
:10728C0003F01003002B01D084F0100440F2F8132B
:10729C00C2F200031B889BB203F02003002B01D029
:1072AC0084F0200445F60042C4F20002A1B248F278
:1072BC008003CFF6FF7341EA03039BB213605AE1DC
:1072CC0045F60043C4F200031B689BB2FB80FB88AD
:1072DC009BB203F40063002B5DD045F60042C4F270
:1072EC00000245F60043C4F200031B689BB219462A
:1072FC0040F68F73C0F2000301EA03031360FFF73B
:10730C0033FD45F60043C4F200031B689BB24BF6F9
:10731C00BF74C0F2000403EA040440F2F613C2F294
:10732C0000031B889BB203F48053002B01D084F420
:10733C00805440F2F613C2F200031B889BB203F494
:10734C000053002B01D084F4005440F2F813C2F225
:10735C0000031B889BB203F01003002B01D084F0B8
:10736C00100440F2F813C2F200031B889BB203F026
:10737C002003002B01D084F0200445F60042C4F217
:10738C000002A1B248F28003CFF6FF7341EA030377
:10739C009BB21360EFE0FB889BB21BB2002B80F218
:1073AC00D48045F60042C4F2000245F60043C4F214
:1073BC0000031B689BB2194640F68F73C0F20003A2
:1073CC0001EA03031360FFF7BDFD45F60043C4F269
:1073DC0000031B689BB24BF6BF74C0F2000403EAB7
:1073EC00040440F2F613C2F200031B889BB203F4B0
:1073FC008053002B01D084F4805440F2F613C2F277
:10740C0000031B889BB203F40053002B01D084F4BF
:10741C00005440F2F813C2F200031B889BB203F035
:10742C001003002B01D084F0100440F2F813C2F2C8
:10743C0000031B889BB203F02003002B01D084F0C7
:10744C00200445F60042C4F20002A1B248F28003C7
:10745C00CFF6FF7341EA03039BB213608BE040F25B
:10746C00CC13C2F200031B784FEA830303F1804371
:10747C0003F5B8431B689BB2FB80FB889BB21BB225
:10748C00002B2DDA40F2CC13C2F200031B784FEA2A
:10749C00830303F1804202F5B84240F2CC13C2F2EE
:1074AC0000031B784FEA830303F1804303F5B843D1
:1074BC001B689BB2194640F68F73C0F2000301EAB9
:1074CC000303136040F2CC13C2F200031B7803F1E8
:1074DC00FF3240F26003C2F2000353F822309847A7
:1074EC00FB889BB203F08003002B2FD040F2CC130F
:1074FC00C2F200031B784FEA830303F1804202F5CA
:10750C00B84240F2CC13C2F200031B784FEA83035B
:10751C0003F1804303F5B8431B689BB2194648F648
:10752C000F73C0F2000301EA0303136040F2CC13A3
:10753C00C2F200031B7803F1FF3240F24403C2F2A3
:10754C00000353F82230984700E000BF45F644434F
:10755C00C4F200031B689AB240F2B813C2F20003E3
:10756C001A8040F2B813C2F200031B889BB21BB204
:10757C00002BFFF6E2AD07F10C07BD4690BD00BF36
:10758C0080B582B000AF4FF000037B608AE045F617
:10759C004443C4F2000347F6FF721A6040F2B8137A
:1075AC00C2F200031B889BB2DBB21A4602F00F0238
:1075BC0040F2CC13C2F200031A7040F2CC13C2F2A8
:1075CC0000031B784FEA830303F1804303F5B843B0
:1075DC001B689BB27B607B6803F40043002B2ED0AE
:1075EC0040F2CC13C2F200031B784FEA830303F181
:1075FC00804202F5B84240F2CC13C2F200031B7871
:10760C004FEA830303F1804303F5B8431B689BB235
:10761C00194640F68F73C0F2000301EA03031360AE
:10762C0040F2CC13C2F200031B7803F1FF3240F29C
:10763C006003C2F2000353F82230984732E07B68B3
:10764C0003F08003002B2DD040F2CC13C2F20003C8
:10765C001B784FEA830303F1804202F5B84240F2F3
:10766C00CC13C2F200031B784FEA830303F180436F
:10767C0003F5B8431B689BB2194648F60F73C0F26A
:10768C00000301EA0303136040F2CC13C2F20003BF
:10769C001B7803F1FF3240F24403C2F2000353F8AB
:1076AC002230984745F64443C4F200031B689AB253
:1076BC0040F2B813C2F200031A8040F2B813C2F2BF
:1076CC0000031B889BB21BB2002BFFF660AF07F1C7
:1076DC000807BD4680BD00BF80B489B000AF78609C
:1076EC0013460A467A803B803B8803F101034FEA3C
:1076FC006303FB607B8803F1005303F540534FEAAF
:10770C004303FB61FB683B6123E07B681B787B6177
:10771C007B6803F101037B607B681B784FEA0323D2
:10772C001A467B6942EA0303BB61BB699AB2FB69E7
:10773C001A80FB6903F10203FB61FB6903F102038D
:10774C00FB617B6803F101037B603B6903F1FF3351
:10775C003B613B69002BD8D107F12407BD4680BCA7
:10776C00704700BF80B487B000AF786013460A46FC
:10777C007A803B803B8803F101034FEA6303FB6093
:10778C007B8803F1005303F540534FEA43037B61BD
:10779C00FB683B6114E07B687A69126892B21A80CC
:1077AC007B6803F101037B607B6903F104037B615C
:1077BC007B6803F101037B603B6903F1FF333B61A1
:1077CC003B69002BE7D107F11C07BD4680BC704715
:1077DC0080B483B000AF0346FB8045F64043C4F24F
:1077EC000003FA881A6007F10C07BD4680BC70478D
:1077FC0080B400AF45F64043C4F200031B689BB253
:10780C001846BD4680BC704780B483B000AF0346B9
:10781C00FB8045F64443C4F20003FA881A6007F172
:10782C000C07BD4680BC704780B400AF45F644439E
:10783C00C4F200031B689BB21846BD4680BC70475F
:10784C0080B400AF45F64843C4F200031B689BB2FA
:10785C001846BD4680BC704780B483B000AF034669
:10786C00FB8045F64C43C4F20003FA881A6007F11A
:10787C000C07BD4680BC704780B400AF45F64C4346
:10788C00C4F200031B689BB21846BD4680BC70470F
:10789C0080B483B000AF0346FB8045F65042C4F27F
:1078AC000002F9884FF6F873C0F2000301EA0303F3
:1078BC00136007F10C07BD4680BC704780B400AF65
:1078CC0045F65043C4F200031B689BB21846BD46F4
:1078DC0080BC704780B483B000AF02460B46FA718F
:1078EC00BB80FB794FEA830303F1804303F5B84374
:1078FC00BA881A6007F10C07BD4680BC704700BF00
:10790C0080B483B000AF0346FB71FB794FEA83036D
:10791C0003F1804303F5B8431B689BB2184607F18B
:10792C000C07BD4680BC704780B483B000AF0246E4
:10793C000B46FA71BB80FB794FEA830303F180425B
:10794C0002F5B842FB794FEA830303F1804303F558
:10795C00B8431B689BB299B248F68F13C0F2000370
:10796C0001EA03031946BB8841EA03039BB29BB2AD
:10797C00136007F10C07BD4680BC704780B483B020
:10798C0000AF0346FB71FB794FEA830303F180439D
:10799C0003F5B8431B689BB203F4C063184607F1A8
:1079AC000C07BD4680BC704790B482B000AF024655
:1079BC000B46FA71BB80FB794FEA830303F18043DA
:1079CC0003F5B8431B689BB21C4648F6BF73C0F264
:1079DC00000304EA03031C46BB8803F01003002BCE
:1079EC0002D084F010039CB2BB8803F02003002B60
:1079FC0002D084F020039CB2FB794FEA830303F19D
:107A0C00804202F5B84248F28003CFF6FF7344EA95
:107A1C0003039BB2136007F10807BD4690BC704787
:107A2C0090B482B000AF02460B46FA71BB80FB7972
:107A3C004FEA830303F1804303F5B8431B689BB201
:107A4C001C464BF68F73C0F2000304EA03031C467A
:107A5C00BB8803F48053002B02D084F480539CB277
:107A6C00BB8803F40053002B02D084F400539CB267
:107A7C00FB794FEA830303F1804202F5B84248F2E6
:107A8C008003CFF6FF7344EA03039BB2136007F144
:107A9C000807BD4690BC704780B584B000AF024665
:107AAC000B46FA71BB71FB791846FFF729FF0346A9
:107ABC00FB81BB79012B0BD1FB794FEA830303F1DB
:107ACC00804303F5B843FA8922F480521A600DE022
:107ADC00BB79022B0AD1FB794FEA830303F1804374
:107AEC0003F5B843FA8922F010021A6007F1100767
:107AFC00BD4680BD80B483B000AF0346FB71FB79FB
:107B0C004FEA830303F1804303F5B8431B689BB230
:107B1C0003F03003184607F10C07BD4680BC7047D4
:107B2C0080B483B000AF0346FB71FB794FEA83034B
:107B3C0003F1804303F5B8431B689BB203F4405335
:107B4C00184607F10C07BD4680BC704790B482B054
:107B5C0000AF0346FB71FB794FEA830303F18043CB
:107B6C0003F5B8431B689BB21C4648F6BF73C0F2C2
:107B7C00000304EA03031C4684F010039CB284F057
:107B8C0020039CB2FB794FEA830303F1804202F598
:107B9C00B84248F28003CFF6FF7344EA03039BB26A
:107BAC00136007F10807BD4690BC704790B482B0D3
:107BBC0000AF0346FB71FB794FEA830303F180436B
:107BCC0003F5B8431B689BB21C464BF68F73C0F28F
:107BDC00000304EA03031C4684F480539CB284F42F
:107BEC0000539CB2FB794FEA830303F1804202F508
:107BFC00B84248F28003CFF6FF7344EA03039BB20A
:107C0C00136007F10807BD4690BC704780B483B081
:107C1C0000AF0346FB71FB794FEA830303F180420B
:107C2C0002F5B842FB794FEA830303F1804303F575
:107C3C00B8431B689BB2194640F60F63C0F20003B1
:107C4C0001EA0303194648F28013CFF6FF7341EAA9
:107C5C0003039BB2136007F10C07BD4680BC704751
:107C6C0080B483B000AF0346FB71FB794FEA83030A
:107C7C0003F1804202F5B842FB794FEA830303F12A
:107C8C00804303F5B8431B689BB299B240F60F636F
:107C9C00C0F2000301EA030319460B4643F07F438D
:107CAC0043F47F0343F4004343F080039BB29BB245
:107CBC00136007F10C07BD4680BC704780B483B0DD
:107CCC0000AF0346FB71FB794FEA830303F180425B
:107CDC0002F5B842FB794FEA830303F1804303F5C5
:107CEC00B8431B689BB299B240F60F63C0F2000315
:107CFC0001EA030319460B4643F07F4343F47F0329
:107D0C0043F4004343F080039BB29BB2136007F132
:107D1C000C07BD4680BC704780B483B000AF0346EF
:107D2C00FB71FB794FEA830303F1804202F5B84201
:107D3C00FB794FEA830303F1804303F5B8431B68D7
:107D4C009BB2194640F60F63C0F2000301EA03032D
:107D5C00194648F28013CFF6FF7341EA03039BB236
:107D6C00136007F10C07BD4680BC704780B483B02C
:107D7C0000AF0346FB71FB794FEA830303F18042AA
:107D8C0002F5B842FB794FEA830303F1804303F514
:107D9C00B8431B689BB2194640F60F63C0F2000350
:107DAC0001EA0303194648F28013CFF6FF7341EA48
:107DBC0003039BB2136007F10C07BD4680BC7047F0
:107DCC0080B483B000AF0346FB71FB794FEA8303A9
:107DDC0003F1804202F5B842FB794FEA830303F1C9
:107DEC00804303F5B8431B689BB299B240F60F630E
:107DFC00C0F2000301EA030319460B4643F07F432C
:107E0C0043F47F0343F4004343F080039BB29BB2E3
:107E1C00136007F10C07BD4680BC704780B483B07B
:107E2C0000AF0346FB71FB794FEA830303F18043F8
:107E3C0003F5B8431B689BB203F03003102B14BF3F
:107E4C0000230123184607F10C07BD4680BC704780
:107E5C0080B483B000AF0346FB71FB794FEA830318
:107E6C0003F1804303F5B8431B689BB203F4405302
:107E7C00B3F5805F14BF00230123184607F10C07EC
:107E8C00BD4680BC704700BF80B483B000AF0346D2
:107E9C00FB71FB794FEA830303F1804202F5B84290
:107EAC00FB794FEA830303F1804303F5B8431B6866
:107EBC009BB2194640F68F73C0F2000301EA03032C
:107ECC00136007F10C07BD4680BC704780B483B0CB
:107EDC0000AF0346FB71FB794FEA830303F1804249
:107EEC0002F5B842FB794FEA830303F1804303F5B3
:107EFC00B8431B689BB2194648F60F73C0F20003D7
:107F0C0001EA0303136007F10C07BD4680BC704700
:107F1C0080B483B000AF0346FB71FB794FEA830357
:107F2C0003F1804202F5B842FB794FEA830303F177
:107F3C00804303F5B8431B689BB2194640F60F7398
:107F4C00C0F2000301EA030343F4404343F080030F
:107F5C00136007F10C07BD4680BC704780B483B03A
:107F6C0000AF0346FB71FB794FEA830303F18042B8
:107F7C0002F5B842FB794FEA830303F1804303F522
:107F8C00B8431B689BB2194640F60F73C0F200034E
:107F9C0001EA030343F4004343F0C003136007F109
:107FAC000C07BD4680BC704780B483B000AF03465D
:107FBC00FB71FB794FEA830303F1804303F5B8436C
:107FCC001B689BB203F48043002B1BD0FB794FEA58
:107FDC00830303F1804202F5B842FB794FEA830335
:107FEC0003F1804303F5B8431B689BB2194640F676
:107FFC000F73C0F2000301EA030343F4404343F060
:10800C008003136007F10C07BD4680BC704700BFAE
:10801C0080B483B000AF0346FB71FB794FEA830356
:10802C0003F1804303F5B8431B689BB203F0400394
:10803C00002B1BD0FB794FEA830303F1804202F53E
:10804C00B842FB794FEA830303F1804303F5B8434D
:10805C001B689BB2194640F60F73C0F2000301EA8D
:10806C00030343F4004343F0C003136007F10C0710
:10807C00BD4680BC704700BF80B483B000AF0246E1
:10808C000B46FA71BB71FB794FEA830303F1804213
:10809C0002F5B842FB794FEA830303F1804303F501
:1080AC00B8431B689BB2194640F60F73C0F200032D
:1080BC0001EA030343F4004343F08003B97943EA34
:1080CC000103136007F10C07BD4680BC704700BF6D
:1080DC0080B483B000AF0346FB71FB794FEA830396
:1080EC0003F1804303F5B8431B68DBB203F00F03C5
:1080FC00184607F10C07BD4680BC704780B483B0AE
:10810C0000AF02460B46FA71BB8045F65043C4F2F1
:10811C0000031B689BB21A46FB794FEAC303134456
:10812C0003F1005303F540534FEA4303BA884FEA77
:10813C00520292B24FEA42021A6007F10C07BD4696
:10814C0080BC704780B483B000AF02460B46FA7116
:10815C00BB8045F65043C4F200031B689BB21A4621
:10816C00FB794FEAC3031A4443F20403C2F200033F
:10817C0013444FEA4303BA884FEA520292B24FEAD1
:10818C0042021A6007F10C07BD4680BC704700BF65
:10819C0080B483B000AF0346FB7145F65043C4F284
:1081AC0000031B689BB21A46FB794FEAC3031344C6
:1081BC0003F1005303F540534FEA43031B689BB292
:1081CC00184607F10C07BD4680BC704780B483B0DD
:1081DC0000AF0346FB7145F65043C4F200031B6825
:1081EC009BB21A46FB794FEAC3031A4443F20403C9
:1081FC00C2F2000313444FEA43031B689BB21846B8
:10820C0007F10C07BD4680BC704700BF80B483B03B
:10821C0000AF02460B46FA71BB8045F65043C4F2E0
:10822C0000031B689BB21A46FB794FEAC3031A443E
:10823C0043F20203C2F2000313444FEA4303BA8829
:10824C001A6007F10C07BD4680BC704780B485B03E
:10825C0000AF78600B467B807B883E2B15D97B88E2
:10826C004FEA5313FB817B8803F01F03002B03D1D0
:10827C00FB8903F1FF33FB81FB894FEA832343F432
:10828C0000431A467B681A6013E07B884FEA53035D
:10829C00FB817B8803F00103DBB2002B03D0FB894D
:1082AC0003F10103FB81FB894FEA83231A467B68A8
:1082BC001A6007F11407BD4680BC704780B485B0C6
:1082CC0000AF02460B46FA71BB8045F65043C4F230
:1082DC0000031B689BB21A46FB794FEAC3031A448E
:1082EC0043F20603C2F2000313444FEA4303BB609C
:1082FC00BB883E2B15D9BB884FEA5313FB81BB8837
:10830C0003F01F03002B03D1FB8903F1FF33FB8127
:10831C00FB894FEA832343F400431A46BB681A6077
:10832C0013E0BB884FEA5303FB81BB8803F00103C6
:10833C00DBB2002B03D0FB8903F10103FB81FB892A
:10834C004FEA83231A46BB681A6007F11407BD462F
:10835C0080BC704780B483B000AF0346FB7145F618
:10836C005043C4F200031B689BB21A46FB794FEAD8
:10837C00C3031A4443F20203C2F2000313444FEA4C
:10838C0043031B689BB24FEA83534FEA935318463F
:10839C0007F10C07BD4680BC704700BF80B483B0AA
:1083AC0000AF0346FB7145F65043C4F200031B6853
:1083BC009BB21A46FB794FEAC3031A4443F20603F5
:1083CC00C2F2000313444FEA43031B689BB24FEA0B
:1083DC0083534FEA9353184607F10C07BD4680BCF4
:1083EC00704700BF80B483B000AF13460246FA71E9
:1083FC000A46BA807B8045F65043C4F200031B68E2
:10840C009BB21A46FB794FEAC303134403F10053A2
:10841C0003F540534FEA4303BA884FEA520292B233
:10842C004FEA42021A6045F65043C4F200031B683F
:10843C009BB21A46FB794FEAC3031A4443F2040376
:10844C00C2F2000313444FEA43037A884FEA520204
:10845C0092B24FEA42021A6007F10C07BD4680BC8B
:10846C00704700BF80B483B000AF02460B46FA7170
:10847C00BB8045F65043C4F200031B689BB21A46FE
:10848C00FB794FEAC303134403F1005303F5405344
:10849C004FEA4303BA884FEA520292B24FEA4202C1
:1084AC001A6007F10C07BD4680BC704780B483B0DE
:1084BC0000AF02460B46FA71BB8045F65043C4F23E
:1084CC0000031B689BB21A46FB794FEAC3031A449C
:1084DC0043F20403C2F2000313444FEA4303BA8885
:1084EC004FEA520292B24FEA42021A6007F10C07AD
:1084FC00BD4680BC704700BF80B483B000AF03465C
:10850C00FB7145F65043C4F200031B689BB21A463C
:10851C00FB794FEAC303134403F1005303F54053B3
:10852C004FEA43031B689BB2184607F10C07BD4684
:10853C0080BC704780B483B000AF0346FB7145F636
:10854C005043C4F200031B689BB21A46FB794FEAF6
:10855C00C3031A4443F20403C2F2000313444FEA68
:10856C0043031B689BB2184607F10C07BD4680BC41
:10857C00704700BF80B487B000AF13460246FA7153
:10858C000A46BA71BB80BB79012B40D145F65043EA
:10859C00C4F200031B689BB21A46FB794FEAC30373
:1085AC001A4443F20203C2F2000313444FEA43039A
:1085BC00BB60BB883E2B15D9BB884FEA5313FB819C
:1085CC00BB8803F01F03002B03D1FB8903F1FF339E
:1085DC00FB81FB894FEA832343F400431A46BB68B3
:1085EC001A602BE0BB884FEA5303FB81BB8803F076
:1085FC000103DBB2002B03D0FB8903F10103FB81E8
:10860C00FB894FEA83231A46BB681A6016E0BB79D4
:10861C00022B13D145F65043C4F200031B689BB2E6
:10862C001A46FB794FEAC3031A4443F20203C2F21F
:10863C00000313444FEA4303BA881A60BB79012B39
:10864C0040D145F65043C4F200031B689BB21A4656
:10865C00FB794FEAC3031A4443F20603C2F2000348
:10866C0013444FEA43033B61BB883E2B15D9BB88AF
:10867C004FEA5313FB82BB8803F01F03002B03D17B
:10868C00FB8A03F1FF33FB82FB8A4FEA832343F41B
:10869C0000431A463B691A602BE0BB884FEA530330
:1086AC00FB82BB8803F00103DBB2002B03D0FB8AF7
:1086BC0003F10103FB82FB8A4FEA83231A463B69D1
:1086CC001A6016E0BB79022B13D145F65043C4F265
:1086DC0000031B689BB21A46FB794FEAC3031A448A
:1086EC0043F20603C2F2000313444FEA4303BA8871
:1086FC001A6007F11C07BD4680BC704780B485B07A
:10870C0000AF13460246FA710A46BA71BB80BB79B8
:10871C00012B40D145F65043C4F200031B689BB2B9
:10872C001A46FB794FEAC3031A4443F20203C2F21E
:10873C00000313444FEA4303BB60BB883E2B15D99F
:10874C00BB884FEA5313FB81BB8803F01F03002B3C
:10875C0003D1FB8903F1FF33FB81FB894FEA8323B0
:10876C0043F400431A46BB681A602BE0BB884FEAFF
:10877C005303FB81BB8803F00103DBB2002B03D056
:10878C00FB8903F10103FB81FB894FEA83231A4622
:10879C00BB681A6016E0BB79022B13D145F6504327
:1087AC00C4F200031B689BB21A46FB794FEAC30361
:1087BC001A4443F20203C2F2000313444FEA430388
:1087CC00BA881A6007F11407BD4680BC704700BF19
:1087DC0080B485B000AF13460246FA710A46BA71EE
:1087EC00BB80BB79012B40D145F65043C4F200034A
:1087FC001B689BB21A46FB794FEAC3031A4443F237
:10880C000603C2F2000313444FEA4303BB60BB8868
:10881C003E2B15D9BB884FEA5313FB81BB8803F061
:10882C001F03002B03D1FB8903F1FF33FB81FB8971
:10883C004FEA832343F400431A46BB681A602BE0CB
:10884C00BB884FEA5303FB81BB8803F00103DBB207
:10885C00002B03D0FB8903F10103FB81FB894FEA59
:10886C0083231A46BB681A6016E0BB79022B13D11E
:10887C0045F65043C4F200031B689BB21A46FB79C1
:10888C004FEAC3031A4443F20603C2F20003134433
:10889C004FEA4303BA881A6007F11407BD4680BC3F
:1088AC00704700BF80B483B000AF0346FB7145F640
:1088BC005043C4F200031B689BB21A46FB794FEA83
:1088CC00C3031A4443F20203C2F2000313444FEAF7
:1088DC0043031B689BB24FEA83534FEA93531846EA
:1088EC0007F10C07BD4680BC704700BF80B483B055
:1088FC0000AF0346FB7145F65043C4F200031B68FE
:10890C009BB21A46FB794FEAC3031A4443F206039F
:10891C00C2F2000313444FEA43031B689BB24FEAB5
:10892C0083534FEA9353184607F10C07BD4680BC9E
:10893C00704700BF80B483B000AF0346FB7145F6AF
:10894C005043C4F200031B689BB21A46FB794FEAF2
:10895C00C3031A4443F20603C2F2000313444FEA62
:10896C0043031B689BB203F47C43002B02D04FF0F3
:10897C0001031EE045F65043C4F200031B689BB292
:10898C001A46FB794FEAC3031A4443F20203C2F2BC
:10899C00000313444FEA43031B689BB24FEA835313
:1089AC004FEA9353002B02D04FF0020301E04FF03B
:1089BC000003184607F10C07BD4680BC704700BF8A
:1089CC0080B483B000AF02460B46FA71BB71BB7921
:1089DC00012B1CD1FB794FEA830303F1804202F592
:1089EC00B842FB794FEA830303F1804303F5B843A4
:1089FC001B689BB2194640F60F73C0F2000301EAE4
:108A0C00030343F4004343F0C00313601EE0BB793F
:108A1C00022B1BD1FB794FEA830303F1804202F551
:108A2C00B842FB794FEA830303F1804303F5B84363
:108A3C001B689BB2194640F60F73C0F2000301EAA3
:108A4C00030343F4404343F08003136007F10C0726
:108A5C00BD4680BC704700BF80B485B000AF0246F5
:108A6C000B46FA71BB71BA79FB794FEA03239BB2BF
:108A7C0042EA03039BB2FB81FB89184607F11407FA
:108A8C00BD4680BC704700BF80B485B000AF0346C4
:108A9C00FB80FB887B73FB884FEA13239BB21A463F
:108AAC007B7B4FEA03239BB242EA03039BB2FB811D
:108ABC00FB89184607F11407BD4680BC704700BF00
:108ACC0080B400AF45F64443C4F200034FF00002FB
