:100000000C944F000C946C000C946C000C946C00DD
:100010000C946C000C946C000C946C000C946C00B0
:100020000C946C000C94DE140C940F150C94AD140D
:100030000C946C000C944B140C947C140C941A14B7
:100040000C946E000C946C000C946C000C940317D0
:100050000C94C6110C9406120C946C000C946C0059
:100060000C9484120C946C000C946C000C946C0036
:100070000C946C000C946C000C946C00202B2D2EB6
:1000800030313233343536373839680045464765C4
:100090006667006364696E6F707375785800112429
:1000A0001FBECFEFD0E1DEBFCDBF11E0A0E0B1E0D9
:1000B000E6EDFFE302C005900D92AC39B107D9F728
:1000C00012E0ACE9B1E001C01D92A93BB107E1F734
:1000D0000E94101B0C94E91F0C9400001F920F92B9
:1000E0000FB60F9211242F933F934F935F936F930B
:1000F0007F938F939F93AF93BF93EF93FF930E9450
:1001000001010E94080381110E94A803FF91EF9151
:10011000BF91AF919F918F917F916F915F914F911F
:100120003F912F910F900FBE0F901F9018952F9217
:100130003F924F925F926F927F928F929F92AF9277
:10014000BF92CF92DF92EF92FF920F931F93CF93C4
:10015000DF93FB010DB605820EB60682FC01058019
:100160000DBE06800EBEDF91CF911F910F91FF90C3
:10017000EF90DF90CF90BF90AF909F908F907F9047
:100180006F905F904F903F902F900895F894FFCF1D
:100190007894C201F10109950E94C7040895E09185
:1001A0003C02F0913D0285E891E094878387FFCF80
:1001B0000F931F930E942B020E94560160E48CE96A
:1001C00091E00E94B20390933D0280933C0221E0B3
:1001D000FC0125877894E0913C02F0913D0284E592
:1001E00091E09487838700E010E02FEC30E041E05D
:1001F0006DE670E08CEB91E00E9433041F910F914B
:1002000008950F931F93CF93DF93E0913C02F091F9
:100210003D028785882311F08150878780899189E5
:100220000196918B808B80912F02909130020196E4
:100230009093300280932F02A0912902B0912A025C
:1002400082E0A932B80769F114968D919C911597B7
:10025000019715969C938E931497892B11F509E2BB
:1002600012E01696ED91FC91179717961C921E922C
:100270001697CD91DC9111971B830A83D0932A02A4
:10028000C093290218968D919C9119970995A09178
:100290002902B0912A0214968D919C911597892B71
:1002A00001F3DF91CF911F910F910895E9E2F2E000
:1002B000F0932C02E0932B02F183E0838FEF9FEF0A
:1002C00090932E0280932D021092300210922F02F2
:1002D0000895CF93DF93DC0119963C932E931897E2
:1002E00017965C934E931697E0912902F0912A029B
:1002F000248135812617370750F4621B730B019058
:10030000F081E02D2481358126173707B0F311964F
:10031000FC93EE93C281D3811396DC93CE93129714
:10032000B383A283B983A88315967C936E931497A5
:1003300082E0E932F80731F084819581861B970BC2
:1003400095838483DF91CF910895CF93DF93FC0150
:10035000A081B18182E0A932B80761F014968D9135
:100360009C91159724813581820F931F15969C933C
:100370008E931497C281D381B983A883A081B18160
:100380001396DC93CE93129717821682DF91CF914A
:10039000089520912F02309130028617970750F46C
:1003A0002817390728F081E02617370708F4089541
:1003B00080E0089528173907B0F381E00895CF93BE
:1003C000DF93DC011D968C911D97833071F140F114
:1003D000853091F18D3081F18FEF9FEF53969C9393
:1003E0008E9352971D961C921D9714969C9114976C
:1003F000E1E3F2E00190F081E02D84818917D0F7EC
:100400001196FC93EE93C281D3811396DC93CE9325
:100410001297B383A283B983A883DF91CF91089504
:100420008111DACFDF91CF9108955296ED91FC9131
:10043000539784818F5F84831296ED91FC9113977B
:100440008D919C91119791838083CD91DC9111972F
:10045000FB83EA83C1CFE1E3F2E0F0933402E0935F
:100460003302F183E08310923502F0933B02E09374
:100470003A02F0933902E09338020895CF93DF9364
:10048000DC011D961C921D9714969C911497E1E334
:10049000F2E00190F081E02D84818917D0F7119668
:1004A000FC93EE93C281D3811396DC93CE93129783
:1004B000B383A283B983A883CD01DF91CF9108953F
:1004C000CF93DF932CE332E0D9016D917C91FB0156
:1004D000858784E18787E1E3F2E080819181DC0117
:1004E000CD91DC911197D183C083FB83EA83F9011D
:1004F0009183808321E01D962C93DF91CF910C9402
:1005000097001F93CF93DF93CDB7DEB72A970FB62F
:10051000F894DEBF0FBECDBF182F6F3F8FEF780767
:1005200029F120913C0230913D024FED51E0CE0186
:1005300001960E946901812F0E9460028F81988537
:10054000892B21F0CE0101960E94A501E0913C0289
:10055000F0913D02828993892A960FB6F894DEBF06
:100560000FBECDBFDF91CF911F910895812F0E94C3
:100570006002ECCFCF93DF93DC0153967C936E93B4
:10058000529714962C911497C0913C02D0913D0241
:100590009C819217D8F01D961C921D97E1E3F2E022
:1005A0000190F081E02D84818217D0F71196FC93A1
:1005B000EE93C281D3811396DC93CE931297B383CB
:1005C000A283B983A883DF91CF9108951D86E1E3CB
:1005D000F2E00190F081E02D84818917D0F7F98352
:1005E000E883828193819B838A83D383C283FC01C6
:1005F000D183C083B0933D02A0933C0281E01D965D
:100600008C931D97BE01CD01DF91CF910C94970083
:10061000E0913102F09132022481E0913C02F091AC
:100620003D0294818785811104C081E0291720F063
:10063000089581E09217E0F380E00895CF93DF936F
:10064000A0913C02B0913D02809131029091320222
:10065000EC01E881F981F0933202E093310221E369
:1006600032E03383228390933D0280933C0221E069
:100670002D8724E11F962C931F971D961C921D9782
:1006800014963C911497FC0103C00190F081E02D79
:1006900024812317D0F71196FC93EE93C281D38166
:1006A0001396DC93CE931297B383A283B983A88366
:1006B000BD01DF91CF910C949700CF93DF93A09170
:1006C0003C02B0913D028091310290913202EC01E6
:1006D000E881F981F0933202E093310221E332E0C4
:1006E0003383228390933D0280933C0221E02D8747
:1006F0001D961C921D9714963C911497FC0103C003
:100700000190F081E02D24813217D0F31196FC93F3
:10071000EE93C281D3811396DC93CE931297B38369
:10072000A283B983A883BD01DF91CF910C94970078
:10073000A0913102B0913202E0913C02F0913D0271
:1007400014969C918481891708F008950C945D0398
:10075000E0913C02F0913D02878581110C945D038C
:100760000C941E03CF93DF93FC01648382E08587A2
:10077000168684E18787678F168E158E148E118AF0
:10078000108A1486138681E392E090878783CAE3F8
:10079000D2E0A881B981B287A187F983E88318964E
:1007A000FC93EE931797CF014496958B848BCF01E2
:1007B0004696918F808F978B868BCF01DF91CF915B
:1007C00008950F931F93CF93DF93FC016551710937
:1007D000680F791F76836583DB0152962C93A58180
:1007E000B68151963C93A581B68150960C93A58114
:1007F000B6811F961C93A581B68188EC90E0539634
:100800009C93A581B68154968C93448382E085871E
:10081000168684E18787478F168E158E148E118A6F
:10082000108A1486138681E392E090878783CAE357
:10083000D2E0A881B981B287A187F983E8831896AD
:10084000FC93EE931797CF014496958B848BCF0141
:100850004696918F808F978B868BCF01DF91CF91BA
:100860001F910F9108950F931F93F8940E94E10335
:100870008C0160E070E00E94BA027894C8011F9178
:100880000F910895CF93F894E0913C02F0913D02CE
:10089000C78D9481C91711F0981708F48483878F46
:1008A0000E94980378948C2FCF910895CF93DF9373
:1008B000D82FC92FF89460E070E00E94BA027894B3
:1008C0008D2F9C2FDF91CF910895F894FC01268500
:1008D0002460268778940895F894BC0186E00E94ED
:1008E000810278940895F89420912F02309130027B
:1008F000821B930B21F0BC0186E00E948102789458
:100900000895F894A0913102B0913202E0913C0236
:10091000F0913D0214969C918481981710F00E94EA
:100920001E03789408950F931F93CF93DF93C09184
:100930003C02D0913D029B8B8A8B8C899D898E01D4
:100940000C5E1F4F8017910761F0FC0120813181FF
:100950003D8B2C8B0E943E028C899D8980179107CC
:10096000A1F78E85837061F4E985FA858F8198857A
:1009700090878783AF81B8851A96FC93EE93199779
:100980008EE0DF91CF911F910F910C946002F8944B
:100990000C949304CF93DF93EC01F8948D858E3003
:1009A00069F0E0913C02F0913D028C899D89918330
:1009B0008083FD8BEC8B87E00E9460028A899B8993
:1009C0007894DF91CF910895F894E8E3F2E0808184
:1009D000918178940895F894FC0127813085F2E0A4
:1009E00021333F0719F07894C901089520E030E0E1
:1009F000FACFFC018283F3838083F18364830895BB
:100A0000FF920F931F93CF93DF93EC01FC806C83D5
:100A1000F3941F14B4F00EEF1FEF8A819B81DC0169
:100A20001296ED91FC911397FB83EA83D183C083E7
:100A30000E943E02FC01138B028BF394F1E0FF1243
:100A4000ECCFDF91CF911F910F91FF900895F89413
:100A50000E9400050E94980378940895CF93DF9335
:100A6000FC0184818150848387FD06C020E030E052
:100A7000C901DF91CF910895A0913C02B0913D0250
:100A80005396FC93EE9352971196FC93EE93C2818A
:100A9000D3811396DC93CE931297B383A283B98349
:100AA000A88383E00E946002E0913C02F0913D0245
:100AB00022893389C901DF91CF910895F8940E946A
:100AC0002E0578940895CF93DF93FC019481892FAC
:100AD0008150848387FD06C020E030E0C901DF91AA
:100AE000CF91089561157105D1F0A0913C02B091AC
:100AF0003D025396FC93EE9352971196FC93EE931E
:100B0000C281D3811396DC93CE931297B383A283D1
:100B1000B983A88383E0DF91CF910C948102948301
:100B20002FEF3FEFDBCFF8940E9463057894089590
:100B3000CF93DF93FC01F89484818F5F8483181630
:100B400024F47894DF91CF91089580819181EC0114
:100B5000A881B981B183A0831396FC93EE93129779
:100B600060E070E00E94BA027894DF91CF9108951E
:100B7000CF93DF93FC0184818F5F848318161CF46C
:100B8000DF91CF91089580819181EC01A881B98195
:100B9000B183A0831396FC93EE9312971B8A1A8A53
:100BA000DF91CF910C943E021F93CF93DF93EC0122
:100BB000162F16161CF017C01150A9F08C818F5FEC
:100BC0008C831816CCF388819981DC01ED91FC911E
:100BD000F983E883D383C2830E943E02FC01138A17
:100BE000128A115059F7DF91CF911F9108950F93F9
:100BF0001F93CF93DF93FC01EB01F89484818F5F07
:100C0000848318169CF58C8181508C8387FD0BC0E2
:100C10000E94980320E030E07894C901DF91CF91E1
:100C20001F910F91089500913C0210913D02D8014F
:100C30001196DC93CE93EA81FB811396FC93EE939D
:100C400012971B830A83118300835396DC93CE9300
:100C5000529783E00E946002F801228933897894D8
:100C6000C901DF91CF911F910F91089580819181EA
:100C7000DC012D913C9131832083D9011396FC93A3
:100C8000EE9312970E943E02FC01138A128ABBCF98
:100C9000FC018283F3838083F1831582148208959B
:100CA0000F931F93CF93DF938C01C0913C02D0919F
:100CB0003D02DC011496ED91FC911597309709F4F3
:100CC0009FC04C818481841748F444838585843097
:100CD00009F460C0853091F18823F1F0F8010190AA
:100CE000F081E02D0E171F0721F094818C81981759
:100CF000B0F7F983E883A281B381BB83AA83D3834E
:100D0000C283CD93DC931B8B0A8B84E0DF91CF9160
:100D10001F910F910C946002228133818081918117
:100D2000D9018D939C9380819181DC0113963C9332
:100D30002E931297CF010E943E02D0CF82899389D1
:100D40006281738120813181DB012D933C9320816D
:100D50003181D90113967C936E931297DC010D902B
:100D6000BC91A02D8A179B0729F014962C911497FB
:100D70002417A8F7B183A08312968D919C911397A5
:100D8000938382831396FC93EE931297DC01ED9389
:100D9000FC93A4CF82899389628173812081318100
:100DA000DB012D933C9320813181D90113967C93F3
:100DB0006E931297DC010D90BC91A02D8A179B07B2
:100DC00069F114962C9114972417A8F7B183A08386
:100DD00012962D913C911397338322831396FC93A3
:100DE000EE931297D901ED93FC93DC011496ED91EB
:100DF000FC9115974C818481841708F466CF6ECFDF
:100E0000FC01D583C4838D8D9E8D978386831E8F31
:100E10000D8FDF91CF911F910F910895DC01D6CFF7
:100E2000F8940E94500678940895F894DC01149682
:100E30002D913C911597232B19F080E0789408951B
:100E4000E0913C02F0913D021596FC93EE931497CD
:100E5000258D368D17963C932E931697968F858FFA
:100E600081E078940895DC0114962D913C911597BA
:100E7000232B11F080E00895E0913C02F0913D02B7
:100E80001596FC93EE931497258D368D17963C930B
:100E90002E931697968F858F81E00895CF93DF93D9
:100EA00080913C0290913D02F894DC015D96CD91D9
:100EB000DC915E97EE81FF815E96FC93EE935D97E9
:100EC000288139812C173D0789F15F963C91309735
:100ED00079F0A081B181AE17BF0729F014962C914B
:100EE000321708F4322F0680F781E02D309789F70A
:100EF000FC013483E881F981A081B181B983A883A1
:100F00001396DC93CE931297FD83EC83858D968D9B
:100F10009F838E83D68FC58F60E070E0CF010E94E3
:100F2000BA027894CE01DF91CF9108951D821C8280
:100F30007894CE01DF91CF910895CF93DF93809184
:100F40003C0290913D02DC015D96CD91DC915E9773
:100F5000EE81FF815E96FC93EE935D972881398147
:100F60002C173D0771F15F963C91309779F0A08185
:100F7000B181AE17BF0729F014962C91321708F4EF
:100F8000322F0680F781E02D309789F7FC013483FA
:100F9000E881F981A081B181B983A8831396DC939C
:100FA000CE931297FD83EC83858D968D9F838E83E0
:100FB000D68FC58FCF010E943E02CE01DF91CF9127
:100FC00008951D821C82CE01DF91CF9108950F9369
:100FD0001F93CF93DF9300913C0210913D02F89450
:100FE000D8015D96ED91FC915E973097F9F438C089
:100FF0008D919C91119791838083EC01FB83EA830F
:10100000B583A4835D968D919C915E97978386832B
:101010005E96FC93EE935D97CD010E943E02D8014F
:101020005D96ED91FC915E97309799F0868197815E
:10103000E8019E8F8D8FA081B181AE17BF07C1F6E9
:1010400015821482D8015D96ED91FC915E973097E0
:1010500069F75F968C915F9714968C930E94980322
:101060007894DF91CF911F910F910895FC018283B5
:10107000F3838083F1830895CF93DF93FC01F89489
:10108000808191818E179F0769F0EC01A881B98159
:10109000B183A0831396FC93EE93129760E070E007
:1010A0000E94BA027894DF91CF910895CF93DF9395
:1010B000FC01808191818E179F0771F0EC01A8815E
:1010C000B981B183A0831396FC93EE9312970E948B
:1010D0003E02FC01138A128ADF91CF9108950F938B
:1010E0001F93CF93DF93EC01888199818C179D0723
:1010F00099F00EEF1FEFDC01ED91FC91F983E8838D
:10110000D383C2830E943E02FC01138B028B888131
:1011100099818C179D0779F7DF91CF911F910F91DE
:101120000895F8940E946F080E9498037894089597
:10113000EF92FF920F931F93CF93DF937C01C091A7
:101140003C02D0913D020E949D078C01EA8AFB8AF5
:10115000D701F70104C094818C81981728F1019080
:10116000F081E02DAE17BF07B1F7B983A8831296BF
:10117000ED91FC911397FB83EA831396DC93CE9356
:101180001297D183C08385E00E946002FA88CB89E0
:10119000C8010E9450068F2D9C2FDF91CF911F9187
:1011A0000F91FF90EF900895DF01DFCFF8940E9438
:1011B000980878940895EF92FF920F931F93CF931E
:1011C000DF9300D0CDB7DEB77C0169837A830E94BC
:1011D0009D078C0140913C0250913D02DA015296EC
:1011E000EC9252975396FC929701F7017A816981AC
:1011F0000190F081E02D2E173F0731F09481DA0144
:1012000014968C919817A0F7DA011196FC93EE933F
:101210008281938113969C938E931297538342837A
:10122000FC015183408385E00E9481027C018F3F55
:10123000FFEF9F0719F0C8010E945006C7010F90E9
:101240000F90DF91CF911F910F91FF90EF90089534
:10125000F8940E94DB0878940895FB01F894DC016F
:101260002D913C911197318320836D937C938091D4
:101270003C0290913D02938382834483158278944B
:101280000895F894FC0101C0F901208131812817EB
:10129000390741F062177307B9F7DB018D919C9113
:1012A0009183808378940895F894E0913C02F091C2
:1012B0003D02248D982F90959223948F78948223C9
:1012C0000895F894E0913C02F0913D02948D892BB1
:1012D000848F78940895FC01F89485811582789420
:1012E0000895FC01848D682B648F8585883071F0AA
:1012F000893009F00895828968238613FBCFCF01D6
:101300000E943E02FC01138A128A08958289862374
:10131000B1F70895F8940E9471090E949803789497
:101320000895FF920F931F93CF93DF938C01F62EB6
:10133000FC01C081D1818C179D0771F08D818F29AF
:101340008D836C818A819B810E9471090990D8816B
:10135000C02D0C171D0791F7DF91CF911F910F91B1
:10136000FF900895F8940E9491090E949803789440
:101370000895FC01858115820895EF92FF920F93E5
:101380001F93CF93DF938C01E62E662301F1F12C9E
:10139000C1E0D0E003C0F394EE20C9F09E010F2C11
:1013A00001C0220F0A94EAF78E2D8223A1F3209523
:1013B000E222EF2DF0E0EE0FFF1FE00FF11F019092
:1013C000F081E02D8F2D0995F394E110E7CFDF91A7
:1013D000CF911F910F91FF90EF9008951F93CF939E
:1013E000DF93182FC0913C02D0913D02F8942C8DD0
:1013F000982F922339F48A8B88E00E9460022C8D0A
:10140000912F9223892F81958923982F909592234C
:101410009C8F7894DF91CF911F9108951F93CF9364
:10142000DF93182FC0913C02D0913D02F8942C8D8F
:10143000822339F41A8B88E00E9460022C8D812F60
:101440008223982F909592239C8F7894DF91CF914F
:101450001F9108951F93CF93DF93182FC0913C02E3
:10146000D0913D02F8949C8D8923811729F01A8B25
:1014700089E00E9460029C8D812F809589238C8F4A
:101480007894812FDF91CF911F9108950F931F932F
:10149000CF93DF93082FC0913C02D0913D02F89486
:1014A0009C8D182F192399F46115710539F47894DE
:1014B000812FDF91CF911F910F9108958A8B88E042
:1014C0000E94810297FDF3CF9C8D102F1923812F4D
:1014D00081951823812F809589238C8F7894812F73
:1014E000DF91CF911F910F9108950F931F93CF9389
:1014F000DF93082FC0913C02D0913D02F8949C8D5F
:10150000182F192399F46115710539F47894812FF6
:10151000DF91CF911F910F9108958A8B88E00E94EF
:10152000810297FDF3CF9C8D102F1923812F809579
:1015300089238C8F7894812FDF91CF911F910F9108
:1015400008951F93CF93DF93182FC0913C02D09141
:101550003D02F8948C8D912F9823911789F0611595
:10156000710539F4789410E0812FDF91CF911F91AC
:1015700008951A8B89E00E94810297FDF3CF8C8D2C
:10158000912F909598239C8F7894812FDF91CF9104
:101590001F910895CF93DF93FC01C0913C02D0913D
:1015A0003D02F8947B8F6A8F46969B8B8A8B99833A
:1015B0008883A08DB18DBB83AA83D18FC08FCD933B
:1015C000DC9385858C3049F08AE00E9460028A892C
:1015D0009B897894DF91CF910895CF010E943E02BC
:1015E000F3CFCF93DF93F894A0913C02B0913D02EA
:1015F0005696ED91FC915797CD014696E817F9075D
:1016000079F0C081D1815796DC93CE9356979B8316
:101610008A838BE085877894CF01DF91CF910895FD
:101620008CE00E946002A0913C02B0913D0256966F
:10163000ED91FC915797CD014696E3CFF8940E9427
:10164000BA0278940895CF93DF93EC017F836E8381
:101650007D836C8379836883242F220F330B260FBD
:10166000371F3B832A83642F0D960E94F90460E0A4
:10167000CE010896DF91CF910C94F904CF93DF93BC
:10168000EC01F894888199819F838E839D838C835C
:101690006A817B81681B790B75956795CE010D96E4
:1016A0000E94000560E0CE0108960E9400050E949D
:1016B00098037894DF91CF910895EF92FF920F9362
:1016C0001F93CF93DF93EC017B01BA010D960E942B
:1016D00063058C01009789F4EC81FD81E192F19220
:1016E000FD83EC838A819B81E817F90770F4CE01B2
:1016F00008960E94B8050E949803C801DF91CF9117
:101700001F910F91FF90EF900895888199819D839B
:101710008C83EDCFF8940E945D0B78940895FC01C2
:1017200081891816D4F48150818BA481B5816D9381
:101730007D93B583A48382819381A817B90740F470
:10174000CF0108960E94B80520E030E0C901089555
:101750008081918195838483F3CF2FEF3FEFF6CF84
:10176000EF92FF920F931F93CF93DF93EC017B01D6
:10177000BA010D960E9463058C01009791F4EE81E9
:10178000FF813297FF83EE8388819981E817F907FB
:1017900080F0F182E082CE0108960E94B8050E9496
:1017A0009803C801DF91CF911F910F91FF90EF90A7
:1017B0000895EA81FB813297FF83EE83EACFF894A4
:1017C0000E94B00B78940895FC0181891816E4F406
:1017D0008150818BA681B7811297B783A6838081C0
:1017E0009181A817B90750F06D937C93CF010896AB
:1017F0000E94B80520E030E0C9010895A281B381BC
:101800001297B783A683F0CF2FEF3FEFF5CFEF927C
:10181000FF920F931F93CF93DF93EC017B01BA01EB
:1018200008960E9463058C010097A1F4EE81FF8168
:1018300081919191D7018D939C93FF83EE838A814F
:101840009B81E817F90770F4CE010D960E94B80548
:101850000E949803C801DF91CF911F910F91FF90D3
:10186000EF900895888199819F838E83EDCFF894BE
:101870000E94070C78940895CF93DF93FC01848530
:101880001816FCF481508487A681B7818D919D91B3
:10189000EB0199838883B783A68382819381A817FC
:1018A000B90750F4CF010D960E94B80520E030E052
:1018B000C901DF91CF9108958081918197838683BB
:1018C000F1CF2FEF3FEFF4CFCF93DF936115710589
:1018D000B1F0E0913C02F0913D02938B828B9183B9
:1018E0008083EC01AA81BB81B383A283FB83EA835B
:1018F000ED93FC938DE0DF91CF910C9481028FEFFB
:101900009FEFDF91CF9108950F931F93FC01828386
:10191000F3838083F18315821482738762877587CE
:10192000648777836683460F571F518740873787C1
:101930002687118B008B1F910F9108950F931F9392
:10194000CF93DF93EC018E819F819B878A879D8750
:101950008C871D821C82888199818C179D0799F044
:101960000EEF1FEFDC01ED91FC91F983E883D38347
:10197000C2830E943E02FC01138B028B88819981F5
:101980008C179D0779F7DF91CF911F910F910895E3
:10199000CF93DF93FC01A285B38584859585A81735
:1019A000B907A9F1848195810196958384836D930C
:1019B000B387A28780859185A817B907C8F480816D
:1019C00091818E179F07E9F0EC01A881B981B1835D
:1019D000A0831396FC93EE9312970E943E02FC01A3
:1019E000138A128A20E030E0C901DF91CF91089577
:1019F0008681978193878287808191818E179F0747
:101A000019F720E030E0C901DF91CF91089584817A
:101A10009581892B19F480E090E0C6CF2CEF3FEF41
:101A2000E3CF0F931F93CF93DF93EC018B01F894D7
:101A3000EE85FF85309709F009958C819D8100978F
:101A400071F4B801CE010E94640C9C0197FFF5CFA0
:101A50007894C901DF91CF911F910F91089501975B
:101A60009D838C83EC85FD852191FD87EC8788859E
:101A70009985E817F90720F08E819F819D878C87D3
:101A8000789430E0C901DF91CF911F910F910895B3
:101A90008F929F92AF92BF92CF92DF92EF92FF927E
:101AA0000F931F93CF93DF93EC015B014A018901F0
:101AB000CE84DF84F894E12CF12CC114D10419F008
:101AC000CE01F60109958C819D810097A9F4B8019A
:101AD000CE010E94640C892BB1F37894C701DF9189
:101AE000CF911F910F91FF90EF90DF90CF90BF901B
:101AF000AF909F908F90089501979D838C83EC8584
:101B0000FD858191D5018D935D01FD87EC878885E9
:101B10009985E817F90748F47894BFEFEB1AFB0AA8
:101B20008E149F04D9F2F894C8CF8E819F819D872F
:101B30008C87F2CF0F931F93FC018283F383808302
:101B4000F1835583448373876287758764877783BE
:101B50006683640F751F7187608737872687118BAF
:101B6000008B1F910F9108950F931F93CF93DF93D5
:101B7000EC012E813F813B872A873D872C87888512
:101B80009985821B930B9D838C83888199818C1707
:101B90009D0799F00EEF1FEFDC01ED91FC91F983A9
:101BA000E883D383C2830E943E02FC01138B028B25
:101BB000888199818C179D0779F7DF91CF911F91CB
:101BC0000F910895FF920F931F93CF93DF93EC0132
:101BD000F62E8A01F8948C819D81009779F4B801E2
:101BE000CE010E94640C9C0197FFF5CF7894C90147
:101BF000DF91CF911F910F91FF90089501979D83E1
:101C00008C83EA85FB85F192FB87EA878885998535
:101C1000E817F90720F08E819F819B878A87EE85E0
:101C2000FF85309711F0CE010995789420E030E0DF
:101C3000C901DF91CF911F910F91FF9008951F93DC
:101C4000CF93DF93FC01A485B585828593858A17A0
:101C50009B0761F1848195810196958384831D9111
:101C6000B587A48780859185A817B907D0F48081AE
:101C700091818E179F0771F0EC01A881B981B18322
:101C8000A0831396FC93EE9312970E943E02FC01F0
:101C9000138A128A212F30E0C901DF91CF911F9161
:101CA00008958681978195878487E1CF8481958186
:101CB000892B19F480E090E0CFCF2DEF3FEFECCFF0
:101CC0008F929F92AF92BF92CF92DF92EF92FF924C
:101CD0000F931F93CF93DF93EC017B014A015901CE
:101CE000CE84DF84F89400E010E08C819D81009721
:101CF00031F101979D838C83F70181917F01AA8542
:101D0000BB858D93BB87AA8788859985A817B90756
:101D100020F08E819F819B878A87C114D10419F09E
:101D2000CE01F601099578940F5F1F4FF1E08F1AED
:101D3000910861F0F8948C819D810097D1F6B501EE
:101D4000CE010E94640C892B81F27894C801DF9146
:101D5000CF911F910F91FF90EF90DF90CF90BF90A8
:101D6000AF909F908F9008950E9457118DE791E05A
:101D70000E948A110E94C40E0E94A20F0E94FC0FB2
:101D80000E9491100C9484180C94B313FC0181E010
:101D90008083128211821482138216821582108629
:101DA000178212861186CF010B960C944806CF93AA
:101DB000DF93EC01F8947A8369830E94BF1382E079
:101DC00088837894DF91CF910895CF93DF93EC01CE
:101DD000F8940E94D81381E088837894DF91CF91A2
:101DE0000895F894FC0154834383368325837087D8
:101DF000678323E020830E94E31378940895FC0115
:101E000054834383368325837087678323E020834D
:101E10000C94E313CF93DF93EC01F8948881823024
:101E200089F0CE010E940E1418861F8282E08883FA
:101E300089859A85009731F01A8619866EEF7FEFB3
:101E40000E94BA027894DF91CF910895CF93DF93E7
:101E5000EC0188818230B1F0CE010E940E14188608
:101E60001F8282E0888389859A85009759F01A86B7
:101E700019862EEF3FEFFC01338B228BDF91CF9140
:101E80000C943E02DF91CF910895CF93DF93EC0144
:101E9000F8945C834B833E832D8378876F8383E044
:101EA0008883CE010E94E31380913C0290913D0211
:101EB0009A87898782E00E946002E0913C02F0915B
:101EC0003D02828993897894DF91CF9108950B9692
:101ED0000C9410070C944E07FC01A081B1812C9149
:101EE00030E0038002C0359527950A94E2F782819D
:101EF00082230895FC01A081B18112963C91129732
:101F0000828123816823022E01C0660F0A94EAF7BA
:101F1000022E01C0880F0A94EAF780958323862B4E
:101F200012968C930895FC01462F8281682F70E0F1
:101F3000038002C0660F771F0A94E2F780819181C7
:101F40000C949C110C94401521E0FC01208312821A
:101F500011820895CF93DF93EC01F8947A8369831B
:101F6000FB01848195819C838B83CE010E94541553
:101F700082E088837894DF91CF910895CF93DF93A7
:101F8000EC01F8940E94791581E088837894DF91C0
:101F9000CF910895F894FC01748363830E948615A1
:101FA00078940895F8940E94871578940895F89489
:101FB0000E94A9167894089505960C94480D2FEF69
:101FC0003FEF05960C94480D47960C94600E2FEF4A
:101FD0003FEF47960C94600E05960C94110D6FEF31
:101FE0007FEF05960C94110D47960C94E20D4FEF80
:101FF0005FEF47960C94E20D0C943B12EF92FF9228
:102000000F931F93CF93DF93EC019B017A01FC01A7
:102010008AE691E081939193FB83EA8381E08C834C
:10202000BE01675D7F4F8E0140E150E0CE01059615
:102030000E94840CBE01675C7F4F970140E150E035
:10204000CE0147960E949A0DDF91CF911F910F917B
:10205000FF90EF900895CF93DF93EC01F8940E94E6
:10206000431282E08C837894DF91CF910895CF93CF
:10207000DF93EC01F8940E94791281E08C83CE0109
:1020800047960E94B40DCE0105960E949E0C0E94B8
:1020900098037894DF91CF9108951F93CF93DF93A6
:1020A000EC01162F89859A85892B59F0612FCE0175
:1020B00005960E94C80C97FD10C0DF91CF911F912B
:1020C000089564E0CE0102960E949109612FCE012D
:1020D00005960E94C80C97FFF0CF60E8CE010296EB
:1020E000DF91CF911F910C9491090F931F93CF9380
:1020F000DF938C0147960E941F0EEC0197FD06C0EE
:10210000CE01DF91CF911F910F91089568E0C80132
:1021100002960E949109CE01DF91CF911F910F91FC
:1021200008950C94801721E0FC0120831282118213
:102130001482138205960C944806CF93DF93EC012A
:10214000F8948881813009F088817A836983CE018F
:102150000E94841782E088837894DF91CF9108955C
:10216000CF93DF93EC01F8948881813009F0888166
:10217000CE010E94B717CE010E94A51781E0888387
:102180007894DF91CF910895F894FC0120810E940A
:10219000B01778940895F894FC0120810E94B71735
:1021A00078940895F894FC01208123E020830E9414
:1021B000BE1778940895F894DC01EC91E3E0EC9379
:1021C0000E94C71778940895F894FC01208123E0B9
:1021D00020830E94D01778940895F894FC01208100
:1021E00023E020830E94D91778940895CF93DF933A
:1021F000EC01F894888183E08883CE010E94BE17A9
:1022000080913C0290913D029C838B8382E00E94EE
:1022100060027894DF91CF910895CF93DF93EC0122
:10222000F894888183E08883CE010E94C71780914B
:102230003C0290913D029C838B8382E00E9460026D
:102240007894DF91CF910895CF93DF93EC01F894C8
:10225000888183E08883CE010E94D01780913C0260
:1022600090913D029C838B8382E00E94600278946F
:10227000DF91CF910895CF93DF93EC01F89488819B
:1022800083E08883CE010E94D91780913C0290910F
:102290003D029C838B8382E00E9460027894DF91F0
:1022A000CF91089505960C9410070C944E07CF9388
:1022B000109269001DBAC2E0C4BD15BC25E045E41A
:1022C00051E06AE471E081E792E00E94F61795B56B
:1022D000987F95BD95B5E82FF0E0DF01AB5BBE4F71
:1022E0008C918770892B85BDEE0FFF1FE65BFE4F3B
:1022F0002081318140E050E060E07DE780E090E0C7
:102300000E946C1E215027BD16BCC5BBC0936E0039
:10231000CF910895FC01808182B9818181B9828148
:1023200085B9838184B9848188B9858187B986819B
:102330008BB987818AB90895FC01423091F078F019
:10234000453079F04630A9F04330B1F49181862FC1
:102350008095892381838281862B82830895411110
:102360000CC081816095862381838281862382834C
:1023700008958181862B81830895413039F3089532
:10238000E1ECF0E080818062808308951F920F92DB
:102390000FB60F9211242F933F934F935F936F9338
:1023A0007F938F939F93AF93BF93EF93FF9380910E
:1023B000C000982F9C71E1F46091C6008EE392E01A
:1023C0000E944D100E94080381110E94A803FF91F2
:1023D000EF91BF91AF919F918F917F916F915F919D
:1023E0004F913F912F910F900FBE0F901F90189516
:1023F00083FD0AC060E082FD606284FD606480E469
:1024000092E00E949109D8CF60E8F5CF1F920F9219
:102410000FB60F9211242F933F934F935F936F93B7
:102420007F938F939F93AF93BF93EF93FF938EE32D
:1024300092E00E94751097FD18C08093C6000E941C
:10244000080381110E94A803FF91EF91BF91AF9102
:102450009F918F917F916F915F914F913F912F91BC
:102460000F900FBE0F901F9018958091C1008F7D27
:102470008093C100E4CF40EC51E160E070E08EE376
:1024800092E00C94FE0F61157105E1F08E539240BD
:1024900009F00895FB0180818093C40081818093BD
:1024A000C5001092C00088E98093C100828181300C
:1024B00079F058F08230C9F0843071F086E0809372
:1024C000C20008956AE771E0E1CF1092C20008955A
:1024D00082E08093C20008958091C100846080935F
:1024E000C10086E08093C200089584E08093C2001A
:1024F00008958E53924009F008951092C0001092F2
:10250000C1001092C20008951F920F920FB60F9251
:102510001124AF92BF92CF92DF92EF92FF920F936E
:102520001F932F933F934F935F936F937F938F935B
:102530009F93AF93BF93CF93DF93EF93FF9320913C
:10254000780030917900E0908A02F0908B02E0915F
:102550009A02F0919B02EE0FFF1FEE0DFF1D932FCD
:1025600080E0822B9183808320919A0230919B029C
:102570002F5F3F4F30939B0220939A02E0918C0291
:10258000F0918D02C0918E02D0918F0269817A8183
:102590006E9F60016F9FD00C7E9FD00C1124C901EB
:1025A0000E94581E5C018881882321F0A114B10487
:1025B00009F43FC0C216D30609F454C08D818823A4
:1025C00059F090E080FF04C0AA2009F492C0AA94B8
:1025D00086959F5F8111F6CF80917C00077011274F
:1025E000887F802B80937C0080917A008064809328
:1025F0007A000E94080381110E94A803FF91EF91C5
:10260000DF91CF91BF91AF919F918F917F916F910A
:102610005F914F913F912F911F910F91FF90EF90FC
:10262000DF90CF90BF90AF900F900FBE0F901F9094
:102630001895AF01569547954617570709F0BACF39
:10264000EB81FC81309709F4B5CFB70187E892E0C0
:10265000099520919A0230919B02C0918E02D091EF
:102660008F02A8CF8881811147C080917A008F7B2B
:1026700080937A00EB81FC81309709F460C084E09C
:102680008093870240918C0250918D024230510517
:1026900008F461C05695479589819A81880F991FE2
:1026A000849F9001859F300D949F300D112460917F
:1026B0008A0270918B02620F731F87E892E009957E
:1026C000809187028430D9F110928F0210928E028D
:1026D0008091900290919102009709F48ACF109214
:1026E000910210929002FC01138A128A0E943E020B
:1026F00080CF092F10E070CFEB81FC81309709F477
:1027000078CF40918C0250918D0242305105D8F023
:102710005695479589819A81880F991F849F9001CA
:10272000859F300D949F300D112460918A02709125
:102730008B02620F731F87E892E009955ACF82E0FF
:1027400080938702C1CF60918A0270918B0287E8E3
:1027500092E009954ECF60918A0270918B0287E8D2
:1027600092E00995ADCF87E892E00E94C60E8FE017
:1027700080937A0010927B0010927C000895DC0117
:102780002C91213079F0DC011196ED91FC9112979A
:10279000309739F080818295880F880F807C8093F4
:1027A0007C00089520917A00206820937A00EBCF76
:1027B000FC018081823009F0089580917A008F7742
:1027C00080937A000895DC0154961C921E925397D0
:1027D0001796ED91FC9118978581882351F080FD23
:1027E0001AC090E002C080FD13C086959F5F8111E2
:1027F000FACF40917C00C90187709927487F482B08
:1028000040937C0080917A00806480937A000895E0
:10281000292F30E0EECF20E030E0EBCFEAE7F0E028
:1028200080818F7B80830895815A924009F00895BA
:1028300080E008951F920F920FB60F9211242F93EC
:102840003F934F935F936F937F938F939F93AF9338
:10285000BF93EF93FF93E091A202F091A302068051
:10286000F781E02D81EA92E009950E940803811129
:102870000E94A803FF91EF91BF91AF919F918F911B
:102880007F916F915F914F913F912F910F900FBE6C
:102890000F901F9018951F920F920FB60F92112450
:1028A0002F933F934F935F936F937F938F939F9358
:1028B000AF93BF93EF93FF93E091A202F091A30235
:1028C0000484F585E02D81EA92E009950E940803D1
:1028D00081110E94A803FF91EF91BF91AF919F9149
:1028E0008F917F916F915F914F913F912F910F90B9
:1028F0000FBE0F901F9018951F920F920FB60F9258
:1029000011242F933F934F935F936F937F938F93F4
:102910009F93AF93BF93EF93FF93E091A202F09147
:10292000A3020288F389E02D81EA92E009950E94D2
:10293000080381110E94A803FF91EF91BF91AF910D
:102940009F918F917F916F915F914F913F912F91C7
:102950000F900FBE0F901F9018951F920F920FB6F9
:102960000F9211242F933F934F935F936F937F9315
:102970008F939F93AF93BF93EF93FF93E0919D024B
:10298000F0919E020680F781E02D8CE992E0099596
:102990000E94080381110E94A803FF91EF91BF914B
:1029A000AF919F918F917F916F915F914F913F91E7
:1029B0002F910F900FBE0F901F9018951F920F929E
:1029C0000FB60F9211242F933F934F935F936F9302
:1029D0007F938F939F93AF93BF93EF93FF93E09178
:1029E0009D02F0919E020484F585E02D8CE992E031
:1029F00009950E94080381110E94A803FF91EF919D
:102A0000BF91AF919F918F917F916F915F914F9106
:102A10003F912F910F900FBE0F901F9018951F920E
:102A20000F920FB60F9211242F933F934F935F9302
:102A30006F937F938F939F93AF93BF93EF93FF9386
:102A4000E0919D02F0919E020288F389E02D8CE9CD
:102A500092E009950E94080381110E94A803FF914A
:102A6000EF91BF91AF919F918F917F916F915F9106
:102A70004F913F912F910F900FBE0F901F9018957F
:102A800081EA92E00E94A40F81E08093800088E0B8
:102A9000809381008CE992E00E94A40F83E08093F0
:102AA000B0001092B1000895FC012081213009F09E
:102AB00008958C59924069F0E0910201F091030170
:102AC000808185608083E0911401F091150120835D
:102AD00008958091B10081608093B100E0919D02E2
:102AE000F0919E0286819781892B11F320937000CB
:102AF0000895E0910201F09103018081887F808335
:102B0000E0911601F0911701108208950895AF9297
:102B1000BF92CF92DF92EF92FF920F931F93CF93CA
:102B2000DF93EC01B62ECA01A0E0B0E06627782F53
:102B3000892F9A2F2B813C8140E050E00E946C1E2F
:102B400089019A010F3F11052105310529F020F077
:102B50000FEF10E020E030E042E0CC39D40709F478
:102B60008AC04B2D50E0E981FA81DA01AA0FBB1F20
:102B7000CD01840F951F880F991FE80FF91FC0849E
:102B8000D184E284F384E0910001F0910101A080FE
:102B90008B2D8195880F895F61E070E0B62E01C0B2
:102BA000BB0C8A95EAF783E090E0841B950B880FB5
:102BB000082E01C0660F0A94EAF76B29962F9095AC
:102BC0009A21908381E0C816D104E104F10409F44C
:102BD0004EC082E0C816D104E104F10409F443C0F8
:102BE000CA010196FC01EE0FFF1FEE0FFF1FE05020
:102BF000FF4F0190F081E02D1082FA01EE0FFF1FD0
:102C0000EE0FFF1FEA5FFE4F0190F081E02D008381
:102C1000E0911401F0911501908121E030E001C0B4
:102C2000220F8A95EAF7922B9083E981FA814A0F65
:102C30005B1F440F551FE40FF51F84859585892B75
:102C400039F0E0911601F09117018081822B808389
:102C5000DF91CF911F910F91FF90EF90DF90CF9078
:102C6000BF90AF9008958081862B8083B9CF8081FB
:102C70008B298083B5CF8B2D90E060919D02709160
:102C80009E02FC01EE0FFF1FDF01A80FB91FAA0F64
:102C9000BB1FA60FB71F1896CD90DD90ED90FC904E
:102CA0001B97D091B0004B2D4195440F495FA1E097
:102CB000B0E0CA2F01C0CC0F4A95EAF743E050E0DC
:102CC000481B590B440F042E01C0AA0F0A94EAF7BF
:102CD000AC2B5A2F50955D235093B00041E0C416A1
:102CE000D104E104F10479F142E0C416D104E10415
:102CF000F10429F44091B0004A2B4093B000C091F8
:102D00007000DC01119641E050E00A2E01C0440F32
:102D10000A94EAF7C42BC0937000E80FF91FEE0F76
:102D2000FF1FE60FF71F84859585892B09F490CF47
:102D3000B11003C00093B3008BCF81E0B81288CFED
:102D40000093B40085CF4091B0004C2B4093B0006D
:102D5000D6CFCF93DF93462F50E0E0910001F09162
:102D60000101A08123E030E0241B350B220F81E01C
:102D700090E0EC0102C0CC0FDD1F2A95E2F79E0126
:102D80006195660F695FEC0102C0CC0FDD1F6A958B
:102D9000E2F72C2B20952A232083E0911601F09155
:102DA000170120814F5F5F4F042E01C0880F0A94E6
:102DB000EAF7809582238083DF91CF910895CF93A6
:102DC000DF931F92CDB7DEB7FC0185859685181677
:102DD000190684F4A785B089109781F08C918EBD77
:102DE000878590890196908B878785859685019741
:102DF000968785870F90DF91CF9108958EB589834F
:102E000089818EBDF2CF1F920F920FB60F921124BF
:102E10002F933F934F935F936F937F938F939F93E2
:102E2000AF93BF93EF93FF930CB404FE1DC0E091EA
:102E3000B702F091B802309759F08EB58083809137
:102E4000B7029091B80201969093B8028093B702AE
:102E50008091B3029091B402181619063CF586EAE7
:102E600092E00E94DF160CC0E091A702F091A80248
:102E70000380F481E02D3097E9F18CB580618CBD41
:102E80000E94080381110E94A803FF91EF91BF9156
:102E9000AF919F918F917F916F915F914F913F91F2
:102EA0002F910F900FBE0F901F901895E091A702E1
:102EB000F091A8020190F081E02D3097B9F084E004
:102EC0008093A60286EA92E009958091A60284305A
:102ED00069F08091A9029091AA02009789F210925C
:102EE000AA021092A9020E943E02CACF82E08093F9
:102EF000A602EFCF6EB586EA92E009958EBDBDCFF2
:102F000086EA92E00C949310FC012081213021F09C
:102F1000865A924091F00895865A9240E1F7E091E6
:102F2000A702F091A8028281837090E0880F991F18
:102F3000880F991F83699F6F8CBD85B1806B85B9A0
:102F40002E988CB580648CBD0895865A924009F005
:102F5000089585B18F7085B98CB58F7B8CBD089530
:102F6000865A924009F008952C98249A0895865A1A
:102F7000924009F0089524982C9A0895FC01108A33
:102F80001786128A118A768765870C94DF16FC01F2
:102F9000508B4787328B218B768765870C94DF16A1
:102FA000FC01508B4787128A118A768765870C94BB
:102FB000DF16FC01108A1786528B418B7687658756
:102FC0000C94DF16FC0180818230E9F7E65AF2406A
:102FD00009F008958CB58F778CBD6EBD0DB407FEDA
:102FE000FDCF8EB59CB590689CBD08954F925F92C1
:102FF0006F927F928F929F92AF92BF92CF92DF9209
:10300000EF92FF920F931F93CF93DF935C01EB013D
:10301000822E222309F45FC0088119816C01E12C02
:10302000F12C980140E050E060E07DE281E391E026
:103030000E946C1ECA01B901A70196010E946C1E74
:1030400029013A0121E0421652066104710408F098
:1030500058C09801D5010E943C1E9B01AC01C301E0
:10306000B2010E94481E61157D428143914009F4DE
:1030700046C08E010E5F1F4F912C2AC0F801C191EE
:10308000D1918F019E0140E050E060E07DE281E35C
:1030900091E00E946C1ECA01B901A70196010E942D
:1030A0006C1E29013A012130F1E03F07410551052D
:1030B00098F49E01D5010E943C1E9B01AC01C30106
:1030C000B2010E94481E61157D428143914029F062
:1030D00093949810D3CF02C09A94892DDF91CF9109
:1030E0001F910F91FF90EF90DF90CF90BF90AF9026
:1030F0009F908F907F906F905F904F900895912C4C
:10310000ECCF99249A94E9CF0895CF93DF93EC0103
:1031100060E00A960E9491096C857D859E0145E8D4
:1031200058E1CE01DF91CF910C946901F894FC0134
:1031300026813781232B11F0789408956485758555
:103140009C0145E858E10E94690178940895F8943B
:10315000FC0126813781232B11F00E94A501789470
:1031600008953F924F925F926F927F928F929F92BB
:10317000AF92BF92CF92DF92EF92FF920F931F9385
:10318000CF93DF9300D000D0CDB7DEB79C838B8385
:103190002A013B010B969A8389834901A12CB12C0A
:1031A0006A017B018C01B201C301A50194010E9457
:1031B0008E1ECB01C0968A33910514F0CB01C796C1
:1031C000382ED8018E938D01B201C301A50194015F
:1031D0000E948E1E29013A01C701B601A501940182
:1031E0000E948E1E69017A012115310541055105A4
:1031F000D1F6F801319689819A81801B910B2B8140
:103200003C81820F931F01C03190AB81BC813D9204
:10321000BC83AB83A817B907B9F78B819C810F904A
:103220000F900F900F90DF91CF911F910F91FF9012
:10323000EF90DF90CF90BF90AF909F908F907F9056
:103240006F905F904F903F9008952F923F924F92D2
:103250005F926F927F928F929F92AF92BF92CF9226
:10326000DF92EF92FF920F931F93CF93DF93CDB72F
:10327000DEB760970FB6F894DEBF0FBECDBFCDA00E
:10328000DEA0EFA0F8A45E0129E2A20EB11CCE01DF
:1032900002969E878D8722242394312C2C0E3D1E6E
:1032A00082199309988B8F87D7016D918D016623C1
:1032B00081F0653239F1D601ED91FC910480F58100
:1032C000E02DC60109957801D7016D918D0161113D
:1032D000F0CF60960FB6F894DEBF0FBECDBFDF9182
:1032E000CF911F910F91FF90EF90DF90CF90BF9003
:1032F000AF909F908F907F906F905F904F903F9096
:103300002F900895F70121812D3209F4F2C0412C4C
:103310002E3209F4E6C0B0E25B2EF8013196780156
:1033200000E010E013C0D5013C9182E0A80EB11C72
:10333000C801880F991F000F111F000F111F000FE8
:10334000111F080F191F030F111D2191BFEFEB1A59
:10335000FB0A322F30533A3058F32A3221F3F50169
:103360002E3209F49EC080E090E02C3609F481C032
:103370002C3409F47EC0322F315441E03A3108F048
:1033800040E0233609F482C0243608F04DC02F34C3
:1033900009F4E1C008F004C1243409F44DC02983C4
:1033A0006F84788841010619170917FD5FC0411025
:1033B00015C011950195110989F0D4018C918D32B8
:1033C00009F411C1D601ED91FC910480F581E02D45
:1033D000652DC60109950F5F1F4FA1F7161417043D
:1033E000FCF4680C791CF40161914F01D601ED9158
:1033F000FC910480F581E02DC6010995861497049F
:1034000091F70115110509F44FCFD601ED91FC910B
:103410000480F581E02D652DC60109950150110943
:103420000115110591F740CF233709F46BC008F05F
:10343000AFC0243609F08CC04111BDC022E0A20EFD
:10344000B11C40815181662757FD6095762F77FD2D
:10345000BBC0C1012AE030E00E94B1183C016218F3
:10346000730841010619170917FFA1CF00E010E00A
:103470009ECFD7013C91332309F442C0BFEFEB1A32
:10348000FB0A232F41E0233609F07ECF22E0A20E73
:10349000B11C808189836F84788830E2532E41018A
:1034A00082CFF70180E090E012C0D5014C9122E07C
:1034B000A20EB11C9C01220F331F880F991F880F89
:1034C000991F880F991F820F931F840F911D2191BF
:1034D0007F01422F40534A3068F32A3231F3F5011D
:1034E00044CFD80111962C910F5F1F4F80E3582EC7
:1034F00014CF87010E5F1F4F22814424439408CFCD
:1035000041E03FCF32E0A30EB11C80809180811456
:10351000910409F47BC0009709F462C0D4012C9196
:10352000222309F478C094012F5F3F4F820F931F2D
:1035300003C02817390731F0F9012F5F3F4F408151
:103540004111F7CF3F016818790890E2592E2BCF2F
:103550002F3609F024CF28E030E0442379F084E0CE
:10356000A80EB11C4081518162817381C1010E940A
:10357000B1183C0162187308410115CF92E0A90E01
:10358000B11C40815181662757FD6095762FEECFA3
:10359000253741F0283709F002CF20E130E0DDCFB8
:1035A000253519F42AE030E0D8CF283509F0F7CED8
:1035B00020E130E0D2CFB4E0AB0EB11C40815181AC
:1035C0006281738177FF45CF8DE289837095609525
:1035D000509541955F4F6F4F7F4F8D859E853ACFB8
:1035E0008FEF9FE79BCFB0E35B12ECCEEFEF8E1A2D
:1035F0009E0AD601ED91FC910480F581E02D6DE2EB
:10360000C6010995B1E06B1A7108DCCE2AE8822E5A
:1036100021E0922E80CF612C712C80E2582EC3CEF7
:103620000E94B40E0E94D80060E070E08EE392E049
:103630000E942B10F12C01E911E0CEE3D2E0F394CB
:103640001F92FF921F930F93DF93CF930E94251930
:103650008CE090E00E946C040F900F900F900F9000
:103660000F900F90ECCFACE0B0E0E9E3FBE10C94FD
:10367000AE1E6C013B018A01FC0117821682838118
:1036800081FD03C01FC1850104C04E010894811C47
:10369000911CF601E380F301E3FC8591E3FE819147
:1036A0003F01882309F40AC1853239F4E3FC2591EE
:1036B000E3FE21913F01253219F590E0B6010E9409
:1036C0003F1F5801E0CF222309F4F8C08CE790E0B7
:1036D000622F70E02C870E94F41E2C85009749F41D
:1036E000233219F4F0E1FF2A04C02C3679F420E8E3
:1036F000F22AF301E3FC2591E3FE21913F0101C091
:10370000FF24F7FEE0CF222309F4D8C08CE890E034
:10371000622F70E02C870E94F41E2C85009741F0E8
:1037200064E0A62EB12CA00EB11E8FE390E00FC076
:10373000233629F0233789F0233529F50CC052E0D0
:10374000A52EB12CA00EB11EF80180819181B60189
:103750000E943F1F98CFF1E0FF2A42E0A42EB12C37
:10376000A00EB11EF8010081118104C090E0B601E5
:103770000E943F1FF801F0FC8591F0FE81918F01BE
:103780008823A1F780CF243611F0293661F5F7FEA2
:103790000BC034E0A32EB12CA00EB11EF801808125
:1037A0009181A281B3810CC022E0A22EB12CA00E87
:1037B000B11EF80180819181AA2797FDA095BA2FAB
:1037C000FFEEFF22B7FF09C0B095A09590958195B7
:1037D0009F4FAF4FBF4F20E4F22ABC01CD01A4019F
:1037E0002AE030E03BC0203799F0213730F428350B
:1037F000B1F02F3609F062C017C0253721F0283705
:1038000009F05CC007C08FEEF8222AE030E00EC05D
:10381000E0E1FE2AF4E2FF2A20E130E007C024E0E4
:10382000F22A20E132E002C028E030E0F7FE0BC0CF
:1038300094E0A92EB12CA00EB11EF8016081718117
:10384000828193810AC082E0A82EB12CA00EB11E05
:10385000F8016081718180E090E0A4010E94881FDE
:10386000082F0819EF2CFF24E6FE05C08DE290E03A
:10387000B6010E943F1FE4FE15C0FE01E00FF11DDE
:103880008081803379F080E390E0B6010E943F1F91
:10389000E2FE08C0C70180729070885A9F4FB6013F
:1038A0000E943F1F0150F401E00FF11D808190E064
:1038B000B6010E943F1F0023A9F7E5CEF6018681DD
:1038C000978102C08FEF9FEF2C96EEE00C94CA1EFA
:1038D00020FD09C0FC0123FD05C022FF02C0738347
:1038E0006283518340830895CF92DF92EF92FF92DB
:1038F0006B017C0144FD10C046FD10C0D601F701EC
:10390000AA0FBB1FEE1FFF1F1094D1F7CA0EDB1EBC
:10391000EE1EFF1E81E003C083E001C084E0CC0CFA
:10392000DD1CEE1CFF1C8150D1F7C20ED11CE11C26
:10393000F11CB601C701FF90EF90DF90CF90089582
:103940000F931F93CF93DF938C01C8010E94FF1E3A
:10395000EC0197FD08C00E94EC1E0097B1F7CE0164
:10396000B8010E946B1FCE01DF91CF911F910F9183
:103970000895A0E0B0E0EFEBFCE10C94B21E8C01E6
:10398000D62F5A01C22F0E94FF1E8B3219F08D32A2
:1039900049F4C068D15009F461C0C8010E94FF1EFB
:1039A00097FD5CC0CD7F2C2F2073D1F48033C1F400
:1039B000D15009F43EC0C8010E94FF1E97FD39C0D6
:1039C000C260883711F0883549F4C064D15089F15C
:1039D000C8010E94FF1E97FF03C02BC0C6FFC06135
:1039E000CC24DD247601282F2053283080F0C4FD1C
:1039F00009C02A3060F0C6FF05C02F7D322F31513B
:103A0000363020F0B8010E946B1F10C02750C7014C
:103A1000B6014C2F0E94741C6B017C01C260D15016
:103A200059F0C8010E94FF1E97FFDDCFC1FD04C001
:103A300015C0CC24DD247601C7FF08C0F094E094C3
:103A4000D094C094C11CD11CE11CF11CC501B7016C
:103A5000A6012C2F0E94681C81E001C080E0CDB738
:103A6000DEB7EAE00C94CE1EA1E0B0E0EAE3FDE1AF
:103A70000C94AD1E7C014B013A01FC0117821682A9
:103A8000BB24E3C0812F90E00E94EC1E009721F040
:103A9000C7010E94A01CD9C0153241F4F40103FDF6
:103AA000359103FF31914F01353261F4C7010E9416
:103AB000FF1E97FDD6C0181709F4C7C0B7010E94B2
:103AC0006B1FD1C03A3241F403FD359103FF3191B0
:103AD0004F01AA24A39401C0AA24552410C0F2E0E7
:103AE000AF2A652D70E080E090E040E20E94741CF7
:103AF000562EF40103FD359103FF31914F01232F21
:103B000020532A3060F3A1FE03C0552019F4ABC046
:103B100055245A94383619F03C3699F40AC0F40109
:103B200003FD359103FF31914F01383651F4F8E030
:103B3000AF2A44E0A42AF40103FD359103FF31913B
:103B40004F01332309F48FC083E990E0632F70E0C5
:103B500039830E94F41E3981009709F484C08A2DAC
:103B6000A0FC08C0F3010081118142E050E0640E26
:103B7000751E02C000E010E03E3651F4F7014681A8
:103B8000578160E070E0C8012A2D0E94681C5DC06A
:103B9000333691F481FD02C055245394C7010E942D
:103BA000FF1E97FD5EC00115110519F0F801819304
:103BB0008F015A9499F747C0C70139830E94A01C0E
:103BC000398197FD4EC03F3661F1303728F43436E5
:103BD00029F1393649F52AC0333719F0353721F53F
:103BE0001DC0C7010E94FF1E6C0197FD11C00E94FD
:103BF000EC1E009729F0C601B7010E946B1F08C098
:103C00000115110519F0F801C1928F015A9449F775
:103C100001151105C1F0F801108215C0F0E2AF2ABC
:103C200005C040E1A42A02C050E4A52AC701652DC1
:103C3000A8012A2D0E94B91C882329F4F701838149
:103C4000807379F410C0A0FEB394F7010381F401EE
:103C500003FD159103FF11914F01112309F012CFBC
:103C600002C0BB2019F08B2D90E002C08FEF9FEFB8
:103C70002196EFE00C94C91EA29FB001B39FC00132
:103C8000A39F01D0B29F700D811D1124911D089535
:103C9000DB018F939F930E94E11EBF91AF91A29F82
:103CA000800D911DA39F900DB29F900D112408953A
:103CB000AA1BBB1B51E107C0AA1FBB1FA617B70752
:103CC00010F0A61BB70B881F991F5A95A9F780956E
:103CD0009095BC01CD010895A1E21A2EAA1BBB1B31
:103CE000FD010DC0AA1FBB1FEE1FFF1FA217B307C8
:103CF000E407F50720F0A21BB30BE40BF50B661FDE
:103D0000771F881F991F1A9469F7609570958095A1
:103D100090959B01AC01BD01CF010895052E97FB45
:103D200016F4009407D057FD0DD00E946C1E07FCBE
:103D300009D07EF490958095709561957F4F8F4F57
:103D40009F4F089550954095309521953F4F4F4F87
:103D50005F4F08952F923F924F925F926F927F92A2
:103D60008F929F92AF92BF92CF92DF92EF92FF928B
:103D70000F931F93CF93DF93CDB7DEB7CA1BDB0B37
:103D80000FB6F894DEBF0FBECDBF09942A883988DC
:103D900048885F846E847D848C849B84AA84B984E3
:103DA000C884DF80EE80FD800C811B81AA81B981EF
:103DB000CE0FD11D0FB6F894DEBF0FBECDBFED0103
:103DC00008950E943C1EA59F900DB49F900DA49F46
:103DD000800D911D112408959111F8C0803219F0C1
:103DE00089508550D0F70895FC010590061621F002
:103DF0000020D9F7C00108953197CF010895CF93DE
:103E0000DF93EC012B8120FF35C026FF09C02F7BFB
:103E10002B838E819F8101969F838E838A8128C008
:103E200022FF0FC0E881F9818081992787FD909555
:103E3000009719F420622B831DC03196F983E88323
:103E400011C0EA85FB85CE01099597FF0BC02B8138
:103E50003FEF8F3F930711F480E101C080E2822B96
:103E60008B8308C02E813F812F5F3F4F3F832E837E
:103E700090E002C08FEF9FEFDF91CF9108950F93F5
:103E80001F93CF93DF938C01EB018B8181FF1BC0CC
:103E900082FF0DC02E813F818C819D8128173907BB
:103EA00064F4E881F9810193F983E88306C0E88529
:103EB000F985802F0995009731F48E819F810196B5
:103EC0009F838E8302C00FEF1FEFC801DF91CF9158
:103ED0001F910F910895FB01238120FF13C026FD40
:103EE00011C03FEF8F3F930781F08283922F906440
:103EF0009F7D9383268137812150304037832683ED
:103F000090E008958FEF9FEF08958FEF9FEF089552
:103F1000FA01AA27283051F1203181F1E8946F93FA
:103F20006E7F6E5F7F4F8F4F9F4FAF4FB1E03ED0A0
:103F3000B4E03CD0670F781F891F9A1FA11D680F3E
:103F4000791F8A1F911DA11D6A0F711D811D911D71
:103F5000A11D20D009F468943F912AE0269F1124E6
:103F60003019305D3193DEF6CF010895462F47704A
:103F7000405D4193B3E00FD0C9F7F6CF462F4F70A5
:103F8000405D4A3318F0495D31FD4052419302D003
:103F9000A9F7EACFB4E0A6959795879577956795A9
:103FA000BA95C9F700976105710508959B01AC01A9
:103FB0000A2E06945795479537952795BA95C9F7D0
:103FC000620F731F841F951FA01D089599278827CE
:063FD0000895F894FFCFF4
:103FD60080008100890088008B008A0000000000B4
:103FE6008500840036006F00B000B100B300B30056
:103FF600B400B40000000000B200B2003700700048
:1040060007060504030201000400018000400020A9
:10401600000800010005040302010004000140003D
:10402600080001006D61696E00164111020220044C
:104036000507090B000D0E000F10E70FDF0FF70F36
:10404600EF0FF40FEC0FE40FDC0F810003FF00FF0E
:1040560080FF00FF0069646C6500286E756C6C2932
:0C40660000613A2025342E34780A000056
:00000001FF
