:020000040800F2
:10000000680C002059600008D5570008D757000831
:10001000D9570008DB570008DD5700080000000032
:10002000000000000000000000000000DF57000892
:10003000E157000800000000E3570008E5570008FA
:10004000B1600008B5600008B9600008BD60000834
:10005000C1600008C560000895590008CD6000081F
:10006000D1600008D5600008D9600008BB03000813
:10007000E1600008E5600008E9600008ED60000844
:10008000F1600008F5600008F9600008FD600008F4
:100090000161000805610008096100080D610008A0
:1000A0001161000815610008196100081D61000850
:1000B0002161000825610008296100082D61000800
:1000C0003161000835610008396100083D610008B0
:1000D0004161000845610008496100084D61000860
:1000E0005161000855610008A55900085D610008CC
:1000F000616100086561000869610008B3030008D8
:10010000716100087561000879610008C303000887
:100110008161000885610008896100088D6100081F
:100120009161000895610008996100089D610008CF
:10013000A1610008A5610008A9610008AD6100087F
:10014000B1610008B5610008B9610008CF59000825
:10015000C1610008C5610008C9610008CD610008DF
:10016000D1610008D5610008D9610008DD6100088F
:10017000E1610008E5610008E9610008ED6100083F
:10018000F1610008F5610008DFF8001A0860DFF887
:10019000FC190968012930D1DFF8F4195FF4001265
:1001A0000A60DFF8F019DFF8F0290A60DFF8EC19CF
:1001B000DFF8EC290A60DFF8EC1900220A60DFF8AA
:1001C000E8192F220A60DFF8E4195FF020520A6074
:1001D000DFF8FC1A5FF010520A60DFF8F81A5FF0DF
:1001E00001520A60DFF8F01A5FF008520A60DFF887
:1001F000C0195FF004520A6031E002282FD1DFF805
:1002000090195FF400120A60DFF88819DFF8CC2A31
:100210000A60DFF88819DFF8C82A0A60DFF8841955
:1002200000220A60DFF880190B220A60DFF87C19CF
:10023000DFF8E82A0A60DFF8981ADFF8E42A0A6093
:10024000DFF8901ADFF8DC2A0A60DFF88C1ADFF892
:10025000D82A0A60DFF85819DFF8D42A0A607047F4
:1002600070B504000D001600EDB2652D01D36421B8
:1002700006E0EDB2FF2000FB05F0642190FBF1F1F8
:100280003200C9B2200080B200F0B8F8002801D0D6
:10029000012002E000F098FC002070BD80B500F065
:1002A00021FD00F02DF9002002BD80B5DFF8FC082B
:1002B0000168DFF8E008006800F07EFE002877D0D3
:1002C000DFF8680A006800285ED0DFF8C808006818
:1002D00000F066FE0028F8D1DFF8D0080168DFF8EA
:1002E000B408006800F087FEDFF89C0ADFF8941A73
:1002F00009688160DFF8340A0068B0F5803F03D2F6
:10030000DFF8280A006801E04FF6FF70DFF8781A7E
:100310000861DFF8741ADFF87C08006800F007FE57
:100320000121DFF87008006800F02DFEDFF8FC09FD
:100330000068B0F5803F03D2DFF8F009006801E003
:100340004FF6FF70DFF83C1A096811EB4000DFF848
:10035000341A0860DFF8D4090068B0F5803F03D292
:10036000DFF8C809006801E04FF6FF70DFF8BC193C
:100370000968081ADFF8B41908600121DFF81408C9
:10038000006800F000FE13E00021DFF808080068B4
:1003900000F0F9FDDFF814080168DFF8F8070068DD
:1003A00000F029FE0021DFF8DC09006801F097FB6E
:1003B00001BD80B5FFF779FF01BD80B5FFF775FF7F
:1003C00001BD80B50221DFF8C40901F07EFD0028DF
:1003D00013D0DFF8B8070068022806D101F080FBCF
:1003E000010089B2042001F0B9FD01F079FB0100A0
:1003F00089B2DFF8980901F045FD01BDF8B50400A8
:100400000D001600002700F0EEFA00F0B4F800F03E
:1004100070FA0121022000F0C0F8C0190700AF21D6
:10042000042000F0BAF8C0190700DFF86409AF2112
:1004300001708121052000F0B0F8C01907000421E7
:10044000062000F0AAF8C01907002800C0B200F08A
:1004500069F8DFF84009006802281DD10121082051
:1004600000F09BF8C01907000121092000F095F861
:10047000C0190700C0210E2000F08FF8C019070036
:100480000021142000F089F8C01907000021152070
:1004900000F083F8C01907009E21022000F07DF8CB
:1004A000C019070000210A2000F077F8C0190700E2
:1004B000DFF8E0080068022805D004210E2000F0D3
:1004C0006CF8C01907000021272000F066F8C01959
:1004D00007000F211F2000F060F8C01907000A2153
:1004E0001A2000F05AF8C01907000A211B2000F05A
:1004F00054F8C0190700300000F028FA3800F2BDA7
:1005000010B5002400F037F80121022000F045F872
:100510000019040000F001FB00F017FA00F053FA94
:10052000200010BD38B504000025E4B2E72C10D33C
:1005300014F11901C9B2202000F02FF8401905006C
:1005400014F11901C9B2212000F027F84019050063
:100550000FE014F11901C9B2202000F01EF8401973
:10056000050014F11901C9B2212000F016F8401954
:100570000500280032BD80B500221021DFF81808E0
:1005800001F064FD44F6FF7000F014FB012210211D
:10059000DFF8040801F05AFD01BD70B504000D003C
:1005A0000026DFF8F8075FF4961101605FF4003170
:1005B000DFF8EC0701F095FE00280BD0DFF8DC0730
:1005C0000068411EDFF8D42711600028EED101F049
:1005D000FFFA8AE00121DFF8C80701F02BFEDFF8FF
:1005E000BC074FF480510160DFF8B817DFF8B0079F
:1005F00001F05BFE00280BD1DFF8A0070068411E68
:10060000DFF8982711600028EED101F0E1FA6CE0E4
:1006100000229421DFF8880701F028FEDFF87C072C
:100620004FF480510160DFF88017DFF8740701F0A4
:100630003CFE00280BD1DFF864070068411EDFF89C
:100640005C2711600028EED101F0C2FA4DE02100D4
:10065000C9B2DFF84C0701F022FEDFF840074FF483
:1006600080510160DFF84417DFF8340701F01DFE08
:1006700000280BD1DFF824070068411EDFF81C2793
:1006800011600028EED101F0A3FA2EE02900C9B2D2
:10069000DFF80C0701F003FEDFF800075FF49611A6
:1006A0000160DFF80C17DFF8F80601F01AFE0028E9
:1006B0000BD1DFF8E8060068411EDFF8E026116084
:1006C0000028EED101F084FAEBE70121DFF8D00633
:1006D00001F0BEFD2000C0B200F008F8EDB2A84263
:1006E00001D1002600E00126300070BD70B5040085
:1006F0000025DFF8A8065FF4961101605FF4003171
:10070000DFF89C0601F0EDFD00280BD0DFF88C0629
:100710000068411EDFF8842611600028EED101F048
:1007200057FAE5E00121DFF8780601F083FDDFF8F4
:100730006C064FF480510160DFF86816DFF8600640
:1007400001F0B3FD00280BD1DFF850060068411E10
:10075000DFF8482611600028EED101F039FAC7E031
:1007600000229421DFF8380601F080FDDFF82C0626
:100770004FF480510160DFF83016DFF8240601F0F5
:1007800094FD00280BD1DFF814060068411EDFF845
:100790000C2611600028EED101F01AFAA8E0210021
:1007A000C9B2DFF8FC0501F07AFDDFF8F0054FF47F
:1007B00080510160DFF8F815DFF8E40501F091FDE4
:1007C00000280BD1DFF8D4050068411EDFF8CC25E6
:1007D00011600028EED101F0FBF989E00121DFF87A
:1007E000C00501F027FDDFF8B4054FF4805101602A
:1007F000DFF8B015DFF8A80501F057FD00280BD190
:10080000DFF898050068411EDFF890251160002888
:10081000EED101F0DDF96BE001229421DFF88005D3
:1008200001F024FDDFF874054FF480510160DFF81A
:100830008415DFF86C0501F054FD00280BD1DFF8BA
:100840005C050068411EDFF8542511600028EED1D8
:1008500001F0BEF94CE00021DFF8440501F011FD84
:10086000DFF8540506880121DFF8340501F0F0FCBB
:10087000DFF828054FF480510160DFF84015DFF8FC
:10088000200501F02EFD00280BD1DFF810050068CF
:10089000411EDFF8082511600028EED101F098F91B
:1008A00026E0DFF8FC0401F0FDFC0500DFF8EC04B5
:1008B0004FF480510160DFF8E804008880050BD513
:1008C000DFF8D8040068411EDFF8D024116000284A
:1008D000F1D101F07DF90BE00121DFF8C40401F052
:1008E000D0FCDFF8DC14DFF8B80401F01DFD2800AF
:1008F00070BD00B585B001215FF4001001F0BAFDB4
:10090000DFF89C0401F0D6FB0020ADF804004BF6A4
:10091000FF70ADF806003320ADF808004FF480609A
:10092000ADF80A004FF48040ADF80C00DFF89404F5
:1009300000900121DFF8680401F06EFC00A9DFF8E7
:10094000600401F0E3FB05B000BD704710B588B04E
:10095000040001214FF4004001F08CFDDFF82C046D
:1009600001F04EF902940020ADF802000020ADF82D
:1009700004000020ADF80C004FF40070ADF800004A
:100980004FF40070ADF8060000A9DFF8000401F094
:1009900083F9DFF800040068022812D101215FF01A
:1009A000005001F067FD0020049000200590002019
:1009B000079004A9002001F0A5FA0121002001F010
:1009C000BAFA08B010BD80B50021DFF8C00301F00D
:1009D00049FADFF8B80301F013F900214FF40040A1
:1009E00001F048FD01BD00B583B00121082001F0F0
:1009F00023FD1020009001208DF8040002208DF8C6
:100A0000050000208DF8060000208DF8070000A9E1
:100A1000DFF8840301F0B4FA0121072001F00CFD96
:100A20004FF41070009002208DF8040002208DF821
:100A3000050001208DF8060000208DF8070000A9B0
:100A4000DFF8840301F09CFA04220621DFF8780322
:100A500001F003FB04220921DFF86C0301F0FDFA29
:100A60004FF4A050009002208DF8040002208DF871
:100A7000050000208DF8060000208DF8070000A971
:100A8000DFF8480301F07CFA06220421DFF8400376
:100A900001F0E3FA06220A21DFF8300301F0DDFA63
:100AA0003A48006802280DD01020009000A9DFF815
:100AB000200301F065FA06220C21DFF8100301F093
:100AC000CCFA10E00121012001F0B6FC10200090CA
:100AD00003208DF8040000208DF8070000A9DFF83E
:100AE000F00201F04DFA8020009002208DF8040001
:100AF00002208DF8050000208DF8060000208DF8FA
:100B0000070000A9DFF8C40201F03AFA0622072123
:100B1000DFF8B80201F0A1FA07BD00B583B04FF4C9
:100B2000A050009000208DF8040000208DF80500F2
:100B300000208DF8060000208DF8070000A9DFF8DE
:100B40008C0201F01DFA1020009000A9DFF880024D
:100B500001F016FA002204219D4801F07EFA0022DD
:100B60000A219A4801F079FA00220C21974801F0F5
:100B700074FA8020009000A9944801F001FA06223E
:100B80000721924801F069FA07BD000040010020EA
:100B90004401002048010020B86002404C010020C0
:100BA0000C3C00402C080020500100205401002083
:100BB0006401002001B40098002803D00098401E72
:100BC0000090F8E701B0704780B5724800680128CE
:100BD0005CD101217F48006801F02EFC00217E4895
:100BE000006800F0D0F97C48006800F0FFF8664823
:100BF0007A49096801606448794909684160624836
:100C00000021816060484021C1605F484FF6FE715D
:100C100001615D48002141615B484FF48061816161
:100C200059484FF40061C16157484FF400510162C7
:100C300055480021416254485FF4003181625248B6
:100C40000021C1625048002101634F4800214163E7
:100C50004D48002181634C495F48006800F067F906
:100C6000012210215C48006800F0D7F95D48006857
:100C70008DF8000000208DF8010000208DF80200A2
:100C800001208DF8030000A801F04BFC41480068EA
:100C9000012805D1012202213C4801F0F5F815E0B8
:100CA00000F048F801227121384801F0F8F83320AB
:100CB0008DF8000000208DF8010000208DF8020062
:100CC00001208DF8030000A801F02BFC01BD0000FD
:100CD000580100205C0100206001002010600240EB
:100CE0000C74004080B53F4800688DF8000000207B
:100CF0008DF8010000208DF8020000208DF803001F
:100D000000A801F00EFC00213348006800F03BF918
:100D10003148006800F06AF801BD000020000010B2
:100D200010000010010080100800001038010020A1
:100D30000400801000B587B001212B4801F07CFB36
:100D400001215FF0005001F095FB1020009003207E
:100D50008DF8040000208DF8070000A91C4801F060
:100D60000FF900200290002003900020059002A9B6
:100D7000002001F0C7F80121002001F0DCF807B0E5
:100D800000BD000028080020AC070020003C004007
:100D90006008002040010020000C02403C010020BF
:100DA000005400400100030082000700800007009B
:100DB0000400001002000010185400404000001011
:100DC00000040010A0860100000402400008024058
:100DD0000000024044010020480100202C080020AF
:100DE0004C0100205001002001002000016849084A
:100DF0004900016000210160002141600021816003
:100E00000021C1600021016121214161DFF84C1204
:100E1000884204D1DFF848123D220A6086E0DFF8FC
:100E20004412884205D1DFF838124FF474620A6028
:100E30007CE0DFF83412884205D1DFF824125FF439
:100E400074120A6072E0DFF82412884205D1DFF8DC
:100E500010125FF074620A6068E0DFF814128842D2
:100E600005D1DFF81012DFF810220A605EE0DFF82B
:100E70000C12884205D1DFF8FC11DFF804220A6069
:100E800054E0DFF80012884205D1DFF8E811DFF8FE
:100E9000F8210A604AE0DFF8F411884205D1DFF852
:100EA000D4115FF03D520A6040E0DFF8E41188425F
:100EB00004D1DFF8E0113D220A6037E0DFF8D811F5
:100EC000884205D1DFF8CC114FF474620A602DE03E
:100ED000DFF8C811884205D1DFF8B8115FF4741249
:100EE0000A6023E06E49884204D16A495FF0746267
:100EF0000A601BE06B49884203D16B495E4A0A6075
:100F000014E06A49884203D167495D4A0A600DE0EE
:100F10006749884203D164495B4A0A6006E0654933
:100F2000884203D160495FF03D520A60704710B4B7
:100F3000002203681A00604B1A400B68CC682343F8
:100F40004C6923438C692343CC6923430C6A2343B4
:100F50004C6A23438C6A23434C6B23438C6B23439F
:100F60001A43026043691A00D208D200CB6A0C6BA4
:100F700023431A4342610B6943604B6883608B686B
:100F8000C36010BC7047C9B2002904D0026852F097
:100F90000102026003E002685208520002607047DA
:100FA000010000200A68D20702D50122100001E0EA
:100FB00000221000C0B2704730B4020000200024AC
:100FC000334DAA4202D23D4D2B0001E03C4D2B0097
:100FD0008D0002D55D682C0001E01D682C00394DA4
:100FE0002C400C4202D00125280001E000252800F9
:100FF000C0B230BC7047264B984202D22F4B1A0029
:1010000001E02F4B1A008B0003D52E4B0B40D36011
:1010100002E02C4B0B409360704710B40B060BD5CD
:10102000D2B2002A04D0436953F08003436103E045
:10103000436933F08003436180290DD0D2B2002A86
:1010400005D0036811F01E042343036004E0036825
:1010500011F01E04A343036010BC704710600240EF
:101060000860024028600240406002405860024030
:10107000706002400C6002403D0000208860024029
:10108000400F0020A060024000003D20B8600240F8
:101090001064024008640240286402404064024038
:1010A00058640240706402400C640240886402404C
:1010B000A0640240B86402403F801CF0006002401F
:1010C000006402407D0F7D0F70B582B000240026C1
:1010D000DFF8A40A40210170DFF89C0A002141706A
:1010E000DFF8940A03218170DFF88C0A0021C170B7
:1010F000DFF8840A00210171DFF87C0A01F050FA60
:10110000DFF8780A20210170DFF8700A01214170B0
:10111000DFF8680A0C218170DFF8600A01F059FAE3
:101120001E2001F0C0FD01220F2100A801F091FA5C
:101130009DF800003B2801D001F0C9FDDFF8400A0E
:101140004FF4FA710160E4B2002C35D1DFF8300AB7
:101150000068002830D004222921DFF8280A01F095
:1011600078FADFF8200A90F9000040B2002806D58E
:10117000DFF8100A90F9000040B2454202E0DFF8C3
:10118000040A0578DFF8FC0990F9020040B2002853
:1011900006D5DFF8F00990F9020040B2464202E0BD
:1011A000DFF8E0098678EDB2102D02D2F6B2102EEB
:1011B000C9D301200400C6E7E4B2002C10D00020FF
:1011C00001F0F2FD002001F064FE0028FAD00020BA
:1011D00001F05FFE0128FAD0002001F0EFFD01E0F0
:1011E00001F075FD73BD00B583B001210D2001F044
:1011F00023F92020009001208DF8040000208DF8B4
:10120000060000208DF8070002208DF8050000A9D7
:10121000DFF8740900F0B4FE2021DFF86C0900F05B
:1012200013FF0120009001208DF8040000208DF8AC
:10123000060000208DF8070002208DF8050000A9A7
:10124000DFF8480900F09CFE4FF400700090002089
:101250008DF8040000208DF8060000208DF80700AE
:1012600002208DF8050000A9DFF8240900F088FEAF
:101270000121DFF8180900F0E7FE012001F013FD5D
:101280004FF40071DFF8080900F0CFFE002801D10B
:1012900001F01DFD4FF48060009000208DF80400E7
:1012A00000208DF8060001208DF8070002208DF83F
:1012B000050000A9DFF8D80800F062FE012001F067
:1012C000F2FC4FF48061DFF8C80800F0AEFE0028A1
:1012D00001D101F0FCFC0121DFF8B00800F0B2FE02
:1012E0004FF4C050009000208DF8040000208DF8CD
:1012F000060001208DF8070002208DF8050000A9E6
:10130000DFF88C0800F03CFE4FF4007000900120E4
:101310008DF8040000208DF8060001208DF80700EC
:1013200002208DF8050000A9DFF8640800F028FE0F
:101330004FF40071DFF8580800F086FE012001F03C
:10134000B2FC4FF40061DFF8480800F06EFE0028A0
:1013500007D04FF48051DFF8380800F066FE00280F
:1013600001D101F0B4FC4FF48050009000208DF8C2
:10137000040000208DF8060001208DF807000220EF
:101380008DF8050000A9DFF8080800F0F9FD4FF41A
:101390000060009001208DF8040000208DF8060008
:1013A00001208DF8070002208DF8050000A9DFF864
:1013B000E00700F0E5FD4FF40061DFF8D40700F02E
:1013C00043FE012001F06FFC4FF48051DFF8C007AD
:1013D00000F02BFE002801D101F079FC4FF40060F1
:1013E000009000208DF8040000208DF806000120F8
:1013F0008DF8070002208DF8050000A9DFF890079E
:1014000000F0BEFD4FF48050009001208DF80400E4
:1014100000208DF8060001208DF8070002208DF8CD
:10142000050000A9DFF8680700F0AAFD4FF480511D
:10143000DFF85C0700F008FE012001F034FC4FF4F7
:101440000061DFF84C0700F0F0FD002801D101F049
:101450003EFC4FF40070009001208DF80400002045
:101460008DF8060000208DF8070002208DF8050099
:1014700000A9DFF81C0700F083FD4FF40071DFF8CE
:10148000100700F0DFFD002001F08EFC002001F0CD
:1014900000FD0028FAD0002001F0FBFC0028FAD162
:1014A000002001F08BFC4FF40071DFF8E40600F03F
:1014B000CBFD2021DFF8D00600F0C4FD4FF48061A1
:1014C000DFF8CC0600F0B1FD002801D001F0FFFBF1
:1014D0004FF4C050009000208DF8040000208DF8DB
:1014E000060002208DF8070002208DF8050000A9F3
:1014F000DFF89C0600F044FD4FF4007000900120DE
:101500008DF8040000208DF8060001208DF80700FA
:1015100002208DF8050000A9DFF8740600F030FD08
:101520004FF40071DFF8680600F08CFD012001F037
:10153000BAFB4FF40061DFF8580600F076FD002892
:1015400007D04FF48051DFF8480600F06EFD002808
:1015500001D101F0BCFB4FF49050009000208DF8B9
:10156000040000208DF8060002208DF807000220FC
:101570008DF8050000A9DFF8180600F001FD4FF412
:101580000060009001208DF8040000208DF8060016
:1015900001208DF8070002208DF8050000A9DFF872
:1015A000F00500F0EDFC4FF40061DFF8E40500F019
:1015B00049FD012001F077FB4FF40071DFF8D00501
:1015C00000F033FD002807D04FF48051DFF8C0054C
:1015D00000F02BFD002801D101F079FB4FF42060D1
:1015E000009000208DF8040000208DF806000220F5
:1015F0008DF8070002208DF8050000A9DFF890059E
:1016000000F0BEFC4FF48050009001208DF80400E3
:1016100000208DF8060001208DF8070002208DF8CB
:10162000050000A9DFF8680500F0AAFC4FF480511E
:10163000DFF85C0500F006FD012001F034FB4FF4FB
:101640000071DFF84C0500F0F0FC002807D04FF4E3
:101650000061DFF83C0500F0E8FC002801D101F052
:1016600036FB4FF4C050009000208DF8040000209D
:101670008DF8060002208DF8070002208DF8050085
:1016800000A9DFF80C0500F07BFC4FF4007000901F
:1016900001208DF8040000208DF8060001208DF84F
:1016A000070002208DF8050000A9DFF8E40400F02F
:1016B00067FC4FF40071DFF8D80400F0C5FC07BDEB
:1016C0001CB5002401214FF4807000F0E2FE0121DE
:1016D0004FF4007000F0DDFE0120FEF755FD4BF6E3
:1016E000803257210220FEF7BBFD002801D001F017
:1016F000EEFADFF8A00400210170DFF89C0400215D
:101700000160DFF894045FF440314160DFF8880441
:1017100000218160DFF880044FF47061C160DFF860
:10172000780401F00EFCDFF8740401F0FBFBDFF835
:101730006C045FF000710160DFF86004002101714A
:10174000DFF8580400214171DFF850040021816066
:10175000DFF8480400210161DFF840040121017530
:10176000DFF83814DFF8380401F0B4FBDFF82C148C
:10177000DFF8300401F0AEFB0420009002208DF869
:10178000050003208DF8040000208DF8070000A953
:10179000DFF8FC0300F0F4FB0820009000A9DFF85C
:1017A000F00300F0EDFBDFF8000400210180DFF81A
:1017B000FC030021018000200400032301220221F8
:1017C000DFF8DC0301F0DBFB032301220321DFF858
:1017D000D40301F0D4FB0121DFF8C40301F0C2FB04
:1017E0000121DFF8C00301F0BDFBDFF894034FF4E3
:1017F000FA710160E4B2002C61D1DFF88403006863
:1018000000285CD0DFF8980301F034FC0221DFF8F7
:10181000900301F03FFC0028F8D0DFF8840301F0CA
:101820002EFCDFF88C130880DFF8780301F022FC2F
:101830000221DFF8700301F02DFC0028F8D0DFF85A
:10184000640301F01CFCDFF86C130880DFF8600310
:101850000088972811D3DFF85C0300880A280CD28F
:10186000DFF844030088B0F5FA7F06D0DFF83803CC
:101870000088401CDFF830130880DFF8340300884C
:101880000A280FD2DFF82C03008897280AD3DFF844
:101890001C030088B0F5FA7F04D0C4480088401CBF
:1018A000C2490880C0480088B0F5FA7FA2D1BF487D
:1018B0000088B0F5FA7F9DD1012004009AE700214D
:1018C000B74801F04FFB0021B64801F04BFBE4B2F2
:1018D000002C01D101F0FBF9FEF7E0FC0220FEF73D
:1018E00053FC4BF6803264210220FEF7B9FC00283D
:1018F00001D001F0ECF9A74801210170AA480021AC
:101900000180AA4800210180002004000121A44890
:1019100001F028FB0121A34801F024FB98484FF473
:10192000FA710160E4B2002C50D19548006800289B
:101930004CD09B4801F09EFB0221994801F0AAFB84
:101940000028F9D0964801F09AFB994908809548FB
:1019500001F090FB0221934801F09CFB0028F9D094
:10196000904801F08CFB9349088091480088AB288F
:101970000DD390480088AB2809D38B480088B0F578
:10198000FA7F04D088480088401C8749088088482E
:1019900000880A280DD2874800880A2809D283487F
:1019A0000088B0F5FA7F04D080480088401C7F4949
:1019B00008807D480088B0F5FA7FB3D17B48008865
:1019C000B0F5FA7FAED101200400ABE7E4B2002C01
:1019D00001D101F07CF9002001F0E6F9002001F0CE
:1019E00058FA0028FAD0002001F0E8F913BD30B50C
:1019F00087B00024002501214FF4804000F03AFD1B
:101A00000121062000F018FD02208DF804000020BE
:101A10008DF8060001208DF8070001208DF80500E3
:101A20004FF48060009000A9634800F0A9FA0522F5
:101A30000A21614800F011FB0820009000A95348DA
:101A400000F09EFA05220321504800F006FB5B4897
:101A500000F0D6F84FF47A4004901020ADF80A0058
:101A60000020ADF80C000020ADF814004FF44070D9
:101A7000ADF808000020ADF80E0002A94F4800F0B4
:101A80000BF901214D4800F0EDF90A2001F00BF9A6
:101A90003B484FF4FA710160EDB21E2D18D2384860
:101AA0000068002814D00121444800F00EFA0028F4
:101AB00003D1334800680028F5D1404800F0E0F930
:101AC00004004FF6FF70A4B28442E5D16D1CE3E739
:101AD000EDB21E2D01D001F0FAF807B030BD70470D
:101AE00000202C49097800292FD13549098800297F
:101AF00015D134490988344A32F8111008003149A7
:101B00000988491C2F4A11802E490988302902D1A1
:101B10002C4900220A802A4901220A8029E02B4907
:101B20000988294A32F81110080028490988491CF7
:101B3000264A118025490988302902D123490022EB
:101B40000A801F4900220A8013E01E4909881E4AA4
:101B500032F91110B1F5004108001A490988491CF1
:101B6000184A118017490988302902D115490022E5
:101B70000A8080B27047000010080020240800206E
:101B80002008002018080020000C02400008024035
:101B9000000002405F08002000080020E807002045
:101BA000002001400021014054080020520800207C
:101BB0004E08002050080020000402400038004079
:101BC0005808002056080020D45E00087801002044
:101BD000FEE710B450F8041B81B102681218001D12
:101BE00050F8043BDC0744BFA9F10104E31852F8A4
:101BF000044B43F8044B091FF9D1EBE710BC7047C5
:101C000010B50400894884420AD101214FF4805064
:101C100000F05DFC00214FF4805000F058FC1AE009
:101C2000834884420AD101214FF4804000F040FCF7
:101C300000214FF4804000F03BFC0CE07D488442E2
:101C400009D101214FF4004000F032FC00214FF493
:101C5000004000F02DFC10BD10B4002203881A00D3
:101C600012F441520B884C8823438C882343CC8840
:101C700023430C8923434C8923438C892343CC89F8
:101C800023431A430280838B4FF2FF7423408383E4
:101C90000B8A038210BC70472DE9F84F5FF00008F3
:101CA00002225FF0000E01235FF0000C00240025EB
:101CB00000260027B0F81C904FF2400A1AEA0909E2
:101CC000A0F81C905FF00209A0F82090B0F81C90DA
:101CD000C846D1F80890B9F1020F06D15FF00009AB
:101CE000CE465FF002094A4671E0B1F80490B9F1BE
:101CF000000F03D15FF001094B4602E05FF00209DB
:101D00004B46DFF83491D9F800905FEA092909D5EC
:101D1000DFF82491D9F8009039F40009DFF818A110
:101D2000CAF80090DFF81491D9F80090C9F3881927
:101D30004E46DFF80891D9F80090C9F302794F4672
:101D4000DFF8FC90D9F8009019F03F094D46DFF814
:101D5000F490B9FBF5F906FB09F9B9FBF7F94C4624
:101D6000B1F80690B9F5007F0FD15FEA14295FF052
:101D70000A0A0AFB09F9D1F808A0B9FBFAF919F126
:101D800005091FFA89F9CC4611E09BB25FEA4319B5
:101D9000B4FBF9F95FF00A0A0AFB09F9D1F808A0C7
:101DA000B9FBFAF919F105091FFA89F9CC465FF078
:101DB0000A09BCFBF9FC1CF00109CE461FFA8EFE95
:101DC000BCEB0E095FEA59094A465FEA0E2E92B251
:101DD000022A03D392B2B2F5807F05D35FF00209E5
:101DE0004A465FF00009CE46B1F8069059EA0E095E
:101DF00059EA0209A0F82090CDF80080B1F80080DF
:101E0000B1F80290B1F804B0B1F80CA05AEA0B0A8C
:101E10005AEA090959EA080858F40069DDF800800F
:101E200059EA0808A0F81C80BDE8F18F0030014095
:101E300000380040003C004008380240843802402E
:101E40000438024000127A00C9B2002904D0028886
:101E500052F04002028004E002884FF6BF731A403D
:101E600002807047C9B2002904D0828B52F480628C
:101E7000828304E0828B4FF6FF331A4082837047DF
:101E80008089704781817047D2B2002A03D083884D
:101E90000B43838002E083888B438380704730B498
:101EA00000230024C9B20D09EDB22B0001259D408D
:101EB0002C00D2B2002A03D085882543858002E019
:101EC0008588A543858030BC7047020000201389B7
:101ED0000B4202D00123180001E000231800C0B219
:101EE000704750F8041B61B150F8042BD30744BF6E
:101EF000A9F101039A18002342F8043B091FFAD103
:101F0000EFE7704730B4002300221C4C2468230004
:101F100040F6FE748440A3430C684D682C438D68E2
:101F20002C43CD682C43220012FA00F42343134CB7
:101F3000236030BC7047C9B2002907D00F4A12682D
:101F4000012383401A430D4B1A6006E00B4A1268C6
:101F5000012383409A43094B1A60704781B00022E5
:101F60000092064A0092009A10F108039A18009213
:101F7000009A89B2116001B07047000000740040FF
:101F8000F0B400220023002400252A00102A4AD29F
:101F9000012595402B000D681D402C009C4240D12E
:101FA000056803261700FFB27F00BE40B5430560F9
:101FB00005680E791700FFB27F00BE40354305600B
:101FC0000D79012D02D00D79022D1AD185680326D5
:101FD0001700FFB27F00BE40B543856085684E792B
:101FE0001700FFB27F00BE4035438560456801267B
:101FF0009640B543456045688E799640B6B2354304
:102000004560C56803261700FFB27F00BE40B54398
:10201000C560C568CE791700FFB27F00BE4035436A
:10202000C560521CB2E7F0BC704702000020136983
:1020300089B20B4202D00123180001E000231800EE
:10204000C0B270470183704741837047D2B2002A03
:1020500001D0018300E041837047F0B400230024E5
:10206000D2B211F00705EDB2AD0012FA05F52B0062
:1020700089B2CD1010EB850589B2CE1010EB860623
:10208000366A0F2711F0070C5FFA8CFC5FEA8C0CA4
:1020900017FA0CF7BE432E6289B2CD1010EB8505FE
:1020A0002D6A1D432C0089B2CD1010EB85052C62E2
:1020B000F0BC704710B50400514884420AD1012198
:1020C0005FF4001000F0F4F900215FF4001000F05C
:1020D000EFF91AE04B4884420AD101215FF48000F5
:1020E00000F0E6F900215FF4800000F0E1F90CE077
:1020F0004548844209D101215FF4000000F0D8F97D
:1021000000215FF4000000F0D3F910BD2DE9F04389
:1021100085B004000D005FF0000900260427DFF8F9
:10212000EC80A08881464FF6C07010EA090900A82B
:1021300000F002F9029880463548B8FBF0F006003E
:1021400056EA0909A4F8049020884FF6FE71084069
:1021500020800020814628682E4988420ED22868B7
:102160004000B8FBF0F00700BFB2042F01D20420FA
:10217000070057EA0909701C208426E0E8884BF61E
:10218000FF71884206D1286803214843B8FBF0F06C
:10219000070007E0286819214843B8FBF0F0070062
:1021A00057F48047380501D157F0010757F4004034
:1021B00050EA0909B6B24FF4967000FB06F04FF4EE
:1021C0007A7190FBF1F0401C2084A4F81C902088C8
:1021D00050F001002080208881464FF6F53010EA4B
:1021E0000909A8886989084350EA0909A4F80090F8
:1021F000A88929890843208105B0BDE8F083000043
:102200000054004000580040005C004000127A007A
:1022100040420F00A1860100C9B2002904D0028803
:1022200052F00102028004E002884FF6FE731A4069
:1022300002807047C9B2002904D0028852F480722B
:10224000028004E002884FF6FF631A400280704764
:10225000C9B2002904D0028852F40072028004E05E
:1022600002884FF6FF531A4002807047D2B2002A0C
:1022700002D051F0010101E011F0FE01C9B201826A
:102280007047C9B2002904D0028852F480620280EB
:1022900004E002884FF6FF331A4002807047C9B24B
:1022A00001827047008AC0B2704770B402000023F8
:1022B000002400250020968A3400168B35002D045A
:1022C00055EA04063602360A330011EA03068E4246
:1022D00002D10126300001E000263000C0B270BCFF
:1022E000704782B002000020002301930023009376
:1022F00000920B0F01930902090A019B002B03D0E6
:10230000009B1433009303E0090C009B18330093E7
:10231000009B1B680B4202D00123180001E0002340
:102320001800C0B202B0704700220B021B0A1A004C
:10233000D343838270470100F0B4002100220023C0
:10234000022400250226DFF8A4713F6817F00C076D
:1023500039000F00002F04D0042F06D0082F08D01A
:102360003CE0DFF8907107603BE0DFF88C710760BC
:1023700037E0DFF87C713F68C7F380573D00DFF836
:1023800070713F6817F03F073E00002D0DD0DFF859
:102390006871B7FBF6F7DFF858C1DCF800C0CCF382
:1023A000881C0CFB07F73B000CE0DFF84871B7FB1B
:1023B000F6F7DFF83CC1DCF800C0CCF3881C0CFB5E
:1023C00007F73B00DFF828713F68C7F301477F1C20
:1023D0007F003C00B3FBF4F7076002E0DFF8147104
:1023E0000760DFF808713F6817F0F0073900090946
:1023F000DFF80871CF5D3A000768D7404760DFF823
:10240000EC703F6817F4E0573900890ADFF8EC7088
:10241000CF5D3A004768D7408760344F3F6817F474
:1024200060473900490BDFF8D470CF5D3A00476848
:10243000D740C760F0BC7047C9B2002905D0304A08
:10244000126802432E4B1A6004E02D4A1268824340
:102450002B4B1A607047C9B2002905D0294A12686F
:102460000243284B1A6004E0264A12688243254B37
:102470001A607047C9B2002905D0234A1268024386
:10248000214B1A6004E0204A126882431E4B1A60F6
:102490007047C9B2002905D01C4A126802431B4B81
:1024A0001A6004E0194A12688243184B1A60704798
:1024B000C9B2002905D0164A12680243144B1A60AB
:1024C00004E0134A12688243114B1A607047C9B284
:1024D000002905D00F4A126802430E4B1A6004E02F
:1024E0000C4A126882430B4B1A607047083802404E
:1024F000043802400024F40000127A002401002075
:1025000030380240343802404038024044380240FB
:1025100020380240243802401C4901431C4A116003
:102520007047F0B4002300210F22C478002C21D082
:10253000174C246814F4E064D4F5E064240A230002
:10254000D3F104042100D2B21A4144788C40230014
:102550008478144023431B0104780E4D635504789E
:1025600064110D4D0126077817F01F07BE4045F88E
:10257000246009E004786411084D0126077817F0FB
:102580001F07BE4045F82460F0BC70470000FA0504
:102590000CED00E000E400E000E100E080E100E09C
:1025A00010B582B0040000208DF8000000F074F82F
:1025B000607821780843E178084321790843A178BD
:1025C00008438DF800000122202100A800F022F825
:1025D00013BD10B582B0040000208DF80000012268
:1025E000212100A800F035F89DF8000010F0D0007F
:1025F0008DF800009DF80000217862781143A278E0
:10260000114308438DF800000122212100A800F0A9
:1026100001F813BD70B504000D001600B6B2022E0D
:1026200001D355F0400508218448FFF70DFD28002F
:10263000C0B200F0CAF8B6B2012E05D3207800F07F
:10264000C4F8761E641CF6E708217C48FFF7FAFC04
:1026500070BD70B504000D001600B6B2022E02D394
:1026600055F0C00501E055F0800508217348FFF7DB
:10267000EBFC2800C0B200F0A8F8B6B2012E06D3D9
:10268000002000F0A2F82070761E641CF5E70821F7
:102690006A48FFF7D7FC70BD00B587B001214FF441
:1026A0008050FFF7F6FE01210120FFF7C5FE012152
:1026B0001020FFF7C1FE01211020FFF7BDFE012110
:1026C0001020FFF7B9FE052205215D48FFF7C5FC84
:1026D000052206215A48FFF7C0FC05220721584869
:1026E000FFF7BBFC02208DF8040000208DF80600E7
:1026F00002208DF8070002208DF8050020200090B0
:1027000000A94F48FFF73CFC8020009000A94C48EE
:10271000FFF736FC4020009000A94948FFF730FC45
:102720004848FFF76DFA0020ADF808000020ADF82A
:102730000C000020ADF80E000020ADF810004FF4A2
:102740000070ADF812000820ADF814000020ADF8BC
:1027500016000720ADF818004FF48270ADF80A009B
:1027600002A93848FFF778FA01213648FFF76CFBD9
:102770000820009001208DF8040000208DF806004C
:1027800002208DF8050000A92C48FFF7F9FB08216D
:102790002A48FFF757FC0120009000208DF8040024
:1027A00000208DF8060002208DF8050000208DF82D
:1027B000070000A92148FFF7E3FB0220009000A9D1
:1027C0001E48FFF7DDFB07B000BD10B504001E4832
:1027D0004FF48051016002211A48FFF776FB002870
:1027E0000AD119480068411E174A11600028F2D129
:1027F00000F07DFAC0B21EE0E4B2210089B21148B7
:10280000FFF740FB10484FF48051016001210D4853
:10281000FFF75BFB00280AD10B480068411E0A4AFB
:1028200011600028F2D100F062FAC0B203E005485E
:10283000FFF726FBC0B210BD0000000000100240F0
:1028400000000240003001406801002040B2002832
:1028500009D540B210F00F02DFF8A834D2180B01EE
:1028600002F8043C04E040B2DFF89C240B018354DE
:10287000704710B50400B4F1807F01D3012013E04C
:102880002002000A401EDFF8841408600F215FF068
:10289000FF30FFF7DBFFDFF8780400210160DFF88D
:1028A000740407210160002010BD00B585B001212E
:1028B000002000F09DFA002000F054FA012000F002
:1028C00051FA022000F04EFA032000F04BFA00A863
:1028D000FFF732FD01986421B0FBF1F0FFF7C9FF6B
:1028E000002000F0D6FA012867D1002000F05CFA41
:1028F000012000F059FA022000F056FA032000F0FF
:1029000053FADFF81404006800280FD1DFF80C0434
:102910004FF496710160002000F0BBFA01281DD130
:10292000DFF8F80300680028F5D117E0DFF8EC03C2
:102930004FF496710160002000F0ABFA012804D139
:10294000DFF8D80300680028F5D1002000F0A1FAD4
:10295000002803D1DFF8C40300210160DFF8BC03C5
:102960000068002826D1002000F028FA012000F09D
:1029700025FA022000F022FA032000F01FFA0020BE
:1029800000F087FA0128FAD000F092FBFEF79CFBDA
:10299000FEF729FCFEF794FEFFF729F80021DFF887
:1029A000780300F0F5FB002000F012FA0A2000F096
:1029B0007AF9F8E700F006F801E000F003F80020EB
:1029C00005B000BD84B00024DFF85403002101707D
:1029D000DFF8500300210170002000F0C3F901204E
:1029E00000F0C0F9022000F0BDF9032000F0BAF9B0
:1029F00000A8FFF7A1FC01986421B0FBF1F0FFF7FC
:102A000038FF002000F0DAF9012000F0D7F90220A9
:102A100000F0D4F9032000F0D1F9C2480078002872
:102A200034D1002000F0D4F90A2000F03CF9012054
:102A300000F0CEF90A2000F036F9022000F0C8F9C3
:102A40000A2000F030F9032000F0C2F90A2000F05B
:102A50002AF9641CE4B2102CDFD100200400E4B297
:102A6000102C10D2002000F0B3F9012000F0B0F9D2
:102A7000022000F0ADF9032000F0AAF90A2000F0CE
:102A800012F9641CEBE700200400C6E7002000F008
:102A900000FA0128FAD0A3480021017000F06DF877
:102AA00000220021A04800F06BFD002204219E4876
:102AB00000F066FD002208219B4800F061FD002225
:102AC0000C21994800F05CFD98484021017097481E
:102AD0000021417095480721817094480021C17000
:102AE0009248002101719148FFF75AFD1E2000F025
:102AF000DAF88B48012101708D48202101708C4843
:102B0000012141708A480C2181708948FFF761FDDD
:102B1000062229218748FFF79CFD8748854991F9BE
:102B200000100170834890F90200844908708148C0
:102B300090F904008249087000F014F87948007890
:102B40000028FBD0002000F0A4F90128FAD00021D1
:102B50007C48FFF779F97C4800F0A7FE7A4801F03D
:102B600088FC31E780B579480090794B794A01219A
:102B7000754801F0A9FC002002BD00B58BB0012111
:102B80000420FFF777FC01210820FFF755FC4FF4E4
:102B90007040009002208DF8040000208DF806009F
:102BA00000208DF8070003208DF8050000A96A4871
:102BB000FFF7E6F902220C216748FFF74EFA0222DE
:102BC0000D216548FFF749FA02220E216248FFF7FE
:102BD00044FA02220F216048FFF73FFA5F4800687D
:102BE00040084FF4FA61B0FBF1F0401E5C490880E8
:102BF00040F2CF7003905A480088ADF808000020DA
:102C0000ADF810000020ADF80A0002A9464800F017
:102C100029FB0121444800F05CFB6020ADF8140062
:102C20000120ADF816004FF47A7007900020ADF83F
:102C3000200005A93C4800F068FB002200213A482A
:102C400000F09EFC0821384800F074FC05A93648C5
:102C500000F09AFB00220421334800F091FC082187
:102C6000314800F070FC05A92F4800F0D3FB00228A
:102C700008212D4800F084FC08212B4800F06DFC51
:102C800005A9294800F00BFC00220C21264800F081
:102C900077FC0821244800F069FC0121224800F05B
:102CA00026FB0BB000BD01B41C48009901601B4815
:102CB00000680028FBD101B0704718480068002860
:102CC00004D016480068401E14490860704702216D
:102CD000582000F0FDF95FF055310F4800F058FA28
:102CE000022000F075F80520FFF7DDFFF8E780B55A
:102CF0000B480078002803D1FFF7E9FF002000E02F
:102D0000FEE702BD18ED00E000E400E014E000E0A2
:102D100018E000E010E000E0FCFF0F0820080020B1
:102D20005A0800205B08002000080040100800201E
:102D300024080020180800205C0800205D080020FE
:102D40005E080020003001407C010020E4000020EB
:102D500078000020C8000020000C02406C01002018
:102D60004C0800201CB504000121E4B24F4850F883
:102D70002400FFF761FBE4B24D4830F814000090E6
:102D800001208DF8040000208DF8060001208DF848
:102D9000070002208DF8050000A9E4B2454850F86C
:102DA0002400FFF7EDF813BDC0B2424951F82010DE
:102DB000C0B23F4A32F810200A837047C0B23D4982
:102DC00051F82010C0B23A4A32F810204A837047B6
:102DD000C0B2384951F820104969C0B2344A32F8BB
:102DE00010205140C0B2334A52F820205161704740
:102DF00030B585B004000D000121E4B22E4850F832
:102E00002400FFF719FB01214FF48040FFF741FB3D
:102E100000208DF8100000208DF81300E4B2274840
:102E200030F81400039003A9E4B2254850F82400B8
:102E3000FFF7A6F8EDB2012D29D1E4B22148215CBB
:102E4000E4B22148205C01F0A3FCE4B21F4830F852
:102E50001400019000208DF8080008208DF809006A
:102E600001208DF80A0001A801F0BCFCE4B218486A
:102E7000205C8DF800000F208DF801000F208DF8E8
:102E8000020001208DF8030000A8FFF74AFB05B0FF
:102E900030BD10B50400E4B2084830F81410E4B2B4
:102EA000074850F82400FFF7C0F810BD186000086C
:102EB00080600008140100208860000836230008A4
:102EC00034010020D3570008D2570008AE30000864
:102ED000DA5B000830B40023002244682300694C08
:102EE00023400C790D6855EA042423434360846829
:102EF0002300654C23400C69CD682C438D682C431E
:102F00004D7954EA450423438360C46A230033F4B3
:102F100070030C7D641E2243D2B253EA0253C36293
:102F200030BC704700210160002101710021417116
:102F3000002181600021C160002101610121017532
:102F400070470021514A12681100514A114002682D
:102F500043681A4383681A43C3681A4311434B4AB0
:102F600011607047C9B2002904D0826852F0010292
:102F7000826003E082685208520082607047F0B4B9
:102F800000250024C9B20A2917D3C66835000726D0
:102F9000B1F10A075FF0030C17FB0CF7BE403400D9
:102FA000A543DBB2B1F10A06032716FB07F613FAB5
:102FB00006F634002543C56011E006693500072692
:102FC000032711FB07F7BE403400A543DBB20326FD
:102FD00011FB06F613FA06F6340025430561D2B25A
:102FE000072A15D2466B35001F26571E5FF0050CC9
:102FF00017FB0CF7BE403400A543C9B2561E052787
:1030000016FB07F611FA06F63400254345632FE058
:10301000D2B20D2A15D2066B35001F26D71F5FF0DE
:10302000050C17FB0CF7BE403400A543C9B2D61FF0
:10303000052716FB07F611FA06F63400254305634B
:1030400016E0C66A35001F26B2F10D075FF0050CC9
:1030500017FB0CF7BE403400A543C9B2B2F10D0610
:10306000052716FB07F611FA06F634002543C5625C
:10307000F0BC7047816851F0804181607047C06C3E
:1030800080B27047FFFEFFFCFDF7FFC00423014044
:10309000E030FCFF020000201368C9B20B4202D0EE
:1030A0000123180001E000231800C0B2704701009E
:1030B000DFF874010068002809D5DFF87001DFF837
:1030C00070110160DFF86401DFF86811016070477A
:1030D000F8B504000D0000260827EDB2002D02D13E
:1030E0000020060010E0EDB2012D03D14FF48070F6
:1030F000060009E0EDB2022D03D14FF40070060086
:1031000002E04FF44070060000F098F80700FFB2AC
:10311000082F3AD1DFF81001006830F44070DFF872
:1031200008110860DFF8000100683043DFF8F8108C
:103130000860DFF8F400006830F0F800DFF8E8100D
:103140000860DFF8E400006854F002010843DFF88B
:10315000D8100860DFF8D000006850F48030DFF845
:10316000C810086000F06AF80700DFF8BC000068CB
:1031700030F00200DFF8B0100860DFF8AC00006843
:1031800030F0F800DFF8A01008603800C0B2F2BDDF
:1031900070B504000D00082600F050F80600F6B2E5
:1031A000082E1BD12048006830F440701E4908608A
:1031B0001D48006850F400701B4908601A480068F8
:1031C00050F0010018490860256000F037F806004B
:1031D0001548006840084000134908603000C0B23C
:1031E00070BD082014490968C90302D501210800EF
:1031F00017E011490968C90602D50521080010E049
:103200000D49096811F0EF0F02D00621080008E00F
:1032100009490968890702D50721080001E008214A
:103220000800C0B270470000103C0240043C02405D
:1032300023016745AB89EFCD0C3C024080B50820E7
:103240008DF80000FFF7CDFF8DF800009DF800001D
:10325000012804D1FFF7C5FF8DF80000F6E79DF8BF
:10326000000002BD002203881A00A74B98420ED02E
:10327000AB4B98420BD0B0F1804F08D0A34B984293
:1032800005D0A34B984202D0A24B984204D14FF6EE
:103290008F731A404B881A439F4B984207D09F4B1D
:1032A000984204D04FF6FF431A400B891A4302801C
:1032B0004B68C3620B880385934B984202D0984BAE
:1032C000984201D18B7A0386012383827047C162C1
:1032D0007047C9B2002904D0028852F080020280EF
:1032E00004E002884FF67F731A4002807047C9B22B
:1032F000002904D0028852F00102028004E0028812
:103300004FF6FE731A400280704770B40023002409
:103310000022058C4FF6FE7635400584058C2C0086
:1033200085882A00058B2B004FF68F752B404FF6B2
:10333000FC752B400D882B434FF6FD752C408D8975
:103340002C434D882C43704DA84202D0744DA842A6
:1033500013D14FF6F7752C40CD892C434FF6FB75F2
:103360002C408D882C434FF6FF652A404FF6FF55C1
:103370002A400D8A2A434D8A2A43828003838D681E
:103380004563048470BC704770B40023002400229D
:10339000058C4FF6EF7635400584058C2C0085882A
:1033A0002A00058B2B0048F6FF752B404FF6FF4592
:1033B0002B400D8853EA05234FF6DF752C408D898D
:1033C00054EA05144D8854EA05144F4DA84202D022
:1033D000534DA84217D14FF67F752C40CD8954EA42
:1033E00005144FF6BF752C408D8854EA05144FF62E
:1033F000FF352A404FF2FF752A400D8A52EA8502B6
:103400004D8A52EA8502828003838D688563048435
:1034100070BC704770B4002300240022058C4FF666
:10342000FF6635400584058C2C0085882A00858B35
:103430002B004FF68F752B404FF6FC752B400D88F7
:103440002B434FF6FF552C408D8954EA05244D88B7
:1034500054EA05242C4DA84202D0314DA84217D180
:103460004FF2FF752C40CD8954EA05244FF6FF3505
:103470002C408D8854EA05244EF6FF752A404DF6FF
:10348000FF752A400D8A52EA05124D8A52EA05124A
:10349000828083838D68C563048470BC704770B478
:1034A000002300240022058C4EF6FF76354005846B
:1034B000058C2C0085882A00858B2B0048F6FF752B
:1034C0002B404FF6FF452B400D8853EA05234DF660
:1034D000FF752C408D8954EA05344D8854EA053433
:1034E000094DA84202D00E4DA84205D14BF6FF75FA
:1034F0002A400D8A52EA8512828083838D68056492
:10350000048470BC704700000000014000040040CB
:1035100000080040000C0040001000400014004073
:10352000000401404163704781637047C163704785
:10353000016470470022038B1A004FF6F7731A409C
:103540000A43028370470022038B1A004FF2FF7375
:103550001A4052EA0122028370470022838B1A002C
:103560004FF6F7731A400A43828370470022838B19
:103570001A004FF2FF731A4052EA01228283704709
:1035800030B4002301248C402300048C9C43048429
:10359000048C92B212FA01F52C43048430BC7047BB
:1035A000F8B504000D002900C9B2200000F008FAA7
:1035B000012084F81201002084F813010020060085
:1035C0006078864213D2282000FB064010F58C70EC
:1035D0000700012078703E70FE800020F8704020C7
:1035E000B8600020F86000207861761CE8E70020D1
:1035F00006006078864213D2282000FB064010F5B2
:103600005C700700002078703E70FE800020F8702B
:103610004020B8600020F86000207861761CE8E760
:10362000200000F0E7FA200000F03BFA0021200023
:1036300000F038FB200000F076FB200000F0CBFA11
:10364000F1BD2DE9F04104000D0016001F00EDB2A0
:10365000280609D5EDB215F07F00282101FB0040B6
:1036600010F58C70804608E0EDB215F07F0028213F
:1036700001FB004010F55C70804615F07F0088F873
:103680000000C5F3C01088F80100B6B2C8F80860A1
:1036900088F8037098F80100002803D098F800001B
:1036A000A8F80600FFB2022F02D1002088F804001B
:1036B0004146200000F075FC0020BDE8F08170B5A7
:1036C00004000D00EDB2280609D5EDB215F07F001B
:1036D000282101FB004010F58C70060008E0EDB2D7
:1036E00015F07F00282101FB004010F55C700600FA
:1036F00015F07F003070C5F3C010707031002000ED
:1037000000F08CFC002070BD2DE9F04104000D009C
:1037100016001F00EDB215F07F00282101FB0040CC
:1037200010F55C708046C8F80C60BFB2C8F8147021
:103730000020C8F81800002088F8010015F07F006C
:1037400088F80000E078012801D1C8F8106098F8E6
:103750000000002804D14146200000F051FD03E0A4
:103760004146200000F086FC0020BDE8F0812DE9F4
:10377000F04104000D0016001F00EDB215F07F00AF
:10378000282101FB004010F58C708046012088F84C
:10379000010015F07F0088F80000C8F80C60C8F838
:1037A00010600020C8F81800C8F8147098F80000DD
:1037B000002804D14146200000F022FD03E04146EC
:1037C000200000F057FC0020BDE8F08170B5040037
:1037D0000D00EDB2280609D5EDB215F07F002821C5
:1037E00001FB004010F58C70060006E0EDB22820C9
:1037F00000FB054010F55C7006000120B07015F06C
:103800007F003070C5F3C010C0B210F001007070BE
:103810003100200000F08AFD002070BD70B504006A
:103820000D00EDB2280609D5EDB215F07F00282174
:1038300001FB004010F58C70060006E0EDB2282078
:1038400000FB054010F55C7006000020B07015F01C
:103850007F003070C5F3C010C0B210F0010070706E
:103860003100200000F086FD002070BD38B5040056
:103870000D00EDB2280606D5EDB215F07F0120004F
:1038800000F0C7F902E0200000F0E7F9002032BDA7
:1038900010B400231A00C9B261F30A1203691B684D
:1038A00013430469236010BC704738B504002069D5
:1038B0004068050055F0020520694560032001F0CD
:1038C00060F831BD00221100C2685FF0FF33536021
:1038D000C2685FF0FF33536151F0004151F4006161
:1038E000C2689161704770B582B00400002500265F
:1038F00000200090032001F038F8E0680069009093
:10390000761CDFF89803864201D300201DE0009862
:103910000028EFD500200600009850F0010000902C
:10392000E06800990161E06800690090761CDB485E
:10393000864205D2009810F00100C0B20028F2D1F2
:10394000032001F012F82800C0B276BDF0B50400E3
:103950000020E578002D1BD1002500269BB213F135
:10396000030C5FF0040E9CFBFEFC6546D2B214EB28
:10397000820CDCF8D0C067465FF0000C6646AE42B1
:1039800006D2D1F800C0C7F800C0761C091DF6E7C2
:10399000C0B2F0BD70B403000800002192B2D41C84
:1039A000042594FBF5F4D3F8D05000263100A14251
:1039B00004D22E680660491C001DF8E770BC7047F1
:1039C00070B40200002400200025D57001259570F8
:1039D00040259580C9B201290ED15FF0A0452C0089
:1039E0000125D57208251570042555704FF4A07572
:1039F000D580022515720DE0C9B200290AD1A84D63
:103A00002C000025D5720C251570062555704FF435
:103A1000A065D580D46014F50065156100252B00E4
:103A20005578AB420FD212EB830514EB431616F513
:103A30001066AE6112EB830514EB431616F5306683
:103A40006E655B1CECE714F58065556114F58865BF
:103A5000C2F8CC5000252B001578AB4209D212EBEE
:103A6000830514EB431616F5A066C5F890605B1C41
:103A7000F2E700252B001578AB420BD212EB830541
:103A80004FF4805606FB034616F58056C5F8D06005
:103A90005B1CF0E714F56065C2F80C51C0B270BC55
:103AA00070472DE9F843040000250020060000209F
:103AB000070000208146207A01282FD1E068806B22
:103AC000070037F48037607A002801D057F4801758
:103AD000E068876300200600E068C068060036F0F2
:103AE000400636F4800656F0100636F0080636F02A
:103AF000800636F4003636F40026E068C660200002
:103B0000FFF7F1FEE078012853D1052060F3440966
:103B100059F02009E068C0F808904AE0E068C06801
:103B2000060056F04006E068C6602000FFF7DBFEA6
:103B30000020070057F48037207A032801D157F47A
:103B4000003757F4802757F4002757F40017607A9E
:103B5000002801D057F48017E0688763142000F034
:103B600010FFE068C0680600207A032801D156F4EF
:103B70008036E068C660207A03281AD1E068006BBE
:103B80008046012060F39B6838F4000858F08058A4
:103B90002D2060F31648E068C0F83080C82000F09F
:103BA000F0FE58F40008E068C0F83080C82000F04B
:103BB000E8FEE07801280AD1E068806881460520A7
:103BC00060F3440959F02009E068C0F80890280023
:103BD000C0B2BDE8F28310B40100002000231A0037
:103BE00052F00102CB689B681343CC68A360C0B25B
:103BF00010BC704710B40100002000231A0052F0DE
:103C00000102CB689B689343CC68A360C0B210BC30
:103C10007047F8B504000D00002600270020009032
:103C2000009850F020000090009865F38A100090F2
:103C3000E06800990161E068006900907F1C174806
:103C4000874204D20098C0F34010C007F3D4032089
:103C500000F08BFE3000C0B2F2BD70B582B004003F
:103C60000025002600200090009850F010000090E1
:103C7000E06800990161E06800690090761C0748DF
:103C8000864204D20098C0F30010C007F3D403208A
:103C900000F06BFE2800C0B276BD0000410D0300AD
:103CA00000000440F8B504000D000026E068C0687C
:103CB000070037F0005737F08047EDB2012D02D1F1
:103CC00057F0005704E0EDB2002D01D157F08047C6
:103CD000E068C760322000F054FE3000C0B2F2BD90
:103CE000C068406910F00100704710B50400200062
:103CF000FFF7F6FF012801D0012000E00020C0B24C
:103D000010BD01000020CA6852691000CA6892699B
:103D10001040704703691B681A00C9B261F30102C1
:103D200003691A6070472DE9F84F040000208DF8F0
:103D3000000000200500002081460020824600206F
:103D4000834600200700D4F80C010021016020699F
:103D50000068814639F4C0592069C0F80090E07AC3
:103D600001282CD103212000FFF7D4FFE068802137
:103D70004162402060F31F4A802060F30F0AE06830
:103D8000C0F828A01AEB1A4060F30F0B802060F3F4
:103D90001F4BE068C0F804B11BEB1B40C0EA0B0BE3
:103DA0001FFA8BFBE068C0F808B11BEB1B4080B228
:103DB00050F0000B1FFA8BFBE068C0F80CB110212B
:103DC0002000FFF726FF2000FFF747FF20690021B2
:103DD000016120690021416120695FF0FF3181614B
:103DE00020690021C16100200600607886421FD250
:103DF00014EB8600806900680500002D06D50020C0
:103E0000050055F0804555F0006501E000200500F3
:103E100014EB86008069056014EB86008069002140
:103E2000016114EB86008069FF218160761CDCE76C
:103E300000200600607886421FD214EB8601496D8F
:103E400009680800002806D50021080050F08040CD
:103E500050F0006001E00021080014EB8601496D7C
:103E6000086014EB8601496D00220A6114EB86019B
:103E7000496DFF228A60761CDCE70020070057F4BA
:103E8000807720690069B843384321690861E07888
:103E9000012810D10020804658F0010858F002088F
:103EA000402060F38A0858F48038402060F3594875
:103EB0002069C0F83080200000F004F89DF8000070
:103EC000BDE8F28F70B50400002500200600E06810
:103ED00000218161E0685FF0FF3141612000FFF760
:103EE000F1FCE078002801D156F0100656F4006687
:103EF00056F4805656F4005656F4802656F40026A2
:103F000056F0080656F4801656F40016E0688069EC
:103F1000B0433043E16888612800C0B270BD010041
:103F200000200B699B681A00530813F00303002B51
:103F300005D0022B09D005D3032B03D007E00323C0
:103F4000180004E00223180001E001231800C0B2A9
:103F5000704770B40100002000252C000D69AD6889
:103F60002A008D692D682B00550815F00305002DDA
:103F700004D0022D05D001D3032D05D1DB0ADB02CD
:103F800002E0032565F30A038D692B6054F4807405
:103F90000D696D68A54325430E697560C0B270BC9C
:103FA0007047F0B4020000200026330000263400E1
:103FB0004E78012E0BD10E7812EB8606B6693500CD
:103FC000012691F90070BE4066F30F040AE00E78F6
:103FD00012EB8606766D3500012691F90070BE4021
:103FE00066F31F442E683300C3F3C036F6070DD4C2
:103FF0008E6866F30A03CE7866F39343CE8866F341
:10400000995353F0805353F400432B601669F669BB
:1040100026431769FE61C0B2F0BC7047F0B40200DD
:10402000002000263300002634004E78012E0BD1EC
:104030000E7812EB8606B6693500012691F90070FC
:10404000BE4066F30F040AE00E7812EB8606766D2A
:104050003500012691F90070BE4066F31F4433F429
:1040600000432B601669F669A6431769FE61C0B26A
:10407000F0BC70472DE9F04704000D0000265FF00A
:1040800000090020070000208246687801286BD1D3
:10409000287814EB8000806900680700287814EB0A
:1040A00080008069006982466869002807D15FEA5C
:1040B000DA4A5FEACA4A012060F3DC4A11E0686923
:1040C00060F3120A6869A9680818401EA968B0FB65
:1040D000F1F060F3DC4AE878012802D1012060F3B6
:1040E0005E7A287814EB80008069C0F810A0E07830
:1040F000012806D1287814EB800080692969416184
:1041000010E0E87801280DD0686900280AD0012065
:1041100095F90010884081462069406B59EA0000FB
:1041200021694863E87801280AD1206980688046BF
:104130005FEAC85002D457F0005701E057F08057AB
:1041400057F0806757F00047287814EB80008069AB
:104150000760E87801284FD16B699BB22A78E9683B
:104160002000FFF7F3FB47E0287814EB8000406D58
:1041700000680700287814EB8000406D00698246D3
:104180006869002806D1A86860F3120A012060F36C
:10419000DC4A0EE06869A9680818401EA968B0FBEF
:1041A000F1F060F3DC4ACAF3C940A968484360F300
:1041B000120A287814EB8000406DC0F810A0E07857
:1041C000012805D1287814EB8000406D29694161F0
:1041D000E878012807D16879002802D057F0005705
:1041E00001E057F0805757F0806757F00047287874
:1041F00014EB8000406D07603000C0B2BDE8F0876E
:10420000FCB40200002000250026330000260096A2
:104210004E78012E49D1966934002668330026690C
:1042200000964E69002E09D1009EF609F60100960F
:104230000126009F66F3D447009715E08E684F690A
:10424000BE4207D28E684E618E68009F66F30607F5
:10425000009704E04E69009F66F306070097012669
:10426000009F66F3D4470097009E2661D678012E02
:1042700005D10E7812EB8606B6690F69776153F0A7
:10428000806353F000432360D678002E4BD14E69F3
:10429000002E48D0012691F90070BE4035431669C2
:1042A000766B2E4317697E633DE00E7812EB86062F
:1042B000766D366833000E7812EB8606766D3669B9
:1042C00000964E69002E0AD18E68009F66F306079D
:1042D00000970126009F66F3D44700970BE08E6895
:1042E0004E618E68009F66F3060700970126009FC7
:1042F00066F3D44700970E7812EB8606766D009F22
:104300003761D678012E05D10E7812EB8606766DD0
:104310000F69776153F0806353F000430E7812EB1E
:104320008606766D3360C0B2F6BC704730B40200CA
:10433000002000252C004D78012D0ED10D7812EBB8
:104340008505AD692B001D682C00002C01D554F0AB
:10435000804454F400141C6009E00D7812EB8505CC
:104360006D6D2B001D682C0054F400141C60C0B24D
:1043700030BC704730B40200002000252C004D787E
:10438000012D05D10D7812EB8505AD692B0004E0F8
:104390000D7812EB85056D6D2B001D682C0034F433
:1043A0000014CD78032D02D0CD78022D01D154F028
:1043B00080541C60C0B230BC704701000A69926929
:1043C00010000A69D2691040000C70470200C9B29F
:1043D00012EB81035B6D9B68180013695B691840E1
:1043E000704701000A69926910000A69D269104099
:1043F00080B2704782B000210091009951F0404195
:1044000000910121009A61F3D44200921821009A90
:1044100061F306020092416D009A0A61C178012998
:104420000FD100221100426D00F2C8535361426D5A
:104430001268110051F000415FF080221100426DBE
:10444000116002B07047817A002911D003699B681E
:10445000190011F00103DBB2002B09D0D0F80C31A8
:104460001A0032F0020252085200D0F80C311A60E1
:10447000704738B50400012084F8120100200500BF
:10448000607885420BD214EB85008069FF21816042
:1044900014EB8500406DFF2181606D1CF0E7206901
:1044A0000021016120690021416120690021C16171
:1044B00020695FF0FF3181612000FFF7CEFB102102
:1044C0002000FFF7A6FB31BD2DE9F04104000D00EF
:1044D00016001F00DDF81880200000F0D5F920003C
:1044E00000F014F8C4F8E075C4F8E485C4F8E86591
:1044F0002900C9B22000FFF753F8D4F8E40500689A
:104500008047200000F01AFABDE8F0810100002089
:1045100070471CB5040000A9200000F031FD9DF893
:10452000000010F01F00C0B2002803D002280BD0FA
:1045300005D30EE000A9200000F02CFA10E000A93D
:10454000200000F065FA0BE000A9200000F088FAD6
:1045500006E09DF8000010F080012000FFF736F91A
:10456000002016BD70B504000D00EDB2002D34D151
:1045700014F55C70060094F8110103283DD1B06871
:10458000F169884217D2F069B168401AF061E078A9
:10459000012803D1B068F1684018F060F069B16893
:1045A000884201D2F26900E0B26892B2F16820005C
:1045B00000F077FD21E0D4F8E0050069002808D07C
:1045C00094F81201032804D12000D4F8E0150969F9
:1045D0008847200000F074FD0FE0D4F8E005806902
:1045E00000280AD094F81201032806D12900C9B284
:1045F0002000D4F8E02592699047002070BD70B586
:1046000004000D00EDB2002D46D114F58C700600AB
:1046100094F8110102284FD1B068F169884211D293
:10462000F069B168401AF061E078012803D1B06800
:10463000F1684018F060F26992B2F168200000F071
:1046400021FD39E0306AB168B0FBF1F201FB1200E4
:1046500000280FD1306AB16888420BD3306A716A82
:10466000884207D200220021200000F00BFD00202C
:10467000706221E0D4F8E005C068002808D094F802
:104680001201032804D12000D4F8E015C968884736
:10469000200000F027FD0FE0D4F8E0054069002875
:1046A0000AD094F81201032806D12900C9B22000CB
:1046B000D4F8E02552699047002070BD10B5040081
:1046C0000023402200212000FEF7BBFF00234022F0
:1046D00080212000FEF7B5FF012084F81201A078A8
:1046E000D4F8E41549688847002010BD10B50400CF
:1046F000D4F8E40500698047032084F81201002003
:1047000010BD10B50400042084F81201D4F8E405AB
:10471000C0688047002010BD10B50400D4F8E00543
:10472000C069002804D02000D4F8E015C969884782
:10473000002010BD38B504000D002900C9B22000CA
:10474000D4F8E02512689047D4F8E40580688047E3
:10475000002032BD38B504000D002900C9B2200088
:10476000D4F8E02552689047002032BD10B504000F
:104770002000D4F8E015096A8847002010BD10B564
:1047800004002000D4F8E015496A8847002010BDD5
:1047900030B400220F2311F00304E4B2A400A340BC
:1047A0001A00C9B28B100E4C54F823309343C9B28F
:1047B0008C100B4D45F82430C9B28B10084C54F8BE
:1047C0002330C0B211F00304E4B2A40010FA04F4E0
:1047D0002343C9B28C10024D45F8243030BC7047D9
:1047E000083801400021234A11008279002A36D07E
:1047F000204A126803689A431E4B1A601E4A1268C8
:1048000003689A431C4B1A60027989180A68036886
:104810001A430A60194A126803689A43174B1A60D0
:10482000174A126803689A43154B1A604279102A96
:104830000CD1124A126803681A43104B1A60104ACE
:10484000126803681A430E4B1A600EE0094A110001
:10485000427989180A6803681A430A6005E00279F8
:1048600089180A6803689A430A6070470549086016
:1048700070470000003C0140043C0140083C0140FE
:104880000C3C0140143C01401CB5040001210120F6
:10489000FDF7D2FD4FF4D850009003208DF80500AD
:1048A00002208DF8040000208DF8060000208DF80D
:1048B000070000A92048FDF763FB0A2208211E48D3
:1048C000FDF7CBFB0A2209211B48FDF7C6FB0A2294
:1048D0000B211948FDF7C1FB0A220C211648FDF7F0
:1048E000BCFB4FF48060009001208DF80600012091
:1048F0008DF8070003208DF8050000A90E48FDF78C
:104900003FFB0A220A210C48FDF7A7FB01214FF4C7
:104910008040FDF7BEFD01218020FDF79CFD0121B7
:104920005FF08050FDF7C4FD01210020FEF760FA22
:104930000120FFF79BFF13BD0000024010B582B0BD
:1049400004004FF4C060FDF7E7FD43208DF8000040
:1049500001208DF8010003208DF8020001208DF860
:10496000030000A8FDF7DDFD13BD0021782202FB46
:1049700000F20723B2FBF3F2491C8A4200D3FBE7A3
:10498000704710B504004FF47A7000FB04F0FFF795
:10499000ECFF10BD70B504000D00002668780028FB
:1049A00020D0012828D0032821D005280BD00628A4
:1049B00004D0082811D009280AD022E029002000BC
:1049C00000F003F921E02900200000F099F91CE033
:1049D0002900200000F0C4F917E02900200000F0B1
:1049E00022FA12E02900200000F041FA0DE029002F
:1049F000200000F063FA08E02900200000F0A3FA8C
:104A000003E02900200000F0DDFA3000C0B270BDE4
:104A100070B504000D00002694F81201032818D187
:104A2000A888C0B202280FD229002000D4F8E025BF
:104A300092689047E88800280AD1F6B2002E07D184
:104A4000200000F03DFB03E02900200000F0BAFA4E
:104A500003E02900200000F0B5FA3000C0B270BDBC
:104A6000F8B504000D000027A88806006878002823
:104A700064D0012832D0032840F0A48094F81201B9
:104A8000022802D003280CD023E0F6B2002E07D073
:104A9000F6B2802E04D03100C9B22000FEF796FE97
:104AA0001BE0688800280AD1F6B2002E07D0F6B2C3
:104AB000802E04D03100C9B22000FEF787FE290005
:104AC0002000D4F8E02592689047200000F0F8FA22
:104AD00003E02900200000F075FA73E094F8120159
:104AE000022802D003280CD023E0F6B2002E07D013
:104AF000F6B2802E04D03100C9B22000FEF766FE67
:104B00001BE06888002813D1F6B2002E0DD0F6B253
:104B1000802E0AD03100C9B22000FEF77FFE2900A6
:104B20002000D4F8E02592689047200000F0C8FAF1
:104B300003E02900200000F045FA43E094F8120158
:104B4000022802D003280CD037E0F6B2002E07D09E
:104B5000F6B2802E04D03100C9B22000FEF736FE36
:104B60002FE0F6B2300611D5F6B216F07F002821FC
:104B700001FB004090F81A01002803D0CB48012126
:104B8000016014E0C9480021016010E030060ED435
:104B9000F6B2282000FB064090F87203002803D0EC
:104BA000C2480121016002E0C048002101600222E8
:104BB000BE49200000F04EFA03E02900200000F07A
:104BC00001FAFFE73800C0B2F2BD70B582B0040050
:104BD0000D00688880B2000AC0B2012808D00228FF
:104BE00018D0032822D0062862D0072865D069E0B3
:104BF00000A9A078D4F8E825126890470600E88854
:104C0000402803D094F81201012802D10820ADF801
:104C100000005CE000A9A078D4F8E025926A9047F3
:104C2000060002207070C4F8EC6550E0A8780028F7
:104C300008D0022816D00DD3042823D01AD3052873
:104C400028D02FE000A9A078D4F8E8255268904732
:104C500006002CE000A9A078D4F8E82592689047D7
:104C6000060024E000A9A078D4F8E825D26890478F
:104C700006001CE000A9A078D4F8E8251269904746
:104C8000060014E000A9A078D4F8E82552699047FE
:104C900006000CE000A9A078D4F8E82592699047B6
:104CA000060004E02900200000F08CF927E00EE067
:104CB0002900200000F086F921E02900200000F002
:104CC00081F91CE02900200000F07CF917E0BDF814
:104CD0000000002813D0E888002810D0BDF800009C
:104CE000E988884202D2BDF8000000E0E888ADF80B
:104CF0000000BDF800203100200000F0ABF973BDCA
:104D000070B504000D00A888002824D1E888002888
:104D100021D1A87810F07F00060094F81201032832
:104D200004D12900200000F04DF918E084F8136147
:104D30003100C9B22000FEF7ABFD200000F0C0F941
:104D4000F6B2002E03D0022084F8120107E0012001
:104D500084F8120103E02900200000F033F970BD4F
:104D600038B504000D006888514908705048007833
:104D7000022804D32900200000F024F952E094F81E
:104D80001201022802D0032818D047E048480078D2
:104D900000280FD04648007884F81001032084F8DA
:104DA0001201434801782000FFF7C4FC200000F006
:104DB00087F902E0200000F083F933E03C480078F6
:104DC00000280FD1022084F812013948007884F8B5
:104DD0001001374801782000FFF7BCFC200000F0EC
:104DE0006FF91AE03248007894F81011884211D017
:104DF00094F810112000FFF7ADFC2D48007884F8DE
:104E000010012B4801782000FFF794FC200000F0EF
:104E100057F902E0200000F053F903E029002000D8
:104E200000F0D0F831BD38B504000D00E888012845
:104E300004D02900200000F0C5F817E094F8120112
:104E4000022802D0032806D00CE0012219492000D4
:104E500000F000F90AE0012214F58871200000F04A
:104E6000F9F803E02900200000F0ACF831BD38B5B6
:104E700004000D0094F81201801E012810D8D4F807
:104E80001401002803D00C480321016002E00A4805
:104E90000121016001220849200000F0DBF803E055
:104EA0002900200000F08EF831BD000040080020ED
:104EB000630800204408002048080020F8B50400DA
:104EC0000D000027688801280CD10120C4F81401C6
:104ED00029002000D4F8E02592689047200000F0D7
:104EE000EFF82FE0688802282CD12879000629D114
:104EF000206940680600A88880B2000A0700FFB257
:104F0000012F07D019D3032F0CD007D3052F11D0B1
:104F10000CD312E0012060F306160EE0022060F3CD
:104F200006160AE0032060F3061606E0042060F38C
:104F3000061602E0052060F3061620694660200090
:104F400000F0BEF8F1BD38B504000D0094F8120170
:104F5000801E01280FD8688801280BD10020C4F8D2
:104F6000140129002000D4F8E02592689047200021
:104F700000F0A6F803E02900200000F023F831BD7E
:104F800090F8C8250A7090F8C9254A7090F8CA258B
:104F900090F8CB351B029A184A8090F8CC2590F8EF
:104FA000CD351B029A188A8090F8CE2590F8CF351F
:104FB0001B029A18CA80CA88C0F83C21012280F8D6
:104FC0001121704738B504000D002878000604D57B
:104FD00080212000FEF7FAFB0BE0E888002804D1CE
:104FE00080212000FEF7F2FB03E000212000FEF705
:104FF000EDFB2000FFF7FEF931BDF8B504000D0010
:1050000016000027002C1AD0200000F019F84000EC
:10501000801C3080FFB2308878557F1CFFB203209F
:1050200078557F1C2078002809D0FFB22078785569
:10503000641C7F1CFFB2002078557F1CF2E7F1BD95
:10504000010000200A78002A02D0401C491CF9E720
:10505000C0B27047F8B504000D0016000027B6B2C4
:10506000C4F83861B6B2C4F83461022084F8110182
:10507000B6B233002A0000212000FEF778FB38008A
:10508000C0B2F2BDF8B504000D0016000027B6B29C
:1050900033002A0000212000FEF769FB3800C0B26F
:1050A000F2BDF8B504000D001600002733009BB2D6
:1050B0002A0000212000FEF727FB3800C0B2F2BD15
:1050C00038B504000025042084F8110100230022D3
:1050D00000212000FEF74BFB2000FFF78BF9280092
:1050E000C0B232BD38B504000025052084F8110196
:1050F0000023002200212000FEF706FB2000FFF71E
:1051000079F92800C0B232BD70B504000026200035
:10511000FEF7EBFD002869D02000FEF7F2FD050048
:10512000002D01D1002062E0C5F3C040C00704D5C6
:10513000200000F058F930430600C5F38040C00756
:1051400004D5200000F0B1F830430600C5F340005C
:10515000C00705D50021080050F00200E168486151
:10516000002D04D5200000F043F830430600C5F3BD
:10517000C020C00704D5200000F060F830430600CE
:10518000C5F3C000C00704D5200000F0A7F93043E4
:105190000600C5F30010C00704D5200000F0ADF9EB
:1051A00030430600C5F30030C00704D5200000F0EE
:1051B00046FA30430600C5F34030C00704D520004E
:1051C00000F0A6FA30430600C5F30050C00704D52E
:1051D000200000F0C4FA30430600C5F34050C00779
:1051E00004D5200000F0CAFA30430600300070BD3C
:1051F000F8B50400A07A002809D0D4F80C01060004
:1052000036F0020676087600D4F80C01066000201D
:10521000070057F0010720694068B84321694860DA
:105220002000DFF8781509688969884700200500A3
:1052300055F00045E06845610120F2BDF8B5040075
:105240002000DFF858150968496988472069806897
:1052500007000020050055F40065E0684561A07A6C
:10526000002820D017F00100C0B200281BD0002079
:10527000060056F00106D4F80C0100683043D4F85B
:105280000C11086056F00206D4F80C010068304397
:10529000D4F80C110860DFF80805006850F006002B
:1052A000DFF8FC1408600120F2BD2DE9F041040094
:1052B0000027002005002000FFF793F80600002ECD
:1052C00000F08E80F00740F188803900C9B22000DC
:1052D00000F068FA050015F00100C0B2002824D0E3
:1052E0000120B84080462069406B30EA08002169FF
:1052F00048630020050055F0010514EB8700806924
:1053000085603900C9B22000DFF890241268526825
:105310009047E078012808D1002F06D194F81101B8
:10532000042802D12000FFF765F8C5F38000C0070C
:1053300007D50020050055F0040514EB87008069AF
:105340008560C5F3C000C00707D50020050055F0F3
:10535000080514EB870080698560C5F30010C0075D
:1053600007D50020050055F0100514EB8700806973
:105370008560C5F34010C00707D50020050055F033
:10538000200514EB870080698560C5F38010C00795
:1053900007D50020050055F0400514EB8700806913
:1053A0008560C5F34000C00707D50020050055F013
:1053B000020514EB870080698560C5F3C010C00743
:1053C0000BD53900200000F0EAF80020050055F068
:1053D000800514EB8700806985607F1C76086EE786
:1053E0000120BDE8F0812DE9F04104005FF00008E4
:1053F000002006002000FEF7E0FF0500002D6AD027
:10540000E80764D54146C9B22000FEF7DFFF060079
:1054100016F00100C0B2002830D00020060056F07F
:10542000010614EB8800406D8660E078012811D1F8
:1054300014EB8800406D00690700282000FB08403D
:10544000D0F878037903490B401A282101FB084161
:10545000C1F888034146C9B22000D04A12681268D8
:105460009047E078012809D1B8F1000F06D194F8EF
:105470001101052802D12000FEF7BCFFC6F3400051
:10548000C00707D50020060056F0020614EB88007E
:10549000406D8660C6F38000C00707D50020060077
:1054A00056F0040614EB8800406D8660C6F3C00019
:1054B000C0070CD52000B9490968896888470020D1
:1054C000060056F0080614EB8800406D866018F15F
:1054D00001086D0892E70120BDE8F08138B50400AD
:1054E0002000AE490968C96888470020050055F0CA
:1054F0000805E0684561012032BDF8B504000020D0
:10550000070057F01007E0688069B843E1688861D8
:10551000E068006A050015F00F00282101FB00403B
:1055200010F55C700600680C10F00F00012808D020
:10553000022807D003281DD004281CD006281BD021
:1055400026E025E028094005400D80B2002810D053
:10555000C5F30A1292B2F1682000FEF71BFAC5F3F8
:105560000A10F1684018F060B069C5F30A11081814
:10557000B0610DE00CE00BE0082214F5B9612000E9
:10558000FEF708FAB069C5F30A110818B061FFE721
:10559000E06880693843E16888610120F2BD2DE947
:1055A000F84304000D005FF00008002006002820EA
:1055B00000FB054010F58C7007007869B969401A46
:1055C0008046B868404501D2B868804618F10300AB
:1055D0008008814614EB8500806980690600B0B2BE
:1055E000814529D2B8697969884225D2786900282D
:1055F00022D07869B969401A8046B868404501D21E
:10560000B868804618F103008008814643469BB283
:105610002A00D2B2F9682000FEF798F9F86818EB72
:105620000000F860B86918EB0000B86114EB850061
:10563000806980690600D2E70120BDE8F2832DE988
:10564000F84F0400002081460020050000200600DD
:1056500000200700002080460020824659F0010902
:105660002069406830EA0900216948600021200073
:10567000FEF7CFFA00208346607883450CD214EB06
:105680008B008069FF21816014EB8B00406DFF214E
:1056900081601BF1010BEFE720695FF0FF31816151
:1056A000012060F30F05012060F31F452069C561EB
:1056B00056F0080656F0010656F0040656F00206AB
:1056C0002069466157F0010757F0080757F00207B5
:1056D00057F0040757F02007206907612069006828
:1056E000804638F4FE682069C0F800802000FEF78C
:1056F00081FE002082465AF4805AE068C0F814A067
:10570000200026490968096988470120BDE8F28F11
:1057100070B504002000FEF71CFCE068C0680600BD
:105720002000FEF7FCFB032808D10020A0704FF4F6
:105730000070A080092060F38D2606E00120A07093
:105740004020A080052060F38D26E068C660002020
:10575000050055F40055E0684561012070BD38B57D
:1057600004000020050020000C490968C969884729
:1057700055F48015E0684561012032BD38B504005C
:1057800000200500200005490968096A884755F48A
:105790000015E0684561012032BD00007001002065
:1057A00010ED00E030B4020015692D692C00156978
:1057B0006D6B2B0033FA01F515F0010554EAC514A1
:1057C000C9B212EB8105AD69AD682540280030BC37
:1057D000704700007047FEE7FEE7FEE7FEE7704710
:1057E0007047704770B5002696480078002802D1AF
:1057F000FDF763FACDE000F0EFF8040060780028D0
:1058000002D1A078002804D0042221008E4800F0A4
:10581000B8F98E480078401C8C4908708B48007895
:105820000A2840F0B6808A4800210170884800218B
:105830008170002200218748FDF7A2FE002204218A
:105840008448FDF79DFE002208218248FDF798FE5E
:1058500000220C217F48FDF793FE062229217C4877
:10586000FCF7F7FE7A4800787B4991F90010401A5E
:105870007749087076488078784991F90010401A85
:1058800073498870724890F9000040B2002805D52D
:105890006F4890F9000040B2454201E06C4805783D
:1058A0006B4890F9020040B2002805D5684890F98D
:1058B000020040B2464201E065488678EDB2F6B299
:1058C000B54201D2300000E0280065490870644804
:1058D000007800285AD05E4890F9000040B210F1DC
:1058E000020F0DDA01220C215A48FDF749FE4FF450
:1058F0007A705B49097890FBF1F15648FDF718FE84
:10590000534890F9000040B203280DDB0122042126
:105910005048FDF735FE4FF47A705149097890FBF5
:10592000F1F14C48FDF700FE494890F9020040B201
:1059300003280DDB012200214648FDF721FE4FF42C
:105940007A704749097890FBF1F14248FDF7EAFD8A
:105950003F4890F9020040B210F1020F0DDA012227
:1059600008213C48FDF70CFE4FF47A703C49097859
:1059700090FBF1F13748FDF7D9FD40F2CF7038497F
:10598000097890FBF1F13348FDF7A1FC2F48002185
:10599000017070BD80B53348012101700120FEF710
:1059A00065FF01BD80B52848807A00280AD02E48BE
:1059B000006830F006002C49086000F00FF922481A
:1059C000FEF741FD5FF48020FEF750FF01BD80B57A
:1059D0001D48FFF799FB01BD244800214170234871
:1059E000002181701A4890F9020040B210F1020FB4
:1059F00004DA1E484078C01D1C494870144890F9CC
:105A0000020040B2032804DB18484078C01F174941
:105A100048700F4890F9000040B210F1020F04DA0C
:105A200012488078C01D11498870094890F900001B
:105A300040B2032804DB0D488078C01F0B498870F2
:105A40000A4870475A0800207C01002061080020A5
:105A500018080020000800405C0800205D080020B5
:105A6000620800205B08002010ED00E030080020F4
:105A700038B504000D000323042281212000FDF726
:105A8000E0FD0323042201212000FDF7DAFD0020C0
:105A900032BD38B504000D0081212000FDF70FFE56
:105AA00001212000FDF70BFE002032BDF8B50400F7
:105AB0000D0000260027287810F06000C0B20028F2
:105AC00028D020285BD16878022816D0032807D078
:105AD0000A280BD00B2816D1A8783549086018E0A1
