:100000000C9433060C94B1940C94DE940C94A416C6
:100010000C94C8160C94EC160C945B060C940A9283
:100020000C945B060C945B060C945B060C94E31B2F
:100030000C945B060C945B060C945B060C945B06BC
:100040000C94079F0C945B060C94F9870C944088E1
:100050000C945B060C945B060C945B060C945B069C
:100060000C941A110C945B0600C2010001001100EF
:1000700011000C0000E100000A002500250021000D
:10008000009600001900390039003600127A00008D
:100090001F004600460044008070000022004D0012
:1000A0004D004A00004B00003600750075007200DC
:1000B000403800004A009C009C0099008025000008
:1000C0007200EC00EC00E900C0120000E900DA0167
:1000D000DA01D70160090000D701B603B603B30304
:1000E000B0040000B3036E076E076B072C0100001D
:1000F000DC0EC11DC11DBE1D7C3C3E5E2B3D3F2F55
:100100005B5D3B2C2A225C0053756E004D6F6E00C8
:10011000547565005765640054687500467269003F
:100120005361740000000000000000004A616E008E
:10013000466562004D617200417072004D61790048
:100140004A756E004A756C00417567005365700012
:100150004F6374004E6F760044656300000000003A
:100160000000000000000000000401010000000089
:100170000000010004040101040001010404010065
:100180000400000000000100000400000004010160
:100190000404010100040000040400010400010142
:1001A000000000010400000004040000000400013D
:1001B000000400010004010000040100000001012E
:1001C000000001010404000104000100040000011A
:1001D000040000010400010000000000040400000D
:1001E00004040100000000010000010004040101FA
:1001F00004000000000001010004010100000001F2
:1002000000000001000400000400010100000100E2
:1002100000040100040000010004000004000000CC
:1002200004040001040401000404010104000100AD
:1002300000000101040400010400000104040000A6
:100240000404010000040101040400000004000192
:10025000000400010000000004000100000401008F
:100260000000000004000101208010800080008058
:10027000008000002080100000001000200000001E
:1002800020001080208000802000008020801080CE
:1002900000801080000000800080008000001000BE
:1002A00020000000200010800080100020001000BE
:1002B000208000800000000000000080008000001E
:1002C000208010000000108020001000200000801E
:1002D00000000000008010002080000000801080DE
:1002E000000010802080000000000000208010002E
:1002F000200010800000100020800080000010808E
:1003000000801080008000000000108000800080CD
:1003100020000000208010802080100020000000BD
:10032000008000000000008020800000008010801D
:1003300000001000200000802000100020800080BD
:10034000200000802000100000801000000000004D
:1003500000800080208000000000008020001080CD
:1003600020801080008010000802000000020208B7
:100370000000000008000208000200080000000061
:10038000080202000002000808000200080000083D
:10039000080000080000020008020208080002002D
:1003A0000000020808020000000000080800000029
:1003B0000002020800020000000202000000020821
:1003C00008000208080202000802000800020200F9
:1003D00000000200080200080800000008020208ED
:1003E00000020000000000080002020800000008EF
:1003F00008000200080200000000020000020208DB
:1004000000020008000000000002000008000200D6
:1004100008020208000200080800000800020000AC
:1004200000000000080002080802000800000200A6
:10043000000000080802020808000000080202008C
:10044000000202000800000800000208080200087C
:100450000802000000000208080202000800000074
:100460000800020800020200012080008120000034
:10047000812000008000000080208000810080003A
:10048000010080000120000000000000002080002A
:10049000002080008120800081000000000000001A
:1004A00080008000010080000100000000200000AA
:1004B000000080000120800080000000000080001B
:1004C0000120000080200000810080000100000069
:1004D000802000008000800000200000802080003C
:1004E00081208000810000008000800001008000E9
:1004F00000208000812080008100000000000000BA
:1005000000000000002080008020000080008000AB
:100510008100800001000000012080008120000097
:100520008120000080000000812080008100000008
:1005300001000000002000000100800001200000F8
:1005400080208000810080000120000080200000C9
:10055000000080000120800080000000000080007A
:10056000002000008020800000010000000108023F
:100570000000080200010042000008000001000025
:1005800000000040000008020001084000000800D0
:100590000001000200010840000100420000084282
:1005A00000010800000000400000000200000840B8
:1005B0000000084000000000000100400001084267
:1005C0000001084200010002000008420001004052
:1005D00000000000000000420001080200000002CC
:1005E0000000004200010800000008000001004275
:1005F00000010000000000020000004000000802AE
:10060000000100420001084000010002000000401B
:10061000000008420001080200010840000100003B
:10062000000000020000084200010842000108002A
:100630000000004200010842000008020000000023
:100640000000084000000042000108000001000214
:100650000001004000000800000000000000084009
:1006600000010802000100401000002000004020AE
:10067000004000001040402000004020100000001A
:10068000104040200000400000400020104040008A
:10069000000040001000002010004000004000203A
:1006A000000000201040000000000000100040008A
:1006B000104000200040000000404000104000209A
:1006C000100000001000402010004020000000003A
:1006D000104040000040402010400000004040001A
:1006E00000404020000000200040002010000000DA
:1006F000100040200040400010404020000040001A
:1007000010400000100000200000400000400020C9
:100710000000002010400000100000201040402089
:1007200000404000000040201040400000404020B9
:1007300000000000100040201000000000400000F9
:100740000000402010404000004000001000400029
:100750001040002000000000004040200000002069
:100760001000400010400020000020000200200483
:100770000208000400000000000800000208000455
:1007800002082000000820040208200400002000C5
:10079000000000000200000402000000000000044D
:1007A00002002004020800000008000402082000E3
:1007B00002002000000800040200000400002004E1
:1007C00000082004020020000000200400080000AF
:1007D00002080000020820040008200002000000B7
:1007E00000000004000820000000000400082000B1
:1007F0000000200002080004020800040200200497
:10080000020020040200000002002000000000049A
:100810000008000400002000000820040208000076
:100820000208200000082004020800000200000462
:10083000020820040000200400082000000000003E
:10084000020000000208200400000000020820004E
:10085000000020040008000002000004000800045A
:1008600000080000020020004010001000100000EE
:1008700000000400401004100000001040100010A0
:1008800040000000000000104000040000000410C0
:100890004010041000100400001004104010040068
:1008A0000010000040000000000004104000001094
:1008B0000010001040100000001004004000040070
:1008C0004000041000100410401000000000000060
:1008D0000000000040000410400000100010001054
:1008E0004010040000000400401004000000040058
:1008F0000010041000100000400000004000041030
:100900000010000040100400001000104000000023
:10091000400000100000041040000410000000100F
:1009200000000400401000100000000040100410FF
:1009300040000400400000100000041000100010EF
:1009400040100010000000004010041000100400CF
:10095000001004004010000040100000400004009F
:100960000000001000100410000000000100000052
:100970000001000001010000000001000100010071
:10098000000101000101010000000001010000015F
:10099000000100010101000100000101010001014D
:1009A000000101010101010100000000000000013F
:1009B0000000010000000101000100000001000131
:1009C000000101000001010101000000010000011F
:1009D000010001000100010101010000010100010D
:1009E0000101010001010101637C777BF26B6FC59E
:1009F0003001672BFED7AB76CA82C97DFA5947F022
:100A0000ADD4A2AF9CA472C0B7FD9326363FF7CCFD
:100A100034A5E5F171D8311504C723C31896059A9A
:100A2000071280E2EB27B27509832C1A1B6E5AA0BD
:100A3000523BD6B329E32F8453D100ED20FCB15BA8
:100A40006ACBBE394A4C58CFD0EFAAFB434D338511
:100A500045F9027F503C9FA851A3408F929D38F5E5
:100A6000BCB6DA2110FFF3D2CD0C13EC5F9744171C
:100A7000C4A77E3D645D197360814FDC222A908893
:100A800046EEB814DE5E0BDBE0323A0A4906245C1F
:100A9000C2D3AC629195E479E7C8376D8DD54EA984
:100AA0006C56F4EA657AAE08BA78252E1CA6B4C650
:100AB000E8DD741F4BBD8B8A703EB5664803F60EA9
:100AC000613557B986C11D9EE1F8981169D98E9498
:100AD0009B1E87E9CE5528DF8CA1890DBFE64268B1
:100AE00041992D0FB054BB1652096AD53036A5383E
:100AF000BF40A39E81F3D7FB7CE339829B2FFF8706
:100B0000348E4344C4DEE9CB547B9432A6C2233DE9
:100B1000EE4C950B42FAC34E082EA16628D924B29A
:100B2000765BA2496D8BD12572F8F66486689816BB
:100B3000D4A45CCC5D65B6926C704850FDEDB9DA1A
:100B40005E154657A78D9D8490D8AB008CBCD30A08
:100B5000F7E45805B8B34506D02C1E8FCA3F0F02E4
:100B6000C1AFBD0301138A6B3A9111414F67DCEAB3
:100B700097F2CFCEF0B4E67396AC7422E7AD35852C
:100B8000E2F937E81C75DF6E47F11A711D29C58936
:100B90006FB7620EAA18BE1BFC563E4BC6D2792018
:100BA0009ADBC0FE78CD5AF41FDDA8338807C73121
:100BB000B11210592780EC5F60517FA919B54A0D19
:100BC0002DE57A9F93C99CEFA0E03B4DAE2AF5B08E
:100BD000C8EBBB3C83539961172B047EBA77D626AA
:100BE000E169146355210C7D010204081020408046
:100BF0001B366CD8AB0200000000240027002A003E
:100C000000000000250028002B0000000000230049
:100C1000260029000404040404040404020202025D
:100C200002020303030303030102040810204080AF
:100C3000010204081020010204081020000000072F
:100C40000002010000030406000000000000000094
:100C5000400768131023A355C15CFC5FFE61D76396
:100C6000C5658C8AF48A11241FBECFEFD8E0DEBFA1
:100C7000CDBF16E0A0E0B1E0ECE5FEE502C00590D6
:100C80000D92AC39B107D9F71EE0ACE9B6E001C06E
:100C90001D92A235B107E1F71CE0C6E6DCE004C016
:100CA0002297FE010E9424AAC035D107C9F70E94ED
:100CB0002C100C942CAF0C940000DC011C96ED91D0
:100CC000FC911D97A081B1812D913C91CF01F9013B
:100CD00009950895DC011C96ED91FC911D97A0816A
:100CE000B18114962D913C911597CF01F901099589
:100CF0000895DC011C96ED91FC911D97A081B181B6
:100D000016962D913C911797CF01F90109950895F9
:100D1000DC011C96ED91FC911D97A081B181189684
:100D20002D913C911997CF01F90109950895DC01A6
:100D30001C96ED91FC911D97A081B1811A962D9181
:100D40003C911B97CF01F901099508956F927F920D
:100D50008F929F92AF92BF92CF92DF92EF920F93BA
:100D60001F93CF93DF93EC013A014B01FC01E0505C
:100D7000FF4FCE5FDE4F8081918148815981C25003
:100D8000D140840F951F68E070E00E9487A945E07C
:100D9000880F991F4A95E1F7DE01A80FB91F6D92E0
:100DA0007D928D929C921397FC01DE01A80FB91FD2
:100DB00014960D931D932D933C931797EC0FFD1FE5
:100DC000E086DC011996AC0FBD1F20E030E0F60193
:100DD000E20FF31F80818C93F501E20FF31F8081F6
:100DE0001A968C931A972F5F3F4F11962830310532
:100DF00071F7FE01E050FF4F8081918188309105AD
:100E000059F4FE01EE5FFE4F80819181019668E00A
:100E100070E00E9487A901C0019691838083DF91D1
:100E2000CF911F910F91EF90DF90CF90BF90AF9037
:100E30009F908F907F906F900895FC01CB01EE5FA3
:100E4000FE4F20813181E250F140820F931F68E014
:100E500070E00E9487A955E0880F991F5A95E1F725
:100E6000E80FF91FCF010895DC018FEF8C931196E5
:100E70001C921197129688E01D928A95E9F70895C1
:100E80000F9386E699E060E040E020E000E00E94F9
:100E9000E88A8CE996E064E242E027E00E941B4D7C
:100EA00085E097E00E94340783E198E060EC48EA2F
:100EB00021E001EB0E94E88A89E198E060EC48EAD1
:100EC00021E001E00E94E88A8FE198E06FEF4FEFA8
:100ED0002FEF00E00E94E88A85E298E062ED74E07E
:100EE0000E94DC6110922E0810922D0888EE93E08B
:100EF000A0E0B0E080932F0890933008A0933108D1
:100F0000B093320884E593E090932C0880932B08EB
:100F100084E09EE0909338088093370889E398E056
:100F20000E94915F89E080934D0861E00E94DFA0FC
:100F300084E0809360081092620810926308109217
:100F400066081092680882E090E0A0E0B0E080932C
:100F5000690890936A08A0936B08B0936C0810928C
:100F6000800810928A08109289082EED33E03093A1
:100F700088082093870810928C088093A608909385
:100F8000A708A093A808B093A9081092BD081092D2
:100F9000C7081092C6083093C5082093C408109261
:100FA000C90881EE98E068E00E944C250F910895F1
:100FB0008F929F92AF92BF92CF92DF92FF920F9348
:100FC0001F93DF93CF93CDB7DEB72C970FB6F8946E
:100FD000DEBF0FBECDBFFF2400E010E068EEA62EFE
:100FE00063E0B62EC12CD12C4E010894811C911CBB
:100FF0008CE996E00E946E4C882371F0A982BA8237
:10100000CB82DC828CE996E062EE78E0A4010E945B
:101010001046F82E8823D1F464EF71E080E090E070
:101020000E94839F0F5F1F4F0330110509F492C088
:10103000DFCF84E09EE060E071E00E941A8E84E0E1
:101040009EE06AE00E94228C80E072C084E09EE014
:101050006DE171E00E941A8E84E09EE06091E208EA
:101060000E94228C84E09EE06CE271E00E941A8E65
:1010700084E09EE06091E3084AE050E00E94648DC5
:1010800084E09EE06EE20E94228C84E09EE060910B
:10109000E4084AE050E00E94648D84E09EE06AE04B
:1010A0000E94228C8CE996E061E044E121E00E94FC
:1010B000114C882311F188EE93E0A0E0B0E08D831D
:1010C0009E83AF83B8878CE996E062EE78E0AE014C
:1010D0004B5F5F4F0E941046882379F08091F106A4
:1010E000883059F484E09EE06DE371E00E941A8E2E
:1010F00084E09EE06AE00E94228C8CE996E06CEF2E
:1011000072E042E00E94EF4788EE93E0A0E0B0E09A
:1011100089879A87AB87BC878CE996E062EE78E096
:10112000AE01475F5F4F0E9410461092040781E0B6
:101130002C960FB6F894DEBF0FBECDBFCF91DF91D6
:101140001F910F91FF90DF90CF90BF90AF909F9035
:101150008F900895FF2009F079CF6BCFCF93DF9365
:1011600086E29BE060E070E00E9445258E39B9F48C
:1011700086E29BE061E070E00E944525882379F0DB
:10118000C2E0D0E086E29BE0BE010E944525FE0160
:10119000E85BFC4F80832196C830D10599F7DF9139
:1011A000CF910895AF92BF92CF92DF92EF92FF92CC
:1011B0000F931F93DF93CF93CDB7DEB7AD970FB6E5
:1011C000F894DEBF0FBECDBFDE011B96E7E7F3E06C
:1011D00088E001900D928150E1F70E944F9F20918D
:1011E00058083091590840915A0850915B082B5784
:1011F0003F4F4F4F5F4F261737074807590708F0F3
:1012000044C080914E0890914F08A0915008B09131
:1012100051088B839C83AD83BE838DE498E00E944C
:10122000BA448DE498E00E94A04440914E08509149
:101230004F0860915008709151088B819C81AD815D
:10124000BE8184179507A607B707F9F08BE298E0EF
:1012500020E130E00E94948D8BE298E06FE471E031
:101260000E941A8E40915208509153086091540880
:10127000709155088BE298E020E130E00E94948D57
:101280008BE298E06AE00E94228C0E944F9F60935C
:101290006209709363098093640990936509809152
:1012A0000407813009F454C0813038F0823009F4E9
:1012B000F6C0833009F0DCC15AC10E944F9F2091D3
:1012C000FC063091FD064091FE065091FF062B5919
:1012D0003F4F4F4F5F4F621773078407950708F41E
:1012E000C9C1809105078F3FB9F00E944F9F20919F
:1012F00000073091010740910207509103072857DA
:101300003C4E4F4F5F4F261737074807590720F4C9
:1013100085E097E00E9434078CE996E061E041E0C7
:1013200028E433E0009147030E945F4B882361F07B
:101330000E944F9F6093FC067093FD068093FE060B
:101340009093FF0681E001C084E08093040792C17E
:101350008CE996E00E946E45882309F48BC18CE9E4
:1013600096E062EE78E00E949B46982F8091F1060D
:10137000883051F7992309F47BC19091050780913A
:10138000F2069817E1F44091F30687E097E064EFE6
:1013900076E050E00E94D9AD009789F410920407DE
:1013A0000E944F9F68517C4F8F4F9F4F6093FC0668
:1013B0007093FD068093FE069093FF065BC182E06A
:1013C000809304074091F3068091F206809305070D
:1013D0004093060727E037E0E4EFF6E0C901BF01DC
:1013E00050E00E94E6AD809105078131B9F082316D
:1013F00018F4803111F505C08231A9F08F3FE9F46E
:1014000017C08BE298E061E571E00E941A8E17E048
:10141000C12E17E0D12E00E010E035C08BE298E03D
:1014200068E571E0F2CF8BE298E064E671E0EDCF21
:101430008BE298E060E771E0E8CF8BE298E066E746
:1014400071E0E3CF8BE298E060E20E94228CF6012B
:10145000608170E0B4E075956795BA95E1F78BE22D
:1014600098E040E150E00E94E88DF60161916F0143
:1014700070E06F7070708BE298E040E150E00E9485
:10148000E88D0F5F1F4F8091060790E0081719073E
:10149000CCF28BE298E06AE00E94228CEBC0809153
:1014A000F2068031C1F0813109F045C08CE996E047
:1014B00062EE78E04EEF50E00E94ED49882309F497
:1014C00045C08CE996E06BE87AE10E94C2498F5FE3
:1014D0009F4F11F53BC08CE996E064E070E040E777
:1014E00053E00E94BE4A882389F188EE93E0A0E091
:1014F000B0E08F839887A987BA878CE996E062EE7F
:1015000078E0AE01495F5F4F0E9410468823F1F0FA
:101510008091E2088823D1F48BE298E06EE771E0D5
:101520000E941A8E8BE298E06AE00E94228C83E08F
:10153000809304070BC08BE298E06EE871E00E9494
:101540001A8E8BE298E06AE00E94228C8091040758
:10155000833009F48FC08BE298E063EA71E00E9467
:101560001A8E8BE298E06AE00E94228C81C0809102
:101570000507803161F1813109F070C08CE996E096
:1015800062EE78E04BE85AE124E08E01055F1F4FE0
:101590000E945F48882309F461C08BE298E06AEBFF
:1015A00071E00E941A8E8BE298E064EE78E048E0E9
:1015B00050E020E00E94F74E8BE298E06FEB71E084
:1015C0000E941A8E8BE298E06091F00822C08CE9AC
:1015D00096E064E042EE58E00E946E4A8823F1F102
:1015E0008BE298E06AEB71E00E941A8E8BE298E041
:1015F00064EE78E048E050E020E00E94F74E8BE295
:1016000098E06FEB71E00E941A8E8BE298E0609197
:10161000EC080E94228C8BE298E06AE00E94228C07
:1016200040915208509153086091540870915508A8
:1016300000914E0810914F082091500830915108A8
:101640008FE097E0E0900507A7E0CA2EA7E0DA2E2A
:10165000F4EEAF2EF8E0BF2E0E94A6060E944F9F28
:10166000609300077093010780930207909303072C
:10167000109204070E944F9F2091620930916309E4
:101680004091640950916509621B730B840B950BA3
:10169000609362097093630980936409909365096C
:1016A0006B3F7105810591053CF18BE298E067EC99
:1016B00071E00E941A8E4091620950916309609115
:1016C0006409709165098BE298E02AE030E00E949D
:1016D000948D8BE298E068ED71E00E941A8E8BE2A7
:1016E00098E0609104074AE050E00E94648D8BE22C
:1016F00098E06AE00E94228C09E318E0C8010E9489
:10170000F45F882309F03FC0CE01439665E278E09C
:101710000E94CA628D899E8990933C0880933B0801
:101720008F89988DA98DBA8D80933D0890933E083E
:10173000A0933F08B09340088B8D9C8DAD8DBE8DDE
:101740008093410890934208A0934308B0934408C3
:101750008F8D80934508C8010E94F45F882309F4A7
:10176000A8C30E944F9F60934608709347088093D8
:1017700048089093490881E080934A088BE298E0FA
:1017800064EE71E0B1C280914A08813009F0B4C2C0
:101790000E944F9F20914608309147084091480889
:1017A00050914908205D3A484F4F5F4F62177307C9
:1017B0008407950708F091C2C8010E94146088232D
:1017C00009F477C3C8010E94C060892B09F471C372
:1017D0001BA21AA288EE93E0A0E0B0E08CA39DA328
:1017E000AEA3BFA384E593E099A388A31DA70CA78C
:1017F000CE01809662EE78E04FE750E00AE010E01C
:1018000020E030E00E94834D882309F452C302EEA9
:1018100018E006C090E00E94D1ADF80181938F01DD
:10182000F80180818823B1F782EE98E060E070E0F3
:10183000AE014F5F5F4F0E94DB4D8C0189309105F7
:101840001CF008E010E004C0181619060CF038C2AD
:10185000C980DA8082EE98E0C80ED91EC6016AEF10
:1018600071E0A8010E941CAE009709F054C0E0E2AC
:10187000CE2ED12CCC0EDD1EC6016FEF71E00E9482
:101880001A8EC6016AE473E046E050E020E20E944E
:10189000404FC60168E072E00E941A8EE090150881
:1018A000F09016080091170810911808B801A701C8
:1018B000507060707070C6012AE030E00E94948D14
:1018C000C6016EE20E94228C4F2D50E060E070E075
:1018D000C6012AE030E00E94948DC6016EE20E94AB
:1018E000228C402F50E060E070E0C6012AE030E03A
:1018F0000E94948DC6016EE20E94228CE12EFF248C
:1019000000271127C601B801A7012AE030E00E9494
:10191000948DC601D2C1C6016BE072E0A8010E949D
:101920001CAE009709F056C08E01005E1F4FC80123
:1019300060E172E00E941A8EC80164E172E00E94C8
:101940001A8E40915208509153086091540870913A
:101950005508C80120E130E00E94948DC8016AE179
:1019600072E00E941A8E4091500850E060E070E0F2
:10197000C80120E130E00E94948DC8016EE172E060
:101980000E941A8E40914F0850E060E070E0C8015C
:1019900020E130E00E94948DC8016EE172E00E9467
:1019A0001A8E40914E0850914F08609150087091E6
:1019B0005108507060707070C80120E130E00E94E2
:1019C000948DC8016AE00E94228C8BE298E060E26C
:1019D00072E06FC1C6016FE272E0A8010E941CAE06
:1019E000009709F041C082EE98E061E070E0AE013E
:1019F0004F5F5F4F0E94DB4D009709F461C18E512C
:101A0000974FE981FA81E80FF91F10828E01005E7D
:101A10001F4FC80160E172E00E941A8EC80164E3A2
:101A200072E00E941A8E69817A816E51774FC801E7
:101A30000E941A8EC8016AE00E94228C89819A81D4
:101A40008E51974F60E070E040E150E00E945CAC46
:101A50006B837C838D839E838DE498E0BE016D5FF4
:101A60007F4F0E94F0442CC1C60161E472E0A801DE
:101A70000E941CAE009709F041C082EE98E061E040
:101A800070E0AE014F5F5F4F0E94DB4D009709F49D
:101A900017C18E51974FE981FA81E80FF91F108223
:101AA0008E01005E1F4FC80160E172E00E941A8E35
:101AB000C80166E472E00E941A8E69817A816E51D3
:101AC000774FC8010E941A8EC8016AE00E94228CDA
:101AD00089819A818E51974F60E070E040E150E03B
:101AE0000E945CAC6B837C838D839E838DE498E045
:101AF000BE016D5F7F4F0E94D544E2C0C60167E51D
:101B000072E0A8010E941CAE009741F482E080932D
:101B10004A0810924C0810924B08D2C0C6016CE5DE
:101B200072E0A8010E941CAE009709F099C082EEF5
:101B300098E061E070E0AE014F5F5F4F0E94DB4DC7
:101B4000009709F4BDC08E51974FE981FA81E80FE3
:101B5000F91F10828E01005E1F4FC80160E172E024
:101B60000E941A8EC80163E672E00E941A8E898173
:101B70009A818E51974F60E070E040E150E00E9402
:101B80005CAC162F072F6B837C838D839E836091C3
:101B90000F087091100884E09EE04AE050E00E9437
:101BA000FB8D609111087091120884E09EE04AE07C
:101BB00050E00E94FB8D40910F0850911008212F9A
:101BC000302FC9018C01481759070CF48A01809104
:101BD000110890911208800F911F68E070E00E9438
:101BE00087A9909312088093110860910F08709153
:101BF0001008601B710B7093100860930F0884E04D
:101C00009EE04AE050E00E94FB8D609111087091C7
:101C1000120884E09EE04AE050E00E94FB8DC8017B
:101C2000AA2797FDA095BA2F8B839C83AD83BE8393
:101C30008E01005E1F4FC8016FE471E00E941A8E92
:101C40004B815C816D817E81C8012AE030E00E9479
:101C5000948DC80162E772E00E941A8EC8012DC0FF
:101C6000C60165E772E0A8010E941CAE009741F52D
:101C70008E01005E1F4FC80160E172E00E941A8E63
:101C8000C8016AE772E00E941A8EC8016AE00E94E9
:101C9000228C65E070E080E090E00E94839F89E301
:101CA00098E00E94386010924A088BE298E063E85E
:101CB00072E00E941A8E8BE298E06AE00E94228C09
:101CC0001092E2080E944F9F609346087093470865
:101CD0008093480890934908ECC0C8010E9438607E
:101CE0008BE298E067E972E00E941A8E8BE298E03E
:101CF0006AE00E94228CDDC0823009F0DAC00E94C6
:101D00004F9F6B837C838D839E831BA21AA288EED8
:101D100093E0A0E0B0E08CA39DA3AEA3BFA384E5B5
:101D200093E099A388A31DA70CA78E01005E1F4F07
:101D30008FC0C80166EB72E00E941A8EC8016AE08B
:101D40000E94228C60914B0870914C086F5F7F4F0E
:101D5000C8014AE050E00E94E88DC80165EE72E0DB
:101D60000E941A8E60914B0870914C088FE097E0AA
:101D70000E941D07FC014081518162817381C8016D
:101D800020E130E00E94948DC8016FE471E00E9470
:101D90001A8E60914B0870914C088FE097E00E947A
:101DA0001D07FC014481558166817781C80120E1CE
:101DB00030E00E94948DC8016FE471E00E941A8E99
:101DC00060914B0870914C088FE097E00E941D07CE
:101DD000FC01C801608540E150E00E94648DC801AB
:101DE0006FE471E00E941A8E60914B0870914C086C
:101DF0008FE097E00E941D07BC01675F7F4FC8011D
:101E000048E050E02DE20E94404FC8016FE471E0CD
:101E10000E941A8E60914B0870914C088FE097E0F9
:101E20000E941D07BC016D5E7F4FC80148E050E075
:101E300020E00E94F74EC8016AE00E94228C809147
:101E40004B0890914C08019690934C0880934B0856
:101E500020914B0830914C0880910F089091100808
:101E600028173907DCF40E944F9F2B813C814D815C
:101E70005E8128533F4F4F4F5F4F621773078407B0
:101E8000950760F480914B0890914C08892B09F0DC
:101E900059CF4FCF81E080934A080BC020914B0867
:101EA00030914C0880910F0890911008281739073D
:101EB0008CF7AD960FB6F894DEBF0FBECDBFCF91B5
:101EC000DF911F910F91FF90EF90DF90CF90BF9027
:101ED000AF9008950F931F93DF93CF93CDB7DEB7E5
:101EE00068970FB6F894DEBF0FBECDBF84E09EE0CA
:101EF00040E05BE460E070E00E94F9888BE298E0EB
:101F000068EE72E00E941A8E8BE298E06AE00E940E
:101F1000228C0E94C41C8CE598E060E00E94C842BC
:101F2000882359F48BE298E06DE073E00E941A8EEA
:101F30008BE298E06AE00E94228C81EE98E00E9499
:101F400041268DE498E00E940B450E94AE0824E7EC
:101F500035E03A8329838091150890911608A09165
:101F60001708B09118088B839C83AD83BE83388794
:101F70002F8380911B0890911C08A0911D08B0919F
:101F80001E0889879A87AB87BC873E872D878091FB
:101F9000210890912208A0912308B09124088F87EE
:101FA000988BA98BBA8B8EE69DE06AE473E0AE0154
:101FB0004F5F5F4F9E01295F3F4F8E01035F1F4FB1
:101FC0000E94EC6685E298E00E9442638BE298E012
:101FD0006CE273E00E941A8E8E010D5E1F4FC801E5
:101FE0006EE67DE00E940E668BE298E0B8010E94EA
:101FF0002A8C8BE298E06AE00E94228C84E79AE0C7
:102000000E940F148CE996E00E94F84C0E94D807B9
:1020100085E097E00E943407109212081092110890
:102020001092100810920F088BE298E06AE373E0B8
:102030000E941A8E8BE298E06AE00E94228C109235
:10204000E20868960FB6F894DEBF0FBECDBFCF9101
:10205000DF911F910F910895CF93DF930E94B39F5B
:102060000E946A0FCDE2D8E80E94D2082097E1F3DF
:102070000E942D88F9CF880F8093BA000895382FD9
:10208000413310F040E042C080916C098823E1F7B1
:1020900091E090936C0920936E098FEF8093090A69
:1020A0001092A40941504093A5094F5F90936D0988
:1020B00080916D09330F832B80936D0980916F0997
:1020C000813041F410926F0980916D098093BB00BB
:1020D00085EC01C085EE8093BC0080916C09813055
:1020E000E1F38091A409841710F44091A40920E041
:1020F00030E00AC0FB01E20FF31FD901AC58B64F24
:102100008C9180832F5F3F4F2417A0F3842F089575
:102110000F931F93582F122F413310F081E04AC0C4
:1021200080916C098823E1F782E080936C09009329
:102130006E098FEF8093090A1092A4094093A509B4
:10214000A4E7B9E0FB0102C081918D938E2F861B1D
:102150008417D0F310926D0980916D09550F852B6E
:1021600080936D0980916F09813041F410926F095D
:1021700080916D098093BB0085EC01C085EE809352
:10218000BC00112321F080916C098230E1F3809131
:10219000090A8F3F11F480E00DC08091090A803256
:1021A00011F482E007C08091090A803311F084E0C5
:1021B00001C083E01F910F910895482F613310F003
:1021C00081E0089580916C09843011F082E00895D7
:1021D0006093D709A6EAB9E0842F9C01F90102C0F7
:1021E00081918D938E2F841B8617D0F380E0089504
:1021F0009093730980937209089590937109809365
:1022000070090895882311F085EC01C085E880935A
:10221000BC00089585ED8093BC008091BC0084FDD6
:10222000FCCF10926C09089585EC8093BC0010924D
:102230006C0908951F920F920FB60F9211242F93DD
:102240003F934F935F936F937F938F939F93AF933E
:10225000BF93EF93FF938091B90090E0887F9070D7
:102260008036910509F4F2C081369105CCF58832AB
:10227000910509F47BC089329105B4F48031910550
:1022800009F46FC0813191053CF4009709F447C10E
:10229000089709F04FC165C08831910509F466C0FF
:1022A000809709F047C182C08034910509F4A4C029
:1022B0008134910544F48033910509F482C0C897B4
:1022C00009F038C189C08035910509F489C0883585
:1022D000910509F496C08834910509F02BC1AEC070
:1022E0008839910509F413C189399105ECF48837CF
:1022F000910509F4ABC0893791054CF488369105F6
:1023000009F4A4C08037910509F014C19FC0883832
:10231000910509F4FCC08039910509F49DC080380D
:10232000910509F007C198C0803B910509F4C6C02A
:10233000813B91054CF4803A910509F49FC0883A9D
:10234000910509F0F7C0BAC0803C910509F4E3C0DB
:10235000883C910509F4DFC0883B910509F0EAC08B
:10236000C2C080916D098093BB00CFC09091A40939
:102370008091A509981768F49091A409E92FF0E0DD
:10238000EC58F64F80818093BB009F5F9093A40927
:10239000BCC080916E09882309F44BC085ED809301
:1023A000BC008091BC0084FDFCCFC2C080E2809361
:1023B000090A85ED8093BC008091BC0084FDFCCFB0
:1023C000B7C080E38093090A85ED8093BC008091BB
:1023D000BC0084FDFCCFACC088E38093090A9BC09D
:1023E0008091A4099091BB00E82FF0E0EC58F64FE3
:1023F00090838F5F8093A4099091A4098091A5098F
:1024000082C08091A4099091BB00E82FF0E0EC58C5
:10241000F64F90838F5F8093A40980916E09882383
:1024200041F085ED8093BC008091BC0084FDFCCF21
:102430007FC081E080936F0984EA6EC085ED809350
:10244000BC008091BC0084FDFCCF72C083E080930F
:102450006C091092080A59C08091080A803308F06C
:1024600056C08091080A9091BB00E82FF0E0E85236
:10247000F64F90838F5F8093080A47C08091080AC7
:10248000803330F4E091080AF0E0E852F64F108211
:1024900085ED8093BC008091BC0084FDFCCF109240
:1024A0006C096091080AE0917209F091730988ED56
:1024B00099E070E009951092080A2DC084E080939D
:1024C0006C091092D6091092D709E0917009F09129
:1024D000710909958091D709882329F481E08093B7
:1024E000D7091092A6099091D609E92FF0E0EA5594
:1024F000F64F80818093BB009F5F9093D6099091A7
:10250000D6098091D709981710F485EC01C085E8A9
:102510008093BC000FC085EC8093BC0009C0109272
:10252000090A85ED8093BC008091BC0084FDFCCF3E
:1025300010926C09FF91EF91BF91AF919F918F9194
:102540007F916F915F914F913F912F910F900FBEAF
:102550000F901F90189510926C0981E080936E097E
:1025600010926F0982E161E00E94DFA083E161E0E7
:102570000E94DFA0E9EBF0E080818E7F8083808184
:102580008D7F808388E48093B80085E48093BC00CD
:102590000895FC011382128288EE93E0A0E0B0E07F
:1025A00084839583A683B78389E893E091838083AE
:1025B0000895FC011382128288EE93E0A0E0B0E05F
:1025C00084839583A683B78389E893E0918380838E
:1025D000089581E080936F0A60933C0A10926D0A1F
:1025E00010926E0A089581E080936F0A60933C0A0E
:1025F00010926D0A10926E0A089520913B0A30E005
:1026000080913A0A281B3109C901089540913A0A7C
:1026100080913B0A481718F02FEF3FEF0AC0E42FD4
:10262000F0E0E65FF54F8081282F30E04F5F409368
:102630003A0AC9010895E0913A0A80913B0AE817E5
:1026400018F0EFEFFFEF06C0F0E0E65FF54F808196
:10265000E82FF0E0CF0108950895AC012091720AAF
:102660003091730A21153105E1F090913A0A809179
:102670003B0A9817B0F090E008C0FA01EA0FFB1F80
:102680008081A65FB54F8C939F5FA92FB0E0A617FE
:10269000B7079CF310923A0A60933B0ACB01F90109
:1026A00009950895E091700AF091710A309729F028
:1026B00010926D0A10926E0A099508957093730A2C
:1026C0006093720A08957093710A6093700A089576
:1026D0001092770A1092760A88EE93E0A0E0B0E0BC
:1026E0008093780A9093790AA0937A0AB0937B0A30
:1026F00089E893E09093750A8093740A0895CF92C5
:10270000DF92EF92FF920F931F93CF93DF937C01A1
:102710006B018A0180916F0A8823A1F0C0E0D0E0AC
:102720000DC0D701ED91FC91D601AC0FBD1F0190FA
:10273000F081E02DC7016C9109952196C017D10752
:1027400080F304C0CB01642F0E94DD10C801DF912B
:10275000CF911F910F91FF90EF90DF90CF90089550
:10276000DF93CF930F92CDB7DEB7FC0169838091E1
:102770006F0A8823C9F080916E0A803338F081E0B7
:1027800090E09383828320E030E015C080916D0A51
:10279000E82FF0E0E35CF54F998190838F5F8093A1
:1027A0006D0A80936E0A05C0CE01019661E00E9419
:1027B000DD1021E030E0C9010F90CF91DF91089545
:1027C0000F93062F80913C0A6DE37AE040916E0AE8
:1027D00021E00E94881010926D0A10926E0A1092E9
:1027E0006F0A0F91089561E00E94E013089541334C
:1027F00008F040E3862F6AE07AE00E943F101092D2
:102800003A0A80933B0A08950E94F713089521E045
:102810000E94F713089521E00E94F7130895109283
:102820003A0A10923B0A10926D0A10926E0A0E94A8
:10283000AB1208950F931F938C01862F0E943B10BB
:1028400082E593E10E94FD108DE293E10E94F81071
:10285000C8010E940F141F910F9108950E941A142D
:102860000895CF92DF92EF92FF920F931F936C0126
:102870007A018B01FC0120853185442737FD409585
:10288000542F60E67AEE80E090E00E94BCA9CA0175
:10289000B901A80197010E94BCA9F60124833583E0
:1028A000468357831F910F91FF90EF90DF90CF9059
:1028B000089584E090E008950F931F93CF93DF93E2
:1028C000EC018B018A859B85029731F5613071059A
:1028D00089F06230710524F46115710541F01CC066
:1028E0006230710571F063307105B1F40DC08E85F1
:1028F00060E002C08E8561E00E94DFA0888961E00F
:1029000009C08E8561E002C08E8560E00E94DFA074
:10291000888960E00E94DFA08A859B850497E9F59D
:1029200001301105A1F0023011051CF4012B41F01A
:1029300034C002301105D1F00330110571F51DC00E
:102940008E8561E00E94DFA0888960E006C08E85E8
:1029500060E00E94DFA0888961E00E94DFA08A8990
:1029600061E00E94DFA08C8960E015C08E8560E088
:102970000E94DFA0888961E006C08E8561E00E9428
:10298000DFA0888960E00E94DFA08A8960E00E9461
:10299000DFA08C8961E00E94DFA0DF91CF911F91C1
:1029A0000F9108950F931F93CF93DF93EC011616A9
:1029B000170624F481E090E09983888377FF02C0B2
:1029C000198218828B0177FF46C0109501951F4F21
:1029D00042C00E944F9F2E893F89488D598D621BAE
:1029E000730B840B950B2C813D814E815F816217A7
:1029F00073078407950768F30E944F9F6E8B7F8B48
:102A0000888F998F888199812C853D85019761F404
:102A10002F5F3F4F3D872C87888599852817390779
:102A200071F41D861C860BC0232B21F488859985A3
:102A30009D878C878C859D8501979D878C8701500C
:102A400010408C859D8564E070E00E9487A9BC01E0
:102A5000CE010E945C140115110509F0BACFDF9177
:102A6000CF911F910F910895CF92DF92EF92FF9235
:102A70000F931F936C01842FF60115861486138221
:102A8000128211821082168A178A108E118E718717
:102A9000608746875787318B208B138B028BF58A93
:102AA000E48A61E00E9473A0F601808961E00E94DF
:102AB00073A0F601828961E00E9473A0F601848907
:102AC00061E00E9473A084E090E0F6019387828722
:102AD0001F910F91FF90EF90DF90CF900895CF92CC
:102AE000DF92EF92FF920F931F936C01842FF601F8
:102AF000158614861382128211821082168A178A12
:102B0000108E118E7187608746875787318B208B97
:102B1000138B028BF58AE48A61E00E9473A0F601B0
:102B2000808961E00E9473A0F601828961E00E94C1
:102B300073A0F601848961E00E9473A084E090E0B4
:102B4000F601938782871F910F91FF90EF90DF909E
:102B5000CF9008950F931F938C01842FF801158651
:102B600014861382128211821082168A178A108E9E
:102B7000118E7187608746875787318B208B61E084
:102B80000E9473A0F801808961E00E9473A0F8019F
:102B9000138A128A158A148A82E090E093878287CA
:102BA0001F910F9108950F931F938C01842FF801AB
:102BB000158614861382128211821082168A178A51
:102BC000108E118E7187608746875787318B208BD7
:102BD00061E00E9473A0F801808961E00E9473A007
:102BE000F801138A128A158A148A82E090E093878A
:102BF00082871F910F910895FC018091800A909126
:102C0000810A8E179F0711F480E00895838D8E7FCF
:102C1000838F9FB7F8941092C20A8091C20A809362
:102C2000C30AF093810AE093800A9FBF81E0089570
:102C30000F931F93CF93DF93FC01838DA685B785F8
:102C40009585082F027081FF05C08C91892309F4B6
:102C500054C004C08C91892309F04FC083899489A2
:102C600020E001972FEF8F3F9207D9F7C589D689CA
:102C7000A685B785758560E031E040E050E010E062
:102C8000CE01212F01972FEF8F3F9207D9F78C911B
:102C9000872311F0632B03C0832F80956823330FA4
:102CA0004F5F5F4F4830510559F78789908D20E07D
:102CB00001972FEF8F3F9207D9F70111609580910F
:102CC000C20A2091C30A90E001968F73907030E0A1
:102CD0008217930779F0E091C20AF0E0EE57F54FC2
:102CE00060838091C20A90E001968F739070809308
:102CF000C20A03C0838D8160838FDF91CF911F91C2
:102D00000F910895FC01A189B2899089662329F465
:102D10008C91909598239C9308958C91892B8C93FA
:102D20000895DC011E96ED91FC911F9780811D9600
:102D30009C91892308958091800A9091810A00973F
:102D400011F00E94181608951F920F920FB60F925D
:102D500011242F933F934F935F936F937F938F93A0
:102D60009F93AF93BF93EF93FF930E949B16FF91A6
:102D7000EF91BF91AF919F918F917F916F915F91F3
:102D80004F913F912F910F900FBE0F901F9018956C
:102D90001F920F920FB60F9211242F933F934F93D0
:102DA0005F936F937F938F939F93AF93BF93EF93B3
:102DB000FF930E949B16FF91EF91BF91AF919F915E
:102DC0008F917F916F915F914F913F912F910F90D4
:102DD0000FBE0F901F9018951F920F920FB60F9273
:102DE00011242F933F934F935F936F937F938F9310
:102DF0009F93AF93BF93EF93FF930E949B16FF9116
:102E0000EF91BF91AF919F918F917F916F915F9162
:102E10004F913F912F910F900FBE0F901F901895DB
:102E2000CF92DF92EF92FF920F931F93CF93DF9396
:102E3000EC017A018B011A8E198E188E1F8A1E8A58
:102E40001D8A1C8A1B8A20E030E06901CC0CDD1C45
:102E5000C20ED31EB601660F771F660F771FAB0138
:102E600048595F4FFA0185919591A591B4918E15BE
:102E70009F05A007B107E9F4FB01E459FF4F8591D5
:102E800094919C8B8B8BFB01E259FF4F8591949120
:102E90009E8B8D8BFB01E059FF4F85919491988F0C
:102EA0008F8BFB01EE58FF4F859194919A8F898FFC
:102EB00006C02F5F3F4F2C30310509F0C6CF8F89F8
:102EC000988D892B09F449C04C85463108F03DC0E6
:102ED00090916800483010F484E005C04E3010F046
:102EE00082E001C081E0892B80936800483028F49B
:102EF000EDE6F0E0ADE6B0E00BC04E3028F0ECE6D9
:102F0000F0E0ACE6B0E004C0EBE6F0E0ABE6B0E049
:102F10005081483040F481E090E002C0880F991F52
:102F20004A95E2F710C0242F30E04E3018F42850B4
:102F3000304002C02E50304081E090E002C0880F47
:102F4000991F2A95E2F7852B8C93898D9A8D20E025
:102F500001972FEF8F3F9207D9F7CE010E94FC1502
:102F6000DF91CF911F910F91FF90EF90DF90CF9065
:102F70000895FC014485463180F5483028F4EDE69B
:102F8000F0E0ADE6B0E00BC04E3028F4EBE6F0E048
:102F9000ABE6B0E004C0ECE6F0E0ACE6B0E05081B7
:102FA000483040F481E090E002C0880F991F4A95B4
:102FB000E2F710C0242F30E04E3018F42850304093
:102FC00002C02E50304081E090E002C0880F991F6F
:102FD0002A95E2F7809585238C930895FC0189EA70
:102FE00093E091838083CF010E94B9170895FC017B
:102FF00089EA93E091838083CF010E94B9170895F5
:103000002091800A3091810A2817390731F4909174
:10301000C30A8091C20A981719F42FEF3FEF0FC02F
:10302000E091C30AF0E0EE57F54F20818091C30A8A
:1030300090E001968F7390708093C30A30E0C901CD
:1030400008952091800A3091810A2817390719F0D4
:1030500020E030E00EC08091C20A2091C30A90E0C7
:10306000805C9F4F821B910960E470E00E9487A9F9
:103070009C01C90108950F931F93DC0159968D910E
:103080009C915A97892B49F481E090E013969C9388
:103090008E93129720E030E097C00FB7F8945B96BC
:1030A0008C915B975196ED91FC91529750962C9193
:1030B000509781FF8DC08081822B808359968D919E
:1030C0009C915A97059620E001972FEF8F3F92072A
:1030D000D9F75B968C915B9781FF35C031E040E07A
:1030E00050E070E010E0832F90E086239723519604
:1030F000ED91FC91529750962C915097892B29F085
:10310000808120952823208303C08081822B8083A7
:1031100059968D919C915A97212F01972FEF8F3FB0
:103120009207D9F7330F4F5F5F4F48305105D9F6FB
:103130005196ED91FC915297908150968C915097B9
:103140008095892333C031E040E050E070E010E02A
:10315000832F90E0862397235196ED91FC9152970F
:1031600050962C915097892B21F08081822B80835F
:1031700004C0808120952823208359968D919C91AD
:103180005A97212F01972FEF8F3F9207D9F7330FCF
:103190004F5F5F4F48305105D9F65196ED91FC9144
:1031A0005297808150969C915097892B80830FBFB6
:1031B00059968D919C915A9720E001972FEF8F3F60
:1031C0009207D9F721E030E0C9011F910F910895CE
:1031D000808120952823208371CF2091800A30910F
:1031E000810A2817390749F49FB7F8941092C20A48
:1031F0008091C20A8093C30A9FBF08952091800ADC
:103200003091810A2817390731F49091C30A8091CF
:10321000C20A981719F42FEF3FEF08C0E091C30AD4
:10322000F0E0EE57F54F8081282F30E0C901089576
:103230001F93CF93DF93EC01162F862F60E00E943F
:1032400073A08B8D81FD04C0812F61E00E94DFA0FF
:103250001C87212F30E0C901885D934FFC018491C8
:103260008D872C5E334FF9016491E62FF0E0EE0F6D
:10327000FF1FE65FF34F859194919F878E87DF91C3
:10328000CF911F910895FF920F931F938C01F62EFB
:10329000862F61E00E9473A08F2D61E00E94DFA065
:1032A0008F2D90E0FC01E85DF34FE491D80150963A
:1032B000EC9350978C5E934FFC016491E62FF0E005
:1032C000EE0FFF1FE050F44F8591949152969C931E
:1032D0008E9351971F910F91FF900895FF920F9336
:1032E0001F938C01F62EFC011382128288EE93E06C
:1032F000A0E0B0E084839583A683B78389EA93E056
:1033000091838083148A138A168A158A108E178AED
:10331000128E118E838D2170220F8C7F822B838FD2
:10332000C801642F0E944319C8016F2D0E9418190B
:103330001F910F91FF900895FF920F931F938C019F
:10334000F62EFC011382128288EE93E0A0E0B0E03A
:1033500084839583A683B78389EA93E091838083EE
:10336000148A138A168A158A108E178A128E118E65
:10337000838D2170220F8C7F822B838FC801642F55
:103380000E944319C8016F2D0E9418191F910F91B7
:10339000FF900895FC018091C40A8C3090F48083E2
:1033A0008F5F8093C40A815090E0FC01EE0FFF1FF5
:1033B000E80FF91FEB53F54F88EB9BE09283818375
:1033C00008958FEF80830895FC018091C40A8C30AA
:1033D00090F480838F5F8093C40A815090E0FC0159
:1033E000EE0FFF1FE80FF91FEB53F54F88EB9BE043
:1033F0009283818308958FEF80830895DC018C91FF
:1034000090E0FC01EE0FFF1FE80FF91FEB53F54FA3
:1034100080818F7B80838C916CE00E947BA99CE0F3
:10342000899FA001112420E030E0C901840F951F7D
:10343000FC01EE0FFF1FE80FF91FEB53F54F8081E2
:1034400086FD05C02F5F3F4F2C30310571F7089581
:10345000FC0120812C3008F041C08181992787FD33
:10346000909548E850E0481B590B440F551F440FF6
:10347000551F6417750784F08281992787FD909501
:1034800048E552E0481B590B440F551F440F551F88
:10349000641775070CF4AB0142505040CA01AA27CB
:1034A00097FDA095BA2F44E0880F991FAA1FBB1F54
:1034B0004A95D1F733E0B695A795979587953A95B4
:1034C000D1F74FB7F89430E0F901EE0FFF1FE20F8C
:1034D000F31FEB53F54F928381834FBF0895FC0197
:1034E00080818F3F19F420E030E016C090E0FC01AD
:1034F000EE0FFF1FE80FF91FEB53F54F21813281CB
:1035000083E0220F331F8A95E1F7B4E036952795C3
:10351000BA95E1F72E5F3F4FC9010895FC01808104
:1035200090E0FC01EE0FFF1FE80FF91FEB53F54F82
:103530008081829586958695817009F081E0089555
:10354000AF92BF92CF92DF92EF92FF920F931F93B1
:103550008C010E946F1A00D000D00196AA2797FD17
:10356000A095BA2FF8016181772767FD709528E84B
:1035700030E0261B370B220F331F220F331F442747
:1035800037FD4095542F6281772767FD7095E8E5F8
:10359000EE2EE2E0FE2EE61AF70AEE0CFF1CEE0C11
:1035A000FF1C0027F7FC0095102F64EBA62EB12C12
:1035B000C12CD12CEDB7FEB7A182B282C382D482D6
:1035C000BC01CD01AA24BB2465010E940B950F907C
:1035D0000F900F900F90CB011F910F91FF90EF90E4
:1035E000DF90CF90BF90AF900895AF92BF92CF92EF
:1035F000DF92EF92FF920F931F93CF93DF93EC0133
:103600009B0182E0603278070CF048C077FF03C06E
:1036100020E030E005C0653B710514F024EB30E09C
:1036200000D000D0B901882777FD8095982F298197
:10363000332727FD3095B8E8AB2EB12CA21AB30A78
:10364000AA0CBB1CAA0CBB1CCC24B7FCC094DC2C61
:10365000EA81FF27E7FDF09528E532E02E1B3F0BBE
:10366000220F331F220F331F442737FD4095542F5D
:10367000EDB7FEB7218332834383548320E030E0EB
:1036800040E050E0E4EBEE2EF12C012D112D0E94D4
:103690000B959B010F900F900F900F90CE01B901E9
:1036A0000E94281ADF91CF911F910F91FF90EF9008
:1036B000DF90CF90BF90AF900895CF92DF92EF92BE
:1036C000FF921F93CF93DF93EC01162F7A016901CC
:1036D00088818C3008F064C0862F61E00E9473A05E
:1036E000888190E0FC01EE0FFF1FE80FF91FEB53FC
:1036F000F54F1F738081807C812B808380E292E074
:103700008E199F0964E070E00E9487A9698380E6B2
:1037100099E08C199D0964E070E00E9487A96A8392
:10372000A8818A2F6CE00E947BA9682F90E0AC01F1
:10373000440F551F480F591F440F551F440F551F65
:1037400020E030E0C901840F951FFC01EE0FFF1F40
:10375000E80FF91FEB53F54F808186FD15C02F5FF1
:103760003F4F2C30310571F724C01092800082E069
:10377000809381001092850010928400B19A80910C
:103780006F00826080936F008A2F90E0FC01EE0F43
:10379000FF1FE80FF91FEB53F54F80818064808392
:1037A0008881DF91CF911F91FF90EF90DF90CF90B4
:1037B00008956623D1F2E8CF40E252E020E639E0F6
:1037C0000E945D1B08951F920F920FB60F92112455
:1037D0002F933F934F935F936F937F938F939F9319
:1037E000AF93BF93EF93FF938091E90A87FF05C0E2
:1037F00010928500109284002BC02091E90A332793
:1038000027FD30958091C40A90E02817390704F508
:103810008091E90A992787FD9095FC01EE0FFF1F23
:10382000E80FF91FEB53F54F808186FF11C080919F
:10383000E90A992787FD9095FC01EE0FFF1FE80F1D
:10384000F91FEB53F54F80818F7360E00E94DFA07A
:103850008091E90A8F5F8093E90A2091E90A332772
:1038600027FD30958091C40A90E0281739070CF0A5
:103870004EC08091E90A8C300CF049C02091840040
:10388000309185008091E90A992787FD9095FC0188
:10389000EE0FFF1FE80FF91FEB53F54F8181928167
:1038A000280F391F30938900209388008091E90AFE
:1038B000992787FD9095FC01EE0FFF1FE80FF91F78
:1038C000EB53F54F808186FF2BC08091E90A992741
:1038D00087FD9095FC01EE0FFF1FE80FF91FEB53DA
:1038E000F54F80818F7361E00E94DFA019C080E4F2
:1038F0009CE905C080918400909185000496909386
:103900008900809388008FEF8093E90A09C0809135
:10391000840090918500049680549C4940F3EACF3E
:10392000FF91EF91BF91AF919F918F917F916F9197
:103930005F914F913F912F910F900FBE0F901F906D
:1039400018958CB58F7B8CBD0895882319F48CB5A0
:10395000806202C08CB58F7D8CBD08959CB5937F2D
:10396000982B9CBD08952CB5382F33702C7F322BAB
:103970003CBD2DB590E0959587959595879581707F
:103980002E7F822B8DBD08958DE061E00E9473A093
:103990008BE061E00E9473A08AE061E00E9473A066
:1039A0008DE060E00E94DFA08BE060E00E94DFA07D
:1039B0008AE061E00E94DFA08CB580618CBD8CB58F
:1039C00080648CBD08950F931F938C01FC01868148
:1039D00060E00E94DFA081E090E00E94A99FF801D2
:1039E000868161E00E94DFA081E090E00E94A99FB3
:1039F000F801868160E00E94DFA084E690E00E94EA
:103A0000A99F1F910F910895CF92DF92EF92FF929D
:103A10000F931F93CF93DF93D82EC92E282F392FC2
:103A2000C9018C01C0E0D0E0E62EFF24F8018781B7
:103A300061E00E9473A0B7010C2E02C075956795D6
:103A40000A94E2F76170F80187810E94DFA0219655
:103A50000F5F1F4FC830D10549F78D2D9C2D0E9457
:103A6000E31CDF91CF911F910F91FF90EF90DF90BA
:103A7000CF900895CF92DF92EF92FF920F931F9312
:103A8000CF93DF93D82EC92E282F392FC9018C014F
:103A9000C0E0D0E0E62EFF24F801878161E00E94BB
:103AA00073A0B7010C2E02C0759567950A94E2F7D2
:103AB0006170F80187810E94DFA021960F5F1F4F80
:103AC000C430D10549F78D2D9C2D0E94E31CDF9158
:103AD000CF911F910F91FF90EF90DF90CF900895BD
:103AE0001F93CF93DF93EC01162F8C81642F0E94DC
:103AF000DFA08D818F3F19F060E00E94DFA08F85ED
:103B000084FF05C0CE01612F0E94041D0EC0612FED
:103B100070E084E0759567958A95E1F7CE010E9483
:103B20003A1DCE01612F0E943A1DDF91CF911F9166
:103B3000089541E00E94701D81E090E0089540E00A
:103B40000E94701D0895EF92FF920F931F93CF93E1
:103B5000DF938C017A016770660F660F660F6064F1
:103B60000E949F1DC0E0D0E0D801ED91FC91D701EB
:103B7000AC0FBD1F0190F081E02DC8016C9109953B
:103B80002196C830D10581F7DF91CF911F910F9118
:103B9000FF90EF900895FC0161896E7F618B6460F6
:103BA0000E949F1D0895FC016189862F8160818B91
:103BB0006560CF010E949F1D0895FC0161896D7FA2
:103BC000618B64600E949F1D0895FC016189862FAE
:103BD0008260818B6660CF010E949F1D08956CE119
:103BE0000E949F1D089568E10E949F1D0895FC0199
:103BF0006089862F8160808B6960CF010E949F1D44
:103C00000895FC0160896E7F608B68600E949F1D33
:103C10000895FC016089862F8260808B6A60CF01E5
:103C20000E949F1D0895FC0160896D7F608B686014
:103C30000E949F1D0895FC016089862F8460808BFF
:103C40006C60CF010E949F1D0895FC0160896B7F0D
:103C5000608B68600E949F1D0895DF93CF93CDB75E
:103C6000DEB728970FB6F894DEBF0FBECDBF9C011C
:103C7000FE013196ADECB3E088E00D9001928150E9
:103C8000E1F7F9018389481710F0482F4150E42FDC
:103C9000F0E0EE0FFF1FEC0FFD1F8181680F6068E1
:103CA000C9010E949F1D28960FB6F894DEBF0FBE73
:103CB000CDBFCF91DF91089562E00E949F1D80EDFE
:103CC00097E00E94A99F089561E00E949F1D80EDEA
:103CD00097E00E94A99F0895CF93DF93EC014230B3
:103CE00018F08F8588608F874B8B1C8A222329F0E0
:103CF000413019F48F8584608F8780E593EC0E94B2
:103D0000A99F8C8160E00E94DFA08E8160E00E940C
:103D1000DFA08D818F3F19F060E00E94DFA06F85EA
:103D200064FD1DC0CE0163E00E943A1D84E991E16B
:103D30000E94A99FCE0163E00E943A1D84E991E1AF
:103D40000E94A99FCE0163E00E943A1D86E990E09F
:103D50000E94A99FCE0162E00E943A1D16C06062D7
:103D6000CE010E949F1D84E991E10E94A99F6F8569
:103D70006062CE010E949F1D86E990E00E94A99F8B
:103D80006F856062CE010E949F1D6F856062CE01CB
:103D90000E949F1D84E0888BCE010E941B1ECE01D5
:103DA0000E94641E82E0898BCE0166E00E949F1D06
:103DB000DF91CF9108956F927F928F92AF92CF92C1
:103DC000EF920F931F93DF93CF93CDB7DEB73C01F4
:103DD000162F842FF301448325830683E782C08650
:103DE000A18682869D8593879E8594879F859587EA
:103DF0009889968761E00E9473A0F30185818F3FC7
:103E000019F061E00E9473A0F301868161E00E94D5
:103E100073A0112319F0F301178603C080E1F301A9
:103E20008787C30160E141E020E00E946C1ECF91D2
:103E3000DF911F910F91EF90CF90AF908F907F9077
:103E40006F9008958F92AF92CF92EF920F931F933E
:103E5000CF93DF93DC01362F542F722F102FAE2C0F
:103E60008C2C13961C921E92129789EC93E011965B
:103E70009C938E9300D000D0EDB7FEB73196CDB7AE
:103E8000DEB71982118212821382CD0161E0432FC5
:103E90002FEF052FE72EC12E0E94DB1E0F900F90F3
:103EA0000F900F90DF91CF911F910F91EF90CF90D6
:103EB000AF908F9008958F92AF92CF92EF920F9321
:103EC0001F93CF93DF93DC01362F542F722F102FC7
:103ED000AE2C8C2C13961C921E92129789EC93E0B8
:103EE00011969C938E9300D000D0EDB7FEB731961B
:103EF000CDB7DEB71982118212821382CD0161E043
:103F0000432F2FEF052FE72EC12E0E94DB1E0F90AF
:103F10000F900F900F90DF91CF911F910F91EF9025
:103F2000CF90AF908F9008958F92AF92CF92DF9203
:103F3000EF92FF920F931F93CF93DF93DC01362F05
:103F4000542F722F102FFE2CDC2C8A2C13961C92CF
:103F50001E92129789EC93E011969C938E9300D059
:103F600000D0EDB7FEB73196CDB7DEB7198211821A
:103F700012821382CD0161E0432F252F072FE12EFE
:103F8000CF2CAD2C0E94DB1E0F900F900F900F9046
:103F9000DF91CF911F910F91FF90EF90DF90CF9025
:103FA000AF908F9008958F92AF92CF92DF92EF9261
:103FB000FF920F931F93CF93DF93DC01362F542F83
:103FC000722F102FFE2CDC2C8A2C13961C921E9222
:103FD000129789EC93E011969C938E9300D000D0B9
:103FE000EDB7FEB73196CDB7DEB7198211821282D6
:103FF0001382CD0161E0432F252F072FE12ECF2C17
:10400000AD2C0E94DB1E0F900F900F900F90DF9150
:10401000CF911F910F91FF90EF90DF90CF90AF90D5
:104020008F9008956F927F928F92AF92CF92DF928E
:10403000EF92FF920F931F93DF93CF93CDB7DEB72D
:10404000DC01362F542F722F102FFE2CDC2C1396F0
:104050001C921E92129789EC93E011969C938E937A
:1040600000D000D06DB67EB60894611C711CEDB70F
:10407000FEB7A182F30181828F8582838889838341
:10408000CD0160E0432F2FEF052FE72EC12EAF2C7F
:104090008D2C0E94DB1E0F900F900F900F90CF91F0
:1040A000DF911F910F91FF90EF90DF90CF90AF9035
:1040B0008F907F906F9008956F927F928F92AF92C2
:1040C000CF92DF92EF92FF920F931F93DF93CF93E4
:1040D000CDB7DEB7DC01362F542F722F102FFE2CF8
:1040E000DC2C13961C921E92129789EC93E0119689
:1040F0009C938E9300D000D06DB67EB60894611C60
:10410000711CEDB7FEB7A182F30181828F85828396
:1041100088898383CD0160E0432F2FEF052FE72EA1
:10412000C12EAF2C8D2C0E94DB1E0F900F900F9094
:104130000F90CF91DF911F910F91FF90EF90DF9043
:10414000CF90AF908F907F906F9008956F927F92F5
:104150008F92AF92BF92CF92DF92EF92FF920F9326
:104160001F93DF93CF93CDB7DEB7DC01362F542FEB
:10417000722F102FFE2CDC2CBA2C13961C921E9240
:10418000129789EC93E011969C938E9300D000D007
:104190006DB67EB60894611C711CEDB7FEB78182C6
:1041A0008889F3018183898982838A898383CD0108
:1041B00060E0432F252F072FE12ECF2CAD2C8B2C29
:1041C0000E94DB1E0F900F900F900F90CF91DF9108
:1041D0001F910F91FF90EF90DF90CF90BF90AF9025
:1041E0008F907F906F9008956F927F928F92AF9291
:1041F000BF92CF92DF92EF92FF920F931F93DF93C4
:10420000CF93CDB7DEB7DC01362F542F722F102F8E
:10421000FE2CDC2CBA2C13961C921E92129789EC61
:1042200093E011969C938E9300D000D06DB67EB62D
:104230000894611C711CEDB7FEB781828889F30177
:104240008183898982838A898383CD0160E0432FBA
:10425000252F072FE12ECF2CAD2C8B2C0E94DB1E9F
:104260000F900F900F900F90CF91DF911F910F91B2
:10427000FF90EF90DF90CF90BF90AF908F907F90A6
:104280006F900895EF92FF920F931F937C018B0123
:10429000DC01ED91FC91A081B1816F772D913C9172
:1042A000CF01F9010995D701ED91FC91A081B18170
:1042B000000F012F001F110B0F772D913C91CF01A3
:1042C000602FF90109951F910F91FF90EF900895CC
:1042D000FC010190F081E02DA081B1812D913C91F4
:1042E000CF0160EFF90109950895FC010190F0817B
:1042F000E02DA081B1812D913C91CF0167EFF901B3
:10430000099508950F931F938C01DC01ED91FC91A9
:10431000A081B1812D913C91CF0169EFF9010995FF
:10432000D801ED91FC91A081B1812D913C91CF01FB
:1043300062E0F9010995D801ED91FC91A081B1816C
:104340002D913C91CF0163E0F90109951F910F91E7
:1043500008951F93CF93DF93EC018A818823C9F1DD
:10436000CE010E946821E881F981A081B1812D915F
:104370003C91CF0169E7F9010995E881F981A081B4
:10438000B1812B813C814D915C91CF01F90160811C
:10439000FA010995E881F981A081B1812B813C81E5
:1043A0004D915C91CF01F9016181FA01099512E00B
:1043B0000AC0EB81FC81E10FF11D6081CE0170E04C
:1043C0000E9442211F5F8A81181798F3CE010E9434
:1043D0007521DF91CF911F910895FC01A081B181DA
:1043E000ED91FC9111970480F581E02DCD010995A7
:1043F0000895EF92FF920F931F938C017A01DC01D5
:10440000ED91FC91A081B1816F70606E2D913C9116
:10441000CF01F9010995C801B7010E9442211F91FE
:104420000F91FF90EF9008950895EF92FF920F93F0
:104430001F937C018A01DC01ED91FC91A081B18187
:104440006F7060692D913C91CF01F9010995D701F9
:10445000ED91FC91A081B181602F6F772D913C91FE
:10446000CF01F9010995D701ED91FC91A081B181AE
:10447000000F012F001F110B2D913C91CF01602FD8
:10448000F90109951F910F91FF90EF900895DF9228
:10449000EF92FF920F931F93CF93DF93EC01162FB0
:1044A000D42E022FF32E0E946821E881F981A08189
:1044B000B1812D913C91CF01612FF9010995202FF8
:1044C0003F2DC9017C0110E008C0F70161917F0117
:1044D000CE0170E00E9442211F5F1D15B0F3CE0196
:1044E0000E947521DF91CF911F910F91FF90EF9066
:1044F000DF900895FC01603DA9F0613D28F460392A
:1045000059F0603CA1F40BC0603E19F0643F79F4AF
:104510000CC054A743A7089556A745A7089550ABCC
:1045200047A7089552AB41AB089554AB43AB0895F0
:10453000FC016F3F11F456AB45AB0895FC016137A8
:1045400011F450AF47AB0895FC0152AF41AF08954D
:10455000FC01603F59F06F3F19F0613751F403C01F
:1045600016AA15AA089510AE17AA089512AE11AE94
:10457000089540E050E00E947A220895FC011582DF
:1045800016821782DC0180E018961C9218978F5FC4
:1045900011968032C9F710A612A611A605A8F6A991
:1045A000E02D309709F0099508950F931F93CF934D
:1045B000DF938C01FB01DC012D913C918281938181
:1045C000E9019B838A8384819581A681B7818C834D
:1045D0009D83AE83BF8380859185A285B385F901D4
:1045E00080879187A287B387C8010E94BE22C80135
:1045F0000E948221C8010E94A921DF91CF911F91C1
:104600000F910895FC017183608312820E94BE2283
:104610000895FC017183608312820E94BE22089576
:104620008BEE9AE064E07EE00E94022308954F92B0
:104630005F926F927F928F929F92AF92BF92CF9232
:10464000DF92EF92FF920F93DF93CF9300D0CDB71D
:10465000DEB72B017A013A8329838DE061E00E9465
:1046600073A000E089819A813C01882477FC8094C2
:10467000982C5701CC24B7FCC094DC2C11C0C40189
:10468000B3010E94839F8DE061E00E94DFA0C6011C
:10469000B5010E94839F8DE060E00E94DFA00F5F64
:1046A000802F90E08415950554F30F900F90CF91D3
:1046B000DF910F91FF90EF90DF90CF90BF90AF9080
:1046C0009F908F907F906F905F904F9008950F9381
:1046D0001F938C018DE061E00E9473A0C80162E02D
:1046E00070E048E250E022ED30E00E9417236AEFCC
:1046F00070E080E090E00E94839FC80163E070E07A
:1047000048E250E022ED30E00E9417236DE770E0B0
:1047100080E090E00E94839F1F910F9108959A017D
:10472000FA0101900020E9F73197E41BF50B4E2FB9
:104730000E9447220895AB0161E70E948F230895EC
:104740001F93CF93DF93EC018885813731F0893750
:1047500089F5CE010E94A92136C08FA998AD892B79
:1047600091F189A59AA5019762E070E00E9487A95E
:10477000162F862F90E00E9428AAAC01DC0121E0D0
:1047800030E011C0FE01E20FF11D90859C932F5F78
:10479000FE01E20FF11D8085879588278795890F97
:1047A0008D932F5F3F5F311768F3EFA9F8ADCA0112
:1047B000099509C0E9ADFAAD309729F069A56150B6
:1047C0002996AE010995DF91CF911F910895CF935E
:1047D000DF93EC01A881B981ED91FC9111970680DE
:1047E000F781E02DCD010995AC0188A5882391F0D2
:1047F000473F510529F418A6CE010E94A02393C07B
:1048000089A59AA5FE01E80FF91F408701969AA78E
:1048100089A789C08D81882309F446C04038510595
:104820000CF042C081508D83FE01E80FF11D4087DE
:10483000882309F078C08E81882309F474C0803DF4
:1048400049F1813D28F4803959F0803C59F51FC069
:10485000803E19F0843F31F513C0EBA5FCA502C0E2
:10486000EDA5FEA53097F1F0688570E07695762F7E
:104870006627779567958985680F711D8F8111C0AF
:10488000EBA9FCA9309771F06885898509C0EFA56F
:10489000F8A902C0E9A9FAA9309721F068858F81AB
:1048A00070E009951E823FC0403F510514F09A0107
:1048B00006C09A01207F3070842F8F708F83203E36
:1048C0003105F1F0213E310554F4203C3105D1F0A1
:1048D000203D3105B9F02039310529F511C0243FBB
:1048E000310571F0253F310524F4203F3105D9F41D
:1048F0000DC0293F310599F02F3F3105A1F40BC0C0
:1049000082E001C081E08D832E830DC081E088A705
:104910001AA619A608C0CE010E94BE2204C08BEEC2
:104920009AE00E948221DF91CF910895AF92BF92C9
:10493000CF92DF92EF92FF920F931F93CF93DF936B
:104940008C01D62EC72EB42EA22E862F972F65ED62
:1049500073E00E9444AEEC018D2D9C2D6FE270E05F
:104960000E9439AE209779F07C010894E11CF11C7B
:10497000E114F10441F09E012E5F822F8E19D801BF
:1049800012968C930FC0AD2DBC2DFD01019000201F
:10499000E9F7ED19EF5FD8011296EC932D2D3C2D20
:1049A000C9017C01F801828190E00E9428AAFC01E3
:1049B000D80114969C938E93139712968C9112970C
:1049C000E80FF11D10821396ED91FC911497B082BF
:1049D0001396ED91FC911497A18213968D919C9161
:1049E000149712964C9150E0425050400296B701F5
:1049F0000E942AAEDF91CF911F910F91FF90EF900F
:104A0000DF90CF90BF90AF9008950F931F938C01CC
:104A100084E09EE00E94F988D801ED91FC9180919C
:104A2000060E9091070E938382838091080E9091D9
:104A3000090EA0910A0EB0910B0E84839583A68374
:104A4000B78380910C0E90910D0EA0910E0EB09137
:104A50000F0E80879187A287B387C8010E946723C2
:104A6000C8010E948221C8010E94A9211F910F91B3
:104A7000089540E051EE60E070E00E940525089541
:104A8000CB01642F0E940BAF0895CB010E9403AFAE
:104A90000895FC0160830895FC01608308950F93DD
:104AA0001F938C0181E00E94A51C80E00E94B31C32
:104AB00080E00E94AE1CF801808160E00E94DFA0CF
:104AC0001F910F910895CF92DF92EF92FF920F9373
:104AD0001F93CF93DF936C018B01EA0179010E9450
:104AE0004F25F8012081918182E08EBD0DB407FE33
:104AF000FDCF8EB59EBD0DB407FEFDCF8EB52EBD8C
:104B00000DB407FEFDCF8EB5F7012081318140E065
:104B100050E009C088818EBD0DB407FEFDCF2196FF
:104B20008EB54F5F5F4F42175307A0F3F6018081A8
:104B300061E00E94DFA0DF91CF911F910F91FF9064
:104B4000EF90DF90CF900895FF920F931F93CF9334
:104B5000DF93EC018B01F42E0E944F25F801208198
:104B6000918182E08EBD0DB407FEFDCF8EB59EBD56
:104B70000DB407FEFDCF8EB52EBD0DB407FEFDCFE3
:104B80008EB5FEBC0DB407FEFDCF8EB5888161E009
:104B90000E94DFA0DF91CF911F910F91FF900895A8
:104BA000CF92DF92EF92FF920F931F93CF93DF93F9
:104BB000EC018B01D42EC52E79010E944F25D8011E
:104BC0002C9111969C9183E08EBD0DB407FEFDCF14
:104BD0008EB59EBD0DB407FEFDCF8EB52EBD0DB4B6
:104BE00007FEFDCF8EB58D2D9C2D9C01F90120E097
:104BF00030E008C01EBC0DB407FEFDCF8EB581931A
:104C00002F5F3F4FD7018D919C912817390790F363
:104C1000888161E00E94DFA08D2D9C2DDF91CF91D6
:104C20001F910F91FF90EF90DF90CF9008950F9319
:104C30001F93CF93DF93EC018B010E944F25F80166
:104C40002081918183E08EBD0DB407FEFDCF8EB52E
:104C50009EBD0DB407FEFDCF8EB52EBD0DB407FE73
:104C6000FDCF8EB51EBC0DB407FEFDCF1EB58881ED
:104C700061E00E94DFA0812FDF91CF911F910F9102
:104C80000895CF93DF93EC01888161E00E9473A0C7
:104C9000888161E00E94DFA0CE010E944F2581E063
:104CA0008EBD0DB407FEFDCF8EB580E48EBD0DB474
:104CB00007FEFDCF8EB5888161E00E94DFA0DF9105
:104CC000CF910895FC01673020F086E1868380E073
:104CD0000895658381E00895FC01848161E00E946C
:104CE000DFA00895DC016EBDFA0120E030E00DB4D4
:104CF00007FEFDCF80818EBD0DB407FEFDCF818103
:104D00008EBD2E5F3F4F329682E02030380779F714
:104D10000DB407FEFDCF8FEF8EBD0DB407FEFDCFA6
:104D20008EB58FEF8EBD0DB407FEFDCF8EB58FEF24
:104D30008EBD0DB407FEFDCF8EB51B968C931B97D1
:104D40008F71853011F481E0089581E116968C937E
:104D50001697CD010E946C2680E00895CF93DF93D3
:104D6000EC018F818823D1F08FEF8EBD28853985A6
:104D70004FEF04C00DB407FEFDCF4EBD2F5F3F4F78
:104D8000C901019781509240A8F3398728870DB453
:104D900007FEFDCFCE010E946C261F82DF91CF91CE
:104DA0000895FF920F931F938C01F62E0E94AE265A
:104DB000F801F2861F910F91FF900895FF920F93D3
:104DC0001F93CF93DF93EC010E944F9F8B01FF2431
:104DD000FA9409C00E944F9F601B710B6D52714085
:104DE00010F08FE00DC0FEBC0DB407FEFDCF8EB5F8
:104DF0008B878F3F79F38E3F11F481E006C08DE001
:104E00008E83CE010E946C2680E0DF91CF911F91AE
:104E10000F91FF900895FF920F931F93CF93DF930D
:104E20008B010E944F9FEB01FF24FA94FEBC0DB44E
:104E300007FEFDCF8EB58F3F11F481E008C00E94C0
:104E40004F9F6C1B7D0B6017710780F380E0DF9133
:104E5000CF911F910F91FF900895CF93DF93EC01B5
:104E600068E572E00E940B27882391F08DEF8EBDDC
:104E70000DB407FEFDCF8EB5CE0168E572E00E944D
:104E80000B27882329F0CE010E946C2681E006C002
:104E900080E18E83CE010E946C2680E0DF91CF916D
:104EA00008950F931F93CF93DF93EC018B0168E577
:104EB00072E00E940B27882339F483E18E83CE01B0
:104EC0000E946C2680E005C0CE016CEFA8010E9414
:104ED0007226DF91CF911F910F910895DF92EF928B
:104EE000FF920F931F93CF93DF93EC01D62E79019E
:104EF0008A010E94AE268C8160E00E94DFA0CE0174
:104F00006CE271E00E940B278D2D80648EBD0DB484
:104F100007FEFDCF8EB528E130E0D801C701022E93
:104F200004C0B695A795979587950A94D2F78EBD3C
:104F30000DB407FEFDCF8EB5285030408FEF283FCF
:104F4000380759F7DD2011F485E906C088E0D81646
:104F500011F487E801C08FEF8EBD0DB407FEFDCFC1
:104F60008EB590E02FEF2EBD0DB407FEFDCF8EB5B0
:104F700087FF02C09150B9F78B87DF91CF911F91C6
:104F80000F91FF90EF90DF9008958F929F92AF92D4
:104F9000BF92CF92DF92EF92FF920F931F93CF9326
:104FA000DF93EC016A017B0148015901411551056C
:104FB0006105710511F482E126C067E320E030E06D
:104FC00040E050E00E946E27CE0167E1A501940108
:104FD0000E946E27882311F087E015C08C858330EE
:104FE00039F089E0CC0CDD1CEE1CFF1C8A95D1F752
:104FF000CE0169E1A70196010E946E27882311F472
:1050000081E006C085E08E83CE010E946C2680E0A0
:10501000DF91CF911F910F91FF90EF90DF90CF9094
:10502000BF90AF909F908F9008950F931F93CF9351
:10503000DF93EC01142F052F20E030E040E050E03A
:105040000E946E27882319F08EE08E8326C0CE0141
:105050000E94DE26882309F1812F902FFC019FEF0B
:105060009F01205F3F4F9EBD0DB407FEFDCF8EB563
:105070008193E217F307B9F78FEF8EBD0DB407FEEA
:10508000FDCF8EB58FEF8EBD0DB407FEFDCF8EB573
:10509000CE010E946C2681E004C0CE010E946C26E5
:1050A00080E0DF91CF911F910F910895DF93CF930F
:1050B000CDB7DEB760970FB6F894DEBF0FBECDBF99
:1050C00069E0AE014F5F5F4F0E941528882329F0E9
:1050D0008B85829586958695817060960FB6F8943B
:1050E000DEBF0FBECDBFCF91DF910895EF92FF924B
:1050F0000F931F93DF93CF93CDB7DEB760970FB6B3
:10510000F894DEBF0FBECDBF8C0169E0AE014F5FEA
:105110005F4F0E941528882309F461C08981807C33
:1051200089F58F818370382F330F330F20E0888506
:1051300090E0880F991F880F991F282B392B89859C
:10514000829586958695837090E0282B392B2F5F6A
:105150003F4F790100E010E08E818F7090E007975B
:105160002A852370220F3B85331F3327331F232BC0
:10517000820F911D04C0EE0CFF1C001F111F8A95A9
:10518000D2F730C0803441F588858695869590E0C9
:10519000A0E0B0E08C01FF24EE248A8590E0A0E03E
:1051A000B0E0E82AF92A0A2B1B2B998580E0AA2770
:1051B00097FDA095BA2FE82AF92A0A2B1B2B0894F1
:1051C000E11CF11C011D111D9AE0EE0CFF1C001FDB
:1051D000111F9A95D1F706C089E0F8018683EE2465
:1051E000FF248701B701C80160960FB6F894DEBFAF
:1051F0000FBECDBFCF91DF911F910F91FF90EF9028
:1052000008958F929F92AF92BF92CF92DF92EF92CA
:10521000FF920F931F93CF93DF93EC015A016B0121
:1052200049010115110509F47BC0C801820F931FC4
:105230008150924008F06FC08F81882371F088817F
:105240009981AA81BB81481759076A077B0729F40E
:10525000888599858816990618F5A882B982CA8228
:10526000DB828C85833039F059E0AA0CBB1CCC1C46
:10527000DD1C5A95D1F7CE0161E1A60195010E948E
:105280006E27882319F083E08E8345C0CE010E94EB
:10529000DE26882309F43FC01986188681E08F83B3
:1052A0008FEF8EBD888599852FEF05C00DB407FE61
:1052B000FDCF2EBD019688159905C0F39987888783
:1052C000D801119720E030E09FEF0BC00DB407FE2E
:1052D000FDCF8EB5F701E20FF31F80839EBD2F5FD8
:1052E0003F4F2A173B0790F30DB407FEFDCF8EB555
:1052F000AE0DBF1D8C9328853985200F311F39874E
:1053000028878A85882319F02050324048F0CE0142
:105310000E94AE2605C0CE010E946C2680E001C02E
:1053200081E0DF91CF911F910F91FF90EF90DF907F
:10533000CF90BF90AF909F908F900895EF92FF9283
:105340000F931F93790120E030E000E012E00E940B
:1053500001291F910F91FF90EF900895CF92DF9256
:10536000EF92FF920F931F93CF93DF93EC017A019B
:105370008B016901411551056105710511F482E147
:1053800037C08C85833039F069E0EE0CFF1C001FBC
:10539000111F6A95D1F7CE0168E1A80197010E941B
:1053A0006E27882311F084E023C0CE016EEFA601A2
:1053B0000E9472268823E9F0CE0168E572E00E941F
:1053C0000B27882311F485E113C0CE016DE020E0A6
:1053D00030E040E050E00E946E27882341F48FEFD8
:1053E0008EBD0DB407FEFDCF8EB5882379F084E124
:1053F0008E83CE010E946C2680E0DF91CF911F91B9
:105400000F91FF90EF90DF90CF900895CE010E9412
:105410006C2681E0F2CF8F929F92AF92BF92CF9293
:10542000DF92EF92FF920F931F93CF93DF93EC01E4
:105430006A017B01480159010E945628882311F412
:105440008BE02EC08C85833071F0E9E0CC0CDD1C44
:10545000EE1CFF1CEA95D1F779E0880C991CAA1C78
:10546000BB1C7A95D1F7CE0160E2A70196010E949C
:105470006E27882391F4CE0161E2A50194010E9478
:105480006E27882351F4CE0166E220E030E040E050
:1054900050E00E946E278823D1F08AE001C08CE0A2
:1054A0008E83CE010E946C2680E004C0CE010E9453
:1054B0006C2681E0DF91CF911F910F91FF90EF90CB
:1054C000DF90CF90BF90AF909F908F900895CE01C6
:1054D00060E177E20E940B27882309F3E7CFBF92B0
:1054E000CF92DF92EF92FF920F931F93CF93DF93B0
:1054F000EC01B62E1C861A861F821E820E944F9FC8
:105500006B018C8161E00E9473A0CE010E946C2629
:105510008CE060E00E9473A08BE061E00E9473A0C9
:105520008DE061E00E9473A083E58CBD8DB58E7F18
:105530008DBD83E08D8380E09FEF9EBD0DB407FE9F
:10554000FDCF2EB58F5F8A30C1F709C00E944F9FF3
:105550006C197D09615D774010F081E05EC0CE017D
:1055600060E020E030E040E050E00E946E27182F1D
:105570008B87813059F7CE0168E02AEA31E040E0BC
:1055800050E00E946E2782FF02C01C8711C080E09D
:105590002FEF2EBD0DB407FEFDCF9EB58F5F84307B
:1055A000C1F79B879A3A11F082E037C082E08C877E
:1055B0008C85823021F0EE24FF2487010FC0E12C7E
:1055C000F12C012DF0E41F2F09C00E944F9F6C1990
:1055D0007D09615D774010F088E01FC0CE0167E370
:1055E00020E030E040E050E00E946E27CE0169E20A
:1055F000A80197010E946E278B87882331F78C853D
:10560000823029F5CE016AE320E030E040E050E04E
:105610000E946E27882331F086E08E83CE010E949F
:105620006C2621C08FEF8EBD0DB407FEFDCF8EB569
:10563000807C803C11F483E08C8780E09FEF9EBDEE
:105640000DB407FEFDCF2EB58F5F8330C1F7CE01BD
:105650000E946C2686E08B1518F486E18E8303C0C9
:10566000BD8281E001C080E0DF91CF911F910F9159
:10567000FF90EF90DF90CF90BF900895FC0185815F
:105680000E94B31C80E00E94AE1C81E00E94A51C19
:105690000895CF93DF93EB01DC0190E020E03EE240
:1056A0008C91803269F0283029F4FE01E90FF11D58
:1056B00030839F5FFE01E90FF11D8C9180839F5F16
:1056C0002F5F11962B3061F7C90FD11D1882DF9122
:1056D000CF910895CF93DF93EC01DB0180E090E060
:1056E00020E2FD01E80FF91F208301968B30910520
:1056F000C1F757E040E021C02E3219F088EF90E06A
:1057000007C05A3019F15AE048E017C03217F1F0DB
:10571000FC01019634913323C9F75417B8F02132B4
:10572000A8F02F3798F4822F81568A3108F420523E
:10573000FD01E40FF11D20834F5F29912223E1F643
:1057400090E08C91803219F091E001C090E0892FB7
:10575000DF91CF9108950F931F93CF93DF938C0127
:10576000EB0109C0D801ED91FC910190F081E02D91
:10577000C80109952196FE016491662399F7DF918E
:10578000CF911F910F9108950F931F938C010E9449
:10579000AB2BC8010E94358C1F910F9108956F9219
:1057A0007F928F929F92AF92BF92CF92DF92EF92B1
:1057B000FF920F931F93CF93DF93EC017A018B013C
:1057C0002D81222309F480C08B899C89AD89BE89F3
:1057D00084179507A607B70708F476C085C0E114BB
:1057E000F1040105110549F41E821F8218861986ED
:1057F0001A861B861C861D8665C02A853B854C85BE
:105800005D85EB8DFC8D858590E0099621503040BB
:105810004040504039014A01082E04C096948794B4
:10582000779467940A94D2F72F5F3F4F4F4F5F4FA3
:105830000894E108F108010911095701680104C041
:10584000D694C794B794A7948A95D2F70894E11C8C
:10585000F11C011D111DA614B704C804D90428F0B9
:10586000211531054105510549F48F89988DA98D80
:10587000BA8D8E839F83A887B98716C0A618B708EC
:10588000C808D90811C04E815F81688579858B8DE4
:105890009C8D94010E945C3B0894A108B108C1084A
:1058A000D108882331F410C086E0882E912C8C0E0C
:1058B0009D1EA114B104C104D10429F7EA86FB8618
:1058C0000C871D8781E001C080E0DF91CF911F919F
:1058D0000F91FF90EF90DF90CF90BF90AF909F908F
:1058E0008F907F906F900895223009F078CFE6CFA7
:1058F0006F927F928F929F92AF92BF92CF92DF92E0
:10590000EF92FF920F931F93DF93CF9300D000D0BD
:10591000CDB7DEB76C014B013A01DC015796ED9033
:10592000FD900D911C915A97E114F10401051105A8
:1059300009F482C05E010894A11CB11CF601838D9C
:10594000948DB801A70195010E945C3B882309F45E
:1059500073C029813A814B815C81D801C7010196CE
:10596000A11DB11D281739074A075B0719F47901F2
:105970008A01E4CFD6015B966D917C915C97FB0127
:105980008789803129F088EF9FEFAFEFBFE004C037
:1059900088EF9FEFA0E0B0E0281739074A075B07C0
:1059A00008F44AC0F6018789908DA18DB28D0297C7
:1059B000A109B109FB01058404C0880F991FAA1F22
:1059C000BB1F0A94D2F72685378540895189820FFB
:1059D000931FA41FB51FF40180839183A283B38317
:1059E000D6015B96ED91FC915C9786859785A089A1
:1059F000B1890197A109B1092481820F911DA11DCF
:105A0000B11D2EEF3FEF4FEF5FEFE20EF31E041FCD
:105A1000151F058404C0EE0CFF1C001F111F0A9403
:105A2000D2F78E0D9F1DA01FB11FF30180839183BC
:105A3000A283B38381E001C080E00F900F900F90AC
:105A40000F90CF91DF911F910F91FF90EF90DF901A
:105A5000CF90BF90AF909F908F907F906F90089560
:105A6000CF93DF93EC01462F6E857F8588899989D6
:105A70000E944039882319F420E030E00AC08A8966
:105A8000282F30E095E0220F331F9A95E1F7255D2E
:105A9000344FC901DF91CF9108950F931F93CF9396
:105AA000DF938C01FC0185818823D9F1848187FFF4
:105AB00035C0C80161E00E94302DEC01009789F1EA
:105AC000F8018581823040F483899489A589B6895B
:105AD0008C8F9D8FAE8FBF8FF8018789908D9B8FA4
