:020000040800F2
:1000000000040020912D0008DD050008E10500082E
:10001000E5050008E9050008ED05000800000000FE
:10002000000000000000000000000000F1050008D2
:10003000F505000800000000F9050008FD050008AE
:10004000E32D0008E32D0008E32D0008E32D000850
:10005000E32D0008E32D0008E32D0008E32D000840
:10006000E32D0008E32D0008E32D0008E32D000830
:10007000E32D0008E32D0008E32D0008E32D000820
:10008000E32D0008E32D0008E32D0008E32D000810
:1000900001060008E32D0008E32D0008E32D000809
:1000A000E32D0008E32D0008E32D0008E32D0008F0
:1000B000E32D0008E32D0008E32D0008E32D0008E0
:1000C000E32D0008E32D0008E32D0008E32D0008D0
:1000D000E32D0008E32D0008E32D0008E32D0008C0
:1000E000E32D0008E32D0008E32D0008E32D0008B0
:1000F000E32D0008E32D0008E32D0008E32D0008A0
:10010000E32D0008E32D0008E32D0008E32D00088F
:10011000E32D0008E32D0008E32D0008E32D00087F
:10012000E32D0008E32D0008E32D0008E32D00086F
:1001300000000000000000000000000000000000BF
:1001400000000000000000000000000000000000AF
:10015000000000000000000000000000000000009F
:10016000000000000000000000000000000000008F
:10017000000000000000000000000000000000007F
:10018000000000000000000000000000000000006F
:10019000000000000000000000000000000000005F
:1001A000000000000000000000000000000000004F
:1001B000000000000000000000000000000000003F
:1001C000000000000000000000000000000000002F
:1001D000000000000000000000000000000000001F
:0401E0005FF8E0F1F3
:1001E40008B500F07C43B3F1006F01D0012004E0B6
:1001F400024A034B1A6000F07FF808BDFD020008B4
:10020400F805002008B500F07C43B3F1006F01D07D
:10021400012004E0024A034B1A6000F047F808BDCD
:10022400B10200080006002008B500F07C43B3F1D9
:10023400006F01D0002004E0024A034B1A6000F072
:1002440033F808BDAD020008FC050020C0F381604E
:10025400012810B50ED10E4B42F2212C9C88644526
:1002640008D11888202801D1032003E0012814BFF5
:100274000120042001F00101064B01EB400033F89A
:1002840010300020190A9170D070537010BD00BF57
:10029400EC050020E42D000808B500F003F8002068
:1002A40008BD00BF00207047704700BF11F0030F66
:1002B40070B50C46064603D00E4B0A465B1806E0A2
:1002C400002512E04FF0FF3103F8011C01324FF614
:1002D400FC7104EA0101043101338A42F2D3EFE7ED
:1002E400044BE95800F0D4FF0435A819A542F7D30C
:1002F400002070BDEC01002008B501F04FF800208B
:1003040008BD00BF014B03221A607047E4010020BE
:10031400044A054B927A0AB1052200E001221A60D0
:10032400704700BF30060020E4010020164B2DE981
:10033400F04F1A6804331868043319680AB3134B6E
:10034400170E040E4FEA1169C2F3072AC2F30748D5
:10035400C0F30726C0F30745C1F3072BC1F3074CCD
:1003640083F8189083F804A083F806801F721E7324
:100374009D731C7483F814B083F816C09A70987235
:100384009974BDE8F08F00BFE8F7FF1F70000020EC
:1003940007B5142200238DF8042001A801228DF84A
:1003A40006308DF807208DF8053000F071FD0EBD84
:1003B40008B50121014801F075F808BD00080140A5
:1003C40007B50420012101F085FA02A94FF00103C9
:1003D40021F8043D034804238DF8073001F000F8A8
:1003E4000EBD00BF0008014008B520B10448082133
:1003F40001F06EF803E00248082101F067F808BD37
:100404000014014008B50020FFF7EEFF054A064B33
:10041400D16801F4E06141EA0303D360BFF34F8F75
:10042400FEE700BF00ED00E00400FA05002008B577
:1004340001F0BEF94FF40000012101F059FA08BDA2
:1004440013B500F09FFD01F017F94FF4803001F06F
:1004540033F901F09FFA254B01280446187026D180
:10046400102000F083FD022000F06AFD002001F05E
:1004740073F9002001F084F94FF4806001F076F9FB
:100484004FF480304FF4801101F042F9204601F01E
:100494004BF9392001F068FA0028FAD0022001F063
:1004A40049F901F051F908280446FAD100E0FEE7C1
:1004B40001214FF4807001F0FFF92020012101F0A7
:1004C40009FA032301A98DF80630094811338DF880
:1004D4000730ADF8044000F083FF0020FFF784FFED
:1004E400FFF7DAFE0120FFF77FFF1CBD04060020A2
:1004F4000014014007B52020012101F0EBF910237D
:100504000322054801A98DF807308DF80620ADF8BF
:10051400043000F065FF0EBD0014014010B5FFF774
:100524004FFFFFF7E7FFFFF743FF90B91F4A204B48
:10053400116801EA0303B3F1005F0AD11D4B1E4C9D
:100544001B6810681D4A2360136000F051FC236887
:1005540098471B4A1B490A2313710B701370FFF74A
:100564006FFFFFF763FF01F0A7FE1748102100F0AB
:10057400AFFF164B00221A6002E0236801332360A8
:10058400124C134B22689A42F7D90F48102100F0FD
:100594009DFF0023236002E01A6801321A600B4BAE
:1005A4000C4A19689142E0D8F6E700BF0030000811
:1005B4000000FE2F04300008100600200C06002066
:1005C400140600200806002000140140D001002079
:1005D400FEFF0200FEFF2F00704700BFFEE700BFD2
:1005E400FEE700BFFEE700BFFEE700BF704700BFA5
:1005F400704700BF704700BF704700BF08B500F0E8
:1006040001F808BD374A08B51268374B92B21A8010
:10061400364A1B88128802EA030313F4004F01D000
:1006240001F0A8FE304B314A1B88128802EA03030A
:1006340013F4806F06D02B4B4FF6FF321A602C4B0D
:100644005B689847284B1A88284B1B8803EA0202E8
:1006540012F4005F03D0234A4DF6FF711160224A61
:100664001288134013F4805F06D01E4B4EF6FF72BF
:1006740000201A6000F02EFB1B4B1C4A1B881288BA
:1006840002EA030313F4006F0CD01A4B1B7813B166
:1006940000F066FB02E0022000F01CFB114B4FF25D
:1006A400FF721A60104B1A88104B1B8803EA02026F
:1006B40012F4007F08D00B490F4A4FF6FF50086030
:1006C40011780131C9B21170074A1288134013F42A
:1006D400807F06D0034B4FF6FF6207201A6000F0BC
:1006E400F9FA08BD445C00401A06002054060020B4
:1006F40060010020B8010020D4010020034B9B7A44
:1007040013B1034B05221A60704700BF3006002066
:10071400E4010020014B04221A607047E401002028
:10072400704700BF08B5184B1A68137803F07F03AD
:10073400212B26D1022806D1144B1B78022B17D06B
:10074400092B1ED114E001280AD1104B1B78022B6F
:1007540001D0052B15D10D4B032119700C4B08E06A
:10076400052801D10B4B04E003280AD10A4B00E011
:100774000A4B4FF0000151829361002098470020FA
:1007840000E0022008BD00BF50060020080600203B
:1007940085080008D90800083D090008F509000883
:1007A40010B52F4B1B681B7803F07F03212B55D109
:1007B40001280FD12B4B1B78052B01D0022B4DD1D7
:1007C40029490124294B0C602649062200201A716C
:1007D4000A7018E0022809D1244A22490023107122
:1007E400087053709370D370184638E0042816D1FB
:1007F4001C4A1E4B11780A2909D1002002211170CC
:1008040019715871187058709870D87027E00A21BF
:10081400002011700E221A7019715871F3E706281E
:100824001CD1104B1B789A1ED2B2012A07D9052B72
:1008340005D0062B03D0092B01D000200FE00B4B71
:10084400094A084C002002212170197158719060E6
:10085400187058709870D870506000E0022010BD75
:100864005006002008060020D801002014060020AD
:10087400032903D8022801D8002000E00220704791
:1008840070B50E4B0E4CD9799D7893F803C09A79C4
:100894000CEB052502EB01220A4E6560A2600A4CAE
:1008A4000321317121705B8A20B9D31A074A146875
:1008B400238201E00648C01870BD00BF3006002046
:1008C400D80100201406002008060020500600204D
:1008D400EC01002008B1044804E0044B4FF001028D
:1008E4001B681A82704700BF0806002050060020CB
:1008F40008B50D4B0D491B6800220A60197D0C4890
:1009040011F004010B4B06D00621DA700170197145
:100914005A709A7007E00822D97002701A715970DF
:100924009970FFF76FFD08BD24010020D801002055
:10093400080600201406002010B5274B04461A7838
:10094400032A02D0062A3CD11DE02448244A8168A7
:1009540091B1416804201870107131B9214B1B7892
:10096400412B02D1204B986803E01F4B1C4A986826
:100974000121FFF76BFC24E00520D1701870107181
:10098400517091701DE0154A1268012A0BD1144967
:100994004FF0070C0020C87083F800C081F804C031
:1009A4004A7088700DE062B90F490968097D11F039
:1009B400040F06D00A490220CA70187008714A70E0
:1009C4008A700CB1064805E0084B4FF006021B681C
:1009D40020461A8210BD00BF08060020D80100205E
:1009E40014060020EC010020240100205006002001
:1009F400F8B52F4B2F4F9C789A7993F803C0D97987
:100A04002D4D3B680CEB042C02EB01210446C5F888
:100A140004C0A9605E8ABCF1000F1BD10329274AD8
:100A240001D9022100E0092111702449244A0878DF
:100A3400244E10712120002170702030D17031704B
:100A4400B070517091700CB134462FE04FF0030236
:100A54001A822BE0BCF1010F184A194B1FD0DFF8A2
:100A64006CE01948DEF808E060440EEB80204FF09B
:100A7400000C4FF0090E82F800E083F803C083F8FD
:100A840004E083F801C083F802C0FFF7CDFBAA6835
:100A94001CB93B68961B1E8208E0841906E00024FA
:100AA4000F2111701971DC705C709C702046F8BDC8
:100AB4003006002050060020D8010020080600203F
:100AC40014060020EC010020FEFF3F00240100205A
:100AD40008B5064B1B68DB78082B01D9002004E01D
:100AE400034901EBC30101F09FF808BD5006002043
:100AF4003001002008B5024901F096F808BD00BF96
:100B04002401002008B5024901F08EF808BD00BF99
:100B14005801002010B52A4B5B78032B4ED1294B8A
:100B24001B78042B46D1284B5A68002A2AD1274A1D
:100B34001178002931D021290FD19B68052B2CD1A4
:100B4400D07893780004517800EB0320137942188D
:100B540002EB03621E4B9A601FE041291DD19B6882
:100B6400052B1AD1D378907851781B0403EB00231A
:100B740012795B1803EB0263154A18469360FFF77A
:100B84002FFB0AE0012A08D911481249806851183C
:100B940000EB81209968FFF735FB0F4A0A49094C9D
:100BA40000230320D3704B60207010718B6053704E
:100BB400937003E0072B01D1FFF79AFE10BD00BF2D
:100BC4003006002008060020D8010020EC01002097
:100BD40024010020FEFF3F001406002070B5234BC3
:100BE400234D1A68234B0024D979234B51722C606E
:100BF400196848F68F1201EA020242F400721A6080
:100C0400196848F6BF7201EA020282F0200242F437
:100C1400004242F080021A602A68184B92B2D3183C
:100C2400174A5B009472174E10221A60204696F8F9
:100C3400681001F0C3FE2B6850229BB203F10053ED
:100C440003F540535B001A6096F86810204601F0E3
:100C540093FE204601F07CFD204601F047FD20462E
:100C640000F0F0FF084B01221A6070BD500600200E
:100C7400505C004014000020005C00400430002060
:100C84003006002024010020E401002010B5FFF705
:100C94004DFB064B00249C7200F086F802F042F8EB
:100CA400FFF776FB024B1C6010BD00BF300600202E
:100CB400E401002010B5064C4FF6FB73226802EAEB
:100CC40003032360FFF724FB4FF43F43236010BD6D
:100CD400405C0040072818BF1F4B10B51E4C18BFBE
:100CE40018702378052B33D8DFE803F003060A0EC7
:100CF4001621FFF7DFFF2BE0FFF7DCFF042328E0DA
:100D040002236370013324E06378013BDBB2637038
:100D14006378FBB9042218E0104B1A6892B242F0CF
:100D240010021A6005232370DB18637012E06378E5
:100D3400013BDBB26370637863B9084A4FF6EF7323
:100D4400116801EA030313600622034B1A7001E0E1
:100D54000623237010BD00BF1C060020405C004029
:100D640008B5074B1A6892B242F008021A601A6872
:100D740092B242F004021A60FFF7C4FA08BD00BF41
:100D8400405C004038B5064D01232B60054B002420
:100D940020461C60FFF728FB03232B60204638BD48
:100DA400405C0040445C004008B50120FFF71CFB98
:100DB400064B0121196006494FF4E0520A800549A7
:100DC4000020186008601A6008BD00BF405C004045
:100DD40054060020445C0040EFF30980004670474D
:100DE40080F30988704700BFEFF30880004670471E
:100DF40080F30888704700BFEFF31280704700BF8C
:100E040080F31188704700BFEFF31080704700BF74
:100E140080F31088704700BFEFF31380704700BF62
:100E240080F31388704700BF00BA704740BA704718
:100E3400C0BA704790FAA0F0704700BFD0E84F0FD7
:100E4400C0B27047D0E85F0F80B2704750E8000F1F
:100E5400704700BFC1E8400F704700BFC1E8500FA2
:100E6400704700BF41E80000704700BFEFF31480F3
:100E7400704700BF80F31488704700BF40F0BE6025
:100E8400024B40F42020D860704700BF00ED00E022
:100E940030B5C2780378EAB1134A90F801C0D26839
:100EA4000F25D243C2F30222D540C2F104020CFA48
:100EB40002FC847803F01F02012105EA040091403A
:100EC40040EA0C00094A00019A18C0B25B0982F892
:100ED400000305E003F01F02012191405B09203368
:100EE400024A42F8231030BD00ED00E000E100E0CA
:100EF40021F0604121F07F01014B0143996070476B
:100F040000ED00E019B1054B1A69104303E0034BEF
:100F14001A6922EA00001861704700BF00ED00E082
:100F2400042804D1054B1A6842F0040203E0034B81
:100F34001A6822F004021A60704700BF10E000E053
:100F4400034B1A6802F0380240EA02021A60704742
:100F540000200240044B1A6822F008021A601A6842
:100F640040EA02021A60704700200240044B1A68EB
:100F740022F010021A601A6840EA02021A607047EE
:100F840000200240034B044A5A6002F188325A603E
:100F9400704700BF0020024023016745024B1A69D5
:100FA40042F080021A61704700200240014BD86968
:100FB4008008704700200240014B186A704700BF48
:100FC40000200240024BD869C0F34000704700BFC4
:100FD40000200240024B1868C0F34010704700BF65
:100FE4000020024019B1054B1A69104303E0034B7A
:100FF4001A6922EA00001861704700BF002002400D
:10100400012804D1054BD86900F0010005E0034B29
:10101400DB6818420CBF002001207047002002400A
:10102400014BD860704700BF00200240094BDA68CA
:1010340012F0010F01D001200BE0DA6812F0040F66
:1010440001D0022005E0DB6813F0100F14BF032069
:10105400042070470020024013B504460AE0002330
:101064000193FF3301E0019B013B0193019B002BA2
:10107400F9D1013CFFF7DAFF012802D1002CEED1AF
:1010840000E004B905201CBDF8B5124C124B05460E
:10109400A36003F188330F20A3600E461746FFF7C1
:1010A400DBFF042814D1236945F0F80543F010034D
:1010B40023612E43094B37430B305F80FFF7CCFF8E
:1010C400052805D0226941F6EF7302EA0303236180
:1010D400F8BD00BF002002402301674500F8FF1F50
:1010E40038B5054640F6FF70FFF7B6FF04283CD13B
:1010F4001E4C1F4B40F6FF70A36003F18833A360BE
:10110400236943F020032361236943F040032361EF
:10111400FFF7A2FF042820D1226941F6DF7302EA17
:1011240003032361236943F0100323611DB1114BB1
:101134004FF0000202E00F4B4FF0A5021A8040F678
:10114400FF70FFF789FF05280FD0084A41F6EF73B7
:10115400116901EA0303136107E0052805D0226938
:1011640041F6DF7302EA0303236138BD0020024025
:101174002301674500F8FF1F10B504460F20FFF751
:101184006BFF04283DD11F4A1F4BE443936003F1D6
:10119400883393601169E3B241F01001FF2B1161B0
:1011A40006D01A4A0B301381FFF756FF04281FD1CB
:1011B400C4F30723FF2B06D0144A0F205381FFF7F3
:1011C4004BFF042814D1C4F30743FF2B06D00F4A66
:1011D4000F209381FFF740FF042809D1240EFF2C30
:1011E40001D1042006E0094B0F20DC81FFF734FF16
:1011F400052806D0034A41F6EF73116901EA030397
:10120400136110BD002002402301674500F8FF1F51
:1012140070B504460F200E46FFF71EFF042815D1B3
:101224000B4D0C4B0B30AB6003F18833AB602B6977
:1012340043F010032B612680FFF70EFF052805D02D
:101244002A6941F6EF7302EA03032B6170BD00BF04
:10125400002002402301674570B504460F200E4666
:10126400FFF7FAFE042810D1084D0B302B6943F028
:1012740001032B612680FFF7EFFE052805D02A69BC
:1012840041F6FE7302EA03032B6170BD00200240A5
:1012940073B5002304460F2001930E46FFF7DCFECE
:1012A40004281BD10E4DB3B22A690B3042F001025F
:1012B4002A612380FFF7D0FE042807D10234019469
:1012C400019B360C1E800B30FFF7C6FE052805D0A7
:1012D4002A6941F6FE7302EA03032B617CBD00BF59
:1012E4000020024010B540F6FF70FFF7B5FE042859
:1012F4002CD1174C174B40F6FF70A36003F18833D1
:10130400A360236943F020032361236943F040036E
:101314002361FFF7A1FE042810D1226941F6DF738F
:1013240002EA0303236123694FF0A50243F010038B
:101334002361094B0B301A80FFF78EFE052805D078
:10134400226941F6EF7302EA0303236110BD00BF73
:10135400002002402301674500F8FF1F10B540F646
:10136400FF70FFF779FE042814D10B4C40F6FF7090
:10137400236943F004032361236943F04003236199
:10138400FFF76AFE052805D0226941F6FB7302EADD
:101394000303236110BD00BF0020024038B5054699
:1013A40040F6FF70FFF758FE042815D10B4C40F6A9
:1013B400FF70236943F0020323616561236943F0ED
:1013C40040032361FFF748FE052805D0226941F652
:1013D400FD7302EA0303236138BD00BF002002400D
:1013E400CB78F0B513F0100F03F00F021CBF8B780D
:1013F4001A430B781BB3046800234FF0010C0CFA5A
:1014040003FC0D880CEA0505654514D14FEA830CED
:101414000F2707FA0CF702FA0CF691F803C024EA36
:1014240007043443BCF1280F01D1456103E0BCF14A
:10143400480F08BF05610133082BDED104600B8817
:10144400FF2B25D94568002303F1080C012404FA75
:101454000CF4B1F800C004EA0C0CA44514D14FEA12
:10146400830C0F2707FA0CF702FA0CFCCE7825EA56
:101474000705282E08BF446145EA0C0591F803C00E
:10148400BCF1480F08BF04610133082BDCD145606F
:10149400F0BD00BF0423C370022383704FF0FF33F9
:1014A40003807047836819420CBF002001207047F5
:1014B400806880B2704700BFC36819420CBF002027
:1014C40001207047C06880B2704700BF0161704757
:1014D400416170470AB1016100E04161704700BF9A
:1014E400C160704741F480338361816183618369A2
:1014F4008369704710B5064A4FF68073146841EA51
:10150400001104EA030341EA0303136010BD00BFA2
:1015140000000140014B1860704700BF1C002042CE
:1015240030B50304144A00F4401C1B0CBCF5401FE6
:10153400546806D1556824F0706425F070655560D0
:1015440011E010F4801F06D0C0F303424FF0030CE7
:101554000CFA02F203E0420D120113FA02F224EA39
:10156400020444F0706419B1400D000183401C432F
:10157400014B5C6030BD00BF0000014001F003037B
:101584009B000F229A4010FA03F310B58908074C08
:10159400023154F8210020EA020244F8212054F8D0
:1015A4002120134344F8213010BD00BF0000014046
:1015B400014B1860704700BFDC0020420120014647
:1015C40008B500F0A3F90120002100F09FF908BD3F
:1015D40008B5224B984205D10420012100F096F968
:1015E400042036E01E4B984205D10820012100F06A
:1015F4008DF908202DE01B4B984205D110200121C4
:1016040000F084F9102024E0174B984205D12020E3
:10161400012100F07BF920201BE0144B984205D1F6
:101624004020012100F072F9402012E0104B984252
:1016340005D18020012100F069F9802009E00D4BDB
:10164400984209D14FF48070012100F05FF94FF402
:101654008070002100F05AF908BD00BF0008014065
:10166400000C01400010014000140140001801402A
:10167400001C0140002001400D4B0E4A196841F046
:1016840001011960596801EA02025A601A6822F0DD
:10169400847222F480321A601A6822F480221A605A
:1016A4005A6822F4FE025A604FF41F029A6070478F
:1016B400001002400000FFF80C4BB0F5803F1A68A0
:1016C40022F480321A601A6822F480221A6003D04D
:1016D400B0F5802F08D103E01A6842F4803202E0AA
:1016E4001A6842F4A0221A60704700BF001002403A
:1016F400034B1A6822F0F80242EAC0021A607047EB
:1017040000100240014B1860704700BF00004242C5
:10171400044B5A6822F47C1240EA02020A435A60DB
:10172400704700BF00100240014B1860704700BFB3
:1017340060004242034B5A6822F0030240EA02026C
:101744005A60704700100240024B586800F00C00C9
:10175400704700BF00100240034B5A6822F0F002A9
:1017640040EA02025A60704700100240034B5A6874
:1017740022F4E06240EA02025A607047001002401C
:10178400034B5A6822F4605242EAC0025A6070471E
:101794000010024019B1054B1A78104303E0034BC3
:1017A4001A7822EA00001870704700BF091002403E
:1017B400014B1860704700BFD8004242034B5A687F
:1017C40022F4404240EA02025A607047001002408C
:1017D400064B002201281A701A7002D0042804D182
:1017E40001E0187001E005221A70704720100240D1
:1017F400014B1860704700BF80044242024B1A6AD2
:1018040040EA02021A62704700100240014B18605D
:10181400704700BF3C04424210B5214B5A6802F0A5
:101824000C02042A02D0082A15D101E01D4B13E052
:101834005A685968C2F38342023211F4803F01D1DD
:10184400194B05E05B6813F4003F14BF174B154BAD
:101854005A43026001E0164B0360114A154B51686C
:101864000468C1F30311595C34FA01F1416054680E
:10187400C4F3022C13F80C4031FA04F48460546865
:10188400C4F3C22C13F80CC021FA0CF1C1605268E5
:10189400C2F38132D3181B7CB1FBF3F1016110BD9B
:1018A40000100240001BB70000093D00808D5B0062
:1018B40000127A00BC01002019B1054B5A6910438B
:1018C40003E0034B5A6922EA00005861704700BFE5
:1018D4000010024019B1054B9A69104303E0034B11
:1018E4009A6922EA00009861704700BF0010024024
:1018F40019B1054BDA69104303E0034BDA6922EAB4
:101904000000D861704700BF0010024019B1054BB8
:10191400DA68104303E0034BDA6822EA0000D86077
:10192400704700BF0010024019B1054B1A691043FB
:1019340003E0034B1A6922EA00001861704700BFF4
:1019440000100240014B1860704700BF400442423F
:10195400014B1860704700BF4C004242014B1870A5
:10196400704700BF071002404309012B02D1084B06
:101974001B6805E0022B0BBF054B054B1B6A5B6A1A
:1019840000F01F0033FA00F000F00100704700BFC0
:101994000010024007B5002301933120FFF7E4FF54
:1019A400019B01330193019BB3F5A06F01D0002883
:1019B400F3D03120FFF7D8FF003818BF01200EBD47
:1019C400024B5A6A42F080725A6270470010024019
:1019D400034B9B6818420CBF00200120704700BFD6
:1019E40000100240014B1870704700BF0A100240FB
:1019F40010B5074C20B922684FF00103138205E0AB
:101A0400044B1B681B68984720680A3010BD00BF50
:101A1400500600204C06002010B50A4B0A4A1B68E9
:101A24005178DA7891420AD3997841B99C8834B9CB
:101A34009A72064B1B685B689847204600E00220B8
:101A440010BD00BF50060020900100204C0600206D
:101A540010B5074C20B922684FF00103138205E04A
:101A6400044B1B689B68984720680C3010BD00BF6E
:101A7400500600204C06002038B50F4C0F4B22684E
:101A84001B68D1789B695079984723689A7A82B108
:101A940078B91A796AB99D785DB9094B1B68DB6816
:101AA4009847236828465A79DA722368DA781A73D1
:101AB40000E0022038BD00BF5006002028060020A8
:101AC4004C06002008B50246254B20B91B684FF090
:101AD4000201198242E0234A4FF000011B68118081
:101AE400197811F07F0115D15B7A117813F0200F6A
:101AF40014BF41F0020121F0020113F0400F194B11
:101B0400117015BF1A781A7842F0010222F001020E
:101B14001A701EE0012921D0022901D000221DE003
:101B2400597911F0800F01F00F0306D00E4951F8D6
:101B3400233003F03003102B06E00B4951F8233017
:101B440003F44053B3F5805F03D1137843F00103EA
:101B54001370064B1B681B699847024A104608BD60
:101B64005006002020060020005C00404C060020A7
:101B740010B5204B19684A7912F0800F22F08003C7
:101B840005D01D4850F8230000F0300004E01A4846
:101B940050F8230000F44050184C94F800C06345FA
:101BA40026D24C8824BB18B3897A09B312F0800F6B
:101BB40009D0114948F6BF7251F8230000EA020225
:101BC40082F0100208E00C494BF68F7251F82300A2
:101BD40000EA020282F4805242F4004242F080029F
:101BE40041F82320064B1B689B699847002000E0BE
:101BF400022010BD50060020005C0040900100202F
:101C04004C06002008B5064B1B685A7A42F02002A5
:101C14005A72044B1B68DB699847002008BD00BF5B
:101C2400500600204C060020054B1A68538A18B948
:101C34008988CB1A138201E008681818704700BF1E
:101C44005006002030B5104B1C78002314E05FFAD6
:101C540083FC4FEA8C0202F1804202F5B842156817
:101C64004CF4004C40F60F7105EA01014CF0800C75
:101C74004CEA010111600133A342E8D3034B40F065
:101C84008000186030BD00BF900100204C5C004013
:101C9400704700BF08B50C4B002093F82C1000F0DF
:101CA4008DFE0A4B1B681A7A082A07D1084A4FF49A
:101CB40080511180074A4FF010011180187A0928C9
:101CC40014BF0020012008BD600100205006002040
:101CD400560600205806002070B52F4B1C68237A46
:101CE400022B52D0042B50D0032B01D0052B46D10C
:101CF400A369228AABB1A2B1A58A954228BF154631
:101D040028469847228A638A521BEB180646228289
:101D14006382002000F022FE2A460146304600F08D
:101D24000BFC238A5BB11D4B4FF4405200201A80F8
:101D3400014600F021FE1A4B4FF030021A80A28AAD
:101D4400238A9A4203D8144B03221B6803E0124AE5
:101D54001BB1136805221A720DE012680621117274
:101D6400104A1168104A89B28A18520013600C4B49
:101D74004FF030021A80084B1B681B7A06E0072BD1
:101D840003D10A4B1B68DB6898470823024A126890
:101D94001372FFF77FFF70BD500600205606002027
:101DA40058060020505C0040023000202806002025
:101DB400F8B5244B1C68238A267AC3B9042E16D19D
:101DC400214822490278012A0CD1214C214A246855
:101DD4001FFA84FC6244520013604FF03002037017
:101DE4000A802BE04FF010030B80072626E0A68A1A
:101DF400A2699E4234BF35461D462846B34294BF6D
:101E04000426022690470746002000F099FD2A4642
:101E14000146384600F078FB2946002000F0ACFD6E
:101E2400638A228AEB186382084B551B4FF03002F9
:101E340025821A80084B4FF440521A80014B1B68CC
:101E44001E72F8BD50060020E8010020580600204C
:101E5400505C0040023000205606002008B5144BA8
:101E64001B681A7A022A01D0042A05D1FFF7A0FFC1
:101E74000F4B1B681B7A14E0062A11D15A78052AE5
:101E84000AD11A7812F07F0F06D1D878FFF7DAFE5C
:101E9400084B1B681B6A9847074B1B689B6898474D
:101EA4000823034A12681372FFF7F4FE08BD00BF4B
:101EB400500600204C0600202806002038B5344B7C
:101EC4001B68187810F07F0004D15A7A22F020029F
:101ED4005A725CE0022859D15A88002A56D11A79DC
:101EE400002A53D15A7912F0800F22F0800405D0D1
:101EF400284951F8241001F0300104E0254951F833
:101F0400241001F440512448007884423ED2002930
:101F14003CD09B7A002B39D012F0800F0FD01D4B90
:101F240053F8243003F03003102B29D1E4B22046B7
:101F340000F0B6FC2046302100F06EFB20E0154D89
:101F440055F8243003F44053B3F5805F18D134B905
:101F5400124B204693F82C1000F030FD02E020468E
:101F640000F088FC55F824204BF68F7302EA030333
:101F740083F4405343F4004343F0800345F8243092
:101F8400074B1B685B699847002000E0022038BDBE
:101F940050060020005C00409001002060010020F9
:101FA4004C060020F7B5894B894C19682268894B87
:101FB40089B2CB18117A5B0009291B681DD09BB22A
:101FC40003F1005303F540535B001D4615F8011B54
:101FD40003F10A0611705B7822685370B5F80300A8
:101FE400276800F099FE7880B5F80700256800F0AE
:101FF40093FEA88023687688DE80754C01222368CE
:102004001A722368DA885D78002A62D11A7812F08D
:102014007F022ED1092D02D1FFF7FEFC3BE0052DF6
:102024000DD193F90320002A4EDB9A78002A4BD174
:102034009A88002A48D19B7A002B37D044E0032D9C
:102044000BD1DA78012A27D19A882ABB5B7A13F05C
:10205400200F21D0FFF7D6FD1DE0012D1CD1DA7829
:10206400012A19D19A88BAB95B7A13F0200F13D0D8
:102074000AE0012A04D10B2D0ED1FFF7FDFC0AE082
:10208400022A09D1012D02D1FFF718FF03E0032D25
:1020940002D1FFF76DFD48B14F4B28461B685B69C1
:1020A4009847032801D109230FE068B9474A4B4BED
:1020B400126892B2D3185B0000221A60484B4FF0AA
:1020C40030021A80062300E00823414A1268137282
:1020D400E6E0062D18D11A7812F07F0F40F09880B0
:1020E4009B78012B03D13C4B1B68DB6984E0022BFA
:1020F40003D1394B1B681B6A7EE0032B40F08880B8
:10210400354B1B685B6A77E0002D3CD15988002968
:102114007ED15A6822F47F42B2F5003F78D11A7812
:1021240012F07F0203D19B88002B71D129E0012A90
:102134000BD15879284B1B689B699847002867D1B5
:1021440023689B7A002B63D01BE0022A60D15B7961
:1021540013F0800F03F00F0205D0224951F822102A
:1021640001F0300104E01F4951F8221001F44051FC
:102174001D48007882424BD213F0700F48D10029D9
:1021840046D01A4B39E0082D05D11B7813F07F0F88
:102194003ED1174B31E00A2D3AD11A7802F07F0272
:1021A400012A35D19A7A002A32D0598800292FD1B0
:1021B4005A6822F47F42B2F5803F29D15879064B00
:1021C4001B689B69984718BB0A4B16E0505C00409B
:1021D4005006002004300020280600200230002091
:1021E40058060020005C004090010020C91A000835
:1021F400F5190008551A000853B12B4A4FF0000492
:10220400116800204C8212689361984700200AE00C
:10221400254C264B22681B6850781B699847032875
:1022240001D1236806E0204B4FF6FF711B681A8A20
:102234008A4201D1092203E0022800D012B90822FF
:102244001A722DE093F90010002923DAD98801913C
:102254000198824202D9019A1A8211E08A420FD26D
:10226400124B1B6893F82C309A4201D2002205E0ED
:1022740092FBF3F103FB112212B901320C4B1A70D9
:102284000A4B1A68084B92F82C201B689A82FFF7B5
:102294008FFD05E003221A72064B4FF440521A8058
:1022A400FFF7F8FCFEBD00BF500600202806002002
:1022B400E801002056060020074A022108B5074815
:1022C40011720749074B086007490A60074A1360FF
:1022D4001B68984708BD00BF300600209401002009
:1022E4004C06002060010020500600202806002033
:1022F40008B529E047F6FF700860198801F00F015E
:102304008B0003F18043117003F5B843196889B257
:1023140011F4004F09D0186840F68F7100EA0101EA
:10232400196012780E4B013A0BE011F0800F0BD0BC
:10233400186848F60F7100EA010119601278094B18
:10234400013A53F8223098470749084B0868084A6D
:1023540080B21880188800B20028CBDB08BD00BF0B
:1023640008010020EC000020445C00401A06002014
:102374002C06002073B54FF00003ADF80630A1E041
:10238400108800F00F00830003F1804303F5B84385
:102394003070002869D123689BB22B802888514B68
:1023A40000F0300018802B8803F440532B802368FE
:1023B40003EA010142F22003594041F4004141F093
:1023C40080012160138813F0100F08D1226848F6A9
:1023D4000F7302EA03032360FFF740FD1EE0236846
:1023E4009BB2ADF80630BDF8063013F4006F08D088
:1023F400226840F68F7302EA03032360FFF7D2FDDD
:102404000CE0BDF806301BB2002B5BDA226840F604
:102414008F7302EA03032360FFF75EFC21682A88B6
:102424004BF6BF7312F4805F2F4A01EA030312884C
:1024340018BF83F4805312F4005F2A4A18BF83F450
:102444000053128812F0100F264A18BF83F01003AD
:10245400128812F0200F254A18BF83F0200343EAA4
:102464000202234B92B21A603BE01A6892B2ADF8B2
:102474000620BDF8062012B2002A0BDA196840F6CD
:102484008F7201EA02021A6032781A4B013A53F849
:1024940022309847BDF8063013F0800F12D0164949
:1024A40048F60F720B789B0003F1804303F5B843A1
:1024B400186800EA02021A600A78104B013A53F8CD
:1024C400223098470E4B0F4A1B68094C9BB213806D
:1024D4001388054D1BB2002B4BF6BF71064EFFF659
:1024E4004FAF7CBD58060020560600208080FFFFB9
:1024F400005C0040080100202C060020EC000020B5
:10250400445C00401A06002001F10051013201F53B
:10251400405110B549005208002308E010F803C0E8
:102524006478013A4CEA042C21F813C00233C4182D
:10253400002AF3D110BD00BF01F10051013201F5B1
:10254400405110B549005208002304E031F813400B
:10255400013AC4520233002AF8D110BD014B18606D
:10256400704700BF405C0040014B186880B2704760
:10257400405C0040014B1860704700BF445C004061
:10258400014B186880B27047445C0040014B1868E6
:1025940080B27047485C0040014B1860704700BF30
:1025A4004C5C0040014B186880B270474C5C0040A2
:1025B4004FF6F873024A00EA03031360704700BF42
:1025C400505C0040014B186880B27047505C00407A
:1025D400014B43F820107047005C0040024B53F855
:1025E400200080B2704700BF005C004010B5054B6E
:1025F40048F68F1253F8204004EA02020A4343F8D3
:10260400202010BD005C0040024B53F8200000F471
:10261400C0607047005C00400B4B48F6BF7C53F829
:10262400202011F0100F02EA0C0C18BF8CF0100CD3
:1026340011F0200F18BF8CF0200C4CF4004242F033
:10264400800243F820207047005C00400B4B4BF69F
:102654008F7C53F8202011F4805F02EA0C0C18BF21
:102664008CF4805C11F4005F18BF8CF4005C4CF4B3
:10267400004242F0800243F820207047005C004092
:1026840038B50D460446FFF7A9FF012D02D120F409
:10269400805003E0022D04D120F01000014B43F8D8
:1026A400240038BD005C0040024B53F8200000F0C9
:1026B40030007047005C0040024B53F8200000F4E7
:1026C40040507047005C0040074B48F6BF7253F817
:1026D400201001EA020282F0300242F4004242F089
:1026E400800243F820207047005C0040074B4BF603
:1026F4008F7253F8201001EA020282F4405242F42D
:10270400004242F0800243F820207047005C004001
:10271400064B40F60F6253F8201001EA020242F41D
:10272400004242F4C07243F820207047005C00402D
:10273400064B40F60F6253F8201001EA020242F4FD
:10274400004242F0800243F820207047005C0040C1
:10275400064B40F60F6253F8201001EA020242F4DD
:10276400004242F0800243F820207047005C0040A1
:10277400064B40F60F6253F8201001EA020242F4BD
:10278400004242F4C07243F820207047005C0040CD
:10279400064B40F60F6253F8201001EA020242F49D
:1027A400004242F4C07243F820207047005C0040AD
:1027B400064B40F60F6253F8201001EA020242F47D
:1027C400004242F0800243F820207047005C004041
:1027D400044B53F8200000F03000102814BF0020F0
:1027E40001207047005C0040054B53F8200000F4C2
:1027F4004050B0F5805F14BF00200120704700BF37
:10280400005C0040044B40F68F7253F8201001EA3C
:10281400020243F820207047005C0040044B48F655
:102824000F7253F8201001EA020243F82020704787
:10283400005C0040064B40F60F7253F8201001EA8A
:10284400020242F4404242F0800243F820207047E2
:10285400005C0040064B40F60F7253F8201001EA6A
:10286400020242F4004242F0C00243F820207047C2
:10287400005C0040094B53F8202012F4804F0BD029
:1028840053F8201040F60F7201EA020242F440426B
:1028940042F0800243F82020704700BF005C0040F3
:1028A400094B53F8202012F0400F0BD053F820109E
:1028B40040F60F7201EA020242F4004242F0C00202
:1028C40043F82020704700BF005C0040074B41F4F0
:1028D400004153F8202040F60F7C02EA0C0C41F032
:1028E400800141EA0C0143F820107047005C00406D
:1028F400024B53F8200000F00F007047005C0040CA
:10290400064B49081B6849009BB203EBC00303F163
:10291400005303F540535B0019607047505C00405E
:10292400054A064B1268490892B202EBC002D3185A
:102934005B00490019607047505C0040043000207F
:10294400054B1B689BB203EBC00303F1005303F573
:1029540040535B0018887047505C0040044A054BA4
:10296400126892B202EBC002D3185B001888704759
:10297400505C004004300020044A054B126892B2B7
:1029840002EBC002D3185B0019607047505C004032
:10299400023000203E2909D94B0911F01F0F01D143
:1029A400013B9BB29B0243F4004305E04B0811F04A
:1029B400010F18BF01339B02036070470D4A0E4B91
:1029C400126892B2D31803EBC0035B003E2909D905
:1029D4004A0911F01F0F01D1013A92B2920242F456
:1029E400004205E04A0811F0010F18BF01329202BB
:1029F4001A607047505C004006300020054A064BC0
:102A0400126892B202EBC002D3185B00186880050A
:102A1400800D7047505C004002300020054A064B90
:102A2400126892B202EBC002D3185B0018688005EA
:102A3400800D7047505C00400630002010B50B4BF1
:102A4400C0001C684908A4B2041904F1005404F538
:102A540040544900640021601968054B89B240184C
:102A6400C31852085B0052001A6010BD505C00404D
:102A740004300020064B49081B6849009BB203EB55
:102A8400C00303F1005303F540535B001960704722
:102A9400505C0040054A064B1268490892B202EBAA
:102AA400C002D3185B00490019607047505C0040B5
:102AB40004300020054B1B689BB203EBC00303F1F9
:102AC400005303F540535B0018887047505C004086
:102AD400044A054B126892B202EBC002D3185B00A1
:102AE40018887047505C004004300020012910B55C
:102AF40024D1254B25491B68C0009BB259180918DD
:102B04004B003E2A09D9510912F01F0F01D1013996
:102B140089B2890241F4004105E0510812F0010F25
:102B240018BF0131890219601749194B096889B224
:102B3400CB18181840003E2A1ED913E0022922D1CE
:102B44001149C0000C68114B1FFA84FC844463448F
:102B54005B001A6009680E4B89B24018C3185B0009
:102B64001A6010E0530912F01F0F01D1013B9BB210
:102B74009B0243F4004305E0530812F0010F18BF11
:102B840001339B02036010BD505C00400230002002
:102B94000630002001291BD11349144B096889B25E
:102BA400CB1803EBC00040003E2A09D9530912F0A8
:102BB4001F0F01D1013B9BB29B0243F4004305E08C
:102BC400530812F0010F18BF01339B0203600AE09F
:102BD400022908D10449054B096889B201EBC000F8
:102BE400C3185B001A607047505C0040023000203C
:102BF40001291BD11349144B096889B2CB1803EB83
:102C0400C00040003E2A09D9530912F01F0F01D118
:102C1400013B9BB29B0243F4004305E0530812F0CE
:102C2400010F18BF01339B0203600AE0022908D197
:102C34000449054B096889B201EBC000C3185B0065
:102C44001A607047505C004006300020054A064B6D
:102C5400126892B202EBC002D3185B0018688005B8
:102C6400800D7047505C004002300020054A064B3E
:102C7400126892B202EBC002D3185B001868800598
:102C8400800D7047505C0040063000200D4BC000A2
:102C940019680D4A89B241188A185200128812F430
:102CA4007C4F01D001200CE01A68084B92B28018C6
:102CB400C3185B0018888005800D002814BF02200B
:102CC40000207047505C0040063000200230002095
:102CD40001290BD10D4A40F60F7352F8201001EA76
:102CE400030343F4004343F0C0030CE002290CD176
:102CF400064A40F60F7352F8201001EA030343F426
:102D0400404343F0800342F820307047005C0040A9
:102D140041EA0020704700BF030AC0B243EA002022
:102D2400704700BF044A002010604FF43F43043A48
:102D34001360024A13807047445C0040540600202C
:102D440070B500F07F0528460E46FFF767FE04467F
:102D54002846FFF703FE224601463046FFF7ECFB08
:102D6400204670BD70B500F07F0528460E4694B22B
:102D7400FFF7E6FD224601463046FFF7C5FB28462D
:102D84002146FFF7F9FD002070BD00BF00F026F8D2
:102D94000C4880F30888002103E00B4B5B58435038
:102DA40004310A480A4B42189A42F6D3094A02E00F
:102DB400002342F8043B084B9A42F9D3FDF7AEFBDB
:102DC4007047000000500020F82D0008000000208B
:102DD400D0010020D00100205C0600207047FEE7EF
:102DE400B80B1400E803190064006800E803190034
:042DF400E8032D00C3
:102DF8001201000100000040830411DF00020102FB
:102E08000301000009021B00010100C0320904008F
:102E18000000FE01020409210BFF0000041A010052
:102E2800040309042603530054004D00690063009D
:102E380072006F0065006C0065006300740072002A
:102E48006F006E00690063007300000014035300F4
:102E580054004D0033003200200044004600550065
:102E68001A03530054004D00330032003100300083
:102E780000000000000000000000000060034000A7
:102E880049006E007400650072006E0061006C00FD
:102E98005F0046006C00610073006800200020009D
:102EA8002F0030007800300038003000300030004B
:102EB8003000300030002F00300036002A0030008B
:102EC800300032004B0061002C0032003500300029
:102ED8002A003000300032004B006700951C0008C3
:102EE800951C0008951C0008951C0008951C0008F6
:102EF800951C0008951C0008951C0008951C0008E6
:102F0800951C0008951C0008951C0008951C0008D5
:102F1800951C0008140000201B0000000030000869
:102F280030000020040000003400002026000000CB
:102F38005C00002014000000700000201A0000004F
:102F48008C0000206000000000000020120000003B
:102F5800910C0008E10B000825070008190B000870
:102F680029070008A507000875080008090B0008CC
:102F7800F90A0008D50A0008000000004000000017
:102F880001010000951C000801070008951C0008B5
:102F9800951C0008951C0008951C0008951C000845
:102FA800951C000819070008010000000000000037
:102FB80001020304010203040607080902040608C3
:04000005080001E40A
:00000001FF
