:020000040800F2
:1000000000040020410200086103000861030008A9
:100010006103000861030008610300086103000830
:1000200061030008610300086103000891030008F0
:1000300061030008610300086103000871040008FF
:100040006103000861030008610300086103000800
:1000500061030008610300086103000861030008F0
:1000600061030008610300086103000861030008E0
:1000700061030008610300086103000861030008D0
:1000800061030008610300086103000861030008C0
:1000900061030008610300086103000861030008B0
:1000A00061030008610300086103000861030008A0
:1000B0006103000861030008610300086103000890
:1000C0006103000861030008610300086103000880
:1000D0006103000861030008610300086103000870
:1000E0006103000861030008610300086103000860
:1000F0006103000861030008610300086103000850
:10010000610300086103000861030008610300083F
:10011000610300086103000861030008610300082F
:10012000610300086103000861030008610300081F
:1001300061030008416000086103000861030008D2
:1001400061030008610300086103000861030008FF
:10015000610300086103000861030008E16500080D
:1001600061030008610300086103000861030008DF
:1001700061030008610300086103000861030008CF
:0801800061030008610300089F
:1001900010B5002482B005F073FC00F0D9F92146B7
:1001A000154805F0CDFD4FF498714022134B009493
:1001B000134800F0D5FB4FF400714122114B00941D
:1001C000114800F0CDFB00941048114B4FF496619C
:1001D00041224FF4006400F0C3FBC4F2020403E0C8
:1001E0004FF4FA7000F00CFC23699B04F8D4024829
:1001F00001F07EFFF4E700BF6C35002011DE00083F
:1002000000780020716A0008E0350020507300205B
:1002100051DD0008AFF30080AFF30080AFF3008042
:10022000704700BFAFF30080AFF30080AFF30080F2
:10023000FEE700BFAFF30080AFF30080AFF30080B4
:1002400072B6374C84F30988022383F31488BFF312
:100250006F8F06F0B5FB334A334B9A420BD2D14332
:10026000C91821F00301131F89184FF0553243F8C4
:10027000042F8B42FBD12D4AA2420CD22C49131DD4
:10028000C91A21F00301131F89184FF0553243F8A2
:10029000042F8B42FBD12749274B99420BD2C843ED
:1002A000C01820F00300254C043000231A595A507E
:1002B00004338342FAD1224A224B9A420AD2D143D2
:1002C000C91821F00301131F8918002243F8042FD5
:1002D0008B42FBD1FFF7A4FF1B4D1C4B9D420BD261
:1002E000EE43F618B608043D0136002455F8043FE5
:1002F00001349847B442F9D1FFF74AFF144D154B2A
:100300009D420BD2EE43F618B608043D0136002498
:1003100055F8043F01349847B442F9D1FFF788FFFC
:10032000000800200000002000040020000400203D
:100330000308002000080020B808002088ED00080D
:10034000B8080020307900208801000888010008E2
:100350008801000888010008AFF30080AFF3008037
:10036000FEE700BFAFF30080AFF30080AFF3008083
:1003700072B6FEE7AFF30080AFF30080AFF300800A
:1003800000F05EFA00DF00BFAFF30080AFF3008043
:10039000EFF30983203383F30988002383F3118863
:1003A000704700BFAFF30080AFF30080AFF3008071
:1003B00008B54FF46D43CEF200030022C0F2FA52AA
:1003C0000021996007201021DA6000F099F80A20D6
:1003D0004FF4007100F094F80B208021BDE8084034
:1003E00000F08EB8AFF30080AFF30080AFF3008071
:1003F000202383F311884FF46D43CEF200035B6832
:1004000013F4006319D0EFF30983A3F1200282F300
:100410000988124A91694FF0807043F8040C79B151
:100420001168D26989689268914294BF00220122C2
:1004300082B10B4A43F8082C704783F31188704748
:100440001168D26989689268914234BF0022012202
:10045000002AEED1034A43F8082C7047D009002047
:100460008103000884030008AFF30080AFF300802D
:1004700008B5202383F3118800F0A2F8002383F34A
:100480001188BDE80840FFF7B3BF00BFAFF300809D
:100490002DE9F04FC1F80CD0D0F80CD0BDE8F08FAA
:1004A000002383F311882846A04700F009FB70471A
:1004B000F0B44FF461438408CEF20003C03400F07E
:1004C000030553F82470ED00FF26420906FA05F6ED
:1004D00027EA060601FA05F500F01F0002F16007A1
:1004E000012101FA00F02E4343F8246043F827006D
:1004F00043F82200F0BC7047AFF30080AFF30080F8
:1005000082084FF46D43CEF20003063200F0030080
:1005100030B4C00053F82250FF2404FA00F425EA56
:10052000040401FA00F10C4343F8224030BC704748
:10053000024B034ADB699A61FEE700BFD009002045
:1005400080DE0008AFF30080AFF30080AFF30080DF
:1005500000B583B0FFF72CFF00F0EAF800F058F880
:1005600001F0E6FA01F02CFB40F6B8004021C2F29F
:10057000000000F095F940F6D011C2F2000101220E
:10058000C8610277002383F3118862B64DF6886054
:10059000C969C0F600008861009340F6001040F27F
:1005A0003153C021C0F60003C2F2000000F0D8F9B8
:1005B00003B000BDAFF30080AFF30080AFF3008065
:1005C00038B5104B9A69002A01DD013A9A61DA695F
:1005D0000D4C116A236801311162E2680132A342B5
:1005E000E2600ED09D68013D9D6055B91A68D968DA
:1005F0001869DD6054602260884723689A68002A81
:10060000F4D038BDD0090020C0090020AFF300802D
:1006100040F6C013C2F200034FF0FF329A6000228E
:100620005B601B60DA607047AFF30080AFF300805F
:1006300070B40D4E03613468C260A568A94204D944
:100640002468491BA5688D42FAD363688160B4426F
:1006500043600460186018BFA36860601CBFC1EBF2
:100660000301A16070BC7047C0090020AFF3008097
:100670000368074A93421FBF996882688A189A6084
:100680004268136003685A600023C360704700BF6C
:10069000C0090020AFF30080AFF30080AFF300800B
:1006A0000B4A81420346D26809D8824234BF0023F4
:1006B00001238A422CBF184643F0010070478A424A
:1006C0002CBF002001209A4238BF0020704700BF95
:1006D000C0090020AFF30080AFF30080AFF30080CB
:1006E000037F0D2B11D8DFE803F020101007100B4B
:1006F000101010101010100B436A9A6801329A60A3
:1007000090E80C001A60026853604FF0FF324262BA
:100710008168064B002202771B689A688A42FBD2E6
:100720005A6803604260106058607047D00900202A
:1007300040F6D013C2F2000300229A6014225B60DC
:100740001B609A615B611B61704700BFAFF3008063
:1007500000228168054B02771B689A688A42FBD2A7
:100760005A6803604260106058607047D0090020EA
:1007700040F6D013C2F2000330B41A68D969146885
:100780000877142098610125104663601C60DA61C7
:10079000157730BCFFF77CBEAFF30080AFF300806D
:1007A00030B54B1C87B0054611D00B4C0B4AE369A2
:1007B00001A8FFF73DFF2846FFF7DAFF049B13B1BE
:1007C00001A8FFF755FFE369586A07B030BDFFF78E
:1007D000CFFF014CF7E700BFD0090020E106000879
:1007E000F0B4154F8568FE690446B0686162002365
:1007F00085420CD823773B461B689A689542FBD903
:100800005A682360626014605C60F0BC70473377A4
:100810003B461B689A689042FBD95A683360726005
:100820005E60012316602046FC6131462377142365
:10083000BB61F0BCFFF72CBED0090020AFF30080F5
:100840000E4A1068D16930B405688C6815601423AD
:1008500093616A60D06101220277002203460A7721
:1008600000E01B689A68A242FBD25A680B604A609B
:100870001160596030BCFFF70BBE00BFD0090020EB
:10088000044B1A68DB6992689B689A4200D87047EB
:10089000FFF7D6BFD0090020AFF30080AFF3008090
:1008A000F0B440F6D014C2F200040022656901647D
:1008B00000F12C06816000F128074FF0020C0121A5
:1008C0000461456180F81CC060614277C263826345
:1008D000026281778261286187620663C662F0BC2A
:1008E000704700BFAFF30080AFF30080AFF300802C
:1008F0002DE9F00340F6D015C2F20005A1F1240C59
:1009000000EB0C076969C76040F80C30069B7B6000
:1009100040F2A143C0F600033B620223002690464A
:1009200000F1280900F12C02037701230561C0F8CA
:1009300008804161044668614677C0F84080C6631C
:1009400086630662837786610861C0F82890026337
:10095000C262BDE8F0037047AFF30080AFF30080E0
:1009600010B51C4682B0202383F311882346049CD3
:100970000094FFF7BDFF00210446FFF731FF00237D
:1009800083F31188204602B010BD00BFAFF3008092
:1009900010B5202383F31188084BDB691C6C996820
:1009A0008C4201D0814200D298601864FFF768FF42
:1009B000002383F31188204610BD00BFD00900201A
:1009C00010B52023044683F311880021FFF708FFA8
:1009D000002383F31188204610BD00BFAFF30080D1
:1009E000202383F31188437F43F0040343770023DC
:1009F00083F31188704700BFAFF30080AFF300802E
:100A000008B50146202383F311880620FFF7C8FEAE
:100A1000002383F3118808BDAFF30080AFF300809B
:100A200008B5202383F31188054BD968411A02D0F9
:100A30000620FFF7B5FE002383F3118808BD00BF31
:100A4000C0090020AFF30080AFF30080AFF3008057
:100A500008B5202383F31188064B1A68DB69926876
:100A60009B689A4201D3FFF7EBFE002383F31188C2
:100A700008BD00BFD0090020AFF30080AFF30080B5
:100A800038B50E4BDC692546606255F8280FA84240
:100A900006D00368A362FFF75BFEA06AA842F8D104
:100AA000637F9B0704D1636922691A6122695361DC
:100AB0000E20BDE83840FFF75BBE00BFD009002024
:100AC000202383F31188FFF7DBBF00BFAFF3008063
:100AD00038B50446202383F31188037F0E2B07D0FB
:100AE000084B826ADB6907201A60A362FFF740FEA9
:100AF000656A002383F31188204600F019F8284620
:100B000038BD00BFD0090020AFF30080AFF30080F4
:100B1000202383F31188837F01338377002383F3BA
:100B200011887047AFF30080AFF30080AFF300800F
:100B30000146202383F31188827F013AD2B2827763
:100B4000002383F3118812B9037F0E2B00D0704766
:100B5000437F03F00303012B09D0022BF7D1436934
:100B60000269406C1A610A69536101F019B943695D
:100B700002691A610269536101F08AB8AFF300801B
:100B8000F0B583B00D4617461E4601F039F804460D
:100B900090B1202383F31188089C334629463A46B6
:100BA0000094FFF7A5FE0123437700210446FFF7D9
:100BB00017FE002383F31188204603B0F0BD00BF69
:100BC0002DE9F04182B005460E4690461F4601F0E1
:100BD000CFF8044690B1202383F311886968009709
:100BE00043463246FFF784FE0223437745640021E3
:100BF0000446FFF7F5FD002383F31188204602B079
:100C0000BDE8F081AFF30080AFF30080AFF3008068
:100C1000202383F3118840F6D012C2F20002002391
:100C20001069827F0132827783F31188704700BF99
:100C300010B5202383F31188074B04699C4209D027
:100C4000A37F0133A377002383F31188FFF770FF9D
:100C5000204610BD0024F6E7D0090020AFF3008045
:100C60004060006081607047AFF30080AFF30080A8
:100C700070B5856881600135002D04460BDC6FF08E
:100C800001066068436863601C60FFF761FD013521
:100C9000012D4662F5D170BDAFF30080AFF3008047
:100CA00008B5202383F31188FFF7E2FFFFF7E8FD83
:100CB000002383F3118808BDAFF30080AFF30080F9
:100CC0008268013A002A10B50346826001DB0020E9
:100CD00010BD074CE269506241681060516003200A
:100CE0005A600A60FFF744FDE369586A10BD00BF0F
:100CF000D0090020AFF30080AFF30080AFF3008095
:100D000008B5202383F31188FFF7DAFF002383F36C
:100D1000118808BDAFF30080AFF30080AFF300800F
:100D200003468068421E002A10B40C469A6002DB1B
:100D3000002010BC704759B1074AD26953625C6801
:100D4000032082E818005A60226010BCFFF728BD1B
:100D500098604FF0FF30ECE7D0090020AFF300803F
:100D600008B5202383F31188FFF7DAFF002383F30C
:100D7000118808BDAFF30080AFF30080AFF30080AF
:100D800008B50246202383F3118883680133002BC2
:100D9000836003DD002383F3118808BD00680368C6
:100DA000002113605A60FFF71BFDF3E7AFF30080EB
:100DB00082680132002A0346826000DD70470268C3
:100DC000116801604B60104600235362FFF7C0BCFE
:100DD00070B50C1E054611DD002601E0013C0DD06A
:100DE000AB680133002BAB60F8DC286803682B602C
:100DF0005D60FFF7ADFC013C4662F1D170BD00BF04
:100E000010B5024682B0202383F311888368013332
:100E1000002B836019DD8B68013B002B8B6007DBA7
:100E2000FFF72EFD0020002383F3118802B010BDD0
:100E30000B4A4B68D469032084E80A004C601C60AC
:100E40006162FFF795FC606AEDE700680368136074
:100E50005A600191FFF77CFC002343620199DAE7B5
:100E6000D0090020AFF30080AFF30080AFF3008023
:100E70000023406000608360704700BFAFF30080D4
:100E8000F8B52F4A8368D4690546002B51D0A16874
:100E90009A68914206D91A7F9960042A31D0052AAE
:100EA0001CD092B12B461B689D4203D09968A26862
:100EB0009142F8D25A6823600420626014605C603A
:100EC0006562BDE8F840FFF753BC93E80600116087
:100ED000196818464A60FFF73BFCE3E758681A6850
:100EE0005E6A02601F68324678601268964202D0DD
:100EF00090688842F9D251681A6059600B6053605B
:100F0000D0E758681A685E6A02601F6832467860E7
:100F10001268964212D090688842F9D251681A60DD
:100F200059600B605360B368A1689A688A42B2D373
:100F3000B8E7E36B8460C360E063F8BD3246EDE779
:100F4000D0090020AFF30080AFF30080AFF3008042
:100F500008B5202383F31188FFF792FF002383F362
:100F6000118808BDAFF30080AFF30080AFF30080BD
:100F70000246202383F31188836800201BB10023DD
:100F800083F311887047044BDB69D96B9360D160A0
:100F90000120DA63F3E700BFD0090020AFF300803F
:100FA000154A38B5D069202383F31188C46B2568AE
:100FB000E368A542C3631CD0016C4BB11A689A4226
:100FC00003D09268914238BF1146DB68002BF5D1FF
:100FD0002B68EA6B8160236028465C600021A56075
:100FE000E260EC63FFF7FCFB002383F311882046EB
:100FF00038BD0023A360F7E7D0090020AFF30080DD
:1010000038B5124BD869C46B2568E368A542C36341
:1010100018D0016C4BB11A689A4203D09268914281
:1010200038BF1146DB68002BF5D12B68EA6B816075
:10103000236028465C60A560E260EC63FFF788FBF4
:10104000204638BD0023A360204638BDD0090020CB
:10105000124A70B52023D46983F31188E36BC3B1BE
:1010600000261A68D9689A42E16308BF9E6009D0D9
:101070001168D56B196010464B609A60DD60D363D0
:10108000FFF766FBE36B002BEBD1236CA360FFF74C
:10109000F7FB002383F3118870BD00BFD009002047
:1010A00040600060704700BFAFF30080AFF3008086
:1010B00008B50246202383F311880068904205D0CA
:1010C0000368002113605A60FFF78AFB002383F353
:1010D000118808BDAFF30080AFF30080AFF300804C
:1010E00008B503460068984206D002681A6053604B
:1010F000FFF72EFB0023436208BD00BFAFF3008063
:1011000038B504460068A0420AD06FF001050368B4
:1011100023605C60FFF71CFB45622068A042F6D1AB
:1011200038BD00BFAFF30080AFF30080AFF30080A5
:1011300008B5202383F31188FFF7E2FFFFF7A0FB38
:10114000002383F3118808BDAFF30080AFF3008064
:10115000F8B5104B0546DC69FFF752FF2E460746EF
:1011600065622B4603E09968A268914210D31B6820
:101170009D42F8D17368266063601C60746005202E
:10118000FFF7F6FA646A3846FFF77AFE2046F8BDA4
:101190001E46EFE7D0090020AFF30080AFF30080D8
:1011A00008B5202383F31188FFF7D2FF002383F3D0
:1011B000118808BDAFF30080AFF30080AFF300806B
:1011C0002DE9F04106468846FFF71AFF0E4BDA6913
:1011D0000746334656621B689E4203D09D6894685A
:1011E000A542F8D25C68052082E8180041462260DA
:1011F0005A60FFF7D5FA431C044602D03846FFF781
:101200003FFE2046BDE8F081D0090020AFF300800A
:1012100008B5202383F31188FFF7D2FF002383F35F
:10122000118808BDAFF30080AFF30080AFF30080FA
:1012300030B4202383F3118840F6D013C2F20003A8
:101240000568DC690D60002301604C608A6083F3EF
:10125000118830BC704700BFAFF30080AFF300804F
:10126000202383F31188024600E01A461368834264
:1012700003D09942F9D10B681360002383F31188DE
:10128000704700BFAFF30080AFF30080AFF3008082
:1012900010B4202383F3118840F6D012C2F200026A
:1012A0000023D1698A6B22EA00048C6383F31188DE
:1012B000104010BC704700BFAFF30080AFF3008058
:1012C000202383F3118840F6D012C2F200020023DB
:1012D000D269916B0843906383F31188704700BF14
:1012E00008B5826B037F1143082B81630BD0092B58
:1012F00000D008BD436A19408B42FAD1FFF728FAA3
:101300000023436208BD436A1942F7D108BD00BFFC
:1013100008B5202383F31188FFF7E2FFFFF7B0FA47
:10132000002383F3118808BDAFF30080AFF3008082
:1013300070B50468A04205460E4607D0A1686068F3
:101340003143FFF7CDFF2468A542F7D170BD00BF40
:1013500008B5202383F31188FFF7EAFFFFF790FA1F
:10136000002383F3118808BDAFF30080AFF3008042
:10137000F8B50D46074689B10024012601E0013485
:1013800065B106FA04F32B42F9D057F82420204621
:1013900025EA030501349047002DF2D1F8BD00BFC6
:1013A00038B50D4B0546DC69202383F31188A36B08
:1013B00010EA030206D160620820FFF7D9F9A36B97
:1013C00005EA03025042104023EA0003A36300230E
:1013D00083F3118838BD00BFD0090020AFF300802F
:1013E00038B50B4B0546DC69202383F31188A36BCA
:1013F000184006D108206562FFF7BAF9A36B05EA29
:10140000030023EA0003A363002383F3118838BD9C
:10141000D0090020AFF30080AFF30080AFF300806D
:1014200038B50C4B0446DD69202383F31188AB6B80
:1014300000EA0302824204D068620920FFF798F9AB
:10144000AB6B23EA0403AB63002383F311882046CC
:1014500038BD00BFD0090020AFF30080AFF300809B
:10146000114B70B5DE690546202383F31188B36BF9
:1014700010EA03040ED121B9234683F311882046D4
:1014800070BD70620820FFF78BF90028F4DBB36BA6
:1014900005EA03046242144023EA0403B363002311
:1014A00083F31188204670BDD0090020AFF300807F
:1014B000104B70B5DE690446202383F31188B26BAC
:1014C00014EA02050ED121B92B4683F31188284670
:1014D00070BD08207462FFF763F90028F4DBB26B7B
:1014E00004EA020522EA0502B263002383F31188AD
:1014F000284670BDD0090020AFF30080AFF3008014
:1015000038B5134B0446DD69202383F31188AA6B99
:1015100004EA0203A3420DD029B90B4683F31188D4
:101520000C46204638BD09206C62FFF739F90028C7
:1015300008DBAA6B22EA0402AA63002383F3118862
:10154000204638BD002383F311881C46F8E700BF0E
:10155000D0090020AFF30080AFF30080AFF300802C
:1015600070B50E4BDC69202383F3118800F12C0544
:101570006562067F036B25600C2E61636360046304
:101580001C6007D00A20FFF7F3F8606A002383F39A
:10159000118870BDFFF7DCF8F4E700BFD009002028
:1015A00010B5202383F311880B4CE3691A4652F8D7
:1015B0002C0F904208D00168D9624A600B22027752
:1015C000002383F3118810BD0C20FFF7D1F8E369E5
:1015D0001A4652F82C0FEEE7D0090020AFF3008036
:1015E00008B5202383F31188FFF7FAF8002383F36B
:1015F000118808BDAFF30080AFF30080AFF3008027
:1016000038B504460B4601EB820500F11C0011467B
:10161000E360A36084E82800FFF722FB04F11000D8
:101620000021BDE83840FFF71BBB00BFAFF30080CF
:1016300010B52023044683F3118803684168C36012
:10164000C91AA360891000F11C00FFF711FB04F117
:1016500010000021FFF70CFBFFF712F9002383F3C2
:10166000118810BDAFF30080AFF30080AFF30080AE
:1016700070B504460E4600F11C001146FFF750FB02
:10168000054678B9A368626843F8046B9342A36087
:1016900028BF236804F1100028BFA360FFF788FB70
:1016A000FFF7EEF8284670BDAFF30080AFF300807F
:1016B00008B5202383F31188FFF7DAFF002383F3B3
:1016C000118808BDAFF30080AFF30080AFF3008056
:1016D000426A002A10B50FDD83684468013A42620D
:1016E00043F8041BA342836024BF03688360103067
:1016F000FFF75EFB002010BD4FF0FF3010BD00BFB4
:1017000070B504460E4600F11C001146FFF708FBB9
:10171000054660B9E3682268043B9342E36008D35E
:1017200004F110001E60FFF743FBFFF7A9F82846FD
:1017300070BD6368043BE360F2E700BFAFF3008075
:1017400008B5202383F31188FFF7DAFF002383F322
:10175000118808BDAFF30080AFF30080AFF30080C5
:10176000426A002A10B510DDC3680468043B013AE0
:10177000A3424262C36002D24368043BC36010309C
:101780001960FFF715FB002010BD4FF0FF3010BDB2
:1017900070B504460E4600F110001146FFF7C0FA7E
:1017A000054680B9E368626853F8041B93423160D0
:1017B000E36028BF236804F11C0028BFE360FFF743
:1017C000F7FAFFF75DF8284670BD00BFAFF3008061
:1017D00008B5202383F31188FFF7DAFF002383F392
:1017E000118808BDAFF30080AFF30080AFF3008035
:1017F0008269002A10B510DDC3684468013A82612D
:1018000053F8042BA3420A60C36024BF0368C3607B
:101810001C30FFF7CDFA002010BD4FF0FF3010BD97
:1018200010B4024659B1084BDB69586244680D2078
:1018300083E814005360236010BCFEF7B1BF4FF083
:10184000FF3010BC704700BFD0090020AFF300800C
:1018500010B48A1800244060006084604161816196
:10186000C1600261C36110BC704700BFAFF300806C
:1018700038B50446C36800686361A3610023A042D1
:10188000A3600AD06FF00105036823605C60FEF777
:101890005FFF45622068A042F6D138BDAFF30080FB
:1018A000426908B5034680698242986818D00130C1
:1018B000986002F8011B19695A618A4228BFDA68E8
:1018C000186828BF5A61984208D002681A605360AD
:1018D000FEF73EFF00234362184608BD002008BD06
:1018E0000028E4D06FF0030008BD00BFAFF3008014
:1018F00070B5202304460E4683F31188C36903B1F3
:101900009847A568204631463DB9FFF789FF002872
:10191000F7DA2B4683F3118870BDA3692269013D74
:10192000A56013F8010B9342A36124BFE368A36190
:10193000002383F3118870BDAFF30080AFF3008004
:101940002DE9F0471E460446C769202383F311881A
:101950004FF0000801F1010901EB020A0FB1204626
:10196000B847A568204631464DB9FFF759FF002812
:10197000F7D02B4683F311884046BDE8F087A36972
:10198000013DA56013F8012B09F8012C2269A36120
:10199000934224BFE368A361002383F31188D145F8
:1019A00008F10108E8D0202383F3118809F1010927
:1019B000D4E700BFAFF30080AFF30080AFF3008047
:1019C00010B48C1840600060826041618161C16028
:1019D0000461C36110BC7047AFF30080AFF30080B7
:1019E00038B50269C368044600686361D21AA04230
:1019F000A361A2600AD06FF00105036823605C60F8
:101A0000FEF7A6FE45622068A042F6D138BD00BFB1
:101A1000F8B504460F461646202383F31188A568BF
:101A2000204631463DB9FFF7FBFE0028F7DA2B468A
:101A300083F31188F8BD6369013DA56003F8017B5C
:101A400022696361934224BFE3686361E3690BB178
:101A500020469847002383F311881846F8BD00BF3D
:101A600041698269914210B50346816816D00131FF
:101A7000996012F8014B19699A618A4228BFDA68A5
:101A8000186828BF9A61984206D002681A605360AD
:101A9000FEF75EFE00234362204610BD0029E6D01B
:101AA0006FF0020010BD00BFAFF30080AFF3008005
:101AB0002DE9F0479A46044688461646D0F81C9011
:101AC000202383F311880027A56820466B1EEDB103
:101AD000A36018F8013B656905F8013B236965615E
:101AE0009D4224BFE3686361B9F1000F00D0C8478D
:101AF000002383F311880137013E10D0202383F3A4
:101B00001188A56820466B1E002DE1D12046514664
:101B1000FFF786FE0028D7D02B4683F3118838467E
:101B2000BDE8F087AFF30080AFF30080AFF3008033
:101B300040F6F41240F6F0134CF200010648C2F2EF
:101B40000002C2F20003C2F2010120F0070021F0FE
:101B5000070110601960704737790020AFF30080EB
:101B6000202383F31188094B09491A680968073053
:101B700020F00700891A88429ABF101818600022C6
:101B8000002383F311881046704700BFF40900203A
:101B9000F0090020AFF30080AFF30080AFF30080C6
:101BA00040F6F01240F6F413C2F20002C2F2000353
:101BB00010681B68C01A7047AFF30080AFF3008055
:101BC00040F6F813C2F2000341F661310022C0F67C
:101BD000000103F1100019609A60DA60FFF748B95C
:101BE000002303608160C360083A10300B604A60D4
:101BF000FFF73EB9AFF30080AFF30080AFF3008092
:101C0000F8B5204E002818BF0646073106F110002F
:101C100021F0070506F10804FFF79AF900E01C46D9
:101C20002368FBB15A689542F9D805F10801914241
:101C300015D84FF6F870CFF6FF70401B03EB010E7E
:101C400082181868CEF8042058505D60C4F800E08F
:101C50001C4644F8086BFFF7A3F92046F8BD1A6844
:101C60002260F5E7FFF79CF933684BB105F10800F6
:101C7000984728B100F10804066045602046F8BD89
:101C80000024EAE7F8090020AFF30080AFF30080FA
:101C900070B50646A0F1080450F8080C00F10805DC
:101CA0001030FFF755F92B46AB421A6801D0A3421A
:101CB00002D21AB1944201D31346F5E756F8041C38
:101CC00046F8082C1C6001F1080256F8085CA018C0
:101CD000A84209D05A6802F1080159188C4211D063
:101CE000BDE87040FFF75CB94068A2580918083198
:101CF00046F8041C46F8082C5A6802F108015918E5
:101D00008C42EDD156F8040C56F8081C1218083213
:101D100083E80600E4E700BFAFF30080AFF3008084
:101D200038B50E4C002818BF044604F110000D46CB
:101D3000FFF70EF9A3686BB10022144658681B68C0
:101D400012180134002BF9D105B12A60FFF728F9E8
:101D5000204638BD1A461C46F6E700BFF8090020A9
:101D6000073121F007010023036041608260704762
:101D700008B50246202383F31188006828B1036860
:101D80001360002383F3118808BD9368002BF8D0FB
:101D900050689847F5E700BFAFF30080AFF30080CD
:101DA000202383F31188026800230A60016083F313
:101DB00011887047AFF30080AFF30080AFF300806D
:101DC00041F21003C2F2000301221A60704700BF03
:101DD00070B50D4E4C2430680B4D03682D211B69E6
:101DE0004FF0FF329847013CF5D1286803680D2178
:101DF0004FF0FF321B699847286803680A211B6966
:101E00004FF0FF32984770BD44100020AFF30080C0
:101E100070B584B0002828D00DF101054CF6CD46F0
:101E20002B46CCF6CC46A6FB0012D20802EB820170
:101E3000A0EB41013031C9B21C4603F8011C104629
:101E40000133002AEFD16B469C420CD90B4E02E0C5
:101E500014F8021C013C306803684FF0FF321B6924
:101E60009847AC42F4D104B070BD044B18680368C5
:101E700030211B694FF0FF329847F4E744100020EF
:101E800038B5017859B1064D0446286803684FF00B
:101E9000FF321B69984714F8011F0029F5D138BD9E
:101EA00044100020AFF30080AFF30080AFF3008058
:101EB00038B501780D4D51B10446286803684FF0DC
:101EC000FF321B69984714F8011F0029F5D12868D3
:101ED00003680D211B694FF0FF329847286803689B
:101EE0000A211B694FF0FF32984738BD441000208B
:101EF000202383F3118841F21402C2F2000200236E
:101F0000116801F8010B116083F31188704700BF5D
:101F100041B9054A01231360044A1360044A106062
:101F200018467047002070470C1000201810002041
:101F300008100020AFF30080AFF30080AFF3008003
:101F4000F0B40F4E0F4F35683B4604E011F8014BDB
:101F50001278A24209D19D421A4603F10103F5D835
:101F60000B7813B93760184607E0074A012313605E
:101F7000064A1360064A10601846F0BC704700BF5E
:101F800014100020481000200C1000201810002011
:101F900008100020AFF30080AFF30080AFF30080A3
:101FA00010B5044608461146FEF77AFB40B9054ACB
:101FB00001231360044A1360044A1846146010BDDC
:101FC000002010BD0C100020181000200810002068
:101FD00038B5064C04F1140554F8043F18460BB10B
:101FE000FEF7FEFCAC42F7D138BD00BF2C1000203C
:101FF00070B5074C002604F1140554F8043B18464C
:102000001BB1FEF765FD44F8046CAC42F5D170BD20
:1020100030100020AFF30080AFF30080AFF30080FA
:10202000154B30B4DC694FF47A7303FB00F0226A7D
:1020300044F6D353A0F57A71C1F26203501CA3FB9E
:10204000015300EB93118A42236A0AD28B422CBFC0
:1020500000200120934238BF00200028F3D130BC7B
:102060007047934234BF002001208B4238BF40F0BC
:1020700001000028E7D1F2E7D0090020AFF300808B
:1020800008B50120FEF7BCFC40F6C013C2F2000305
:10209000D86808BDAFF30080AFF30080AFF30080D5
:1020A00041F21003C2F2000310B500241C6020238B
:1020B00083F311884FF47A7303FB00F044F6D35393
:1020C000A0F57A70C1F26203A3FB0023990941F2E3
:1020D0001C0041F6C1522346C2F200000131C0F695
:1020E0000002FEF7A5FA234683F3118810BD00BF56
:1020F0002DE9F04F9F4CA04D206083B09F48FFF723
:10210000D7FE9F48FFF7D4FE9E48FFF7D1FE2A2155
:10211000206803684FF0FF321B69984715F8011FCC
:102120000029F5D19848994DFFF7C2FE2A21206871
:1021300003684FF0FF321B69984715F8011F00290B
:10214000F5D19348934DFFF7B3FE2A212068036829
:102150004FF0FF321B69984715F8011F0029F5D190
:102160008D488E4DFFF7A4FE2A21206803684FF0AA
:10217000FF321B69984715F8011F0029F5D18848DF
:10218000884DFFF795FE2A21206803684FF0FF3243
:102190001B69984715F8011F0029F5D18248834D26
:1021A000FFF786FE2A21206803684FF0FF321B6983
:1021B000984715F8011F0029F5D17D487D4DFFF79F
:1021C00077FE2A21206803684FF0FF321B69984789
:1021D00015F8011F0029F5D17748784DFFF768FE03
:1021E0002A21206803684FF0FF321B69984715F8D1
:1021F000011F0029F5D1724B724800910193FFF73E
:1022000057FE5E48704EDFF8F491704FFFF750FEB6
:1022100041F218020099C2F200028A4611600AF1E6
:10222000010A4FF0000857F8043B002B00F09380A0
:10223000674DFFF7CDFD2D21206803684FF0FF3279
:102240001B69984715F8011F0029F5D15046FFF783
:10225000DFFD484B5F4D186803682E214FF0FF32B9
:102260001B6908F1010898474046FFF7D1FD20217E
:10227000206803684FF0FF321B69984715F8011F6B
:102280000029F5D157F8043C1D68297849B1206828
:1022900003684FF0FF321B69984715F8011F0029AA
:1022A000F5D14D484D4DFFF703FEC820FEF7A8FBC2
:1022B0004B4A57F804BCC6F80090002313605360E3
:1022C0009360D3601361DBF804202B6002B1904768
:1022D000DBF80C309847DBF8083003B19847FFF77C
:1022E00087FE2B68002B00F0A6803E4D2D21206834
:1022F00003684FF0FF321B69984715F8011F00294A
:10230000F5D1394B394D1868FFF782FD202120683F
:1023100003684FF0FF321B69984715F8011F002929
:10232000F5D133684B4588BF314D0CD9206815F87D
:10233000011C03684FF0FF321B69984733682A4637
:1023400001359A42F2D32B48FFF7B2FD57F8043B10
:10235000002B7FF46DAF019B53F8047F0193002F96
:102360007FF45DAFFFF734FD234D0448FFF7A0FD78
:10237000462145E044100020D0DE000848E800086F
:10238000B0DE0008CCDE000830DF000838DF0008CF
:102390004CDF000864DF000878DF000884DF0008F5
:1023A00098DF0008A4DF0008B8DF0008C4DF0008D9
:1023B000D8DF0008F0DF000804E0000824E000088F
:1023C00070E0000838E0000814100020E0E0000889
:1023D000E4DE00084CE00008F4DE00080C100020E9
:1023E00030100020F8DE00080810002050E000083F
:1023F0004910002010DF000854E0000848100020B9
:10240000206803684FF0FF321B69984715F8011FD9
:102410000029F5D141F21802C2F20002136873B923
:102420000948FFF745FD41F21803C2F2000318689E
:1024300003B0BDE8F08F0548FFF73AFDF3E6044826
:10244000FFF736FDEFE700BF20DF000814DF0008CC
:1024500028DF0008AFF30080AFF30080AFF3008007
:10246000F8B54D4EF3699C68651C2846FEF790FA56
:10247000021B5142514107460120FFF749FD00B1BF
:10248000F8BDF369996802206B1A59425941FFF768
:102490003FFD0028F4D13846FEF77AFAB5EB000C80
:1024A000DCF1000151EB0C010320FFF731FD0028A6
:1024B000E6D1F36999680420B1EB040EDEF1000166
:1024C00051EB0E01FFF724FD0028D9D1202383F31F
:1024D0001188F3699A6802329A60034683F311887F
:1024E000F3699968A71C0520CA1B51425141FFF7A7
:1024F0000FFD0028C4D12846FEF74AFA031B5942B3
:1025000059410620FFF704FD0028B9D1F369996805
:102510000720B7EB010CDCF1000151EB0C01FFF7D8
:10252000F7FC0028ACD1F369196C0820B5EB010E5B
:10253000DEF1000151EB0E01FFF7EAFC00289FD10C
:10254000E71C3846FEF724FA281A41424141092087
:10255000FFF7DEFC002893D1F36999680A207A1A04
:1025600051425141FFF7D4FC002889D1F369196C1D
:102570000B207B1A59425941FFF7CAFC00287FF40F
:102580007FAF202383F31188F269034694601464BB
:1025900083F3118874E700BFD0090020AFF30080F7
:1025A000F0B540F6D017C2F200074DF69066FB6911
:1025B00083B0C0F600069A68706842F281754EF2E8
:1025C0000011C0F60005C0F60001043A2B46009148
:1025D0004FF49871FEF7C4F941F23004FB69316899
:1025E0009A68C2F20004053A60604EF21410C0F618
:1025F00000002B46009008464FF49871FEF7B0F9A2
:10260000FB6931699A6820604EF20410C0F6000040
:10261000013A2B46009008464FF49871FEF7A0F956
:10262000FB69F1689A6820614EF20810C0F600005C
:102630002B460090023A08464FF49871FEF790F945
:102640002023E06083F31188FB69B0689A684EF23A
:102650000C11C0F600012B460091033A4FF498711B
:10266000FEF746F9A060002383F31188A068FEF707
:10267000A7F9FFF7BDFC4EF210110120C0F60001D2
:1026800003B0BDE8F040FFF75BBC00BFAFF30080D4
:102690002DE9F04140F6D018C2F200084DF69066E0
:1026A000D8F81C3082B0C0F600069A68306842F252
:1026B00081754EF21414C0F60005C0F60004053A08
:1026C0002B4600944FF49871FEF74AF941F230041A
:1026D000C2F20004D8F81C3077689A6820604EF285
:1026E0000010C0F60000043A2B4600904FF4987199
:1026F0003846FEF735F9D8F81C30B7689A6860603C
:102700004EF20C10C0F60000033A2B4600904FF436
:1027100098713846FEF724F9D8F81C30F7689A68A3
:10272000A0604EF20810C0F60000023A2B4600905E
:102730004FF498713846FEF713F9D8F81C30366913
:102740009A68E0604EF20410C0F600004FF49871F1
:10275000013A2B4600903046FEF702F92061FFF760
:1027600047FC4EF210110120C0F6000102B0BDE896
:10277000F041FFF7E5BB00BFAFF30080AFF300808F
:1027800008B50078FFF7B4FB002008BDAFF3008068
:1027900038B51C4DFFF774FCEC686420FEF730F987
:1027A000012004F1640104F16502FFF7F9FB00B1B7
:1027B00038BDEC686420FEF723F9022004F16401BF
:1027C00004F16502FFF7ECFB0028F1D1EC684FF44F
:1027D0007A70FEF715F9032004F57A7104F2E932F4
:1027E000FFF7DEFB0028E3D1EC6804F1640528461E
:1027F000FEF716F90420294604F16502BDE83840C9
:10280000FFF7CEBBC0090020AFF30080AFF300801C
:1028100040F60000C2F200000021FEF721BA00BF1E
:1028200040F60000C2F200000021FEF719BA00BF16
:1028300040F60000C2F200000021FEF711BA00BF0E
:1028400000B587B0002103A8FEF70AFA002103A80B
:10285000FEF726FA059901200029CCBF00210121AD
:10286000FFF756FB08B107B000BD2F4B2F48DB69BF
:1028700000689A682E4B03A9013A00914FF49871B1
:10288000FEF76EF82B4B186003A8FEF739FA05998E
:1028900002200029CCBF00210121FFF739FB0028CD
:1028A000E1D1202383F31188059B002B34DDFDF754
:1028B000E7FF002383F31188059903209942D4BFD1
:1028C00000210121FFF724FB0028CCD10599042029
:1028D0004A1E51425141FFF71BFB0028C3D1202360
:1028E00083F31188059B002B1ADDFDF7C9FF002338
:1028F00083F31188059903209942D4BF0021012157
:10290000FFF706FB0028AED1059905204B1E594262
:102910005941FFF7FDFAA6E703A8FEF749FAC6E713
:1029200003A8FEF745FAE0E7D009002090DE000892
:102930004129000830100020AFF30080AFF3008081
:1029400008B5202383F311888368002B06DDFDF78B
:1029500097FF002383F31188184608BDFEF728FA75
:10296000F5E700BFAFF30080AFF30080AFF3008066
:1029700010B540F60004C2F200042046FEF7C0F98C
:102980002046FEF7FDF9002010BD00BFAFF3008028
:1029900010B5044640F60000C2F20000FEF7B0F9A0
:1029A0002078FFF7A5FA002010BD00BFAFF300802C
:1029B00008B53220FEF724F8202383F3118840F66F
:1029C0000000C2F20000FEF7F3F9FDF759FF002303
:1029D00083F31188184608BDAFF30080AFF3008081
:1029E0002DE9F043DFF84081454CD8F81C302668CB
:1029F0009A68444F444B454D85B04FF49871053269
:102A000000973046FDF7ACFFD8F81C309A68636831
:102A100028603F4803934FF4987101323A4B00907D
:102A20000398FDF79DFFA268D8F81C3003929A68BE
:102A300068603848344B00904FF498710332039823
:102A4000FDF78EFFE268D8F81C3003929A68A86000
:102A500031482D4B00904FF4987104320398FDF7E4
:102A60007FFFD8F81C3024699A68E8602B48264B11
:102A700000904FF4987102322046FDF771FF284C08
:102A800028612046FEF77CF92046FEF779F92046BA
:102A9000FEF776F92046FEF773F92046FEF770F947
:102AA000FFF7A6FA01201F49FFF74AFA814610B145
:102AB00005B0BDE8F083D8F81C20134B926800974E
:102AC00030464FF498710532FDF74AFF2023286005
:102AD00083F3118802212046FEF77AF94B4683F3EF
:102AE0001188FFF785FAA1680220B1F1010EDEF12D
:102AF000000151EB0E0105B0BDE8F043FFF708BA45
:102B000090DE000804E10008912900083010002040
:102B100008E100080CE1000800E1000814E10008E9
:102B20000008002010E10008D0090020AFF3008069
:102B300010B5224B224CDB6982B000209A680090CD
:102B40002048214B006801324FF49871FDF708FFCF
:102B50001E4B214618602046FEF752F921680120DD
:102B60000B1B59425941FFF7D3F908B102B010BD10
:102B7000A1680220D1F1010138BF0021FFF7C8F997
:102B80000028F3D121462046FEF73AF921680320B8
:102B9000B1EB040CDCF1000151EB0C01FFF7B8F9CB
:102BA0000028E3D1A1680420D1F1010138BF002140
:102BB00002B0BDE81040FFF7ABB900BFD00900205C
:102BC0000008002090DE0008712900083010002065
:102BD00070B54C4C002182B02046FEF7C1F8B0F130
:102BE000FF33594259410120FFF792F908B102B071
:102BF00070BD21680220B1EB040CDCF1000151EB47
:102C00000C01FFF785F90028F1D1A1680320D1F16B
:102C1000010138BF0021FFF77BF90028E7D13A4BCB
:102C2000DB699A6800903948394B0068013A4FF4E3
:102C30009871FDF795FE374B4FF4FA7118602046F6
:102C4000FEF78EF80546FFF7D3F90420D5F1010110
:102C500038BF0021FFF75CF90028C8D121680520A2
:102C6000B1EB040EDEF1000151EB0E01FFF750F95C
:102C70000028BCD1A1680620D1F1010138BF002194
:102C8000FFF746F90028B2D1FFF7FAF9224BDE68C8
:102C900041252846FFF72CF94FF4FA711948FEF741
:102CA0005FF8B0F1FF30414241410720FFF730F9B2
:102CB00000289CD1216808200A1B51425141FFF78E
:102CC00027F9002893D1A1680920D1F1010138BF6B
:102CD0000021FFF71DF90135EDB2002887D1462DFF
:102CE000D7D10A200D49FFF72BF900287FF47FAFD9
:102CF0000B2006F6C41106F6C91202B0BDE87040FA
:102D0000FFF74EB900080020D009002090DE00082F
:102D1000B129000830100020C009002010E100088F
:102D2000F0B540F6D013C2F200034DF69065DB69B2
:102D300083B09E68C0F600054EF20414C0F600048D
:102D400042F64163721C009428684FF49871C0F6F3
:102D50000003FDF705FE41F23004C2F200046F6883
:102D600020604EF20C10C0F6000042F61163B21C57
:102D700000904FF49871C0F600033846FDF7F0FD5F
:102D8000AD6860604EF20810C0F6000042F6D15304
:102D90004FF49871F21CC0F6000300902846FDF72E
:102DA000DFFD40F62C05C2F20005A0602846FEF7C4
:102DB0007FF92846FEF77CF9FFF71AF94EF29021C9
:102DC0000120C0F6000103B0BDE8F040FFF7B8B83D
:102DD00010B5044640F61C00C2F20000FEF7B8F839
:102DE0002078FFF785F8FEF7DBF8002010BD00BF64
:102DF00010B5044640F60C00C2F20000FEF7A8F839
:102E00002078FFF775F8FEF7CBF8002010BD00BF63
:102E100010B5044640F60C00C2F20000FEF798F828
:102E200040F62C00C2F20000FEF7BAF92078FFF756
:102E30005FF8FEF7B5F8002010BD00BFAFF30080CB
:102E400010B5044640F61C00C2F20000FEF780F800
:102E500040F60C00C2F20000FEF77AF840F62C00B3
:102E60004FF0FF31C2F20000FEF7D2F92078FFF7F1
:102E70003FF8FEF795F8FEF793F8002010BD00BF6D
:102E800040F62C0008B5C2F20000FEF709F940F642
:102E90000C00C2F20000FDF7EBFF40F61C00C2F28E
:102EA0000000BDE80840FDF7E3BF00BFAFF30080BE
:102EB00008B540F62C00C2F20000FEF7F1F840F62B
:102EC0000C00C2F20000BDE80840FDF7D1BF00BF12
:102ED00008B540F62C00C2F20000FEF7E1F840F61B
:102EE0000C00C2F20000BDE80840FDF7C1BF00BF02
:102EF00040F60C00C2F20000FDF7BABFAFF300804D
:102F000008B540F60C00C2F20000FDF7B1FF40F634
:102F10001C00C2F20000BDE80840FDF7A9BF00BFD9
:102F200008B540F60C00C2F20000FDF7A1FF40F624
:102F30001C00C2F20000BDE80840FDF799BF00BFC9
:102F400040F60C00C2F20000FDF792BFAFF3008024
:102F500040F60C00C2F20000FDF78ABFAFF300801C
:102F6000F0B540F6D013C2F200034DF69066DB696F
:102F700083B09F68C0F6000642F611654EF2141445
:102F8000C0F60005C0F600047A1C2B460094306899
:102F90004FF49871FDF7E4FC41F23004C2F20004F2
:102FA000BA1C20604EF20010C0F600002B460090C4
:102FB0004FF498717068FDF7D3FC60604EF20C100E
:102FC000C0F60000FA1C2B4600904FF49871B068D0
:102FD000FDF7C6FCA0604EF20810C0F600003A1DD6
:102FE0002B4600904FF49871F068FDF7B9FC3669F4
:102FF000E0604EF20410C0F600004FF498717A1DA4
:103000002B4600903046FDF7ABFC206140F62C00CB
:10301000C2F20000FEF78CF8FEF7EAFF4EF2101144
:103020000120C0F6000103B0BDE8F040FEF788BF04
:10303000F0B540F6D013C2F200034DF69066DB699E
:1030400083B09F68C0F6000642F611654EF2141177
:10305000C0F60005C0F600017A1C2B4600913068CE
:103060004FF49871FDF77CFC41F23004C2F2000489
:10307000716820604EF20010C0F60000BA1C2B46AA
:10308000009008464FF49871FDF76AFCB1686060E3
:103090004EF20C10C0F60000FA1C2B4600900846B9
:1030A0004FF49871FDF75CFCF168A0604EF20810D7
:1030B000C0F600003A1D2B46009008464FF4987168
:1030C000FDF74EFC3269E0604EF20411C0F60001DB
:1030D0002B46009110464FF498717A1DFDF740FC85
:1030E0002023206183F3118840F62C04C2F20004EF
:1030F0002046FDF7F5FF2046FDF7F2FF2046FDF7DD
:10310000EFFF2046FDF7ECFF2046FDF7E9FFFDF756
:10311000B7FB002383F31188FEF76AFF4EF210110C
:103120000120C0F6000103B0BDE8F040FEF708BF83
:10313000F0B52C4F2C48FB692C4E9C682C4D85B06B
:10314000FDF706FF2B4A30682B4B00924FF4987125
:10315000621CFDF705FC7368286028480393A21CD5
:103160004FF49871244B00900398FDF7F9FBB36876
:10317000686023480393E21C4FF498711E4B009043
:103180000398FDF7EDFBF368A8601E480393221D2A
:103190004FF49871184B00900398FDF7E1FB3669E6
:1031A000E8601948144B00904FF49871621D304646
:1031B000FDF7D6FB2861FDF7F3FEFEF719FFFB696B
:1031C000996801200B1B59425941FEF7A1FE08B135
:1031D00005B0F0BD0D49022005B0BDE8F040FEF796
:1031E000AFBE00BFD00900200C08002090DE000810
:1031F0003010002014E10008F12D000800E1000863
:103200000CE1000808E1000804E1000810E10008F2
:10321000F8B52E4D2E4CEB6920469E68FDF7A8FEB2
:1032200001460120FEF774FE00B1F8BD2046FDF70F
:103230009FFED0F1010138BF00210220FEF768FE99
:1032400007460028F1D1202383F31188FDF7D8FE2B
:103250003B4683F3118821680320B1EB040CDCF1B9
:10326000000151EB0C01FEF753FE0028DDD1A168EF
:103270000420D1F1010138BF0021FEF749FE0028EA
:10328000D3D1EB6999680520B1EB060EDEF10001A0
:1032900051EB0E01FEF73CFE0028C6D12046FDF79B
:1032A00057FEFDF7D5FE216806200A1B5142514109
:1032B000FEF72EFE0028B8D1A1680720D1F1010148
:1032C00038BF0021BDE8F840FEF722BED00900203B
:1032D0000C080020AFF30080AFF30080AFF3008054
:1032E0002DE9F0468A4D8B4EEB6932689C688A4B1B
:1032F0008A4F85B004F101090392894A039800922C
:103300004FF498714A46FDF72BFB76683860854884
:10331000854B009004F1020A4FF4987152463046F2
:10332000FDF71EFB78608148FDF712FEEB69996896
:1033300001200A1B51425141FEF7EAFD10B105B0D0
:10334000BDE8F0866420FDF75BFBEB69996802201D
:10335000B1EB090359425941FEF7DAFD0028EED1DD
:103360007348FDF7F5FDEB6999680320B1EB090C93
:10337000DCF1000151EB0C01FEF7CAFD0028DED1A3
:103380006420FDF73DFBEB6999680420B1EB0A0E60
:10339000DEF1000151EB0E01FEF7BAFD0028CED19F
:1033A000FDF7FEFDEB6999680520B1EB090251427A
:1033B0005141FEF7ADFD0028C1D16420FDF720FB8F
:1033C000EB6999680620B1EB090359425941FEF7B0
:1033D0009FFD0028B3D1FDF73BFEEB6999680720FC
:1033E000B1EB040CDCF1000151EB0C01FEF790FD98
:1033F0000028A4D1FEF7FCFD4E4A474B00924FF443
:1034000098714A460398FDF7ABFA38604A48464B34
:1034100000904FF4987152463046FDF7A1FA78605B
:103420004248FDF795FDEB6999680820B1EB040E61
:10343000DEF1000151EB0E01FEF76AFD00287FF47A
:103440007EAF6420FDF7DCFAEB6999680920B1EBE7
:10345000090251425141FEF75BFD00287FF46FAF36
:103460003348FDF775FDEB6999680A20B1EB090354
:1034700059425941FEF74CFD00287FF460AF6420AB
:10348000FDF7BEFAEB6999680B20B1EB0A0CDCF191
:10349000000151EB0C01FEF73BFD064600287FF4CE
:1034A0004EAF202383F31188FDF7AAFD334683F343
:1034B0001188EB6999680C20B1EB090EDEF100016F
:1034C00051EB0E01FEF724FD00287FF438AF642095
:1034D000FDF796FAEB6999680D20B1EB09025142AC
:1034E0005141FEF715FD00287FF429AFFDF7B0FD2F
:1034F000EB6999680E200B1B59425941FEF708FDF4
:1035000000287FF41CAF05B0BDE8F046FEF770BDA3
:10351000D009002090DE000861350008301000203E
:1035200008E1000804E10008413500081C080020FB
:103530000C08002000E100080CE10008AFF3008057
:1035400008B59620FDF75CFA40F60C00C2F20000C8
:10355000FDF7FEFCFDF724FD002008BDAFF3008061
:1035600008B53220FDF74CFA40F61C00C2F200000C
:10357000FDF7EEFCFDF714FD002008BDAFF3008061
:103580002DE9F041304EDFF8E480304C84B0FEF796
:1035900077FDF3692E499A68CF682E4BD8F8000062
:1035A00000254FF49871053A0095FDF7D9F9F369B4
:1035B000D8F8042003929A6820604FF49871043A76
:1035C000254B00950398FDF7CBF9F369D8F808204F
:1035D00003929A6860604FF49871033A1F4B00950C
:1035E0000398FDF7BDF9F369D8F80C2003929A68A7
:1035F000A0604FF49871023A194B00950398FDF7BB
:10360000AFF9F369D8F810609A68E0604FF49871E8
:10361000013A144B00953046FDF7A2F92061FEF700
:10362000E7FC01201049FEF78BFC10B104B0BDE8A7
:10363000F081022007F16E0107F1730204B0BDE8CA
:10364000F041FEF7ADBC00BFD009002030100020D3
:10365000C0090020F1370008A137000871370008C1
:10366000513700082137000810E1000890DE0008FB
:103670002DE9F041224EDFF8A480224C84B0FEF701
:10368000FFFCF36920499A68CF68204BD8F8000006
:1036900000254FF49871013A0095FDF761F9F3693F
:1036A000D8F8042003929A6820604FF49871023A87
:1036B000174B00950398FDF753F9F369D8F80860A4
:1036C0009A6860604FF49871033A124B0095304647
:1036D000FDF746F9A060FEF78BFC01200E49FEF7CE
:1036E0002FFC10B104B0BDE8F081022007F16401A5
:1036F00007F1690204B0BDE8F041FEF751BC00BF1C
:10370000D009002030100020C009002071380008C6
:10371000513800082138000890E2000890DE0008C7
:1037200008B53220FDF76CF940F61C00C2F200002B
:10373000FDF70EFC0A20FEF773FCFDF731FC41207B
:10374000FEF7D6FB002008BDAFF30080AFF300808A
:1037500008B52820FDF754F91420FEF761FC42203B
:10376000FEF7C6FB002008BDAFF30080AFF300807A
:1037700008B51420FDF744F940F61C00C2F2000021
:10378000FDF7E6FB0A20FEF74BFCFDF709FC4320A2
:10379000FEF7AEFB002008BDAFF30080AFF3008062
:1037A00008B50A20FDF72CF940F61C00C2F2000013
:1037B000FDF7CEFB1420FEF733FC40F60C00C2F2FE
:1037C0000000FDF7C5FB0A20FEF72AFCFDF7E8FB29
:1037D0000A20FEF725FCFDF7E3FB4420FEF788FBFB
:1037E000002008BDAFF30080AFF30080AFF300808E
:1037F00040F60C0008B5C2F20000FDF7A9FB1E2040
:10380000FEF70EFCFDF7CCFB4520FEF771FB002018
:1038100008BD00BFAFF30080AFF30080AFF30080BE
:1038200040F60C0008B5C2F20000FDF791FB28201D
:10383000FEF7F6FBFDF7B4FB0A20FEF7F1FB432091
:10384000FEF756FB002008BDAFF30080AFF3008009
:1038500008B51420FDF7D4F82820FEF7E1FB42203C
:10386000FEF746FB002008BDAFF30080AFF30080F9
:1038700008B52820FDF7C4F840F60C00C2F200009D
:10388000FDF766FB0A20FEF7CBFBFDF789FB412025
:10389000FEF72EFB002008BDAFF30080AFF30080E1
:1038A00010B540F6D012C2F200024DF69063D16915
:1038B000C0F6000382B08A681868009143F631139D
:1038C00001324FF49871C0F60003FDF749F841F258
:1038D0003003C2F200031860FDF762FE446B21461C
:1038E000FDF77EFEE0B2FEF703FBFDF759FE446BE9
:1038F0002146FDF775FEE0B2FEF7FAFAFDF750FE3D
:10390000446B2146FDF76CFEE0B2FEF7F1FA4EF291
:1039100090210120C0F6000102B0BDE81040FEF782
:103920000FBB00BFAFF30080AFF30080AFF30080A8
:1039300010B541210446FDF713FE42212046FDF754
:103940000FFE20464321FDF70BFE002010BD00BFF7
:10395000F0B5B44E716A01204B1F594283B05941F2
:10396000FEF7D6FA00BB4224AE4D214628464FF062
:10397000FF32FDF79DFED0F1010138BF002102208A
:103980000134FEF7C5FA78B9462CEDD1412128461D
:103990004FF0FF32FDF7D4FED0F1010138BF002116
:1039A0000320FEF7B5FA08B103B0F0BD582101229B
:1039B0002846FDF77DFEB0F1FF3CDCF1000151EB44
:1039C0000C010420FEF7A4FA04460028ECD12023C1
:1039D00083F3118858212846FDF77AFE23460146D5
:1039E00083F311880520B1F1FF3EDEF1000151EBB8
:1039F0000E01FEF78DFA0028D6D158210122284663
:103A0000FDF79EFEB0F1FF32514251410620FEF714
:103A10007FFA04460028C7D1202383F31188582158
:103A20002846FDF79DFE2346014683F311880720B3
:103A3000B1F1FF3359425941FEF76AFA07460028AF
:103A4000B2D1202383F31188696A0820D1F10101E2
:103A500038BF0021FEF75CFA044618B13B4683F3F9
:103A60001188A1E7034683F31188202383F311888B
:103A7000A9690920B1F1050CDCF1000151EB0C0141
:103A8000FEF746FA034618B1234683F311888BE705
:103A900083F31188202383F31188E968AB680A2037
:103AA000B1EB030EDEF1000151EB0E01FEF730FA2F
:103AB000002383F3118800287FF476AF052505E005
:103AC0009DF80400FEF714FA013D10D0554C01A9F1
:103AD0004FF0FF322046FDF77BFED0F1010138BFE9
:103AE00000210B20FEF714FA0028E9D05CE70C2037
:103AF0004D49FEF725FA00287FF456AF47212046AE
:103B00004FF0FF32FDF7D4FDD0F1010138BF0021A5
:103B10000D20FEF7FDF900287FF446AF01A92046ED
:103B20004FF0FF32FDF754FED0F1010138BF002104
:103B30000E20FEF7EDF900287FF436AF2168A36868
:103B40000F20CA1A51425141FEF7E2F900287FF4D2
:103B50002BAF2168E3681020CB1A59425941FEF778
:103B6000D7F900287FF420AF01A901222046FDF7F4
:103B70002FFEB0F1FF3CDCF1000151EB0C011120F4
:103B8000FEF7C6F900287FF40FAF202383F31188D6
:103B900001A92046FDF72CFE2B46014683F3118830
:103BA0001220B1F1FF3EDEF1000151EB0E01FEF7F4
:103BB000AFF900287FF4F8AE202383F31188616AFF
:103BC00013204A1F51425141FEF7A2F9002383F30B
:103BD000118800287FF4E8AE202383F31188B169AF
:103BE000104C1420D1F1010138BF0021FEF790F9EB
:103BF000054618B1002383F31188D5E6034683F305
:103C00001188202383F31188E168A3681520CB1A5B
:103C100059425941FEF77CF9034638B12B4683F3EC
:103C20001188C1E63408002010E1000883F31188F0
:103C3000202383F3118841212046FDF749FDD0F16F
:103C4000010138BF00211620FEF762F900287FF439
:103C5000ABAE42212046FDF73BFDD0F1010138BF5C
:103C600000211720FEF754F900287FF49DAE432170
:103C70002046FDF72DFDD0F1010138BF00211820AD
:103C8000FEF746F900287FF48FAE44212046FDF769
:103C90001FFDD0F1010138BF00211920FEF738F9CE
:103CA000054600287FF480AE45212046FDF710FD33
:103CB0002B46014683F311881A20D1F1010138BF48
:103CC0000021FEF725F900287FF46EAEE168A368B5
:103CD0001B20B1EB030CDCF1000151EB0C01FEF7F2
:103CE00017F900287FF460AE0525202383F311889F
:103CF000A04C01A92046FDF77BFD0023014683F37C
:103D000011881C20B1EB030EDEF1000151EB0E0116
:103D1000FEF7FEF800287FF447AE9DF80400FEF79A
:103D2000E7F8013DE1D11D209349FEF709F900288C
:103D30007FF43AAE202383F31188616A1E204A1F64
:103D400051425141FEF7E4F82B4683F311880028D5
:103D50007FF42AAE202383F31188A1691F20D1F1BB
:103D6000010138BF0021FEF7D3F82B4683F31188F9
:103D700000287FF419AEE168A3682020CB1A5942CD
:103D80005941FEF7C5F800287FF40EAE202383F3D7
:103D9000118845212046FDF7E3FCD0F1010138BF31
:103DA00000212120FEF7B4F800287FF4FDAD442166
:103DB0002046FDF7D5FCD0F1010138BF00212220BB
:103DC000FEF7A6F800287FF4EFAD43212046FDF76B
:103DD000C7FCD0F1010138BF00212320FEF798F87D
:103DE00000287FF4E1AD42212046FDF7B9FCD0F177
:103DF000010138BF00212420FEF78AF800287FF453
:103E0000D3AD5C4C41212046FDF7AAFC00230146BE
:103E100083F311882520B1EB030CDCF1000151EB99
:103E20000C01FEF775F800287FF4BEADE168A368C9
:103E30002620B1EB030EDEF1000151EB0E01FEF77F
:103E400067F800287FF4B0AD0524202383F31188A0
:103E5000484D01A92846FDF7CBFC0023014683F31A
:103E600011882720CA1A51425141FEF751F8002803
:103E70007FF49AAD9DF80400FEF73AF8013CE4D1D6
:103E800028203D49FEF75CF800287FF48DAD202303
:103E900083F31188696A29204B1F59425941FEF763
:103EA00037F8234683F3118800287FF47DAD202363
:103EB00083F31188A9692A20D1F1010138BF0021BB
:103EC000FEF726F8234683F3118800287FF46CADB3
:103ED000E968AB682B20B1EB030CDCF1000151EB7E
:103EE0000C01FEF715F800287FF45EAD2846FDF7BB
:103EF0009FFB202383F31188696A2C20B1F1050E02
:103F0000DEF1000151EB0E01FEF702F8234683F3C8
:103F1000118800287FF448AD202383F31188A96914
:103F20002D20D1F1010138BF0021FDF7F1FF23461B
:103F300083F3118800287FF437AD202383F31188A1
:103F40002968AB682E20CA1A51425141FDF7E0FFA3
:103F5000234683F3118800287FF426AD202383F3C2
:103F600011882968EB682F20CB1A59425941FDF777
:103F7000CFFF3FE63408002010E10008AFF30080D7
:103F800040F6340040F61821C2F20000C2F20001EF
:103F90000522FDF735BB00BFAFF30080AFF3008013
:103FA0004FF0FF30FDF774B9AFF30080AFF300803E
:103FB0004FF0FF30FDF76CB9AFF30080AFF3008036
:103FC0004FF0FF30FDF764B9AFF30080AFF300802E
:103FD0002DE9F04205208AB0FDF772F94FF0FF306D
:103FE000FDF7DEF90138414241410120FDF790FF24
:103FF00010B10AB0BDE8F0824FF0FF30FDF7D0F904
:10400000021F514251410220FDF782FF0028F0D1EA
:104010004FF0FF30FDF73CF9D0F1010138BF00212E
:104020000320FDF775FF0028E3D1754D754F764EDF
:10403000FEF726F8754BE9691B688A6803930091BF
:10404000013A4FF49871724B0398FC68FCF788FCB6
:1040500030604FF0FF30FDF7A3F904F132018146E3
:1040600004F137020420FDF79BFF0028C1D1052091
:10407000B9F1010359425941FDF74AFF0028B8D16F
:104080004FF0FF30FDF704F9D0F1010138BF0021F6
:104090000620FDF73DFF0028ABD1FDF7A9FF052065
:1040A000FDF70EF94FF0FF30FDF79AF9B0F1050C6E
:1040B000DCF1000151EB0C010720FDF729FF00287E
:1040C00097D14FF0FF30FDF7E3F8D0F1010138BF91
:1040D00000210820FDF71CFF00288AD1FDF7D0FF42
:1040E000E9694B4B8A6803980091013A4FF4987143
:1040F000FC68FCF735FC30604FF0FF30FDF770F9DD
:1041000004F13201814604F137020920FDF748FF2E
:1041100000287FF46EAF0A20B9F1010EDEF1000134
:1041200051EB0E01FDF7F4FE00287FF462AF4FF073
:10413000FF30FDF7ADF8D0F1010138BF00210B20B1
:10414000FDF7E6FE00287FF454AFDFF8D490314C41
:10415000FDF74EFF484604A90122C9F800902460EB
:10416000FDF766F807A904222046FDF761F8FDF780
:1041700087FFEB6928499A6803980091013A4FF448
:104180009871264BFD68FCF7EBFB30600520FDF7CE
:1041900047F90C2005F1320105F13702FDF700FF68
:1041A00000287FF426AF4FF0FF30FDF771F8D0F113
:1041B000010138BF00210D20FDF7AAFE00287FF481
:1041C00018AFFDF715FF484604A9FDF749F820464A
:1041D00007A9FDF745F8D9F800100E20B1EB090248
:1041E00051425141FDF794FE00287FF402AF21684F
:1041F0000F200B1B59425941FDF78AFEF9E600BF1B
:10420000D0090020C00900203010002090DE0008F6
:10421000614200086008002004E100083142000803
:104220005C080020AFF30080AFF30080AFF30080A4
:1042300040F65C0008B50021C2F20000FDF788F8E6
:104240003220FCF7DDFB40F66000C2F200000021E6
:10425000FDF77EF8002008BDAFF30080AFF30080CB
:1042600010B504463220FCF7CBFB20460121FDF7B8
:104270004FF8002010BD00BFAFF30080AFF3008007
:1042800010B51E4C86B00122204669462460FCF71A
:10429000CFFF204603A90222FCF7CAFF21680120B4
:1042A000091B18BF0121FDF733FE08B106B010BD90
:1042B00020466946FCF7D4FF21680220091B18BF7D
:1042C0000121FDF725FE0028F0D1204603A9FCF7C7
:1042D000C7FF21680320B1EB040EDEF1000151EBB2
:1042E0000E01FDF715FE0028E0D107210448FDF777
:1042F0003FF804200349FDF723FED7E75C080020C0
:10430000F0E4000890E20008AFF30080AFF3008013
:104310004320FDF7EDBD00BFAFF30080AFF3008099
:104320004220FDF7E5BD00BFAFF30080AFF3008092
:104330004120FDF7DDBD00BFAFF30080AFF300808B
:1043400008B500214FF0FF30FDF78AF8D0F10101E8
:1043500038BF00210120FDF7DBFD00B108BD01469B
:104360004FF0FF30FDF7A4F8D0F1010138BF002174
:104370000220FDF7CDFD0028F0D101464FF0FF30BF
:10438000FDF7BEF8D0F1010138BF00210320FDF791
:10439000BFFD0028E2D10A214FF0FF30FDF760F8A1
:1043A000D0F1010138BF00210420FDF7B1FD002844
:1043B000D4D10A214FF0FF30FDF77AF8D0F1010196
:1043C00038BF00210520FDF7A3FD0028C6D10A2132
:1043D0004FF0FF30FDF794F8D0F1010138BF002114
:1043E0000620BDE80840FDF793BD00BFAFF3008095
:1043F00070B582B0FDF7D4FB01A90020FDF790FC59
:1044000010210020FDF7FCFB011C18BF0121044610
:104410000120FDF77DFD054608B102B070BD2046C4
:10442000FDF736FC6FF0FF012846FDF7E9FBD0F100
:10443000010138BF00210220FDF76AFD0028ECD100
:1044400001A97C48FDF76CFC10217A48FDF7D8FBE8
:10445000102105467748FDF7D3FB10210446754827
:10446000FDF7CEFB06462846FDF712FC2046FDF779
:104470000FFC3046FDF70CFC69466E48FDF750FC1A
:10448000B0F1010EDEF1000151EB0E010320FDF74A
:104490003FFD0028C1D110216648FDF7B1FB102176
:1044A00004466448FDF7ACFB102105466148FDF762
:1044B000A7FBFDF7EDFB2846FDF7EAFB2046FDF7DD
:1044C000E7FB69465B48FDF72BFC0138414241415F
:1044D0000420FDF71DFD00289FD111215548FDF74F
:1044E0008FFB102104465348FDF78AFB0546204602
:1044F000FDF7CEFB69464F48FDF712FC821E514284
:1045000051410520FDF704FD002886D110214948BE
:10451000FDF776FB694604464648FDF701FC012895
:1045200008BF014606D069464248FDF7F9FB831EE5
:10453000594259410620FDF7EBFC00287FF46DAF8E
:104540002846FDF7A5FB2046FDF7A2FB6946394842
:10455000FDF7E6FBB0F1010CDCF1000151EB0C01C1
:104560000720FDF7D5FC00287FF457AF1021314814
:10457000FDF746FB102105462E48FDF741FB04469A
:104580002846FDF785FB69462A48FDF7C9FBB0F1CF
:10459000020EDEF1000151EB0E010820FDF7B8FC20
:1045A00000287FF43AAF20212248FDF729FBFDF7D0
:1045B0006FFB2046FDF76CFB69461E48FDF7B0FB1C
:1045C0000138414241410920FDF7A2FC00287FF457
:1045D00024AF69461748FDF7A3FB00991548FDF77E
:1045E0000FFB694604461348FDF79AFBD0F1010121
:1045F00038BF00210A20FDF78BFC00287FF40DAFA7
:104600002046FDF745FB69460A48FDF789FB421E37
:10461000514251410B20FDF77BFC00287FF4FDAE99
:104620009DE80A000C20CB1A59425941FDF770FC55
:10463000F3E600BF58100020AFF30080AFF3008016
:1046400041F2580040F61821C2F20000C2F2000107
:104650004FF4BE62FDF7C4BAAFF30080AFF3008041
:1046600000207047AFF30080AFF30080AFF300800D
:1046700040F66400C2F200004FF498710022FDF78A
:104680006FBB00BFAFF30080AFF30080AFF30080DB
:1046900038B51A4C04F1140554F8041F1848FDF7F6
:1046A0007FFBAC42F8D105241548FDF761FB011CE6
:1046B00018BF01210120FDF72BFC60B9013CF3D1AB
:1046C0000F48FDF755FBD0F1010138BF0021022052
:1046D000FDF71EFC00B138BD10210A4A0848FDF75D
:1046E0003FFB0748FDF744FBD0F1010138BF002133
:1046F0000320BDE83840FDF70BBC00BF8CDE00088E
:104700006408002061460008AFF30080AFF300802A
:1047100038B50546FCF77CFA002403461846AB4240
:1047200008BF44F00104FCF783FA03460028F5D1E2
:10473000204638BDAFF30080AFF30080AFF30080B8
:1047400010B54A4B4A49DB694A489A684A4B82B0DD
:10475000013A00914FF49871FCF712FA04460120D7
:10476000A17FB1EB000CDCF1000151EB0C01FDF776
:10477000CFFB08B102B010BD2046FCF7C9F9A17FFC
:104780000220B1EB000EDEF1000151EB0E01FDF74E
:10479000BFFB0028EED12046FCF7CAF9A17F032019
:1047A0004A1E51425141FDF7B3FB0028E2D1204699
:1047B000FFF7AEFF01460420FDF7AAFB0028D9D180
:1047C0002046FFF7A5FF01460520FDF7A1FB0028C5
:1047D000D0D12046FCF7ACF9A17F0620D1F1010130
:1047E00038BF0021FDF794FB0028C3D1217F0720AB
:1047F000D1F1010138BF0021FDF78AFB0028B9D1B2
:104800002046FFF785FF01460820FDF781FB0028C1
:10481000B0D12046FFF77CFF01460920FDF778FB69
:104820000028A7D13220FCF7EBF8217F0A20B1F154
:104830000E0359425941FDF76BFB00289AD12046DF
:10484000FFF766FF01460B20FDF762FB002891D1C0
:104850002046FFF75DFFD0F1010138BF00210C2099
:1048600002B0BDE81040FDF753BB00BFD0090020E7
:1048700004E100088810002081480008AFF30080A0
:1048800008B50078FDF734FB002008BDAFF30080C9
:1048900041F2880040F61821C2F20000C2F2000185
:1048A0004FF4BE62FDF79CB9AFF30080AFF3008018
:1048B00041F2880040F61821C2F20000C2F2000165
:1048C0004FF4BE62FDF78CB9AFF30080AFF3008008
:1048D000324BDB6970B5324C9D6804F1100654F818
:1048E000041F3048FDF75CFAB442F8D1691E2E4A25
:1048F0002E4B2C482E4CFCF763F9A91E20602A4A47
:104900002C4B2848FCF75CF9E91E6060264A2A4BCC
:104910002448FCF755F9291FA060234A274B21485A
:10492000FCF74EF9691FE0601F4A1E48244BFCF754
:1049300047F92168206149B1616839B1A16829B19D
:10494000E16819B1D0F1010138BF00210120FDF764
:10495000DFFA00B170BDFDF74BFB02201949FDF7EE
:10496000EFFA0028F6D104240E48FDF701FA011CE5
:1049700018BF01210320FDF7CBFA0028EAD1013C42
:10498000F2D10848FDF7F4F9D0F1010138BF002158
:104990000420BDE87040FDF7BBBA00BFD00900207D
:1049A0008CDE0008781000208148000804E100082F
:1049B0003010002008E100080CE1000800E10008C8
:1049C00014E10008D0E50008AFF30080AFF30080E9
:1049D00041F27800C2F200004FF498710022FDF716
:1049E000BFB900BFAFF30080AFF30080AFF300802A
:1049F00070B5334B3348DB69334C9D6884B003A9F1
:104A0000FDF78EF9314A324B00924FF498716A1ECD
:104A10002C48FCF7B5F820602E482D4B0090AA1EBC
:104A20004FF498712748FCF7ABF802A9606025485D
:104A3000FDF776F902992348FDF7E2F8264A244B60
:104A400000924FF498710646EA1E1E48FCF798F84B
:104A5000A0603046FDF71CF9216829B1616819B1E1
:104A6000A168002923D000210120FDF751FA08B1E7
:104A700004B070BDFDF7BCFA02201849FDF760FADA
:104A80000028F5D102A90F48FDF74AF9421E51420C
:104A900051410320FDF73CFA0028E9D10299039B1C
:104AA0000420CB1A59425941FDF732FAE0E7E36896
:104AB000002BD9D12169D1F1010138BF0021D3E701
:104AC000D0090020881000203010002004E10008E8
:104AD0008148000808E100080CE10008D8E500085A
:104AE000704700BFAFF30080AFF30080AFF30080EA
:104AF00040F6700008B50021C822C2F20000FCF7A1
:104B000087FF002008BD00BFAFF30080AFF3008037
:104B10004DF69063C0F6000340F67000196844F645
:104B2000E123C2F200000422C0F60003FCF748BFF4
:104B300040F6900008B5C821C2F20000FCF7D8FE8C
:104B4000002008BDAFF30080AFF30080AFF300801A
:104B50004DF69063C0F6000340F69000196844F6E5
:104B6000E123C2F200000422C0F60003FCF770BE8D
:104B70002DE9F041202382B083F31188904B5969CD
:104B80009A69914263D000210120FDF7C1F9002804
:104B90003AD1034683F311884124894D21460134DB
:104BA00028464FF0FF32E4B2FCF732FF452CF4D137
:104BB000202383F31188A9680220D1F1010138BFB5
:104BC0000021FDF7A5F9F8B9034683F31188042401
:104BD000202383F311887A4D2846FCF741FF0023F8
:104BE00083F31188C0B2FDF783F9013CF0D1202393
:104BF00083F311886A69AB699A4218BF21462BD0AA
:104C00000320FDF785F928B1002383F3118802B052
:104C1000BDE8F081034683F3118804206949FDF75C
:104C20008FF904460028F2D1202383F31188644DC4
:104C30002846FCF715FF033014BF00210121052091
:104C4000FDF766F968B1234683F31188DFE79968B9
:104C5000003118BF012197E7A968003118BF012171
:104C6000CEE7034683F31188574E74680822214625
:104C70002846FCF71DFF031F594259410620FDF746
:104C800047F907460028C2D1202383F31188A96879
:104C90000720D1F1010138BF0021FDF739F9804625
:104CA00018B13B4683F31188B1E7034683F31188BB
:104CB000464B3068DA69464B9268CDF80080013285
:104CC0004FF49871FBF74CFE424A2023106083F3A7
:104CD00011882969EA68AB688A1AD11A0820B1F1EB
:104CE000040CDCF1000151EB0C01FDF711F9064653
:104CF00018B1434683F3118889E7034683F311888B
:104D0000FDF776F9202383F311882846FCF768FE27
:104D1000334683F31188202383F311882969EA68D5
:104D2000AB68891A0920B1EB030EDEF1000151EBEB
:104D30000E01FDF7EDF8034618B1334683F31188F1
:104D400065E783F31188022221462846FCF7B0FE6E
:104D50000238414241410A20FDF7DAF803460028B3
:104D60007FF455AF214602222846FCF7A1FE821EA1
:104D7000514251410B20FDF7CBF800287FF447AF9B
:104D8000202383F31188A9680C20D1F1010138BFD9
:104D90000021FDF7BDF8002383F3118800287FF47C
:104DA00036AF19460A220648FCF732FEB0F1FF334F
:104DB000594259410D2002B0BDE8F041FDF7A8B8B5
:104DC00070080020D0E5000890DE0008D00900201F
:104DD000F14A000830100020AFF30080AFF30080EC
:104DE000F0B5202383B083F31188A24CA168012081
:104DF000D1F1010138BF0021FDF78AF8054638BB23
:104E0000034683F31188202383F311884121204630
:104E1000FCF746FD42212046FCF742FD4321204697
:104E2000FCF73EFD20464421FCF73AFD2B4683F378
:104E30001188202383F311886269A3699A4218BFFD
:104E4000294600F012810220FDF762F8044620B1E5
:104E5000002383F3118803B0F0BD034683F3118868
:104E6000202383F3118883482146FCF719FD043081
:104E700014BF002101210320FDF74AF8002840F06B
:104E8000F080034683F3118804247A4D4FF0FF31FC
:104E90002846FCF72DFDC0B2FDF72AF8013CF4D1FD
:104EA000202383F31188A9680420D1F1010138BFC0
:104EB0000021FDF72DF8234683F311880028CAD17D
:104EC00005206D49FDF73CF80028C4D1202383F369
:104ED000118841212846FCF7E3FC42212846FCF7D3
:104EE000DFFC43212846FCF7DBFC28464421FCF785
:104EF000D7FC234683F31188604F7E680822314631
:104F00002846FCF71DFDB0F1040CDCF1000151EB6B
:104F10000C010620FCF7FCFF00289CD1202383F322
:104F20001188A9680720D1F1010138BF0021FCF7E1
:104F3000EFFF234683F3118800288CD1202383F3CD
:104F4000118841212846FCF7ABFC42212846FCF79A
:104F5000A7FC43212846FCF7A3FC28464421FCF784
:104F60009FFC234683F31188022231462846FCF732
:104F7000E7FCB0F1020EDEF1000151EB0E0108205A
:104F8000FCF7C6FF00287FF466AF314602222846B0
:104F90002346FCF7D5FC0238414241410920FCF789
:104FA000B7FF00287FF457AF202383F31188A96847
:104FB0000A20D1F1010138BF0021FCF7A9FF2346E7
:104FC00083F3118800287FF446AF202383F31188F0
:104FD00021462846FCF764FC2846FCF749FC23469A
:104FE00083F31188202383F31188A9680B20D1F162
:104FF000010138BF0021FCF78BFF234683F31188A2
:1050000000287FF428AF1E4A3868D2691D4B926889
:10501000009401324FF49871FBF7A2FC1A4A202346
:10502000106083F31188A9680C20D1F1010138BF09
:105030000021FCF76DFF002383F3118800287FF423
:105040000AAFFCF7D5FF0A210A48FCF751FCB0F182
:10505000FF32514251410D2003B0BDE8F040FCF752
:1050600057BF234683F31188F5E6A168003118BFC6
:105070000121E8E690080020D0E5000890DE000855
:10508000D0090020314B000830100020AFF3008021
:10509000704700BFAFF30080AFF30080AFF3008034
:1050A000704700BFAFF30080AFF30080AFF3008024
:1050B0004EF2307010B5C0F600004EF24074C0F6EB
:1050C0000004FCF7DDFE4FF4CC70FCF7A1FE204697
:1050D000FCF7EEFE4EF24870C0F60000FCF7D0FE82
:1050E0004820FCF795FE2046FCF7E2FE4EF2587091
:1050F000C0F60000FCF7C4FE1420FCF789FE204631
:10510000FCF7D6FE4EF26870C0F60000FCF7B8FE61
:105110000C20FCF77DFE2046FCF7CAFE4EF27870AC
:10512000C0F60000FCF7ACFE0420FCF771FE204640
:10513000FCF7BEFE4EF28870C0F60000FCF7A0FE41
:105140000C20FCF765FE2046FCF7B2FE4EF298708C
:10515000C0F60000FCF794FE1020FCF759FE204634
:10516000FCF7A6FE4EF2A870C0F60000FCF788FE21
:105170000820FCF74DFE2046FCF79AFE4EF2B87070
:10518000C0F60000FCF77CFE2020FCF741FE204624
:10519000FCF78EFE4EF2C870C0F60000FCF770FE01
:1051A0002820FCF735FE2046BDE81040FCF780BE05
:1051B00038B5FCF765FF4FF47A70FCF771FF124DBC
:1051C00000241248FBF7C4FEFBF7EAFE0F48FBF78A
:1051D000BFFEFBF7E5FE0D48FBF7BAFEFBF7E0FE6E
:1051E0000A48FBF7B5FEFBF7DBFE2B680134002B0A
:1051F000E7D00748FCF744FEA000FCF709FE05488D
:10520000BDE83840FCF754BE10100020E01000202C
:10521000D8E70008E8E70008AFF30080AFF30080AC
:1052200041F2E000C2F20000FBF722BEAFF30080C3
:1052300010B5074C02E00748FBF762FDE3695B7FAE
:1052400003F00403DBB2002BF5D0002010BD00BF3B
:10525000D009002010110020AFF30080AFF30080D0
:1052600038B5FCF70DFF4FF47A70FCF719FF144DB9
:1052700000241448FBF744FD1248FBF781FD114858
:10528000FBF73EFD0F48FBF77BFD0E48FBF738FDB3
:105290000C48FBF775FD0B48FBF732FD0948FBF79F
:1052A0006FFD2B680134002BE3D00748FCF7E8FDC5
:1052B000A000FCF7ADFD0548BDE83840FCF7F8BD9F
:1052C0001010002010110020D8E70008F8E70008AF
:1052D00041F21010C2F200000121FBF7C1BC00BF77
:1052E00041F21010C2F200000021FBF7B9BC00BF70
:1052F00038B5FCF7C5FE4FF47A70FCF7D1FE154DBA
:105300000024202383F31188012100231248134A2B
:10531000FBF78EF9002342F21071104A1048FBF798
:1053200087F90D48FBF7A4F90D48FBF7A1F9002315
:1053300083F311882B680134002BE2D00948FCF775
:105340009FFD6000FCF764FD0748BDE83840FCF7AE
:10535000AFBD00BF10100020CC100020A1500008ED
:10536000B8100020D8E7000808E80008AFF3008074
:1053700038B523492348244D10220023FCF768FA4E
:10538000FCF77EFE4FF47A70FCF78AFE002420239F
:1053900083F3118800211B48FCF782FA0121194888
:1053A000FCF77EFA02211748FCF77AFA0321154828
:1053B000FCF776FA002383F311884FF0FF31114890
:1053C000FCF796FA4FF0FF310E48FCF791FA4FF0D8
:1053D000FF310C48FCF78CFA0A484FF0FF31FCF71C
:1053E00087FA2B680134002BD1D00848FCF748FD20
:1053F000A000FCF70DFD0648BDE83840FCF758BD9D
:10540000A8100020F010002010100020D8E700089D
:1054100014E80008AFF30080AFF30080AFF3008022
:105420002DE9F041144B154ADB69D2F800809E68E3
:10543000134F82B0FCF724FE4FF47A70FCF730FE75
:105440000024013625460F4B009540464FF49871D5
:105450003246FBF785FA3B680134002BF3D00A484B
:10546000FCF70EFD2046FCF7D3FC084802B0BDE86F
:10547000F041FCF71DBD00BFD009002090DE000800
:105480001010002091500008D8E7000820E800081C
:105490002DE9F04340F6D01985B004ACC2F2000902
:1054A000002344F8043DFCF7EBFDD9F81C304DF621
:1054B0009068C0F600089A68D8F80000009445F299
:1054C0008156C0F60006013A33464FF49871FBF757
:1054D00047FAD9F81C30D8F804709A68009441F261
:1054E0003005C2F20005013A286033464FF4987146
:1054F0003846FBF735FAD9F81C30D8F808709A68A6
:105500006860013A33464FF4987100943846FBF7CF
:1055100027FAD9F81C30D8F80C709A68A860013ABC
:1055200033464FF4987100943846FBF719FAD9F8CE
:105530001C30D8F810709A68E8604FF49871013AFE
:10554000334600943846FBF70BFA28614FF47A7023
:10555000FBF756FAFCF73CFDFCF74AFD4EF2D8701B
:10556000C0F60000FCF78CFC0398FCF751FC4EF6EB
:105570002C00C0F60000FCF79BFC05B0BDE8F083F2
:1055800038B50B4D0446FBF763FAFBF761FAFBF7FE
:105590005FFAFBF75DFA2268EB69043222605B7FF9
:1055A00003F00403DBB2002BEDD0002038BD00BFB8
:1055B000D0090020AFF30080AFF30080AFF300808C
:1055C0002DE9F042DFF80491384FD9F81C303868E3
:1055D0009A68374B374E384D84B000244FF4987199
:1055E00005320094FBF7BCF97A68D9F81C300392B5
:1055F0009A6830604FF4987104322D4B00940398F0
:10560000FBF7AEF9BA68D9F81C3003929A6870605B
:105610004FF498710332264B00940398FBF7A0F9DE
:10562000FA68D9F81C3003929A68B0604FF4987108
:1056300002321F4B00940398FBF792F9D9F81C3003
:105640003F699A681A4BF0604FF4987101320094E8
:105650003846FBF785F93061FCF712FD4FF47A709C
:10566000FCF71EFD15480021FBF71AFB2B680134DF
:10567000002BF7D0FCF7ACFC00211048FBF710FB27
:10568000FCF7B6FC0E48FCF7FBFB2046FCF7C0FB22
:105690000C48FCF7F5FB04EB44004000FCF7B8FBBA
:1056A000094804B0BDE8F042FCF702BC90DE0008F7
:1056B000315200083010002010100020101100207E
:1056C000D8E7000838E800082CE80008D0090020D6
:1056D0002DE9F041154B164ADB69D2F800809E682F
:1056E000144F82B0FCF7CCFC4FF47A70FCF7D8FC76
:1056F0000024013E2546104B00954FF49871324628
:105700004046FBF72DF9FBF7E3F93B680134002B2A
:10571000F1D00A48FCF7B4FB2046FCF779FB0848B7
:1057200002B0BDE8F041FCF7C3BB00BFD0090020C8
:1057300090DE00081010002091500008D8E7000803
:1057400020E80008AFF30080AFF30080AFF30080E3
:1057500070B5254B2548DB6900689A68244B254EB7
:1057600082B000254FF4987101320095FBF7F8F8EC
:10577000214B04461860FCF783FC4FF47A70FCF769
:105780008FFC202383F3118800212046FBF728F8A3
:1057900020460021FBF724F820460021FBF720F8E3
:1057A00020460021FBF71CF8002383F3118833689F
:1057B0000435002BE5D0202383F311884FF0FF310F
:1057C0002046FBF70DF8002383F31188FCF710FC4B
:1057D0000A48FCF755FB6800FCF71AFB084802B0C2
:1057E000BDE87040FCF764BBD009002090DE0008E3
:1057F000515A00081010002030100020D8E700088F
:105800002CE80008AFF30080AFF30080AFF3008016
:1058100070B50546FCF734FC4FF47A70FCF740FC99
:10582000074E002428460121FBF79AFE3368013415
:10583000002BF7D028460021FBF792FE204670BDD2
:1058400010100020AFF30080AFF30080AFF30080B2
:105850002DE9F04140F6D016C2F200064DF69065F3
:10586000F36982B0C0F600059A682868002745F6FB
:10587000312301324FF49871C0F600030097FBF713
:105880006FF8F36941F23004C2F200049A6800979D
:1058900045F29108C0F600082060023A43464FF4F2
:1058A00098716868FBF75CF8F3699A686060033A7E
:1058B00043464FF498710097A868FBF751F8F369D5
:1058C0009A68A060043A43464FF498710097E868DC
:1058D000FBF746F8F3692D699A68E0604FF4987118
:1058E000053A434600972846FBF73AF820612068BE
:1058F000FFF78EFF0446FCF77BFB4EF2D870C0F634
:105900000000FCF7BDFA2046FCF782FA4EF64C0088
:10591000C0F60000FCF7B4FA6000FCF779FA4EF626
:105920002C00C0F6000002B0BDE8F041FCF7C0BAA0
:1059300010B540F6D012C2F200024DF69063D26963
:10594000C0F6000382B092681868002445F631233F
:105950004FF4987101320094C0F60003FBF700F891
:1059600041F23003C2F200031860FFF751FF044612
:10597000FCF73EFB4EF2D870C0F60000FCF780FA50
:105980002046FCF745FA4EF64C00C0F60000FCF746
:1059900077FA6000FCF73CFA4EF62C00C0F60000E7
:1059A00002B0BDE81040FCF783BA00BFAFF300803F
:1059B00010B540F6D012C2F200024DF69063D269E3
:1059C000C0F6000382B092681868002445F63123BF
:1059D0004FF49871013A0094C0F60003FAF7C0FF43
:1059E00041F23003C2F200031860FFF711FF0446D2
:1059F000FCF7FEFA4EF2D870C0F60000FCF740FA51
:105A00002046FCF705FA4EF64C00C0F60000FCF705
:105A100037FA6000FCF7FCF94EF62C00C0F60000E7
:105A200002B0BDE81040FCF743BA00BFAFF30080FE
:105A300010B5FBF7B5FD446B2146FBF7D1FD002CFB
:105A4000F7D1204610BD00BFAFF30080AFF3008058
:105A5000084A10B52023D46983F311880220FAF78D
:105A600087FE636A002BF9D0002383F31188184660
:105A700010BD00BFD0090020AFF30080AFF300805D
:105A800008B500F0E5F900F0BBF94EF60030C0F6BD
:105A9000000000F0BDFE00F02BF800F021F9BDE899
:105AA000084000F095BF00BFAFF30080AFF3008067
:105AB0004FF48053CEF20003814202465B6809D85E
:105AC000834234BF002201228B422CBF104642F099
:105AD000010070478B422CBF00200120934238BF49
